{
  "contractName": "Example",
  "abi": [
    {
      "inputs": [],
      "stateMutability": "payable",
      "type": "constructor"
    },
    {
      "anonymous": false,
      "inputs": [
        {
          "indexed": true,
          "internalType": "address",
          "name": "owner",
          "type": "address"
        },
        {
          "indexed": true,
          "internalType": "address",
          "name": "approved",
          "type": "address"
        },
        {
          "indexed": true,
          "internalType": "uint256",
          "name": "tokenId",
          "type": "uint256"
        }
      ],
      "name": "Approval",
      "type": "event"
    },
    {
      "anonymous": false,
      "inputs": [
        {
          "indexed": true,
          "internalType": "address",
          "name": "owner",
          "type": "address"
        },
        {
          "indexed": true,
          "internalType": "address",
          "name": "operator",
          "type": "address"
        },
        {
          "indexed": false,
          "internalType": "bool",
          "name": "approved",
          "type": "bool"
        }
      ],
      "name": "ApprovalForAll",
      "type": "event"
    },
    {
      "anonymous": false,
      "inputs": [
        {
          "indexed": true,
          "internalType": "address",
          "name": "previousOwner",
          "type": "address"
        },
        {
          "indexed": true,
          "internalType": "address",
          "name": "newOwner",
          "type": "address"
        }
      ],
      "name": "OwnershipTransferred",
      "type": "event"
    },
    {
      "anonymous": false,
      "inputs": [
        {
          "indexed": true,
          "internalType": "address",
          "name": "from",
          "type": "address"
        },
        {
          "indexed": true,
          "internalType": "address",
          "name": "to",
          "type": "address"
        },
        {
          "indexed": true,
          "internalType": "uint256",
          "name": "tokenId",
          "type": "uint256"
        }
      ],
      "name": "Transfer",
      "type": "event"
    },
    {
      "inputs": [
        {
          "internalType": "address",
          "name": "to",
          "type": "address"
        },
        {
          "internalType": "uint256",
          "name": "tokenId",
          "type": "uint256"
        }
      ],
      "name": "approve",
      "outputs": [],
      "stateMutability": "nonpayable",
      "type": "function"
    },
    {
      "inputs": [
        {
          "internalType": "address",
          "name": "owner",
          "type": "address"
        }
      ],
      "name": "balanceOf",
      "outputs": [
        {
          "internalType": "uint256",
          "name": "",
          "type": "uint256"
        }
      ],
      "stateMutability": "view",
      "type": "function"
    },
    {
      "inputs": [
        {
          "internalType": "uint256",
          "name": "tokenId",
          "type": "uint256"
        }
      ],
      "name": "getApproved",
      "outputs": [
        {
          "internalType": "address",
          "name": "",
          "type": "address"
        }
      ],
      "stateMutability": "view",
      "type": "function"
    },
    {
      "inputs": [
        {
          "internalType": "address",
          "name": "owner",
          "type": "address"
        },
        {
          "internalType": "address",
          "name": "operator",
          "type": "address"
        }
      ],
      "name": "isApprovedForAll",
      "outputs": [
        {
          "internalType": "bool",
          "name": "",
          "type": "bool"
        }
      ],
      "stateMutability": "view",
      "type": "function"
    },
    {
      "inputs": [],
      "name": "name",
      "outputs": [
        {
          "internalType": "string",
          "name": "",
          "type": "string"
        }
      ],
      "stateMutability": "view",
      "type": "function"
    },
    {
      "inputs": [],
      "name": "owner",
      "outputs": [
        {
          "internalType": "address",
          "name": "",
          "type": "address"
        }
      ],
      "stateMutability": "view",
      "type": "function"
    },
    {
      "inputs": [
        {
          "internalType": "uint256",
          "name": "tokenId",
          "type": "uint256"
        }
      ],
      "name": "ownerOf",
      "outputs": [
        {
          "internalType": "address",
          "name": "",
          "type": "address"
        }
      ],
      "stateMutability": "view",
      "type": "function"
    },
    {
      "inputs": [],
      "name": "renounceOwnership",
      "outputs": [],
      "stateMutability": "nonpayable",
      "type": "function"
    },
    {
      "inputs": [
        {
          "internalType": "address",
          "name": "from",
          "type": "address"
        },
        {
          "internalType": "address",
          "name": "to",
          "type": "address"
        },
        {
          "internalType": "uint256",
          "name": "tokenId",
          "type": "uint256"
        }
      ],
      "name": "safeTransferFrom",
      "outputs": [],
      "stateMutability": "nonpayable",
      "type": "function"
    },
    {
      "inputs": [
        {
          "internalType": "address",
          "name": "from",
          "type": "address"
        },
        {
          "internalType": "address",
          "name": "to",
          "type": "address"
        },
        {
          "internalType": "uint256",
          "name": "tokenId",
          "type": "uint256"
        },
        {
          "internalType": "bytes",
          "name": "_data",
          "type": "bytes"
        }
      ],
      "name": "safeTransferFrom",
      "outputs": [],
      "stateMutability": "nonpayable",
      "type": "function"
    },
    {
      "inputs": [
        {
          "internalType": "address",
          "name": "operator",
          "type": "address"
        },
        {
          "internalType": "bool",
          "name": "approved",
          "type": "bool"
        }
      ],
      "name": "setApprovalForAll",
      "outputs": [],
      "stateMutability": "nonpayable",
      "type": "function"
    },
    {
      "inputs": [
        {
          "internalType": "bytes4",
          "name": "interfaceId",
          "type": "bytes4"
        }
      ],
      "name": "supportsInterface",
      "outputs": [
        {
          "internalType": "bool",
          "name": "",
          "type": "bool"
        }
      ],
      "stateMutability": "view",
      "type": "function"
    },
    {
      "inputs": [],
      "name": "symbol",
      "outputs": [
        {
          "internalType": "string",
          "name": "",
          "type": "string"
        }
      ],
      "stateMutability": "view",
      "type": "function"
    },
    {
      "inputs": [
        {
          "internalType": "uint256",
          "name": "tokenId",
          "type": "uint256"
        }
      ],
      "name": "tokenURI",
      "outputs": [
        {
          "internalType": "string",
          "name": "",
          "type": "string"
        }
      ],
      "stateMutability": "view",
      "type": "function"
    },
    {
      "inputs": [
        {
          "internalType": "address",
          "name": "from",
          "type": "address"
        },
        {
          "internalType": "address",
          "name": "to",
          "type": "address"
        },
        {
          "internalType": "uint256",
          "name": "tokenId",
          "type": "uint256"
        }
      ],
      "name": "transferFrom",
      "outputs": [],
      "stateMutability": "nonpayable",
      "type": "function"
    },
    {
      "inputs": [
        {
          "internalType": "address",
          "name": "newOwner",
          "type": "address"
        }
      ],
      "name": "transferOwnership",
      "outputs": [],
      "stateMutability": "nonpayable",
      "type": "function"
    },
    {
      "inputs": [
        {
          "internalType": "address",
          "name": "recipient",
          "type": "address"
        },
        {
          "internalType": "uint256",
          "name": "quantity",
          "type": "uint256"
        }
      ],
      "name": "mintPublic",
      "outputs": [],
      "stateMutability": "payable",
      "type": "function"
    }
  ],
  "bytecode": "0x60806040526040518060400160405280600381526020017f4e465400000000000000000000000000000000000000000000000000000000008152506040518060400160405280601281526020017f4578616d706c6520506c617967726f756e6400000000000000000000000000008152506200009062000084620000ca60201b60201c565b620000d260201b60201c565b8160019080519060200190620000a892919062000196565b508060029080519060200190620000c192919062000196565b505050620002ab565b600033905090565b60008060009054906101000a900473ffffffffffffffffffffffffffffffffffffffff169050816000806101000a81548173ffffffffffffffffffffffffffffffffffffffff021916908373ffffffffffffffffffffffffffffffffffffffff1602179055508173ffffffffffffffffffffffffffffffffffffffff168173ffffffffffffffffffffffffffffffffffffffff167f8be0079c531659141344cd1fd0a4f28419497f9722a3daafe3b4186f6b6457e060405160405180910390a35050565b828054620001a49062000246565b90600052602060002090601f016020900481019282620001c8576000855562000214565b82601f10620001e357805160ff191683800117855562000214565b8280016001018555821562000214579182015b8281111562000213578251825591602001919060010190620001f6565b5b50905062000223919062000227565b5090565b5b808211156200024257600081600090555060010162000228565b5090565b600060028204905060018216806200025f57607f821691505b602082108114156200027657620002756200027c565b5b50919050565b7f4e487b7100000000000000000000000000000000000000000000000000000000600052602260045260246000fd5b612bca80620002bb6000396000f3fe6080604052600436106100fe5760003560e01c8063715018a611610095578063a22cb46511610064578063a22cb46514610326578063b88d4fde1461034f578063c87b56dd14610378578063e985e9c5146103b5578063f2fde38b146103f2576100fe565b8063715018a61461029d5780638da5cb5b146102b457806395d89b41146102df5780639f93f7791461030a576100fe565b806323b872dd116100d157806323b872dd146101d157806342842e0e146101fa5780636352211e1461022357806370a0823114610260576100fe565b806301ffc9a71461010357806306fdde0314610140578063081812fc1461016b578063095ea7b3146101a8575b600080fd5b34801561010f57600080fd5b5061012a60048036038101906101259190611cce565b61041b565b60405161013791906120d4565b60405180910390f35b34801561014c57600080fd5b506101556104fd565b60405161016291906120ef565b60405180910390f35b34801561017757600080fd5b50610192600480360381019061018d9190611d20565b61058f565b60405161019f919061206d565b60405180910390f35b3480156101b457600080fd5b506101cf60048036038101906101ca9190611c92565b610614565b005b3480156101dd57600080fd5b506101f860048036038101906101f39190611b8c565b61072c565b005b34801561020657600080fd5b50610221600480360381019061021c9190611b8c565b61078c565b005b34801561022f57600080fd5b5061024a60048036038101906102459190611d20565b6107ac565b604051610257919061206d565b60405180910390f35b34801561026c57600080fd5b5061028760048036038101906102829190611b27565b61085e565b6040516102949190612311565b60405180910390f35b3480156102a957600080fd5b506102b2610916565b005b3480156102c057600080fd5b506102c961099e565b6040516102d6919061206d565b60405180910390f35b3480156102eb57600080fd5b506102f46109c7565b60405161030191906120ef565b60405180910390f35b610324600480360381019061031f9190611c92565b610a59565b005b34801561033257600080fd5b5061034d60048036038101906103489190611c56565b610a67565b005b34801561035b57600080fd5b5061037660048036038101906103719190611bdb565b610a7d565b005b34801561038457600080fd5b5061039f600480360381019061039a9190611d20565b610adf565b6040516103ac91906120ef565b60405180910390f35b3480156103c157600080fd5b506103dc60048036038101906103d79190611b50565b610b86565b6040516103e991906120d4565b60405180910390f35b3480156103fe57600080fd5b5061041960048036038101906104149190611b27565b610c1a565b005b60007f80ac58cd000000000000000000000000000000000000000000000000000000007bffffffffffffffffffffffffffffffffffffffffffffffffffffffff1916827bffffffffffffffffffffffffffffffffffffffffffffffffffffffff191614806104e657507f5b5e139f000000000000000000000000000000000000000000000000000000007bffffffffffffffffffffffffffffffffffffffffffffffffffffffff1916827bffffffffffffffffffffffffffffffffffffffffffffffffffffffff1916145b806104f657506104f582610d12565b5b9050919050565b60606001805461050c90612536565b80601f016020809104026020016040519081016040528092919081815260200182805461053890612536565b80156105855780601f1061055a57610100808354040283529160200191610585565b820191906000526020600020905b81548152906001019060200180831161056857829003601f168201915b5050505050905090565b600061059a82610d7c565b6105d9576040517f08c379a00000000000000000000000000000000000000000000000000000000081526004016105d090612271565b60405180910390fd5b6005600083815260200190815260200160002060009054906101000a900473ffffffffffffffffffffffffffffffffffffffff169050919050565b600061061f826107ac565b90508073ffffffffffffffffffffffffffffffffffffffff168373ffffffffffffffffffffffffffffffffffffffff161415610690576040517f08c379a0000000000000000000000000000000000000000000000000000000008152600401610687906122d1565b60405180910390fd5b8073ffffffffffffffffffffffffffffffffffffffff166106af610de8565b73ffffffffffffffffffffffffffffffffffffffff1614806106de57506106dd816106d8610de8565b610b86565b5b61071d576040517f08c379a0000000000000000000000000000000000000000000000000000000008152600401610714906121f1565b60405180910390fd5b6107278383610df0565b505050565b61073d610737610de8565b82610ea9565b61077c576040517f08c379a0000000000000000000000000000000000000000000000000000000008152600401610773906122f1565b60405180910390fd5b610787838383610f87565b505050565b6107a783838360405180602001604052806000815250610a7d565b505050565b6000806003600084815260200190815260200160002060009054906101000a900473ffffffffffffffffffffffffffffffffffffffff169050600073ffffffffffffffffffffffffffffffffffffffff168173ffffffffffffffffffffffffffffffffffffffff161415610855576040517f08c379a000000000000000000000000000000000000000000000000000000000815260040161084c90612231565b60405180910390fd5b80915050919050565b60008073ffffffffffffffffffffffffffffffffffffffff168273ffffffffffffffffffffffffffffffffffffffff1614156108cf576040517f08c379a00000000000000000000000000000000000000000000000000000000081526004016108c690612211565b60405180910390fd5b600460008373ffffffffffffffffffffffffffffffffffffffff1673ffffffffffffffffffffffffffffffffffffffff168152602001908152602001600020549050919050565b61091e610de8565b73ffffffffffffffffffffffffffffffffffffffff1661093c61099e565b73ffffffffffffffffffffffffffffffffffffffff1614610992576040517f08c379a000000000000000000000000000000000000000000000000000000000815260040161098990612291565b60405180910390fd5b61099c60006111ee565b565b60008060009054906101000a900473ffffffffffffffffffffffffffffffffffffffff16905090565b6060600280546109d690612536565b80601f0160208091040260200160405190810160405280929190818152602001828054610a0290612536565b8015610a4f5780601f10610a2457610100808354040283529160200191610a4f565b820191906000526020600020905b815481529060010190602001808311610a3257829003601f168201915b5050505050905090565b610a6382826112b2565b5050565b610a79610a72610de8565b83836112d0565b5050565b610a8e610a88610de8565b83610ea9565b610acd576040517f08c379a0000000000000000000000000000000000000000000000000000000008152600401610ac4906122f1565b60405180910390fd5b610ad98484848461143d565b50505050565b6060610aea82610d7c565b610b29576040517f08c379a0000000000000000000000000000000000000000000000000000000008152600401610b20906122b1565b60405180910390fd5b6000610b33611499565b90506000815111610b535760405180602001604052806000815250610b7e565b80610b5d846114b0565b604051602001610b6e929190612049565b6040516020818303038152906040525b915050919050565b6000600660008473ffffffffffffffffffffffffffffffffffffffff1673ffffffffffffffffffffffffffffffffffffffff16815260200190815260200160002060008373ffffffffffffffffffffffffffffffffffffffff1673ffffffffffffffffffffffffffffffffffffffff16815260200190815260200160002060009054906101000a900460ff16905092915050565b610c22610de8565b73ffffffffffffffffffffffffffffffffffffffff16610c4061099e565b73ffffffffffffffffffffffffffffffffffffffff1614610c96576040517f08c379a0000000000000000000000000000000000000000000000000000000008152600401610c8d90612291565b60405180910390fd5b600073ffffffffffffffffffffffffffffffffffffffff168173ffffffffffffffffffffffffffffffffffffffff161415610d06576040517f08c379a0000000000000000000000000000000000000000000000000000000008152600401610cfd90612131565b60405180910390fd5b610d0f816111ee565b50565b60007f01ffc9a7000000000000000000000000000000000000000000000000000000007bffffffffffffffffffffffffffffffffffffffffffffffffffffffff1916827bffffffffffffffffffffffffffffffffffffffffffffffffffffffff1916149050919050565b60008073ffffffffffffffffffffffffffffffffffffffff166003600084815260200190815260200160002060009054906101000a900473ffffffffffffffffffffffffffffffffffffffff1673ffffffffffffffffffffffffffffffffffffffff1614159050919050565b600033905090565b816005600083815260200190815260200160002060006101000a81548173ffffffffffffffffffffffffffffffffffffffff021916908373ffffffffffffffffffffffffffffffffffffffff160217905550808273ffffffffffffffffffffffffffffffffffffffff16610e63836107ac565b73ffffffffffffffffffffffffffffffffffffffff167f8c5be1e5ebec7d5bd14f71427d1e84f3dd0314c0f7b2291e5b200ac8c7c3b92560405160405180910390a45050565b6000610eb482610d7c565b610ef3576040517f08c379a0000000000000000000000000000000000000000000000000000000008152600401610eea906121d1565b60405180910390fd5b6000610efe836107ac565b90508073ffffffffffffffffffffffffffffffffffffffff168473ffffffffffffffffffffffffffffffffffffffff161480610f6d57508373ffffffffffffffffffffffffffffffffffffffff16610f558461058f565b73ffffffffffffffffffffffffffffffffffffffff16145b80610f7e5750610f7d8185610b86565b5b91505092915050565b8273ffffffffffffffffffffffffffffffffffffffff16610fa7826107ac565b73ffffffffffffffffffffffffffffffffffffffff1614610ffd576040517f08c379a0000000000000000000000000000000000000000000000000000000008152600401610ff490612151565b60405180910390fd5b600073ffffffffffffffffffffffffffffffffffffffff168273ffffffffffffffffffffffffffffffffffffffff16141561106d576040517f08c379a000000000000000000000000000000000000000000000000000000000815260040161106490612191565b60405180910390fd5b61107883838361165d565b611083600082610df0565b6001600460008573ffffffffffffffffffffffffffffffffffffffff1673ffffffffffffffffffffffffffffffffffffffff16815260200190815260200160002060008282546110d3919061244c565b925050819055506001600460008473ffffffffffffffffffffffffffffffffffffffff1673ffffffffffffffffffffffffffffffffffffffff168152602001908152602001600020600082825461112a91906123c5565b92505081905550816003600083815260200190815260200160002060006101000a81548173ffffffffffffffffffffffffffffffffffffffff021916908373ffffffffffffffffffffffffffffffffffffffff160217905550808273ffffffffffffffffffffffffffffffffffffffff168473ffffffffffffffffffffffffffffffffffffffff167fddf252ad1be2c89b69c2b068fc378daa952ba7f163c4a11628f55a4df523b3ef60405160405180910390a46111e9838383611662565b505050565b60008060009054906101000a900473ffffffffffffffffffffffffffffffffffffffff169050816000806101000a81548173ffffffffffffffffffffffffffffffffffffffff021916908373ffffffffffffffffffffffffffffffffffffffff1602179055508173ffffffffffffffffffffffffffffffffffffffff168173ffffffffffffffffffffffffffffffffffffffff167f8be0079c531659141344cd1fd0a4f28419497f9722a3daafe3b4186f6b6457e060405160405180910390a35050565b6112cc828260405180602001604052806000815250611667565b5050565b8173ffffffffffffffffffffffffffffffffffffffff168373ffffffffffffffffffffffffffffffffffffffff16141561133f576040517f08c379a0000000000000000000000000000000000000000000000000000000008152600401611336906121b1565b60405180910390fd5b80600660008573ffffffffffffffffffffffffffffffffffffffff1673ffffffffffffffffffffffffffffffffffffffff16815260200190815260200160002060008473ffffffffffffffffffffffffffffffffffffffff1673ffffffffffffffffffffffffffffffffffffffff16815260200190815260200160002060006101000a81548160ff0219169083151502179055508173ffffffffffffffffffffffffffffffffffffffff168373ffffffffffffffffffffffffffffffffffffffff167f17307eab39ab6107e8899845ad3d59bd9653f200f220920489ca2b5937696c318360405161143091906120d4565b60405180910390a3505050565b611448848484610f87565b611454848484846116c2565b611493576040517f08c379a000000000000000000000000000000000000000000000000000000000815260040161148a90612111565b60405180910390fd5b50505050565b606060405180602001604052806000815250905090565b606060008214156114f8576040518060400160405280600181526020017f30000000000000000000000000000000000000000000000000000000000000008152509050611658565b600082905060005b6000821461152a57808061151390612599565b915050600a82611523919061241b565b9150611500565b60008167ffffffffffffffff81111561156c577f4e487b7100000000000000000000000000000000000000000000000000000000600052604160045260246000fd5b6040519080825280601f01601f19166020018201604052801561159e5781602001600182028036833780820191505090505b5090505b60008514611651576001826115b7919061244c565b9150600a856115c691906125e2565b60306115d291906123c5565b60f81b81838151811061160e577f4e487b7100000000000000000000000000000000000000000000000000000000600052603260045260246000fd5b60200101907effffffffffffffffffffffffffffffffffffffffffffffffffffffffffffff1916908160001a905350600a8561164a919061241b565b94506115a2565b8093505050505b919050565b505050565b505050565b6116718383611859565b61167e60008484846116c2565b6116bd576040517f08c379a00000000000000000000000000000000000000000000000000000000081526004016116b490612111565b60405180910390fd5b505050565b60006116e38473ffffffffffffffffffffffffffffffffffffffff16611a33565b1561184c578373ffffffffffffffffffffffffffffffffffffffff1663150b7a0261170c610de8565b8786866040518563ffffffff1660e01b815260040161172e9493929190612088565b602060405180830381600087803b15801561174857600080fd5b505af192505050801561177957506040513d601f19601f820116820180604052508101906117769190611cf7565b60015b6117fc573d80600081146117a9576040519150601f19603f3d011682016040523d82523d6000602084013e6117ae565b606091505b506000815114156117f4576040517f08c379a00000000000000000000000000000000000000000000000000000000081526004016117eb90612111565b60405180910390fd5b805181602001fd5b63150b7a0260e01b7bffffffffffffffffffffffffffffffffffffffffffffffffffffffff1916817bffffffffffffffffffffffffffffffffffffffffffffffffffffffff191614915050611851565b600190505b949350505050565b600073ffffffffffffffffffffffffffffffffffffffff168273ffffffffffffffffffffffffffffffffffffffff1614156118c9576040517f08c379a00000000000000000000000000000000000000000000000000000000081526004016118c090612251565b60405180910390fd5b6118d281610d7c565b15611912576040517f08c379a000000000000000000000000000000000000000000000000000000000815260040161190990612171565b60405180910390fd5b61191e6000838361165d565b6001600460008473ffffffffffffffffffffffffffffffffffffffff1673ffffffffffffffffffffffffffffffffffffffff168152602001908152602001600020600082825461196e91906123c5565b92505081905550816003600083815260200190815260200160002060006101000a81548173ffffffffffffffffffffffffffffffffffffffff021916908373ffffffffffffffffffffffffffffffffffffffff160217905550808273ffffffffffffffffffffffffffffffffffffffff16600073ffffffffffffffffffffffffffffffffffffffff167fddf252ad1be2c89b69c2b068fc378daa952ba7f163c4a11628f55a4df523b3ef60405160405180910390a4611a2f60008383611662565b5050565b6000808273ffffffffffffffffffffffffffffffffffffffff163b119050919050565b6000611a69611a6484612351565b61232c565b905082815260208101848484011115611a8157600080fd5b611a8c8482856124f4565b509392505050565b600081359050611aa381612b38565b92915050565b600081359050611ab881612b4f565b92915050565b600081359050611acd81612b66565b92915050565b600081519050611ae281612b66565b92915050565b600082601f830112611af957600080fd5b8135611b09848260208601611a56565b91505092915050565b600081359050611b2181612b7d565b92915050565b600060208284031215611b3957600080fd5b6000611b4784828501611a94565b91505092915050565b60008060408385031215611b6357600080fd5b6000611b7185828601611a94565b9250506020611b8285828601611a94565b9150509250929050565b600080600060608486031215611ba157600080fd5b6000611baf86828701611a94565b9350506020611bc086828701611a94565b9250506040611bd186828701611b12565b9150509250925092565b60008060008060808587031215611bf157600080fd5b6000611bff87828801611a94565b9450506020611c1087828801611a94565b9350506040611c2187828801611b12565b925050606085013567ffffffffffffffff811115611c3e57600080fd5b611c4a87828801611ae8565b91505092959194509250565b60008060408385031215611c6957600080fd5b6000611c7785828601611a94565b9250506020611c8885828601611aa9565b9150509250929050565b60008060408385031215611ca557600080fd5b6000611cb385828601611a94565b9250506020611cc485828601611b12565b9150509250929050565b600060208284031215611ce057600080fd5b6000611cee84828501611abe565b91505092915050565b600060208284031215611d0957600080fd5b6000611d1784828501611ad3565b91505092915050565b600060208284031215611d3257600080fd5b6000611d4084828501611b12565b91505092915050565b611d5281612480565b82525050565b611d6181612492565b82525050565b6000611d7282612382565b611d7c8185612398565b9350611d8c818560208601612503565b611d95816126cf565b840191505092915050565b6000611dab8261238d565b611db581856123a9565b9350611dc5818560208601612503565b611dce816126cf565b840191505092915050565b6000611de48261238d565b611dee81856123ba565b9350611dfe818560208601612503565b80840191505092915050565b6000611e176032836123a9565b9150611e22826126e0565b604082019050919050565b6000611e3a6026836123a9565b9150611e458261272f565b604082019050919050565b6000611e5d6025836123a9565b9150611e688261277e565b604082019050919050565b6000611e80601c836123a9565b9150611e8b826127cd565b602082019050919050565b6000611ea36024836123a9565b9150611eae826127f6565b604082019050919050565b6000611ec66019836123a9565b9150611ed182612845565b602082019050919050565b6000611ee9602c836123a9565b9150611ef48261286e565b604082019050919050565b6000611f0c6038836123a9565b9150611f17826128bd565b604082019050919050565b6000611f2f602a836123a9565b9150611f3a8261290c565b604082019050919050565b6000611f526029836123a9565b9150611f5d8261295b565b604082019050919050565b6000611f756020836123a9565b9150611f80826129aa565b602082019050919050565b6000611f98602c836123a9565b9150611fa3826129d3565b604082019050919050565b6000611fbb6020836123a9565b9150611fc682612a22565b602082019050919050565b6000611fde602f836123a9565b9150611fe982612a4b565b604082019050919050565b60006120016021836123a9565b915061200c82612a9a565b604082019050919050565b60006120246031836123a9565b915061202f82612ae9565b604082019050919050565b612043816124ea565b82525050565b60006120558285611dd9565b91506120618284611dd9565b91508190509392505050565b60006020820190506120826000830184611d49565b92915050565b600060808201905061209d6000830187611d49565b6120aa6020830186611d49565b6120b7604083018561203a565b81810360608301526120c98184611d67565b905095945050505050565b60006020820190506120e96000830184611d58565b92915050565b600060208201905081810360008301526121098184611da0565b905092915050565b6000602082019050818103600083015261212a81611e0a565b9050919050565b6000602082019050818103600083015261214a81611e2d565b9050919050565b6000602082019050818103600083015261216a81611e50565b9050919050565b6000602082019050818103600083015261218a81611e73565b9050919050565b600060208201905081810360008301526121aa81611e96565b9050919050565b600060208201905081810360008301526121ca81611eb9565b9050919050565b600060208201905081810360008301526121ea81611edc565b9050919050565b6000602082019050818103600083015261220a81611eff565b9050919050565b6000602082019050818103600083015261222a81611f22565b9050919050565b6000602082019050818103600083015261224a81611f45565b9050919050565b6000602082019050818103600083015261226a81611f68565b9050919050565b6000602082019050818103600083015261228a81611f8b565b9050919050565b600060208201905081810360008301526122aa81611fae565b9050919050565b600060208201905081810360008301526122ca81611fd1565b9050919050565b600060208201905081810360008301526122ea81611ff4565b9050919050565b6000602082019050818103600083015261230a81612017565b9050919050565b6000602082019050612326600083018461203a565b92915050565b6000612336612347565b90506123428282612568565b919050565b6000604051905090565b600067ffffffffffffffff82111561236c5761236b6126a0565b5b612375826126cf565b9050602081019050919050565b600081519050919050565b600081519050919050565b600082825260208201905092915050565b600082825260208201905092915050565b600081905092915050565b60006123d0826124ea565b91506123db836124ea565b9250827fffffffffffffffffffffffffffffffffffffffffffffffffffffffffffffffff038211156124105761240f612613565b5b828201905092915050565b6000612426826124ea565b9150612431836124ea565b92508261244157612440612642565b5b828204905092915050565b6000612457826124ea565b9150612462836124ea565b92508282101561247557612474612613565b5b828203905092915050565b600061248b826124ca565b9050919050565b60008115159050919050565b60007fffffffff0000000000000000000000000000000000000000000000000000000082169050919050565b600073ffffffffffffffffffffffffffffffffffffffff82169050919050565b6000819050919050565b82818337600083830152505050565b60005b83811015612521578082015181840152602081019050612506565b83811115612530576000848401525b50505050565b6000600282049050600182168061254e57607f821691505b6020821081141561256257612561612671565b5b50919050565b612571826126cf565b810181811067ffffffffffffffff821117156125905761258f6126a0565b5b80604052505050565b60006125a4826124ea565b91507fffffffffffffffffffffffffffffffffffffffffffffffffffffffffffffffff8214156125d7576125d6612613565b5b600182019050919050565b60006125ed826124ea565b91506125f8836124ea565b92508261260857612607612642565b5b828206905092915050565b7f4e487b7100000000000000000000000000000000000000000000000000000000600052601160045260246000fd5b7f4e487b7100000000000000000000000000000000000000000000000000000000600052601260045260246000fd5b7f4e487b7100000000000000000000000000000000000000000000000000000000600052602260045260246000fd5b7f4e487b7100000000000000000000000000000000000000000000000000000000600052604160045260246000fd5b6000601f19601f8301169050919050565b7f4552433732313a207472616e7366657220746f206e6f6e20455243373231526560008201527f63656976657220696d706c656d656e7465720000000000000000000000000000602082015250565b7f4f776e61626c653a206e6577206f776e657220697320746865207a65726f206160008201527f6464726573730000000000000000000000000000000000000000000000000000602082015250565b7f4552433732313a207472616e736665722066726f6d20696e636f72726563742060008201527f6f776e6572000000000000000000000000000000000000000000000000000000602082015250565b7f4552433732313a20746f6b656e20616c7265616479206d696e74656400000000600082015250565b7f4552433732313a207472616e7366657220746f20746865207a65726f2061646460008201527f7265737300000000000000000000000000000000000000000000000000000000602082015250565b7f4552433732313a20617070726f766520746f2063616c6c657200000000000000600082015250565b7f4552433732313a206f70657261746f7220717565727920666f72206e6f6e657860008201527f697374656e7420746f6b656e0000000000000000000000000000000000000000602082015250565b7f4552433732313a20617070726f76652063616c6c6572206973206e6f74206f7760008201527f6e6572206e6f7220617070726f76656420666f7220616c6c0000000000000000602082015250565b7f4552433732313a2062616c616e636520717565727920666f7220746865207a6560008201527f726f206164647265737300000000000000000000000000000000000000000000602082015250565b7f4552433732313a206f776e657220717565727920666f72206e6f6e657869737460008201527f656e7420746f6b656e0000000000000000000000000000000000000000000000602082015250565b7f4552433732313a206d696e7420746f20746865207a65726f2061646472657373600082015250565b7f4552433732313a20617070726f76656420717565727920666f72206e6f6e657860008201527f697374656e7420746f6b656e0000000000000000000000000000000000000000602082015250565b7f4f776e61626c653a2063616c6c6572206973206e6f7420746865206f776e6572600082015250565b7f4552433732314d657461646174613a2055524920717565727920666f72206e6f60008201527f6e6578697374656e7420746f6b656e0000000000000000000000000000000000602082015250565b7f4552433732313a20617070726f76616c20746f2063757272656e74206f776e6560008201527f7200000000000000000000000000000000000000000000000000000000000000602082015250565b7f4552433732313a207472616e736665722063616c6c6572206973206e6f74206f60008201527f776e6572206e6f7220617070726f766564000000000000000000000000000000602082015250565b612b4181612480565b8114612b4c57600080fd5b50565b612b5881612492565b8114612b6357600080fd5b50565b612b6f8161249e565b8114612b7a57600080fd5b50565b612b86816124ea565b8114612b9157600080fd5b5056fea264697066735822122031dba7d4fbb12cef72bb19f037c00146346899cbac9b2987d038cebcddd1fcb364736f6c63430008020033",
  "immutableReferences": {},
  "source": "// SPDX-License-Identifier: MIT\npragma solidity ^0.8.2;\nimport \"@openzeppelin/contracts/access/Ownable.sol\";\nimport \"@openzeppelin/contracts/token/ERC721/ERC721.sol\";\n\ncontract Example is Ownable, ERC721 {\n\n    constructor() payable ERC721(\"NFT\", \"Example Playground\") { \n\n    }\n\n    function mintPublic(\n        address recipient,\n        uint256 quantity\n    ) public payable {\n        _safeMint(recipient, quantity);\n    }\n}",
  "sourcePath": "/Users/aipek/Documents/metamon_contracts/contracts/Example.sol",
  "compiler": {
    "name": "solc",
    "version": "0.8.2+commit.661d1103.Emscripten.clang"
  },
  "schemaVersion": "3.4.4",
  "updatedAt": "2022-03-17T23:13:07.405Z",
  "devdoc": {
    "kind": "dev",
    "methods": {
      "approve(address,uint256)": {
        "details": "See {IERC721-approve}."
      },
      "balanceOf(address)": {
        "details": "See {IERC721-balanceOf}."
      },
      "getApproved(uint256)": {
        "details": "See {IERC721-getApproved}."
      },
      "isApprovedForAll(address,address)": {
        "details": "See {IERC721-isApprovedForAll}."
      },
      "name()": {
        "details": "See {IERC721Metadata-name}."
      },
      "owner()": {
        "details": "Returns the address of the current owner."
      },
      "ownerOf(uint256)": {
        "details": "See {IERC721-ownerOf}."
      },
      "renounceOwnership()": {
        "details": "Leaves the contract without owner. It will not be possible to call `onlyOwner` functions anymore. Can only be called by the current owner. NOTE: Renouncing ownership will leave the contract without an owner, thereby removing any functionality that is only available to the owner."
      },
      "safeTransferFrom(address,address,uint256)": {
        "details": "See {IERC721-safeTransferFrom}."
      },
      "safeTransferFrom(address,address,uint256,bytes)": {
        "details": "See {IERC721-safeTransferFrom}."
      },
      "setApprovalForAll(address,bool)": {
        "details": "See {IERC721-setApprovalForAll}."
      },
      "supportsInterface(bytes4)": {
        "details": "See {IERC165-supportsInterface}."
      },
      "symbol()": {
        "details": "See {IERC721Metadata-symbol}."
      },
      "tokenURI(uint256)": {
        "details": "See {IERC721Metadata-tokenURI}."
      },
      "transferFrom(address,address,uint256)": {
        "details": "See {IERC721-transferFrom}."
      },
      "transferOwnership(address)": {
        "details": "Transfers ownership of the contract to a new account (`newOwner`). Can only be called by the current owner."
      }
    },
    "version": 1
  },
  "userdoc": {
    "kind": "user",
    "methods": {},
    "version": 1
  }
}