{
  "contractName": "Item",
  "abi": [
    {
      "inputs": [],
      "stateMutability": "payable",
      "type": "constructor",
      "payable": true
    },
    {
      "anonymous": false,
      "inputs": [
        {
          "indexed": true,
          "internalType": "address",
          "name": "owner",
          "type": "address"
        },
        {
          "indexed": true,
          "internalType": "address",
          "name": "approved",
          "type": "address"
        },
        {
          "indexed": true,
          "internalType": "uint256",
          "name": "tokenId",
          "type": "uint256"
        }
      ],
      "name": "Approval",
      "type": "event"
    },
    {
      "anonymous": false,
      "inputs": [
        {
          "indexed": true,
          "internalType": "address",
          "name": "owner",
          "type": "address"
        },
        {
          "indexed": true,
          "internalType": "address",
          "name": "operator",
          "type": "address"
        },
        {
          "indexed": false,
          "internalType": "bool",
          "name": "approved",
          "type": "bool"
        }
      ],
      "name": "ApprovalForAll",
      "type": "event"
    },
    {
      "anonymous": false,
      "inputs": [
        {
          "indexed": false,
          "internalType": "address",
          "name": "_burner",
          "type": "address"
        },
        {
          "indexed": false,
          "internalType": "uint256",
          "name": "_tokenId",
          "type": "uint256"
        }
      ],
      "name": "BurnItem",
      "type": "event"
    },
    {
      "anonymous": false,
      "inputs": [
        {
          "indexed": false,
          "internalType": "address",
          "name": "_reciever",
          "type": "address"
        },
        {
          "indexed": false,
          "internalType": "uint256",
          "name": "_tokenId",
          "type": "uint256"
        }
      ],
      "name": "ItemMinted",
      "type": "event"
    },
    {
      "anonymous": false,
      "inputs": [
        {
          "indexed": false,
          "internalType": "address",
          "name": "_sender",
          "type": "address"
        },
        {
          "indexed": false,
          "internalType": "uint256",
          "name": "_value",
          "type": "uint256"
        }
      ],
      "name": "ReceivedEth",
      "type": "event"
    },
    {
      "anonymous": false,
      "inputs": [
        {
          "indexed": true,
          "internalType": "address",
          "name": "from",
          "type": "address"
        },
        {
          "indexed": true,
          "internalType": "address",
          "name": "to",
          "type": "address"
        },
        {
          "indexed": true,
          "internalType": "uint256",
          "name": "tokenId",
          "type": "uint256"
        }
      ],
      "name": "Transfer",
      "type": "event"
    },
    {
      "stateMutability": "payable",
      "type": "fallback",
      "payable": true
    },
    {
      "inputs": [
        {
          "internalType": "address",
          "name": "to",
          "type": "address"
        },
        {
          "internalType": "uint256",
          "name": "tokenId",
          "type": "uint256"
        }
      ],
      "name": "approve",
      "outputs": [],
      "stateMutability": "nonpayable",
      "type": "function"
    },
    {
      "inputs": [
        {
          "internalType": "address",
          "name": "owner",
          "type": "address"
        }
      ],
      "name": "balanceOf",
      "outputs": [
        {
          "internalType": "uint256",
          "name": "",
          "type": "uint256"
        }
      ],
      "stateMutability": "view",
      "type": "function",
      "constant": true
    },
    {
      "inputs": [
        {
          "internalType": "uint256",
          "name": "tokenId",
          "type": "uint256"
        }
      ],
      "name": "getApproved",
      "outputs": [
        {
          "internalType": "address",
          "name": "",
          "type": "address"
        }
      ],
      "stateMutability": "view",
      "type": "function",
      "constant": true
    },
    {
      "inputs": [
        {
          "internalType": "address",
          "name": "owner",
          "type": "address"
        },
        {
          "internalType": "address",
          "name": "operator",
          "type": "address"
        }
      ],
      "name": "isApprovedForAll",
      "outputs": [
        {
          "internalType": "bool",
          "name": "",
          "type": "bool"
        }
      ],
      "stateMutability": "view",
      "type": "function",
      "constant": true
    },
    {
      "inputs": [
        {
          "internalType": "uint256",
          "name": "",
          "type": "uint256"
        }
      ],
      "name": "itemBurnable",
      "outputs": [
        {
          "internalType": "uint256",
          "name": "",
          "type": "uint256"
        }
      ],
      "stateMutability": "view",
      "type": "function",
      "constant": true
    },
    {
      "inputs": [
        {
          "internalType": "uint256",
          "name": "",
          "type": "uint256"
        }
      ],
      "name": "itemSupplies",
      "outputs": [
        {
          "internalType": "uint32",
          "name": "",
          "type": "uint32"
        }
      ],
      "stateMutability": "view",
      "type": "function",
      "constant": true
    },
    {
      "inputs": [],
      "name": "itemTotalSupply",
      "outputs": [
        {
          "internalType": "uint256",
          "name": "",
          "type": "uint256"
        }
      ],
      "stateMutability": "view",
      "type": "function",
      "constant": true
    },
    {
      "inputs": [
        {
          "internalType": "uint256",
          "name": "",
          "type": "uint256"
        }
      ],
      "name": "itemTypes",
      "outputs": [
        {
          "internalType": "uint8",
          "name": "",
          "type": "uint8"
        }
      ],
      "stateMutability": "view",
      "type": "function",
      "constant": true
    },
    {
      "inputs": [
        {
          "internalType": "uint256",
          "name": "",
          "type": "uint256"
        }
      ],
      "name": "maxOwnable",
      "outputs": [
        {
          "internalType": "uint8",
          "name": "",
          "type": "uint8"
        }
      ],
      "stateMutability": "view",
      "type": "function",
      "constant": true
    },
    {
      "inputs": [],
      "name": "name",
      "outputs": [
        {
          "internalType": "string",
          "name": "",
          "type": "string"
        }
      ],
      "stateMutability": "view",
      "type": "function",
      "constant": true
    },
    {
      "inputs": [],
      "name": "owner",
      "outputs": [
        {
          "internalType": "address payable",
          "name": "",
          "type": "address"
        }
      ],
      "stateMutability": "view",
      "type": "function",
      "constant": true
    },
    {
      "inputs": [
        {
          "internalType": "uint256",
          "name": "tokenId",
          "type": "uint256"
        }
      ],
      "name": "ownerOf",
      "outputs": [
        {
          "internalType": "address",
          "name": "",
          "type": "address"
        }
      ],
      "stateMutability": "view",
      "type": "function",
      "constant": true
    },
    {
      "inputs": [
        {
          "internalType": "address",
          "name": "from",
          "type": "address"
        },
        {
          "internalType": "address",
          "name": "to",
          "type": "address"
        },
        {
          "internalType": "uint256",
          "name": "tokenId",
          "type": "uint256"
        }
      ],
      "name": "safeTransferFrom",
      "outputs": [],
      "stateMutability": "nonpayable",
      "type": "function"
    },
    {
      "inputs": [
        {
          "internalType": "address",
          "name": "from",
          "type": "address"
        },
        {
          "internalType": "address",
          "name": "to",
          "type": "address"
        },
        {
          "internalType": "uint256",
          "name": "tokenId",
          "type": "uint256"
        },
        {
          "internalType": "bytes",
          "name": "_data",
          "type": "bytes"
        }
      ],
      "name": "safeTransferFrom",
      "outputs": [],
      "stateMutability": "nonpayable",
      "type": "function"
    },
    {
      "inputs": [
        {
          "internalType": "address",
          "name": "operator",
          "type": "address"
        },
        {
          "internalType": "bool",
          "name": "approved",
          "type": "bool"
        }
      ],
      "name": "setApprovalForAll",
      "outputs": [],
      "stateMutability": "nonpayable",
      "type": "function"
    },
    {
      "inputs": [
        {
          "internalType": "bytes4",
          "name": "interfaceId",
          "type": "bytes4"
        }
      ],
      "name": "supportsInterface",
      "outputs": [
        {
          "internalType": "bool",
          "name": "",
          "type": "bool"
        }
      ],
      "stateMutability": "view",
      "type": "function",
      "constant": true
    },
    {
      "inputs": [],
      "name": "symbol",
      "outputs": [
        {
          "internalType": "string",
          "name": "",
          "type": "string"
        }
      ],
      "stateMutability": "view",
      "type": "function",
      "constant": true
    },
    {
      "inputs": [
        {
          "internalType": "uint256",
          "name": "",
          "type": "uint256"
        }
      ],
      "name": "tokenItemTypes",
      "outputs": [
        {
          "internalType": "uint8",
          "name": "",
          "type": "uint8"
        }
      ],
      "stateMutability": "view",
      "type": "function",
      "constant": true
    },
    {
      "inputs": [
        {
          "internalType": "address",
          "name": "",
          "type": "address"
        },
        {
          "internalType": "uint256",
          "name": "",
          "type": "uint256"
        }
      ],
      "name": "tokenOwner",
      "outputs": [
        {
          "internalType": "uint256",
          "name": "",
          "type": "uint256"
        }
      ],
      "stateMutability": "view",
      "type": "function",
      "constant": true
    },
    {
      "inputs": [
        {
          "internalType": "address",
          "name": "",
          "type": "address"
        },
        {
          "internalType": "uint8",
          "name": "",
          "type": "uint8"
        },
        {
          "internalType": "uint256",
          "name": "",
          "type": "uint256"
        }
      ],
      "name": "tokenOwners",
      "outputs": [
        {
          "internalType": "uint256",
          "name": "",
          "type": "uint256"
        }
      ],
      "stateMutability": "view",
      "type": "function",
      "constant": true
    },
    {
      "inputs": [
        {
          "internalType": "address",
          "name": "from",
          "type": "address"
        },
        {
          "internalType": "address",
          "name": "to",
          "type": "address"
        },
        {
          "internalType": "uint256",
          "name": "tokenId",
          "type": "uint256"
        }
      ],
      "name": "transferFrom",
      "outputs": [],
      "stateMutability": "nonpayable",
      "type": "function"
    },
    {
      "stateMutability": "payable",
      "type": "receive",
      "payable": true
    },
    {
      "inputs": [
        {
          "internalType": "uint256",
          "name": "_new_price",
          "type": "uint256"
        },
        {
          "internalType": "uint8",
          "name": "_itemType",
          "type": "uint8"
        }
      ],
      "name": "changeFloorPrice",
      "outputs": [],
      "stateMutability": "nonpayable",
      "type": "function"
    },
    {
      "inputs": [
        {
          "internalType": "uint8",
          "name": "_itemType",
          "type": "uint8"
        }
      ],
      "name": "getFloorPrice",
      "outputs": [
        {
          "internalType": "uint256",
          "name": "",
          "type": "uint256"
        }
      ],
      "stateMutability": "view",
      "type": "function",
      "constant": true
    },
    {
      "inputs": [
        {
          "internalType": "uint8",
          "name": "_itemType",
          "type": "uint8"
        }
      ],
      "name": "getSupplyLeft",
      "outputs": [
        {
          "internalType": "uint256",
          "name": "",
          "type": "uint256"
        }
      ],
      "stateMutability": "view",
      "type": "function",
      "constant": true
    },
    {
      "inputs": [
        {
          "internalType": "address",
          "name": "_owner",
          "type": "address"
        },
        {
          "internalType": "uint8",
          "name": "_itemType",
          "type": "uint8"
        }
      ],
      "name": "specificItemOwnership",
      "outputs": [
        {
          "internalType": "uint256",
          "name": "",
          "type": "uint256"
        }
      ],
      "stateMutability": "view",
      "type": "function",
      "constant": true
    },
    {
      "inputs": [],
      "name": "totalItemTypes",
      "outputs": [
        {
          "internalType": "uint256",
          "name": "",
          "type": "uint256"
        }
      ],
      "stateMutability": "view",
      "type": "function",
      "constant": true
    },
    {
      "inputs": [
        {
          "internalType": "address",
          "name": "_burner",
          "type": "address"
        },
        {
          "internalType": "uint256",
          "name": "_tokenId",
          "type": "uint256"
        }
      ],
      "name": "burn",
      "outputs": [],
      "stateMutability": "nonpayable",
      "type": "function"
    },
    {
      "inputs": [
        {
          "internalType": "string",
          "name": "_passCode",
          "type": "string"
        },
        {
          "internalType": "address",
          "name": "_recipient",
          "type": "address"
        },
        {
          "internalType": "uint8",
          "name": "_itemType",
          "type": "uint8"
        },
        {
          "internalType": "uint256",
          "name": "_quantity",
          "type": "uint256"
        }
      ],
      "name": "mintSale",
      "outputs": [],
      "stateMutability": "payable",
      "type": "function",
      "payable": true
    },
    {
      "inputs": [
        {
          "internalType": "string",
          "name": "_baseURILink",
          "type": "string"
        }
      ],
      "name": "setBaseURI",
      "outputs": [],
      "stateMutability": "nonpayable",
      "type": "function"
    },
    {
      "inputs": [],
      "name": "getBaseURI",
      "outputs": [
        {
          "internalType": "string",
          "name": "",
          "type": "string"
        }
      ],
      "stateMutability": "view",
      "type": "function",
      "constant": true
    },
    {
      "inputs": [
        {
          "internalType": "uint256",
          "name": "tokenId",
          "type": "uint256"
        }
      ],
      "name": "tokenURI",
      "outputs": [
        {
          "internalType": "string",
          "name": "",
          "type": "string"
        }
      ],
      "stateMutability": "view",
      "type": "function",
      "constant": true
    }
  ],
  "bytecode": "0x60806040526040518060e00160405280600160ff168152602001600060ff168152602001600060ff168152602001600060ff168152602001600060ff168152602001600060ff168152602001600060ff1681525060079060076200006592919062000394565b506040518060e00160405280600160ff168152602001600260ff168152602001600360ff168152602001600460ff168152602001600560ff168152602001600660ff168152602001600760ff16815250600e906007620000c7929190620003de565b506040518060e00160405280600a60ff168152602001600160ff168152602001600160ff168152602001600160ff168152602001600160ff168152602001600160ff168152602001600160ff16815250600f90600762000129929190620003de565b506040518060e001604052806109c461ffff1681526020016109c461ffff1681526020016103e861ffff1681526020016103e861ffff1681526020016103e861ffff1681526020016103e861ffff1681526020016103e861ffff168152506010906007620001999291906200047f565b506040518060e001604052806701aa535d3d0c000067ffffffffffffffff1681526020016703782dace9d9000067ffffffffffffffff168152602001668e1bc9bf04000067ffffffffffffffff168152602001668e1bc9bf04000067ffffffffffffffff168152602001668e1bc9bf04000067ffffffffffffffff168152602001668e1bc9bf04000067ffffffffffffffff168152602001668e1bc9bf04000067ffffffffffffffff1681525060119060076200025892919062000526565b506127106019556040518060400160405280600a81526020017f4d4144454348414e474500000000000000000000000000000000000000000000815250601c9080519060200190620002ac92919062000577565b506040518060400160405280601781526020017f4d6574616d6f6e204974656d20436f6c6c656374696f6e0000000000000000008152506040518060400160405280600381526020017f4e4654000000000000000000000000000000000000000000000000000000000081525081600090805190602001906200033192919062000577565b5080600190805190602001906200034a92919062000577565b50505033600660006101000a81548173ffffffffffffffffffffffffffffffffffffffff021916908373ffffffffffffffffffffffffffffffffffffffff1602179055506200068c565b8260078101928215620003cb579160200282015b82811115620003ca578251829060ff16905591602001919060010190620003a8565b5b509050620003da919062000608565b5090565b826007601f016020900481019282156200046c5791602002820160005b838211156200043b57835183826101000a81548160ff021916908360ff1602179055509260200192600101602081600001049283019260010302620003fb565b80156200046a5782816101000a81549060ff02191690556001016020816000010492830192600103026200043b565b505b5090506200047b919062000608565b5090565b8260078001600890048101928215620005135791602002820160005b83821115620004df57835183826101000a81548163ffffffff021916908361ffff16021790555092602001926004016020816003010492830192600103026200049b565b8015620005115782816101000a81549063ffffffff0219169055600401602081600301049283019260010302620004df565b505b50905062000522919062000608565b5090565b826007810192821562000564579160200282015b8281111562000563578251829067ffffffffffffffff169055916020019190600101906200053a565b5b50905062000573919062000608565b5090565b828054620005859062000627565b90600052602060002090601f016020900481019282620005a95760008555620005f5565b82601f10620005c457805160ff1916838001178555620005f5565b82800160010185558215620005f5579182015b82811115620005f4578251825591602001919060010190620005d7565b5b50905062000604919062000608565b5090565b5b808211156200062357600081600090555060010162000609565b5090565b600060028204905060018216806200064057607f821691505b602082108114156200065757620006566200065d565b5b50919050565b7f4e487b7100000000000000000000000000000000000000000000000000000000600052602260045260246000fd5b614490806200069c6000396000f3fe6080604052600436106101dc5760003560e01c8063714c539811610102578063b88d4fde11610095578063c87b56dd11610064578063c87b56dd14610774578063c9432c05146107b1578063cc74a505146107da578063e985e9c5146108175761021c565b8063b88d4fde14610694578063bc5cff9d146106bd578063bd9dfe27146106fa578063c2a6608f146107375761021c565b80639acf878c116100d15780639acf878c146105e95780639dc29fac14610626578063a22cb4651461064f578063a7cb5b6e146106785761021c565b8063714c53981461053d5780637aaf470c146105685780638da5cb5b1461059357806395d89b41146105be5761021c565b80632257eb7e1161017a5780634fa29898116101495780634fa298981461045d57806355f804b31461049a5780636352211e146104c357806370a08231146105005761021c565b80632257eb7e1461039157806323b872dd146103ce57806342842e0e146103f7578063486fc6d3146104205761021c565b8063095ea7b3116101b6578063095ea7b3146102c35780630cb98b71146102ec57806315fc1709146103295780631cad7363146103545761021c565b806301ffc9a71461021e57806306fdde031461025b578063081812fc146102865761021c565b3661021c577f52a6cdf67c40ce333b3d846e4e143db87f71dd7935612a4cafcf6ba76047ca1f3334604051610212929190613670565b60405180910390a1005b005b34801561022a57600080fd5b5061024560048036038101906102409190612f17565b610854565b6040516102529190613699565b60405180910390f35b34801561026757600080fd5b50610270610936565b60405161027d91906136b4565b60405180910390f35b34801561029257600080fd5b506102ad60048036038101906102a89190613025565b6109c8565b6040516102ba91906135ee565b60405180910390f35b3480156102cf57600080fd5b506102ea60048036038101906102e59190612e50565b610a4d565b005b3480156102f857600080fd5b50610313600480360381019061030e9190612e8c565b610b65565b6040516103209190613976565b60405180910390f35b34801561033557600080fd5b5061033e610bce565b60405161034b9190613976565b60405180910390f35b34801561036057600080fd5b5061037b60048036038101906103769190612ec8565b610bd4565b6040516103889190613976565b60405180910390f35b34801561039d57600080fd5b506103b860048036038101906103b39190613025565b610c12565b6040516103c59190613991565b60405180910390f35b3480156103da57600080fd5b506103f560048036038101906103f09190612d4a565b610c42565b005b34801561040357600080fd5b5061041e60048036038101906104199190612d4a565b610ca2565b005b34801561042c57600080fd5b506104476004803603810190610442919061308a565b610cc2565b6040516104549190613976565b60405180910390f35b34801561046957600080fd5b50610484600480360381019061047f9190613025565b610d6c565b60405161049191906139ac565b60405180910390f35b3480156104a657600080fd5b506104c160048036038101906104bc9190612f69565b610d8c565b005b3480156104cf57600080fd5b506104ea60048036038101906104e59190613025565b610e38565b6040516104f791906135ee565b60405180910390f35b34801561050c57600080fd5b5061052760048036038101906105229190612ce5565b610eea565b6040516105349190613976565b60405180910390f35b34801561054957600080fd5b50610552610fa2565b60405161055f91906136b4565b60405180910390f35b34801561057457600080fd5b5061057d6110c6565b60405161058a9190613976565b60405180910390f35b34801561059f57600080fd5b506105a86110cf565b6040516105b59190613609565b60405180910390f35b3480156105ca57600080fd5b506105d36110f5565b6040516105e091906136b4565b60405180910390f35b3480156105f557600080fd5b50610610600480360381019061060b9190613025565b611187565b60405161061d91906139ac565b60405180910390f35b34801561063257600080fd5b5061064d60048036038101906106489190612e50565b6111b1565b005b34801561065b57600080fd5b5061067660048036038101906106719190612e14565b611246565b005b610692600480360381019061068d9190612faa565b61125c565b005b3480156106a057600080fd5b506106bb60048036038101906106b69190612d99565b6116ef565b005b3480156106c957600080fd5b506106e460048036038101906106df9190613025565b611751565b6040516106f191906139ac565b60405180910390f35b34801561070657600080fd5b50610721600480360381019061071c9190612e50565b61177b565b60405161072e9190613976565b60405180910390f35b34801561074357600080fd5b5061075e6004803603810190610759919061308a565b6117ac565b60405161076b9190613976565b60405180910390f35b34801561078057600080fd5b5061079b60048036038101906107969190613025565b611876565b6040516107a891906136b4565b60405180910390f35b3480156107bd57600080fd5b506107d860048036038101906107d3919061304e565b61191e565b005b3480156107e657600080fd5b5061080160048036038101906107fc9190613025565b611a59565b60405161080e9190613976565b60405180910390f35b34801561082357600080fd5b5061083e60048036038101906108399190612d0e565b611a74565b60405161084b9190613699565b60405180910390f35b60007f80ac58cd000000000000000000000000000000000000000000000000000000007bffffffffffffffffffffffffffffffffffffffffffffffffffffffff1916827bffffffffffffffffffffffffffffffffffffffffffffffffffffffff1916148061091f57507f5b5e139f000000000000000000000000000000000000000000000000000000007bffffffffffffffffffffffffffffffffffffffffffffffffffffffff1916827bffffffffffffffffffffffffffffffffffffffffffffffffffffffff1916145b8061092f575061092e82611b08565b5b9050919050565b60606000805461094590613d08565b80601f016020809104026020016040519081016040528092919081815260200182805461097190613d08565b80156109be5780601f10610993576101008083540402835291602001916109be565b820191906000526020600020905b8154815290600101906020018083116109a157829003601f168201915b5050505050905090565b60006109d382611b72565b610a12576040517f08c379a0000000000000000000000000000000000000000000000000000000008152600401610a0990613896565b60405180910390fd5b6004600083815260200190815260200160002060009054906101000a900473ffffffffffffffffffffffffffffffffffffffff169050919050565b6000610a5882610e38565b90508073ffffffffffffffffffffffffffffffffffffffff168373ffffffffffffffffffffffffffffffffffffffff161415610ac9576040517f08c379a0000000000000000000000000000000000000000000000000000000008152600401610ac0906138d6565b60405180910390fd5b8073ffffffffffffffffffffffffffffffffffffffff16610ae8611bde565b73ffffffffffffffffffffffffffffffffffffffff161480610b175750610b1681610b11611bde565b611a74565b5b610b56576040517f08c379a0000000000000000000000000000000000000000000000000000000008152600401610b4d90613816565b60405180910390fd5b610b608383611be6565b505050565b600080601f60008573ffffffffffffffffffffffffffffffffffffffff1673ffffffffffffffffffffffffffffffffffffffff16815260200190815260200160002060008460ff1660ff1681526020019081526020016000208054905090508091505092915050565b60195481565b601f6020528260005260406000206020528160005260406000208181548110610bfc57600080fd5b9060005260206000200160009250925050505481565b60108160078110610c2257600080fd5b60089182820401919006600402915054906101000a900463ffffffff1681565b610c53610c4d611bde565b82611c9f565b610c92576040517f08c379a0000000000000000000000000000000000000000000000000000000008152600401610c89906138f6565b60405180910390fd5b610c9d838383611d7d565b505050565b610cbd838383604051806020016040528060008152506116ef565b505050565b60008160ff1680600111158015610cda575060078111155b610d19576040517f08c379a0000000000000000000000000000000000000000000000000000000008152600401610d1090613956565b60405180910390fd5b6011600184610d289190613bef565b60ff1660078110610d62577f4e487b7100000000000000000000000000000000000000000000000000000000600052603260045260246000fd5b0154915050919050565b601d6020528060005260406000206000915054906101000a900460ff1681565b33600660009054906101000a900473ffffffffffffffffffffffffffffffffffffffff1673ffffffffffffffffffffffffffffffffffffffff168173ffffffffffffffffffffffffffffffffffffffff1614610e1d576040517f08c379a0000000000000000000000000000000000000000000000000000000008152600401610e1490613936565b60405180910390fd5b81601b9080519060200190610e33929190612af4565b505050565b6000806002600084815260200190815260200160002060009054906101000a900473ffffffffffffffffffffffffffffffffffffffff169050600073ffffffffffffffffffffffffffffffffffffffff168173ffffffffffffffffffffffffffffffffffffffff161415610ee1576040517f08c379a0000000000000000000000000000000000000000000000000000000008152600401610ed890613856565b60405180910390fd5b80915050919050565b60008073ffffffffffffffffffffffffffffffffffffffff168273ffffffffffffffffffffffffffffffffffffffff161415610f5b576040517f08c379a0000000000000000000000000000000000000000000000000000000008152600401610f5290613836565b60405180910390fd5b600360008373ffffffffffffffffffffffffffffffffffffffff1673ffffffffffffffffffffffffffffffffffffffff168152602001908152602001600020549050919050565b606033600660009054906101000a900473ffffffffffffffffffffffffffffffffffffffff1673ffffffffffffffffffffffffffffffffffffffff168173ffffffffffffffffffffffffffffffffffffffff1614611035576040517f08c379a000000000000000000000000000000000000000000000000000000000815260040161102c90613936565b60405180910390fd5b601b805461104290613d08565b80601f016020809104026020016040519081016040528092919081815260200182805461106e90613d08565b80156110bb5780601f10611090576101008083540402835291602001916110bb565b820191906000526020600020905b81548152906001019060200180831161109e57829003601f168201915b505050505091505090565b60006007905090565b600660009054906101000a900473ffffffffffffffffffffffffffffffffffffffff1681565b60606001805461110490613d08565b80601f016020809104026020016040519081016040528092919081815260200182805461113090613d08565b801561117d5780601f106111525761010080835404028352916020019161117d565b820191906000526020600020905b81548152906001019060200180831161116057829003601f168201915b5050505050905090565b600e816007811061119757600080fd5b60209182820401919006915054906101000a900460ff1681565b6111bb8282611fe4565b15611207576111c981612264565b7f09b96a5f01f2daed8682674a1291295a4e0059307b4c30f836a1f3fa6b6c84d882826040516111fa929190613670565b60405180910390a1611242565b6040517f08c379a0000000000000000000000000000000000000000000000000000000008152600401611239906136d6565b60405180910390fd5b5050565b611258611251611bde565b8383612381565b5050565b83601c60405160200161126f9190613582565b6040516020818303038152906040528051906020012081604051602001611296919061356b565b60405160208183030381529060405280519060200120146112ec576040517f08c379a00000000000000000000000000000000000000000000000000000000081526004016112e390613916565b60405180910390fd5b60006112f7846117ac565b905060006113058686610b65565b90506000600f6001876113189190613bef565b60ff1660078110611352577f4e487b7100000000000000000000000000000000000000000000000000000000600052603260045260246000fd5b602091828204019190069054906101000a900460ff1660ff169050808211156113b0576040517f08c379a00000000000000000000000000000000000000000000000000000000081526004016113a790613796565b60405180910390fd5b60006113bb87610cc2565b905060006113c987866124ee565b9050600660009054906101000a900473ffffffffffffffffffffffffffffffffffffffff1673ffffffffffffffffffffffffffffffffffffffff163373ffffffffffffffffffffffffffffffffffffffff161461146f5734828261142d9190613b2d565b111561146e576040517f08c379a000000000000000000000000000000000000000000000000000000000815260040161146590613776565b60405180910390fd5b5b6000601854905060005b888110156116da57818061148c90613d6b565b9250506114998b8361254d565b601f60008c73ffffffffffffffffffffffffffffffffffffffff1673ffffffffffffffffffffffffffffffffffffffff16815260200190815260200160002060008b60ff1660ff168152602001908152602001600020829080600181540180825580915050600190039060005260206000200160009091909190915055601e60008c73ffffffffffffffffffffffffffffffffffffffff1673ffffffffffffffffffffffffffffffffffffffff1681526020019081526020016000208a908060018154018082558091505060019003906000526020600020016000909160ff1690919091505589601d600084815260200190815260200160002060006101000a81548160ff021916908360ff1602179055506001601060018c6115bc9190613bef565b60ff16600781106115f6577f4e487b7100000000000000000000000000000000000000000000000000000000600052603260045260246000fd5b600891828204019190066004029054906101000a900463ffffffff1661161c9190613bbb565b601060018c61162b9190613bef565b60ff1660078110611665577f4e487b7100000000000000000000000000000000000000000000000000000000600052603260045260246000fd5b600891828204019190066004026101000a81548163ffffffff021916908363ffffffff1602179055507f170cd7fbac3527c51a8eadf77fb756ac94fe074ba361cc0a021c1bf9f1a7d7cf8b836040516116bf929190613670565b60405180910390a180806116d290613d6b565b915050611479565b50806018819055505050505050505050505050565b6117006116fa611bde565b83611c9f565b61173f576040517f08c379a0000000000000000000000000000000000000000000000000000000008152600401611736906138f6565b60405180910390fd5b61174b84848484612727565b50505050565b600f816007811061176157600080fd5b60209182820401919006915054906101000a900460ff1681565b601e602052816000526040600020818154811061179757600080fd5b90600052602060002001600091509150505481565b60008160ff16806001111580156117c4575060078111155b611803576040517f08c379a00000000000000000000000000000000000000000000000000000000081526004016117fa90613956565b60405180910390fd5b60106001846118129190613bef565b60ff166007811061184c577f4e487b7100000000000000000000000000000000000000000000000000000000600052603260045260246000fd5b600891828204019190066004029054906101000a900463ffffffff1663ffffffff16915050919050565b606061188182611b72565b6118c0576040517f08c379a00000000000000000000000000000000000000000000000000000000081526004016118b7906138b6565b60405180910390fd5b6000601b80546118cf90613d08565b9050116118eb5760405180602001604052806000815250611917565b601b6118f683612783565b604051602001611907929190613599565b6040516020818303038152906040525b9050919050565b33600660009054906101000a900473ffffffffffffffffffffffffffffffffffffffff1673ffffffffffffffffffffffffffffffffffffffff168173ffffffffffffffffffffffffffffffffffffffff16146119af576040517f08c379a00000000000000000000000000000000000000000000000000000000081526004016119a690613936565b60405180910390fd5b8160ff16806001111580156119c5575060078111155b611a04576040517f08c379a00000000000000000000000000000000000000000000000000000000081526004016119fb90613956565b60405180910390fd5b836011600185611a149190613bef565b60ff1660078110611a4e577f4e487b7100000000000000000000000000000000000000000000000000000000600052603260045260246000fd5b018190555050505050565b60078160078110611a6957600080fd5b016000915090505481565b6000600560008473ffffffffffffffffffffffffffffffffffffffff1673ffffffffffffffffffffffffffffffffffffffff16815260200190815260200160002060008373ffffffffffffffffffffffffffffffffffffffff1673ffffffffffffffffffffffffffffffffffffffff16815260200190815260200160002060009054906101000a900460ff16905092915050565b60007f01ffc9a7000000000000000000000000000000000000000000000000000000007bffffffffffffffffffffffffffffffffffffffffffffffffffffffff1916827bffffffffffffffffffffffffffffffffffffffffffffffffffffffff1916149050919050565b60008073ffffffffffffffffffffffffffffffffffffffff166002600084815260200190815260200160002060009054906101000a900473ffffffffffffffffffffffffffffffffffffffff1673ffffffffffffffffffffffffffffffffffffffff1614159050919050565b600033905090565b816004600083815260200190815260200160002060006101000a81548173ffffffffffffffffffffffffffffffffffffffff021916908373ffffffffffffffffffffffffffffffffffffffff160217905550808273ffffffffffffffffffffffffffffffffffffffff16611c5983610e38565b73ffffffffffffffffffffffffffffffffffffffff167f8c5be1e5ebec7d5bd14f71427d1e84f3dd0314c0f7b2291e5b200ac8c7c3b92560405160405180910390a45050565b6000611caa82611b72565b611ce9576040517f08c379a0000000000000000000000000000000000000000000000000000000008152600401611ce0906137f6565b60405180910390fd5b6000611cf483610e38565b90508073ffffffffffffffffffffffffffffffffffffffff168473ffffffffffffffffffffffffffffffffffffffff161480611d6357508373ffffffffffffffffffffffffffffffffffffffff16611d4b846109c8565b73ffffffffffffffffffffffffffffffffffffffff16145b80611d745750611d738185611a74565b5b91505092915050565b8273ffffffffffffffffffffffffffffffffffffffff16611d9d82610e38565b73ffffffffffffffffffffffffffffffffffffffff1614611df3576040517f08c379a0000000000000000000000000000000000000000000000000000000008152600401611dea90613736565b60405180910390fd5b600073ffffffffffffffffffffffffffffffffffffffff168273ffffffffffffffffffffffffffffffffffffffff161415611e63576040517f08c379a0000000000000000000000000000000000000000000000000000000008152600401611e5a906137b6565b60405180910390fd5b611e6e838383612930565b611e79600082611be6565b6001600360008573ffffffffffffffffffffffffffffffffffffffff1673ffffffffffffffffffffffffffffffffffffffff1681526020019081526020016000206000828254611ec99190613b87565b925050819055506001600360008473ffffffffffffffffffffffffffffffffffffffff1673ffffffffffffffffffffffffffffffffffffffff1681526020019081526020016000206000828254611f209190613aa6565b92505081905550816002600083815260200190815260200160002060006101000a81548173ffffffffffffffffffffffffffffffffffffffff021916908373ffffffffffffffffffffffffffffffffffffffff160217905550808273ffffffffffffffffffffffffffffffffffffffff168473ffffffffffffffffffffffffffffffffffffffff167fddf252ad1be2c89b69c2b068fc378daa952ba7f163c4a11628f55a4df523b3ef60405160405180910390a4611fdf838383612935565b505050565b600033600660009054906101000a900473ffffffffffffffffffffffffffffffffffffffff1673ffffffffffffffffffffffffffffffffffffffff168173ffffffffffffffffffffffffffffffffffffffff1614612077576040517f08c379a000000000000000000000000000000000000000000000000000000000815260040161206e90613936565b60405180910390fd5b6000601e60008673ffffffffffffffffffffffffffffffffffffffff1673ffffffffffffffffffffffffffffffffffffffff16815260200190815260200160002080548060200260200160405190810160405280929190818152602001828054801561210257602002820191906000526020600020905b8154815260200190600101908083116120ee575b5050505050905060005b8151811015612200578482828151811061214f577f4e487b7100000000000000000000000000000000000000000000000000000000600052603260045260246000fd5b602002602001015114156121ed57601e60008773ffffffffffffffffffffffffffffffffffffffff1673ffffffffffffffffffffffffffffffffffffffff16815260200190815260200160002081815481106121d4577f4e487b7100000000000000000000000000000000000000000000000000000000600052603260045260246000fd5b906000526020600020016000905560019350505061225d565b80806121f890613d6b565b91505061210c565b508360405160200161221291906135c8565b6040516020818303038152906040526040517f08c379a000000000000000000000000000000000000000000000000000000000815260040161225491906136b4565b60405180910390fd5b5092915050565b600061226f82610e38565b905061227d81600084612930565b612288600083611be6565b6001600360008373ffffffffffffffffffffffffffffffffffffffff1673ffffffffffffffffffffffffffffffffffffffff16815260200190815260200160002060008282546122d89190613b87565b925050819055506002600083815260200190815260200160002060006101000a81549073ffffffffffffffffffffffffffffffffffffffff021916905581600073ffffffffffffffffffffffffffffffffffffffff168273ffffffffffffffffffffffffffffffffffffffff167fddf252ad1be2c89b69c2b068fc378daa952ba7f163c4a11628f55a4df523b3ef60405160405180910390a461237d81600084612935565b5050565b8173ffffffffffffffffffffffffffffffffffffffff168373ffffffffffffffffffffffffffffffffffffffff1614156123f0576040517f08c379a00000000000000000000000000000000000000000000000000000000081526004016123e7906137d6565b60405180910390fd5b80600560008573ffffffffffffffffffffffffffffffffffffffff1673ffffffffffffffffffffffffffffffffffffffff16815260200190815260200160002060008473ffffffffffffffffffffffffffffffffffffffff1673ffffffffffffffffffffffffffffffffffffffff16815260200190815260200160002060006101000a81548160ff0219169083151502179055508173ffffffffffffffffffffffffffffffffffffffff168373ffffffffffffffffffffffffffffffffffffffff167f17307eab39ab6107e8899845ad3d59bd9653f200f220920489ca2b5937696c31836040516124e19190613699565b60405180910390a3505050565b60008183116124ff57829050612547565b6000821415612543576040517f08c379a000000000000000000000000000000000000000000000000000000000815260040161253a90613716565b60405180910390fd5b8190505b92915050565b600073ffffffffffffffffffffffffffffffffffffffff168273ffffffffffffffffffffffffffffffffffffffff1614156125bd576040517f08c379a00000000000000000000000000000000000000000000000000000000081526004016125b490613876565b60405180910390fd5b6125c681611b72565b15612606576040517f08c379a00000000000000000000000000000000000000000000000000000000081526004016125fd90613756565b60405180910390fd5b61261260008383612930565b6001600360008473ffffffffffffffffffffffffffffffffffffffff1673ffffffffffffffffffffffffffffffffffffffff16815260200190815260200160002060008282546126629190613aa6565b92505081905550816002600083815260200190815260200160002060006101000a81548173ffffffffffffffffffffffffffffffffffffffff021916908373ffffffffffffffffffffffffffffffffffffffff160217905550808273ffffffffffffffffffffffffffffffffffffffff16600073ffffffffffffffffffffffffffffffffffffffff167fddf252ad1be2c89b69c2b068fc378daa952ba7f163c4a11628f55a4df523b3ef60405160405180910390a461272360008383612935565b5050565b612732848484611d7d565b61273e8484848461293a565b61277d576040517f08c379a0000000000000000000000000000000000000000000000000000000008152600401612774906136f6565b60405180910390fd5b50505050565b606060008214156127cb576040518060400160405280600181526020017f3000000000000000000000000000000000000000000000000000000000000000815250905061292b565b600082905060005b600082146127fd5780806127e690613d6b565b915050600a826127f69190613afc565b91506127d3565b60008167ffffffffffffffff81111561283f577f4e487b7100000000000000000000000000000000000000000000000000000000600052604160045260246000fd5b6040519080825280601f01601f1916602001820160405280156128715781602001600182028036833780820191505090505b5090505b600085146129245760018261288a9190613b87565b9150600a856128999190613dbe565b60306128a59190613aa6565b60f81b8183815181106128e1577f4e487b7100000000000000000000000000000000000000000000000000000000600052603260045260246000fd5b60200101907effffffffffffffffffffffffffffffffffffffffffffffffffffffffffffff1916908160001a905350600a8561291d9190613afc565b9450612875565b8093505050505b919050565b505050565b505050565b600061295b8473ffffffffffffffffffffffffffffffffffffffff16612ad1565b15612ac4578373ffffffffffffffffffffffffffffffffffffffff1663150b7a02612984611bde565b8786866040518563ffffffff1660e01b81526004016129a69493929190613624565b602060405180830381600087803b1580156129c057600080fd5b505af19250505080156129f157506040513d601f19601f820116820180604052508101906129ee9190612f40565b60015b612a74573d8060008114612a21576040519150601f19603f3d011682016040523d82523d6000602084013e612a26565b606091505b50600081511415612a6c576040517f08c379a0000000000000000000000000000000000000000000000000000000008152600401612a63906136f6565b60405180910390fd5b805181602001fd5b63150b7a0260e01b7bffffffffffffffffffffffffffffffffffffffffffffffffffffffff1916817bffffffffffffffffffffffffffffffffffffffffffffffffffffffff191614915050612ac9565b600190505b949350505050565b6000808273ffffffffffffffffffffffffffffffffffffffff163b119050919050565b828054612b0090613d08565b90600052602060002090601f016020900481019282612b225760008555612b69565b82601f10612b3b57805160ff1916838001178555612b69565b82800160010185558215612b69579182015b82811115612b68578251825591602001919060010190612b4d565b5b509050612b769190612b7a565b5090565b5b80821115612b93576000816000905550600101612b7b565b5090565b6000612baa612ba5846139ec565b6139c7565b905082815260208101848484011115612bc257600080fd5b612bcd848285613cc6565b509392505050565b6000612be8612be384613a1d565b6139c7565b905082815260208101848484011115612c0057600080fd5b612c0b848285613cc6565b509392505050565b600081359050612c22816143e7565b92915050565b600081359050612c37816143fe565b92915050565b600081359050612c4c81614415565b92915050565b600081519050612c6181614415565b92915050565b600082601f830112612c7857600080fd5b8135612c88848260208601612b97565b91505092915050565b600082601f830112612ca257600080fd5b8135612cb2848260208601612bd5565b91505092915050565b600081359050612cca8161442c565b92915050565b600081359050612cdf81614443565b92915050565b600060208284031215612cf757600080fd5b6000612d0584828501612c13565b91505092915050565b60008060408385031215612d2157600080fd5b6000612d2f85828601612c13565b9250506020612d4085828601612c13565b9150509250929050565b600080600060608486031215612d5f57600080fd5b6000612d6d86828701612c13565b9350506020612d7e86828701612c13565b9250506040612d8f86828701612cbb565b9150509250925092565b60008060008060808587031215612daf57600080fd5b6000612dbd87828801612c13565b9450506020612dce87828801612c13565b9350506040612ddf87828801612cbb565b925050606085013567ffffffffffffffff811115612dfc57600080fd5b612e0887828801612c67565b91505092959194509250565b60008060408385031215612e2757600080fd5b6000612e3585828601612c13565b9250506020612e4685828601612c28565b9150509250929050565b60008060408385031215612e6357600080fd5b6000612e7185828601612c13565b9250506020612e8285828601612cbb565b9150509250929050565b60008060408385031215612e9f57600080fd5b6000612ead85828601612c13565b9250506020612ebe85828601612cd0565b9150509250929050565b600080600060608486031215612edd57600080fd5b6000612eeb86828701612c13565b9350506020612efc86828701612cd0565b9250506040612f0d86828701612cbb565b9150509250925092565b600060208284031215612f2957600080fd5b6000612f3784828501612c3d565b91505092915050565b600060208284031215612f5257600080fd5b6000612f6084828501612c52565b91505092915050565b600060208284031215612f7b57600080fd5b600082013567ffffffffffffffff811115612f9557600080fd5b612fa184828501612c91565b91505092915050565b60008060008060808587031215612fc057600080fd5b600085013567ffffffffffffffff811115612fda57600080fd5b612fe687828801612c91565b9450506020612ff787828801612c13565b935050604061300887828801612cd0565b925050606061301987828801612cbb565b91505092959194509250565b60006020828403121561303757600080fd5b600061304584828501612cbb565b91505092915050565b6000806040838503121561306157600080fd5b600061306f85828601612cbb565b925050602061308085828601612cd0565b9150509250929050565b60006020828403121561309c57600080fd5b60006130aa84828501612cd0565b91505092915050565b6130bc81613c35565b82525050565b6130cb81613c23565b82525050565b6130da81613c47565b82525050565b60006130eb82613a63565b6130f58185613a79565b9350613105818560208601613cd5565b61310e81613eab565b840191505092915050565b600061312482613a6e565b61312e8185613a8a565b935061313e818560208601613cd5565b61314781613eab565b840191505092915050565b600061315d82613a6e565b6131678185613a9b565b9350613177818560208601613cd5565b80840191505092915050565b6000815461319081613d08565b61319a8186613a9b565b945060018216600081146131b557600181146131c6576131f9565b60ff198316865281860193506131f9565b6131cf85613a4e565b60005b838110156131f1578154818901526001820191506020810190506131d2565b838801955050505b50505092915050565b600061320f601983613a8a565b915061321a82613ebc565b602082019050919050565b6000613232603283613a8a565b915061323d82613ee5565b604082019050919050565b6000613255601783613a8a565b915061326082613f34565b602082019050919050565b6000613278602583613a8a565b915061328382613f5d565b604082019050919050565b600061329b601c83613a8a565b91506132a682613fac565b602082019050919050565b60006132be601483613a8a565b91506132c982613fd5565b602082019050919050565b60006132e1601d83613a8a565b91506132ec82613ffe565b602082019050919050565b6000613304602483613a8a565b915061330f82614027565b604082019050919050565b6000613327601983613a8a565b915061333282614076565b602082019050919050565b600061334a602c83613a8a565b91506133558261409f565b604082019050919050565b600061336d603883613a8a565b9150613378826140ee565b604082019050919050565b6000613390601083613a9b565b915061339b8261413d565b601082019050919050565b60006133b3602a83613a8a565b91506133be82614166565b604082019050919050565b60006133d6602983613a8a565b91506133e1826141b5565b604082019050919050565b60006133f9602083613a8a565b915061340482614204565b602082019050919050565b600061341c602c83613a8a565b91506134278261422d565b604082019050919050565b600061343f601283613a8a565b915061344a8261427c565b602082019050919050565b6000613462600583613a9b565b915061346d826142a5565b600582019050919050565b6000613485602183613a8a565b9150613490826142ce565b604082019050919050565b60006134a8603183613a8a565b91506134b38261431d565b604082019050919050565b60006134cb601083613a8a565b91506134d68261436c565b602082019050919050565b60006134ee601183613a8a565b91506134f982614395565b602082019050919050565b6000613511601783613a8a565b915061351c826143be565b602082019050919050565b61353081613c9f565b82525050565b61354761354282613c9f565b613db4565b82525050565b61355681613ca9565b82525050565b61356581613cb9565b82525050565b60006135778284613152565b915081905092915050565b600061358e8284613183565b915081905092915050565b60006135a58285613183565b91506135b18284613152565b91506135bc82613455565b91508190509392505050565b60006135d48284613536565b6020820191506135e382613383565b915081905092915050565b600060208201905061360360008301846130c2565b92915050565b600060208201905061361e60008301846130b3565b92915050565b600060808201905061363960008301876130c2565b61364660208301866130c2565b6136536040830185613527565b818103606083015261366581846130e0565b905095945050505050565b600060408201905061368560008301856130c2565b6136926020830184613527565b9392505050565b60006020820190506136ae60008301846130d1565b92915050565b600060208201905081810360008301526136ce8184613119565b905092915050565b600060208201905081810360008301526136ef81613202565b9050919050565b6000602082019050818103600083015261370f81613225565b9050919050565b6000602082019050818103600083015261372f81613248565b9050919050565b6000602082019050818103600083015261374f8161326b565b9050919050565b6000602082019050818103600083015261376f8161328e565b9050919050565b6000602082019050818103600083015261378f816132b1565b9050919050565b600060208201905081810360008301526137af816132d4565b9050919050565b600060208201905081810360008301526137cf816132f7565b9050919050565b600060208201905081810360008301526137ef8161331a565b9050919050565b6000602082019050818103600083015261380f8161333d565b9050919050565b6000602082019050818103600083015261382f81613360565b9050919050565b6000602082019050818103600083015261384f816133a6565b9050919050565b6000602082019050818103600083015261386f816133c9565b9050919050565b6000602082019050818103600083015261388f816133ec565b9050919050565b600060208201905081810360008301526138af8161340f565b9050919050565b600060208201905081810360008301526138cf81613432565b9050919050565b600060208201905081810360008301526138ef81613478565b9050919050565b6000602082019050818103600083015261390f8161349b565b9050919050565b6000602082019050818103600083015261392f816134be565b9050919050565b6000602082019050818103600083015261394f816134e1565b9050919050565b6000602082019050818103600083015261396f81613504565b9050919050565b600060208201905061398b6000830184613527565b92915050565b60006020820190506139a6600083018461354d565b92915050565b60006020820190506139c1600083018461355c565b92915050565b60006139d16139e2565b90506139dd8282613d3a565b919050565b6000604051905090565b600067ffffffffffffffff821115613a0757613a06613e7c565b5b613a1082613eab565b9050602081019050919050565b600067ffffffffffffffff821115613a3857613a37613e7c565b5b613a4182613eab565b9050602081019050919050565b60008190508160005260206000209050919050565b600081519050919050565b600081519050919050565b600082825260208201905092915050565b600082825260208201905092915050565b600081905092915050565b6000613ab182613c9f565b9150613abc83613c9f565b9250827fffffffffffffffffffffffffffffffffffffffffffffffffffffffffffffffff03821115613af157613af0613def565b5b828201905092915050565b6000613b0782613c9f565b9150613b1283613c9f565b925082613b2257613b21613e1e565b5b828204905092915050565b6000613b3882613c9f565b9150613b4383613c9f565b9250817fffffffffffffffffffffffffffffffffffffffffffffffffffffffffffffffff0483118215151615613b7c57613b7b613def565b5b828202905092915050565b6000613b9282613c9f565b9150613b9d83613c9f565b925082821015613bb057613baf613def565b5b828203905092915050565b6000613bc682613ca9565b9150613bd183613ca9565b925082821015613be457613be3613def565b5b828203905092915050565b6000613bfa82613cb9565b9150613c0583613cb9565b925082821015613c1857613c17613def565b5b828203905092915050565b6000613c2e82613c7f565b9050919050565b6000613c4082613c7f565b9050919050565b60008115159050919050565b60007fffffffff0000000000000000000000000000000000000000000000000000000082169050919050565b600073ffffffffffffffffffffffffffffffffffffffff82169050919050565b6000819050919050565b600063ffffffff82169050919050565b600060ff82169050919050565b82818337600083830152505050565b60005b83811015613cf3578082015181840152602081019050613cd8565b83811115613d02576000848401525b50505050565b60006002820490506001821680613d2057607f821691505b60208210811415613d3457613d33613e4d565b5b50919050565b613d4382613eab565b810181811067ffffffffffffffff82111715613d6257613d61613e7c565b5b80604052505050565b6000613d7682613c9f565b91507fffffffffffffffffffffffffffffffffffffffffffffffffffffffffffffffff821415613da957613da8613def565b5b600182019050919050565b6000819050919050565b6000613dc982613c9f565b9150613dd483613c9f565b925082613de457613de3613e1e565b5b828206905092915050565b7f4e487b7100000000000000000000000000000000000000000000000000000000600052601160045260246000fd5b7f4e487b7100000000000000000000000000000000000000000000000000000000600052601260045260246000fd5b7f4e487b7100000000000000000000000000000000000000000000000000000000600052602260045260246000fd5b7f4e487b7100000000000000000000000000000000000000000000000000000000600052604160045260246000fd5b6000601f19601f8301169050919050565b7f436f756c64206e6f74206275726e2074686520746f6b656e2100000000000000600082015250565b7f4552433732313a207472616e7366657220746f206e6f6e20455243373231526560008201527f63656976657220696d706c656d656e7465720000000000000000000000000000602082015250565b7f4974656d20737570706c79206e6f7420656e6f75676821000000000000000000600082015250565b7f4552433732313a207472616e736665722066726f6d20696e636f72726563742060008201527f6f776e6572000000000000000000000000000000000000000000000000000000602082015250565b7f4552433732313a20746f6b656e20616c7265616479206d696e74656400000000600082015250565b7f4e6f7420657861637420636f696e2073656e6421000000000000000000000000600082015250565b7f4d6178206f776e61626c65207175616e74697479207265616368656421000000600082015250565b7f4552433732313a207472616e7366657220746f20746865207a65726f2061646460008201527f7265737300000000000000000000000000000000000000000000000000000000602082015250565b7f4552433732313a20617070726f766520746f2063616c6c657200000000000000600082015250565b7f4552433732313a206f70657261746f7220717565727920666f72206e6f6e657860008201527f697374656e7420746f6b656e0000000000000000000000000000000000000000602082015250565b7f4552433732313a20617070726f76652063616c6c6572206973206e6f74206f7760008201527f6e6572206e6f7220617070726f76656420666f7220616c6c0000000000000000602082015250565b7f2074686973206973207265766572656400000000000000000000000000000000600082015250565b7f4552433732313a2062616c616e636520717565727920666f7220746865207a6560008201527f726f206164647265737300000000000000000000000000000000000000000000602082015250565b7f4552433732313a206f776e657220717565727920666f72206e6f6e657869737460008201527f656e7420746f6b656e0000000000000000000000000000000000000000000000602082015250565b7f4552433732313a206d696e7420746f20746865207a65726f2061646472657373600082015250565b7f4552433732313a20617070726f76656420717565727920666f72206e6f6e657860008201527f697374656e7420746f6b656e0000000000000000000000000000000000000000602082015250565b7f4e6f6e6578697374656e7420746f6b656e210000000000000000000000000000600082015250565b7f2e6a736f6e000000000000000000000000000000000000000000000000000000600082015250565b7f4552433732313a20617070726f76616c20746f2063757272656e74206f776e6560008201527f7200000000000000000000000000000000000000000000000000000000000000602082015250565b7f4552433732313a207472616e736665722063616c6c6572206973206e6f74206f60008201527f776e6572206e6f7220617070726f766564000000000000000000000000000000602082015250565b7f546f6b656e206e6f74206d617463682100000000000000000000000000000000600082015250565b7f4e6f742061206f776e65722063616c6c21000000000000000000000000000000600082015250565b7f4974656d2054797065206f7574206f662073636f706521000000000000000000600082015250565b6143f081613c23565b81146143fb57600080fd5b50565b61440781613c47565b811461441257600080fd5b50565b61441e81613c53565b811461442957600080fd5b50565b61443581613c9f565b811461444057600080fd5b50565b61444c81613cb9565b811461445757600080fd5b5056fea2646970667358221220c85f6cca84dd6e83cdabc4f24a025c1c985fdc86841bbc050d545b720bda44e264736f6c63430008020033",
  "immutableReferences": {},
  "source": "// SPDX-License-Identifier: MIT\npragma solidity ^0.8.2;\n\nimport \"@openzeppelin/contracts/token/ERC721/ERC721.sol\";\n\ncontract Item is ERC721 {\n    using Strings for uint256;\n\n    address payable public owner;\n\n    uint256[7] public itemBurnable = [1, 0, 0, 0, 0, 0, 0];\n    uint8[7] public itemTypes = [1, 2, 3, 4, 5, 6, 7];\n    uint8[7] public maxOwnable = [10, 1, 1, 1, 1, 1, 1];\n    uint32[7] public itemSupplies = [2500, 2500, 1000, 1000, 1000, 1000, 1000];\n\n    uint256[7] private itemFloor = [\n        0.12 ether,\n        0.25 ether,\n        0.04 ether,\n        0.04 ether,\n        0.04 ether,\n        0.04 ether,\n        0.04 ether\n    ];\n    uint256 private tokenIds;\n    uint256 public itemTotalSupply = 10000;\n\n    string private itemBaseURI;\n    string private baseURI;\n    string private passWord = \"MADECHANGE\";\n\n    mapping(uint256 => uint8) public tokenItemTypes;\n    mapping(address => uint256[]) public tokenOwner; // Represents owner's tokens *tokenIds\n    mapping(address => mapping(uint8 => uint256[])) public tokenOwners; // Represents owner's different type of tokens' ids\n\n    ///////////////////////////////////////////////////////////////////////////\n    // Events\n    ///////////////////////////////////////////////////////////////////////////\n    event ReceivedEth(address _sender, uint256 _value);\n    event ItemMinted(address _reciever, uint256 _tokenId);\n    event BurnItem(address _burner, uint256 _tokenId);\n\n    ///////////////////////////////////////////////////////////////////////////\n    // Cons\n    ///////////////////////////////////////////////////////////////////////////\n    constructor() payable ERC721(\"Metamon Item Collection\", \"NFT\") {\n        owner = payable(msg.sender);\n    }\n\n    fallback() external payable {}\n\n    receive() external payable {\n        emit ReceivedEth(msg.sender, msg.value);\n    }\n\n    ///////////////////////////////////////////////////////////////////////////\n    // Pre-Function Conditions\n    ///////////////////////////////////////////////////////////////////////////\n    modifier onlyOwner(address _sender) {\n        require(_sender == owner, \"Not a owner call!\");\n        _;\n    }\n\n    modifier itemType(uint256 _itemType) {\n        require(1 <= _itemType && _itemType <= 7, \"Item Type out of scope!\");\n        _;\n    }\n\n    modifier passCheck(string memory _passCode) {\n        // This modifier limits the access into mintFunction\n        require(\n            keccak256(abi.encodePacked(_passCode)) ==\n                keccak256(abi.encodePacked(passWord)),\n            \"Token not match!\"\n        );\n        _;\n    }\n\n    ///////////////////////////////////////////////////////////////////////////\n    // Get/Set State Changes\n    ///////////////////////////////////////////////////////////////////////////\n    function changeFloorPrice(uint256 _new_price, uint8 _itemType)\n        external\n        onlyOwner(msg.sender)\n        itemType(_itemType)\n    {\n        itemFloor[_itemType - 1] = _new_price;\n    }\n\n    function getFloorPrice(uint8 _itemType)\n        public\n        view\n        itemType(_itemType)\n        returns (uint256)\n    {\n        return itemFloor[_itemType - 1];\n    }\n\n    function getSupplyLeft(uint8 _itemType)\n        public\n        view\n        itemType(_itemType)\n        returns (uint256)\n    {\n        return itemSupplies[_itemType - 1];\n    }\n\n    function specificItemOwnership(address _owner, uint8 _itemType)\n        public\n        view\n        returns (uint256)\n    {\n        // check whether owner owns specific ITEM token\n        uint256 total_ownership = tokenOwners[_owner][_itemType].length;\n        return total_ownership;\n    }\n\n    function mintableLeft(uint256 _quantity, uint256 _itemSupplyLeft)\n        internal\n        pure\n        returns (uint256)\n    {\n        if (_quantity <= _itemSupplyLeft) {\n            return _quantity;\n        } else {\n            if (_itemSupplyLeft == 0) {\n                revert(\"Item supply not enough!\");\n            } else {\n                return _itemSupplyLeft;\n            }\n        }\n    }\n\n    function totalItemTypes() public view returns (uint256) {\n        return itemTypes.length;\n    }\n\n    ///////////////////////////////////////////////////////////////////////////\n    // Burn Tokens\n    ///////////////////////////////////////////////////////////////////////////\n    function _deleteOwnerToken(address _burner, uint256 _tokenId)\n        internal\n        onlyOwner(msg.sender)\n        returns (bool)\n    {\n        uint256[] memory tokens = tokenOwner[_burner];\n        for (uint256 i = 0; i < tokens.length; i++) {\n            if (tokens[i] == _tokenId) {\n                delete tokenOwner[_burner][i];\n                return true;\n            }\n        }\n\n        revert(string(abi.encodePacked(_tokenId, ' this is revered')));\n    }\n\n    function burn(address _burner, uint256 _tokenId) public {\n        // remove the token brom the mappings of the current owner\n        // add item type check, check item burnable condition\n        // might not need to remove it from tokenItemTypes\n\n        if (_deleteOwnerToken(_burner, _tokenId)) {\n            _burn(_tokenId);\n            emit BurnItem(_burner, _tokenId);\n        } else {\n            revert(\"Could not burn the token!\");\n        }\n    }\n\n    ///////////////////////////////////////////////////////////////////////////\n    // Mint Tokens\n    ///////////////////////////////////////////////////////////////////////////\n    function mintSale(\n        string memory _passCode,\n        address _recipient,\n        uint8 _itemType,\n        uint256 _quantity\n    ) external payable passCheck(_passCode) {\n        uint256 _itemSupplyLeft = getSupplyLeft(_itemType);\n\n        uint256 _totalOwned = specificItemOwnership(_recipient, _itemType);\n        uint256 _maxOwnable = maxOwnable[_itemType - 1];\n        require(_totalOwned <= _maxOwnable, \"Max ownable quantity reached!\");\n\n        uint256 _itemFloor = getFloorPrice(_itemType);\n\n        uint256 _maxMintable = mintableLeft(_quantity, _itemSupplyLeft);\n        if (msg.sender != owner) {\n            require(\n                _maxMintable * _itemFloor <= msg.value,\n                \"Not exact coin send!\"\n            );\n        }\n\n        uint256 j = tokenIds;\n\n        for (uint256 i = 0; i < _quantity; i++) {\n            j++;\n            _mint(_recipient, j);\n            tokenOwners[_recipient][_itemType].push(j);\n            tokenOwner[_recipient].push(_itemType);\n            tokenItemTypes[j] = _itemType;\n            itemSupplies[_itemType - 1] = itemSupplies[_itemType - 1] - 1;\n            emit ItemMinted(_recipient, j);\n        }\n        tokenIds = j;\n    }\n\n    ///////////////////////////////////////////////////////////////////////////\n    // Backend URIs\n    ///////////////////////////////////////////////////////////////////////////\n    function setBaseURI(string memory _baseURILink)\n        external\n        onlyOwner(msg.sender)\n    {\n        baseURI = _baseURILink;\n    }\n\n    function getBaseURI()\n        external\n        view\n        onlyOwner(msg.sender)\n        returns (string memory)\n    {\n        return baseURI;\n    }\n\n    function _baseURI() internal view virtual override returns (string memory) {\n        return baseURI;\n    }\n\n    function tokenURI(uint256 tokenId)\n        public\n        view\n        virtual\n        override\n        returns (string memory)\n    {\n        require(_exists(tokenId), \"Nonexistent token!\");\n\n        return\n            bytes(baseURI).length > 0\n                ? string(abi.encodePacked(baseURI, tokenId.toString(), \".json\"))\n                : \"\";\n    }\n}\n",
  "sourcePath": "/Users/aipek/Documents/metamon_contracts/contracts/Item.sol",
  "compiler": {
    "name": "solc",
    "version": "0.8.2+commit.661d1103.Emscripten.clang"
  },
  "schemaVersion": "3.4.4",
  "updatedAt": "2022-02-15T23:34:52.751Z",
  "networkType": "ethereum",
  "devdoc": {
    "kind": "dev",
    "methods": {
      "approve(address,uint256)": {
        "details": "See {IERC721-approve}."
      },
      "balanceOf(address)": {
        "details": "See {IERC721-balanceOf}."
      },
      "getApproved(uint256)": {
        "details": "See {IERC721-getApproved}."
      },
      "isApprovedForAll(address,address)": {
        "details": "See {IERC721-isApprovedForAll}."
      },
      "name()": {
        "details": "See {IERC721Metadata-name}."
      },
      "ownerOf(uint256)": {
        "details": "See {IERC721-ownerOf}."
      },
      "safeTransferFrom(address,address,uint256)": {
        "details": "See {IERC721-safeTransferFrom}."
      },
      "safeTransferFrom(address,address,uint256,bytes)": {
        "details": "See {IERC721-safeTransferFrom}."
      },
      "setApprovalForAll(address,bool)": {
        "details": "See {IERC721-setApprovalForAll}."
      },
      "supportsInterface(bytes4)": {
        "details": "See {IERC165-supportsInterface}."
      },
      "symbol()": {
        "details": "See {IERC721Metadata-symbol}."
      },
      "tokenURI(uint256)": {
        "details": "See {IERC721Metadata-tokenURI}."
      },
      "transferFrom(address,address,uint256)": {
        "details": "See {IERC721-transferFrom}."
      }
    },
    "version": 1
  },
  "userdoc": {
    "kind": "user",
    "methods": {},
    "version": 1
  }
}