{
  "contractName": "Item",
  "abi": [
    {
      "inputs": [],
      "stateMutability": "payable",
      "type": "constructor",
      "payable": true
    },
    {
      "anonymous": false,
      "inputs": [
        {
          "indexed": true,
          "internalType": "address",
          "name": "owner",
          "type": "address"
        },
        {
          "indexed": true,
          "internalType": "address",
          "name": "approved",
          "type": "address"
        },
        {
          "indexed": true,
          "internalType": "uint256",
          "name": "tokenId",
          "type": "uint256"
        }
      ],
      "name": "Approval",
      "type": "event"
    },
    {
      "anonymous": false,
      "inputs": [
        {
          "indexed": true,
          "internalType": "address",
          "name": "owner",
          "type": "address"
        },
        {
          "indexed": true,
          "internalType": "address",
          "name": "operator",
          "type": "address"
        },
        {
          "indexed": false,
          "internalType": "bool",
          "name": "approved",
          "type": "bool"
        }
      ],
      "name": "ApprovalForAll",
      "type": "event"
    },
    {
      "anonymous": false,
      "inputs": [
        {
          "indexed": false,
          "internalType": "address",
          "name": "_burner",
          "type": "address"
        },
        {
          "indexed": false,
          "internalType": "uint256",
          "name": "_tokenId",
          "type": "uint256"
        }
      ],
      "name": "BurnItem",
      "type": "event"
    },
    {
      "anonymous": false,
      "inputs": [
        {
          "indexed": false,
          "internalType": "address",
          "name": "_reciever",
          "type": "address"
        },
        {
          "indexed": false,
          "internalType": "uint256",
          "name": "_tokenId",
          "type": "uint256"
        }
      ],
      "name": "ItemMinted",
      "type": "event"
    },
    {
      "anonymous": false,
      "inputs": [
        {
          "indexed": false,
          "internalType": "address",
          "name": "_sender",
          "type": "address"
        },
        {
          "indexed": false,
          "internalType": "uint256",
          "name": "_value",
          "type": "uint256"
        }
      ],
      "name": "ReceivedEth",
      "type": "event"
    },
    {
      "anonymous": false,
      "inputs": [
        {
          "indexed": true,
          "internalType": "address",
          "name": "from",
          "type": "address"
        },
        {
          "indexed": true,
          "internalType": "address",
          "name": "to",
          "type": "address"
        },
        {
          "indexed": true,
          "internalType": "uint256",
          "name": "tokenId",
          "type": "uint256"
        }
      ],
      "name": "Transfer",
      "type": "event"
    },
    {
      "stateMutability": "payable",
      "type": "fallback",
      "payable": true
    },
    {
      "inputs": [
        {
          "internalType": "address",
          "name": "to",
          "type": "address"
        },
        {
          "internalType": "uint256",
          "name": "tokenId",
          "type": "uint256"
        }
      ],
      "name": "approve",
      "outputs": [],
      "stateMutability": "nonpayable",
      "type": "function"
    },
    {
      "inputs": [
        {
          "internalType": "address",
          "name": "owner",
          "type": "address"
        }
      ],
      "name": "balanceOf",
      "outputs": [
        {
          "internalType": "uint256",
          "name": "",
          "type": "uint256"
        }
      ],
      "stateMutability": "view",
      "type": "function",
      "constant": true
    },
    {
      "inputs": [
        {
          "internalType": "uint256",
          "name": "tokenId",
          "type": "uint256"
        }
      ],
      "name": "getApproved",
      "outputs": [
        {
          "internalType": "address",
          "name": "",
          "type": "address"
        }
      ],
      "stateMutability": "view",
      "type": "function",
      "constant": true
    },
    {
      "inputs": [
        {
          "internalType": "address",
          "name": "",
          "type": "address"
        }
      ],
      "name": "isAllowlistAddress",
      "outputs": [
        {
          "internalType": "bool",
          "name": "",
          "type": "bool"
        }
      ],
      "stateMutability": "view",
      "type": "function",
      "constant": true
    },
    {
      "inputs": [
        {
          "internalType": "address",
          "name": "owner",
          "type": "address"
        },
        {
          "internalType": "address",
          "name": "operator",
          "type": "address"
        }
      ],
      "name": "isApprovedForAll",
      "outputs": [
        {
          "internalType": "bool",
          "name": "",
          "type": "bool"
        }
      ],
      "stateMutability": "view",
      "type": "function",
      "constant": true
    },
    {
      "inputs": [
        {
          "internalType": "uint256",
          "name": "",
          "type": "uint256"
        }
      ],
      "name": "itemBurnable",
      "outputs": [
        {
          "internalType": "uint8",
          "name": "",
          "type": "uint8"
        }
      ],
      "stateMutability": "view",
      "type": "function",
      "constant": true
    },
    {
      "inputs": [
        {
          "internalType": "uint256",
          "name": "",
          "type": "uint256"
        }
      ],
      "name": "itemSupplies",
      "outputs": [
        {
          "internalType": "uint32",
          "name": "",
          "type": "uint32"
        }
      ],
      "stateMutability": "view",
      "type": "function",
      "constant": true
    },
    {
      "inputs": [],
      "name": "itemTotalSupply",
      "outputs": [
        {
          "internalType": "uint256",
          "name": "",
          "type": "uint256"
        }
      ],
      "stateMutability": "view",
      "type": "function",
      "constant": true
    },
    {
      "inputs": [
        {
          "internalType": "uint256",
          "name": "",
          "type": "uint256"
        }
      ],
      "name": "itemTypes",
      "outputs": [
        {
          "internalType": "uint8",
          "name": "",
          "type": "uint8"
        }
      ],
      "stateMutability": "view",
      "type": "function",
      "constant": true
    },
    {
      "inputs": [
        {
          "internalType": "uint256",
          "name": "",
          "type": "uint256"
        }
      ],
      "name": "maxOwnable",
      "outputs": [
        {
          "internalType": "uint8",
          "name": "",
          "type": "uint8"
        }
      ],
      "stateMutability": "view",
      "type": "function",
      "constant": true
    },
    {
      "inputs": [],
      "name": "name",
      "outputs": [
        {
          "internalType": "string",
          "name": "",
          "type": "string"
        }
      ],
      "stateMutability": "view",
      "type": "function",
      "constant": true
    },
    {
      "inputs": [],
      "name": "owner",
      "outputs": [
        {
          "internalType": "address payable",
          "name": "",
          "type": "address"
        }
      ],
      "stateMutability": "view",
      "type": "function",
      "constant": true
    },
    {
      "inputs": [
        {
          "internalType": "uint256",
          "name": "tokenId",
          "type": "uint256"
        }
      ],
      "name": "ownerOf",
      "outputs": [
        {
          "internalType": "address",
          "name": "",
          "type": "address"
        }
      ],
      "stateMutability": "view",
      "type": "function",
      "constant": true
    },
    {
      "inputs": [
        {
          "internalType": "address",
          "name": "from",
          "type": "address"
        },
        {
          "internalType": "address",
          "name": "to",
          "type": "address"
        },
        {
          "internalType": "uint256",
          "name": "tokenId",
          "type": "uint256"
        }
      ],
      "name": "safeTransferFrom",
      "outputs": [],
      "stateMutability": "nonpayable",
      "type": "function"
    },
    {
      "inputs": [
        {
          "internalType": "address",
          "name": "from",
          "type": "address"
        },
        {
          "internalType": "address",
          "name": "to",
          "type": "address"
        },
        {
          "internalType": "uint256",
          "name": "tokenId",
          "type": "uint256"
        },
        {
          "internalType": "bytes",
          "name": "_data",
          "type": "bytes"
        }
      ],
      "name": "safeTransferFrom",
      "outputs": [],
      "stateMutability": "nonpayable",
      "type": "function"
    },
    {
      "inputs": [
        {
          "internalType": "address",
          "name": "operator",
          "type": "address"
        },
        {
          "internalType": "bool",
          "name": "approved",
          "type": "bool"
        }
      ],
      "name": "setApprovalForAll",
      "outputs": [],
      "stateMutability": "nonpayable",
      "type": "function"
    },
    {
      "inputs": [
        {
          "internalType": "bytes4",
          "name": "interfaceId",
          "type": "bytes4"
        }
      ],
      "name": "supportsInterface",
      "outputs": [
        {
          "internalType": "bool",
          "name": "",
          "type": "bool"
        }
      ],
      "stateMutability": "view",
      "type": "function",
      "constant": true
    },
    {
      "inputs": [],
      "name": "symbol",
      "outputs": [
        {
          "internalType": "string",
          "name": "",
          "type": "string"
        }
      ],
      "stateMutability": "view",
      "type": "function",
      "constant": true
    },
    {
      "inputs": [
        {
          "internalType": "uint256",
          "name": "",
          "type": "uint256"
        }
      ],
      "name": "tokenItemTypes",
      "outputs": [
        {
          "internalType": "uint8",
          "name": "",
          "type": "uint8"
        }
      ],
      "stateMutability": "view",
      "type": "function",
      "constant": true
    },
    {
      "inputs": [
        {
          "internalType": "address",
          "name": "",
          "type": "address"
        },
        {
          "internalType": "uint256",
          "name": "",
          "type": "uint256"
        }
      ],
      "name": "tokenOwner",
      "outputs": [
        {
          "internalType": "uint256",
          "name": "",
          "type": "uint256"
        }
      ],
      "stateMutability": "view",
      "type": "function",
      "constant": true
    },
    {
      "inputs": [
        {
          "internalType": "address",
          "name": "",
          "type": "address"
        },
        {
          "internalType": "uint8",
          "name": "",
          "type": "uint8"
        },
        {
          "internalType": "uint256",
          "name": "",
          "type": "uint256"
        }
      ],
      "name": "tokenOwners",
      "outputs": [
        {
          "internalType": "uint256",
          "name": "",
          "type": "uint256"
        }
      ],
      "stateMutability": "view",
      "type": "function",
      "constant": true
    },
    {
      "inputs": [
        {
          "internalType": "address",
          "name": "from",
          "type": "address"
        },
        {
          "internalType": "address",
          "name": "to",
          "type": "address"
        },
        {
          "internalType": "uint256",
          "name": "tokenId",
          "type": "uint256"
        }
      ],
      "name": "transferFrom",
      "outputs": [],
      "stateMutability": "nonpayable",
      "type": "function"
    },
    {
      "stateMutability": "payable",
      "type": "receive",
      "payable": true
    },
    {
      "inputs": [
        {
          "internalType": "address[]",
          "name": "wAddresses",
          "type": "address[]"
        },
        {
          "internalType": "bool",
          "name": "allow",
          "type": "bool"
        }
      ],
      "name": "allowlistAddresses",
      "outputs": [],
      "stateMutability": "nonpayable",
      "type": "function"
    },
    {
      "inputs": [
        {
          "internalType": "address",
          "name": "wAddress",
          "type": "address"
        },
        {
          "internalType": "bool",
          "name": "allow",
          "type": "bool"
        }
      ],
      "name": "allowlistAddress",
      "outputs": [],
      "stateMutability": "nonpayable",
      "type": "function"
    },
    {
      "inputs": [],
      "name": "toggleOnlyAllowList",
      "outputs": [],
      "stateMutability": "nonpayable",
      "type": "function"
    },
    {
      "inputs": [
        {
          "internalType": "uint256",
          "name": "_new_price",
          "type": "uint256"
        },
        {
          "internalType": "uint8",
          "name": "_itemType",
          "type": "uint8"
        }
      ],
      "name": "changeFloorPrice",
      "outputs": [],
      "stateMutability": "nonpayable",
      "type": "function"
    },
    {
      "inputs": [
        {
          "internalType": "uint8",
          "name": "_itemType",
          "type": "uint8"
        }
      ],
      "name": "getFloorPrice",
      "outputs": [
        {
          "internalType": "uint256",
          "name": "",
          "type": "uint256"
        }
      ],
      "stateMutability": "view",
      "type": "function",
      "constant": true
    },
    {
      "inputs": [
        {
          "internalType": "uint8",
          "name": "_itemType",
          "type": "uint8"
        }
      ],
      "name": "getSupplyLeft",
      "outputs": [
        {
          "internalType": "uint256",
          "name": "",
          "type": "uint256"
        }
      ],
      "stateMutability": "view",
      "type": "function",
      "constant": true
    },
    {
      "inputs": [
        {
          "internalType": "address",
          "name": "_owner",
          "type": "address"
        },
        {
          "internalType": "uint8",
          "name": "_itemType",
          "type": "uint8"
        }
      ],
      "name": "specificItemOwnership",
      "outputs": [
        {
          "internalType": "uint256",
          "name": "",
          "type": "uint256"
        }
      ],
      "stateMutability": "view",
      "type": "function",
      "constant": true
    },
    {
      "inputs": [],
      "name": "totalItemTypes",
      "outputs": [
        {
          "internalType": "uint256",
          "name": "",
          "type": "uint256"
        }
      ],
      "stateMutability": "view",
      "type": "function",
      "constant": true
    },
    {
      "inputs": [
        {
          "internalType": "address",
          "name": "_burner",
          "type": "address"
        },
        {
          "internalType": "uint256",
          "name": "_tokenId",
          "type": "uint256"
        }
      ],
      "name": "burn",
      "outputs": [],
      "stateMutability": "nonpayable",
      "type": "function"
    },
    {
      "inputs": [
        {
          "internalType": "string",
          "name": "_passCode",
          "type": "string"
        },
        {
          "internalType": "address",
          "name": "_recipient",
          "type": "address"
        },
        {
          "internalType": "uint8",
          "name": "_itemType",
          "type": "uint8"
        },
        {
          "internalType": "uint256",
          "name": "_quantity",
          "type": "uint256"
        }
      ],
      "name": "mintSale",
      "outputs": [],
      "stateMutability": "payable",
      "type": "function",
      "payable": true
    },
    {
      "inputs": [
        {
          "internalType": "string",
          "name": "_baseURILink",
          "type": "string"
        }
      ],
      "name": "setBaseURI",
      "outputs": [],
      "stateMutability": "nonpayable",
      "type": "function"
    },
    {
      "inputs": [],
      "name": "getBaseURI",
      "outputs": [
        {
          "internalType": "string",
          "name": "",
          "type": "string"
        }
      ],
      "stateMutability": "view",
      "type": "function",
      "constant": true
    },
    {
      "inputs": [
        {
          "internalType": "uint256",
          "name": "tokenId",
          "type": "uint256"
        }
      ],
      "name": "tokenURI",
      "outputs": [
        {
          "internalType": "string",
          "name": "",
          "type": "string"
        }
      ],
      "stateMutability": "view",
      "type": "function",
      "constant": true
    }
  ],
  "bytecode": "0x60806040526040518060e00160405280600160ff168152602001600060ff168152602001600060ff168152602001600060ff168152602001600060ff168152602001600060ff168152602001600060ff16815250600890600762000065929190620003af565b506040518060e00160405280600160ff168152602001600260ff168152602001600360ff168152602001600460ff168152602001600560ff168152602001600660ff168152602001600760ff168152506009906007620000c7929190620003af565b506040518060e00160405280600a60ff168152602001600160ff168152602001600160ff168152602001600160ff168152602001600160ff168152602001600160ff168152602001600160ff16815250600a90600762000129929190620003af565b506040518060e001604052806109c461ffff1681526020016109c461ffff1681526020016103e861ffff1681526020016103e861ffff1681526020016103e861ffff1681526020016103e861ffff1681526020016103e861ffff16815250600b9060076200019992919062000450565b506040518060e001604052806701aa535d3d0c000067ffffffffffffffff1681526020016703782dace9d9000067ffffffffffffffff168152602001668e1bc9bf04000067ffffffffffffffff168152602001668e1bc9bf04000067ffffffffffffffff168152602001668e1bc9bf04000067ffffffffffffffff168152602001668e1bc9bf04000067ffffffffffffffff168152602001668e1bc9bf04000067ffffffffffffffff16815250600c90600762000258929190620004f7565b506127106014556040518060400160405280600a81526020017f4d4144454348414e47450000000000000000000000000000000000000000000081525060179080519060200190620002ac92919062000548565b506001601860006101000a81548160ff0219169083151502179055506040518060400160405280601781526020017f4d6574616d6f6e204974656d20436f6c6c656374696f6e0000000000000000008152506040518060400160405280600381526020017f4e4654000000000000000000000000000000000000000000000000000000000081525081600090805190602001906200034c92919062000548565b5080600190805190602001906200036592919062000548565b50505033600660006101000a81548173ffffffffffffffffffffffffffffffffffffffff021916908373ffffffffffffffffffffffffffffffffffffffff1602179055506200065d565b826007601f016020900481019282156200043d5791602002820160005b838211156200040c57835183826101000a81548160ff021916908360ff1602179055509260200192600101602081600001049283019260010302620003cc565b80156200043b5782816101000a81549060ff02191690556001016020816000010492830192600103026200040c565b505b5090506200044c9190620005d9565b5090565b8260078001600890048101928215620004e45791602002820160005b83821115620004b057835183826101000a81548163ffffffff021916908361ffff16021790555092602001926004016020816003010492830192600103026200046c565b8015620004e25782816101000a81549063ffffffff0219169055600401602081600301049283019260010302620004b0565b505b509050620004f39190620005d9565b5090565b826007810192821562000535579160200282015b8281111562000534578251829067ffffffffffffffff169055916020019190600101906200050b565b5b509050620005449190620005d9565b5090565b8280546200055690620005f8565b90600052602060002090601f0160209004810192826200057a5760008555620005c6565b82601f106200059557805160ff1916838001178555620005c6565b82800160010185558215620005c6579182015b82811115620005c5578251825591602001919060010190620005a8565b5b509050620005d59190620005d9565b5090565b5b80821115620005f4576000816000905550600101620005da565b5090565b600060028204905060018216806200061157607f821691505b602082108114156200062857620006276200062e565b5b50919050565b7f4e487b7100000000000000000000000000000000000000000000000000000000600052602260045260246000fd5b6149e9806200066d6000396000f3fe6080604052600436106102085760003560e01c80637aaf470c11610118578063b88d4fde116100a0578063c87b56dd1161006f578063c87b56dd14610809578063c9432c0514610846578063cc74a5051461086f578063cc76fd92146108ac578063e985e9c5146108e957610248565b8063b88d4fde14610729578063bc5cff9d14610752578063bd9dfe271461078f578063c2a6608f146107cc57610248565b806395d89b41116100e757806395d89b41146106535780639acf878c1461067e5780639dc29fac146106bb578063a22cb465146106e4578063a7cb5b6e1461070d57610248565b80637aaf470c146105bd5780638da5cb5b146105e857806390acdb241461061357806391ee3a481461062a57610248565b80632257eb7e1161019b5780634fa298981161016a5780634fa29898146104b257806355f804b3146104ef5780636352211e1461051857806370a0823114610555578063714c53981461059257610248565b80632257eb7e146103e657806323b872dd1461042357806342842e0e1461044c578063486fc6d31461047557610248565b80630cb98b71116101d75780630cb98b71146103185780630d0453041461035557806315fc17091461037e5780631cad7363146103a957610248565b806301ffc9a71461024a57806306fdde0314610287578063081812fc146102b2578063095ea7b3146102ef57610248565b36610248577f52a6cdf67c40ce333b3d846e4e143db87f71dd7935612a4cafcf6ba76047ca1f333460405161023e929190613b1d565b60405180910390a1005b005b34801561025657600080fd5b50610271600480360381019061026c91906133ba565b610926565b60405161027e9190613b46565b60405180910390f35b34801561029357600080fd5b5061029c610a08565b6040516102a99190613b61565b60405180910390f35b3480156102be57600080fd5b506102d960048036038101906102d491906134e0565b610a9a565b6040516102e69190613a9b565b60405180910390f35b3480156102fb57600080fd5b5061031660048036038101906103119190613287565b610b1f565b005b34801561032457600080fd5b5061033f600480360381019061033a91906132c7565b610c37565b60405161034c9190613e63565b60405180910390f35b34801561036157600080fd5b5061037c6004803603810190610377919061335a565b610ca0565b005b34801561038a57600080fd5b50610393610dd7565b6040516103a09190613e63565b60405180910390f35b3480156103b557600080fd5b506103d060048036038101906103cb9190613307565b610ddd565b6040516103dd9190613e63565b60405180910390f35b3480156103f257600080fd5b5061040d600480360381019061040891906134e0565b610e1b565b60405161041a9190613e7e565b60405180910390f35b34801561042f57600080fd5b5061044a60048036038101906104459190613171565b610e4b565b005b34801561045857600080fd5b50610473600480360381019061046e9190613171565b610eab565b005b34801561048157600080fd5b5061049c6004803603810190610497919061354d565b610ecb565b6040516104a99190613e63565b60405180910390f35b3480156104be57600080fd5b506104d960048036038101906104d491906134e0565b610f4f565b6040516104e69190613e99565b60405180910390f35b3480156104fb57600080fd5b5061051660048036038101906105119190613414565b610f6f565b005b34801561052457600080fd5b5061053f600480360381019061053a91906134e0565b61101b565b60405161054c9190613a9b565b60405180910390f35b34801561056157600080fd5b5061057c60048036038101906105779190613104565b6110cd565b6040516105899190613e63565b60405180910390f35b34801561059e57600080fd5b506105a7611185565b6040516105b49190613b61565b60405180910390f35b3480156105c957600080fd5b506105d26112a9565b6040516105df9190613e63565b60405180910390f35b3480156105f457600080fd5b506105fd6112b2565b60405161060a9190613ab6565b60405180910390f35b34801561061f57600080fd5b506106286112d8565b005b34801561063657600080fd5b50610651600480360381019061064c9190613247565b611396565b005b34801561065f57600080fd5b50610668611483565b6040516106759190613b61565b60405180910390f35b34801561068a57600080fd5b506106a560048036038101906106a091906134e0565b611515565b6040516106b29190613e99565b60405180910390f35b3480156106c757600080fd5b506106e260048036038101906106dd9190613287565b61153f565b005b3480156106f057600080fd5b5061070b60048036038101906107069190613247565b611678565b005b6107276004803603810190610722919061345d565b61168e565b005b34801561073557600080fd5b50610750600480360381019061074b91906131c4565b611bb3565b005b34801561075e57600080fd5b50610779600480360381019061077491906134e0565b611c15565b6040516107869190613e99565b60405180910390f35b34801561079b57600080fd5b506107b660048036038101906107b19190613287565b611c3f565b6040516107c39190613e63565b60405180910390f35b3480156107d857600080fd5b506107f360048036038101906107ee919061354d565b611c70565b6040516108009190613e63565b60405180910390f35b34801561081557600080fd5b50610830600480360381019061082b91906134e0565b611d14565b60405161083d9190613b61565b60405180910390f35b34801561085257600080fd5b5061086d6004803603810190610868919061350d565b611dbc565b005b34801561087b57600080fd5b50610896600480360381019061089191906134e0565b611ed1565b6040516108a39190613e99565b60405180910390f35b3480156108b857600080fd5b506108d360048036038101906108ce9190613104565b611efb565b6040516108e09190613b46565b60405180910390f35b3480156108f557600080fd5b50610910600480360381019061090b9190613131565b611f1b565b60405161091d9190613b46565b60405180910390f35b60007f80ac58cd000000000000000000000000000000000000000000000000000000007bffffffffffffffffffffffffffffffffffffffffffffffffffffffff1916827bffffffffffffffffffffffffffffffffffffffffffffffffffffffff191614806109f157507f5b5e139f000000000000000000000000000000000000000000000000000000007bffffffffffffffffffffffffffffffffffffffffffffffffffffffff1916827bffffffffffffffffffffffffffffffffffffffffffffffffffffffff1916145b80610a015750610a0082611faf565b5b9050919050565b606060008054610a17906141f5565b80601f0160208091040260200160405190810160405280929190818152602001828054610a43906141f5565b8015610a905780601f10610a6557610100808354040283529160200191610a90565b820191906000526020600020905b815481529060010190602001808311610a7357829003601f168201915b5050505050905090565b6000610aa582612019565b610ae4576040517f08c379a0000000000000000000000000000000000000000000000000000000008152600401610adb90613d63565b60405180910390fd5b6004600083815260200190815260200160002060009054906101000a900473ffffffffffffffffffffffffffffffffffffffff169050919050565b6000610b2a8261101b565b90508073ffffffffffffffffffffffffffffffffffffffff168373ffffffffffffffffffffffffffffffffffffffff161415610b9b576040517f08c379a0000000000000000000000000000000000000000000000000000000008152600401610b9290613da3565b60405180910390fd5b8073ffffffffffffffffffffffffffffffffffffffff16610bba612085565b73ffffffffffffffffffffffffffffffffffffffff161480610be95750610be881610be3612085565b611f1b565b5b610c28576040517f08c379a0000000000000000000000000000000000000000000000000000000008152600401610c1f90613ce3565b60405180910390fd5b610c32838361208d565b505050565b600080601b60008573ffffffffffffffffffffffffffffffffffffffff1673ffffffffffffffffffffffffffffffffffffffff16815260200190815260200160002060008460ff1660ff1681526020019081526020016000208054905090508091505092915050565b33600660009054906101000a900473ffffffffffffffffffffffffffffffffffffffff1673ffffffffffffffffffffffffffffffffffffffff168173ffffffffffffffffffffffffffffffffffffffff1614610d31576040517f08c379a0000000000000000000000000000000000000000000000000000000008152600401610d2890613e23565b60405180910390fd5b60005b84849050811015610dd0578260076000878785818110610d5757610d5661435f565b5b9050602002016020810190610d6c9190613104565b73ffffffffffffffffffffffffffffffffffffffff1673ffffffffffffffffffffffffffffffffffffffff16815260200190815260200160002060006101000a81548160ff0219169083151502179055508080610dc890614258565b915050610d34565b5050505050565b60145481565b601b6020528260005260406000206020528160005260406000208181548110610e0557600080fd5b9060005260206000200160009250925050505481565b600b8160078110610e2b57600080fd5b60089182820401919006600402915054906101000a900463ffffffff1681565b610e5c610e56612085565b82612146565b610e9b576040517f08c379a0000000000000000000000000000000000000000000000000000000008152600401610e9290613dc3565b60405180910390fd5b610ea6838383612224565b505050565b610ec683838360405180602001604052806000815250611bb3565b505050565b60008160ff1680600111158015610ee3575060078111155b610f22576040517f08c379a0000000000000000000000000000000000000000000000000000000008152600401610f1990613e43565b60405180910390fd5b600c600184610f3191906140dc565b60ff1660078110610f4557610f4461435f565b5b0154915050919050565b60196020528060005260406000206000915054906101000a900460ff1681565b33600660009054906101000a900473ffffffffffffffffffffffffffffffffffffffff1673ffffffffffffffffffffffffffffffffffffffff168173ffffffffffffffffffffffffffffffffffffffff1614611000576040517f08c379a0000000000000000000000000000000000000000000000000000000008152600401610ff790613e23565b60405180910390fd5b8160169080519060200190611016929190612ead565b505050565b6000806002600084815260200190815260200160002060009054906101000a900473ffffffffffffffffffffffffffffffffffffffff169050600073ffffffffffffffffffffffffffffffffffffffff168173ffffffffffffffffffffffffffffffffffffffff1614156110c4576040517f08c379a00000000000000000000000000000000000000000000000000000000081526004016110bb90613d23565b60405180910390fd5b80915050919050565b60008073ffffffffffffffffffffffffffffffffffffffff168273ffffffffffffffffffffffffffffffffffffffff16141561113e576040517f08c379a000000000000000000000000000000000000000000000000000000000815260040161113590613d03565b60405180910390fd5b600360008373ffffffffffffffffffffffffffffffffffffffff1673ffffffffffffffffffffffffffffffffffffffff168152602001908152602001600020549050919050565b606033600660009054906101000a900473ffffffffffffffffffffffffffffffffffffffff1673ffffffffffffffffffffffffffffffffffffffff168173ffffffffffffffffffffffffffffffffffffffff1614611218576040517f08c379a000000000000000000000000000000000000000000000000000000000815260040161120f90613e23565b60405180910390fd5b60168054611225906141f5565b80601f0160208091040260200160405190810160405280929190818152602001828054611251906141f5565b801561129e5780601f106112735761010080835404028352916020019161129e565b820191906000526020600020905b81548152906001019060200180831161128157829003601f168201915b505050505091505090565b60006007905090565b600660009054906101000a900473ffffffffffffffffffffffffffffffffffffffff1681565b33600660009054906101000a900473ffffffffffffffffffffffffffffffffffffffff1673ffffffffffffffffffffffffffffffffffffffff168173ffffffffffffffffffffffffffffffffffffffff1614611369576040517f08c379a000000000000000000000000000000000000000000000000000000000815260040161136090613e23565b60405180910390fd5b601860009054906101000a900460ff1615601860006101000a81548160ff02191690831515021790555050565b33600660009054906101000a900473ffffffffffffffffffffffffffffffffffffffff1673ffffffffffffffffffffffffffffffffffffffff168173ffffffffffffffffffffffffffffffffffffffff1614611427576040517f08c379a000000000000000000000000000000000000000000000000000000000815260040161141e90613e23565b60405180910390fd5b81600760008573ffffffffffffffffffffffffffffffffffffffff1673ffffffffffffffffffffffffffffffffffffffff16815260200190815260200160002060006101000a81548160ff021916908315150217905550505050565b606060018054611492906141f5565b80601f01602080910402602001604051908101604052809291908181526020018280546114be906141f5565b801561150b5780601f106114e05761010080835404028352916020019161150b565b820191906000526020600020905b8154815290600101906020018083116114ee57829003601f168201915b5050505050905090565b6009816007811061152557600080fd5b60209182820401919006915054906101000a900460ff1681565b60006019600083815260200190815260200160002060009054906101000a900460ff1690506001600860018361157591906140dc565b60ff16600781106115895761158861435f565b5b602091828204019190069054906101000a900460ff1660ff16146115e2576040517f08c379a00000000000000000000000000000000000000000000000000000000081526004016115d990613be3565b60405180910390fd5b6115ec838361248b565b15611638576115fa82612669565b7f09b96a5f01f2daed8682674a1291295a4e0059307b4c30f836a1f3fa6b6c84d8838360405161162b929190613b1d565b60405180910390a1611673565b6040517f08c379a000000000000000000000000000000000000000000000000000000000815260040161166a90613b83565b60405180910390fd5b505050565b61168a611683612085565b8383612786565b5050565b8360176040516020016116a19190613a55565b60405160208183030381529060405280519060200120816040516020016116c89190613a3e565b604051602081830303815290604052805190602001201461171e576040517f08c379a000000000000000000000000000000000000000000000000000000000815260040161171590613de3565b60405180910390fd5b601860009054906101000a900460ff1680156117885750600660009054906101000a900473ffffffffffffffffffffffffffffffffffffffff1673ffffffffffffffffffffffffffffffffffffffff163373ffffffffffffffffffffffffffffffffffffffff1614155b1561181a57600760003373ffffffffffffffffffffffffffffffffffffffff1673ffffffffffffffffffffffffffffffffffffffff16815260200190815260200160002060009054906101000a900460ff16611819576040517f08c379a000000000000000000000000000000000000000000000000000000000815260040161181090613e03565b60405180910390fd5b5b600061182584611c70565b905060006118338686610c37565b90506000600a60018761184691906140dc565b60ff166007811061185a5761185961435f565b5b602091828204019190069054906101000a900460ff1660ff1690508085836118829190613f93565b11156118c3576040517f08c379a00000000000000000000000000000000000000000000000000000000081526004016118ba90613c63565b60405180910390fd5b60006118ce87610ecb565b905060006118dc87866128f3565b9050600660009054906101000a900473ffffffffffffffffffffffffffffffffffffffff1673ffffffffffffffffffffffffffffffffffffffff163373ffffffffffffffffffffffffffffffffffffffff161461198257348282611940919061401a565b1115611981576040517f08c379a000000000000000000000000000000000000000000000000000000000815260040161197890613c43565b60405180910390fd5b5b6000601354905060005b88811015611b9e57818061199f90614258565b9250506119ac8b83612952565b601b60008c73ffffffffffffffffffffffffffffffffffffffff1673ffffffffffffffffffffffffffffffffffffffff16815260200190815260200160002060008b60ff1660ff168152602001908152602001600020829080600181540180825580915050600190039060005260206000200160009091909190915055601a60008c73ffffffffffffffffffffffffffffffffffffffff1673ffffffffffffffffffffffffffffffffffffffff168152602001908152602001600020829080600181540180825580915050600190039060005260206000200160009091909190915055896019600084815260200190815260200160002060006101000a81548160ff021916908360ff1602179055506001600b60018c611acc91906140dc565b60ff1660078110611ae057611adf61435f565b5b600891828204019190066004029054906101000a900463ffffffff16611b0691906140a8565b600b60018c611b1591906140dc565b60ff1660078110611b2957611b2861435f565b5b600891828204019190066004026101000a81548163ffffffff021916908363ffffffff1602179055507f170cd7fbac3527c51a8eadf77fb756ac94fe074ba361cc0a021c1bf9f1a7d7cf8b83604051611b83929190613b1d565b60405180910390a18080611b9690614258565b91505061198c565b50806013819055505050505050505050505050565b611bc4611bbe612085565b83612146565b611c03576040517f08c379a0000000000000000000000000000000000000000000000000000000008152600401611bfa90613dc3565b60405180910390fd5b611c0f84848484612b2c565b50505050565b600a8160078110611c2557600080fd5b60209182820401919006915054906101000a900460ff1681565b601a6020528160005260406000208181548110611c5b57600080fd5b90600052602060002001600091509150505481565b60008160ff1680600111158015611c88575060078111155b611cc7576040517f08c379a0000000000000000000000000000000000000000000000000000000008152600401611cbe90613e43565b60405180910390fd5b600b600184611cd691906140dc565b60ff1660078110611cea57611ce961435f565b5b600891828204019190066004029054906101000a900463ffffffff1663ffffffff16915050919050565b6060611d1f82612019565b611d5e576040517f08c379a0000000000000000000000000000000000000000000000000000000008152600401611d5590613d83565b60405180910390fd5b600060168054611d6d906141f5565b905011611d895760405180602001604052806000815250611db5565b6016611d9483612b88565b604051602001611da5929190613a6c565b6040516020818303038152906040525b9050919050565b33600660009054906101000a900473ffffffffffffffffffffffffffffffffffffffff1673ffffffffffffffffffffffffffffffffffffffff168173ffffffffffffffffffffffffffffffffffffffff1614611e4d576040517f08c379a0000000000000000000000000000000000000000000000000000000008152600401611e4490613e23565b60405180910390fd5b8160ff1680600111158015611e63575060078111155b611ea2576040517f08c379a0000000000000000000000000000000000000000000000000000000008152600401611e9990613e43565b60405180910390fd5b83600c600185611eb291906140dc565b60ff1660078110611ec657611ec561435f565b5b018190555050505050565b60088160078110611ee157600080fd5b60209182820401919006915054906101000a900460ff1681565b60076020528060005260406000206000915054906101000a900460ff1681565b6000600560008473ffffffffffffffffffffffffffffffffffffffff1673ffffffffffffffffffffffffffffffffffffffff16815260200190815260200160002060008373ffffffffffffffffffffffffffffffffffffffff1673ffffffffffffffffffffffffffffffffffffffff16815260200190815260200160002060009054906101000a900460ff16905092915050565b60007f01ffc9a7000000000000000000000000000000000000000000000000000000007bffffffffffffffffffffffffffffffffffffffffffffffffffffffff1916827bffffffffffffffffffffffffffffffffffffffffffffffffffffffff1916149050919050565b60008073ffffffffffffffffffffffffffffffffffffffff166002600084815260200190815260200160002060009054906101000a900473ffffffffffffffffffffffffffffffffffffffff1673ffffffffffffffffffffffffffffffffffffffff1614159050919050565b600033905090565b816004600083815260200190815260200160002060006101000a81548173ffffffffffffffffffffffffffffffffffffffff021916908373ffffffffffffffffffffffffffffffffffffffff160217905550808273ffffffffffffffffffffffffffffffffffffffff166121008361101b565b73ffffffffffffffffffffffffffffffffffffffff167f8c5be1e5ebec7d5bd14f71427d1e84f3dd0314c0f7b2291e5b200ac8c7c3b92560405160405180910390a45050565b600061215182612019565b612190576040517f08c379a000000000000000000000000000000000000000000000000000000000815260040161218790613cc3565b60405180910390fd5b600061219b8361101b565b90508073ffffffffffffffffffffffffffffffffffffffff168473ffffffffffffffffffffffffffffffffffffffff16148061220a57508373ffffffffffffffffffffffffffffffffffffffff166121f284610a9a565b73ffffffffffffffffffffffffffffffffffffffff16145b8061221b575061221a8185611f1b565b5b91505092915050565b8273ffffffffffffffffffffffffffffffffffffffff166122448261101b565b73ffffffffffffffffffffffffffffffffffffffff161461229a576040517f08c379a000000000000000000000000000000000000000000000000000000000815260040161229190613c03565b60405180910390fd5b600073ffffffffffffffffffffffffffffffffffffffff168273ffffffffffffffffffffffffffffffffffffffff16141561230a576040517f08c379a000000000000000000000000000000000000000000000000000000000815260040161230190613c83565b60405180910390fd5b612315838383612ce9565b61232060008261208d565b6001600360008573ffffffffffffffffffffffffffffffffffffffff1673ffffffffffffffffffffffffffffffffffffffff16815260200190815260200160002060008282546123709190614074565b925050819055506001600360008473ffffffffffffffffffffffffffffffffffffffff1673ffffffffffffffffffffffffffffffffffffffff16815260200190815260200160002060008282546123c79190613f93565b92505081905550816002600083815260200190815260200160002060006101000a81548173ffffffffffffffffffffffffffffffffffffffff021916908373ffffffffffffffffffffffffffffffffffffffff160217905550808273ffffffffffffffffffffffffffffffffffffffff168473ffffffffffffffffffffffffffffffffffffffff167fddf252ad1be2c89b69c2b068fc378daa952ba7f163c4a11628f55a4df523b3ef60405160405180910390a4612486838383612cee565b505050565b600033600660009054906101000a900473ffffffffffffffffffffffffffffffffffffffff1673ffffffffffffffffffffffffffffffffffffffff168173ffffffffffffffffffffffffffffffffffffffff161461251e576040517f08c379a000000000000000000000000000000000000000000000000000000000815260040161251590613e23565b60405180910390fd5b6000601a60008673ffffffffffffffffffffffffffffffffffffffff1673ffffffffffffffffffffffffffffffffffffffff1681526020019081526020016000208054806020026020016040519081016040528092919081815260200182805480156125a957602002820191906000526020600020905b815481526020019060010190808311612595575b5050505050905060005b815181101561265b57848282815181106125d0576125cf61435f565b5b6020026020010151141561264857601a60008773ffffffffffffffffffffffffffffffffffffffff1673ffffffffffffffffffffffffffffffffffffffff168152602001908152602001600020818154811061262f5761262e61435f565b5b9060005260206000200160009055600193505050612662565b808061265390614258565b9150506125b3565b5060009250505b5092915050565b60006126748261101b565b905061268281600084612ce9565b61268d60008361208d565b6001600360008373ffffffffffffffffffffffffffffffffffffffff1673ffffffffffffffffffffffffffffffffffffffff16815260200190815260200160002060008282546126dd9190614074565b925050819055506002600083815260200190815260200160002060006101000a81549073ffffffffffffffffffffffffffffffffffffffff021916905581600073ffffffffffffffffffffffffffffffffffffffff168273ffffffffffffffffffffffffffffffffffffffff167fddf252ad1be2c89b69c2b068fc378daa952ba7f163c4a11628f55a4df523b3ef60405160405180910390a461278281600084612cee565b5050565b8173ffffffffffffffffffffffffffffffffffffffff168373ffffffffffffffffffffffffffffffffffffffff1614156127f5576040517f08c379a00000000000000000000000000000000000000000000000000000000081526004016127ec90613ca3565b60405180910390fd5b80600560008573ffffffffffffffffffffffffffffffffffffffff1673ffffffffffffffffffffffffffffffffffffffff16815260200190815260200160002060008473ffffffffffffffffffffffffffffffffffffffff1673ffffffffffffffffffffffffffffffffffffffff16815260200190815260200160002060006101000a81548160ff0219169083151502179055508173ffffffffffffffffffffffffffffffffffffffff168373ffffffffffffffffffffffffffffffffffffffff167f17307eab39ab6107e8899845ad3d59bd9653f200f220920489ca2b5937696c31836040516128e69190613b46565b60405180910390a3505050565b60008183116129045782905061294c565b6000821415612948576040517f08c379a000000000000000000000000000000000000000000000000000000000815260040161293f90613bc3565b60405180910390fd5b8190505b92915050565b600073ffffffffffffffffffffffffffffffffffffffff168273ffffffffffffffffffffffffffffffffffffffff1614156129c2576040517f08c379a00000000000000000000000000000000000000000000000000000000081526004016129b990613d43565b60405180910390fd5b6129cb81612019565b15612a0b576040517f08c379a0000000000000000000000000000000000000000000000000000000008152600401612a0290613c23565b60405180910390fd5b612a1760008383612ce9565b6001600360008473ffffffffffffffffffffffffffffffffffffffff1673ffffffffffffffffffffffffffffffffffffffff1681526020019081526020016000206000828254612a679190613f93565b92505081905550816002600083815260200190815260200160002060006101000a81548173ffffffffffffffffffffffffffffffffffffffff021916908373ffffffffffffffffffffffffffffffffffffffff160217905550808273ffffffffffffffffffffffffffffffffffffffff16600073ffffffffffffffffffffffffffffffffffffffff167fddf252ad1be2c89b69c2b068fc378daa952ba7f163c4a11628f55a4df523b3ef60405160405180910390a4612b2860008383612cee565b5050565b612b37848484612224565b612b4384848484612cf3565b612b82576040517f08c379a0000000000000000000000000000000000000000000000000000000008152600401612b7990613ba3565b60405180910390fd5b50505050565b60606000821415612bd0576040518060400160405280600181526020017f30000000000000000000000000000000000000000000000000000000000000008152509050612ce4565b600082905060005b60008214612c02578080612beb90614258565b915050600a82612bfb9190613fe9565b9150612bd8565b60008167ffffffffffffffff811115612c1e57612c1d61438e565b5b6040519080825280601f01601f191660200182016040528015612c505781602001600182028036833780820191505090505b5090505b60008514612cdd57600182612c699190614074565b9150600a85612c7891906142a1565b6030612c849190613f93565b60f81b818381518110612c9a57612c9961435f565b5b60200101907effffffffffffffffffffffffffffffffffffffffffffffffffffffffffffff1916908160001a905350600a85612cd69190613fe9565b9450612c54565b8093505050505b919050565b505050565b505050565b6000612d148473ffffffffffffffffffffffffffffffffffffffff16612e8a565b15612e7d578373ffffffffffffffffffffffffffffffffffffffff1663150b7a02612d3d612085565b8786866040518563ffffffff1660e01b8152600401612d5f9493929190613ad1565b602060405180830381600087803b158015612d7957600080fd5b505af1925050508015612daa57506040513d601f19601f82011682018060405250810190612da791906133e7565b60015b612e2d573d8060008114612dda576040519150601f19603f3d011682016040523d82523d6000602084013e612ddf565b606091505b50600081511415612e25576040517f08c379a0000000000000000000000000000000000000000000000000000000008152600401612e1c90613ba3565b60405180910390fd5b805181602001fd5b63150b7a0260e01b7bffffffffffffffffffffffffffffffffffffffffffffffffffffffff1916817bffffffffffffffffffffffffffffffffffffffffffffffffffffffff191614915050612e82565b600190505b949350505050565b6000808273ffffffffffffffffffffffffffffffffffffffff163b119050919050565b828054612eb9906141f5565b90600052602060002090601f016020900481019282612edb5760008555612f22565b82601f10612ef457805160ff1916838001178555612f22565b82800160010185558215612f22579182015b82811115612f21578251825591602001919060010190612f06565b5b509050612f2f9190612f33565b5090565b5b80821115612f4c576000816000905550600101612f34565b5090565b6000612f63612f5e84613ed9565b613eb4565b905082815260208101848484011115612f7f57612f7e6143cc565b5b612f8a8482856141b3565b509392505050565b6000612fa5612fa084613f0a565b613eb4565b905082815260208101848484011115612fc157612fc06143cc565b5b612fcc8482856141b3565b509392505050565b600081359050612fe381614940565b92915050565b60008083601f840112612fff57612ffe6143c2565b5b8235905067ffffffffffffffff81111561301c5761301b6143bd565b5b602083019150836020820283011115613038576130376143c7565b5b9250929050565b60008135905061304e81614957565b92915050565b6000813590506130638161496e565b92915050565b6000815190506130788161496e565b92915050565b600082601f830112613093576130926143c2565b5b81356130a3848260208601612f50565b91505092915050565b600082601f8301126130c1576130c06143c2565b5b81356130d1848260208601612f92565b91505092915050565b6000813590506130e981614985565b92915050565b6000813590506130fe8161499c565b92915050565b60006020828403121561311a576131196143d6565b5b600061312884828501612fd4565b91505092915050565b60008060408385031215613148576131476143d6565b5b600061315685828601612fd4565b925050602061316785828601612fd4565b9150509250929050565b60008060006060848603121561318a576131896143d6565b5b600061319886828701612fd4565b93505060206131a986828701612fd4565b92505060406131ba868287016130da565b9150509250925092565b600080600080608085870312156131de576131dd6143d6565b5b60006131ec87828801612fd4565b94505060206131fd87828801612fd4565b935050604061320e878288016130da565b925050606085013567ffffffffffffffff81111561322f5761322e6143d1565b5b61323b8782880161307e565b91505092959194509250565b6000806040838503121561325e5761325d6143d6565b5b600061326c85828601612fd4565b925050602061327d8582860161303f565b9150509250929050565b6000806040838503121561329e5761329d6143d6565b5b60006132ac85828601612fd4565b92505060206132bd858286016130da565b9150509250929050565b600080604083850312156132de576132dd6143d6565b5b60006132ec85828601612fd4565b92505060206132fd858286016130ef565b9150509250929050565b6000806000606084860312156133205761331f6143d6565b5b600061332e86828701612fd4565b935050602061333f868287016130ef565b9250506040613350868287016130da565b9150509250925092565b600080600060408486031215613373576133726143d6565b5b600084013567ffffffffffffffff811115613391576133906143d1565b5b61339d86828701612fe9565b935093505060206133b08682870161303f565b9150509250925092565b6000602082840312156133d0576133cf6143d6565b5b60006133de84828501613054565b91505092915050565b6000602082840312156133fd576133fc6143d6565b5b600061340b84828501613069565b91505092915050565b60006020828403121561342a576134296143d6565b5b600082013567ffffffffffffffff811115613448576134476143d1565b5b613454848285016130ac565b91505092915050565b60008060008060808587031215613477576134766143d6565b5b600085013567ffffffffffffffff811115613495576134946143d1565b5b6134a1878288016130ac565b94505060206134b287828801612fd4565b93505060406134c3878288016130ef565b92505060606134d4878288016130da565b91505092959194509250565b6000602082840312156134f6576134f56143d6565b5b6000613504848285016130da565b91505092915050565b60008060408385031215613524576135236143d6565b5b6000613532858286016130da565b9250506020613543858286016130ef565b9150509250929050565b600060208284031215613563576135626143d6565b5b6000613571848285016130ef565b91505092915050565b61358381614122565b82525050565b61359281614110565b82525050565b6135a181614134565b82525050565b60006135b282613f50565b6135bc8185613f66565b93506135cc8185602086016141c2565b6135d5816143db565b840191505092915050565b60006135eb82613f5b565b6135f58185613f77565b93506136058185602086016141c2565b61360e816143db565b840191505092915050565b600061362482613f5b565b61362e8185613f88565b935061363e8185602086016141c2565b80840191505092915050565b60008154613657816141f5565b6136618186613f88565b9450600182166000811461367c576001811461368d576136c0565b60ff198316865281860193506136c0565b61369685613f3b565b60005b838110156136b857815481890152600182019150602081019050613699565b838801955050505b50505092915050565b60006136d6601983613f77565b91506136e1826143ec565b602082019050919050565b60006136f9603283613f77565b915061370482614415565b604082019050919050565b600061371c601783613f77565b915061372782614464565b602082019050919050565b600061373f601283613f77565b915061374a8261448d565b602082019050919050565b6000613762602583613f77565b915061376d826144b6565b604082019050919050565b6000613785601c83613f77565b915061379082614505565b602082019050919050565b60006137a8601483613f77565b91506137b38261452e565b602082019050919050565b60006137cb601d83613f77565b91506137d682614557565b602082019050919050565b60006137ee602483613f77565b91506137f982614580565b604082019050919050565b6000613811601983613f77565b915061381c826145cf565b602082019050919050565b6000613834602c83613f77565b915061383f826145f8565b604082019050919050565b6000613857603883613f77565b915061386282614647565b604082019050919050565b600061387a602a83613f77565b915061388582614696565b604082019050919050565b600061389d602983613f77565b91506138a8826146e5565b604082019050919050565b60006138c0602083613f77565b91506138cb82614734565b602082019050919050565b60006138e3602c83613f77565b91506138ee8261475d565b604082019050919050565b6000613906601283613f77565b9150613911826147ac565b602082019050919050565b6000613929600583613f88565b9150613934826147d5565b600582019050919050565b600061394c602183613f77565b9150613957826147fe565b604082019050919050565b600061396f603183613f77565b915061397a8261484d565b604082019050919050565b6000613992601083613f77565b915061399d8261489c565b602082019050919050565b60006139b5601a83613f77565b91506139c0826148c5565b602082019050919050565b60006139d8601183613f77565b91506139e3826148ee565b602082019050919050565b60006139fb601783613f77565b9150613a0682614917565b602082019050919050565b613a1a8161418c565b82525050565b613a2981614196565b82525050565b613a38816141a6565b82525050565b6000613a4a8284613619565b915081905092915050565b6000613a61828461364a565b915081905092915050565b6000613a78828561364a565b9150613a848284613619565b9150613a8f8261391c565b91508190509392505050565b6000602082019050613ab06000830184613589565b92915050565b6000602082019050613acb600083018461357a565b92915050565b6000608082019050613ae66000830187613589565b613af36020830186613589565b613b006040830185613a11565b8181036060830152613b1281846135a7565b905095945050505050565b6000604082019050613b326000830185613589565b613b3f6020830184613a11565b9392505050565b6000602082019050613b5b6000830184613598565b92915050565b60006020820190508181036000830152613b7b81846135e0565b905092915050565b60006020820190508181036000830152613b9c816136c9565b9050919050565b60006020820190508181036000830152613bbc816136ec565b9050919050565b60006020820190508181036000830152613bdc8161370f565b9050919050565b60006020820190508181036000830152613bfc81613732565b9050919050565b60006020820190508181036000830152613c1c81613755565b9050919050565b60006020820190508181036000830152613c3c81613778565b9050919050565b60006020820190508181036000830152613c5c8161379b565b9050919050565b60006020820190508181036000830152613c7c816137be565b9050919050565b60006020820190508181036000830152613c9c816137e1565b9050919050565b60006020820190508181036000830152613cbc81613804565b9050919050565b60006020820190508181036000830152613cdc81613827565b9050919050565b60006020820190508181036000830152613cfc8161384a565b9050919050565b60006020820190508181036000830152613d1c8161386d565b9050919050565b60006020820190508181036000830152613d3c81613890565b9050919050565b60006020820190508181036000830152613d5c816138b3565b9050919050565b60006020820190508181036000830152613d7c816138d6565b9050919050565b60006020820190508181036000830152613d9c816138f9565b9050919050565b60006020820190508181036000830152613dbc8161393f565b9050919050565b60006020820190508181036000830152613ddc81613962565b9050919050565b60006020820190508181036000830152613dfc81613985565b9050919050565b60006020820190508181036000830152613e1c816139a8565b9050919050565b60006020820190508181036000830152613e3c816139cb565b9050919050565b60006020820190508181036000830152613e5c816139ee565b9050919050565b6000602082019050613e786000830184613a11565b92915050565b6000602082019050613e936000830184613a20565b92915050565b6000602082019050613eae6000830184613a2f565b92915050565b6000613ebe613ecf565b9050613eca8282614227565b919050565b6000604051905090565b600067ffffffffffffffff821115613ef457613ef361438e565b5b613efd826143db565b9050602081019050919050565b600067ffffffffffffffff821115613f2557613f2461438e565b5b613f2e826143db565b9050602081019050919050565b60008190508160005260206000209050919050565b600081519050919050565b600081519050919050565b600082825260208201905092915050565b600082825260208201905092915050565b600081905092915050565b6000613f9e8261418c565b9150613fa98361418c565b9250827fffffffffffffffffffffffffffffffffffffffffffffffffffffffffffffffff03821115613fde57613fdd6142d2565b5b828201905092915050565b6000613ff48261418c565b9150613fff8361418c565b92508261400f5761400e614301565b5b828204905092915050565b60006140258261418c565b91506140308361418c565b9250817fffffffffffffffffffffffffffffffffffffffffffffffffffffffffffffffff0483118215151615614069576140686142d2565b5b828202905092915050565b600061407f8261418c565b915061408a8361418c565b92508282101561409d5761409c6142d2565b5b828203905092915050565b60006140b382614196565b91506140be83614196565b9250828210156140d1576140d06142d2565b5b828203905092915050565b60006140e7826141a6565b91506140f2836141a6565b925082821015614105576141046142d2565b5b828203905092915050565b600061411b8261416c565b9050919050565b600061412d8261416c565b9050919050565b60008115159050919050565b60007fffffffff0000000000000000000000000000000000000000000000000000000082169050919050565b600073ffffffffffffffffffffffffffffffffffffffff82169050919050565b6000819050919050565b600063ffffffff82169050919050565b600060ff82169050919050565b82818337600083830152505050565b60005b838110156141e05780820151818401526020810190506141c5565b838111156141ef576000848401525b50505050565b6000600282049050600182168061420d57607f821691505b6020821081141561422157614220614330565b5b50919050565b614230826143db565b810181811067ffffffffffffffff8211171561424f5761424e61438e565b5b80604052505050565b60006142638261418c565b91507fffffffffffffffffffffffffffffffffffffffffffffffffffffffffffffffff821415614296576142956142d2565b5b600182019050919050565b60006142ac8261418c565b91506142b78361418c565b9250826142c7576142c6614301565b5b828206905092915050565b7f4e487b7100000000000000000000000000000000000000000000000000000000600052601160045260246000fd5b7f4e487b7100000000000000000000000000000000000000000000000000000000600052601260045260246000fd5b7f4e487b7100000000000000000000000000000000000000000000000000000000600052602260045260246000fd5b7f4e487b7100000000000000000000000000000000000000000000000000000000600052603260045260246000fd5b7f4e487b7100000000000000000000000000000000000000000000000000000000600052604160045260246000fd5b600080fd5b600080fd5b600080fd5b600080fd5b600080fd5b600080fd5b6000601f19601f8301169050919050565b7f436f756c64206e6f74206275726e2074686520746f6b656e2100000000000000600082015250565b7f4552433732313a207472616e7366657220746f206e6f6e20455243373231526560008201527f63656976657220696d706c656d656e7465720000000000000000000000000000602082015250565b7f4974656d20737570706c79206e6f7420656e6f75676821000000000000000000600082015250565b7f4974656d206e6f74206275726e61626c65210000000000000000000000000000600082015250565b7f4552433732313a207472616e736665722066726f6d20696e636f72726563742060008201527f6f776e6572000000000000000000000000000000000000000000000000000000602082015250565b7f4552433732313a20746f6b656e20616c7265616479206d696e74656400000000600082015250565b7f4e6f7420657861637420636f696e2073656e6421000000000000000000000000600082015250565b7f4d6178206f776e61626c65207175616e74697479207265616368656421000000600082015250565b7f4552433732313a207472616e7366657220746f20746865207a65726f2061646460008201527f7265737300000000000000000000000000000000000000000000000000000000602082015250565b7f4552433732313a20617070726f766520746f2063616c6c657200000000000000600082015250565b7f4552433732313a206f70657261746f7220717565727920666f72206e6f6e657860008201527f697374656e7420746f6b656e0000000000000000000000000000000000000000602082015250565b7f4552433732313a20617070726f76652063616c6c6572206973206e6f74206f7760008201527f6e6572206e6f7220617070726f76656420666f7220616c6c0000000000000000602082015250565b7f4552433732313a2062616c616e636520717565727920666f7220746865207a6560008201527f726f206164647265737300000000000000000000000000000000000000000000602082015250565b7f4552433732313a206f776e657220717565727920666f72206e6f6e657869737460008201527f656e7420746f6b656e0000000000000000000000000000000000000000000000602082015250565b7f4552433732313a206d696e7420746f20746865207a65726f2061646472657373600082015250565b7f4552433732313a20617070726f76656420717565727920666f72206e6f6e657860008201527f697374656e7420746f6b656e0000000000000000000000000000000000000000602082015250565b7f4e6f6e6578697374656e7420746f6b656e210000000000000000000000000000600082015250565b7f2e6a736f6e000000000000000000000000000000000000000000000000000000600082015250565b7f4552433732313a20617070726f76616c20746f2063757272656e74206f776e6560008201527f7200000000000000000000000000000000000000000000000000000000000000602082015250565b7f4552433732313a207472616e736665722063616c6c6572206973206e6f74206f60008201527f776e6572206e6f7220617070726f766564000000000000000000000000000000602082015250565b7f546f6b656e206e6f74206d617463682100000000000000000000000000000000600082015250565b7f43616c6c6572206973206e6f7420616c6c6f77206c6973746564000000000000600082015250565b7f4e6f742061206f776e65722063616c6c21000000000000000000000000000000600082015250565b7f4974656d2054797065206f7574206f662073636f706521000000000000000000600082015250565b61494981614110565b811461495457600080fd5b50565b61496081614134565b811461496b57600080fd5b50565b61497781614140565b811461498257600080fd5b50565b61498e8161418c565b811461499957600080fd5b50565b6149a5816141a6565b81146149b057600080fd5b5056fea2646970667358221220854691b42118f854c0ad332973e49f32a6cc1f57d1f1a87af3c70778f709b30464736f6c63430008070033",
  "immutableReferences": {},
  "source": "// SPDX-License-Identifier: MIT\r\npragma solidity ^0.8.2;\r\n\r\nimport \"@openzeppelin/contracts/token/ERC721/ERC721.sol\";\r\n\r\ncontract Item is ERC721 {\r\n    using Strings for uint256;\r\n\r\n    address payable public owner;\r\n\r\n    mapping(address => bool) public isAllowlistAddress;\r\n\r\n    uint8[7] public itemBurnable = [1, 0, 0, 0, 0, 0, 0];\r\n    uint8[7] public itemTypes = [1, 2, 3, 4, 5, 6, 7];\r\n    uint8[7] public maxOwnable = [10, 1, 1, 1, 1, 1, 1];\r\n    uint32[7] public itemSupplies = [2500, 2500, 1000, 1000, 1000, 1000, 1000];\r\n\r\n    uint256[7] private itemFloor = [\r\n        0.12 ether,\r\n        0.25 ether,\r\n        0.04 ether,\r\n        0.04 ether,\r\n        0.04 ether,\r\n        0.04 ether,\r\n        0.04 ether\r\n    ];\r\n    uint256 private tokenIds;\r\n    uint256 public itemTotalSupply = 10000;\r\n\r\n    string private itemBaseURI;\r\n    string private baseURI;\r\n    string private passWord = \"MADECHANGE\";\r\n    bool private onlyAllowList = true;\r\n\r\n    mapping(uint256 => uint8) public tokenItemTypes;\r\n    mapping(address => uint256[]) public tokenOwner; // Represents owner's tokens *tokenIds\r\n    mapping(address => mapping(uint8 => uint256[])) public tokenOwners; // Represents owner's different type of tokens' ids\r\n\r\n    ///////////////////////////////////////////////////////////////////////////\r\n    // Events\r\n    ///////////////////////////////////////////////////////////////////////////\r\n    event ReceivedEth(address _sender, uint256 _value);\r\n    event ItemMinted(address _reciever, uint256 _tokenId);\r\n    event BurnItem(address _burner, uint256 _tokenId);\r\n\r\n    ///////////////////////////////////////////////////////////////////////////\r\n    // Cons\r\n    ///////////////////////////////////////////////////////////////////////////\r\n    constructor() payable ERC721(\"Metamon Item Collection\", \"NFT\") {\r\n        owner = payable(msg.sender);\r\n    }\r\n\r\n    // TODO: add withdraw function\r\n\r\n    fallback() external payable {}\r\n\r\n    receive() external payable {\r\n        emit ReceivedEth(msg.sender, msg.value);\r\n    }\r\n\r\n    ///////////////////////////////////////////////////////////////////////////\r\n    // Pre-Function Conditions\r\n    ///////////////////////////////////////////////////////////////////////////\r\n    modifier onlyOwner(address _sender) {\r\n        require(_sender == owner, \"Not a owner call!\");\r\n        _;\r\n    }\r\n\r\n    modifier itemType(uint256 _itemType) {\r\n        require(1 <= _itemType && _itemType <= 7, \"Item Type out of scope!\");\r\n        _;\r\n    }\r\n\r\n    modifier passCheck(string memory _passCode) {\r\n        // This modifier limits the access into mintFunction\r\n        require(\r\n            keccak256(abi.encodePacked(_passCode)) ==\r\n                keccak256(abi.encodePacked(passWord)),\r\n            \"Token not match!\"\r\n        );\r\n        _;\r\n    }\r\n\r\n    ///////////////////////////////////////////////////////////////////////////\r\n    // Allow List Functions\r\n    ///////////////////////////////////////////////////////////////////////////\r\n    function allowlistAddresses(address[] calldata wAddresses, bool allow) external onlyOwner(msg.sender) {\r\n        for (uint i = 0; i < wAddresses.length; i++) {\r\n            isAllowlistAddress[wAddresses[i]] = allow;\r\n        }\r\n    }\r\n\r\n      function allowlistAddress(address wAddress, bool allow ) external onlyOwner(msg.sender) {\r\n            isAllowlistAddress[wAddress] = allow;\r\n    }\r\n\r\n    function toggleOnlyAllowList() external onlyOwner (msg.sender){\r\n        onlyAllowList = !onlyAllowList;\r\n    }\r\n\r\n    ///////////////////////////////////////////////////////////////////////////\r\n    // Get/Set State Changes\r\n    ///////////////////////////////////////////////////////////////////////////\r\n    function changeFloorPrice(uint256 _new_price, uint8 _itemType)\r\n        external\r\n        onlyOwner(msg.sender)\r\n        itemType(_itemType)\r\n    {\r\n        itemFloor[_itemType - 1] = _new_price;\r\n    }\r\n\r\n    function getFloorPrice(uint8 _itemType)\r\n        public\r\n        view\r\n        itemType(_itemType)\r\n        returns (uint256)\r\n    {\r\n        return itemFloor[_itemType - 1];\r\n    }\r\n\r\n    function getSupplyLeft(uint8 _itemType)\r\n        public\r\n        view\r\n        itemType(_itemType)\r\n        returns (uint256)\r\n    {\r\n        return itemSupplies[_itemType - 1];\r\n    }\r\n\r\n    function specificItemOwnership(address _owner, uint8 _itemType)\r\n        public\r\n        view\r\n        returns (uint256)\r\n    {\r\n        // check whether owner owns specific ITEM token\r\n        uint256 total_ownership = tokenOwners[_owner][_itemType].length;\r\n        return total_ownership;\r\n    }\r\n\r\n    function mintableLeft(uint256 _quantity, uint256 _itemSupplyLeft)\r\n        internal\r\n        pure\r\n        returns (uint256)\r\n    {\r\n        if (_quantity <= _itemSupplyLeft) {\r\n            return _quantity;\r\n        } else {\r\n            if (_itemSupplyLeft == 0) {\r\n                revert(\"Item supply not enough!\");\r\n            } else {\r\n                return _itemSupplyLeft;\r\n            }\r\n        }\r\n    }\r\n\r\n    function totalItemTypes() public view returns (uint256) {\r\n        return itemTypes.length;\r\n    }\r\n\r\n    ///////////////////////////////////////////////////////////////////////////\r\n    // Burn Tokens\r\n    ///////////////////////////////////////////////////////////////////////////\r\n    function _deleteOwnerToken(address _burner, uint256 _tokenId)\r\n        internal\r\n        onlyOwner(msg.sender) // TODO: remove onlyOwner\r\n        returns (bool)\r\n    {\r\n        // TODO: redundant function, change it with ownerOf() -> when the item will be burned it will be automatically removed\r\n        uint256[] memory tokens = tokenOwner[_burner];\r\n        for (uint256 i = 0; i < tokens.length; i++) {\r\n            if (tokens[i] == _tokenId) {\r\n                delete tokenOwner[_burner][i];\r\n                return true;\r\n            }\r\n        }\r\n        return false;\r\n    }\r\n\r\n    function burn(address _burner, uint256 _tokenId) public {\r\n        uint8 _tokenType = tokenItemTypes[_tokenId];\r\n        require(itemBurnable[_tokenType - 1] == 1, \"Item not burnable!\");\r\n\r\n        if (_deleteOwnerToken(_burner, _tokenId)) {\r\n            _burn(_tokenId);\r\n            emit BurnItem(_burner, _tokenId);\r\n        } else {\r\n            revert(\"Could not burn the token!\");\r\n        }\r\n    }\r\n\r\n    ///////////////////////////////////////////////////////////////////////////\r\n    // Mint Tokens\r\n    ///////////////////////////////////////////////////////////////////////////\r\n    function mintSale(\r\n        string memory _passCode,\r\n        address _recipient,\r\n        uint8 _itemType,\r\n        uint256 _quantity\r\n    ) external payable passCheck(_passCode) {\r\n        \r\n        //Checks if address is allow listed\r\n        if(onlyAllowList && msg.sender != owner){\r\n            require(isAllowlistAddress[msg.sender], \"Caller is not allow listed\");\r\n        }\r\n\r\n        uint256 _itemSupplyLeft = getSupplyLeft(_itemType);\r\n\r\n        uint256 _totalOwned = specificItemOwnership(_recipient, _itemType);\r\n        uint256 _maxOwnable = maxOwnable[_itemType - 1];\r\n        require(\r\n            _totalOwned + _quantity <= _maxOwnable,\r\n            \"Max ownable quantity reached!\"\r\n        );\r\n\r\n        uint256 _itemFloor = getFloorPrice(_itemType);\r\n\r\n        uint256 _maxMintable = mintableLeft(_quantity, _itemSupplyLeft);\r\n        if (msg.sender != owner) {\r\n            require(\r\n                _maxMintable * _itemFloor <= msg.value,\r\n                \"Not exact coin send!\"\r\n            );\r\n        }\r\n\r\n        uint256 j = tokenIds;\r\n\r\n        for (uint256 i = 0; i < _quantity; i++) {\r\n            j++;\r\n            _mint(_recipient, j);\r\n            tokenOwners[_recipient][_itemType].push(j);\r\n            tokenOwner[_recipient].push(j);\r\n            tokenItemTypes[j] = _itemType;\r\n            itemSupplies[_itemType - 1] = itemSupplies[_itemType - 1] - 1;\r\n            emit ItemMinted(_recipient, j);\r\n        }\r\n        tokenIds = j;\r\n    }\r\n\r\n    ///////////////////////////////////////////////////////////////////////////\r\n    // Backend URIs\r\n    ///////////////////////////////////////////////////////////////////////////\r\n    function setBaseURI(string memory _baseURILink)\r\n        external\r\n        onlyOwner(msg.sender)\r\n    {\r\n        baseURI = _baseURILink;\r\n    }\r\n\r\n    function getBaseURI()\r\n        external\r\n        view\r\n        onlyOwner(msg.sender)\r\n        returns (string memory)\r\n    {\r\n        return baseURI;\r\n    }\r\n\r\n    function _baseURI() internal view virtual override returns (string memory) {\r\n        return baseURI;\r\n    }\r\n\r\n    function tokenURI(uint256 tokenId)\r\n        public\r\n        view\r\n        virtual\r\n        override\r\n        returns (string memory)\r\n    {\r\n        require(_exists(tokenId), \"Nonexistent token!\");\r\n\r\n        return\r\n            bytes(baseURI).length > 0\r\n                ? string(abi.encodePacked(baseURI, tokenId.toString(), \".json\"))\r\n                : \"\";\r\n    }\r\n}\r\n",
  "sourcePath": "W:\\NFTS\\Metamon\\metamon_contracts\\contracts\\Item.sol",
  "compiler": {
    "name": "solc",
    "version": "0.8.7+commit.e28d00a7.Emscripten.clang"
  },
  "schemaVersion": "3.4.6",
  "updatedAt": "2022-03-27T18:09:25.675Z",
  "networkType": "ethereum",
  "devdoc": {
    "kind": "dev",
    "methods": {
      "approve(address,uint256)": {
        "details": "See {IERC721-approve}."
      },
      "balanceOf(address)": {
        "details": "See {IERC721-balanceOf}."
      },
      "getApproved(uint256)": {
        "details": "See {IERC721-getApproved}."
      },
      "isApprovedForAll(address,address)": {
        "details": "See {IERC721-isApprovedForAll}."
      },
      "name()": {
        "details": "See {IERC721Metadata-name}."
      },
      "ownerOf(uint256)": {
        "details": "See {IERC721-ownerOf}."
      },
      "safeTransferFrom(address,address,uint256)": {
        "details": "See {IERC721-safeTransferFrom}."
      },
      "safeTransferFrom(address,address,uint256,bytes)": {
        "details": "See {IERC721-safeTransferFrom}."
      },
      "setApprovalForAll(address,bool)": {
        "details": "See {IERC721-setApprovalForAll}."
      },
      "supportsInterface(bytes4)": {
        "details": "See {IERC165-supportsInterface}."
      },
      "symbol()": {
        "details": "See {IERC721Metadata-symbol}."
      },
      "tokenURI(uint256)": {
        "details": "See {IERC721Metadata-tokenURI}."
      },
      "transferFrom(address,address,uint256)": {
        "details": "See {IERC721-transferFrom}."
      }
    },
    "version": 1
  },
  "userdoc": {
    "kind": "user",
    "methods": {},
    "version": 1
  }
}