{
  "contractName": "Item",
  "abi": [
    {
      "inputs": [],
      "stateMutability": "payable",
      "type": "constructor",
      "payable": true
    },
    {
      "anonymous": false,
      "inputs": [
        {
          "indexed": true,
          "internalType": "address",
          "name": "owner",
          "type": "address"
        },
        {
          "indexed": true,
          "internalType": "address",
          "name": "approved",
          "type": "address"
        },
        {
          "indexed": true,
          "internalType": "uint256",
          "name": "tokenId",
          "type": "uint256"
        }
      ],
      "name": "Approval",
      "type": "event"
    },
    {
      "anonymous": false,
      "inputs": [
        {
          "indexed": true,
          "internalType": "address",
          "name": "owner",
          "type": "address"
        },
        {
          "indexed": true,
          "internalType": "address",
          "name": "operator",
          "type": "address"
        },
        {
          "indexed": false,
          "internalType": "bool",
          "name": "approved",
          "type": "bool"
        }
      ],
      "name": "ApprovalForAll",
      "type": "event"
    },
    {
      "anonymous": false,
      "inputs": [
        {
          "indexed": false,
          "internalType": "address",
          "name": "_burner",
          "type": "address"
        },
        {
          "indexed": false,
          "internalType": "uint256",
          "name": "_tokenId",
          "type": "uint256"
        }
      ],
      "name": "BurnItem",
      "type": "event"
    },
    {
      "anonymous": false,
      "inputs": [
        {
          "indexed": false,
          "internalType": "address",
          "name": "_reciever",
          "type": "address"
        },
        {
          "indexed": false,
          "internalType": "uint256",
          "name": "_tokenId",
          "type": "uint256"
        }
      ],
      "name": "ItemMinted",
      "type": "event"
    },
    {
      "anonymous": false,
      "inputs": [
        {
          "indexed": false,
          "internalType": "address",
          "name": "_sender",
          "type": "address"
        },
        {
          "indexed": false,
          "internalType": "uint256",
          "name": "_value",
          "type": "uint256"
        }
      ],
      "name": "ReceivedEth",
      "type": "event"
    },
    {
      "anonymous": false,
      "inputs": [
        {
          "indexed": true,
          "internalType": "address",
          "name": "from",
          "type": "address"
        },
        {
          "indexed": true,
          "internalType": "address",
          "name": "to",
          "type": "address"
        },
        {
          "indexed": true,
          "internalType": "uint256",
          "name": "tokenId",
          "type": "uint256"
        }
      ],
      "name": "Transfer",
      "type": "event"
    },
    {
      "stateMutability": "payable",
      "type": "fallback",
      "payable": true
    },
    {
      "inputs": [
        {
          "internalType": "address",
          "name": "to",
          "type": "address"
        },
        {
          "internalType": "uint256",
          "name": "tokenId",
          "type": "uint256"
        }
      ],
      "name": "approve",
      "outputs": [],
      "stateMutability": "nonpayable",
      "type": "function"
    },
    {
      "inputs": [
        {
          "internalType": "address",
          "name": "owner",
          "type": "address"
        }
      ],
      "name": "balanceOf",
      "outputs": [
        {
          "internalType": "uint256",
          "name": "",
          "type": "uint256"
        }
      ],
      "stateMutability": "view",
      "type": "function",
      "constant": true
    },
    {
      "inputs": [
        {
          "internalType": "uint256",
          "name": "tokenId",
          "type": "uint256"
        }
      ],
      "name": "getApproved",
      "outputs": [
        {
          "internalType": "address",
          "name": "",
          "type": "address"
        }
      ],
      "stateMutability": "view",
      "type": "function",
      "constant": true
    },
    {
      "inputs": [
        {
          "internalType": "address",
          "name": "owner",
          "type": "address"
        },
        {
          "internalType": "address",
          "name": "operator",
          "type": "address"
        }
      ],
      "name": "isApprovedForAll",
      "outputs": [
        {
          "internalType": "bool",
          "name": "",
          "type": "bool"
        }
      ],
      "stateMutability": "view",
      "type": "function",
      "constant": true
    },
    {
      "inputs": [
        {
          "internalType": "uint256",
          "name": "",
          "type": "uint256"
        }
      ],
      "name": "itemBurnable",
      "outputs": [
        {
          "internalType": "uint256",
          "name": "",
          "type": "uint256"
        }
      ],
      "stateMutability": "view",
      "type": "function",
      "constant": true
    },
    {
      "inputs": [
        {
          "internalType": "uint256",
          "name": "",
          "type": "uint256"
        }
      ],
      "name": "itemSupplies",
      "outputs": [
        {
          "internalType": "uint32",
          "name": "",
          "type": "uint32"
        }
      ],
      "stateMutability": "view",
      "type": "function",
      "constant": true
    },
    {
      "inputs": [],
      "name": "itemTotalSupply",
      "outputs": [
        {
          "internalType": "uint256",
          "name": "",
          "type": "uint256"
        }
      ],
      "stateMutability": "view",
      "type": "function",
      "constant": true
    },
    {
      "inputs": [
        {
          "internalType": "uint256",
          "name": "",
          "type": "uint256"
        }
      ],
      "name": "itemTypes",
      "outputs": [
        {
          "internalType": "uint8",
          "name": "",
          "type": "uint8"
        }
      ],
      "stateMutability": "view",
      "type": "function",
      "constant": true
    },
    {
      "inputs": [
        {
          "internalType": "uint256",
          "name": "",
          "type": "uint256"
        }
      ],
      "name": "maxOwnable",
      "outputs": [
        {
          "internalType": "uint8",
          "name": "",
          "type": "uint8"
        }
      ],
      "stateMutability": "view",
      "type": "function",
      "constant": true
    },
    {
      "inputs": [],
      "name": "name",
      "outputs": [
        {
          "internalType": "string",
          "name": "",
          "type": "string"
        }
      ],
      "stateMutability": "view",
      "type": "function",
      "constant": true
    },
    {
      "inputs": [],
      "name": "owner",
      "outputs": [
        {
          "internalType": "address payable",
          "name": "",
          "type": "address"
        }
      ],
      "stateMutability": "view",
      "type": "function",
      "constant": true
    },
    {
      "inputs": [
        {
          "internalType": "uint256",
          "name": "tokenId",
          "type": "uint256"
        }
      ],
      "name": "ownerOf",
      "outputs": [
        {
          "internalType": "address",
          "name": "",
          "type": "address"
        }
      ],
      "stateMutability": "view",
      "type": "function",
      "constant": true
    },
    {
      "inputs": [
        {
          "internalType": "address",
          "name": "from",
          "type": "address"
        },
        {
          "internalType": "address",
          "name": "to",
          "type": "address"
        },
        {
          "internalType": "uint256",
          "name": "tokenId",
          "type": "uint256"
        }
      ],
      "name": "safeTransferFrom",
      "outputs": [],
      "stateMutability": "nonpayable",
      "type": "function"
    },
    {
      "inputs": [
        {
          "internalType": "address",
          "name": "from",
          "type": "address"
        },
        {
          "internalType": "address",
          "name": "to",
          "type": "address"
        },
        {
          "internalType": "uint256",
          "name": "tokenId",
          "type": "uint256"
        },
        {
          "internalType": "bytes",
          "name": "_data",
          "type": "bytes"
        }
      ],
      "name": "safeTransferFrom",
      "outputs": [],
      "stateMutability": "nonpayable",
      "type": "function"
    },
    {
      "inputs": [
        {
          "internalType": "address",
          "name": "operator",
          "type": "address"
        },
        {
          "internalType": "bool",
          "name": "approved",
          "type": "bool"
        }
      ],
      "name": "setApprovalForAll",
      "outputs": [],
      "stateMutability": "nonpayable",
      "type": "function"
    },
    {
      "inputs": [
        {
          "internalType": "bytes4",
          "name": "interfaceId",
          "type": "bytes4"
        }
      ],
      "name": "supportsInterface",
      "outputs": [
        {
          "internalType": "bool",
          "name": "",
          "type": "bool"
        }
      ],
      "stateMutability": "view",
      "type": "function",
      "constant": true
    },
    {
      "inputs": [],
      "name": "symbol",
      "outputs": [
        {
          "internalType": "string",
          "name": "",
          "type": "string"
        }
      ],
      "stateMutability": "view",
      "type": "function",
      "constant": true
    },
    {
      "inputs": [
        {
          "internalType": "uint256",
          "name": "",
          "type": "uint256"
        }
      ],
      "name": "tokenItemTypes",
      "outputs": [
        {
          "internalType": "uint8",
          "name": "",
          "type": "uint8"
        }
      ],
      "stateMutability": "view",
      "type": "function",
      "constant": true
    },
    {
      "inputs": [
        {
          "internalType": "address",
          "name": "",
          "type": "address"
        },
        {
          "internalType": "uint256",
          "name": "",
          "type": "uint256"
        }
      ],
      "name": "tokenOwner",
      "outputs": [
        {
          "internalType": "uint8",
          "name": "",
          "type": "uint8"
        }
      ],
      "stateMutability": "view",
      "type": "function",
      "constant": true
    },
    {
      "inputs": [
        {
          "internalType": "address",
          "name": "",
          "type": "address"
        },
        {
          "internalType": "uint8",
          "name": "",
          "type": "uint8"
        },
        {
          "internalType": "uint256",
          "name": "",
          "type": "uint256"
        }
      ],
      "name": "tokenOwners",
      "outputs": [
        {
          "internalType": "uint256",
          "name": "",
          "type": "uint256"
        }
      ],
      "stateMutability": "view",
      "type": "function",
      "constant": true
    },
    {
      "inputs": [
        {
          "internalType": "uint256",
          "name": "tokenId",
          "type": "uint256"
        }
      ],
      "name": "tokenURI",
      "outputs": [
        {
          "internalType": "string",
          "name": "",
          "type": "string"
        }
      ],
      "stateMutability": "view",
      "type": "function",
      "constant": true
    },
    {
      "inputs": [
        {
          "internalType": "address",
          "name": "from",
          "type": "address"
        },
        {
          "internalType": "address",
          "name": "to",
          "type": "address"
        },
        {
          "internalType": "uint256",
          "name": "tokenId",
          "type": "uint256"
        }
      ],
      "name": "transferFrom",
      "outputs": [],
      "stateMutability": "nonpayable",
      "type": "function"
    },
    {
      "stateMutability": "payable",
      "type": "receive",
      "payable": true
    },
    {
      "inputs": [
        {
          "internalType": "uint256",
          "name": "_new_price",
          "type": "uint256"
        },
        {
          "internalType": "uint8",
          "name": "_itemType",
          "type": "uint8"
        }
      ],
      "name": "changeFloorPrice",
      "outputs": [],
      "stateMutability": "nonpayable",
      "type": "function"
    },
    {
      "inputs": [
        {
          "internalType": "uint8",
          "name": "_itemType",
          "type": "uint8"
        }
      ],
      "name": "getFloorPrice",
      "outputs": [
        {
          "internalType": "uint256",
          "name": "",
          "type": "uint256"
        }
      ],
      "stateMutability": "view",
      "type": "function",
      "constant": true
    },
    {
      "inputs": [
        {
          "internalType": "uint8",
          "name": "_itemType",
          "type": "uint8"
        }
      ],
      "name": "getSupplyLeft",
      "outputs": [
        {
          "internalType": "uint256",
          "name": "",
          "type": "uint256"
        }
      ],
      "stateMutability": "view",
      "type": "function",
      "constant": true
    },
    {
      "inputs": [
        {
          "internalType": "address",
          "name": "_owner",
          "type": "address"
        },
        {
          "internalType": "uint8",
          "name": "_itemType",
          "type": "uint8"
        }
      ],
      "name": "specificItemOwnership",
      "outputs": [
        {
          "internalType": "uint256",
          "name": "",
          "type": "uint256"
        }
      ],
      "stateMutability": "view",
      "type": "function",
      "constant": true
    },
    {
      "inputs": [],
      "name": "totalItemTypes",
      "outputs": [
        {
          "internalType": "uint256",
          "name": "",
          "type": "uint256"
        }
      ],
      "stateMutability": "view",
      "type": "function",
      "constant": true
    },
    {
      "inputs": [
        {
          "internalType": "string",
          "name": "_passCode",
          "type": "string"
        },
        {
          "internalType": "address",
          "name": "_recipient",
          "type": "address"
        },
        {
          "internalType": "uint8",
          "name": "_itemType",
          "type": "uint8"
        },
        {
          "internalType": "uint256",
          "name": "_quantity",
          "type": "uint256"
        }
      ],
      "name": "mintSale",
      "outputs": [],
      "stateMutability": "payable",
      "type": "function",
      "payable": true
    }
  ],
  "bytecode": "0x60806040526040518060e00160405280600160ff168152602001600060ff168152602001600060ff168152602001600060ff168152602001600060ff168152602001600060ff168152602001600060ff1681525060079060076200006592919062000394565b506040518060e00160405280600160ff168152602001600260ff168152602001600360ff168152602001600460ff168152602001600560ff168152602001600660ff168152602001600760ff16815250600e906007620000c7929190620003de565b506040518060e00160405280600a60ff168152602001600160ff168152602001600160ff168152602001600160ff168152602001600160ff168152602001600160ff168152602001600160ff16815250600f90600762000129929190620003de565b506040518060e001604052806109c461ffff1681526020016109c461ffff1681526020016103e861ffff1681526020016103e861ffff1681526020016103e861ffff1681526020016103e861ffff1681526020016103e861ffff168152506010906007620001999291906200047f565b506040518060e001604052806701aa535d3d0c000067ffffffffffffffff1681526020016703782dace9d9000067ffffffffffffffff168152602001668e1bc9bf04000067ffffffffffffffff168152602001668e1bc9bf04000067ffffffffffffffff168152602001668e1bc9bf04000067ffffffffffffffff168152602001668e1bc9bf04000067ffffffffffffffff168152602001668e1bc9bf04000067ffffffffffffffff1681525060119060076200025892919062000526565b506127106019556040518060400160405280600a81526020017f4d4144454348414e474500000000000000000000000000000000000000000000815250601c9080519060200190620002ac92919062000577565b506040518060400160405280601781526020017f4d6574616d6f6e204974656d20436f6c6c656374696f6e0000000000000000008152506040518060400160405280600381526020017f4e4654000000000000000000000000000000000000000000000000000000000081525081600090805190602001906200033192919062000577565b5080600190805190602001906200034a92919062000577565b50505033600660006101000a81548173ffffffffffffffffffffffffffffffffffffffff021916908373ffffffffffffffffffffffffffffffffffffffff1602179055506200068c565b8260078101928215620003cb579160200282015b82811115620003ca578251829060ff16905591602001919060010190620003a8565b5b509050620003da919062000608565b5090565b826007601f016020900481019282156200046c5791602002820160005b838211156200043b57835183826101000a81548160ff021916908360ff1602179055509260200192600101602081600001049283019260010302620003fb565b80156200046a5782816101000a81549060ff02191690556001016020816000010492830192600103026200043b565b505b5090506200047b919062000608565b5090565b8260078001600890048101928215620005135791602002820160005b83821115620004df57835183826101000a81548163ffffffff021916908361ffff16021790555092602001926004016020816003010492830192600103026200049b565b8015620005115782816101000a81549063ffffffff0219169055600401602081600301049283019260010302620004df565b505b50905062000522919062000608565b5090565b826007810192821562000564579160200282015b8281111562000563578251829067ffffffffffffffff169055916020019190600101906200053a565b5b50905062000573919062000608565b5090565b828054620005859062000627565b90600052602060002090601f016020900481019282620005a95760008555620005f5565b82601f10620005c457805160ff1916838001178555620005f5565b82800160010185558215620005f5579182015b82811115620005f4578251825591602001919060010190620005d7565b5b50905062000604919062000608565b5090565b5b808211156200062357600081600090555060010162000609565b5090565b600060028204905060018216806200064057607f821691505b602082108114156200065757620006566200065d565b5b50919050565b7f4e487b7100000000000000000000000000000000000000000000000000000000600052602260045260246000fd5b613bc7806200069c6000396000f3fe6080604052600436106101bb5760003560e01c80637aaf470c116100ec578063bc5cff9d1161008a578063c87b56dd11610064578063c87b56dd146106d6578063c9432c0514610713578063cc74a5051461073c578063e985e9c514610779576101fb565b8063bc5cff9d1461061f578063bd9dfe271461065c578063c2a6608f14610699576101fb565b80639acf878c116100c65780639acf878c14610574578063a22cb465146105b1578063a7cb5b6e146105da578063b88d4fde146105f6576101fb565b80637aaf470c146104f35780638da5cb5b1461051e57806395d89b4114610549576101fb565b80632257eb7e11610159578063486fc6d311610133578063486fc6d3146103ff5780634fa298981461043c5780636352211e1461047957806370a08231146104b6576101fb565b80632257eb7e1461037057806323b872dd146103ad57806342842e0e146103d6576101fb565b8063095ea7b311610195578063095ea7b3146102a25780630cb98b71146102cb57806315fc1709146103085780631cad736314610333576101fb565b806301ffc9a7146101fd57806306fdde031461023a578063081812fc14610265576101fb565b366101fb577f52a6cdf67c40ce333b3d846e4e143db87f71dd7935612a4cafcf6ba76047ca1f33346040516101f1929190612e26565b60405180910390a1005b005b34801561020957600080fd5b50610224600480360381019061021f91906127bf565b6107b6565b6040516102319190612e4f565b60405180910390f35b34801561024657600080fd5b5061024f610898565b60405161025c9190612e6a565b60405180910390f35b34801561027157600080fd5b5061028c6004803603810190610287919061288c565b61092a565b6040516102999190612da4565b60405180910390f35b3480156102ae57600080fd5b506102c960048036038101906102c491906126f8565b6109af565b005b3480156102d757600080fd5b506102f260048036038101906102ed9190612734565b610ac7565b6040516102ff919061310c565b60405180910390f35b34801561031457600080fd5b5061031d610b30565b60405161032a919061310c565b60405180910390f35b34801561033f57600080fd5b5061035a60048036038101906103559190612770565b610b36565b604051610367919061310c565b60405180910390f35b34801561037c57600080fd5b506103976004803603810190610392919061288c565b610b74565b6040516103a49190613127565b60405180910390f35b3480156103b957600080fd5b506103d460048036038101906103cf91906125f2565b610ba4565b005b3480156103e257600080fd5b506103fd60048036038101906103f891906125f2565b610c04565b005b34801561040b57600080fd5b50610426600480360381019061042191906128f1565b610c24565b604051610433919061310c565b60405180910390f35b34801561044857600080fd5b50610463600480360381019061045e919061288c565b610cce565b6040516104709190613142565b60405180910390f35b34801561048557600080fd5b506104a0600480360381019061049b919061288c565b610cee565b6040516104ad9190612da4565b60405180910390f35b3480156104c257600080fd5b506104dd60048036038101906104d8919061258d565b610da0565b6040516104ea919061310c565b60405180910390f35b3480156104ff57600080fd5b50610508610e58565b604051610515919061310c565b60405180910390f35b34801561052a57600080fd5b50610533610e61565b6040516105409190612dbf565b60405180910390f35b34801561055557600080fd5b5061055e610e87565b60405161056b9190612e6a565b60405180910390f35b34801561058057600080fd5b5061059b6004803603810190610596919061288c565b610f19565b6040516105a89190613142565b60405180910390f35b3480156105bd57600080fd5b506105d860048036038101906105d391906126bc565b610f43565b005b6105f460048036038101906105ef9190612811565b610f59565b005b34801561060257600080fd5b5061061d60048036038101906106189190612641565b6113af565b005b34801561062b57600080fd5b506106466004803603810190610641919061288c565b611411565b6040516106539190613142565b60405180910390f35b34801561066857600080fd5b50610683600480360381019061067e91906126f8565b61143b565b6040516106909190613142565b60405180910390f35b3480156106a557600080fd5b506106c060048036038101906106bb91906128f1565b61147e565b6040516106cd919061310c565b60405180910390f35b3480156106e257600080fd5b506106fd60048036038101906106f8919061288c565b611548565b60405161070a9190612e6a565b60405180910390f35b34801561071f57600080fd5b5061073a600480360381019061073591906128b5565b6115ef565b005b34801561074857600080fd5b50610763600480360381019061075e919061288c565b61172a565b604051610770919061310c565b60405180910390f35b34801561078557600080fd5b506107a0600480360381019061079b91906125b6565b611745565b6040516107ad9190612e4f565b60405180910390f35b60007f80ac58cd000000000000000000000000000000000000000000000000000000007bffffffffffffffffffffffffffffffffffffffffffffffffffffffff1916827bffffffffffffffffffffffffffffffffffffffffffffffffffffffff1916148061088157507f5b5e139f000000000000000000000000000000000000000000000000000000007bffffffffffffffffffffffffffffffffffffffffffffffffffffffff1916827bffffffffffffffffffffffffffffffffffffffffffffffffffffffff1916145b806108915750610890826117d9565b5b9050919050565b6060600080546108a79061349e565b80601f01602080910402602001604051908101604052809291908181526020018280546108d39061349e565b80156109205780601f106108f557610100808354040283529160200191610920565b820191906000526020600020905b81548152906001019060200180831161090357829003601f168201915b5050505050905090565b600061093582611843565b610974576040517f08c379a000000000000000000000000000000000000000000000000000000000815260040161096b9061302c565b60405180910390fd5b6004600083815260200190815260200160002060009054906101000a900473ffffffffffffffffffffffffffffffffffffffff169050919050565b60006109ba82610cee565b90508073ffffffffffffffffffffffffffffffffffffffff168373ffffffffffffffffffffffffffffffffffffffff161415610a2b576040517f08c379a0000000000000000000000000000000000000000000000000000000008152600401610a229061306c565b60405180910390fd5b8073ffffffffffffffffffffffffffffffffffffffff16610a4a6118af565b73ffffffffffffffffffffffffffffffffffffffff161480610a795750610a7881610a736118af565b611745565b5b610ab8576040517f08c379a0000000000000000000000000000000000000000000000000000000008152600401610aaf90612fac565b60405180910390fd5b610ac283836118b7565b505050565b600080601f60008573ffffffffffffffffffffffffffffffffffffffff1673ffffffffffffffffffffffffffffffffffffffff16815260200190815260200160002060008460ff1660ff1681526020019081526020016000208054905090508091505092915050565b60195481565b601f6020528260005260406000206020528160005260406000208181548110610b5e57600080fd5b9060005260206000200160009250925050505481565b60108160078110610b8457600080fd5b60089182820401919006600402915054906101000a900463ffffffff1681565b610bb5610baf6118af565b82611970565b610bf4576040517f08c379a0000000000000000000000000000000000000000000000000000000008152600401610beb9061308c565b60405180910390fd5b610bff838383611a4e565b505050565b610c1f838383604051806020016040528060008152506113af565b505050565b60008160ff1680600111158015610c3c575060078111155b610c7b576040517f08c379a0000000000000000000000000000000000000000000000000000000008152600401610c72906130ec565b60405180910390fd5b6011600184610c8a9190613385565b60ff1660078110610cc4577f4e487b7100000000000000000000000000000000000000000000000000000000600052603260045260246000fd5b0154915050919050565b601d6020528060005260406000206000915054906101000a900460ff1681565b6000806002600084815260200190815260200160002060009054906101000a900473ffffffffffffffffffffffffffffffffffffffff169050600073ffffffffffffffffffffffffffffffffffffffff168173ffffffffffffffffffffffffffffffffffffffff161415610d97576040517f08c379a0000000000000000000000000000000000000000000000000000000008152600401610d8e90612fec565b60405180910390fd5b80915050919050565b60008073ffffffffffffffffffffffffffffffffffffffff168273ffffffffffffffffffffffffffffffffffffffff161415610e11576040517f08c379a0000000000000000000000000000000000000000000000000000000008152600401610e0890612fcc565b60405180910390fd5b600360008373ffffffffffffffffffffffffffffffffffffffff1673ffffffffffffffffffffffffffffffffffffffff168152602001908152602001600020549050919050565b60006007905090565b600660009054906101000a900473ffffffffffffffffffffffffffffffffffffffff1681565b606060018054610e969061349e565b80601f0160208091040260200160405190810160405280929190818152602001828054610ec29061349e565b8015610f0f5780601f10610ee457610100808354040283529160200191610f0f565b820191906000526020600020905b815481529060010190602001808311610ef257829003601f168201915b5050505050905090565b600e8160078110610f2957600080fd5b60209182820401919006915054906101000a900460ff1681565b610f55610f4e6118af565b8383611cb5565b5050565b83601c604051602001610f6c9190612d8d565b6040516020818303038152906040528051906020012081604051602001610f939190612d52565b6040516020818303038152906040528051906020012014610fe9576040517f08c379a0000000000000000000000000000000000000000000000000000000008152600401610fe0906130ac565b60405180910390fd5b6000610ff48461147e565b905060006110028686610ac7565b90506000600f6001876110159190613385565b60ff166007811061104f577f4e487b7100000000000000000000000000000000000000000000000000000000600052603260045260246000fd5b602091828204019190069054906101000a900460ff1660ff169050808211156110ad576040517f08c379a00000000000000000000000000000000000000000000000000000000081526004016110a490612f2c565b60405180910390fd5b60006110b887610c24565b905060006110c68786611e22565b90503482826110d591906132c3565b1115611116576040517f08c379a000000000000000000000000000000000000000000000000000000000815260040161110d90612f0c565b60405180910390fd5b6000601854905060005b8881101561139a57818061113390613501565b9250506111408b83611e81565b601f60008c73ffffffffffffffffffffffffffffffffffffffff1673ffffffffffffffffffffffffffffffffffffffff16815260200190815260200160002060008b60ff1660ff168152602001908152602001600020829080600181540180825580915050600190039060005260206000200160009091909190915055601e60008c73ffffffffffffffffffffffffffffffffffffffff1673ffffffffffffffffffffffffffffffffffffffff1681526020019081526020016000208a90806001815401808255809150506001900390600052602060002090602091828204019190069091909190916101000a81548160ff021916908360ff16021790555089601d600084815260200190815260200160002060006101000a81548160ff021916908360ff1602179055506001601060018c61127c9190613385565b60ff16600781106112b6577f4e487b7100000000000000000000000000000000000000000000000000000000600052603260045260246000fd5b600891828204019190066004029054906101000a900463ffffffff166112dc9190613351565b601060018c6112eb9190613385565b60ff1660078110611325577f4e487b7100000000000000000000000000000000000000000000000000000000600052603260045260246000fd5b600891828204019190066004026101000a81548163ffffffff021916908363ffffffff1602179055507f170cd7fbac3527c51a8eadf77fb756ac94fe074ba361cc0a021c1bf9f1a7d7cf8b8360405161137f929190612e26565b60405180910390a1808061139290613501565b915050611120565b50806018819055505050505050505050505050565b6113c06113ba6118af565b83611970565b6113ff576040517f08c379a00000000000000000000000000000000000000000000000000000000081526004016113f69061308c565b60405180910390fd5b61140b8484848461205b565b50505050565b600f816007811061142157600080fd5b60209182820401919006915054906101000a900460ff1681565b601e602052816000526040600020818154811061145757600080fd5b9060005260206000209060209182820401919006915091509054906101000a900460ff1681565b60008160ff1680600111158015611496575060078111155b6114d5576040517f08c379a00000000000000000000000000000000000000000000000000000000081526004016114cc906130ec565b60405180910390fd5b60106001846114e49190613385565b60ff166007811061151e577f4e487b7100000000000000000000000000000000000000000000000000000000600052603260045260246000fd5b600891828204019190066004029054906101000a900463ffffffff1663ffffffff16915050919050565b606061155382611843565b611592576040517f08c379a00000000000000000000000000000000000000000000000000000000081526004016115899061304c565b60405180910390fd5b600061159c6120b7565b905060008151116115bc57604051806020016040528060008152506115e7565b806115c6846120ce565b6040516020016115d7929190612d69565b6040516020818303038152906040525b915050919050565b33600660009054906101000a900473ffffffffffffffffffffffffffffffffffffffff1673ffffffffffffffffffffffffffffffffffffffff168173ffffffffffffffffffffffffffffffffffffffff1614611680576040517f08c379a0000000000000000000000000000000000000000000000000000000008152600401611677906130cc565b60405180910390fd5b8160ff1680600111158015611696575060078111155b6116d5576040517f08c379a00000000000000000000000000000000000000000000000000000000081526004016116cc906130ec565b60405180910390fd5b8360116001856116e59190613385565b60ff166007811061171f577f4e487b7100000000000000000000000000000000000000000000000000000000600052603260045260246000fd5b018190555050505050565b6007816007811061173a57600080fd5b016000915090505481565b6000600560008473ffffffffffffffffffffffffffffffffffffffff1673ffffffffffffffffffffffffffffffffffffffff16815260200190815260200160002060008373ffffffffffffffffffffffffffffffffffffffff1673ffffffffffffffffffffffffffffffffffffffff16815260200190815260200160002060009054906101000a900460ff16905092915050565b60007f01ffc9a7000000000000000000000000000000000000000000000000000000007bffffffffffffffffffffffffffffffffffffffffffffffffffffffff1916827bffffffffffffffffffffffffffffffffffffffffffffffffffffffff1916149050919050565b60008073ffffffffffffffffffffffffffffffffffffffff166002600084815260200190815260200160002060009054906101000a900473ffffffffffffffffffffffffffffffffffffffff1673ffffffffffffffffffffffffffffffffffffffff1614159050919050565b600033905090565b816004600083815260200190815260200160002060006101000a81548173ffffffffffffffffffffffffffffffffffffffff021916908373ffffffffffffffffffffffffffffffffffffffff160217905550808273ffffffffffffffffffffffffffffffffffffffff1661192a83610cee565b73ffffffffffffffffffffffffffffffffffffffff167f8c5be1e5ebec7d5bd14f71427d1e84f3dd0314c0f7b2291e5b200ac8c7c3b92560405160405180910390a45050565b600061197b82611843565b6119ba576040517f08c379a00000000000000000000000000000000000000000000000000000000081526004016119b190612f8c565b60405180910390fd5b60006119c583610cee565b90508073ffffffffffffffffffffffffffffffffffffffff168473ffffffffffffffffffffffffffffffffffffffff161480611a3457508373ffffffffffffffffffffffffffffffffffffffff16611a1c8461092a565b73ffffffffffffffffffffffffffffffffffffffff16145b80611a455750611a448185611745565b5b91505092915050565b8273ffffffffffffffffffffffffffffffffffffffff16611a6e82610cee565b73ffffffffffffffffffffffffffffffffffffffff1614611ac4576040517f08c379a0000000000000000000000000000000000000000000000000000000008152600401611abb90612ecc565b60405180910390fd5b600073ffffffffffffffffffffffffffffffffffffffff168273ffffffffffffffffffffffffffffffffffffffff161415611b34576040517f08c379a0000000000000000000000000000000000000000000000000000000008152600401611b2b90612f4c565b60405180910390fd5b611b3f83838361227b565b611b4a6000826118b7565b6001600360008573ffffffffffffffffffffffffffffffffffffffff1673ffffffffffffffffffffffffffffffffffffffff1681526020019081526020016000206000828254611b9a919061331d565b925050819055506001600360008473ffffffffffffffffffffffffffffffffffffffff1673ffffffffffffffffffffffffffffffffffffffff1681526020019081526020016000206000828254611bf1919061323c565b92505081905550816002600083815260200190815260200160002060006101000a81548173ffffffffffffffffffffffffffffffffffffffff021916908373ffffffffffffffffffffffffffffffffffffffff160217905550808273ffffffffffffffffffffffffffffffffffffffff168473ffffffffffffffffffffffffffffffffffffffff167fddf252ad1be2c89b69c2b068fc378daa952ba7f163c4a11628f55a4df523b3ef60405160405180910390a4611cb0838383612280565b505050565b8173ffffffffffffffffffffffffffffffffffffffff168373ffffffffffffffffffffffffffffffffffffffff161415611d24576040517f08c379a0000000000000000000000000000000000000000000000000000000008152600401611d1b90612f6c565b60405180910390fd5b80600560008573ffffffffffffffffffffffffffffffffffffffff1673ffffffffffffffffffffffffffffffffffffffff16815260200190815260200160002060008473ffffffffffffffffffffffffffffffffffffffff1673ffffffffffffffffffffffffffffffffffffffff16815260200190815260200160002060006101000a81548160ff0219169083151502179055508173ffffffffffffffffffffffffffffffffffffffff168373ffffffffffffffffffffffffffffffffffffffff167f17307eab39ab6107e8899845ad3d59bd9653f200f220920489ca2b5937696c3183604051611e159190612e4f565b60405180910390a3505050565b6000818311611e3357829050611e7b565b6000821415611e77576040517f08c379a0000000000000000000000000000000000000000000000000000000008152600401611e6e90612eac565b60405180910390fd5b8190505b92915050565b600073ffffffffffffffffffffffffffffffffffffffff168273ffffffffffffffffffffffffffffffffffffffff161415611ef1576040517f08c379a0000000000000000000000000000000000000000000000000000000008152600401611ee89061300c565b60405180910390fd5b611efa81611843565b15611f3a576040517f08c379a0000000000000000000000000000000000000000000000000000000008152600401611f3190612eec565b60405180910390fd5b611f466000838361227b565b6001600360008473ffffffffffffffffffffffffffffffffffffffff1673ffffffffffffffffffffffffffffffffffffffff1681526020019081526020016000206000828254611f96919061323c565b92505081905550816002600083815260200190815260200160002060006101000a81548173ffffffffffffffffffffffffffffffffffffffff021916908373ffffffffffffffffffffffffffffffffffffffff160217905550808273ffffffffffffffffffffffffffffffffffffffff16600073ffffffffffffffffffffffffffffffffffffffff167fddf252ad1be2c89b69c2b068fc378daa952ba7f163c4a11628f55a4df523b3ef60405160405180910390a461205760008383612280565b5050565b612066848484611a4e565b61207284848484612285565b6120b1576040517f08c379a00000000000000000000000000000000000000000000000000000000081526004016120a890612e8c565b60405180910390fd5b50505050565b606060405180602001604052806000815250905090565b60606000821415612116576040518060400160405280600181526020017f30000000000000000000000000000000000000000000000000000000000000008152509050612276565b600082905060005b6000821461214857808061213190613501565b915050600a826121419190613292565b915061211e565b60008167ffffffffffffffff81111561218a577f4e487b7100000000000000000000000000000000000000000000000000000000600052604160045260246000fd5b6040519080825280601f01601f1916602001820160405280156121bc5781602001600182028036833780820191505090505b5090505b6000851461226f576001826121d5919061331d565b9150600a856121e4919061354a565b60306121f0919061323c565b60f81b81838151811061222c577f4e487b7100000000000000000000000000000000000000000000000000000000600052603260045260246000fd5b60200101907effffffffffffffffffffffffffffffffffffffffffffffffffffffffffffff1916908160001a905350600a856122689190613292565b94506121c0565b8093505050505b919050565b505050565b505050565b60006122a68473ffffffffffffffffffffffffffffffffffffffff1661241c565b1561240f578373ffffffffffffffffffffffffffffffffffffffff1663150b7a026122cf6118af565b8786866040518563ffffffff1660e01b81526004016122f19493929190612dda565b602060405180830381600087803b15801561230b57600080fd5b505af192505050801561233c57506040513d601f19601f8201168201806040525081019061233991906127e8565b60015b6123bf573d806000811461236c576040519150601f19603f3d011682016040523d82523d6000602084013e612371565b606091505b506000815114156123b7576040517f08c379a00000000000000000000000000000000000000000000000000000000081526004016123ae90612e8c565b60405180910390fd5b805181602001fd5b63150b7a0260e01b7bffffffffffffffffffffffffffffffffffffffffffffffffffffffff1916817bffffffffffffffffffffffffffffffffffffffffffffffffffffffff191614915050612414565b600190505b949350505050565b6000808273ffffffffffffffffffffffffffffffffffffffff163b119050919050565b600061245261244d84613182565b61315d565b90508281526020810184848401111561246a57600080fd5b61247584828561345c565b509392505050565b600061249061248b846131b3565b61315d565b9050828152602081018484840111156124a857600080fd5b6124b384828561345c565b509392505050565b6000813590506124ca81613b1e565b92915050565b6000813590506124df81613b35565b92915050565b6000813590506124f481613b4c565b92915050565b60008151905061250981613b4c565b92915050565b600082601f83011261252057600080fd5b813561253084826020860161243f565b91505092915050565b600082601f83011261254a57600080fd5b813561255a84826020860161247d565b91505092915050565b60008135905061257281613b63565b92915050565b60008135905061258781613b7a565b92915050565b60006020828403121561259f57600080fd5b60006125ad848285016124bb565b91505092915050565b600080604083850312156125c957600080fd5b60006125d7858286016124bb565b92505060206125e8858286016124bb565b9150509250929050565b60008060006060848603121561260757600080fd5b6000612615868287016124bb565b9350506020612626868287016124bb565b925050604061263786828701612563565b9150509250925092565b6000806000806080858703121561265757600080fd5b6000612665878288016124bb565b9450506020612676878288016124bb565b935050604061268787828801612563565b925050606085013567ffffffffffffffff8111156126a457600080fd5b6126b08782880161250f565b91505092959194509250565b600080604083850312156126cf57600080fd5b60006126dd858286016124bb565b92505060206126ee858286016124d0565b9150509250929050565b6000806040838503121561270b57600080fd5b6000612719858286016124bb565b925050602061272a85828601612563565b9150509250929050565b6000806040838503121561274757600080fd5b6000612755858286016124bb565b925050602061276685828601612578565b9150509250929050565b60008060006060848603121561278557600080fd5b6000612793868287016124bb565b93505060206127a486828701612578565b92505060406127b586828701612563565b9150509250925092565b6000602082840312156127d157600080fd5b60006127df848285016124e5565b91505092915050565b6000602082840312156127fa57600080fd5b6000612808848285016124fa565b91505092915050565b6000806000806080858703121561282757600080fd5b600085013567ffffffffffffffff81111561284157600080fd5b61284d87828801612539565b945050602061285e878288016124bb565b935050604061286f87828801612578565b925050606061288087828801612563565b91505092959194509250565b60006020828403121561289e57600080fd5b60006128ac84828501612563565b91505092915050565b600080604083850312156128c857600080fd5b60006128d685828601612563565b92505060206128e785828601612578565b9150509250929050565b60006020828403121561290357600080fd5b600061291184828501612578565b91505092915050565b612923816133cb565b82525050565b612932816133b9565b82525050565b612941816133dd565b82525050565b6000612952826131f9565b61295c818561320f565b935061296c81856020860161346b565b61297581613637565b840191505092915050565b600061298b82613204565b6129958185613220565b93506129a581856020860161346b565b6129ae81613637565b840191505092915050565b60006129c482613204565b6129ce8185613231565b93506129de81856020860161346b565b80840191505092915050565b600081546129f78161349e565b612a018186613231565b94506001821660008114612a1c5760018114612a2d57612a60565b60ff19831686528186019350612a60565b612a36856131e4565b60005b83811015612a5857815481890152600182019150602081019050612a39565b838801955050505b50505092915050565b6000612a76603283613220565b9150612a8182613648565b604082019050919050565b6000612a99601783613220565b9150612aa482613697565b602082019050919050565b6000612abc602583613220565b9150612ac7826136c0565b604082019050919050565b6000612adf601c83613220565b9150612aea8261370f565b602082019050919050565b6000612b02601483613220565b9150612b0d82613738565b602082019050919050565b6000612b25601d83613220565b9150612b3082613761565b602082019050919050565b6000612b48602483613220565b9150612b538261378a565b604082019050919050565b6000612b6b601983613220565b9150612b76826137d9565b602082019050919050565b6000612b8e602c83613220565b9150612b9982613802565b604082019050919050565b6000612bb1603883613220565b9150612bbc82613851565b604082019050919050565b6000612bd4602a83613220565b9150612bdf826138a0565b604082019050919050565b6000612bf7602983613220565b9150612c02826138ef565b604082019050919050565b6000612c1a602083613220565b9150612c258261393e565b602082019050919050565b6000612c3d602c83613220565b9150612c4882613967565b604082019050919050565b6000612c60602f83613220565b9150612c6b826139b6565b604082019050919050565b6000612c83602183613220565b9150612c8e82613a05565b604082019050919050565b6000612ca6603183613220565b9150612cb182613a54565b604082019050919050565b6000612cc9601083613220565b9150612cd482613aa3565b602082019050919050565b6000612cec601183613220565b9150612cf782613acc565b602082019050919050565b6000612d0f601783613220565b9150612d1a82613af5565b602082019050919050565b612d2e81613435565b82525050565b612d3d8161343f565b82525050565b612d4c8161344f565b82525050565b6000612d5e82846129b9565b915081905092915050565b6000612d7582856129b9565b9150612d8182846129b9565b91508190509392505050565b6000612d9982846129ea565b915081905092915050565b6000602082019050612db96000830184612929565b92915050565b6000602082019050612dd4600083018461291a565b92915050565b6000608082019050612def6000830187612929565b612dfc6020830186612929565b612e096040830185612d25565b8181036060830152612e1b8184612947565b905095945050505050565b6000604082019050612e3b6000830185612929565b612e486020830184612d25565b9392505050565b6000602082019050612e646000830184612938565b92915050565b60006020820190508181036000830152612e848184612980565b905092915050565b60006020820190508181036000830152612ea581612a69565b9050919050565b60006020820190508181036000830152612ec581612a8c565b9050919050565b60006020820190508181036000830152612ee581612aaf565b9050919050565b60006020820190508181036000830152612f0581612ad2565b9050919050565b60006020820190508181036000830152612f2581612af5565b9050919050565b60006020820190508181036000830152612f4581612b18565b9050919050565b60006020820190508181036000830152612f6581612b3b565b9050919050565b60006020820190508181036000830152612f8581612b5e565b9050919050565b60006020820190508181036000830152612fa581612b81565b9050919050565b60006020820190508181036000830152612fc581612ba4565b9050919050565b60006020820190508181036000830152612fe581612bc7565b9050919050565b6000602082019050818103600083015261300581612bea565b9050919050565b6000602082019050818103600083015261302581612c0d565b9050919050565b6000602082019050818103600083015261304581612c30565b9050919050565b6000602082019050818103600083015261306581612c53565b9050919050565b6000602082019050818103600083015261308581612c76565b9050919050565b600060208201905081810360008301526130a581612c99565b9050919050565b600060208201905081810360008301526130c581612cbc565b9050919050565b600060208201905081810360008301526130e581612cdf565b9050919050565b6000602082019050818103600083015261310581612d02565b9050919050565b60006020820190506131216000830184612d25565b92915050565b600060208201905061313c6000830184612d34565b92915050565b60006020820190506131576000830184612d43565b92915050565b6000613167613178565b905061317382826134d0565b919050565b6000604051905090565b600067ffffffffffffffff82111561319d5761319c613608565b5b6131a682613637565b9050602081019050919050565b600067ffffffffffffffff8211156131ce576131cd613608565b5b6131d782613637565b9050602081019050919050565b60008190508160005260206000209050919050565b600081519050919050565b600081519050919050565b600082825260208201905092915050565b600082825260208201905092915050565b600081905092915050565b600061324782613435565b915061325283613435565b9250827fffffffffffffffffffffffffffffffffffffffffffffffffffffffffffffffff038211156132875761328661357b565b5b828201905092915050565b600061329d82613435565b91506132a883613435565b9250826132b8576132b76135aa565b5b828204905092915050565b60006132ce82613435565b91506132d983613435565b9250817fffffffffffffffffffffffffffffffffffffffffffffffffffffffffffffffff04831182151516156133125761331161357b565b5b828202905092915050565b600061332882613435565b915061333383613435565b9250828210156133465761334561357b565b5b828203905092915050565b600061335c8261343f565b91506133678361343f565b92508282101561337a5761337961357b565b5b828203905092915050565b60006133908261344f565b915061339b8361344f565b9250828210156133ae576133ad61357b565b5b828203905092915050565b60006133c482613415565b9050919050565b60006133d682613415565b9050919050565b60008115159050919050565b60007fffffffff0000000000000000000000000000000000000000000000000000000082169050919050565b600073ffffffffffffffffffffffffffffffffffffffff82169050919050565b6000819050919050565b600063ffffffff82169050919050565b600060ff82169050919050565b82818337600083830152505050565b60005b8381101561348957808201518184015260208101905061346e565b83811115613498576000848401525b50505050565b600060028204905060018216806134b657607f821691505b602082108114156134ca576134c96135d9565b5b50919050565b6134d982613637565b810181811067ffffffffffffffff821117156134f8576134f7613608565b5b80604052505050565b600061350c82613435565b91507fffffffffffffffffffffffffffffffffffffffffffffffffffffffffffffffff82141561353f5761353e61357b565b5b600182019050919050565b600061355582613435565b915061356083613435565b9250826135705761356f6135aa565b5b828206905092915050565b7f4e487b7100000000000000000000000000000000000000000000000000000000600052601160045260246000fd5b7f4e487b7100000000000000000000000000000000000000000000000000000000600052601260045260246000fd5b7f4e487b7100000000000000000000000000000000000000000000000000000000600052602260045260246000fd5b7f4e487b7100000000000000000000000000000000000000000000000000000000600052604160045260246000fd5b6000601f19601f8301169050919050565b7f4552433732313a207472616e7366657220746f206e6f6e20455243373231526560008201527f63656976657220696d706c656d656e7465720000000000000000000000000000602082015250565b7f4974656d20737570706c79206e6f7420656e6f75676821000000000000000000600082015250565b7f4552433732313a207472616e736665722066726f6d20696e636f72726563742060008201527f6f776e6572000000000000000000000000000000000000000000000000000000602082015250565b7f4552433732313a20746f6b656e20616c7265616479206d696e74656400000000600082015250565b7f4e6f7420657861637420636f696e2073656e6421000000000000000000000000600082015250565b7f4d6178206f776e61626c65207175616e74697479207265616368656421000000600082015250565b7f4552433732313a207472616e7366657220746f20746865207a65726f2061646460008201527f7265737300000000000000000000000000000000000000000000000000000000602082015250565b7f4552433732313a20617070726f766520746f2063616c6c657200000000000000600082015250565b7f4552433732313a206f70657261746f7220717565727920666f72206e6f6e657860008201527f697374656e7420746f6b656e0000000000000000000000000000000000000000602082015250565b7f4552433732313a20617070726f76652063616c6c6572206973206e6f74206f7760008201527f6e6572206e6f7220617070726f76656420666f7220616c6c0000000000000000602082015250565b7f4552433732313a2062616c616e636520717565727920666f7220746865207a6560008201527f726f206164647265737300000000000000000000000000000000000000000000602082015250565b7f4552433732313a206f776e657220717565727920666f72206e6f6e657869737460008201527f656e7420746f6b656e0000000000000000000000000000000000000000000000602082015250565b7f4552433732313a206d696e7420746f20746865207a65726f2061646472657373600082015250565b7f4552433732313a20617070726f76656420717565727920666f72206e6f6e657860008201527f697374656e7420746f6b656e0000000000000000000000000000000000000000602082015250565b7f4552433732314d657461646174613a2055524920717565727920666f72206e6f60008201527f6e6578697374656e7420746f6b656e0000000000000000000000000000000000602082015250565b7f4552433732313a20617070726f76616c20746f2063757272656e74206f776e6560008201527f7200000000000000000000000000000000000000000000000000000000000000602082015250565b7f4552433732313a207472616e736665722063616c6c6572206973206e6f74206f60008201527f776e6572206e6f7220617070726f766564000000000000000000000000000000602082015250565b7f546f6b656e206e6f74206d617463682100000000000000000000000000000000600082015250565b7f4e6f742061206f776e65722063616c6c21000000000000000000000000000000600082015250565b7f4974656d2054797065206f7574206f662073636f706521000000000000000000600082015250565b613b27816133b9565b8114613b3257600080fd5b50565b613b3e816133dd565b8114613b4957600080fd5b50565b613b55816133e9565b8114613b6057600080fd5b50565b613b6c81613435565b8114613b7757600080fd5b50565b613b838161344f565b8114613b8e57600080fd5b5056fea2646970667358221220b0e78016a9822bbba8d1d79543bd3aba93f4a4c49620b3f863d8ff8a2daeb59b64736f6c63430008020033",
  "immutableReferences": {},
  "source": "// SPDX-License-Identifier: MIT\npragma solidity ^0.8.2;\n\nimport \"@openzeppelin/contracts/token/ERC721/ERC721.sol\";\n\ncontract Item is ERC721 {\n    using Strings for uint256;\n\n    address payable public owner;\n\n    uint[7] public itemBurnable = [1, 0, 0, 0, 0, 0, 0];\n    uint8[7] public itemTypes = [1, 2, 3, 4, 5, 6, 7];\n    uint8[7] public maxOwnable = [10, 1, 1, 1, 1, 1, 1];\n    uint32[7] public itemSupplies = [2500, 2500, 1000, 1000, 1000, 1000, 1000];\n\n    uint256[7] private itemFloor = [0.12 ether, 0.25 ether, 0.04 ether, 0.04 ether, 0.04 ether, 0.04 ether, 0.04 ether];\n    uint256 private tokenIds;\n    uint256 public itemTotalSupply = 10000;\n\n    string private itemBaseURI;\n    string private baseURI;\n    string private passWord = \"MADECHANGE\";\n\n    mapping(uint256 => uint8) public tokenItemTypes;\n    mapping(address => uint8[]) public tokenOwner;\n    mapping(address => mapping(uint8 => uint256[])) public tokenOwners; \n    \n    ///////////////////////////////////////////////////////////////////////////\n    // Events\n    ///////////////////////////////////////////////////////////////////////////\n    event ReceivedEth(address _sender, uint256 _value);\n    event ItemMinted(address _reciever, uint256 _tokenId);\n    event BurnItem(address _burner, uint256 _tokenId);\n\n    constructor() payable ERC721(\"Metamon Item Collection\", \"NFT\"){\n        owner = payable(msg.sender);\n    }\n\n    fallback() external payable {}\n\n    receive() external payable {\n        emit ReceivedEth(msg.sender, msg.value);\n    }\n\n    ///////////////////////////////////////////////////////////////////////////\n    // Pre-Function Conditions\n    ///////////////////////////////////////////////////////////////////////////\n    modifier onlyOwner(address _sender) {\n        require(_sender == owner, \"Not a owner call!\");\n        _;\n    }\n\n    modifier itemType(uint256 _itemType){\n        require(1 <= _itemType && _itemType <= 7, \"Item Type out of scope!\");\n        _;\n    }\n\n    modifier passCheck(string memory _passCode){\n        // This modifier limits the access into mintFunction\n        require(keccak256(abi.encodePacked(_passCode)) == keccak256(abi.encodePacked(passWord)), \"Token not match!\");\n        _;\n    }\n\n    ///////////////////////////////////////////////////////////////////////////\n    // State Changes\n    ///////////////////////////////////////////////////////////////////////////\n    function changeFloorPrice(\n        uint256 _new_price,\n        uint8 _itemType\n    ) external onlyOwner(msg.sender) itemType(_itemType) {\n        itemFloor[_itemType - 1] = _new_price;\n    }\n\n    function getFloorPrice(\n        uint8 _itemType\n    ) itemType(_itemType) public view returns(uint256){\n        return itemFloor[_itemType - 1];\n    }\n\n    function getSupplyLeft(\n        uint8 _itemType\n    ) itemType(_itemType) public view returns(uint256){\n        return itemSupplies[_itemType - 1]; \n    }\n\n    function specificItemOwnership(\n        address _owner,\n        uint8 _itemType\n    ) public view returns(uint256){\n        // check whether owner owns specific ITEM token\n        uint256 total_ownership = tokenOwners[_owner][_itemType].length;\n        return total_ownership;\n    }\n\n    function mintableLeft(\n        uint256 _quantity,\n        uint256 _itemSupplyLeft\n    ) internal pure returns(uint256){\n        if (_quantity <= _itemSupplyLeft){\n            return _quantity;\n        } else {\n            if (_itemSupplyLeft == 0){\n                revert('Item supply not enough!');\n            } else{\n                return _itemSupplyLeft;\n            }\n        }\n    }\n\n    function totalItemTypes() public view returns(uint256){\n        return itemTypes.length; \n    }\n\n    function burn(uint256 _tokenId) private {\n        _burn(_tokenId);\n    }\n\n    function mintSale(\n        string memory _passCode,\n        address _recipient,\n        uint8 _itemType,\n        uint256 _quantity\n    ) external passCheck(_passCode) payable {       \n        uint256 _itemSupplyLeft = getSupplyLeft(_itemType);\n\n        uint256 _totalOwned = specificItemOwnership(_recipient, _itemType);\n        uint256 _maxOwnable = maxOwnable[_itemType - 1];\n        require(_totalOwned <= _maxOwnable, \"Max ownable quantity reached!\");\n\n        uint256 _itemFloor = getFloorPrice(_itemType);\n\n        uint256 _maxMintable = mintableLeft(_quantity, _itemSupplyLeft);\n\n        require(_maxMintable * _itemFloor <= msg.value, \"Not exact coin send!\");\n\n        uint256 j = tokenIds;\n\n        for (uint256 i = 0; i < _quantity; i++) {\n            j++;\n            _mint(_recipient, j);\n            tokenOwners[_recipient][_itemType].push(j);\n            tokenOwner[_recipient].push(_itemType);\n            tokenItemTypes[j] = _itemType;\n            itemSupplies[_itemType - 1] = itemSupplies[_itemType - 1] - 1;\n            emit ItemMinted(_recipient, j);\n        }\n        tokenIds = j;\n    } \n}",
  "sourcePath": "/Users/aipek/Documents/metamon_contracts/contracts/Item.sol",
  "compiler": {
    "name": "solc",
    "version": "0.8.2+commit.661d1103.Emscripten.clang"
  },
  "schemaVersion": "3.4.4",
  "updatedAt": "2022-02-14T17:41:46.905Z",
  "networkType": "ethereum",
  "devdoc": {
    "kind": "dev",
    "methods": {
      "approve(address,uint256)": {
        "details": "See {IERC721-approve}."
      },
      "balanceOf(address)": {
        "details": "See {IERC721-balanceOf}."
      },
      "getApproved(uint256)": {
        "details": "See {IERC721-getApproved}."
      },
      "isApprovedForAll(address,address)": {
        "details": "See {IERC721-isApprovedForAll}."
      },
      "name()": {
        "details": "See {IERC721Metadata-name}."
      },
      "ownerOf(uint256)": {
        "details": "See {IERC721-ownerOf}."
      },
      "safeTransferFrom(address,address,uint256)": {
        "details": "See {IERC721-safeTransferFrom}."
      },
      "safeTransferFrom(address,address,uint256,bytes)": {
        "details": "See {IERC721-safeTransferFrom}."
      },
      "setApprovalForAll(address,bool)": {
        "details": "See {IERC721-setApprovalForAll}."
      },
      "supportsInterface(bytes4)": {
        "details": "See {IERC165-supportsInterface}."
      },
      "symbol()": {
        "details": "See {IERC721Metadata-symbol}."
      },
      "tokenURI(uint256)": {
        "details": "See {IERC721Metadata-tokenURI}."
      },
      "transferFrom(address,address,uint256)": {
        "details": "See {IERC721-transferFrom}."
      }
    },
    "version": 1
  },
  "userdoc": {
    "kind": "user",
    "methods": {},
    "version": 1
  }
}