{
  "contractName": "Item",
  "abi": [
    {
      "inputs": [],
      "stateMutability": "payable",
      "type": "constructor",
      "payable": true
    },
    {
      "anonymous": false,
      "inputs": [
        {
          "indexed": true,
          "internalType": "address",
          "name": "owner",
          "type": "address"
        },
        {
          "indexed": true,
          "internalType": "address",
          "name": "approved",
          "type": "address"
        },
        {
          "indexed": true,
          "internalType": "uint256",
          "name": "tokenId",
          "type": "uint256"
        }
      ],
      "name": "Approval",
      "type": "event"
    },
    {
      "anonymous": false,
      "inputs": [
        {
          "indexed": true,
          "internalType": "address",
          "name": "owner",
          "type": "address"
        },
        {
          "indexed": true,
          "internalType": "address",
          "name": "operator",
          "type": "address"
        },
        {
          "indexed": false,
          "internalType": "bool",
          "name": "approved",
          "type": "bool"
        }
      ],
      "name": "ApprovalForAll",
      "type": "event"
    },
    {
      "anonymous": false,
      "inputs": [
        {
          "indexed": false,
          "internalType": "address",
          "name": "_burner",
          "type": "address"
        },
        {
          "indexed": false,
          "internalType": "uint256",
          "name": "_tokenId",
          "type": "uint256"
        }
      ],
      "name": "BurnItem",
      "type": "event"
    },
    {
      "anonymous": false,
      "inputs": [
        {
          "indexed": false,
          "internalType": "address",
          "name": "_reciever",
          "type": "address"
        },
        {
          "indexed": false,
          "internalType": "uint256",
          "name": "_tokenId",
          "type": "uint256"
        }
      ],
      "name": "ItemMinted",
      "type": "event"
    },
    {
      "anonymous": false,
      "inputs": [
        {
          "indexed": true,
          "internalType": "address",
          "name": "previousOwner",
          "type": "address"
        },
        {
          "indexed": true,
          "internalType": "address",
          "name": "newOwner",
          "type": "address"
        }
      ],
      "name": "OwnershipTransferred",
      "type": "event"
    },
    {
      "anonymous": false,
      "inputs": [
        {
          "indexed": false,
          "internalType": "address",
          "name": "_sender",
          "type": "address"
        },
        {
          "indexed": false,
          "internalType": "uint256",
          "name": "_value",
          "type": "uint256"
        }
      ],
      "name": "ReceivedEth",
      "type": "event"
    },
    {
      "anonymous": false,
      "inputs": [
        {
          "indexed": true,
          "internalType": "address",
          "name": "from",
          "type": "address"
        },
        {
          "indexed": true,
          "internalType": "address",
          "name": "to",
          "type": "address"
        },
        {
          "indexed": true,
          "internalType": "uint256",
          "name": "tokenId",
          "type": "uint256"
        }
      ],
      "name": "Transfer",
      "type": "event"
    },
    {
      "stateMutability": "payable",
      "type": "fallback",
      "payable": true
    },
    {
      "inputs": [
        {
          "internalType": "address",
          "name": "to",
          "type": "address"
        },
        {
          "internalType": "uint256",
          "name": "tokenId",
          "type": "uint256"
        }
      ],
      "name": "approve",
      "outputs": [],
      "stateMutability": "nonpayable",
      "type": "function"
    },
    {
      "inputs": [
        {
          "internalType": "address",
          "name": "owner",
          "type": "address"
        }
      ],
      "name": "balanceOf",
      "outputs": [
        {
          "internalType": "uint256",
          "name": "",
          "type": "uint256"
        }
      ],
      "stateMutability": "view",
      "type": "function",
      "constant": true
    },
    {
      "inputs": [
        {
          "internalType": "uint256",
          "name": "tokenId",
          "type": "uint256"
        }
      ],
      "name": "getApproved",
      "outputs": [
        {
          "internalType": "address",
          "name": "",
          "type": "address"
        }
      ],
      "stateMutability": "view",
      "type": "function",
      "constant": true
    },
    {
      "inputs": [
        {
          "internalType": "address",
          "name": "",
          "type": "address"
        }
      ],
      "name": "isAllowlistAddress",
      "outputs": [
        {
          "internalType": "bool",
          "name": "",
          "type": "bool"
        }
      ],
      "stateMutability": "view",
      "type": "function",
      "constant": true
    },
    {
      "inputs": [
        {
          "internalType": "address",
          "name": "owner",
          "type": "address"
        },
        {
          "internalType": "address",
          "name": "operator",
          "type": "address"
        }
      ],
      "name": "isApprovedForAll",
      "outputs": [
        {
          "internalType": "bool",
          "name": "",
          "type": "bool"
        }
      ],
      "stateMutability": "view",
      "type": "function",
      "constant": true
    },
    {
      "inputs": [
        {
          "internalType": "uint256",
          "name": "",
          "type": "uint256"
        }
      ],
      "name": "itemBurnable",
      "outputs": [
        {
          "internalType": "uint8",
          "name": "",
          "type": "uint8"
        }
      ],
      "stateMutability": "view",
      "type": "function",
      "constant": true
    },
    {
      "inputs": [
        {
          "internalType": "uint256",
          "name": "",
          "type": "uint256"
        }
      ],
      "name": "itemSupplies",
      "outputs": [
        {
          "internalType": "uint32",
          "name": "",
          "type": "uint32"
        }
      ],
      "stateMutability": "view",
      "type": "function",
      "constant": true
    },
    {
      "inputs": [],
      "name": "itemTotalSupply",
      "outputs": [
        {
          "internalType": "uint256",
          "name": "",
          "type": "uint256"
        }
      ],
      "stateMutability": "view",
      "type": "function",
      "constant": true
    },
    {
      "inputs": [
        {
          "internalType": "uint256",
          "name": "",
          "type": "uint256"
        }
      ],
      "name": "itemTypes",
      "outputs": [
        {
          "internalType": "uint8",
          "name": "",
          "type": "uint8"
        }
      ],
      "stateMutability": "view",
      "type": "function",
      "constant": true
    },
    {
      "inputs": [
        {
          "internalType": "uint256",
          "name": "",
          "type": "uint256"
        }
      ],
      "name": "maxOwnable",
      "outputs": [
        {
          "internalType": "uint8",
          "name": "",
          "type": "uint8"
        }
      ],
      "stateMutability": "view",
      "type": "function",
      "constant": true
    },
    {
      "inputs": [],
      "name": "name",
      "outputs": [
        {
          "internalType": "string",
          "name": "",
          "type": "string"
        }
      ],
      "stateMutability": "view",
      "type": "function",
      "constant": true
    },
    {
      "inputs": [],
      "name": "owner",
      "outputs": [
        {
          "internalType": "address",
          "name": "",
          "type": "address"
        }
      ],
      "stateMutability": "view",
      "type": "function",
      "constant": true
    },
    {
      "inputs": [
        {
          "internalType": "uint256",
          "name": "tokenId",
          "type": "uint256"
        }
      ],
      "name": "ownerOf",
      "outputs": [
        {
          "internalType": "address",
          "name": "",
          "type": "address"
        }
      ],
      "stateMutability": "view",
      "type": "function",
      "constant": true
    },
    {
      "inputs": [],
      "name": "paymentContractAddress",
      "outputs": [
        {
          "internalType": "address payable",
          "name": "",
          "type": "address"
        }
      ],
      "stateMutability": "view",
      "type": "function",
      "constant": true
    },
    {
      "inputs": [],
      "name": "renounceOwnership",
      "outputs": [],
      "stateMutability": "nonpayable",
      "type": "function"
    },
    {
      "inputs": [
        {
          "internalType": "address",
          "name": "from",
          "type": "address"
        },
        {
          "internalType": "address",
          "name": "to",
          "type": "address"
        },
        {
          "internalType": "uint256",
          "name": "tokenId",
          "type": "uint256"
        }
      ],
      "name": "safeTransferFrom",
      "outputs": [],
      "stateMutability": "nonpayable",
      "type": "function"
    },
    {
      "inputs": [
        {
          "internalType": "address",
          "name": "from",
          "type": "address"
        },
        {
          "internalType": "address",
          "name": "to",
          "type": "address"
        },
        {
          "internalType": "uint256",
          "name": "tokenId",
          "type": "uint256"
        },
        {
          "internalType": "bytes",
          "name": "_data",
          "type": "bytes"
        }
      ],
      "name": "safeTransferFrom",
      "outputs": [],
      "stateMutability": "nonpayable",
      "type": "function"
    },
    {
      "inputs": [
        {
          "internalType": "address",
          "name": "operator",
          "type": "address"
        },
        {
          "internalType": "bool",
          "name": "approved",
          "type": "bool"
        }
      ],
      "name": "setApprovalForAll",
      "outputs": [],
      "stateMutability": "nonpayable",
      "type": "function"
    },
    {
      "inputs": [
        {
          "internalType": "bytes4",
          "name": "interfaceId",
          "type": "bytes4"
        }
      ],
      "name": "supportsInterface",
      "outputs": [
        {
          "internalType": "bool",
          "name": "",
          "type": "bool"
        }
      ],
      "stateMutability": "view",
      "type": "function",
      "constant": true
    },
    {
      "inputs": [],
      "name": "symbol",
      "outputs": [
        {
          "internalType": "string",
          "name": "",
          "type": "string"
        }
      ],
      "stateMutability": "view",
      "type": "function",
      "constant": true
    },
    {
      "inputs": [
        {
          "internalType": "uint256",
          "name": "",
          "type": "uint256"
        }
      ],
      "name": "tokenItemTypes",
      "outputs": [
        {
          "internalType": "uint8",
          "name": "",
          "type": "uint8"
        }
      ],
      "stateMutability": "view",
      "type": "function",
      "constant": true
    },
    {
      "inputs": [
        {
          "internalType": "address",
          "name": "",
          "type": "address"
        },
        {
          "internalType": "uint256",
          "name": "",
          "type": "uint256"
        }
      ],
      "name": "tokenOwner",
      "outputs": [
        {
          "internalType": "uint256",
          "name": "",
          "type": "uint256"
        }
      ],
      "stateMutability": "view",
      "type": "function",
      "constant": true
    },
    {
      "inputs": [
        {
          "internalType": "address",
          "name": "",
          "type": "address"
        },
        {
          "internalType": "uint8",
          "name": "",
          "type": "uint8"
        },
        {
          "internalType": "uint256",
          "name": "",
          "type": "uint256"
        }
      ],
      "name": "tokenOwners",
      "outputs": [
        {
          "internalType": "uint256",
          "name": "",
          "type": "uint256"
        }
      ],
      "stateMutability": "view",
      "type": "function",
      "constant": true
    },
    {
      "inputs": [
        {
          "internalType": "address",
          "name": "from",
          "type": "address"
        },
        {
          "internalType": "address",
          "name": "to",
          "type": "address"
        },
        {
          "internalType": "uint256",
          "name": "tokenId",
          "type": "uint256"
        }
      ],
      "name": "transferFrom",
      "outputs": [],
      "stateMutability": "nonpayable",
      "type": "function"
    },
    {
      "inputs": [
        {
          "internalType": "address",
          "name": "newOwner",
          "type": "address"
        }
      ],
      "name": "transferOwnership",
      "outputs": [],
      "stateMutability": "nonpayable",
      "type": "function"
    },
    {
      "stateMutability": "payable",
      "type": "receive",
      "payable": true
    },
    {
      "inputs": [
        {
          "internalType": "address[]",
          "name": "wAddresses",
          "type": "address[]"
        },
        {
          "internalType": "bool",
          "name": "allow",
          "type": "bool"
        }
      ],
      "name": "allowlistAddresses",
      "outputs": [],
      "stateMutability": "nonpayable",
      "type": "function"
    },
    {
      "inputs": [
        {
          "internalType": "address",
          "name": "wAddress",
          "type": "address"
        },
        {
          "internalType": "bool",
          "name": "allow",
          "type": "bool"
        }
      ],
      "name": "allowlistAddress",
      "outputs": [],
      "stateMutability": "nonpayable",
      "type": "function"
    },
    {
      "inputs": [],
      "name": "toggleOnlyAllowList",
      "outputs": [],
      "stateMutability": "nonpayable",
      "type": "function"
    },
    {
      "inputs": [
        {
          "internalType": "uint256",
          "name": "_new_price",
          "type": "uint256"
        },
        {
          "internalType": "uint8",
          "name": "_itemType",
          "type": "uint8"
        }
      ],
      "name": "changeFloorPrice",
      "outputs": [],
      "stateMutability": "nonpayable",
      "type": "function"
    },
    {
      "inputs": [
        {
          "internalType": "uint8",
          "name": "_itemType",
          "type": "uint8"
        }
      ],
      "name": "getFloorPrice",
      "outputs": [
        {
          "internalType": "uint256",
          "name": "",
          "type": "uint256"
        }
      ],
      "stateMutability": "view",
      "type": "function",
      "constant": true
    },
    {
      "inputs": [
        {
          "internalType": "uint8",
          "name": "_itemType",
          "type": "uint8"
        }
      ],
      "name": "getSupplyLeft",
      "outputs": [
        {
          "internalType": "uint256",
          "name": "",
          "type": "uint256"
        }
      ],
      "stateMutability": "view",
      "type": "function",
      "constant": true
    },
    {
      "inputs": [
        {
          "internalType": "address",
          "name": "_owner",
          "type": "address"
        },
        {
          "internalType": "uint8",
          "name": "_itemType",
          "type": "uint8"
        }
      ],
      "name": "specificItemOwnership",
      "outputs": [
        {
          "internalType": "uint256",
          "name": "",
          "type": "uint256"
        }
      ],
      "stateMutability": "view",
      "type": "function",
      "constant": true
    },
    {
      "inputs": [],
      "name": "totalItemTypes",
      "outputs": [
        {
          "internalType": "uint256",
          "name": "",
          "type": "uint256"
        }
      ],
      "stateMutability": "view",
      "type": "function",
      "constant": true
    },
    {
      "inputs": [
        {
          "internalType": "address payable",
          "name": "_paymentContractAddress",
          "type": "address"
        }
      ],
      "name": "setPayableAddress",
      "outputs": [],
      "stateMutability": "nonpayable",
      "type": "function"
    },
    {
      "inputs": [
        {
          "internalType": "address",
          "name": "_burner",
          "type": "address"
        },
        {
          "internalType": "uint256",
          "name": "_tokenId",
          "type": "uint256"
        }
      ],
      "name": "burn",
      "outputs": [],
      "stateMutability": "nonpayable",
      "type": "function"
    },
    {
      "inputs": [
        {
          "internalType": "string",
          "name": "_passCode",
          "type": "string"
        },
        {
          "internalType": "address",
          "name": "_recipient",
          "type": "address"
        },
        {
          "internalType": "uint8",
          "name": "_itemType",
          "type": "uint8"
        },
        {
          "internalType": "uint256",
          "name": "_quantity",
          "type": "uint256"
        }
      ],
      "name": "mintSale",
      "outputs": [],
      "stateMutability": "payable",
      "type": "function",
      "payable": true
    },
    {
      "inputs": [
        {
          "internalType": "string",
          "name": "_baseURILink",
          "type": "string"
        }
      ],
      "name": "setBaseURI",
      "outputs": [],
      "stateMutability": "nonpayable",
      "type": "function"
    },
    {
      "inputs": [],
      "name": "getBaseURI",
      "outputs": [
        {
          "internalType": "string",
          "name": "",
          "type": "string"
        }
      ],
      "stateMutability": "view",
      "type": "function",
      "constant": true
    },
    {
      "inputs": [
        {
          "internalType": "uint256",
          "name": "tokenId",
          "type": "uint256"
        }
      ],
      "name": "tokenURI",
      "outputs": [
        {
          "internalType": "string",
          "name": "",
          "type": "string"
        }
      ],
      "stateMutability": "view",
      "type": "function",
      "constant": true
    },
    {
      "inputs": [],
      "name": "withdraw",
      "outputs": [],
      "stateMutability": "nonpayable",
      "type": "function"
    }
  ],
  "bytecode": "0x60806040526040518060e00160405280600160ff168152602001600060ff168152602001600060ff168152602001600060ff168152602001600060ff168152602001600060ff168152602001600060ff16815250600a9060076200006592919062000464565b506040518060e00160405280600160ff168152602001600260ff168152602001600360ff168152602001600460ff168152602001600560ff168152602001600660ff168152602001600760ff16815250600b906007620000c792919062000464565b506040518060e00160405280600a60ff168152602001600160ff168152602001600160ff168152602001600160ff168152602001600160ff168152602001600160ff168152602001600160ff16815250600c9060076200012992919062000464565b506040518060e001604052806109c461ffff1681526020016109c461ffff1681526020016103e861ffff1681526020016103e861ffff1681526020016103e861ffff1681526020016103e861ffff1681526020016103e861ffff16815250600d9060076200019992919062000505565b506040518060e001604052806701aa535d3d0c000067ffffffffffffffff1681526020016703782dace9d9000067ffffffffffffffff168152602001668e1bc9bf04000067ffffffffffffffff168152602001668e1bc9bf04000067ffffffffffffffff168152602001668e1bc9bf04000067ffffffffffffffff168152602001668e1bc9bf04000067ffffffffffffffff168152602001668e1bc9bf04000067ffffffffffffffff16815250600e90600762000258929190620005ac565b506127106016556040518060400160405280600a81526020017f4d4144454348414e47450000000000000000000000000000000000000000000081525060199080519060200190620002ac929190620005fd565b506001601a60006101000a81548160ff0219169083151502179055506040518060400160405280601781526020017f4d6574616d6f6e204974656d20436f6c6c656374696f6e0000000000000000008152506040518060400160405280600381526020017f4e4654000000000000000000000000000000000000000000000000000000000081525081600090805190602001906200034c929190620005fd565b50806001908051906020019062000365929190620005fd565b505050620003886200037c6200039660201b60201c565b6200039e60201b60201c565b600160078190555062000712565b600033905090565b6000600660009054906101000a900473ffffffffffffffffffffffffffffffffffffffff16905081600660006101000a81548173ffffffffffffffffffffffffffffffffffffffff021916908373ffffffffffffffffffffffffffffffffffffffff1602179055508173ffffffffffffffffffffffffffffffffffffffff168173ffffffffffffffffffffffffffffffffffffffff167f8be0079c531659141344cd1fd0a4f28419497f9722a3daafe3b4186f6b6457e060405160405180910390a35050565b826007601f01602090048101928215620004f25791602002820160005b83821115620004c157835183826101000a81548160ff021916908360ff160217905550926020019260010160208160000104928301926001030262000481565b8015620004f05782816101000a81549060ff0219169055600101602081600001049283019260010302620004c1565b505b5090506200050191906200068e565b5090565b8260078001600890048101928215620005995791602002820160005b838211156200056557835183826101000a81548163ffffffff021916908361ffff160217905550926020019260040160208160030104928301926001030262000521565b8015620005975782816101000a81549063ffffffff021916905560040160208160030104928301926001030262000565565b505b509050620005a891906200068e565b5090565b8260078101928215620005ea579160200282015b82811115620005e9578251829067ffffffffffffffff16905591602001919060010190620005c0565b5b509050620005f991906200068e565b5090565b8280546200060b90620006ad565b90600052602060002090601f0160209004810192826200062f57600085556200067b565b82601f106200064a57805160ff19168380011785556200067b565b828001600101855582156200067b579182015b828111156200067a5782518255916020019190600101906200065d565b5b5090506200068a91906200068e565b5090565b5b80821115620006a95760008160009055506001016200068f565b5090565b60006002820490506001821680620006c657607f821691505b60208210811415620006dd57620006dc620006e3565b5b50919050565b7f4e487b7100000000000000000000000000000000000000000000000000000000600052602260045260246000fd5b61512d80620007226000396000f3fe60806040526004361061023f5760003560e01c8063715018a61161012e578063b88d4fde116100ab578063c9432c051161006f578063c9432c05146108ff578063cc74a50514610928578063cc76fd9214610965578063e985e9c5146109a2578063f2fde38b146109df5761027f565b8063b88d4fde146107e2578063bc5cff9d1461080b578063bd9dfe2714610848578063c2a6608f14610885578063c87b56dd146108c25761027f565b806395d89b41116100f257806395d89b411461070c5780639acf878c146107375780639dc29fac14610774578063a22cb4651461079d578063a7cb5b6e146107c65761027f565b8063715018a61461065f5780637aaf470c146106765780638da5cb5b146106a157806390acdb24146106cc57806391ee3a48146106e35761027f565b806339b651c6116101bc57806355f804b31161018057806355f804b3146105685780635b3eed5c146105915780636352211e146105ba57806370a08231146105f7578063714c5398146106345761027f565b806339b651c6146104835780633ccfd60b146104ae57806342842e0e146104c5578063486fc6d3146104ee5780634fa298981461052b5761027f565b80630d045304116102035780630d0453041461038c57806315fc1709146103b55780631cad7363146103e05780632257eb7e1461041d57806323b872dd1461045a5761027f565b806301ffc9a71461028157806306fdde03146102be578063081812fc146102e9578063095ea7b3146103265780630cb98b711461034f5761027f565b3661027f577f52a6cdf67c40ce333b3d846e4e143db87f71dd7935612a4cafcf6ba76047ca1f333460405161027592919061413b565b60405180910390a1005b005b34801561028d57600080fd5b506102a860048036038101906102a39190613937565b610a08565b6040516102b59190614164565b60405180910390f35b3480156102ca57600080fd5b506102d3610aea565b6040516102e0919061417f565b60405180910390f35b3480156102f557600080fd5b50610310600480360381019061030b9190613a5d565b610b7c565b60405161031d91906140b9565b60405180910390f35b34801561033257600080fd5b5061034d60048036038101906103489190613804565b610c01565b005b34801561035b57600080fd5b5061037660048036038101906103719190613844565b610d19565b60405161038391906144e1565b60405180910390f35b34801561039857600080fd5b506103b360048036038101906103ae91906138d7565b610d82565b005b3480156103c157600080fd5b506103ca610ea3565b6040516103d791906144e1565b60405180910390f35b3480156103ec57600080fd5b5061040760048036038101906104029190613884565b610ea9565b60405161041491906144e1565b60405180910390f35b34801561042957600080fd5b50610444600480360381019061043f9190613a5d565b610ee7565b60405161045191906144fc565b60405180910390f35b34801561046657600080fd5b50610481600480360381019061047c91906136ee565b610f17565b005b34801561048f57600080fd5b50610498610f77565b6040516104a591906140d4565b60405180910390f35b3480156104ba57600080fd5b506104c3610f9d565b005b3480156104d157600080fd5b506104ec60048036038101906104e791906136ee565b611140565b005b3480156104fa57600080fd5b5061051560048036038101906105109190613aca565b611160565b60405161052291906144e1565b60405180910390f35b34801561053757600080fd5b50610552600480360381019061054d9190613a5d565b6111e4565b60405161055f9190614517565b60405180910390f35b34801561057457600080fd5b5061058f600480360381019061058a9190613991565b611204565b005b34801561059d57600080fd5b506105b860048036038101906105b39190613681565b61129a565b005b3480156105c657600080fd5b506105e160048036038101906105dc9190613a5d565b61135a565b6040516105ee91906140b9565b60405180910390f35b34801561060357600080fd5b5061061e60048036038101906106199190613654565b61140c565b60405161062b91906144e1565b60405180910390f35b34801561064057600080fd5b506106496114c4565b604051610656919061417f565b60405180910390f35b34801561066b57600080fd5b506106746115d2565b005b34801561068257600080fd5b5061068b61165a565b60405161069891906144e1565b60405180910390f35b3480156106ad57600080fd5b506106b6611663565b6040516106c391906140b9565b60405180910390f35b3480156106d857600080fd5b506106e161168d565b005b3480156106ef57600080fd5b5061070a600480360381019061070591906137c4565b611735565b005b34801561071857600080fd5b5061072161180c565b60405161072e919061417f565b60405180910390f35b34801561074357600080fd5b5061075e60048036038101906107599190613a5d565b61189e565b60405161076b9190614517565b60405180910390f35b34801561078057600080fd5b5061079b60048036038101906107969190613804565b6118c8565b005b3480156107a957600080fd5b506107c460048036038101906107bf91906137c4565b611a01565b005b6107e060048036038101906107db91906139da565b611a17565b005b3480156107ee57600080fd5b5061080960048036038101906108049190613741565b611f5c565b005b34801561081757600080fd5b50610832600480360381019061082d9190613a5d565b611fbe565b60405161083f9190614517565b60405180910390f35b34801561085457600080fd5b5061086f600480360381019061086a9190613804565b611fe8565b60405161087c91906144e1565b60405180910390f35b34801561089157600080fd5b506108ac60048036038101906108a79190613aca565b612019565b6040516108b991906144e1565b60405180910390f35b3480156108ce57600080fd5b506108e960048036038101906108e49190613a5d565b6120bd565b6040516108f6919061417f565b60405180910390f35b34801561090b57600080fd5b5061092660048036038101906109219190613a8a565b612165565b005b34801561093457600080fd5b5061094f600480360381019061094a9190613a5d565b612264565b60405161095c9190614517565b60405180910390f35b34801561097157600080fd5b5061098c60048036038101906109879190613654565b61228e565b6040516109999190614164565b60405180910390f35b3480156109ae57600080fd5b506109c960048036038101906109c491906136ae565b6122ae565b6040516109d69190614164565b60405180910390f35b3480156109eb57600080fd5b50610a066004803603810190610a019190613654565b612342565b005b60007f80ac58cd000000000000000000000000000000000000000000000000000000007bffffffffffffffffffffffffffffffffffffffffffffffffffffffff1916827bffffffffffffffffffffffffffffffffffffffffffffffffffffffff19161480610ad357507f5b5e139f000000000000000000000000000000000000000000000000000000007bffffffffffffffffffffffffffffffffffffffffffffffffffffffff1916827bffffffffffffffffffffffffffffffffffffffffffffffffffffffff1916145b80610ae35750610ae28261243a565b5b9050919050565b606060008054610af99061487e565b80601f0160208091040260200160405190810160405280929190818152602001828054610b259061487e565b8015610b725780601f10610b4757610100808354040283529160200191610b72565b820191906000526020600020905b815481529060010190602001808311610b5557829003601f168201915b5050505050905090565b6000610b87826124a4565b610bc6576040517f08c379a0000000000000000000000000000000000000000000000000000000008152600401610bbd906143a1565b60405180910390fd5b6004600083815260200190815260200160002060009054906101000a900473ffffffffffffffffffffffffffffffffffffffff169050919050565b6000610c0c8261135a565b90508073ffffffffffffffffffffffffffffffffffffffff168373ffffffffffffffffffffffffffffffffffffffff161415610c7d576040517f08c379a0000000000000000000000000000000000000000000000000000000008152600401610c7490614401565b60405180910390fd5b8073ffffffffffffffffffffffffffffffffffffffff16610c9c612510565b73ffffffffffffffffffffffffffffffffffffffff161480610ccb5750610cca81610cc5612510565b6122ae565b5b610d0a576040517f08c379a0000000000000000000000000000000000000000000000000000000008152600401610d0190614321565b60405180910390fd5b610d148383612518565b505050565b600080601d60008573ffffffffffffffffffffffffffffffffffffffff1673ffffffffffffffffffffffffffffffffffffffff16815260200190815260200160002060008460ff1660ff1681526020019081526020016000208054905090508091505092915050565b610d8a612510565b73ffffffffffffffffffffffffffffffffffffffff16610da8611663565b73ffffffffffffffffffffffffffffffffffffffff1614610dfe576040517f08c379a0000000000000000000000000000000000000000000000000000000008152600401610df5906143e1565b60405180910390fd5b60005b83839050811015610e9d578160096000868685818110610e2457610e236149e8565b5b9050602002016020810190610e399190613654565b73ffffffffffffffffffffffffffffffffffffffff1673ffffffffffffffffffffffffffffffffffffffff16815260200190815260200160002060006101000a81548160ff0219169083151502179055508080610e95906148e1565b915050610e01565b50505050565b60165481565b601d6020528260005260406000206020528160005260406000208181548110610ed157600080fd5b9060005260206000200160009250925050505481565b600d8160078110610ef757600080fd5b60089182820401919006600402915054906101000a900463ffffffff1681565b610f28610f22612510565b826125d1565b610f67576040517f08c379a0000000000000000000000000000000000000000000000000000000008152600401610f5e90614441565b60405180910390fd5b610f728383836126af565b505050565b600860009054906101000a900473ffffffffffffffffffffffffffffffffffffffff1681565b610fa5612510565b73ffffffffffffffffffffffffffffffffffffffff16610fc3611663565b73ffffffffffffffffffffffffffffffffffffffff1614611019576040517f08c379a0000000000000000000000000000000000000000000000000000000008152600401611010906143e1565b60405180910390fd5b6002600754141561105f576040517f08c379a0000000000000000000000000000000000000000000000000000000008152600401611056906144a1565b60405180910390fd5b60026007819055506000600860009054906101000a900473ffffffffffffffffffffffffffffffffffffffff1673ffffffffffffffffffffffffffffffffffffffff16476040516110af906140a4565b60006040518083038185875af1925050503d80600081146110ec576040519150601f19603f3d011682016040523d82523d6000602084013e6110f1565b606091505b5050905080611135576040517f08c379a000000000000000000000000000000000000000000000000000000000815260040161112c90614421565b60405180910390fd5b506001600781905550565b61115b83838360405180602001604052806000815250611f5c565b505050565b60008160ff1680600111158015611178575060078111155b6111b7576040517f08c379a00000000000000000000000000000000000000000000000000000000081526004016111ae906144c1565b60405180910390fd5b600e6001846111c69190614765565b60ff16600781106111da576111d96149e8565b5b0154915050919050565b601b6020528060005260406000206000915054906101000a900460ff1681565b61120c612510565b73ffffffffffffffffffffffffffffffffffffffff1661122a611663565b73ffffffffffffffffffffffffffffffffffffffff1614611280576040517f08c379a0000000000000000000000000000000000000000000000000000000008152600401611277906143e1565b60405180910390fd5b80601890805190602001906112969291906133e8565b5050565b6112a2612510565b73ffffffffffffffffffffffffffffffffffffffff166112c0611663565b73ffffffffffffffffffffffffffffffffffffffff1614611316576040517f08c379a000000000000000000000000000000000000000000000000000000000815260040161130d906143e1565b60405180910390fd5b80600860006101000a81548173ffffffffffffffffffffffffffffffffffffffff021916908373ffffffffffffffffffffffffffffffffffffffff16021790555050565b6000806002600084815260200190815260200160002060009054906101000a900473ffffffffffffffffffffffffffffffffffffffff169050600073ffffffffffffffffffffffffffffffffffffffff168173ffffffffffffffffffffffffffffffffffffffff161415611403576040517f08c379a00000000000000000000000000000000000000000000000000000000081526004016113fa90614361565b60405180910390fd5b80915050919050565b60008073ffffffffffffffffffffffffffffffffffffffff168273ffffffffffffffffffffffffffffffffffffffff16141561147d576040517f08c379a000000000000000000000000000000000000000000000000000000000815260040161147490614341565b60405180910390fd5b600360008373ffffffffffffffffffffffffffffffffffffffff1673ffffffffffffffffffffffffffffffffffffffff168152602001908152602001600020549050919050565b60606114ce612510565b73ffffffffffffffffffffffffffffffffffffffff166114ec611663565b73ffffffffffffffffffffffffffffffffffffffff1614611542576040517f08c379a0000000000000000000000000000000000000000000000000000000008152600401611539906143e1565b60405180910390fd5b6018805461154f9061487e565b80601f016020809104026020016040519081016040528092919081815260200182805461157b9061487e565b80156115c85780601f1061159d576101008083540402835291602001916115c8565b820191906000526020600020905b8154815290600101906020018083116115ab57829003601f168201915b5050505050905090565b6115da612510565b73ffffffffffffffffffffffffffffffffffffffff166115f8611663565b73ffffffffffffffffffffffffffffffffffffffff161461164e576040517f08c379a0000000000000000000000000000000000000000000000000000000008152600401611645906143e1565b60405180910390fd5b6116586000612916565b565b60006007905090565b6000600660009054906101000a900473ffffffffffffffffffffffffffffffffffffffff16905090565b611695612510565b73ffffffffffffffffffffffffffffffffffffffff166116b3611663565b73ffffffffffffffffffffffffffffffffffffffff1614611709576040517f08c379a0000000000000000000000000000000000000000000000000000000008152600401611700906143e1565b60405180910390fd5b601a60009054906101000a900460ff1615601a60006101000a81548160ff021916908315150217905550565b61173d612510565b73ffffffffffffffffffffffffffffffffffffffff1661175b611663565b73ffffffffffffffffffffffffffffffffffffffff16146117b1576040517f08c379a00000000000000000000000000000000000000000000000000000000081526004016117a8906143e1565b60405180910390fd5b80600960008473ffffffffffffffffffffffffffffffffffffffff1673ffffffffffffffffffffffffffffffffffffffff16815260200190815260200160002060006101000a81548160ff0219169083151502179055505050565b60606001805461181b9061487e565b80601f01602080910402602001604051908101604052809291908181526020018280546118479061487e565b80156118945780601f1061186957610100808354040283529160200191611894565b820191906000526020600020905b81548152906001019060200180831161187757829003601f168201915b5050505050905090565b600b81600781106118ae57600080fd5b60209182820401919006915054906101000a900460ff1681565b6000601b600083815260200190815260200160002060009054906101000a900460ff1690506001600a6001836118fe9190614765565b60ff1660078110611912576119116149e8565b5b602091828204019190069054906101000a900460ff1660ff161461196b576040517f08c379a000000000000000000000000000000000000000000000000000000000815260040161196290614221565b60405180910390fd5b61197583836129dc565b156119c15761198382612ba4565b7f09b96a5f01f2daed8682674a1291295a4e0059307b4c30f836a1f3fa6b6c84d883836040516119b492919061413b565b60405180910390a16119fc565b6040517f08c379a00000000000000000000000000000000000000000000000000000000081526004016119f3906141a1565b60405180910390fd5b505050565b611a13611a0c612510565b8383612cc1565b5050565b836019604051602001611a2a919061405e565b6040516020818303038152906040528051906020012081604051602001611a519190614047565b6040516020818303038152906040528051906020012014611aa7576040517f08c379a0000000000000000000000000000000000000000000000000000000008152600401611a9e90614461565b60405180910390fd5b60026007541415611aed576040517f08c379a0000000000000000000000000000000000000000000000000000000008152600401611ae4906144a1565b60405180910390fd5b6002600781905550601a60009054906101000a900460ff168015611b445750611b14611663565b73ffffffffffffffffffffffffffffffffffffffff163373ffffffffffffffffffffffffffffffffffffffff1614155b15611bd657600960003373ffffffffffffffffffffffffffffffffffffffff1673ffffffffffffffffffffffffffffffffffffffff16815260200190815260200160002060009054906101000a900460ff16611bd5576040517f08c379a0000000000000000000000000000000000000000000000000000000008152600401611bcc90614481565b60405180910390fd5b5b6000611be184612019565b90506000611bef8686610d19565b90506000600c600187611c029190614765565b60ff1660078110611c1657611c156149e8565b5b602091828204019190069054906101000a900460ff1660ff169050808583611c3e919061461c565b1115611c7f576040517f08c379a0000000000000000000000000000000000000000000000000000000008152600401611c76906142a1565b60405180910390fd5b6000611c8a87611160565b90506000611c988786612e2e565b9050611ca2611663565b73ffffffffffffffffffffffffffffffffffffffff163373ffffffffffffffffffffffffffffffffffffffff1614611d2357348282611ce191906146a3565b1115611d22576040517f08c379a0000000000000000000000000000000000000000000000000000000008152600401611d1990614281565b60405180910390fd5b5b6000601554905060005b88811015611f3f578180611d40906148e1565b925050611d4d8b83612e8d565b601d60008c73ffffffffffffffffffffffffffffffffffffffff1673ffffffffffffffffffffffffffffffffffffffff16815260200190815260200160002060008b60ff1660ff168152602001908152602001600020829080600181540180825580915050600190039060005260206000200160009091909190915055601c60008c73ffffffffffffffffffffffffffffffffffffffff1673ffffffffffffffffffffffffffffffffffffffff16815260200190815260200160002082908060018154018082558091505060019003906000526020600020016000909190919091505589601b600084815260200190815260200160002060006101000a81548160ff021916908360ff1602179055506001600d60018c611e6d9190614765565b60ff1660078110611e8157611e806149e8565b5b600891828204019190066004029054906101000a900463ffffffff16611ea79190614731565b600d60018c611eb69190614765565b60ff1660078110611eca57611ec96149e8565b5b600891828204019190066004026101000a81548163ffffffff021916908363ffffffff1602179055507f170cd7fbac3527c51a8eadf77fb756ac94fe074ba361cc0a021c1bf9f1a7d7cf8b83604051611f2492919061413b565b60405180910390a18080611f37906148e1565b915050611d2d565b508060158190555050505050505060016007819055505050505050565b611f6d611f67612510565b836125d1565b611fac576040517f08c379a0000000000000000000000000000000000000000000000000000000008152600401611fa390614441565b60405180910390fd5b611fb884848484613067565b50505050565b600c8160078110611fce57600080fd5b60209182820401919006915054906101000a900460ff1681565b601c602052816000526040600020818154811061200457600080fd5b90600052602060002001600091509150505481565b60008160ff1680600111158015612031575060078111155b612070576040517f08c379a0000000000000000000000000000000000000000000000000000000008152600401612067906144c1565b60405180910390fd5b600d60018461207f9190614765565b60ff1660078110612093576120926149e8565b5b600891828204019190066004029054906101000a900463ffffffff1663ffffffff16915050919050565b60606120c8826124a4565b612107576040517f08c379a00000000000000000000000000000000000000000000000000000000081526004016120fe906143c1565b60405180910390fd5b6000601880546121169061487e565b905011612132576040518060200160405280600081525061215e565b601861213d836130c3565b60405160200161214e929190614075565b6040516020818303038152906040525b9050919050565b61216d612510565b73ffffffffffffffffffffffffffffffffffffffff1661218b611663565b73ffffffffffffffffffffffffffffffffffffffff16146121e1576040517f08c379a00000000000000000000000000000000000000000000000000000000081526004016121d8906143e1565b60405180910390fd5b8060ff16806001111580156121f7575060078111155b612236576040517f08c379a000000000000000000000000000000000000000000000000000000000815260040161222d906144c1565b60405180910390fd5b82600e6001846122469190614765565b60ff166007811061225a576122596149e8565b5b0181905550505050565b600a816007811061227457600080fd5b60209182820401919006915054906101000a900460ff1681565b60096020528060005260406000206000915054906101000a900460ff1681565b6000600560008473ffffffffffffffffffffffffffffffffffffffff1673ffffffffffffffffffffffffffffffffffffffff16815260200190815260200160002060008373ffffffffffffffffffffffffffffffffffffffff1673ffffffffffffffffffffffffffffffffffffffff16815260200190815260200160002060009054906101000a900460ff16905092915050565b61234a612510565b73ffffffffffffffffffffffffffffffffffffffff16612368611663565b73ffffffffffffffffffffffffffffffffffffffff16146123be576040517f08c379a00000000000000000000000000000000000000000000000000000000081526004016123b5906143e1565b60405180910390fd5b600073ffffffffffffffffffffffffffffffffffffffff168173ffffffffffffffffffffffffffffffffffffffff16141561242e576040517f08c379a000000000000000000000000000000000000000000000000000000000815260040161242590614201565b60405180910390fd5b61243781612916565b50565b60007f01ffc9a7000000000000000000000000000000000000000000000000000000007bffffffffffffffffffffffffffffffffffffffffffffffffffffffff1916827bffffffffffffffffffffffffffffffffffffffffffffffffffffffff1916149050919050565b60008073ffffffffffffffffffffffffffffffffffffffff166002600084815260200190815260200160002060009054906101000a900473ffffffffffffffffffffffffffffffffffffffff1673ffffffffffffffffffffffffffffffffffffffff1614159050919050565b600033905090565b816004600083815260200190815260200160002060006101000a81548173ffffffffffffffffffffffffffffffffffffffff021916908373ffffffffffffffffffffffffffffffffffffffff160217905550808273ffffffffffffffffffffffffffffffffffffffff1661258b8361135a565b73ffffffffffffffffffffffffffffffffffffffff167f8c5be1e5ebec7d5bd14f71427d1e84f3dd0314c0f7b2291e5b200ac8c7c3b92560405160405180910390a45050565b60006125dc826124a4565b61261b576040517f08c379a000000000000000000000000000000000000000000000000000000000815260040161261290614301565b60405180910390fd5b60006126268361135a565b90508073ffffffffffffffffffffffffffffffffffffffff168473ffffffffffffffffffffffffffffffffffffffff16148061269557508373ffffffffffffffffffffffffffffffffffffffff1661267d84610b7c565b73ffffffffffffffffffffffffffffffffffffffff16145b806126a657506126a581856122ae565b5b91505092915050565b8273ffffffffffffffffffffffffffffffffffffffff166126cf8261135a565b73ffffffffffffffffffffffffffffffffffffffff1614612725576040517f08c379a000000000000000000000000000000000000000000000000000000000815260040161271c90614241565b60405180910390fd5b600073ffffffffffffffffffffffffffffffffffffffff168273ffffffffffffffffffffffffffffffffffffffff161415612795576040517f08c379a000000000000000000000000000000000000000000000000000000000815260040161278c906142c1565b60405180910390fd5b6127a0838383613224565b6127ab600082612518565b6001600360008573ffffffffffffffffffffffffffffffffffffffff1673ffffffffffffffffffffffffffffffffffffffff16815260200190815260200160002060008282546127fb91906146fd565b925050819055506001600360008473ffffffffffffffffffffffffffffffffffffffff1673ffffffffffffffffffffffffffffffffffffffff1681526020019081526020016000206000828254612852919061461c565b92505081905550816002600083815260200190815260200160002060006101000a81548173ffffffffffffffffffffffffffffffffffffffff021916908373ffffffffffffffffffffffffffffffffffffffff160217905550808273ffffffffffffffffffffffffffffffffffffffff168473ffffffffffffffffffffffffffffffffffffffff167fddf252ad1be2c89b69c2b068fc378daa952ba7f163c4a11628f55a4df523b3ef60405160405180910390a4612911838383613229565b505050565b6000600660009054906101000a900473ffffffffffffffffffffffffffffffffffffffff16905081600660006101000a81548173ffffffffffffffffffffffffffffffffffffffff021916908373ffffffffffffffffffffffffffffffffffffffff1602179055508173ffffffffffffffffffffffffffffffffffffffff168173ffffffffffffffffffffffffffffffffffffffff167f8be0079c531659141344cd1fd0a4f28419497f9722a3daafe3b4186f6b6457e060405160405180910390a35050565b60006129e6612510565b73ffffffffffffffffffffffffffffffffffffffff16612a04611663565b73ffffffffffffffffffffffffffffffffffffffff1614612a5a576040517f08c379a0000000000000000000000000000000000000000000000000000000008152600401612a51906143e1565b60405180910390fd5b6000601c60008573ffffffffffffffffffffffffffffffffffffffff1673ffffffffffffffffffffffffffffffffffffffff168152602001908152602001600020805480602002602001604051908101604052809291908181526020018280548015612ae557602002820191906000526020600020905b815481526020019060010190808311612ad1575b5050505050905060005b8151811015612b975783828281518110612b0c57612b0b6149e8565b5b60200260200101511415612b8457601c60008673ffffffffffffffffffffffffffffffffffffffff1673ffffffffffffffffffffffffffffffffffffffff1681526020019081526020016000208181548110612b6b57612b6a6149e8565b5b9060005260206000200160009055600192505050612b9e565b8080612b8f906148e1565b915050612aef565b5060009150505b92915050565b6000612baf8261135a565b9050612bbd81600084613224565b612bc8600083612518565b6001600360008373ffffffffffffffffffffffffffffffffffffffff1673ffffffffffffffffffffffffffffffffffffffff1681526020019081526020016000206000828254612c1891906146fd565b925050819055506002600083815260200190815260200160002060006101000a81549073ffffffffffffffffffffffffffffffffffffffff021916905581600073ffffffffffffffffffffffffffffffffffffffff168273ffffffffffffffffffffffffffffffffffffffff167fddf252ad1be2c89b69c2b068fc378daa952ba7f163c4a11628f55a4df523b3ef60405160405180910390a4612cbd81600084613229565b5050565b8173ffffffffffffffffffffffffffffffffffffffff168373ffffffffffffffffffffffffffffffffffffffff161415612d30576040517f08c379a0000000000000000000000000000000000000000000000000000000008152600401612d27906142e1565b60405180910390fd5b80600560008573ffffffffffffffffffffffffffffffffffffffff1673ffffffffffffffffffffffffffffffffffffffff16815260200190815260200160002060008473ffffffffffffffffffffffffffffffffffffffff1673ffffffffffffffffffffffffffffffffffffffff16815260200190815260200160002060006101000a81548160ff0219169083151502179055508173ffffffffffffffffffffffffffffffffffffffff168373ffffffffffffffffffffffffffffffffffffffff167f17307eab39ab6107e8899845ad3d59bd9653f200f220920489ca2b5937696c3183604051612e219190614164565b60405180910390a3505050565b6000818311612e3f57829050612e87565b6000821415612e83576040517f08c379a0000000000000000000000000000000000000000000000000000000008152600401612e7a906141e1565b60405180910390fd5b8190505b92915050565b600073ffffffffffffffffffffffffffffffffffffffff168273ffffffffffffffffffffffffffffffffffffffff161415612efd576040517f08c379a0000000000000000000000000000000000000000000000000000000008152600401612ef490614381565b60405180910390fd5b612f06816124a4565b15612f46576040517f08c379a0000000000000000000000000000000000000000000000000000000008152600401612f3d90614261565b60405180910390fd5b612f5260008383613224565b6001600360008473ffffffffffffffffffffffffffffffffffffffff1673ffffffffffffffffffffffffffffffffffffffff1681526020019081526020016000206000828254612fa2919061461c565b92505081905550816002600083815260200190815260200160002060006101000a81548173ffffffffffffffffffffffffffffffffffffffff021916908373ffffffffffffffffffffffffffffffffffffffff160217905550808273ffffffffffffffffffffffffffffffffffffffff16600073ffffffffffffffffffffffffffffffffffffffff167fddf252ad1be2c89b69c2b068fc378daa952ba7f163c4a11628f55a4df523b3ef60405160405180910390a461306360008383613229565b5050565b6130728484846126af565b61307e8484848461322e565b6130bd576040517f08c379a00000000000000000000000000000000000000000000000000000000081526004016130b4906141c1565b60405180910390fd5b50505050565b6060600082141561310b576040518060400160405280600181526020017f3000000000000000000000000000000000000000000000000000000000000000815250905061321f565b600082905060005b6000821461313d578080613126906148e1565b915050600a826131369190614672565b9150613113565b60008167ffffffffffffffff81111561315957613158614a17565b5b6040519080825280601f01601f19166020018201604052801561318b5781602001600182028036833780820191505090505b5090505b60008514613218576001826131a491906146fd565b9150600a856131b3919061492a565b60306131bf919061461c565b60f81b8183815181106131d5576131d46149e8565b5b60200101907effffffffffffffffffffffffffffffffffffffffffffffffffffffffffffff1916908160001a905350600a856132119190614672565b945061318f565b8093505050505b919050565b505050565b505050565b600061324f8473ffffffffffffffffffffffffffffffffffffffff166133c5565b156133b8578373ffffffffffffffffffffffffffffffffffffffff1663150b7a02613278612510565b8786866040518563ffffffff1660e01b815260040161329a94939291906140ef565b602060405180830381600087803b1580156132b457600080fd5b505af19250505080156132e557506040513d601f19601f820116820180604052508101906132e29190613964565b60015b613368573d8060008114613315576040519150601f19603f3d011682016040523d82523d6000602084013e61331a565b606091505b50600081511415613360576040517f08c379a0000000000000000000000000000000000000000000000000000000008152600401613357906141c1565b60405180910390fd5b805181602001fd5b63150b7a0260e01b7bffffffffffffffffffffffffffffffffffffffffffffffffffffffff1916817bffffffffffffffffffffffffffffffffffffffffffffffffffffffff1916149150506133bd565b600190505b949350505050565b6000808273ffffffffffffffffffffffffffffffffffffffff163b119050919050565b8280546133f49061487e565b90600052602060002090601f016020900481019282613416576000855561345d565b82601f1061342f57805160ff191683800117855561345d565b8280016001018555821561345d579182015b8281111561345c578251825591602001919060010190613441565b5b50905061346a919061346e565b5090565b5b8082111561348757600081600090555060010161346f565b5090565b600061349e61349984614557565b614532565b9050828152602081018484840111156134ba576134b9614a55565b5b6134c584828561483c565b509392505050565b60006134e06134db84614588565b614532565b9050828152602081018484840111156134fc576134fb614a55565b5b61350784828561483c565b509392505050565b60008135905061351e8161506d565b92915050565b60008135905061353381615084565b92915050565b60008083601f84011261354f5761354e614a4b565b5b8235905067ffffffffffffffff81111561356c5761356b614a46565b5b60208301915083602082028301111561358857613587614a50565b5b9250929050565b60008135905061359e8161509b565b92915050565b6000813590506135b3816150b2565b92915050565b6000815190506135c8816150b2565b92915050565b600082601f8301126135e3576135e2614a4b565b5b81356135f384826020860161348b565b91505092915050565b600082601f83011261361157613610614a4b565b5b81356136218482602086016134cd565b91505092915050565b600081359050613639816150c9565b92915050565b60008135905061364e816150e0565b92915050565b60006020828403121561366a57613669614a5f565b5b60006136788482850161350f565b91505092915050565b60006020828403121561369757613696614a5f565b5b60006136a584828501613524565b91505092915050565b600080604083850312156136c5576136c4614a5f565b5b60006136d38582860161350f565b92505060206136e48582860161350f565b9150509250929050565b60008060006060848603121561370757613706614a5f565b5b60006137158682870161350f565b93505060206137268682870161350f565b92505060406137378682870161362a565b9150509250925092565b6000806000806080858703121561375b5761375a614a5f565b5b60006137698782880161350f565b945050602061377a8782880161350f565b935050604061378b8782880161362a565b925050606085013567ffffffffffffffff8111156137ac576137ab614a5a565b5b6137b8878288016135ce565b91505092959194509250565b600080604083850312156137db576137da614a5f565b5b60006137e98582860161350f565b92505060206137fa8582860161358f565b9150509250929050565b6000806040838503121561381b5761381a614a5f565b5b60006138298582860161350f565b925050602061383a8582860161362a565b9150509250929050565b6000806040838503121561385b5761385a614a5f565b5b60006138698582860161350f565b925050602061387a8582860161363f565b9150509250929050565b60008060006060848603121561389d5761389c614a5f565b5b60006138ab8682870161350f565b93505060206138bc8682870161363f565b92505060406138cd8682870161362a565b9150509250925092565b6000806000604084860312156138f0576138ef614a5f565b5b600084013567ffffffffffffffff81111561390e5761390d614a5a565b5b61391a86828701613539565b9350935050602061392d8682870161358f565b9150509250925092565b60006020828403121561394d5761394c614a5f565b5b600061395b848285016135a4565b91505092915050565b60006020828403121561397a57613979614a5f565b5b6000613988848285016135b9565b91505092915050565b6000602082840312156139a7576139a6614a5f565b5b600082013567ffffffffffffffff8111156139c5576139c4614a5a565b5b6139d1848285016135fc565b91505092915050565b600080600080608085870312156139f4576139f3614a5f565b5b600085013567ffffffffffffffff811115613a1257613a11614a5a565b5b613a1e878288016135fc565b9450506020613a2f8782880161350f565b9350506040613a408782880161363f565b9250506060613a518782880161362a565b91505092959194509250565b600060208284031215613a7357613a72614a5f565b5b6000613a818482850161362a565b91505092915050565b60008060408385031215613aa157613aa0614a5f565b5b6000613aaf8582860161362a565b9250506020613ac08582860161363f565b9150509250929050565b600060208284031215613ae057613adf614a5f565b5b6000613aee8482850161363f565b91505092915050565b613b00816147ab565b82525050565b613b0f81614799565b82525050565b613b1e816147bd565b82525050565b6000613b2f826145ce565b613b3981856145e4565b9350613b4981856020860161484b565b613b5281614a64565b840191505092915050565b6000613b68826145d9565b613b728185614600565b9350613b8281856020860161484b565b613b8b81614a64565b840191505092915050565b6000613ba1826145d9565b613bab8185614611565b9350613bbb81856020860161484b565b80840191505092915050565b60008154613bd48161487e565b613bde8186614611565b94506001821660008114613bf95760018114613c0a57613c3d565b60ff19831686528186019350613c3d565b613c13856145b9565b60005b83811015613c3557815481890152600182019150602081019050613c16565b838801955050505b50505092915050565b6000613c53601983614600565b9150613c5e82614a75565b602082019050919050565b6000613c76603283614600565b9150613c8182614a9e565b604082019050919050565b6000613c99601783614600565b9150613ca482614aed565b602082019050919050565b6000613cbc602683614600565b9150613cc782614b16565b604082019050919050565b6000613cdf601283614600565b9150613cea82614b65565b602082019050919050565b6000613d02602583614600565b9150613d0d82614b8e565b604082019050919050565b6000613d25601c83614600565b9150613d3082614bdd565b602082019050919050565b6000613d48601483614600565b9150613d5382614c06565b602082019050919050565b6000613d6b601d83614600565b9150613d7682614c2f565b602082019050919050565b6000613d8e602483614600565b9150613d9982614c58565b604082019050919050565b6000613db1601983614600565b9150613dbc82614ca7565b602082019050919050565b6000613dd4602c83614600565b9150613ddf82614cd0565b604082019050919050565b6000613df7603883614600565b9150613e0282614d1f565b604082019050919050565b6000613e1a602a83614600565b9150613e2582614d6e565b604082019050919050565b6000613e3d602983614600565b9150613e4882614dbd565b604082019050919050565b6000613e60602083614600565b9150613e6b82614e0c565b602082019050919050565b6000613e83602c83614600565b9150613e8e82614e35565b604082019050919050565b6000613ea6601283614600565b9150613eb182614e84565b602082019050919050565b6000613ec9600583614611565b9150613ed482614ead565b600582019050919050565b6000613eec602083614600565b9150613ef782614ed6565b602082019050919050565b6000613f0f602183614600565b9150613f1a82614eff565b604082019050919050565b6000613f326000836145f5565b9150613f3d82614f4e565b600082019050919050565b6000613f55601083614600565b9150613f6082614f51565b602082019050919050565b6000613f78603183614600565b9150613f8382614f7a565b604082019050919050565b6000613f9b601083614600565b9150613fa682614fc9565b602082019050919050565b6000613fbe601a83614600565b9150613fc982614ff2565b602082019050919050565b6000613fe1601f83614600565b9150613fec8261501b565b602082019050919050565b6000614004601783614600565b915061400f82615044565b602082019050919050565b61402381614815565b82525050565b6140328161481f565b82525050565b6140418161482f565b82525050565b60006140538284613b96565b915081905092915050565b600061406a8284613bc7565b915081905092915050565b60006140818285613bc7565b915061408d8284613b96565b915061409882613ebc565b91508190509392505050565b60006140af82613f25565b9150819050919050565b60006020820190506140ce6000830184613b06565b92915050565b60006020820190506140e96000830184613af7565b92915050565b60006080820190506141046000830187613b06565b6141116020830186613b06565b61411e604083018561401a565b81810360608301526141308184613b24565b905095945050505050565b60006040820190506141506000830185613b06565b61415d602083018461401a565b9392505050565b60006020820190506141796000830184613b15565b92915050565b600060208201905081810360008301526141998184613b5d565b905092915050565b600060208201905081810360008301526141ba81613c46565b9050919050565b600060208201905081810360008301526141da81613c69565b9050919050565b600060208201905081810360008301526141fa81613c8c565b9050919050565b6000602082019050818103600083015261421a81613caf565b9050919050565b6000602082019050818103600083015261423a81613cd2565b9050919050565b6000602082019050818103600083015261425a81613cf5565b9050919050565b6000602082019050818103600083015261427a81613d18565b9050919050565b6000602082019050818103600083015261429a81613d3b565b9050919050565b600060208201905081810360008301526142ba81613d5e565b9050919050565b600060208201905081810360008301526142da81613d81565b9050919050565b600060208201905081810360008301526142fa81613da4565b9050919050565b6000602082019050818103600083015261431a81613dc7565b9050919050565b6000602082019050818103600083015261433a81613dea565b9050919050565b6000602082019050818103600083015261435a81613e0d565b9050919050565b6000602082019050818103600083015261437a81613e30565b9050919050565b6000602082019050818103600083015261439a81613e53565b9050919050565b600060208201905081810360008301526143ba81613e76565b9050919050565b600060208201905081810360008301526143da81613e99565b9050919050565b600060208201905081810360008301526143fa81613edf565b9050919050565b6000602082019050818103600083015261441a81613f02565b9050919050565b6000602082019050818103600083015261443a81613f48565b9050919050565b6000602082019050818103600083015261445a81613f6b565b9050919050565b6000602082019050818103600083015261447a81613f8e565b9050919050565b6000602082019050818103600083015261449a81613fb1565b9050919050565b600060208201905081810360008301526144ba81613fd4565b9050919050565b600060208201905081810360008301526144da81613ff7565b9050919050565b60006020820190506144f6600083018461401a565b92915050565b60006020820190506145116000830184614029565b92915050565b600060208201905061452c6000830184614038565b92915050565b600061453c61454d565b905061454882826148b0565b919050565b6000604051905090565b600067ffffffffffffffff82111561457257614571614a17565b5b61457b82614a64565b9050602081019050919050565b600067ffffffffffffffff8211156145a3576145a2614a17565b5b6145ac82614a64565b9050602081019050919050565b60008190508160005260206000209050919050565b600081519050919050565b600081519050919050565b600082825260208201905092915050565b600081905092915050565b600082825260208201905092915050565b600081905092915050565b600061462782614815565b915061463283614815565b9250827fffffffffffffffffffffffffffffffffffffffffffffffffffffffffffffffff038211156146675761466661495b565b5b828201905092915050565b600061467d82614815565b915061468883614815565b9250826146985761469761498a565b5b828204905092915050565b60006146ae82614815565b91506146b983614815565b9250817fffffffffffffffffffffffffffffffffffffffffffffffffffffffffffffffff04831182151516156146f2576146f161495b565b5b828202905092915050565b600061470882614815565b915061471383614815565b9250828210156147265761472561495b565b5b828203905092915050565b600061473c8261481f565b91506147478361481f565b92508282101561475a5761475961495b565b5b828203905092915050565b60006147708261482f565b915061477b8361482f565b92508282101561478e5761478d61495b565b5b828203905092915050565b60006147a4826147f5565b9050919050565b60006147b6826147f5565b9050919050565b60008115159050919050565b60007fffffffff0000000000000000000000000000000000000000000000000000000082169050919050565b600073ffffffffffffffffffffffffffffffffffffffff82169050919050565b6000819050919050565b600063ffffffff82169050919050565b600060ff82169050919050565b82818337600083830152505050565b60005b8381101561486957808201518184015260208101905061484e565b83811115614878576000848401525b50505050565b6000600282049050600182168061489657607f821691505b602082108114156148aa576148a96149b9565b5b50919050565b6148b982614a64565b810181811067ffffffffffffffff821117156148d8576148d7614a17565b5b80604052505050565b60006148ec82614815565b91507fffffffffffffffffffffffffffffffffffffffffffffffffffffffffffffffff82141561491f5761491e61495b565b5b600182019050919050565b600061493582614815565b915061494083614815565b9250826149505761494f61498a565b5b828206905092915050565b7f4e487b7100000000000000000000000000000000000000000000000000000000600052601160045260246000fd5b7f4e487b7100000000000000000000000000000000000000000000000000000000600052601260045260246000fd5b7f4e487b7100000000000000000000000000000000000000000000000000000000600052602260045260246000fd5b7f4e487b7100000000000000000000000000000000000000000000000000000000600052603260045260246000fd5b7f4e487b7100000000000000000000000000000000000000000000000000000000600052604160045260246000fd5b600080fd5b600080fd5b600080fd5b600080fd5b600080fd5b600080fd5b6000601f19601f8301169050919050565b7f436f756c64206e6f74206275726e2074686520746f6b656e2100000000000000600082015250565b7f4552433732313a207472616e7366657220746f206e6f6e20455243373231526560008201527f63656976657220696d706c656d656e7465720000000000000000000000000000602082015250565b7f4974656d20737570706c79206e6f7420656e6f75676821000000000000000000600082015250565b7f4f776e61626c653a206e6577206f776e657220697320746865207a65726f206160008201527f6464726573730000000000000000000000000000000000000000000000000000602082015250565b7f4974656d206e6f74206275726e61626c65210000000000000000000000000000600082015250565b7f4552433732313a207472616e736665722066726f6d20696e636f72726563742060008201527f6f776e6572000000000000000000000000000000000000000000000000000000602082015250565b7f4552433732313a20746f6b656e20616c7265616479206d696e74656400000000600082015250565b7f4e6f7420657861637420636f696e2073656e6421000000000000000000000000600082015250565b7f4d6178206f776e61626c65207175616e74697479207265616368656421000000600082015250565b7f4552433732313a207472616e7366657220746f20746865207a65726f2061646460008201527f7265737300000000000000000000000000000000000000000000000000000000602082015250565b7f4552433732313a20617070726f766520746f2063616c6c657200000000000000600082015250565b7f4552433732313a206f70657261746f7220717565727920666f72206e6f6e657860008201527f697374656e7420746f6b656e0000000000000000000000000000000000000000602082015250565b7f4552433732313a20617070726f76652063616c6c6572206973206e6f74206f7760008201527f6e6572206e6f7220617070726f76656420666f7220616c6c0000000000000000602082015250565b7f4552433732313a2062616c616e636520717565727920666f7220746865207a6560008201527f726f206164647265737300000000000000000000000000000000000000000000602082015250565b7f4552433732313a206f776e657220717565727920666f72206e6f6e657869737460008201527f656e7420746f6b656e0000000000000000000000000000000000000000000000602082015250565b7f4552433732313a206d696e7420746f20746865207a65726f2061646472657373600082015250565b7f4552433732313a20617070726f76656420717565727920666f72206e6f6e657860008201527f697374656e7420746f6b656e0000000000000000000000000000000000000000602082015250565b7f4e6f6e6578697374656e7420746f6b656e210000000000000000000000000000600082015250565b7f2e6a736f6e000000000000000000000000000000000000000000000000000000600082015250565b7f4f776e61626c653a2063616c6c6572206973206e6f7420746865206f776e6572600082015250565b7f4552433732313a20617070726f76616c20746f2063757272656e74206f776e6560008201527f7200000000000000000000000000000000000000000000000000000000000000602082015250565b50565b7f5472616e73666572206661696c65642e00000000000000000000000000000000600082015250565b7f4552433732313a207472616e736665722063616c6c6572206973206e6f74206f60008201527f776e6572206e6f7220617070726f766564000000000000000000000000000000602082015250565b7f546f6b656e206e6f74206d617463682100000000000000000000000000000000600082015250565b7f43616c6c6572206973206e6f7420616c6c6f77206c6973746564000000000000600082015250565b7f5265656e7472616e637947756172643a207265656e7472616e742063616c6c00600082015250565b7f4974656d2054797065206f7574206f662073636f706521000000000000000000600082015250565b61507681614799565b811461508157600080fd5b50565b61508d816147ab565b811461509857600080fd5b50565b6150a4816147bd565b81146150af57600080fd5b50565b6150bb816147c9565b81146150c657600080fd5b50565b6150d281614815565b81146150dd57600080fd5b50565b6150e98161482f565b81146150f457600080fd5b5056fea26469706673582212202628dce0df5f6f85889acc67e719878956fa1b9d16e9d6bdede7cfa2876f551164736f6c63430008070033",
  "immutableReferences": {},
  "source": "// SPDX-License-Identifier: MIT\r\npragma solidity ^0.8.2;\r\n\r\nimport \"@openzeppelin/contracts/token/ERC721/ERC721.sol\";\r\nimport \"@openzeppelin/contracts/security/ReentrancyGuard.sol\";\r\nimport \"@openzeppelin/contracts/access/Ownable.sol\";\r\n\r\ncontract Item is ERC721, Ownable, ReentrancyGuard {\r\n    using Strings for uint256;\r\n\r\n    address payable public paymentContractAddress;\r\n\r\n    mapping(address => bool) public isAllowlistAddress;\r\n\r\n    uint8[7] public itemBurnable = [1, 0, 0, 0, 0, 0, 0];\r\n    uint8[7] public itemTypes = [1, 2, 3, 4, 5, 6, 7];\r\n    uint8[7] public maxOwnable = [10, 1, 1, 1, 1, 1, 1];\r\n    uint32[7] public itemSupplies = [2500, 2500, 1000, 1000, 1000, 1000, 1000];\r\n\r\n    uint256[7] private itemFloor = [\r\n        0.12 ether,\r\n        0.25 ether,\r\n        0.04 ether,\r\n        0.04 ether,\r\n        0.04 ether,\r\n        0.04 ether,\r\n        0.04 ether\r\n    ];\r\n    uint256 private tokenIds;\r\n    uint256 public itemTotalSupply = 10000;\r\n\r\n    string private itemBaseURI;\r\n    string private baseURI;\r\n    string private passWord = \"MADECHANGE\";\r\n    bool private onlyAllowList = true;\r\n\r\n    mapping(uint256 => uint8) public tokenItemTypes;\r\n    mapping(address => uint256[]) public tokenOwner; // Represents owner's tokens *tokenIds\r\n    mapping(address => mapping(uint8 => uint256[])) public tokenOwners; // Represents owner's different type of tokens' ids\r\n\r\n    ///////////////////////////////////////////////////////////////////////////\r\n    // Events\r\n    ///////////////////////////////////////////////////////////////////////////\r\n    event ReceivedEth(address _sender, uint256 _value);\r\n    event ItemMinted(address _reciever, uint256 _tokenId);\r\n    event BurnItem(address _burner, uint256 _tokenId);\r\n\r\n    ///////////////////////////////////////////////////////////////////////////\r\n    // Cons\r\n    ///////////////////////////////////////////////////////////////////////////\r\n    constructor() payable ERC721(\"Metamon Item Collection\", \"NFT\") {}\r\n\r\n    fallback() external payable {}\r\n\r\n    receive() external payable {\r\n        emit ReceivedEth(msg.sender, msg.value);\r\n    }\r\n\r\n    ///////////////////////////////////////////////////////////////////////////\r\n    // Pre-Function Conditions\r\n    ///////////////////////////////////////////////////////////////////////////\r\n    modifier itemType(uint256 _itemType) {\r\n        require(1 <= _itemType && _itemType <= 7, \"Item Type out of scope!\");\r\n        _;\r\n    }\r\n\r\n    modifier passCheck(string memory _passCode) {\r\n        // This modifier limits the access into mintFunction\r\n        require(\r\n            keccak256(abi.encodePacked(_passCode)) ==\r\n                keccak256(abi.encodePacked(passWord)),\r\n            \"Token not match!\"\r\n        );\r\n        _;\r\n    }\r\n\r\n    ///////////////////////////////////////////////////////////////////////////\r\n    // Allow List Functions\r\n    ///////////////////////////////////////////////////////////////////////////\r\n    function allowlistAddresses(address[] calldata wAddresses, bool allow)\r\n        external\r\n        onlyOwner\r\n    {\r\n        for (uint256 i = 0; i < wAddresses.length; i++) {\r\n            isAllowlistAddress[wAddresses[i]] = allow;\r\n        }\r\n    }\r\n\r\n    function allowlistAddress(address wAddress, bool allow) external onlyOwner {\r\n        isAllowlistAddress[wAddress] = allow;\r\n    }\r\n\r\n    function toggleOnlyAllowList() external onlyOwner {\r\n        onlyAllowList = !onlyAllowList;\r\n    }\r\n\r\n    ///////////////////////////////////////////////////////////////////////////\r\n    // Get/Set State Changes\r\n    ///////////////////////////////////////////////////////////////////////////\r\n    function changeFloorPrice(uint256 _new_price, uint8 _itemType)\r\n        external\r\n        onlyOwner\r\n        itemType(_itemType)\r\n    {\r\n        itemFloor[_itemType - 1] = _new_price;\r\n    }\r\n\r\n    function getFloorPrice(uint8 _itemType)\r\n        public\r\n        view\r\n        itemType(_itemType)\r\n        returns (uint256)\r\n    {\r\n        return itemFloor[_itemType - 1];\r\n    }\r\n\r\n    function getSupplyLeft(uint8 _itemType)\r\n        public\r\n        view\r\n        itemType(_itemType)\r\n        returns (uint256)\r\n    {\r\n        return itemSupplies[_itemType - 1];\r\n    }\r\n\r\n    function specificItemOwnership(address _owner, uint8 _itemType)\r\n        public\r\n        view\r\n        returns (uint256)\r\n    {\r\n        // check whether owner owns specific ITEM token\r\n        uint256 total_ownership = tokenOwners[_owner][_itemType].length;\r\n        return total_ownership;\r\n    }\r\n\r\n    function mintableLeft(uint256 _quantity, uint256 _itemSupplyLeft)\r\n        internal\r\n        pure\r\n        returns (uint256)\r\n    {\r\n        if (_quantity <= _itemSupplyLeft) {\r\n            return _quantity;\r\n        } else {\r\n            if (_itemSupplyLeft == 0) {\r\n                revert(\"Item supply not enough!\");\r\n            } else {\r\n                return _itemSupplyLeft;\r\n            }\r\n        }\r\n    }\r\n\r\n    function totalItemTypes() public view returns (uint256) {\r\n        return itemTypes.length;\r\n    }\r\n\r\n    function setPayableAddress(address payable _paymentContractAddress)\r\n        external\r\n        onlyOwner\r\n    {\r\n        paymentContractAddress = _paymentContractAddress;\r\n    }\r\n\r\n    ///////////////////////////////////////////////////////////////////////////\r\n    // Burn Tokens\r\n    ///////////////////////////////////////////////////////////////////////////\r\n    function _deleteOwnerToken(address _burner, uint256 _tokenId)\r\n        internal\r\n        onlyOwner\r\n        returns (bool)\r\n    {\r\n        // TODO: redundant function, change it with ownerOf() -> when the item will be burned it will be automatically removed\r\n        uint256[] memory tokens = tokenOwner[_burner];\r\n        for (uint256 i = 0; i < tokens.length; i++) {\r\n            if (tokens[i] == _tokenId) {\r\n                delete tokenOwner[_burner][i];\r\n                return true;\r\n            }\r\n        }\r\n        return false;\r\n    }\r\n\r\n    // TODO: Only tokens owned by the holder can be burned by the holder\r\n    function burn(address _burner, uint256 _tokenId) public {\r\n        uint8 _tokenType = tokenItemTypes[_tokenId];\r\n        require(itemBurnable[_tokenType - 1] == 1, \"Item not burnable!\");\r\n\r\n        if (_deleteOwnerToken(_burner, _tokenId)) {\r\n            _burn(_tokenId);\r\n            emit BurnItem(_burner, _tokenId);\r\n        } else {\r\n            revert(\"Could not burn the token!\");\r\n        }\r\n    }\r\n\r\n    ///////////////////////////////////////////////////////////////////////////\r\n    // Mint Tokens\r\n    ///////////////////////////////////////////////////////////////////////////\r\n    function mintSale(\r\n        string memory _passCode,\r\n        address _recipient,\r\n        uint8 _itemType,\r\n        uint256 _quantity\r\n    ) external payable passCheck(_passCode) nonReentrant {\r\n        //Checks if address is allow listed\r\n        if (onlyAllowList && msg.sender != owner()) {\r\n            require(\r\n                isAllowlistAddress[msg.sender],\r\n                \"Caller is not allow listed\"\r\n            );\r\n        }\r\n\r\n        uint256 _itemSupplyLeft = getSupplyLeft(_itemType);\r\n\r\n        uint256 _totalOwned = specificItemOwnership(_recipient, _itemType);\r\n        uint256 _maxOwnable = maxOwnable[_itemType - 1];\r\n        require(\r\n            _totalOwned + _quantity <= _maxOwnable,\r\n            \"Max ownable quantity reached!\"\r\n        );\r\n\r\n        uint256 _itemFloor = getFloorPrice(_itemType);\r\n\r\n        uint256 _maxMintable = mintableLeft(_quantity, _itemSupplyLeft);\r\n        if (msg.sender != owner()) {\r\n            require(\r\n                _maxMintable * _itemFloor <= msg.value,\r\n                \"Not exact coin send!\"\r\n            );\r\n        }\r\n\r\n        uint256 j = tokenIds;\r\n\r\n        for (uint256 i = 0; i < _quantity; i++) {\r\n            j++;\r\n            _mint(_recipient, j);\r\n            tokenOwners[_recipient][_itemType].push(j);\r\n            tokenOwner[_recipient].push(j);\r\n            tokenItemTypes[j] = _itemType;\r\n            itemSupplies[_itemType - 1] = itemSupplies[_itemType - 1] - 1;\r\n            emit ItemMinted(_recipient, j);\r\n        }\r\n        tokenIds = j;\r\n    }\r\n\r\n    ///////////////////////////////////////////////////////////////////////////\r\n    // Backend URIs\r\n    ///////////////////////////////////////////////////////////////////////////\r\n    function setBaseURI(string memory _baseURILink) external onlyOwner {\r\n        baseURI = _baseURILink;\r\n    }\r\n\r\n    function getBaseURI() external view onlyOwner returns (string memory) {\r\n        return baseURI;\r\n    }\r\n\r\n    function _baseURI() internal view virtual override returns (string memory) {\r\n        return baseURI;\r\n    }\r\n\r\n    function tokenURI(uint256 tokenId)\r\n        public\r\n        view\r\n        virtual\r\n        override\r\n        returns (string memory)\r\n    {\r\n        require(_exists(tokenId), \"Nonexistent token!\");\r\n\r\n        return\r\n            bytes(baseURI).length > 0\r\n                ? string(abi.encodePacked(baseURI, tokenId.toString(), \".json\"))\r\n                : \"\";\r\n    }\r\n\r\n    ///////////////////////////////////////////////////////////////////////////\r\n    // Withdraw\r\n    ///////////////////////////////////////////////////////////////////////////\r\n    function withdraw() external onlyOwner nonReentrant {\r\n        (bool success, ) = paymentContractAddress.call{\r\n            value: address(this).balance\r\n        }(\"\");\r\n        require(success, \"Transfer failed.\");\r\n    }\r\n}\r\n",
  "sourcePath": "W:\\NFTS\\Metamon\\metamon_contracts\\contracts\\Item.sol",
  "compiler": {
    "name": "solc",
    "version": "0.8.7+commit.e28d00a7.Emscripten.clang"
  },
  "schemaVersion": "3.4.6",
  "updatedAt": "2022-03-27T21:41:49.924Z",
  "networkType": "ethereum",
  "devdoc": {
    "kind": "dev",
    "methods": {
      "approve(address,uint256)": {
        "details": "See {IERC721-approve}."
      },
      "balanceOf(address)": {
        "details": "See {IERC721-balanceOf}."
      },
      "getApproved(uint256)": {
        "details": "See {IERC721-getApproved}."
      },
      "isApprovedForAll(address,address)": {
        "details": "See {IERC721-isApprovedForAll}."
      },
      "name()": {
        "details": "See {IERC721Metadata-name}."
      },
      "owner()": {
        "details": "Returns the address of the current owner."
      },
      "ownerOf(uint256)": {
        "details": "See {IERC721-ownerOf}."
      },
      "renounceOwnership()": {
        "details": "Leaves the contract without owner. It will not be possible to call `onlyOwner` functions anymore. Can only be called by the current owner. NOTE: Renouncing ownership will leave the contract without an owner, thereby removing any functionality that is only available to the owner."
      },
      "safeTransferFrom(address,address,uint256)": {
        "details": "See {IERC721-safeTransferFrom}."
      },
      "safeTransferFrom(address,address,uint256,bytes)": {
        "details": "See {IERC721-safeTransferFrom}."
      },
      "setApprovalForAll(address,bool)": {
        "details": "See {IERC721-setApprovalForAll}."
      },
      "supportsInterface(bytes4)": {
        "details": "See {IERC165-supportsInterface}."
      },
      "symbol()": {
        "details": "See {IERC721Metadata-symbol}."
      },
      "tokenURI(uint256)": {
        "details": "See {IERC721Metadata-tokenURI}."
      },
      "transferFrom(address,address,uint256)": {
        "details": "See {IERC721-transferFrom}."
      },
      "transferOwnership(address)": {
        "details": "Transfers ownership of the contract to a new account (`newOwner`). Can only be called by the current owner."
      }
    },
    "version": 1
  },
  "userdoc": {
    "kind": "user",
    "methods": {},
    "version": 1
  }
}