{
  "contractName": "Item",
  "abi": [
    {
      "inputs": [
        {
          "internalType": "uint8",
          "name": "_itemType",
          "type": "uint8"
        }
      ],
      "name": "getFloorPrice",
      "outputs": [
        {
          "internalType": "uint256",
          "name": "",
          "type": "uint256"
        }
      ],
      "stateMutability": "view",
      "type": "function",
      "constant": true
    }
  ],
  "bytecode": "0x608060405234801561001057600080fd5b5061011e806100206000396000f3fe6080604052348015600f57600080fd5b506004361060285760003560e01c8063486fc6d314602d575b600080fd5b60436004803603810190603f91906071565b6057565b604051604e919060a4565b60405180910390f35b6000919050565b600081359050606b8160d4565b92915050565b600060208284031215608257600080fd5b6000608e84828501605e565b91505092915050565b609e8160bd565b82525050565b600060208201905060b760008301846097565b92915050565b6000819050919050565b600060ff82169050919050565b60db8160c7565b811460e557600080fd5b5056fea2646970667358221220510b24c93c89c53a2fa34fc46c3e4adc54cd26b1499c005a4bad72f381771d3064736f6c63430008020033",
  "immutableReferences": {},
  "source": "// SPDX-License-Identifier: MIT\npragma solidity ^0.8.2;\nimport \"@openzeppelin/contracts/token/ERC721/ERC721.sol\";\n\ncontract Item {\n    function getFloorPrice(uint8 _itemType) public view returns (uint256) {}\n}\n\n\n// Pick during the meeting 1/10000\n// Shiny logic \n// Before the personalities in 1/10 chance call the chainlink contract \n// Batch actions\n\ncontract Metamon is ERC721 {\n    using Strings for uint256;\n    address payable public owner;\n    Item _item;\n\n    string private itemBaseURI;\n    string private metamonBaseURI;\n    string private baseURI;\n\n    event ReceivedEth(address _reciever, uint256 _value);\n    event MetamonMint(uint256 _tokenId, address _reciever);\n\n    uint256[7] private itemtokenTypes = [1, 2, 3, 4, 5, 6, 7]; // REPR: 7 UNIQUE ITEMS\n    uint256[7] private itemtokenSupply = [\n        1000,\n        2500,\n        1000,\n        2000,\n        3000,\n        5000,\n        2000\n    ];\n    uint256[7] private itemtokenIds = [1, 1, 1, 1, 1, 1, 1];\n    uint256[7] private itemtokenFloor = [\n        0.01 ether,\n        0.02 ether,\n        0.03 ether,\n        0.04 ether,\n        0.05 ether,\n        0.06 ether,\n        0.07 ether\n    ];\n\n    uint256[6] private metamonDax = [1, 2, 3, 4, 5, 6]; // REPR: METAMONT DEX NUMBERS\n    uint256[6] private metamonSupply = [1000, 2000, 1000, 3000, 4000, 1000];\n    uint256[6] private metamontIds = [1, 1, 1, 1, 1, 1];\n    uint256[7] private metamonFloor = [\n        .05 ether,\n        .025 ether,\n        0.035 ether,\n        0.045 ether,\n        0.055 ether,\n        0.065 ether,\n        0.075 ether\n    ];\n    uint256 _tokenIds;\n\n    mapping(uint256 => uint256) private familyMetamon;\n\n    mapping(uint256 => uint256) private itemEvaluation;\n    mapping(uint256 => uint256) private burnEvaluation;\n\n    mapping(address => uint256) private _collectedItems; // MINTING FIRST CHECK IF ADDRESS COLLEDTED ANY ITEMS BEFORE\n    mapping(address => uint256) private _collectedDax; // TOTAL COLLECTED DAX ITEMS IMPORTANT TO IDENTIFY SHINY LOGIC\n\n    constructor() payable ERC721(\"Metamon NFT\", \"NFT\") {\n\n        owner = payable(msg.sender);\n        // FILLING INFORMATION OF METAMAN AND EVALUATION\n        burnEvaluation[1] = 3;\n        burnEvaluation[2] = 3;\n        familyMetamon[1] = 2;\n        familyMetamon[2] = 3;\n        // ****************\n        burnEvaluation[4] = 3;\n        burnEvaluation[5] = 3;\n        familyMetamon[4] = 5;\n        familyMetamon[5] = 6;\n    }\n\n    modifier onlyOwner(address sender) {\n        require(sender == owner, \"Not a owner call!\");\n        _;\n    }\n\n    // State Changes\n    function changeFloorPrice(\n        uint256 _new_price,\n        uint256 _type,\n        uint8 _index\n    )\n        external\n        // _type 1 represents \"ITEMS\" _type 2 represents \"Metamon\"\n        // _index tell which \"ITEM\" or \"Metamon\" starts from 0, 1, 2, 3, ... 7\n        onlyOwner(msg.sender)\n    {\n        if (_type == 1) {\n            itemtokenFloor[_index] = _new_price;\n        } else if (_type == 2) {\n            metamonFloor[_index] = _new_price;\n        }\n    }\n\n    function getFloorPrice(uint256 _type, uint8 _index)\n        external\n        view\n        onlyOwner(msg.sender)\n        returns (uint256)\n    {\n        if (_type == 1) {\n            return itemtokenFloor[_index];\n        } else if (_type == 2) {\n            return metamonFloor[_index];\n        }\n    }\n\n    // Get Information\n    function getWalletBalance()\n        public\n        view\n        onlyOwner(msg.sender)\n        returns (uint256)\n    {\n        return address(this).balance;\n    }\n\n    // Contract ETH Relationship\n    fallback() external payable {}\n\n    receive() external payable {\n        emit ReceivedEth(msg.sender, msg.value);\n    }\n\n    function transferContractBalance(\n        address payable _recipient,\n        uint256 _amount\n    ) external onlyOwner(msg.sender) returns (bool) {\n        require(_amount <= getWalletBalance(), \"Not Enough Balance!\");\n        _recipient.transfer(_amount);\n        return true;\n    }\n\n    // NFT Minting Related\n    function setBaseURI(string memory _baseURILink)\n        external\n        onlyOwner(msg.sender)\n    {\n        baseURI = _baseURILink;\n    }\n\n    function getBaseURI()\n        external\n        view\n        onlyOwner(msg.sender)\n        returns (string memory)\n    {\n        return baseURI;\n    }\n\n    function _baseURI() internal view virtual override returns (string memory) {\n        // We will have different baseURIs for Item and Metamon \n        // TODO: move items into different collection\n        return baseURI;\n    }\n\n    function tokenURI(uint256 tokenId)\n        public\n        view\n        virtual\n        override\n        returns (string memory)\n    {\n        require(_exists(tokenId), \"Nonexistent token!\");\n        // We can retrieve the information about token id \n        // -> is it Item or Metamon\n        // -> what is the dax number\n        // -> based on the information that we retrieve we will return base_uri\n        // TODO: move items into different collection\n\n        return\n            bytes(baseURI).length > 0\n                ? string(abi.encodePacked(baseURI, tokenId.toString(), \".json\"))\n                : \"\";\n    }\n\n    function burn(uint256 _value) public {\n        _burn(_value);\n    }\n\n    function mintSale(\n        address _recipient, \n        address _itemCA,\n        uint256 _quantity) public payable returns(uint256) {\n    //     require(\n    //         _quantity > 0 && _quantity <= (totalSupply - _tokenIds),\n    //         \"Not Enough Reserve!\"\n    //     );\n\n    //     if (msg.sender != owner) {\n    //         require(msg.value == florPrice * _quantity, \"Not Enough Balance!\");\n    //     }\n\n    // TODO: check if the dax number can be mintable based on the phases\n    // TODO: after minting make sure to push token information into mapping\n\n        _item = Item(_itemCA);\n        uint256 floor = _item.getFloorPrice(1);\n\n        return floor;\n        // uint256 j = _tokenIds;\n        // for (uint256 i = 0; i < _quantity; i++) {\n        //     j++;\n        //     _mint(_recipient, j);\n        //     emit MetamonMint(j, _recipient);\n        // }\n        // _tokenIds = j;\n    }\n\n    function evalutionMetaItem(address _recipient, uint256 _quantity) public {\n\n\n    }\n\n    function evalutionMetaBurn(\n        address _recipient, \n        uint256 _sendTokenId, \n        uint256 _sendDaxId, \n        // uint256, _quantitySend,  \n        uint256 _targetDax, \n        uint256 _itemTokenId\n        ) public {\n        // check whether owner has item token\n        \n        burn(_sendTokenId);\n        uint256 _evaluationToken = burnEvaluation[_sendDaxId];\n        uint256 _tokenIds = _tokenIds + 1;\n        _mint(_recipient, _tokenIds);\n\n\n    }\n}\n",
  "sourcePath": "/Users/aipek/Documents/metamon_contracts/contracts/Metamon.sol",
  "compiler": {
    "name": "solc",
    "version": "0.8.2+commit.661d1103.Emscripten.clang"
  },
  "schemaVersion": "3.4.4",
  "updatedAt": "2022-02-19T16:06:55.387Z",
  "networkType": "ethereum",
  "devdoc": {
    "kind": "dev",
    "methods": {},
    "version": 1
  },
  "userdoc": {
    "kind": "user",
    "methods": {},
    "version": 1
  }
}