{
  "contractName": "Metamon",
  "abi": [
    {
      "inputs": [],
      "stateMutability": "payable",
      "type": "constructor",
      "payable": true
    },
    {
      "anonymous": false,
      "inputs": [
        {
          "indexed": true,
          "internalType": "address",
          "name": "owner",
          "type": "address"
        },
        {
          "indexed": true,
          "internalType": "address",
          "name": "approved",
          "type": "address"
        },
        {
          "indexed": true,
          "internalType": "uint256",
          "name": "tokenId",
          "type": "uint256"
        }
      ],
      "name": "Approval",
      "type": "event"
    },
    {
      "anonymous": false,
      "inputs": [
        {
          "indexed": true,
          "internalType": "address",
          "name": "owner",
          "type": "address"
        },
        {
          "indexed": true,
          "internalType": "address",
          "name": "operator",
          "type": "address"
        },
        {
          "indexed": false,
          "internalType": "bool",
          "name": "approved",
          "type": "bool"
        }
      ],
      "name": "ApprovalForAll",
      "type": "event"
    },
    {
      "anonymous": false,
      "inputs": [
        {
          "indexed": false,
          "internalType": "uint256",
          "name": "_tokenId",
          "type": "uint256"
        },
        {
          "indexed": false,
          "internalType": "uint8",
          "name": "_dexId",
          "type": "uint8"
        },
        {
          "indexed": false,
          "internalType": "address",
          "name": "_burner",
          "type": "address"
        }
      ],
      "name": "MetamonBurn",
      "type": "event"
    },
    {
      "anonymous": false,
      "inputs": [
        {
          "indexed": false,
          "internalType": "uint256",
          "name": "_tokenId",
          "type": "uint256"
        },
        {
          "indexed": false,
          "internalType": "address",
          "name": "_reciever",
          "type": "address"
        }
      ],
      "name": "MetamonMint",
      "type": "event"
    },
    {
      "anonymous": false,
      "inputs": [
        {
          "indexed": false,
          "internalType": "address",
          "name": "_reciever",
          "type": "address"
        },
        {
          "indexed": false,
          "internalType": "uint256",
          "name": "_value",
          "type": "uint256"
        }
      ],
      "name": "ReceivedEth",
      "type": "event"
    },
    {
      "anonymous": false,
      "inputs": [
        {
          "indexed": true,
          "internalType": "address",
          "name": "from",
          "type": "address"
        },
        {
          "indexed": true,
          "internalType": "address",
          "name": "to",
          "type": "address"
        },
        {
          "indexed": true,
          "internalType": "uint256",
          "name": "tokenId",
          "type": "uint256"
        }
      ],
      "name": "Transfer",
      "type": "event"
    },
    {
      "stateMutability": "payable",
      "type": "fallback",
      "payable": true
    },
    {
      "inputs": [
        {
          "internalType": "address",
          "name": "to",
          "type": "address"
        },
        {
          "internalType": "uint256",
          "name": "tokenId",
          "type": "uint256"
        }
      ],
      "name": "approve",
      "outputs": [],
      "stateMutability": "nonpayable",
      "type": "function"
    },
    {
      "inputs": [
        {
          "internalType": "address",
          "name": "owner",
          "type": "address"
        }
      ],
      "name": "balanceOf",
      "outputs": [
        {
          "internalType": "uint256",
          "name": "",
          "type": "uint256"
        }
      ],
      "stateMutability": "view",
      "type": "function",
      "constant": true
    },
    {
      "inputs": [],
      "name": "currentMintPhase",
      "outputs": [
        {
          "internalType": "uint8",
          "name": "",
          "type": "uint8"
        }
      ],
      "stateMutability": "view",
      "type": "function",
      "constant": true
    },
    {
      "inputs": [
        {
          "internalType": "uint256",
          "name": "tokenId",
          "type": "uint256"
        }
      ],
      "name": "getApproved",
      "outputs": [
        {
          "internalType": "address",
          "name": "",
          "type": "address"
        }
      ],
      "stateMutability": "view",
      "type": "function",
      "constant": true
    },
    {
      "inputs": [
        {
          "internalType": "address",
          "name": "owner",
          "type": "address"
        },
        {
          "internalType": "address",
          "name": "operator",
          "type": "address"
        }
      ],
      "name": "isApprovedForAll",
      "outputs": [
        {
          "internalType": "bool",
          "name": "",
          "type": "bool"
        }
      ],
      "stateMutability": "view",
      "type": "function",
      "constant": true
    },
    {
      "inputs": [
        {
          "internalType": "uint256",
          "name": "",
          "type": "uint256"
        }
      ],
      "name": "metamonInfoPersonality",
      "outputs": [
        {
          "internalType": "uint8",
          "name": "",
          "type": "uint8"
        }
      ],
      "stateMutability": "view",
      "type": "function",
      "constant": true
    },
    {
      "inputs": [
        {
          "internalType": "uint256",
          "name": "",
          "type": "uint256"
        }
      ],
      "name": "metamonInfoShiny",
      "outputs": [
        {
          "internalType": "bool",
          "name": "",
          "type": "bool"
        }
      ],
      "stateMutability": "view",
      "type": "function",
      "constant": true
    },
    {
      "inputs": [
        {
          "internalType": "uint256",
          "name": "",
          "type": "uint256"
        }
      ],
      "name": "mintedMetamonDexId",
      "outputs": [
        {
          "internalType": "uint8",
          "name": "",
          "type": "uint8"
        }
      ],
      "stateMutability": "view",
      "type": "function",
      "constant": true
    },
    {
      "inputs": [],
      "name": "name",
      "outputs": [
        {
          "internalType": "string",
          "name": "",
          "type": "string"
        }
      ],
      "stateMutability": "view",
      "type": "function",
      "constant": true
    },
    {
      "inputs": [],
      "name": "owner",
      "outputs": [
        {
          "internalType": "address payable",
          "name": "",
          "type": "address"
        }
      ],
      "stateMutability": "view",
      "type": "function",
      "constant": true
    },
    {
      "inputs": [
        {
          "internalType": "uint256",
          "name": "tokenId",
          "type": "uint256"
        }
      ],
      "name": "ownerOf",
      "outputs": [
        {
          "internalType": "address",
          "name": "",
          "type": "address"
        }
      ],
      "stateMutability": "view",
      "type": "function",
      "constant": true
    },
    {
      "inputs": [
        {
          "internalType": "address",
          "name": "from",
          "type": "address"
        },
        {
          "internalType": "address",
          "name": "to",
          "type": "address"
        },
        {
          "internalType": "uint256",
          "name": "tokenId",
          "type": "uint256"
        }
      ],
      "name": "safeTransferFrom",
      "outputs": [],
      "stateMutability": "nonpayable",
      "type": "function"
    },
    {
      "inputs": [
        {
          "internalType": "address",
          "name": "from",
          "type": "address"
        },
        {
          "internalType": "address",
          "name": "to",
          "type": "address"
        },
        {
          "internalType": "uint256",
          "name": "tokenId",
          "type": "uint256"
        },
        {
          "internalType": "bytes",
          "name": "_data",
          "type": "bytes"
        }
      ],
      "name": "safeTransferFrom",
      "outputs": [],
      "stateMutability": "nonpayable",
      "type": "function"
    },
    {
      "inputs": [
        {
          "internalType": "address",
          "name": "operator",
          "type": "address"
        },
        {
          "internalType": "bool",
          "name": "approved",
          "type": "bool"
        }
      ],
      "name": "setApprovalForAll",
      "outputs": [],
      "stateMutability": "nonpayable",
      "type": "function"
    },
    {
      "inputs": [
        {
          "internalType": "bytes4",
          "name": "interfaceId",
          "type": "bytes4"
        }
      ],
      "name": "supportsInterface",
      "outputs": [
        {
          "internalType": "bool",
          "name": "",
          "type": "bool"
        }
      ],
      "stateMutability": "view",
      "type": "function",
      "constant": true
    },
    {
      "inputs": [],
      "name": "symbol",
      "outputs": [
        {
          "internalType": "string",
          "name": "",
          "type": "string"
        }
      ],
      "stateMutability": "view",
      "type": "function",
      "constant": true
    },
    {
      "inputs": [
        {
          "internalType": "address",
          "name": "from",
          "type": "address"
        },
        {
          "internalType": "address",
          "name": "to",
          "type": "address"
        },
        {
          "internalType": "uint256",
          "name": "tokenId",
          "type": "uint256"
        }
      ],
      "name": "transferFrom",
      "outputs": [],
      "stateMutability": "nonpayable",
      "type": "function"
    },
    {
      "stateMutability": "payable",
      "type": "receive",
      "payable": true
    },
    {
      "inputs": [
        {
          "internalType": "uint256",
          "name": "_new_price",
          "type": "uint256"
        },
        {
          "internalType": "uint8",
          "name": "_dexId",
          "type": "uint8"
        }
      ],
      "name": "changeFloorPrice",
      "outputs": [],
      "stateMutability": "nonpayable",
      "type": "function"
    },
    {
      "inputs": [
        {
          "internalType": "uint256",
          "name": "_new_supply",
          "type": "uint256"
        },
        {
          "internalType": "uint8",
          "name": "_dexId",
          "type": "uint8"
        }
      ],
      "name": "changeSupplyDexId",
      "outputs": [],
      "stateMutability": "nonpayable",
      "type": "function"
    },
    {
      "inputs": [
        {
          "internalType": "uint8",
          "name": "_dexId",
          "type": "uint8"
        }
      ],
      "name": "getFloorPrice",
      "outputs": [
        {
          "internalType": "uint256",
          "name": "",
          "type": "uint256"
        }
      ],
      "stateMutability": "view",
      "type": "function",
      "constant": true
    },
    {
      "inputs": [],
      "name": "getWalletBalance",
      "outputs": [
        {
          "internalType": "uint256",
          "name": "",
          "type": "uint256"
        }
      ],
      "stateMutability": "view",
      "type": "function",
      "constant": true
    },
    {
      "inputs": [
        {
          "internalType": "uint8",
          "name": "_dexId",
          "type": "uint8"
        }
      ],
      "name": "getSupplyDex",
      "outputs": [
        {
          "internalType": "uint256",
          "name": "",
          "type": "uint256"
        }
      ],
      "stateMutability": "view",
      "type": "function",
      "constant": true
    },
    {
      "inputs": [
        {
          "internalType": "address payable",
          "name": "_recipient",
          "type": "address"
        },
        {
          "internalType": "uint256",
          "name": "_amount",
          "type": "uint256"
        }
      ],
      "name": "transferContractBalance",
      "outputs": [
        {
          "internalType": "bool",
          "name": "",
          "type": "bool"
        }
      ],
      "stateMutability": "nonpayable",
      "type": "function"
    },
    {
      "inputs": [
        {
          "internalType": "string",
          "name": "_baseURILink",
          "type": "string"
        }
      ],
      "name": "setBaseURI",
      "outputs": [],
      "stateMutability": "nonpayable",
      "type": "function"
    },
    {
      "inputs": [],
      "name": "getBaseURI",
      "outputs": [
        {
          "internalType": "string",
          "name": "",
          "type": "string"
        }
      ],
      "stateMutability": "view",
      "type": "function",
      "constant": true
    },
    {
      "inputs": [
        {
          "internalType": "uint256",
          "name": "tokenId",
          "type": "uint256"
        }
      ],
      "name": "tokenURI",
      "outputs": [
        {
          "internalType": "string",
          "name": "",
          "type": "string"
        }
      ],
      "stateMutability": "view",
      "type": "function",
      "constant": true
    },
    {
      "inputs": [
        {
          "internalType": "uint8",
          "name": "_dexId",
          "type": "uint8"
        }
      ],
      "name": "mintableDex",
      "outputs": [
        {
          "internalType": "bool",
          "name": "",
          "type": "bool"
        }
      ],
      "stateMutability": "view",
      "type": "function",
      "constant": true
    },
    {
      "inputs": [
        {
          "internalType": "uint8",
          "name": "_dexId",
          "type": "uint8"
        }
      ],
      "name": "mintableSpecial",
      "outputs": [
        {
          "internalType": "bool",
          "name": "",
          "type": "bool"
        }
      ],
      "stateMutability": "view",
      "type": "function",
      "constant": true
    },
    {
      "inputs": [
        {
          "internalType": "string",
          "name": "_passCode",
          "type": "string"
        },
        {
          "internalType": "address",
          "name": "_recipient",
          "type": "address"
        },
        {
          "internalType": "uint256",
          "name": "_quantity",
          "type": "uint256"
        },
        {
          "internalType": "uint8",
          "name": "_dexId",
          "type": "uint8"
        }
      ],
      "name": "mintSale",
      "outputs": [],
      "stateMutability": "payable",
      "type": "function",
      "payable": true
    },
    {
      "inputs": [
        {
          "internalType": "address",
          "name": "_recipient",
          "type": "address"
        },
        {
          "internalType": "uint256",
          "name": "_sendItemTokenId",
          "type": "uint256"
        },
        {
          "internalType": "uint256",
          "name": "_sendDexTokenId",
          "type": "uint256"
        }
      ],
      "name": "evalutionItemBurn",
      "outputs": [],
      "stateMutability": "nonpayable",
      "type": "function"
    },
    {
      "inputs": [
        {
          "internalType": "address",
          "name": "_recipient",
          "type": "address"
        },
        {
          "internalType": "uint256",
          "name": "_sendTokenDexId",
          "type": "uint256"
        },
        {
          "internalType": "uint256",
          "name": "_quantitySend",
          "type": "uint256"
        }
      ],
      "name": "evalutionMetaBurn",
      "outputs": [],
      "stateMutability": "nonpayable",
      "type": "function"
    }
  ],
  "bytecode": "0x6080604052731e6059ec57ae39d2c73e5c3821a26faffd68e016600760006101000a81548173ffffffffffffffffffffffffffffffffffffffff021916908373ffffffffffffffffffffffffffffffffffffffff160217905550600760009054906101000a900473ffffffffffffffffffffffffffffffffffffffff16600860006101000a81548173ffffffffffffffffffffffffffffffffffffffff021916908373ffffffffffffffffffffffffffffffffffffffff1602179055506001600c60006101000a81548160ff021916908360ff1602179055506040518060a00160405280606360ff168152602001606260ff168152602001606160ff168152602001606060ff168152602001605f60ff16815250600d9060056200012592919062000796565b506040518060a0016040528061012861ffff16815260200161012461ffff16815260200161012061ffff16815260200161011c61ffff16815260200161011861ffff16815250600e9060056200017d92919062000837565b50604051806101000160405280600160ff168152602001600260ff168152602001600360ff168152602001600460ff168152602001600760ff168152602001600a60ff168152602001600b60ff168152602001600d60ff16815250600f906008620001ea929190620008df565b50604051806101a00160405280600260ff168152602001600360ff168152602001600560ff168152602001600660ff168152602001600860ff168152602001600960ff168152602001600b60ff168152602001600c60ff168152602001600e60ff168152602001600f60ff168152602001601160ff168152602001601260ff168152602001601460ff16815250601790600d6200028992919062000929565b506040518061010001604052806103e861ffff168152602001600061ffff168152602001600061ffff1681526020016107d061ffff1681526020016103e861ffff168152602001610bb861ffff168152602001610fa061ffff1681526020016103e861ffff1681525060249060086200030492919062000973565b50604051806101000160405280600060ff168152602001600060ff168152602001600060ff168152602001600060ff168152602001600060ff168152602001600060ff168152602001600060ff168152602001600060ff16815250602c90600862000371929190620008df565b50604051806101000160405280600160ff168152602001600060ff168152602001600060ff168152602001600160ff168152602001600060ff168152602001600060ff168152602001600060ff168152602001600160ff168152506034906008620003de929190620008df565b5060405180610100016040528066b1a2bc2ec5000066ffffffffffffff168152602001600066ffffffffffffff168152602001600066ffffffffffffff1681526020016658d15e1762800066ffffffffffffff168152602001667c58508723800066ffffffffffffff168152602001669fdf42f6e4800066ffffffffffffff16815260200166c3663566a5800066ffffffffffffff16815260200166e6ed27d666800066ffffffffffffff16815250603c9060086200049f929190620009be565b506040518060400160405280600b81526020017f4d6574616d6f6e204e46540000000000000000000000000000000000000000008152506040518060400160405280600381526020017f4e4654000000000000000000000000000000000000000000000000000000000081525081600090805190602001906200052492919062000a0e565b5080600190805190602001906200053d92919062000a0e565b50505033600660006101000a81548173ffffffffffffffffffffffffffffffffffffffff021916908373ffffffffffffffffffffffffffffffffffffffff16021790555060026048600060018152602001908152602001600020819055506003604860006002815260200190815260200160002081905550600160476000600181526020019081526020016000208190555060016047600060028152602001908152602001600020819055506002604660006001815260200190815260200160002060006101000a81548160ff021916908360ff1602179055506003604660006002815260200190815260200160002060006101000a81548160ff021916908360ff16021790555060026048600060048152602001908152602001600020819055506003604860006005815260200190815260200160002081905550600260476000600481526020019081526020016000208190555060026047600060058152602001908152602001600020819055506005604660006004815260200190815260200160002060006101000a81548160ff021916908360ff1602179055506006604660006005815260200190815260200160002060006101000a81548160ff021916908360ff1602179055506040518060c00160405280600160ff168152602001600460ff168152602001600760ff168152602001601460ff168152602001605660ff168152602001608560ff1681525060456000600160ff1681526020019081526020016000209060066200077592919062000a9f565b50600560486000608181526020019081526020016000208190555062000b7a565b826005601f01602090048101928215620008245791602002820160005b83821115620007f357835183826101000a81548160ff021916908360ff1602179055509260200192600101602081600001049283019260010302620007b3565b8015620008225782816101000a81549060ff0219169055600101602081600001049283019260010302620007f3565b505b50905062000833919062000af6565b5090565b826005600701600890048101928215620008cc5791602002820160005b838211156200089857835183826101000a81548163ffffffff021916908361ffff160217905550926020019260040160208160030104928301926001030262000854565b8015620008ca5782816101000a81549063ffffffff021916905560040160208160030104928301926001030262000898565b505b509050620008db919062000af6565b5090565b826008810192821562000916579160200282015b8281111562000915578251829060ff16905591602001919060010190620008f3565b5b50905062000925919062000af6565b5090565b82600d810192821562000960579160200282015b828111156200095f578251829060ff169055916020019190600101906200093d565b5b5090506200096f919062000af6565b5090565b8260088101928215620009ab579160200282015b82811115620009aa578251829061ffff1690559160200191906001019062000987565b5b509050620009ba919062000af6565b5090565b8260088101928215620009fb579160200282015b82811115620009fa578251829066ffffffffffffff16905591602001919060010190620009d2565b5b50905062000a0a919062000af6565b5090565b82805462000a1c9062000b15565b90600052602060002090601f01602090048101928262000a40576000855562000a8c565b82601f1062000a5b57805160ff191683800117855562000a8c565b8280016001018555821562000a8c579182015b8281111562000a8b57825182559160200191906001019062000a6e565b5b50905062000a9b919062000af6565b5090565b82805482825590600052602060002090810192821562000ae3579160200282015b8281111562000ae2578251829060ff1690559160200191906001019062000ac0565b5b50905062000af2919062000af6565b5090565b5b8082111562000b1157600081600090555060010162000af7565b5090565b6000600282049050600182168062000b2e57607f821691505b6020821081141562000b455762000b4462000b4b565b5b50919050565b7f4e487b7100000000000000000000000000000000000000000000000000000000600052602260045260246000fd5b61460b8062000b8a6000396000f3fe6080604052600436106101dc5760003560e01c80636352211e1161010257806395d89b4111610095578063c87b56dd11610064578063c87b56dd14610760578063c9432c051461079d578063e985e9c5146107c6578063feadbaea146108035761021c565b806395d89b41146106ba578063a22cb465146106e5578063b88d4fde1461070e578063c6ff1912146107375761021c565b806378a30fd0116100d157806378a30fd0146105f957806389b8f7d1146106365780638da5cb5b1461067357806393bd11f21461069e5761021c565b80636352211e1461051757806370a0823114610554578063714c53981461059157806376be98d9146105bc5761021c565b80631f2b28291161017a57806342842e0e1161014957806342842e0e1461045f578063486fc6d31461048857806355f804b3146104c55780635d273e49146104ee5761021c565b80631f2b28291461039157806323b872dd146103ce578063329a27e7146103f757806340249af1146104225761021c565b8063081812fc116101b6578063081812fc146102c3578063095ea7b3146103005780630dd250e11461032957806310a5a3d9146103545761021c565b8063014de7381461021e57806301ffc9a71461025b57806306fdde03146102985761021c565b3661021c577f52a6cdf67c40ce333b3d846e4e143db87f71dd7935612a4cafcf6ba76047ca1f33346040516102129291906138dc565b60405180910390a1005b005b34801561022a57600080fd5b50610245600480360381019061024091906133c4565b61082c565b6040516102529190613b82565b60405180910390f35b34801561026757600080fd5b50610282600480360381019061027d9190613228565b6108d5565b60405161028f9190613905565b60405180910390f35b3480156102a457600080fd5b506102ad6109b7565b6040516102ba9190613920565b60405180910390f35b3480156102cf57600080fd5b506102ea60048036038101906102e59190613336565b610a49565b6040516102f79190613831565b60405180910390f35b34801561030c57600080fd5b506103276004803603810190610322919061319d565b610ace565b005b34801561033557600080fd5b5061033e610be6565b60405161034b9190613bc6565b60405180910390f35b34801561036057600080fd5b5061037b6004803603810190610376919061301f565b610bf9565b6040516103889190613905565b60405180910390f35b34801561039d57600080fd5b506103b860048036038101906103b391906133c4565b610d28565b6040516103c59190613905565b60405180910390f35b3480156103da57600080fd5b506103f560048036038101906103f09190613097565b610e00565b005b34801561040357600080fd5b5061040c610e60565b6040516104199190613b82565b60405180910390f35b34801561042e57600080fd5b50610449600480360381019061044491906133c4565b610efa565b6040516104569190613905565b60405180910390f35b34801561046b57600080fd5b5061048660048036038101906104819190613097565b610f7b565b005b34801561049457600080fd5b506104af60048036038101906104aa91906133c4565b610f9b565b6040516104bc9190613b82565b60405180910390f35b3480156104d157600080fd5b506104ec60048036038101906104e7919061327a565b610fef565b005b3480156104fa57600080fd5b50610515600480360381019061051091906131d9565b61109b565b005b34801561052357600080fd5b5061053e60048036038101906105399190613336565b6111b6565b60405161054b9190613831565b60405180910390f35b34801561056057600080fd5b5061057b60048036038101906105769190612ff6565b611268565b6040516105889190613b82565b60405180910390f35b34801561059d57600080fd5b506105a6611320565b6040516105b39190613920565b60405180910390f35b3480156105c857600080fd5b506105e360048036038101906105de9190613336565b611444565b6040516105f09190613bc6565b60405180910390f35b34801561060557600080fd5b50610620600480360381019061061b9190613336565b611464565b60405161062d9190613bc6565b60405180910390f35b34801561064257600080fd5b5061065d60048036038101906106589190613336565b611484565b60405161066a9190613905565b60405180910390f35b34801561067f57600080fd5b506106886114a4565b604051610695919061384c565b60405180910390f35b6106b860048036038101906106b391906132bb565b6114ca565b005b3480156106c657600080fd5b506106cf611816565b6040516106dc9190613920565b60405180910390f35b3480156106f157600080fd5b5061070c60048036038101906107079190613161565b6118a8565b005b34801561071a57600080fd5b50610735600480360381019061073091906130e6565b6118be565b005b34801561074357600080fd5b5061075e60048036038101906107599190613388565b611920565b005b34801561076c57600080fd5b5061078760048036038101906107829190613336565b611a05565b6040516107949190613920565b60405180910390f35b3480156107a957600080fd5b506107c460048036038101906107bf9190613388565b611aad565b005b3480156107d257600080fd5b506107ed60048036038101906107e8919061305b565b611b92565b6040516107fa9190613905565b60405180910390f35b34801561080f57600080fd5b5061082a600480360381019061082591906131d9565b611c26565b005b6000602c60018361083d9190613dd5565b60ff1660088110610877577f4e487b7100000000000000000000000000000000000000000000000000000000600052603260045260246000fd5b015460246001846108889190613dd5565b60ff16600881106108c2577f4e487b7100000000000000000000000000000000000000000000000000000000600052603260045260246000fd5b01546108ce9190613da1565b9050919050565b60007f80ac58cd000000000000000000000000000000000000000000000000000000007bffffffffffffffffffffffffffffffffffffffffffffffffffffffff1916827bffffffffffffffffffffffffffffffffffffffffffffffffffffffff191614806109a057507f5b5e139f000000000000000000000000000000000000000000000000000000007bffffffffffffffffffffffffffffffffffffffffffffffffffffffff1916827bffffffffffffffffffffffffffffffffffffffffffffffffffffffff1916145b806109b057506109af82611d92565b5b9050919050565b6060600080546109c690613ef0565b80601f01602080910402602001604051908101604052809291908181526020018280546109f290613ef0565b8015610a3f5780601f10610a1457610100808354040283529160200191610a3f565b820191906000526020600020905b815481529060010190602001808311610a2257829003601f168201915b5050505050905090565b6000610a5482611dfc565b610a93576040517f08c379a0000000000000000000000000000000000000000000000000000000008152600401610a8a90613aa2565b60405180910390fd5b6004600083815260200190815260200160002060009054906101000a900473ffffffffffffffffffffffffffffffffffffffff169050919050565b6000610ad9826111b6565b90508073ffffffffffffffffffffffffffffffffffffffff168373ffffffffffffffffffffffffffffffffffffffff161415610b4a576040517f08c379a0000000000000000000000000000000000000000000000000000000008152600401610b4190613b02565b60405180910390fd5b8073ffffffffffffffffffffffffffffffffffffffff16610b69611e68565b73ffffffffffffffffffffffffffffffffffffffff161480610b985750610b9781610b92611e68565b611b92565b5b610bd7576040517f08c379a0000000000000000000000000000000000000000000000000000000008152600401610bce90613a22565b60405180910390fd5b610be18383611e70565b505050565b600c60009054906101000a900460ff1681565b600033600660009054906101000a900473ffffffffffffffffffffffffffffffffffffffff1673ffffffffffffffffffffffffffffffffffffffff168173ffffffffffffffffffffffffffffffffffffffff1614610c8c576040517f08c379a0000000000000000000000000000000000000000000000000000000008152600401610c8390613b62565b60405180910390fd5b610c94610e60565b831115610cd6576040517f08c379a0000000000000000000000000000000000000000000000000000000008152600401610ccd90613b22565b60405180910390fd5b8373ffffffffffffffffffffffffffffffffffffffff166108fc849081150290604051600060405180830381858888f19350505050158015610d1c573d6000803e3d6000fd5b50600191505092915050565b600080600090505b60456000600c60009054906101000a900460ff1660ff1660ff16815260200190815260200160002080549050811015610df55760456000600c60009054906101000a900460ff1660ff1660ff1681526020019081526020016000208181548110610dc3577f4e487b7100000000000000000000000000000000000000000000000000000000600052603260045260246000fd5b90600052602060002001548360ff161415610de2576001915050610dfb565b8080610ded90613f53565b915050610d30565b50600090505b919050565b610e11610e0b611e68565b82611f29565b610e50576040517f08c379a0000000000000000000000000000000000000000000000000000000008152600401610e4790613b42565b60405180910390fd5b610e5b838383612007565b505050565b600033600660009054906101000a900473ffffffffffffffffffffffffffffffffffffffff1673ffffffffffffffffffffffffffffffffffffffff168173ffffffffffffffffffffffffffffffffffffffff1614610ef3576040517f08c379a0000000000000000000000000000000000000000000000000000000008152600401610eea90613b62565b60405180910390fd5b4791505090565b600080600090505b600d8160ff161015610f745760178160ff16600d8110610f4b577f4e487b7100000000000000000000000000000000000000000000000000000000600052603260045260246000fd5b01548360ff161415610f61576001915050610f76565b8080610f6c90613f9c565b915050610f02565b505b919050565b610f96838383604051806020016040528060008152506118be565b505050565b6000603c600183610fac9190613dd5565b60ff1660088110610fe6577f4e487b7100000000000000000000000000000000000000000000000000000000600052603260045260246000fd5b01549050919050565b33600660009054906101000a900473ffffffffffffffffffffffffffffffffffffffff1673ffffffffffffffffffffffffffffffffffffffff168173ffffffffffffffffffffffffffffffffffffffff1614611080576040517f08c379a000000000000000000000000000000000000000000000000000000000815260040161107790613b62565b60405180910390fd5b81600b9080519060200190611096929190612ddb565b505050565b82826110a6816111b6565b73ffffffffffffffffffffffffffffffffffffffff168273ffffffffffffffffffffffffffffffffffffffff1614611113576040517f08c379a000000000000000000000000000000000000000000000000000000000815260040161110a90613ae2565b60405180910390fd5b600060486000604a600088815260200190815260200160002060009054906101000a900460ff1660ff168152602001908152602001600020549050611158868661226e565b50600060466000604a600089815260200190815260200160002060009054906101000a900460ff1660ff16815260200190815260200160002060009054906101000a900460ff1690506111ad87826001612276565b50505050505050565b6000806002600084815260200190815260200160002060009054906101000a900473ffffffffffffffffffffffffffffffffffffffff169050600073ffffffffffffffffffffffffffffffffffffffff168173ffffffffffffffffffffffffffffffffffffffff16141561125f576040517f08c379a000000000000000000000000000000000000000000000000000000000815260040161125690613a62565b60405180910390fd5b80915050919050565b60008073ffffffffffffffffffffffffffffffffffffffff168273ffffffffffffffffffffffffffffffffffffffff1614156112d9576040517f08c379a00000000000000000000000000000000000000000000000000000000081526004016112d090613a42565b60405180910390fd5b600360008373ffffffffffffffffffffffffffffffffffffffff1673ffffffffffffffffffffffffffffffffffffffff168152602001908152602001600020549050919050565b606033600660009054906101000a900473ffffffffffffffffffffffffffffffffffffffff1673ffffffffffffffffffffffffffffffffffffffff168173ffffffffffffffffffffffffffffffffffffffff16146113b3576040517f08c379a00000000000000000000000000000000000000000000000000000000081526004016113aa90613b62565b60405180910390fd5b600b80546113c090613ef0565b80601f01602080910402602001604051908101604052809291908181526020018280546113ec90613ef0565b80156114395780601f1061140e57610100808354040283529160200191611439565b820191906000526020600020905b81548152906001019060200180831161141c57829003601f168201915b505050505091505090565b604c6020528060005260406000206000915054906101000a900460ff1681565b604a6020528060005260406000206000915054906101000a900460ff1681565b604b6020528060005260406000206000915054906101000a900460ff1681565b600660009054906101000a900473ffffffffffffffffffffffffffffffffffffffff1681565b80600115156114d882610d28565b15151461151a576040517f08c379a0000000000000000000000000000000000000000000000000000000008152600401611511906139a2565b60405180910390fd5b81836115258261082c565b81111561153157600080fd5b600061153c85610f9b565b9050600660009054906101000a900473ffffffffffffffffffffffffffffffffffffffff1673ffffffffffffffffffffffffffffffffffffffff163373ffffffffffffffffffffffffffffffffffffffff16146115e157858161159f9190613d47565b34146115e0576040517f08c379a00000000000000000000000000000000000000000000000000000000081526004016115d790613b22565b60405180910390fd5b5b60006115ec886124a6565b90506000604454905060005b8881101561180257818061160b90613f53565b9250506116188a83612577565b611620612751565b604c600084815260200190815260200160002060006101000a81548160ff021916908360ff16021790555061165581846127cc565b604b600084815260200190815260200160002060006101000a81548160ff0219169083151502179055506001602c60018a6116909190613dd5565b60ff16600881106116ca577f4e487b7100000000000000000000000000000000000000000000000000000000600052603260045260246000fd5b01546116d69190613cc0565b602c60018a6116e59190613dd5565b60ff166008811061171f577f4e487b7100000000000000000000000000000000000000000000000000000000600052603260045260246000fd5b018190555087604a600084815260200190815260200160002060006101000a81548160ff021916908360ff160217905550604960008b73ffffffffffffffffffffffffffffffffffffffff1673ffffffffffffffffffffffffffffffffffffffff1681526020019081526020016000208290806001815401808255809150506001900390600052602060002001600090919091909150557fdd3ee52e93d2f67c75859dd03ba44fbae095a9deba7e791d4a8e331f114bce38828b6040516117e7929190613b9d565b60405180910390a180806117fa90613f53565b9150506115f8565b508060448190555050505050505050505050565b60606001805461182590613ef0565b80601f016020809104026020016040519081016040528092919081815260200182805461185190613ef0565b801561189e5780601f106118735761010080835404028352916020019161189e565b820191906000526020600020905b81548152906001019060200180831161188157829003601f168201915b5050505050905090565b6118ba6118b3611e68565b83836128a1565b5050565b6118cf6118c9611e68565b83611f29565b61190e576040517f08c379a000000000000000000000000000000000000000000000000000000000815260040161190590613b42565b60405180910390fd5b61191a84848484612a0e565b50505050565b33600660009054906101000a900473ffffffffffffffffffffffffffffffffffffffff1673ffffffffffffffffffffffffffffffffffffffff168173ffffffffffffffffffffffffffffffffffffffff16146119b1576040517f08c379a00000000000000000000000000000000000000000000000000000000081526004016119a890613b62565b60405180910390fd5b8260246001846119c19190613dd5565b60ff16600881106119fb577f4e487b7100000000000000000000000000000000000000000000000000000000600052603260045260246000fd5b0181905550505050565b6060611a1082611dfc565b611a4f576040517f08c379a0000000000000000000000000000000000000000000000000000000008152600401611a4690613ac2565b60405180910390fd5b6000600b8054611a5e90613ef0565b905011611a7a5760405180602001604052806000815250611aa6565b600b611a8583612a6a565b604051602001611a96929190613802565b6040516020818303038152906040525b9050919050565b33600660009054906101000a900473ffffffffffffffffffffffffffffffffffffffff1673ffffffffffffffffffffffffffffffffffffffff168173ffffffffffffffffffffffffffffffffffffffff1614611b3e576040517f08c379a0000000000000000000000000000000000000000000000000000000008152600401611b3590613b62565b60405180910390fd5b82603c600184611b4e9190613dd5565b60ff1660088110611b88577f4e487b7100000000000000000000000000000000000000000000000000000000600052603260045260246000fd5b0181905550505050565b6000600560008473ffffffffffffffffffffffffffffffffffffffff1673ffffffffffffffffffffffffffffffffffffffff16815260200190815260200160002060008373ffffffffffffffffffffffffffffffffffffffff1673ffffffffffffffffffffffffffffffffffffffff16815260200190815260200160002060009054906101000a900460ff16905092915050565b8282611c31816111b6565b73ffffffffffffffffffffffffffffffffffffffff168273ffffffffffffffffffffffffffffffffffffffff1614611c9e576040517f08c379a0000000000000000000000000000000000000000000000000000000008152600401611c9590613ae2565b60405180910390fd5b600860009054906101000a900473ffffffffffffffffffffffffffffffffffffffff1673ffffffffffffffffffffffffffffffffffffffff16639dc29fac86866040518363ffffffff1660e01b8152600401611cfb9291906138dc565b60006040518083038186803b158015611d1357600080fd5b505afa158015611d27573d6000803e3d6000fd5b50505050611d35858461226e565b50600060466000604a600087815260200190815260200160002060009054906101000a900460ff1660ff16815260200190815260200160002060009054906101000a900460ff169050611d8a86826001612276565b505050505050565b60007f01ffc9a7000000000000000000000000000000000000000000000000000000007bffffffffffffffffffffffffffffffffffffffffffffffffffffffff1916827bffffffffffffffffffffffffffffffffffffffffffffffffffffffff1916149050919050565b60008073ffffffffffffffffffffffffffffffffffffffff166002600084815260200190815260200160002060009054906101000a900473ffffffffffffffffffffffffffffffffffffffff1673ffffffffffffffffffffffffffffffffffffffff1614159050919050565b600033905090565b816004600083815260200190815260200160002060006101000a81548173ffffffffffffffffffffffffffffffffffffffff021916908373ffffffffffffffffffffffffffffffffffffffff160217905550808273ffffffffffffffffffffffffffffffffffffffff16611ee3836111b6565b73ffffffffffffffffffffffffffffffffffffffff167f8c5be1e5ebec7d5bd14f71427d1e84f3dd0314c0f7b2291e5b200ac8c7c3b92560405160405180910390a45050565b6000611f3482611dfc565b611f73576040517f08c379a0000000000000000000000000000000000000000000000000000000008152600401611f6a90613a02565b60405180910390fd5b6000611f7e836111b6565b90508073ffffffffffffffffffffffffffffffffffffffff168473ffffffffffffffffffffffffffffffffffffffff161480611fed57508373ffffffffffffffffffffffffffffffffffffffff16611fd584610a49565b73ffffffffffffffffffffffffffffffffffffffff16145b80611ffe5750611ffd8185611b92565b5b91505092915050565b8273ffffffffffffffffffffffffffffffffffffffff16612027826111b6565b73ffffffffffffffffffffffffffffffffffffffff161461207d576040517f08c379a000000000000000000000000000000000000000000000000000000000815260040161207490613962565b60405180910390fd5b600073ffffffffffffffffffffffffffffffffffffffff168273ffffffffffffffffffffffffffffffffffffffff1614156120ed576040517f08c379a00000000000000000000000000000000000000000000000000000000081526004016120e4906139c2565b60405180910390fd5b6120f8838383612c17565b612103600082611e70565b6001600360008573ffffffffffffffffffffffffffffffffffffffff1673ffffffffffffffffffffffffffffffffffffffff16815260200190815260200160002060008282546121539190613da1565b925050819055506001600360008473ffffffffffffffffffffffffffffffffffffffff1673ffffffffffffffffffffffffffffffffffffffff16815260200190815260200160002060008282546121aa9190613cc0565b92505081905550816002600083815260200190815260200160002060006101000a81548173ffffffffffffffffffffffffffffffffffffffff021916908373ffffffffffffffffffffffffffffffffffffffff160217905550808273ffffffffffffffffffffffffffffffffffffffff168473ffffffffffffffffffffffffffffffffffffffff167fddf252ad1be2c89b69c2b068fc378daa952ba7f163c4a11628f55a4df523b3ef60405160405180910390a4612269838383612c1c565b505050565b600092915050565b6000612281846124a6565b90506000604454905060005b838110156124975781806122a090613f53565b9250506122ad8683612577565b6122b5612751565b604c600084815260200190815260200160002060006101000a81548160ff021916908360ff1602179055506122ea81846127cc565b604b600084815260200190815260200160002060006101000a81548160ff0219169083151502179055506001602c6001876123259190613dd5565b60ff166008811061235f577f4e487b7100000000000000000000000000000000000000000000000000000000600052603260045260246000fd5b015461236b9190613cc0565b602c60018761237a9190613dd5565b60ff16600881106123b4577f4e487b7100000000000000000000000000000000000000000000000000000000600052603260045260246000fd5b018190555084604a600084815260200190815260200160002060006101000a81548160ff021916908360ff160217905550604960008773ffffffffffffffffffffffffffffffffffffffff1673ffffffffffffffffffffffffffffffffffffffff1681526020019081526020016000208290806001815401808255809150506001900390600052602060002001600090919091909150557fdd3ee52e93d2f67c75859dd03ba44fbae095a9deba7e791d4a8e331f114bce38828760405161247c929190613b9d565b60405180910390a1808061248f90613f53565b91505061228d565b50806044819055505050505050565b600080600860009054906101000a900473ffffffffffffffffffffffffffffffffffffffff1673ffffffffffffffffffffffffffffffffffffffff16630cb98b718460026040518363ffffffff1660e01b81526004016125079291906138b3565b60206040518083038186803b15801561251f57600080fd5b505afa158015612533573d6000803e3d6000fd5b505050506040513d601f19601f82011682018060405250810190612557919061335f565b9050600081141561256c576000915050612572565b60019150505b919050565b600073ffffffffffffffffffffffffffffffffffffffff168273ffffffffffffffffffffffffffffffffffffffff1614156125e7576040517f08c379a00000000000000000000000000000000000000000000000000000000081526004016125de90613a82565b60405180910390fd5b6125f081611dfc565b15612630576040517f08c379a000000000000000000000000000000000000000000000000000000000815260040161262790613982565b60405180910390fd5b61263c60008383612c17565b6001600360008473ffffffffffffffffffffffffffffffffffffffff1673ffffffffffffffffffffffffffffffffffffffff168152602001908152602001600020600082825461268c9190613cc0565b92505081905550816002600083815260200190815260200160002060006101000a81548173ffffffffffffffffffffffffffffffffffffffff021916908373ffffffffffffffffffffffffffffffffffffffff160217905550808273ffffffffffffffffffffffffffffffffffffffff16600073ffffffffffffffffffffffffffffffffffffffff167fddf252ad1be2c89b69c2b068fc378daa952ba7f163c4a11628f55a4df523b3ef60405160405180910390a461274d60008383612c1c565b5050565b6000806040518060800160405280600160ff168152602001600260ff168152602001600360ff168152602001600460ff168152509050806000600481106127c1577f4e487b7100000000000000000000000000000000000000000000000000000000600052603260045260246000fd5b602002015191505090565b60008115612835576000600d8460058110612810577f4e487b7100000000000000000000000000000000000000000000000000000000600052603260045260246000fd5b602091828204019190069054906101000a900460ff1660ff169050600191505061289b565b6000600e8460058110612871577f4e487b7100000000000000000000000000000000000000000000000000000000600052603260045260246000fd5b600891828204019190066004029054906101000a900463ffffffff1663ffffffff16905060009150505b92915050565b8173ffffffffffffffffffffffffffffffffffffffff168373ffffffffffffffffffffffffffffffffffffffff161415612910576040517f08c379a0000000000000000000000000000000000000000000000000000000008152600401612907906139e2565b60405180910390fd5b80600560008573ffffffffffffffffffffffffffffffffffffffff1673ffffffffffffffffffffffffffffffffffffffff16815260200190815260200160002060008473ffffffffffffffffffffffffffffffffffffffff1673ffffffffffffffffffffffffffffffffffffffff16815260200190815260200160002060006101000a81548160ff0219169083151502179055508173ffffffffffffffffffffffffffffffffffffffff168373ffffffffffffffffffffffffffffffffffffffff167f17307eab39ab6107e8899845ad3d59bd9653f200f220920489ca2b5937696c3183604051612a019190613905565b60405180910390a3505050565b612a19848484612007565b612a2584848484612c21565b612a64576040517f08c379a0000000000000000000000000000000000000000000000000000000008152600401612a5b90613942565b60405180910390fd5b50505050565b60606000821415612ab2576040518060400160405280600181526020017f30000000000000000000000000000000000000000000000000000000000000008152509050612c12565b600082905060005b60008214612ae4578080612acd90613f53565b915050600a82612add9190613d16565b9150612aba565b60008167ffffffffffffffff811115612b26577f4e487b7100000000000000000000000000000000000000000000000000000000600052604160045260246000fd5b6040519080825280601f01601f191660200182016040528015612b585781602001600182028036833780820191505090505b5090505b60008514612c0b57600182612b719190613da1565b9150600a85612b809190613fc6565b6030612b8c9190613cc0565b60f81b818381518110612bc8577f4e487b7100000000000000000000000000000000000000000000000000000000600052603260045260246000fd5b60200101907effffffffffffffffffffffffffffffffffffffffffffffffffffffffffffff1916908160001a905350600a85612c049190613d16565b9450612b5c565b8093505050505b919050565b505050565b505050565b6000612c428473ffffffffffffffffffffffffffffffffffffffff16612db8565b15612dab578373ffffffffffffffffffffffffffffffffffffffff1663150b7a02612c6b611e68565b8786866040518563ffffffff1660e01b8152600401612c8d9493929190613867565b602060405180830381600087803b158015612ca757600080fd5b505af1925050508015612cd857506040513d601f19601f82011682018060405250810190612cd59190613251565b60015b612d5b573d8060008114612d08576040519150601f19603f3d011682016040523d82523d6000602084013e612d0d565b606091505b50600081511415612d53576040517f08c379a0000000000000000000000000000000000000000000000000000000008152600401612d4a90613942565b60405180910390fd5b805181602001fd5b63150b7a0260e01b7bffffffffffffffffffffffffffffffffffffffffffffffffffffffff1916817bffffffffffffffffffffffffffffffffffffffffffffffffffffffff191614915050612db0565b600190505b949350505050565b6000808273ffffffffffffffffffffffffffffffffffffffff163b119050919050565b828054612de790613ef0565b90600052602060002090601f016020900481019282612e095760008555612e50565b82601f10612e2257805160ff1916838001178555612e50565b82800160010185558215612e50579182015b82811115612e4f578251825591602001919060010190612e34565b5b509050612e5d9190612e61565b5090565b5b80821115612e7a576000816000905550600101612e62565b5090565b6000612e91612e8c84613c06565b613be1565b905082815260208101848484011115612ea957600080fd5b612eb4848285613eae565b509392505050565b6000612ecf612eca84613c37565b613be1565b905082815260208101848484011115612ee757600080fd5b612ef2848285613eae565b509392505050565b600081359050612f098161454b565b92915050565b600081359050612f1e81614562565b92915050565b600081359050612f3381614579565b92915050565b600081359050612f4881614590565b92915050565b600081519050612f5d81614590565b92915050565b600082601f830112612f7457600080fd5b8135612f84848260208601612e7e565b91505092915050565b600082601f830112612f9e57600080fd5b8135612fae848260208601612ebc565b91505092915050565b600081359050612fc6816145a7565b92915050565b600081519050612fdb816145a7565b92915050565b600081359050612ff0816145be565b92915050565b60006020828403121561300857600080fd5b600061301684828501612efa565b91505092915050565b6000806040838503121561303257600080fd5b600061304085828601612f0f565b925050602061305185828601612fb7565b9150509250929050565b6000806040838503121561306e57600080fd5b600061307c85828601612efa565b925050602061308d85828601612efa565b9150509250929050565b6000806000606084860312156130ac57600080fd5b60006130ba86828701612efa565b93505060206130cb86828701612efa565b92505060406130dc86828701612fb7565b9150509250925092565b600080600080608085870312156130fc57600080fd5b600061310a87828801612efa565b945050602061311b87828801612efa565b935050604061312c87828801612fb7565b925050606085013567ffffffffffffffff81111561314957600080fd5b61315587828801612f63565b91505092959194509250565b6000806040838503121561317457600080fd5b600061318285828601612efa565b925050602061319385828601612f24565b9150509250929050565b600080604083850312156131b057600080fd5b60006131be85828601612efa565b92505060206131cf85828601612fb7565b9150509250929050565b6000806000606084860312156131ee57600080fd5b60006131fc86828701612efa565b935050602061320d86828701612fb7565b925050604061321e86828701612fb7565b9150509250925092565b60006020828403121561323a57600080fd5b600061324884828501612f39565b91505092915050565b60006020828403121561326357600080fd5b600061327184828501612f4e565b91505092915050565b60006020828403121561328c57600080fd5b600082013567ffffffffffffffff8111156132a657600080fd5b6132b284828501612f8d565b91505092915050565b600080600080608085870312156132d157600080fd5b600085013567ffffffffffffffff8111156132eb57600080fd5b6132f787828801612f8d565b945050602061330887828801612efa565b935050604061331987828801612fb7565b925050606061332a87828801612fe1565b91505092959194509250565b60006020828403121561334857600080fd5b600061335684828501612fb7565b91505092915050565b60006020828403121561337157600080fd5b600061337f84828501612fcc565b91505092915050565b6000806040838503121561339b57600080fd5b60006133a985828601612fb7565b92505060206133ba85828601612fe1565b9150509250929050565b6000602082840312156133d657600080fd5b60006133e484828501612fe1565b91505092915050565b6133f681613e1b565b82525050565b61340581613e09565b82525050565b61341481613e2d565b82525050565b600061342582613c7d565b61342f8185613c93565b935061343f818560208601613ebd565b613448816140b3565b840191505092915050565b61345c81613e9c565b82525050565b600061346d82613c88565b6134778185613ca4565b9350613487818560208601613ebd565b613490816140b3565b840191505092915050565b60006134a682613c88565b6134b08185613cb5565b93506134c0818560208601613ebd565b80840191505092915050565b600081546134d981613ef0565b6134e38186613cb5565b945060018216600081146134fe576001811461350f57613542565b60ff19831686528186019350613542565b61351885613c68565b60005b8381101561353a5781548189015260018201915060208101905061351b565b838801955050505b50505092915050565b6000613558603283613ca4565b9150613563826140c4565b604082019050919050565b600061357b602583613ca4565b915061358682614113565b604082019050919050565b600061359e601c83613ca4565b91506135a982614162565b602082019050919050565b60006135c1601083613ca4565b91506135cc8261418b565b602082019050919050565b60006135e4602483613ca4565b91506135ef826141b4565b604082019050919050565b6000613607601983613ca4565b915061361282614203565b602082019050919050565b600061362a602c83613ca4565b91506136358261422c565b604082019050919050565b600061364d603883613ca4565b91506136588261427b565b604082019050919050565b6000613670602a83613ca4565b915061367b826142ca565b604082019050919050565b6000613693602983613ca4565b915061369e82614319565b604082019050919050565b60006136b6602083613ca4565b91506136c182614368565b602082019050919050565b60006136d9602c83613ca4565b91506136e482614391565b604082019050919050565b60006136fc601283613ca4565b9150613707826143e0565b602082019050919050565b600061371f600583613cb5565b915061372a82614409565b600582019050919050565b6000613742601283613ca4565b915061374d82614432565b602082019050919050565b6000613765602183613ca4565b91506137708261445b565b604082019050919050565b6000613788601383613ca4565b9150613793826144aa565b602082019050919050565b60006137ab603183613ca4565b91506137b6826144d3565b604082019050919050565b60006137ce601183613ca4565b91506137d982614522565b602082019050919050565b6137ed81613e85565b82525050565b6137fc81613e8f565b82525050565b600061380e82856134cc565b915061381a828461349b565b915061382582613712565b91508190509392505050565b600060208201905061384660008301846133fc565b92915050565b600060208201905061386160008301846133ed565b92915050565b600060808201905061387c60008301876133fc565b61388960208301866133fc565b61389660408301856137e4565b81810360608301526138a8818461341a565b905095945050505050565b60006040820190506138c860008301856133fc565b6138d56020830184613453565b9392505050565b60006040820190506138f160008301856133fc565b6138fe60208301846137e4565b9392505050565b600060208201905061391a600083018461340b565b92915050565b6000602082019050818103600083015261393a8184613462565b905092915050565b6000602082019050818103600083015261395b8161354b565b9050919050565b6000602082019050818103600083015261397b8161356e565b9050919050565b6000602082019050818103600083015261399b81613591565b9050919050565b600060208201905081810360008301526139bb816135b4565b9050919050565b600060208201905081810360008301526139db816135d7565b9050919050565b600060208201905081810360008301526139fb816135fa565b9050919050565b60006020820190508181036000830152613a1b8161361d565b9050919050565b60006020820190508181036000830152613a3b81613640565b9050919050565b60006020820190508181036000830152613a5b81613663565b9050919050565b60006020820190508181036000830152613a7b81613686565b9050919050565b60006020820190508181036000830152613a9b816136a9565b9050919050565b60006020820190508181036000830152613abb816136cc565b9050919050565b60006020820190508181036000830152613adb816136ef565b9050919050565b60006020820190508181036000830152613afb81613735565b9050919050565b60006020820190508181036000830152613b1b81613758565b9050919050565b60006020820190508181036000830152613b3b8161377b565b9050919050565b60006020820190508181036000830152613b5b8161379e565b9050919050565b60006020820190508181036000830152613b7b816137c1565b9050919050565b6000602082019050613b9760008301846137e4565b92915050565b6000604082019050613bb260008301856137e4565b613bbf60208301846133fc565b9392505050565b6000602082019050613bdb60008301846137f3565b92915050565b6000613beb613bfc565b9050613bf78282613f22565b919050565b6000604051905090565b600067ffffffffffffffff821115613c2157613c20614084565b5b613c2a826140b3565b9050602081019050919050565b600067ffffffffffffffff821115613c5257613c51614084565b5b613c5b826140b3565b9050602081019050919050565b60008190508160005260206000209050919050565b600081519050919050565b600081519050919050565b600082825260208201905092915050565b600082825260208201905092915050565b600081905092915050565b6000613ccb82613e85565b9150613cd683613e85565b9250827fffffffffffffffffffffffffffffffffffffffffffffffffffffffffffffffff03821115613d0b57613d0a613ff7565b5b828201905092915050565b6000613d2182613e85565b9150613d2c83613e85565b925082613d3c57613d3b614026565b5b828204905092915050565b6000613d5282613e85565b9150613d5d83613e85565b9250817fffffffffffffffffffffffffffffffffffffffffffffffffffffffffffffffff0483118215151615613d9657613d95613ff7565b5b828202905092915050565b6000613dac82613e85565b9150613db783613e85565b925082821015613dca57613dc9613ff7565b5b828203905092915050565b6000613de082613e8f565b9150613deb83613e8f565b925082821015613dfe57613dfd613ff7565b5b828203905092915050565b6000613e1482613e65565b9050919050565b6000613e2682613e65565b9050919050565b60008115159050919050565b60007fffffffff0000000000000000000000000000000000000000000000000000000082169050919050565b600073ffffffffffffffffffffffffffffffffffffffff82169050919050565b6000819050919050565b600060ff82169050919050565b6000613ea782613e8f565b9050919050565b82818337600083830152505050565b60005b83811015613edb578082015181840152602081019050613ec0565b83811115613eea576000848401525b50505050565b60006002820490506001821680613f0857607f821691505b60208210811415613f1c57613f1b614055565b5b50919050565b613f2b826140b3565b810181811067ffffffffffffffff82111715613f4a57613f49614084565b5b80604052505050565b6000613f5e82613e85565b91507fffffffffffffffffffffffffffffffffffffffffffffffffffffffffffffffff821415613f9157613f90613ff7565b5b600182019050919050565b6000613fa782613e8f565b915060ff821415613fbb57613fba613ff7565b5b600182019050919050565b6000613fd182613e85565b9150613fdc83613e85565b925082613fec57613feb614026565b5b828206905092915050565b7f4e487b7100000000000000000000000000000000000000000000000000000000600052601160045260246000fd5b7f4e487b7100000000000000000000000000000000000000000000000000000000600052601260045260246000fd5b7f4e487b7100000000000000000000000000000000000000000000000000000000600052602260045260246000fd5b7f4e487b7100000000000000000000000000000000000000000000000000000000600052604160045260246000fd5b6000601f19601f8301169050919050565b7f4552433732313a207472616e7366657220746f206e6f6e20455243373231526560008201527f63656976657220696d706c656d656e7465720000000000000000000000000000602082015250565b7f4552433732313a207472616e736665722066726f6d20696e636f72726563742060008201527f6f776e6572000000000000000000000000000000000000000000000000000000602082015250565b7f4552433732313a20746f6b656e20616c7265616479206d696e74656400000000600082015250565b7f4e6f74204d696e7461626c652044657800000000000000000000000000000000600082015250565b7f4552433732313a207472616e7366657220746f20746865207a65726f2061646460008201527f7265737300000000000000000000000000000000000000000000000000000000602082015250565b7f4552433732313a20617070726f766520746f2063616c6c657200000000000000600082015250565b7f4552433732313a206f70657261746f7220717565727920666f72206e6f6e657860008201527f697374656e7420746f6b656e0000000000000000000000000000000000000000602082015250565b7f4552433732313a20617070726f76652063616c6c6572206973206e6f74206f7760008201527f6e6572206e6f7220617070726f76656420666f7220616c6c0000000000000000602082015250565b7f4552433732313a2062616c616e636520717565727920666f7220746865207a6560008201527f726f206164647265737300000000000000000000000000000000000000000000602082015250565b7f4552433732313a206f776e657220717565727920666f72206e6f6e657869737460008201527f656e7420746f6b656e0000000000000000000000000000000000000000000000602082015250565b7f4552433732313a206d696e7420746f20746865207a65726f2061646472657373600082015250565b7f4552433732313a20617070726f76656420717565727920666f72206e6f6e657860008201527f697374656e7420746f6b656e0000000000000000000000000000000000000000602082015250565b7f4e6f6e6578697374656e7420746f6b656e210000000000000000000000000000600082015250565b7f2e6a736f6e000000000000000000000000000000000000000000000000000000600082015250565b7f4e6f7420746865206f776e65722063616c6c0000000000000000000000000000600082015250565b7f4552433732313a20617070726f76616c20746f2063757272656e74206f776e6560008201527f7200000000000000000000000000000000000000000000000000000000000000602082015250565b7f4e6f7420456e6f7567682042616c616e63652100000000000000000000000000600082015250565b7f4552433732313a207472616e736665722063616c6c6572206973206e6f74206f60008201527f776e6572206e6f7220617070726f766564000000000000000000000000000000602082015250565b7f4e6f742061206f776e65722063616c6c21000000000000000000000000000000600082015250565b61455481613e09565b811461455f57600080fd5b50565b61456b81613e1b565b811461457657600080fd5b50565b61458281613e2d565b811461458d57600080fd5b50565b61459981613e39565b81146145a457600080fd5b50565b6145b081613e85565b81146145bb57600080fd5b50565b6145c781613e8f565b81146145d257600080fd5b5056fea2646970667358221220ba6cacaed5e3db3b2c3b2ba8faf38b0ba52e99ce32df72e92dafcab8a9ec116364736f6c63430008020033",
  "immutableReferences": {},
  "source": "// SPDX-License-Identifier: MIT\npragma solidity ^0.8.2;\nimport \"@openzeppelin/contracts/token/ERC721/ERC721.sol\";\n\n\ninterface ItemContract {\n    function getFloorPrice(uint8 _itemType) external view returns (uint256);\n    function specificItemOwnership(address _owner, uint8 _itemType) external view returns (uint256);\n    function burn(address _burner, uint256 _tokenId) external view;\n}\n\n\n// Pick during the meeting 1/10000\n// Shiny logic (every mint reset, if you have lucky totem higher chance, if you mintQuantity 10, it increments the probability of minting shiny on each loop of mint\n\n// Before the personalities in 1/10 chance call the chainlink contract \n// Batch actions\n\n\n\ncontract Metamon is ERC721 {\n    using Strings for uint256;\n\n    address payable public owner;\n    address _itemContractAddress = 0x1E6059Ec57aE39D2C73E5C3821a26FAFfD68E016; // TODO: we will hardcode it for now\n    \n    ItemContract _item = ItemContract(_itemContractAddress);  // TODO: move this declaration outside of this function\n\n\n    string private itemBaseURI;\n    string private metamonBaseURI;\n    string private baseURI;\n\n    event ReceivedEth(address _reciever, uint256 _value);\n    event MetamonMint(uint256 _tokenId, address _reciever);\n    event MetamonBurn(uint256 _tokenId, uint8 _dexId, address _burner);\n\n    uint8 public currentMintPhase = 1;\n    uint8[5] private withLuckyTotem = [99, 98, 97, 96, 95];  // TODO: total count of 100 probabilities \n    uint32[5] private withoutLuckyTotem = [296, 292, 288, 284, 280];  // TODO: total number of 100 probabilities\n    uint256[8] private metamonDex = [1, 2, 3, 4, 7, 10, 11, 13]; // REPR: METAMONT DEX NUMBERS\n    uint256[13] private evalutionMintDex = [2, 3, 5, 6, 8, 9, 11, 12, 14, 15, 17, 18, 20];\n    uint256[8] private metamonSupply = [1000, 0, 0, 2000, 1000, 3000, 4000, 1000]; // REPR: STARTS FROM TOKEN IDS\n    uint256[8] private metamonMinted = [0, 0, 0, 0, 0, 0, 0, 0]; // REPR: STARTS FROM TOKEN IDS\n    uint256[8] private metamonMintable = [1, 0, 0, 1, 0, 0, 0, 1]; // REPR: DIRECTLY MINTABLE METAMON DEXIDS\n    uint256[8] private metamonFloor = [.05 ether, 0 ether, 0 ether, .025 ether, 0.035 ether, 0.045 ether, 0.055 ether, 0.065 ether];\n\n    uint256 private _tokenIds;\n\n    mapping(uint8 => uint256[]) private metamonMintPhases; // REPR: Metamon mint phases by DAX numbers;\n    mapping(uint256 => uint8) private familyMetamon; // REPR: Metamon evalution trees \n\n    mapping(uint256 => uint256) private itemEvaluation; // REPR: Which item needed for which metamon evalution\n    mapping(uint256 => uint256) private burnEvaluation; // REPR: How many metamon balance needed for evalution for next metamon dex\n\n    mapping(address => uint256[]) private ownerCollectedMetamons; // REPR: Collected tokenIDs Metamons per address // TODO: remove when there is a burn or transfer\n    mapping(uint256 => uint8) public mintedMetamonDexId; // REPR: Minted metamon dex id\n\n    mapping(uint256 => bool) public metamonInfoShiny; // REPR: Holds the info about If the minted metamon was shiny or not\n    mapping(uint256 => uint8) public metamonInfoPersonality; // REPR: Holds the info about the personality of the metamon\n\n    constructor() payable ERC721(\"Metamon NFT\", \"NFT\") {\n        owner = payable(msg.sender);\n        // FILLING INFORMATION OF METAMAN AND EVALUATION\n        burnEvaluation[1] = 2;\n        burnEvaluation[2] = 3;\n        itemEvaluation[1] = 1;\n        itemEvaluation[2] = 1;\n        familyMetamon[1] = 2;\n        familyMetamon[2] = 3;\n        // ****************\n        burnEvaluation[4] = 2;\n        burnEvaluation[5] = 3;\n        itemEvaluation[4] = 2;\n        itemEvaluation[5] = 2;\n        familyMetamon[4] = 5;\n        familyMetamon[5] = 6;\n        // ****************\n        metamonMintPhases[1] = [1, 4, 7, 20, 86, 133];\n        // ****************\n        burnEvaluation[129] = 5; // i.e. 5 #DEX129 has to burned for #DEX139\n    }\n\n    modifier onlyOwner(address sender) {\n        require(sender == owner, \"Not a owner call!\");\n        _;\n    }\n\n    ///////////////////////////////////////////////////////////////////////////\n    // State Changes\n    ///////////////////////////////////////////////////////////////////////////\n    function changeFloorPrice(\n        uint256 _new_price,\n        uint8 _dexId\n    )\n        external\n        onlyOwner(msg.sender)\n    {\n        metamonFloor[_dexId - 1] = _new_price;\n    }\n\n    function changeSupplyDexId(\n        uint256 _new_supply,\n        uint8 _dexId\n    )\n        external\n        onlyOwner(msg.sender)\n    {\n        metamonSupply[_dexId - 1] = _new_supply;\n    }\n\n    ///////////////////////////////////////////////////////////////////////////\n    // State Info\n    ///////////////////////////////////////////////////////////////////////////\n    function getFloorPrice(uint8 _dexId)\n        public\n        view\n        returns (uint256)\n    {\n        return metamonFloor[_dexId - 1];\n    }\n \n    function getWalletBalance()\n        public\n        view\n        onlyOwner(msg.sender)\n        returns (uint256)\n    {\n        return address(this).balance;\n    }\n\n    function getSupplyDex(uint8 _dexId)\n        public\n        view \n        returns (uint256)\n    {\n        return metamonSupply[_dexId - 1] - metamonMinted[_dexId - 1];\n    }\n    \n    ///////////////////////////////////////////////////////////////////////////\n    // Contract ETH Deals\n    ///////////////////////////////////////////////////////////////////////////\n    fallback() external payable {}\n\n    receive() external payable {\n        emit ReceivedEth(msg.sender, msg.value);\n    }\n\n    function transferContractBalance(\n        address payable _recipient,\n        uint256 _amount\n    ) external onlyOwner(msg.sender) returns (bool) {\n        require(_amount <= getWalletBalance(), \"Not Enough Balance!\");\n        _recipient.transfer(_amount);\n        return true;\n    }\n\n    ///////////////////////////////////////////////////////////////////////////\n    // Meta Data Related\n    ///////////////////////////////////////////////////////////////////////////\n    function setBaseURI(string memory _baseURILink)\n        external\n        onlyOwner(msg.sender)\n    {\n        baseURI = _baseURILink;\n    }\n\n    function getBaseURI()\n        external\n        view\n        onlyOwner(msg.sender)\n        returns (string memory)\n    {\n        return baseURI;\n    }\n\n    function _baseURI() internal view virtual override returns (string memory) {\n        // We will have different baseURIs for Item and Metamon \n        // TODO: move items into different collection\n        return baseURI;\n    }\n\n    function tokenURI(uint256 tokenId)\n        public\n        view\n        virtual\n        override\n        returns (string memory)\n    {\n        require(_exists(tokenId), \"Nonexistent token!\");\n        // We can retrieve the information about token id \n        // -> is it Item or Metamon\n        // -> what is the dax number\n        // -> based on the information that we retrieve we will return base_uri\n        // TODO: move items into different collection\n\n        return\n            bytes(baseURI).length > 0\n                ? string(abi.encodePacked(baseURI, tokenId.toString(), \".json\"))\n                : \"\";\n    }\n\n    ///////////////////////////////////////////////////////////////////////////\n    // Mint / Randomness Mockup TODO: remove this section when Coinbase Implementation\n    ///////////////////////////////////////////////////////////////////////////\n    function _mockupRandomPersonality() internal pure returns(uint8) {\n        uint8[4] memory personality = [1, 2, 3, 4];\n        return personality[0];\n    }\n\n    function _mockupRandomShiny(uint256 _quantity, bool lucky) internal view returns(bool) {\n        // TODO: randomness comes from the loop\n        if (lucky){\n            uint256 probability = withLuckyTotem[_quantity];\n            // TODO: there should be some randomness based on the probability\n            return true;\n        } else {\n            uint256 probability = withoutLuckyTotem[_quantity];\n            // TODO: there should be some randomness based on the probability\n            return false;\n        }\n        \n    }\n\n    function _checkLuckyOwnership(address _recipient) internal view returns (bool){\n        // TODO: lucky item hardcoded as \"2\" for this \n        uint256 total_ownership = _item.specificItemOwnership(_recipient, 2); // Checks whether Lucky Totem has been owned/or not\n        if (total_ownership == 0){\n            return false;\n        } else {\n            return true;\n        }\n    }\n\n    ///////////////////////////////////////////////////////////////////////////\n    // Mint  Phases\n    ///////////////////////////////////////////////////////////////////////////\n    function mintableDex(uint8 _dexId) public view returns(bool){\n        // Helper function checks if Dex Id can be mintable for current mint phase\n        for (uint i=0; i < metamonMintPhases[currentMintPhase].length; i ++){\n            if (_dexId == metamonMintPhases[currentMintPhase][i]){\n                return true;\n            }\n        }\n        return false;\n    }\n\n    function mintableSpecial(uint8 _dexId) public view returns(bool){\n        // Helper function checks if Dex Id can be specially mintable for evalution\n        for (uint8 i=0; i < evalutionMintDex.length; i ++ ){\n            if (_dexId == evalutionMintDex[i]){\n                return true;\n            }\n        }\n    }\n\n    modifier mintableDexPhase(uint8 _dexId) {\n        require(mintableDex(_dexId) == true, 'Not Mintable Dex');\n        _;\n    }\n\n    modifier mintalbeSpecialDex(uint8 _dexId) {\n        require(mintableSpecial(_dexId) == true, 'Not Mintable Special Dex');\n        _;\n    }\n\n    modifier mintableSupply(uint8 _dexId, uint256 _quantity){\n        require(_quantity <= getSupplyDex(_dexId));\n        _;\n    }\n\n    function mintSpecial(\n        address _recipient,\n        uint8 _dexId, \n        uint256 _quantity\n    ) private {\n        bool lucky = _checkLuckyOwnership(_recipient);\n        uint256 j = _tokenIds;\n        for (uint256 i = 0; i < _quantity; i ++){\n            j ++;\n            _mint(_recipient, j);\n            metamonInfoPersonality[j] = _mockupRandomPersonality();\n            metamonInfoShiny[j] = _mockupRandomShiny(i, lucky);\n            metamonMinted[_dexId - 1] = metamonMinted[_dexId - 1] + 1;\n            mintedMetamonDexId[j] = _dexId;\n            ownerCollectedMetamons[_recipient].push(j);\n            emit MetamonMint(j, _recipient);\n        }\n        _tokenIds = j;\n    }\n\n    function mintSale(\n            string memory _passCode,\n            address _recipient, \n            uint256 _quantity,\n            uint8 _dexId // TODO: talk to Nick about the RNG of the dexID\n        ) public payable mintableDexPhase(_dexId) mintableSupply(_dexId, _quantity) {\n        uint256 floorPrice = getFloorPrice(_dexId);\n        if (msg.sender != owner) {\n            require(msg.value == floorPrice * _quantity, \"Not Enough Balance!\");\n        }\n        \n        bool lucky = _checkLuckyOwnership(_recipient);\n        uint256 j = _tokenIds;\n        for (uint256 i = 0; i < _quantity; i++) {\n            j++;\n            _mint(_recipient, j);\n            metamonInfoPersonality[j] = _mockupRandomPersonality();\n            metamonInfoShiny[j]= _mockupRandomShiny(i, lucky);\n            metamonMinted[_dexId - 1] = metamonMinted[_dexId - 1] + 1;\n            mintedMetamonDexId[j] = _dexId;\n            ownerCollectedMetamons[_recipient].push(j);\n            emit MetamonMint(j, _recipient);\n        }\n        _tokenIds = j;\n    }\n\n    ///////////////////////////////////////////////////////////////////////////\n    // Mint / Burn Phases\n    ///////////////////////////////////////////////////////////////////////////\n    function burn(address _burner, uint256 _tokenId) internal returns(bool) {\n        \n    }\n\n    function specifDexIdOwned(address _recipient, uint8 _dexId) internal returns(uint256[] memory) {\n        // Return owned dexId's tokenIds\n        uint256 counter = 0;\n        uint256[] memory collectedMetamons = ownerCollectedMetamons[_recipient];\n        uint256[] memory specificDexTokenIds;\n        for (uint256 i=0; i < collectedMetamons.length; i++) {\n            if (_dexId == mintedMetamonDexId[collectedMetamons[i]]){\n                specificDexTokenIds[i] = collectedMetamons[i];\n            }\n        }\n        return(specificDexTokenIds);\n    }\n\n    modifier ownerOfMetamon(address _recipient, uint256 _sendDexTokenId) {\n        require(_recipient == ownerOf(_sendDexTokenId), \"Not the owner call\");\n        _;\n    }\n\n    function evalutionItemBurn(\n        address _recipient,\n        uint256 _sendItemTokenId,\n        uint256 _sendDexTokenId\n    ) public ownerOfMetamon(_recipient, _sendItemTokenId) {\n        // TODO: burn metamon and item together for evalution\n        _item.burn(_recipient, _sendItemTokenId); // item token will handle burnable logic\n        burn(_recipient, _sendDexTokenId); // normally you need to burn 1 metamon to evolve\n        uint8 _dexId = familyMetamon[mintedMetamonDexId[_sendDexTokenId]];\n        mintSpecial(_recipient, _dexId, 1);\n    }\n\n    function evalutionMetaBurn(\n        address _recipient, \n        uint256 _sendTokenDexId, \n        uint256 _quantitySend\n        ) public ownerOfMetamon(_recipient, _sendTokenDexId) {\n        // TODO: only burn metamon for evalution\n        uint256 _quantityCondition = burnEvaluation[mintedMetamonDexId[_sendTokenDexId]];\n        // check number of metamon ownership to check _quantityCondition\n        burn(_recipient, _sendTokenDexId);\n        uint8 _dexId = familyMetamon[mintedMetamonDexId[_sendTokenDexId]]; \n        mintSpecial(_recipient, _dexId, 1);      \n    }\n}",
  "sourcePath": "/Users/aipek/Documents/metamon_contracts/contracts/Metamon.sol",
  "compiler": {
    "name": "solc",
    "version": "0.8.2+commit.661d1103.Emscripten.clang"
  },
  "schemaVersion": "3.4.4",
  "updatedAt": "2022-03-05T15:12:56.768Z",
  "networkType": "ethereum",
  "devdoc": {
    "kind": "dev",
    "methods": {
      "approve(address,uint256)": {
        "details": "See {IERC721-approve}."
      },
      "balanceOf(address)": {
        "details": "See {IERC721-balanceOf}."
      },
      "getApproved(uint256)": {
        "details": "See {IERC721-getApproved}."
      },
      "isApprovedForAll(address,address)": {
        "details": "See {IERC721-isApprovedForAll}."
      },
      "name()": {
        "details": "See {IERC721Metadata-name}."
      },
      "ownerOf(uint256)": {
        "details": "See {IERC721-ownerOf}."
      },
      "safeTransferFrom(address,address,uint256)": {
        "details": "See {IERC721-safeTransferFrom}."
      },
      "safeTransferFrom(address,address,uint256,bytes)": {
        "details": "See {IERC721-safeTransferFrom}."
      },
      "setApprovalForAll(address,bool)": {
        "details": "See {IERC721-setApprovalForAll}."
      },
      "supportsInterface(bytes4)": {
        "details": "See {IERC165-supportsInterface}."
      },
      "symbol()": {
        "details": "See {IERC721Metadata-symbol}."
      },
      "tokenURI(uint256)": {
        "details": "See {IERC721Metadata-tokenURI}."
      },
      "transferFrom(address,address,uint256)": {
        "details": "See {IERC721-transferFrom}."
      }
    },
    "version": 1
  },
  "userdoc": {
    "kind": "user",
    "methods": {},
    "version": 1
  }
}