{
  "contractName": "Metamon",
  "abi": [
    {
      "inputs": [],
      "stateMutability": "payable",
      "type": "constructor",
      "payable": true
    },
    {
      "anonymous": false,
      "inputs": [
        {
          "indexed": true,
          "internalType": "address",
          "name": "owner",
          "type": "address"
        },
        {
          "indexed": true,
          "internalType": "address",
          "name": "approved",
          "type": "address"
        },
        {
          "indexed": true,
          "internalType": "uint256",
          "name": "tokenId",
          "type": "uint256"
        }
      ],
      "name": "Approval",
      "type": "event"
    },
    {
      "anonymous": false,
      "inputs": [
        {
          "indexed": true,
          "internalType": "address",
          "name": "owner",
          "type": "address"
        },
        {
          "indexed": true,
          "internalType": "address",
          "name": "operator",
          "type": "address"
        },
        {
          "indexed": false,
          "internalType": "bool",
          "name": "approved",
          "type": "bool"
        }
      ],
      "name": "ApprovalForAll",
      "type": "event"
    },
    {
      "anonymous": false,
      "inputs": [
        {
          "indexed": false,
          "internalType": "uint256",
          "name": "_tokenId",
          "type": "uint256"
        },
        {
          "indexed": false,
          "internalType": "uint8",
          "name": "_dexId",
          "type": "uint8"
        },
        {
          "indexed": false,
          "internalType": "address",
          "name": "_burner",
          "type": "address"
        }
      ],
      "name": "MetamonBurn",
      "type": "event"
    },
    {
      "anonymous": false,
      "inputs": [
        {
          "indexed": false,
          "internalType": "uint256",
          "name": "_tokenId",
          "type": "uint256"
        },
        {
          "indexed": false,
          "internalType": "address",
          "name": "_reciever",
          "type": "address"
        }
      ],
      "name": "MetamonMint",
      "type": "event"
    },
    {
      "anonymous": false,
      "inputs": [
        {
          "indexed": false,
          "internalType": "address",
          "name": "_reciever",
          "type": "address"
        },
        {
          "indexed": false,
          "internalType": "uint256",
          "name": "_value",
          "type": "uint256"
        }
      ],
      "name": "ReceivedEth",
      "type": "event"
    },
    {
      "anonymous": false,
      "inputs": [
        {
          "indexed": true,
          "internalType": "address",
          "name": "from",
          "type": "address"
        },
        {
          "indexed": true,
          "internalType": "address",
          "name": "to",
          "type": "address"
        },
        {
          "indexed": true,
          "internalType": "uint256",
          "name": "tokenId",
          "type": "uint256"
        }
      ],
      "name": "Transfer",
      "type": "event"
    },
    {
      "stateMutability": "payable",
      "type": "fallback",
      "payable": true
    },
    {
      "inputs": [
        {
          "internalType": "address",
          "name": "to",
          "type": "address"
        },
        {
          "internalType": "uint256",
          "name": "tokenId",
          "type": "uint256"
        }
      ],
      "name": "approve",
      "outputs": [],
      "stateMutability": "nonpayable",
      "type": "function"
    },
    {
      "inputs": [
        {
          "internalType": "uint8",
          "name": "",
          "type": "uint8"
        },
        {
          "internalType": "uint256",
          "name": "",
          "type": "uint256"
        }
      ],
      "name": "artifactBatches",
      "outputs": [
        {
          "internalType": "uint256",
          "name": "",
          "type": "uint256"
        }
      ],
      "stateMutability": "view",
      "type": "function",
      "constant": true
    },
    {
      "inputs": [
        {
          "internalType": "address",
          "name": "owner",
          "type": "address"
        }
      ],
      "name": "balanceOf",
      "outputs": [
        {
          "internalType": "uint256",
          "name": "",
          "type": "uint256"
        }
      ],
      "stateMutability": "view",
      "type": "function",
      "constant": true
    },
    {
      "inputs": [],
      "name": "collectArtifact",
      "outputs": [
        {
          "internalType": "bool",
          "name": "",
          "type": "bool"
        }
      ],
      "stateMutability": "view",
      "type": "function",
      "constant": true
    },
    {
      "inputs": [],
      "name": "currentMintPhase",
      "outputs": [
        {
          "internalType": "uint8",
          "name": "",
          "type": "uint8"
        }
      ],
      "stateMutability": "view",
      "type": "function",
      "constant": true
    },
    {
      "inputs": [
        {
          "internalType": "uint256",
          "name": "tokenId",
          "type": "uint256"
        }
      ],
      "name": "getApproved",
      "outputs": [
        {
          "internalType": "address",
          "name": "",
          "type": "address"
        }
      ],
      "stateMutability": "view",
      "type": "function",
      "constant": true
    },
    {
      "inputs": [
        {
          "internalType": "address",
          "name": "owner",
          "type": "address"
        },
        {
          "internalType": "address",
          "name": "operator",
          "type": "address"
        }
      ],
      "name": "isApprovedForAll",
      "outputs": [
        {
          "internalType": "bool",
          "name": "",
          "type": "bool"
        }
      ],
      "stateMutability": "view",
      "type": "function",
      "constant": true
    },
    {
      "inputs": [
        {
          "internalType": "uint256",
          "name": "",
          "type": "uint256"
        }
      ],
      "name": "metamonInfoPersonality",
      "outputs": [
        {
          "internalType": "uint8",
          "name": "",
          "type": "uint8"
        }
      ],
      "stateMutability": "view",
      "type": "function",
      "constant": true
    },
    {
      "inputs": [
        {
          "internalType": "uint256",
          "name": "",
          "type": "uint256"
        }
      ],
      "name": "metamonInfoShiny",
      "outputs": [
        {
          "internalType": "bool",
          "name": "",
          "type": "bool"
        }
      ],
      "stateMutability": "view",
      "type": "function",
      "constant": true
    },
    {
      "inputs": [
        {
          "internalType": "uint256",
          "name": "",
          "type": "uint256"
        }
      ],
      "name": "mintedMetamonDexId",
      "outputs": [
        {
          "internalType": "uint8",
          "name": "",
          "type": "uint8"
        }
      ],
      "stateMutability": "view",
      "type": "function",
      "constant": true
    },
    {
      "inputs": [],
      "name": "name",
      "outputs": [
        {
          "internalType": "string",
          "name": "",
          "type": "string"
        }
      ],
      "stateMutability": "view",
      "type": "function",
      "constant": true
    },
    {
      "inputs": [],
      "name": "owner",
      "outputs": [
        {
          "internalType": "address payable",
          "name": "",
          "type": "address"
        }
      ],
      "stateMutability": "view",
      "type": "function",
      "constant": true
    },
    {
      "inputs": [
        {
          "internalType": "uint256",
          "name": "tokenId",
          "type": "uint256"
        }
      ],
      "name": "ownerOf",
      "outputs": [
        {
          "internalType": "address",
          "name": "",
          "type": "address"
        }
      ],
      "stateMutability": "view",
      "type": "function",
      "constant": true
    },
    {
      "inputs": [
        {
          "internalType": "address",
          "name": "from",
          "type": "address"
        },
        {
          "internalType": "address",
          "name": "to",
          "type": "address"
        },
        {
          "internalType": "uint256",
          "name": "tokenId",
          "type": "uint256"
        }
      ],
      "name": "safeTransferFrom",
      "outputs": [],
      "stateMutability": "nonpayable",
      "type": "function"
    },
    {
      "inputs": [
        {
          "internalType": "address",
          "name": "from",
          "type": "address"
        },
        {
          "internalType": "address",
          "name": "to",
          "type": "address"
        },
        {
          "internalType": "uint256",
          "name": "tokenId",
          "type": "uint256"
        },
        {
          "internalType": "bytes",
          "name": "_data",
          "type": "bytes"
        }
      ],
      "name": "safeTransferFrom",
      "outputs": [],
      "stateMutability": "nonpayable",
      "type": "function"
    },
    {
      "inputs": [
        {
          "internalType": "address",
          "name": "operator",
          "type": "address"
        },
        {
          "internalType": "bool",
          "name": "approved",
          "type": "bool"
        }
      ],
      "name": "setApprovalForAll",
      "outputs": [],
      "stateMutability": "nonpayable",
      "type": "function"
    },
    {
      "inputs": [
        {
          "internalType": "bytes4",
          "name": "interfaceId",
          "type": "bytes4"
        }
      ],
      "name": "supportsInterface",
      "outputs": [
        {
          "internalType": "bool",
          "name": "",
          "type": "bool"
        }
      ],
      "stateMutability": "view",
      "type": "function",
      "constant": true
    },
    {
      "inputs": [],
      "name": "symbol",
      "outputs": [
        {
          "internalType": "string",
          "name": "",
          "type": "string"
        }
      ],
      "stateMutability": "view",
      "type": "function",
      "constant": true
    },
    {
      "inputs": [
        {
          "internalType": "address",
          "name": "from",
          "type": "address"
        },
        {
          "internalType": "address",
          "name": "to",
          "type": "address"
        },
        {
          "internalType": "uint256",
          "name": "tokenId",
          "type": "uint256"
        }
      ],
      "name": "transferFrom",
      "outputs": [],
      "stateMutability": "nonpayable",
      "type": "function"
    },
    {
      "stateMutability": "payable",
      "type": "receive",
      "payable": true
    },
    {
      "inputs": [
        {
          "internalType": "uint256",
          "name": "_new_price",
          "type": "uint256"
        },
        {
          "internalType": "uint8",
          "name": "_dexId",
          "type": "uint8"
        }
      ],
      "name": "changeFloorPrice",
      "outputs": [],
      "stateMutability": "nonpayable",
      "type": "function"
    },
    {
      "inputs": [
        {
          "internalType": "uint256",
          "name": "_new_supply",
          "type": "uint256"
        },
        {
          "internalType": "uint8",
          "name": "_dexId",
          "type": "uint8"
        }
      ],
      "name": "changeSupplyDexId",
      "outputs": [],
      "stateMutability": "nonpayable",
      "type": "function"
    },
    {
      "inputs": [
        {
          "internalType": "uint8",
          "name": "_dexId",
          "type": "uint8"
        }
      ],
      "name": "getFloorPrice",
      "outputs": [
        {
          "internalType": "uint256",
          "name": "",
          "type": "uint256"
        }
      ],
      "stateMutability": "view",
      "type": "function",
      "constant": true
    },
    {
      "inputs": [],
      "name": "getWalletBalance",
      "outputs": [
        {
          "internalType": "uint256",
          "name": "",
          "type": "uint256"
        }
      ],
      "stateMutability": "view",
      "type": "function",
      "constant": true
    },
    {
      "inputs": [
        {
          "internalType": "uint8",
          "name": "_dexId",
          "type": "uint8"
        }
      ],
      "name": "getSupplyDex",
      "outputs": [
        {
          "internalType": "uint256",
          "name": "",
          "type": "uint256"
        }
      ],
      "stateMutability": "view",
      "type": "function",
      "constant": true
    },
    {
      "inputs": [
        {
          "internalType": "address payable",
          "name": "_recipient",
          "type": "address"
        },
        {
          "internalType": "uint256",
          "name": "_amount",
          "type": "uint256"
        }
      ],
      "name": "transferContractBalance",
      "outputs": [
        {
          "internalType": "bool",
          "name": "",
          "type": "bool"
        }
      ],
      "stateMutability": "nonpayable",
      "type": "function"
    },
    {
      "inputs": [
        {
          "internalType": "string",
          "name": "_baseURILink",
          "type": "string"
        }
      ],
      "name": "setBaseURI",
      "outputs": [],
      "stateMutability": "nonpayable",
      "type": "function"
    },
    {
      "inputs": [],
      "name": "getBaseURI",
      "outputs": [
        {
          "internalType": "string",
          "name": "",
          "type": "string"
        }
      ],
      "stateMutability": "view",
      "type": "function",
      "constant": true
    },
    {
      "inputs": [
        {
          "internalType": "uint256",
          "name": "tokenId",
          "type": "uint256"
        }
      ],
      "name": "tokenURI",
      "outputs": [
        {
          "internalType": "string",
          "name": "",
          "type": "string"
        }
      ],
      "stateMutability": "view",
      "type": "function",
      "constant": true
    },
    {
      "inputs": [
        {
          "internalType": "uint8",
          "name": "_dexId",
          "type": "uint8"
        }
      ],
      "name": "mintableDex",
      "outputs": [
        {
          "internalType": "bool",
          "name": "",
          "type": "bool"
        }
      ],
      "stateMutability": "view",
      "type": "function",
      "constant": true
    },
    {
      "inputs": [
        {
          "internalType": "uint8",
          "name": "_dexId",
          "type": "uint8"
        }
      ],
      "name": "mintableSpecial",
      "outputs": [
        {
          "internalType": "bool",
          "name": "",
          "type": "bool"
        }
      ],
      "stateMutability": "view",
      "type": "function",
      "constant": true
    },
    {
      "inputs": [
        {
          "internalType": "string",
          "name": "_passCode",
          "type": "string"
        },
        {
          "internalType": "address",
          "name": "_recipient",
          "type": "address"
        },
        {
          "internalType": "uint256",
          "name": "_quantity",
          "type": "uint256"
        },
        {
          "internalType": "uint8",
          "name": "_dexId",
          "type": "uint8"
        }
      ],
      "name": "mintSale",
      "outputs": [],
      "stateMutability": "payable",
      "type": "function",
      "payable": true
    },
    {
      "inputs": [
        {
          "internalType": "bool",
          "name": "_collect",
          "type": "bool"
        }
      ],
      "name": "artifactCollectTime",
      "outputs": [],
      "stateMutability": "nonpayable",
      "type": "function"
    },
    {
      "inputs": [
        {
          "internalType": "address",
          "name": "_recipient",
          "type": "address"
        },
        {
          "internalType": "uint8",
          "name": "_targetArtifact",
          "type": "uint8"
        }
      ],
      "name": "mintArtifact",
      "outputs": [],
      "stateMutability": "nonpayable",
      "type": "function"
    },
    {
      "inputs": [
        {
          "internalType": "address",
          "name": "_recipient",
          "type": "address"
        },
        {
          "internalType": "uint256",
          "name": "_sendItemTokenId",
          "type": "uint256"
        },
        {
          "internalType": "uint256",
          "name": "_sendDexTokenId",
          "type": "uint256"
        }
      ],
      "name": "evalutionItemBurn",
      "outputs": [],
      "stateMutability": "payable",
      "type": "function",
      "payable": true
    },
    {
      "inputs": [
        {
          "internalType": "address",
          "name": "_recipient",
          "type": "address"
        },
        {
          "internalType": "uint8",
          "name": "_dexId",
          "type": "uint8"
        },
        {
          "internalType": "uint256[]",
          "name": "_sendDexTokenId",
          "type": "uint256[]"
        },
        {
          "internalType": "uint256",
          "name": "_quantitySend",
          "type": "uint256"
        }
      ],
      "name": "evalutionMetaBurn",
      "outputs": [],
      "stateMutability": "payable",
      "type": "function",
      "payable": true
    },
    {
      "inputs": [
        {
          "internalType": "address",
          "name": "_owner",
          "type": "address"
        }
      ],
      "name": "checkItemOwnership",
      "outputs": [
        {
          "internalType": "uint256",
          "name": "",
          "type": "uint256"
        }
      ],
      "stateMutability": "view",
      "type": "function",
      "constant": true
    },
    {
      "inputs": [
        {
          "internalType": "address",
          "name": "_reciever",
          "type": "address"
        },
        {
          "internalType": "uint256",
          "name": "_sendItemTokenId",
          "type": "uint256"
        }
      ],
      "name": "burnItem",
      "outputs": [],
      "stateMutability": "payable",
      "type": "function",
      "payable": true
    }
  ],
  "bytecode": "0x608060405273d2a5bc10698fd955d1fe6cb468a17809a08fd005600760006101000a81548173ffffffffffffffffffffffffffffffffffffffff021916908373ffffffffffffffffffffffffffffffffffffffff160217905550600760009054906101000a900473ffffffffffffffffffffffffffffffffffffffff16600860006101000a81548173ffffffffffffffffffffffffffffffffffffffff021916908373ffffffffffffffffffffffffffffffffffffffff1602179055506000600c60006101000a81548160ff0219169083151502179055506001600c60016101000a81548160ff021916908360ff1602179055506040518060a00160405280606360ff168152602001606260ff168152602001606160ff168152602001606060ff168152602001605f60ff16815250600d906005620001409291906200081c565b506040518060a0016040528061012861ffff16815260200161012461ffff16815260200161012061ffff16815260200161011c61ffff16815260200161011861ffff16815250600e90600562000198929190620008bd565b50604051806101000160405280600160ff168152602001600260ff168152602001600360ff168152602001600460ff168152602001600560ff168152602001600660ff168152602001600760ff168152602001600a60ff16815250600f9060086200020592919062000965565b50604051806101a00160405280600260ff168152602001600360ff168152602001600560ff168152602001600660ff168152602001600860ff168152602001600960ff168152602001600b60ff168152602001600c60ff168152602001600e60ff168152602001600f60ff168152602001601160ff168152602001601260ff168152602001601460ff16815250601790600d620002a4929190620009af565b506040518061010001604052806103e861ffff168152602001600061ffff168152602001600061ffff1681526020016107d061ffff168152602001600061ffff168152602001600061ffff1681526020016103e861ffff168152602001610bb861ffff1681525060249060086200031d929190620009f9565b50604051806101000160405280600060ff168152602001600060ff168152602001600060ff168152602001600060ff168152602001600060ff168152602001600060ff168152602001600060ff168152602001600060ff16815250602c9060086200038a92919062000965565b50604051806101000160405280600160ff168152602001600060ff168152602001600060ff168152602001600160ff168152602001600060ff168152602001600060ff168152602001600060ff168152602001600160ff168152506034906008620003f792919062000965565b5060405180610100016040528066b1a2bc2ec5000066ffffffffffffff168152602001600066ffffffffffffff168152602001600066ffffffffffffff1681526020016658d15e1762800066ffffffffffffff168152602001667c58508723800066ffffffffffffff168152602001669fdf42f6e4800066ffffffffffffff16815260200166c3663566a5800066ffffffffffffff16815260200166e6ed27d666800066ffffffffffffff16815250603c906008620004b892919062000a44565b506040518060400160405280600b81526020017f4d6574616d6f6e204e46540000000000000000000000000000000000000000008152506040518060400160405280600381526020017f4e4654000000000000000000000000000000000000000000000000000000000081525081600090805190602001906200053d92919062000a94565b5080600190805190602001906200055692919062000a94565b50505033600660006101000a81548173ffffffffffffffffffffffffffffffffffffffff021916908373ffffffffffffffffffffffffffffffffffffffff1602179055506040518060c00160405280600160ff168152602001600460ff168152602001600760ff168152602001601460ff168152602001605660ff168152602001608560ff16815250604d6000600160ff1681526020019081526020016000209060066200060692919062000b25565b5060026048600060018152602001908152602001600020819055506003604860006002815260200190815260200160002081905550600160476000600181526020019081526020016000208190555060016047600060028152602001908152602001600020819055506002604660006001815260200190815260200160002060006101000a81548160ff021916908360ff1602179055506003604660006002815260200190815260200160002060006101000a81548160ff021916908360ff16021790555060026048600060048152602001908152602001600020819055506003604860006005815260200190815260200160002081905550600260476000600481526020019081526020016000208190555060026047600060058152602001908152602001600020819055506005604660006004815260200190815260200160002060006101000a81548160ff021916908360ff1602179055506006604660006005815260200190815260200160002060006101000a81548160ff021916908360ff1602179055506040518060c00160405280600160ff168152602001600460ff168152602001600760ff168152602001601460ff168152602001605660ff168152602001608560ff1681525060456000600160ff168152602001908152602001600020906006620007fb92919062000b25565b50600560486000608181526020019081526020016000208190555062000c00565b826005601f01602090048101928215620008aa5791602002820160005b838211156200087957835183826101000a81548160ff021916908360ff160217905550926020019260010160208160000104928301926001030262000839565b8015620008a85782816101000a81549060ff021916905560010160208160000104928301926001030262000879565b505b509050620008b9919062000b7c565b5090565b826005600701600890048101928215620009525791602002820160005b838211156200091e57835183826101000a81548163ffffffff021916908361ffff1602179055509260200192600401602081600301049283019260010302620008da565b8015620009505782816101000a81549063ffffffff02191690556004016020816003010492830192600103026200091e565b505b50905062000961919062000b7c565b5090565b82600881019282156200099c579160200282015b828111156200099b578251829060ff1690559160200191906001019062000979565b5b509050620009ab919062000b7c565b5090565b82600d8101928215620009e6579160200282015b82811115620009e5578251829060ff16905591602001919060010190620009c3565b5b509050620009f5919062000b7c565b5090565b826008810192821562000a31579160200282015b8281111562000a30578251829061ffff1690559160200191906001019062000a0d565b5b50905062000a40919062000b7c565b5090565b826008810192821562000a81579160200282015b8281111562000a80578251829066ffffffffffffff1690559160200191906001019062000a58565b5b50905062000a90919062000b7c565b5090565b82805462000aa29062000b9b565b90600052602060002090601f01602090048101928262000ac6576000855562000b12565b82601f1062000ae157805160ff191683800117855562000b12565b8280016001018555821562000b12579182015b8281111562000b1157825182559160200191906001019062000af4565b5b50905062000b21919062000b7c565b5090565b82805482825590600052602060002090810192821562000b69579160200282015b8281111562000b68578251829060ff1690559160200191906001019062000b46565b5b50905062000b78919062000b7c565b5090565b5b8082111562000b9757600081600090555060010162000b7d565b5090565b6000600282049050600182168062000bb457607f821691505b6020821081141562000bcb5762000bca62000bd1565b5b50919050565b7f4e487b7100000000000000000000000000000000000000000000000000000000600052602260045260246000fd5b614c458062000c106000396000f3fe60806040526004361061021e5760003560e01c806370a0823111610123578063a22cb465116100ab578063c9432c051161006f578063c9432c05146108ad578063d60d951c146108d6578063e985e9c5146108f2578063fa3c88a31461092f578063feadbaea1461094b5761025e565b8063a22cb465146107cc578063b88d4fde146107f5578063c554e1fc1461081e578063c6ff191214610847578063c87b56dd146108705761025e565b8063856ee0c1116100f2578063856ee0c1146106f257806389b8f7d11461071d5780638da5cb5b1461075a57806393bd11f21461078557806395d89b41146107a15761025e565b806370a0823114610610578063714c53981461064d57806376be98d91461067857806378a30fd0146106b55761025e565b806323b872dd116101a657806342842e0e1161017557806342842e0e1461051b578063486fc6d31461054457806355f804b3146105815780635ec37f56146105aa5780636352211e146105d35761025e565b806323b872dd1461044d5780632fb901cd14610476578063329a27e7146104b357806340249af1146104de5761025e565b8063083cf887116101ed578063083cf88714610342578063095ea7b31461037f5780630dd250e1146103a857806310a5a3d9146103d35780631f2b2829146104105761025e565b8063014de7381461026057806301ffc9a71461029d57806306fdde03146102da578063081812fc146103055761025e565b3661025e577f52a6cdf67c40ce333b3d846e4e143db87f71dd7935612a4cafcf6ba76047ca1f3334604051610254929190613e10565b60405180910390a1005b005b34801561026c57600080fd5b506102876004803603810190610282919061386e565b610967565b60405161029491906140f6565b60405180910390f35b3480156102a957600080fd5b506102c460048036038101906102bf91906136ae565b6109c4565b6040516102d19190613e39565b60405180910390f35b3480156102e657600080fd5b506102ef610aa6565b6040516102fc9190613e54565b60405180910390f35b34801561031157600080fd5b5061032c600480360381019061032791906137d4565b610b38565b6040516103399190613d65565b60405180910390f35b34801561034e57600080fd5b506103696004803603810190610364919061389b565b610bbd565b60405161037691906140f6565b60405180910390f35b34801561038b57600080fd5b506103a660048036038101906103a1919061352b565b610bee565b005b3480156103b457600080fd5b506103bd610d06565b6040516103ca919061413a565b60405180910390f35b3480156103df57600080fd5b506103fa60048036038101906103f59190613395565b610d19565b6040516104079190613e39565b60405180910390f35b34801561041c57600080fd5b506104376004803603810190610432919061386e565b610e48565b6040516104449190613e39565b60405180910390f35b34801561045957600080fd5b50610474600480360381019061046f9190613415565b610efa565b005b34801561048257600080fd5b5061049d60048036038101906104989190613368565b610f5a565b6040516104aa91906140f6565b60405180910390f35b3480156104bf57600080fd5b506104c8611013565b6040516104d591906140f6565b60405180910390f35b3480156104ea57600080fd5b506105056004803603810190610500919061386e565b6110ad565b6040516105129190613e39565b60405180910390f35b34801561052757600080fd5b50610542600480360381019061053d9190613415565b61110c565b005b34801561055057600080fd5b5061056b6004803603810190610566919061386e565b61112c565b60405161057891906140f6565b60405180910390f35b34801561058d57600080fd5b506105a860048036038101906105a39190613708565b61115a565b005b3480156105b657600080fd5b506105d160048036038101906105cc91906135be565b611206565b005b3480156105df57600080fd5b506105fa60048036038101906105f591906137d4565b611260565b6040516106079190613d65565b60405180910390f35b34801561061c57600080fd5b5061063760048036038101906106329190613368565b611312565b60405161064491906140f6565b60405180910390f35b34801561065957600080fd5b506106626113ca565b60405161066f9190613e54565b60405180910390f35b34801561068457600080fd5b5061069f600480360381019061069a91906137d4565b6114ee565b6040516106ac919061413a565b60405180910390f35b3480156106c157600080fd5b506106dc60048036038101906106d791906137d4565b61150e565b6040516106e9919061413a565b60405180910390f35b3480156106fe57600080fd5b5061070761152e565b6040516107149190613e39565b60405180910390f35b34801561072957600080fd5b50610744600480360381019061073f91906137d4565b611541565b6040516107519190613e39565b60405180910390f35b34801561076657600080fd5b5061076f611561565b60405161077c9190613d80565b60405180910390f35b61079f600480360381019061079a9190613751565b611587565b005b3480156107ad57600080fd5b506107b6611813565b6040516107c39190613e54565b60405180910390f35b3480156107d857600080fd5b506107f360048036038101906107ee91906134eb565b6118a5565b005b34801561080157600080fd5b5061081c60048036038101906108179190613468565b6118bb565b005b34801561082a57600080fd5b5061084560048036038101906108409190613681565b61191d565b005b34801561085357600080fd5b5061086e6004803603810190610869919061382e565b6119cc565b005b34801561087c57600080fd5b50610897600480360381019061089291906137d4565b611a8b565b6040516108a49190613e54565b60405180910390f35b3480156108b957600080fd5b506108d460048036038101906108cf919061382e565b611b33565b005b6108f060048036038101906108eb91906135fe565b611bf2565b005b3480156108fe57600080fd5b50610919600480360381019061091491906133d5565b611d30565b6040516109269190613e39565b60405180910390f35b6109496004803603810190610944919061352b565b611dc4565b005b6109656004803603810190610960919061356b565b611e57565b005b6000602c6001836109789190614375565b60ff166008811061098c5761098b614624565b5b0154602460018461099d9190614375565b60ff16600881106109b1576109b0614624565b5b01546109bd9190614341565b9050919050565b60007f80ac58cd000000000000000000000000000000000000000000000000000000007bffffffffffffffffffffffffffffffffffffffffffffffffffffffff1916827bffffffffffffffffffffffffffffffffffffffffffffffffffffffff19161480610a8f57507f5b5e139f000000000000000000000000000000000000000000000000000000007bffffffffffffffffffffffffffffffffffffffffffffffffffffffff1916827bffffffffffffffffffffffffffffffffffffffffffffffffffffffff1916145b80610a9f5750610a9e82611fc3565b5b9050919050565b606060008054610ab590614490565b80601f0160208091040260200160405190810160405280929190818152602001828054610ae190614490565b8015610b2e5780601f10610b0357610100808354040283529160200191610b2e565b820191906000526020600020905b815481529060010190602001808311610b1157829003601f168201915b5050505050905090565b6000610b438261202d565b610b82576040517f08c379a0000000000000000000000000000000000000000000000000000000008152600401610b7990613ff6565b60405180910390fd5b6004600083815260200190815260200160002060009054906101000a900473ffffffffffffffffffffffffffffffffffffffff169050919050565b604d6020528160005260406000208181548110610bd957600080fd5b90600052602060002001600091509150505481565b6000610bf982611260565b90508073ffffffffffffffffffffffffffffffffffffffff168373ffffffffffffffffffffffffffffffffffffffff161415610c6a576040517f08c379a0000000000000000000000000000000000000000000000000000000008152600401610c6190614076565b60405180910390fd5b8073ffffffffffffffffffffffffffffffffffffffff16610c89612099565b73ffffffffffffffffffffffffffffffffffffffff161480610cb85750610cb781610cb2612099565b611d30565b5b610cf7576040517f08c379a0000000000000000000000000000000000000000000000000000000008152600401610cee90613f76565b60405180910390fd5b610d0183836120a1565b505050565b600c60019054906101000a900460ff1681565b600033600660009054906101000a900473ffffffffffffffffffffffffffffffffffffffff1673ffffffffffffffffffffffffffffffffffffffff168173ffffffffffffffffffffffffffffffffffffffff1614610dac576040517f08c379a0000000000000000000000000000000000000000000000000000000008152600401610da3906140d6565b60405180910390fd5b610db4611013565b831115610df6576040517f08c379a0000000000000000000000000000000000000000000000000000000008152600401610ded90614096565b60405180910390fd5b8373ffffffffffffffffffffffffffffffffffffffff166108fc849081150290604051600060405180830381858888f19350505050158015610e3c573d6000803e3d6000fd5b50600191505092915050565b600080600090505b60456000600c60019054906101000a900460ff1660ff1660ff16815260200190815260200160002080549050811015610eef5760456000600c60019054906101000a900460ff1660ff1660ff1681526020019081526020016000208181548110610ebd57610ebc614624565b5b90600052602060002001548360ff161415610edc576001915050610ef5565b8080610ee7906144f3565b915050610e50565b50600090505b919050565b610f0b610f05612099565b8261215a565b610f4a576040517f08c379a0000000000000000000000000000000000000000000000000000000008152600401610f41906140b6565b60405180910390fd5b610f55838383612238565b505050565b600080600860009054906101000a900473ffffffffffffffffffffffffffffffffffffffff1673ffffffffffffffffffffffffffffffffffffffff166370a08231846040518263ffffffff1660e01b8152600401610fb89190613d65565b60206040518083038186803b158015610fd057600080fd5b505afa158015610fe4573d6000803e3d6000fd5b505050506040513d601f19601f820116820180604052508101906110089190613801565b905080915050919050565b600033600660009054906101000a900473ffffffffffffffffffffffffffffffffffffffff1673ffffffffffffffffffffffffffffffffffffffff168173ffffffffffffffffffffffffffffffffffffffff16146110a6576040517f08c379a000000000000000000000000000000000000000000000000000000000815260040161109d906140d6565b60405180910390fd5b4791505090565b600080600090505b600d8160ff1610156111015760178160ff16600d81106110d8576110d7614624565b5b01548360ff1614156110ee576001915050611107565b80806110f99061453c565b9150506110b5565b50600090505b919050565b611127838383604051806020016040528060008152506118bb565b505050565b6000603c60018361113d9190614375565b60ff166008811061115157611150614624565b5b01549050919050565b33600660009054906101000a900473ffffffffffffffffffffffffffffffffffffffff1673ffffffffffffffffffffffffffffffffffffffff168173ffffffffffffffffffffffffffffffffffffffff16146111eb576040517f08c379a00000000000000000000000000000000000000000000000000000000081526004016111e2906140d6565b60405180910390fd5b81600b908051906020019061120192919061309f565b505050565b60011515600c60009054906101000a900460ff1615151461125c576040517f08c379a000000000000000000000000000000000000000000000000000000000815260040161125390613e76565b60405180910390fd5b5050565b6000806002600084815260200190815260200160002060009054906101000a900473ffffffffffffffffffffffffffffffffffffffff169050600073ffffffffffffffffffffffffffffffffffffffff168173ffffffffffffffffffffffffffffffffffffffff161415611309576040517f08c379a000000000000000000000000000000000000000000000000000000000815260040161130090613fb6565b60405180910390fd5b80915050919050565b60008073ffffffffffffffffffffffffffffffffffffffff168273ffffffffffffffffffffffffffffffffffffffff161415611383576040517f08c379a000000000000000000000000000000000000000000000000000000000815260040161137a90613f96565b60405180910390fd5b600360008373ffffffffffffffffffffffffffffffffffffffff1673ffffffffffffffffffffffffffffffffffffffff168152602001908152602001600020549050919050565b606033600660009054906101000a900473ffffffffffffffffffffffffffffffffffffffff1673ffffffffffffffffffffffffffffffffffffffff168173ffffffffffffffffffffffffffffffffffffffff161461145d576040517f08c379a0000000000000000000000000000000000000000000000000000000008152600401611454906140d6565b60405180910390fd5b600b805461146a90614490565b80601f016020809104026020016040519081016040528092919081815260200182805461149690614490565b80156114e35780601f106114b8576101008083540402835291602001916114e3565b820191906000526020600020905b8154815290600101906020018083116114c657829003601f168201915b505050505091505090565b604c6020528060005260406000206000915054906101000a900460ff1681565b604a6020528060005260406000206000915054906101000a900460ff1681565b600c60009054906101000a900460ff1681565b604b6020528060005260406000206000915054906101000a900460ff1681565b600660009054906101000a900473ffffffffffffffffffffffffffffffffffffffff1681565b806001151561159582610e48565b1515146115d7576040517f08c379a00000000000000000000000000000000000000000000000000000000081526004016115ce90613ef6565b60405180910390fd5b81836115e282610967565b8111156115ee57600080fd5b60006115f98561112c565b9050600660009054906101000a900473ffffffffffffffffffffffffffffffffffffffff1673ffffffffffffffffffffffffffffffffffffffff163373ffffffffffffffffffffffffffffffffffffffff161461169e57858161165c91906142e7565b341461169d576040517f08c379a000000000000000000000000000000000000000000000000000000000815260040161169490614096565b60405180910390fd5b5b600080604454905060005b888110156117a75781806116bc906144f3565b9250506116c98a8361249f565b87604a600084815260200190815260200160002060006101000a81548160ff021916908360ff160217905550604960008b73ffffffffffffffffffffffffffffffffffffffff1673ffffffffffffffffffffffffffffffffffffffff1681526020019081526020016000208290806001815401808255809150506001900390600052602060002001600090919091909150557fdd3ee52e93d2f67c75859dd03ba44fbae095a9deba7e791d4a8e331f114bce38828b60405161178c929190614111565b60405180910390a1808061179f906144f3565b9150506116a9565b5087602c6001896117b89190614375565b60ff16600881106117cc576117cb614624565b5b01546117d89190614260565b602c6001896117e79190614375565b60ff16600881106117fb576117fa614624565b5b01819055508060448190555050505050505050505050565b60606001805461182290614490565b80601f016020809104026020016040519081016040528092919081815260200182805461184e90614490565b801561189b5780601f106118705761010080835404028352916020019161189b565b820191906000526020600020905b81548152906001019060200180831161187e57829003601f168201915b5050505050905090565b6118b76118b0612099565b8383612679565b5050565b6118cc6118c6612099565b8361215a565b61190b576040517f08c379a0000000000000000000000000000000000000000000000000000000008152600401611902906140b6565b60405180910390fd5b611917848484846127e6565b50505050565b33600660009054906101000a900473ffffffffffffffffffffffffffffffffffffffff1673ffffffffffffffffffffffffffffffffffffffff168173ffffffffffffffffffffffffffffffffffffffff16146119ae576040517f08c379a00000000000000000000000000000000000000000000000000000000081526004016119a5906140d6565b60405180910390fd5b81600c60006101000a81548160ff0219169083151502179055505050565b33600660009054906101000a900473ffffffffffffffffffffffffffffffffffffffff1673ffffffffffffffffffffffffffffffffffffffff168173ffffffffffffffffffffffffffffffffffffffff1614611a5d576040517f08c379a0000000000000000000000000000000000000000000000000000000008152600401611a54906140d6565b60405180910390fd5b826024600184611a6d9190614375565b60ff1660088110611a8157611a80614624565b5b0181905550505050565b6060611a968261202d565b611ad5576040517f08c379a0000000000000000000000000000000000000000000000000000000008152600401611acc90614016565b60405180910390fd5b6000600b8054611ae490614490565b905011611b005760405180602001604052806000815250611b2c565b600b611b0b83612842565b604051602001611b1c929190613d36565b6040516020818303038152906040525b9050919050565b33600660009054906101000a900473ffffffffffffffffffffffffffffffffffffffff1673ffffffffffffffffffffffffffffffffffffffff168173ffffffffffffffffffffffffffffffffffffffff1614611bc4576040517f08c379a0000000000000000000000000000000000000000000000000000000008152600401611bbb906140d6565b60405180910390fd5b82603c600184611bd49190614375565b60ff1660088110611be857611be7614624565b5b0181905550505050565b8260ff1682611c0182826129a3565b6000604860008760ff1681526020019081526020016000205490506000604960008973ffffffffffffffffffffffffffffffffffffffff1673ffffffffffffffffffffffffffffffffffffffff168152602001908152602001600020805480602002602001604051908101604052809291908181526020018280548015611ca757602002820191906000526020600020905b815481526020019060010190808311611c93575b5050505050905060005b8651811015611cf057611cdd878281518110611cd057611ccf614624565b5b6020026020010151612a2c565b8080611ce8906144f3565b915050611cb1565b506000604660008960ff16815260200190815260200160002060009054906101000a900460ff169050611d2589826001612b49565b505050505050505050565b6000600560008473ffffffffffffffffffffffffffffffffffffffff1673ffffffffffffffffffffffffffffffffffffffff16815260200190815260200160002060008373ffffffffffffffffffffffffffffffffffffffff1673ffffffffffffffffffffffffffffffffffffffff16815260200190815260200160002060009054906101000a900460ff16905092915050565b600860009054906101000a900473ffffffffffffffffffffffffffffffffffffffff1673ffffffffffffffffffffffffffffffffffffffff16639dc29fac83836040518363ffffffff1660e01b8152600401611e21929190613e10565b600060405180830381600087803b158015611e3b57600080fd5b505af1158015611e4f573d6000803e3d6000fd5b505050505050565b8281611e6281611260565b73ffffffffffffffffffffffffffffffffffffffff168273ffffffffffffffffffffffffffffffffffffffff1614611ecf576040517f08c379a0000000000000000000000000000000000000000000000000000000008152600401611ec690614036565b60405180910390fd5b600860009054906101000a900473ffffffffffffffffffffffffffffffffffffffff1673ffffffffffffffffffffffffffffffffffffffff16639dc29fac86866040518363ffffffff1660e01b8152600401611f2c929190613e10565b600060405180830381600087803b158015611f4657600080fd5b505af1158015611f5a573d6000803e3d6000fd5b50505050611f6783612a2c565b600060466000604a600087815260200190815260200160002060009054906101000a900460ff1660ff16815260200190815260200160002060009054906101000a900460ff169050611fbb86826001612b49565b505050505050565b60007f01ffc9a7000000000000000000000000000000000000000000000000000000007bffffffffffffffffffffffffffffffffffffffffffffffffffffffff1916827bffffffffffffffffffffffffffffffffffffffffffffffffffffffff1916149050919050565b60008073ffffffffffffffffffffffffffffffffffffffff166002600084815260200190815260200160002060009054906101000a900473ffffffffffffffffffffffffffffffffffffffff1673ffffffffffffffffffffffffffffffffffffffff1614159050919050565b600033905090565b816004600083815260200190815260200160002060006101000a81548173ffffffffffffffffffffffffffffffffffffffff021916908373ffffffffffffffffffffffffffffffffffffffff160217905550808273ffffffffffffffffffffffffffffffffffffffff1661211483611260565b73ffffffffffffffffffffffffffffffffffffffff167f8c5be1e5ebec7d5bd14f71427d1e84f3dd0314c0f7b2291e5b200ac8c7c3b92560405160405180910390a45050565b60006121658261202d565b6121a4576040517f08c379a000000000000000000000000000000000000000000000000000000000815260040161219b90613f56565b60405180910390fd5b60006121af83611260565b90508073ffffffffffffffffffffffffffffffffffffffff168473ffffffffffffffffffffffffffffffffffffffff16148061221e57508373ffffffffffffffffffffffffffffffffffffffff1661220684610b38565b73ffffffffffffffffffffffffffffffffffffffff16145b8061222f575061222e8185611d30565b5b91505092915050565b8273ffffffffffffffffffffffffffffffffffffffff1661225882611260565b73ffffffffffffffffffffffffffffffffffffffff16146122ae576040517f08c379a00000000000000000000000000000000000000000000000000000000081526004016122a590613eb6565b60405180910390fd5b600073ffffffffffffffffffffffffffffffffffffffff168273ffffffffffffffffffffffffffffffffffffffff16141561231e576040517f08c379a000000000000000000000000000000000000000000000000000000000815260040161231590613f16565b60405180910390fd5b612329838383612d2c565b6123346000826120a1565b6001600360008573ffffffffffffffffffffffffffffffffffffffff1673ffffffffffffffffffffffffffffffffffffffff16815260200190815260200160002060008282546123849190614341565b925050819055506001600360008473ffffffffffffffffffffffffffffffffffffffff1673ffffffffffffffffffffffffffffffffffffffff16815260200190815260200160002060008282546123db9190614260565b92505081905550816002600083815260200190815260200160002060006101000a81548173ffffffffffffffffffffffffffffffffffffffff021916908373ffffffffffffffffffffffffffffffffffffffff160217905550808273ffffffffffffffffffffffffffffffffffffffff168473ffffffffffffffffffffffffffffffffffffffff167fddf252ad1be2c89b69c2b068fc378daa952ba7f163c4a11628f55a4df523b3ef60405160405180910390a461249a838383612d31565b505050565b600073ffffffffffffffffffffffffffffffffffffffff168273ffffffffffffffffffffffffffffffffffffffff16141561250f576040517f08c379a000000000000000000000000000000000000000000000000000000000815260040161250690613fd6565b60405180910390fd5b6125188161202d565b15612558576040517f08c379a000000000000000000000000000000000000000000000000000000000815260040161254f90613ed6565b60405180910390fd5b61256460008383612d2c565b6001600360008473ffffffffffffffffffffffffffffffffffffffff1673ffffffffffffffffffffffffffffffffffffffff16815260200190815260200160002060008282546125b49190614260565b92505081905550816002600083815260200190815260200160002060006101000a81548173ffffffffffffffffffffffffffffffffffffffff021916908373ffffffffffffffffffffffffffffffffffffffff160217905550808273ffffffffffffffffffffffffffffffffffffffff16600073ffffffffffffffffffffffffffffffffffffffff167fddf252ad1be2c89b69c2b068fc378daa952ba7f163c4a11628f55a4df523b3ef60405160405180910390a461267560008383612d31565b5050565b8173ffffffffffffffffffffffffffffffffffffffff168373ffffffffffffffffffffffffffffffffffffffff1614156126e8576040517f08c379a00000000000000000000000000000000000000000000000000000000081526004016126df90613f36565b60405180910390fd5b80600560008573ffffffffffffffffffffffffffffffffffffffff1673ffffffffffffffffffffffffffffffffffffffff16815260200190815260200160002060008473ffffffffffffffffffffffffffffffffffffffff1673ffffffffffffffffffffffffffffffffffffffff16815260200190815260200160002060006101000a81548160ff0219169083151502179055508173ffffffffffffffffffffffffffffffffffffffff168373ffffffffffffffffffffffffffffffffffffffff167f17307eab39ab6107e8899845ad3d59bd9653f200f220920489ca2b5937696c31836040516127d99190613e39565b60405180910390a3505050565b6127f1848484612238565b6127fd84848484612d36565b61283c576040517f08c379a000000000000000000000000000000000000000000000000000000000815260040161283390613e96565b60405180910390fd5b50505050565b6060600082141561288a576040518060400160405280600181526020017f3000000000000000000000000000000000000000000000000000000000000000815250905061299e565b600082905060005b600082146128bc5780806128a5906144f3565b915050600a826128b591906142b6565b9150612892565b60008167ffffffffffffffff8111156128d8576128d7614653565b5b6040519080825280601f01601f19166020018201604052801561290a5781602001600182028036833780820191505090505b5090505b60008514612997576001826129239190614341565b9150600a856129329190614566565b603061293e9190614260565b60f81b81838151811061295457612953614624565b5b60200101907effffffffffffffffffffffffffffffffffffffffffffffffffffffffffffff1916908160001a905350600a8561299091906142b6565b945061290e565b8093505050505b919050565b60005b8151811015612a2757604a600082815260200190815260200160002060009054906101000a900460ff1660ff168314612a14576040517f08c379a0000000000000000000000000000000000000000000000000000000008152600401612a0b90614056565b60405180910390fd5b8080612a1f906144f3565b9150506129a6565b505050565b6000612a3782611260565b9050612a4581600084612d2c565b612a506000836120a1565b6001600360008373ffffffffffffffffffffffffffffffffffffffff1673ffffffffffffffffffffffffffffffffffffffff1681526020019081526020016000206000828254612aa09190614341565b925050819055506002600083815260200190815260200160002060006101000a81549073ffffffffffffffffffffffffffffffffffffffff021916905581600073ffffffffffffffffffffffffffffffffffffffff168273ffffffffffffffffffffffffffffffffffffffff167fddf252ad1be2c89b69c2b068fc378daa952ba7f163c4a11628f55a4df523b3ef60405160405180910390a4612b4581600084612d31565b5050565b6000612b5484612ecd565b90506000604454905060005b83811015612cc5578180612b73906144f3565b925050612b80868361249f565b612b88612f9e565b604c600084815260200190815260200160002060006101000a81548160ff021916908360ff160217905550612bbd8184612ff3565b604b600084815260200190815260200160002060006101000a81548160ff02191690831515021790555084604a600084815260200190815260200160002060006101000a81548160ff021916908360ff160217905550604960008773ffffffffffffffffffffffffffffffffffffffff1673ffffffffffffffffffffffffffffffffffffffff1681526020019081526020016000208290806001815401808255809150506001900390600052602060002001600090919091909150557fdd3ee52e93d2f67c75859dd03ba44fbae095a9deba7e791d4a8e331f114bce388287604051612caa929190614111565b60405180910390a18080612cbd906144f3565b915050612b60565b5082602c600186612cd69190614375565b60ff1660088110612cea57612ce9614624565b5b0154612cf69190614260565b602c600186612d059190614375565b60ff1660088110612d1957612d18614624565b5b0181905550806044819055505050505050565b505050565b505050565b6000612d578473ffffffffffffffffffffffffffffffffffffffff1661307c565b15612ec0578373ffffffffffffffffffffffffffffffffffffffff1663150b7a02612d80612099565b8786866040518563ffffffff1660e01b8152600401612da29493929190613d9b565b602060405180830381600087803b158015612dbc57600080fd5b505af1925050508015612ded57506040513d601f19601f82011682018060405250810190612dea91906136db565b60015b612e70573d8060008114612e1d576040519150601f19603f3d011682016040523d82523d6000602084013e612e22565b606091505b50600081511415612e68576040517f08c379a0000000000000000000000000000000000000000000000000000000008152600401612e5f90613e96565b60405180910390fd5b805181602001fd5b63150b7a0260e01b7bffffffffffffffffffffffffffffffffffffffffffffffffffffffff1916817bffffffffffffffffffffffffffffffffffffffffffffffffffffffff191614915050612ec5565b600190505b949350505050565b600080600860009054906101000a900473ffffffffffffffffffffffffffffffffffffffff1673ffffffffffffffffffffffffffffffffffffffff16630cb98b718460026040518363ffffffff1660e01b8152600401612f2e929190613de7565b60206040518083038186803b158015612f4657600080fd5b505afa158015612f5a573d6000803e3d6000fd5b505050506040513d601f19601f82011682018060405250810190612f7e9190613801565b90506000811415612f93576000915050612f99565b60019150505b919050565b6000806040518060800160405280600160ff168152602001600260ff168152602001600360ff168152602001600460ff16815250905080600060048110612fe857612fe7614624565b5b602002015191505090565b60008115613036576000600d846005811061301157613010614624565b5b602091828204019190069054906101000a900460ff1660ff1690506001915050613076565b6000600e846005811061304c5761304b614624565b5b600891828204019190066004029054906101000a900463ffffffff1663ffffffff16905060009150505b92915050565b6000808273ffffffffffffffffffffffffffffffffffffffff163b119050919050565b8280546130ab90614490565b90600052602060002090601f0160209004810192826130cd5760008555613114565b82601f106130e657805160ff1916838001178555613114565b82800160010185558215613114579182015b828111156131135782518255916020019190600101906130f8565b5b5090506131219190613125565b5090565b5b8082111561313e576000816000905550600101613126565b5090565b60006131556131508461417a565b614155565b9050808382526020820190508285602086028201111561317857613177614687565b5b60005b858110156131a8578161318e8882613329565b84526020840193506020830192505060018101905061317b565b5050509392505050565b60006131c56131c0846141a6565b614155565b9050828152602081018484840111156131e1576131e061468c565b5b6131ec84828561444e565b509392505050565b6000613207613202846141d7565b614155565b9050828152602081018484840111156132235761322261468c565b5b61322e84828561444e565b509392505050565b60008135905061324581614b85565b92915050565b60008135905061325a81614b9c565b92915050565b600082601f83011261327557613274614682565b5b8135613285848260208601613142565b91505092915050565b60008135905061329d81614bb3565b92915050565b6000813590506132b281614bca565b92915050565b6000815190506132c781614bca565b92915050565b600082601f8301126132e2576132e1614682565b5b81356132f28482602086016131b2565b91505092915050565b600082601f8301126133105761330f614682565b5b81356133208482602086016131f4565b91505092915050565b60008135905061333881614be1565b92915050565b60008151905061334d81614be1565b92915050565b60008135905061336281614bf8565b92915050565b60006020828403121561337e5761337d614696565b5b600061338c84828501613236565b91505092915050565b600080604083850312156133ac576133ab614696565b5b60006133ba8582860161324b565b92505060206133cb85828601613329565b9150509250929050565b600080604083850312156133ec576133eb614696565b5b60006133fa85828601613236565b925050602061340b85828601613236565b9150509250929050565b60008060006060848603121561342e5761342d614696565b5b600061343c86828701613236565b935050602061344d86828701613236565b925050604061345e86828701613329565b9150509250925092565b6000806000806080858703121561348257613481614696565b5b600061349087828801613236565b94505060206134a187828801613236565b93505060406134b287828801613329565b925050606085013567ffffffffffffffff8111156134d3576134d2614691565b5b6134df878288016132cd565b91505092959194509250565b6000806040838503121561350257613501614696565b5b600061351085828601613236565b92505060206135218582860161328e565b9150509250929050565b6000806040838503121561354257613541614696565b5b600061355085828601613236565b925050602061356185828601613329565b9150509250929050565b60008060006060848603121561358457613583614696565b5b600061359286828701613236565b93505060206135a386828701613329565b92505060406135b486828701613329565b9150509250925092565b600080604083850312156135d5576135d4614696565b5b60006135e385828601613236565b92505060206135f485828601613353565b9150509250929050565b6000806000806080858703121561361857613617614696565b5b600061362687828801613236565b945050602061363787828801613353565b935050604085013567ffffffffffffffff81111561365857613657614691565b5b61366487828801613260565b925050606061367587828801613329565b91505092959194509250565b60006020828403121561369757613696614696565b5b60006136a58482850161328e565b91505092915050565b6000602082840312156136c4576136c3614696565b5b60006136d2848285016132a3565b91505092915050565b6000602082840312156136f1576136f0614696565b5b60006136ff848285016132b8565b91505092915050565b60006020828403121561371e5761371d614696565b5b600082013567ffffffffffffffff81111561373c5761373b614691565b5b613748848285016132fb565b91505092915050565b6000806000806080858703121561376b5761376a614696565b5b600085013567ffffffffffffffff81111561378957613788614691565b5b613795878288016132fb565b94505060206137a687828801613236565b93505060406137b787828801613329565b92505060606137c887828801613353565b91505092959194509250565b6000602082840312156137ea576137e9614696565b5b60006137f884828501613329565b91505092915050565b60006020828403121561381757613816614696565b5b60006138258482850161333e565b91505092915050565b6000806040838503121561384557613844614696565b5b600061385385828601613329565b925050602061386485828601613353565b9150509250929050565b60006020828403121561388457613883614696565b5b600061389284828501613353565b91505092915050565b600080604083850312156138b2576138b1614696565b5b60006138c085828601613353565b92505060206138d185828601613329565b9150509250929050565b6138e4816143bb565b82525050565b6138f3816143a9565b82525050565b613902816143cd565b82525050565b60006139138261421d565b61391d8185614233565b935061392d81856020860161445d565b6139368161469b565b840191505092915050565b61394a8161443c565b82525050565b600061395b82614228565b6139658185614244565b935061397581856020860161445d565b61397e8161469b565b840191505092915050565b600061399482614228565b61399e8185614255565b93506139ae81856020860161445d565b80840191505092915050565b600081546139c781614490565b6139d18186614255565b945060018216600081146139ec57600181146139fd57613a30565b60ff19831686528186019350613a30565b613a0685614208565b60005b83811015613a2857815481890152600182019150602081019050613a09565b838801955050505b50505092915050565b6000613a46601983614244565b9150613a51826146ac565b602082019050919050565b6000613a69603283614244565b9150613a74826146d5565b604082019050919050565b6000613a8c602583614244565b9150613a9782614724565b604082019050919050565b6000613aaf601c83614244565b9150613aba82614773565b602082019050919050565b6000613ad2601083614244565b9150613add8261479c565b602082019050919050565b6000613af5602483614244565b9150613b00826147c5565b604082019050919050565b6000613b18601983614244565b9150613b2382614814565b602082019050919050565b6000613b3b602c83614244565b9150613b468261483d565b604082019050919050565b6000613b5e603883614244565b9150613b698261488c565b604082019050919050565b6000613b81602a83614244565b9150613b8c826148db565b604082019050919050565b6000613ba4602983614244565b9150613baf8261492a565b604082019050919050565b6000613bc7602083614244565b9150613bd282614979565b602082019050919050565b6000613bea602c83614244565b9150613bf5826149a2565b604082019050919050565b6000613c0d601283614244565b9150613c18826149f1565b602082019050919050565b6000613c30600583614255565b9150613c3b82614a1a565b600582019050919050565b6000613c53601283614244565b9150613c5e82614a43565b602082019050919050565b6000613c76601383614244565b9150613c8182614a6c565b602082019050919050565b6000613c99602183614244565b9150613ca482614a95565b604082019050919050565b6000613cbc601383614244565b9150613cc782614ae4565b602082019050919050565b6000613cdf603183614244565b9150613cea82614b0d565b604082019050919050565b6000613d02601183614244565b9150613d0d82614b5c565b602082019050919050565b613d2181614425565b82525050565b613d308161442f565b82525050565b6000613d4282856139ba565b9150613d4e8284613989565b9150613d5982613c23565b91508190509392505050565b6000602082019050613d7a60008301846138ea565b92915050565b6000602082019050613d9560008301846138db565b92915050565b6000608082019050613db060008301876138ea565b613dbd60208301866138ea565b613dca6040830185613d18565b8181036060830152613ddc8184613908565b905095945050505050565b6000604082019050613dfc60008301856138ea565b613e096020830184613941565b9392505050565b6000604082019050613e2560008301856138ea565b613e326020830184613d18565b9392505050565b6000602082019050613e4e60008301846138f9565b92915050565b60006020820190508181036000830152613e6e8184613950565b905092915050565b60006020820190508181036000830152613e8f81613a39565b9050919050565b60006020820190508181036000830152613eaf81613a5c565b9050919050565b60006020820190508181036000830152613ecf81613a7f565b9050919050565b60006020820190508181036000830152613eef81613aa2565b9050919050565b60006020820190508181036000830152613f0f81613ac5565b9050919050565b60006020820190508181036000830152613f2f81613ae8565b9050919050565b60006020820190508181036000830152613f4f81613b0b565b9050919050565b60006020820190508181036000830152613f6f81613b2e565b9050919050565b60006020820190508181036000830152613f8f81613b51565b9050919050565b60006020820190508181036000830152613faf81613b74565b9050919050565b60006020820190508181036000830152613fcf81613b97565b9050919050565b60006020820190508181036000830152613fef81613bba565b9050919050565b6000602082019050818103600083015261400f81613bdd565b9050919050565b6000602082019050818103600083015261402f81613c00565b9050919050565b6000602082019050818103600083015261404f81613c46565b9050919050565b6000602082019050818103600083015261406f81613c69565b9050919050565b6000602082019050818103600083015261408f81613c8c565b9050919050565b600060208201905081810360008301526140af81613caf565b9050919050565b600060208201905081810360008301526140cf81613cd2565b9050919050565b600060208201905081810360008301526140ef81613cf5565b9050919050565b600060208201905061410b6000830184613d18565b92915050565b60006040820190506141266000830185613d18565b61413360208301846138ea565b9392505050565b600060208201905061414f6000830184613d27565b92915050565b600061415f614170565b905061416b82826144c2565b919050565b6000604051905090565b600067ffffffffffffffff82111561419557614194614653565b5b602082029050602081019050919050565b600067ffffffffffffffff8211156141c1576141c0614653565b5b6141ca8261469b565b9050602081019050919050565b600067ffffffffffffffff8211156141f2576141f1614653565b5b6141fb8261469b565b9050602081019050919050565b60008190508160005260206000209050919050565b600081519050919050565b600081519050919050565b600082825260208201905092915050565b600082825260208201905092915050565b600081905092915050565b600061426b82614425565b915061427683614425565b9250827fffffffffffffffffffffffffffffffffffffffffffffffffffffffffffffffff038211156142ab576142aa614597565b5b828201905092915050565b60006142c182614425565b91506142cc83614425565b9250826142dc576142db6145c6565b5b828204905092915050565b60006142f282614425565b91506142fd83614425565b9250817fffffffffffffffffffffffffffffffffffffffffffffffffffffffffffffffff048311821515161561433657614335614597565b5b828202905092915050565b600061434c82614425565b915061435783614425565b92508282101561436a57614369614597565b5b828203905092915050565b60006143808261442f565b915061438b8361442f565b92508282101561439e5761439d614597565b5b828203905092915050565b60006143b482614405565b9050919050565b60006143c682614405565b9050919050565b60008115159050919050565b60007fffffffff0000000000000000000000000000000000000000000000000000000082169050919050565b600073ffffffffffffffffffffffffffffffffffffffff82169050919050565b6000819050919050565b600060ff82169050919050565b60006144478261442f565b9050919050565b82818337600083830152505050565b60005b8381101561447b578082015181840152602081019050614460565b8381111561448a576000848401525b50505050565b600060028204905060018216806144a857607f821691505b602082108114156144bc576144bb6145f5565b5b50919050565b6144cb8261469b565b810181811067ffffffffffffffff821117156144ea576144e9614653565b5b80604052505050565b60006144fe82614425565b91507fffffffffffffffffffffffffffffffffffffffffffffffffffffffffffffffff82141561453157614530614597565b5b600182019050919050565b60006145478261442f565b915060ff82141561455b5761455a614597565b5b600182019050919050565b600061457182614425565b915061457c83614425565b92508261458c5761458b6145c6565b5b828206905092915050565b7f4e487b7100000000000000000000000000000000000000000000000000000000600052601160045260246000fd5b7f4e487b7100000000000000000000000000000000000000000000000000000000600052601260045260246000fd5b7f4e487b7100000000000000000000000000000000000000000000000000000000600052602260045260246000fd5b7f4e487b7100000000000000000000000000000000000000000000000000000000600052603260045260246000fd5b7f4e487b7100000000000000000000000000000000000000000000000000000000600052604160045260246000fd5b600080fd5b600080fd5b600080fd5b600080fd5b600080fd5b6000601f19601f8301169050919050565b7f417274696661637473206e6f7420636f6c6c65637469626c6500000000000000600082015250565b7f4552433732313a207472616e7366657220746f206e6f6e20455243373231526560008201527f63656976657220696d706c656d656e7465720000000000000000000000000000602082015250565b7f4552433732313a207472616e736665722066726f6d20696e636f72726563742060008201527f6f776e6572000000000000000000000000000000000000000000000000000000602082015250565b7f4552433732313a20746f6b656e20616c7265616479206d696e74656400000000600082015250565b7f4e6f74204d696e7461626c652044657800000000000000000000000000000000600082015250565b7f4552433732313a207472616e7366657220746f20746865207a65726f2061646460008201527f7265737300000000000000000000000000000000000000000000000000000000602082015250565b7f4552433732313a20617070726f766520746f2063616c6c657200000000000000600082015250565b7f4552433732313a206f70657261746f7220717565727920666f72206e6f6e657860008201527f697374656e7420746f6b656e0000000000000000000000000000000000000000602082015250565b7f4552433732313a20617070726f76652063616c6c6572206973206e6f74206f7760008201527f6e6572206e6f7220617070726f76656420666f7220616c6c0000000000000000602082015250565b7f4552433732313a2062616c616e636520717565727920666f7220746865207a6560008201527f726f206164647265737300000000000000000000000000000000000000000000602082015250565b7f4552433732313a206f776e657220717565727920666f72206e6f6e657869737460008201527f656e7420746f6b656e0000000000000000000000000000000000000000000000602082015250565b7f4552433732313a206d696e7420746f20746865207a65726f2061646472657373600082015250565b7f4552433732313a20617070726f76656420717565727920666f72206e6f6e657860008201527f697374656e7420746f6b656e0000000000000000000000000000000000000000602082015250565b7f4e6f6e6578697374656e7420746f6b656e210000000000000000000000000000600082015250565b7f2e6a736f6e000000000000000000000000000000000000000000000000000000600082015250565b7f4e6f7420746865206f776e65722063616c6c0000000000000000000000000000600082015250565b7f4e6f7420616c6c2073616d652064657820696400000000000000000000000000600082015250565b7f4552433732313a20617070726f76616c20746f2063757272656e74206f776e6560008201527f7200000000000000000000000000000000000000000000000000000000000000602082015250565b7f4e6f7420456e6f7567682042616c616e63652100000000000000000000000000600082015250565b7f4552433732313a207472616e736665722063616c6c6572206973206e6f74206f60008201527f776e6572206e6f7220617070726f766564000000000000000000000000000000602082015250565b7f4e6f742061206f776e65722063616c6c21000000000000000000000000000000600082015250565b614b8e816143a9565b8114614b9957600080fd5b50565b614ba5816143bb565b8114614bb057600080fd5b50565b614bbc816143cd565b8114614bc757600080fd5b50565b614bd3816143d9565b8114614bde57600080fd5b50565b614bea81614425565b8114614bf557600080fd5b50565b614c018161442f565b8114614c0c57600080fd5b5056fea2646970667358221220566b2c54434d4fc64e26894c3ff3e4d4fd8589ff4f5121a5c54efa3e7316fa8164736f6c63430008070033",
  "immutableReferences": {},
  "source": "// SPDX-License-Identifier: MIT\r\npragma solidity ^0.8.2;\r\nimport \"@openzeppelin/contracts/token/ERC721/ERC721.sol\";\r\n\r\n\r\ninterface ItemContract {\r\n    function getFloorPrice(uint8 _itemType) external view returns (uint256);\r\n    function specificItemOwnership(address _owner, uint8 _itemType) external view returns (uint256);\r\n    function burn(address _burner, uint256 _tokenId) external payable;\r\n    function balanceOf(address _owner) external view returns(uint256);\r\n}\r\n\r\n\r\n// Pick during the meeting 1/10000\r\n// Shiny logic (every mint reset, if you have lucky totem higher chance, if you mintQuantity 10, it increments the probability of minting shiny on each loop of mint\r\n\r\n// Before the personalities in 1/10 chance call the chainlink contract \r\n// Batch actions\r\n\r\n\r\n\r\ncontract Metamon is ERC721 {\r\n    using Strings for uint256;\r\n\r\n    address payable public owner;\r\n    address _itemContractAddress = 0xd2a5bC10698FD955D1Fe6cb468a17809A08fd005; // TODO: we will hardcode it for now\r\n\r\n    ItemContract _item = ItemContract(_itemContractAddress);  // TODO: move this declaration outside of this function\r\n\r\n\r\n    string private itemBaseURI;\r\n    string private metamonBaseURI;\r\n    string private baseURI;\r\n\r\n    bool public collectArtifact = false;\r\n\r\n    event ReceivedEth(address _reciever, uint256 _value);\r\n    event MetamonMint(uint256 _tokenId, address _reciever);\r\n    event MetamonBurn(uint256 _tokenId, uint8 _dexId, address _burner);\r\n\r\n    uint8 public currentMintPhase = 1;\r\n    uint8[5] private withLuckyTotem = [99, 98, 97, 96, 95];  // TODO: total count of 100 probabilities\r\n    uint32[5] private withoutLuckyTotem = [296, 292, 288, 284, 280];  // TODO: total number of 100 probabilities\r\n    uint256[8] private metamonDex = [1, 2, 3, 4, 5, 6, 7, 10]; // REPR: METAMONT DEX NUMBERS\r\n    uint256[13] private evalutionMintDex = [2, 3, 5, 6, 8, 9, 11, 12, 14, 15, 17, 18, 20];\r\n    uint256[8] private metamonSupply = [1000, 0, 0, 2000, 0, 0, 1000, 3000]; // REPR: STARTS FROM TOKEN IDS\r\n    uint256[8] private metamonMinted = [0, 0, 0, 0, 0, 0, 0, 0]; // REPR: STARTS FROM TOKEN IDS\r\n    uint256[8] private metamonMintable = [1, 0, 0, 1, 0, 0, 0, 1]; // REPR: DIRECTLY MINTABLE METAMON DEXIDS\r\n    uint256[8] private metamonFloor = [.05 ether, 0 ether, 0 ether, .025 ether, 0.035 ether, 0.045 ether, 0.055 ether, 0.065 ether];\r\n\r\n    uint256 private _tokenIds;\r\n\r\n    mapping(uint8 => uint256[]) private metamonMintPhases; // REPR: Metamon mint phases by DAX numbers;\r\n    mapping(uint256 => uint8) private familyMetamon; // REPR: Metamon evalution trees\r\n\r\n    mapping(uint256 => uint256) private itemEvaluation; // REPR: Which item needed for which metamon evalution\r\n    mapping(uint256 => uint256) private burnEvaluation; // REPR: How many metamon balance needed for evalution for next metamon dex\r\n\r\n    mapping(address => uint256[]) private ownerCollectedMetamons; // REPR: Collected tokenIDs Metamons per address // TODO: remove when there is a burn or transfer\r\n    mapping(uint256 => uint8) public mintedMetamonDexId; // REPR: Minted metamon dex id\r\n\r\n    mapping(uint256 => bool) public metamonInfoShiny; // REPR: Holds the info about If the minted metamon was shiny or not\r\n    mapping(uint256 => uint8) public metamonInfoPersonality; // REPR: Holds the info about the personality of the metamon\r\n\r\n    mapping(uint8 => uint256[]) public artifactBatches; // REPR: Metamons need to be collected to mint Artifacts\r\n\r\n    constructor() payable ERC721(\"Metamon NFT\", \"NFT\") {\r\n        owner = payable(msg.sender);\r\n\r\n        artifactBatches[1] = [1, 4, 7, 20, 86, 133];  // TODO: we can use metmaon Mint phases, it can be removed\r\n\r\n        // FILLING INFORMATION OF METAMAN AND EVALUATION\r\n        burnEvaluation[1] = 2;\r\n        burnEvaluation[2] = 3;\r\n        itemEvaluation[1] = 1;\r\n        itemEvaluation[2] = 1;\r\n        familyMetamon[1] = 2;\r\n        familyMetamon[2] = 3;\r\n        // ****************\r\n        burnEvaluation[4] = 2;\r\n        burnEvaluation[5] = 3;\r\n        itemEvaluation[4] = 2;\r\n        itemEvaluation[5] = 2;\r\n        familyMetamon[4] = 5;\r\n        familyMetamon[5] = 6;\r\n        // ****************\r\n        metamonMintPhases[1] = [1, 4, 7, 20, 86, 133];\r\n        // ****************\r\n        burnEvaluation[129] = 5; // i.e. 5 #DEX129 has to burned for #DEX139\r\n    }\r\n\r\n    modifier onlyOwner(address sender) {\r\n        require(sender == owner, \"Not a owner call!\");\r\n        _;\r\n    }\r\n\r\n    ///////////////////////////////////////////////////////////////////////////\r\n    // State Changes\r\n    ///////////////////////////////////////////////////////////////////////////\r\n    function changeFloorPrice(\r\n        uint256 _new_price,\r\n        uint8 _dexId\r\n    )\r\n        external\r\n        onlyOwner(msg.sender)\r\n    {\r\n        metamonFloor[_dexId - 1] = _new_price;\r\n    }\r\n\r\n    function changeSupplyDexId(\r\n        uint256 _new_supply,\r\n        uint8 _dexId\r\n    )\r\n        external\r\n        onlyOwner(msg.sender)\r\n    {\r\n        metamonSupply[_dexId - 1] = _new_supply;\r\n    }\r\n\r\n    ///////////////////////////////////////////////////////////////////////////\r\n    // State Info\r\n    ///////////////////////////////////////////////////////////////////////////\r\n    function getFloorPrice(uint8 _dexId)\r\n        public\r\n        view\r\n        returns (uint256)\r\n    {\r\n        return metamonFloor[_dexId - 1];\r\n    }\r\n\r\n    function getWalletBalance()\r\n        public\r\n        view\r\n        onlyOwner(msg.sender)\r\n        returns (uint256)\r\n    {\r\n        return address(this).balance;\r\n    }\r\n\r\n    function getSupplyDex(uint8 _dexId)\r\n        public\r\n        view\r\n        returns (uint256)\r\n    {\r\n        return metamonSupply[_dexId - 1] - metamonMinted[_dexId - 1];\r\n    }\r\n\r\n    ///////////////////////////////////////////////////////////////////////////\r\n    // Contract ETH Deals\r\n    ///////////////////////////////////////////////////////////////////////////\r\n    fallback() external payable {}\r\n\r\n    receive() external payable {\r\n        emit ReceivedEth(msg.sender, msg.value);\r\n    }\r\n\r\n    function transferContractBalance(\r\n        address payable _recipient,\r\n        uint256 _amount\r\n    ) external onlyOwner(msg.sender) returns (bool) {\r\n        require(_amount <= getWalletBalance(), \"Not Enough Balance!\");\r\n        _recipient.transfer(_amount);\r\n        return true;\r\n    }\r\n\r\n    ///////////////////////////////////////////////////////////////////////////\r\n    // Meta Data Related\r\n    ///////////////////////////////////////////////////////////////////////////\r\n    function setBaseURI(string memory _baseURILink)\r\n        external\r\n        onlyOwner(msg.sender)\r\n    {\r\n        baseURI = _baseURILink;\r\n    }\r\n\r\n    function getBaseURI()\r\n        external\r\n        view\r\n        onlyOwner(msg.sender)\r\n        returns (string memory)\r\n    {\r\n        return baseURI;\r\n    }\r\n\r\n    function _baseURI() internal view virtual override returns (string memory) {\r\n        // We will have different baseURIs for Item and Metamon\r\n        // TODO: move items into different collection\r\n        return baseURI;\r\n    }\r\n\r\n    function tokenURI(uint256 tokenId)\r\n        public\r\n        view\r\n        virtual\r\n        override\r\n        returns (string memory)\r\n    {\r\n        require(_exists(tokenId), \"Nonexistent token!\");\r\n        // We can retrieve the information about token id\r\n        // -> is it Item or Metamon\r\n        // -> what is the dax number\r\n        // -> based on the information that we retrieve we will return base_uri\r\n        // TODO: move items into different collection\r\n\r\n        return\r\n            bytes(baseURI).length > 0\r\n                ? string(abi.encodePacked(baseURI, tokenId.toString(), \".json\"))\r\n                : \"\";\r\n    }\r\n\r\n    ///////////////////////////////////////////////////////////////////////////\r\n    // Mint / Randomness Mockup TODO: remove this section when Coinbase Implementation\r\n    ///////////////////////////////////////////////////////////////////////////\r\n    function _mockupRandomPersonality() internal pure returns(uint8) {\r\n        uint8[4] memory personality = [1, 2, 3, 4];\r\n        return personality[0];\r\n    }\r\n\r\n    function _mockupRandomShiny(uint256 _quantity, bool lucky) internal view returns(bool) {\r\n        // TODO: randomness comes from the loop\r\n        if (lucky){\r\n            uint256 probability = withLuckyTotem[_quantity];\r\n            // TODO: there should be some randomness based on the probability\r\n            return true;\r\n        } else {\r\n            uint256 probability = withoutLuckyTotem[_quantity];\r\n            // TODO: there should be some randomness based on the probability\r\n            return false;\r\n        }\r\n\r\n    }\r\n\r\n    function _checkLuckyOwnership(address _recipient) internal view returns (bool){\r\n        // TODO: lucky item hardcoded as \"2\" for this\r\n        uint256 total_ownership = _item.specificItemOwnership(_recipient, 2); // Checks whether Lucky Totem has been owned/or not\r\n        if (total_ownership == 0){\r\n            return false;\r\n        } else {\r\n            return true;\r\n        }\r\n    }\r\n\r\n    ///////////////////////////////////////////////////////////////////////////\r\n    // Mint  Phases\r\n    ///////////////////////////////////////////////////////////////////////////\r\n    function mintableDex(uint8 _dexId) public view returns(bool){\r\n        // Helper function checks if Dex Id can be mintable for current mint phase\r\n        for (uint i=0; i < metamonMintPhases[currentMintPhase].length; i ++){\r\n            if (_dexId == metamonMintPhases[currentMintPhase][i]){\r\n                return true;\r\n            }\r\n        }\r\n        return false;\r\n    }\r\n\r\n    function mintableSpecial(uint8 _dexId) public view returns(bool){\r\n        // Helper function checks if Dex Id can be specially mintable for evalution\r\n        for (uint8 i=0; i < evalutionMintDex.length; i ++ ){\r\n            if (_dexId == evalutionMintDex[i]){\r\n                return true;\r\n            }\r\n        }\r\n        return false;\r\n    }\r\n\r\n    modifier mintableDexPhase(uint8 _dexId) {\r\n        require(mintableDex(_dexId) == true, 'Not Mintable Dex');\r\n        _;\r\n    }\r\n\r\n    modifier mintalbeSpecialDex(uint8 _dexId) {\r\n        require(mintableSpecial(_dexId) == true, 'Not Mintable Special Dex');\r\n        _;\r\n    }\r\n\r\n    modifier mintableSupply(uint8 _dexId, uint256 _quantity){\r\n        require(_quantity <= getSupplyDex(_dexId));\r\n        _;\r\n    }\r\n\r\n    function mintSpecial(\r\n        address _recipient,\r\n        uint8 _dexId,\r\n        uint256 _quantity\r\n    ) internal {\r\n        bool lucky = _checkLuckyOwnership(_recipient);\r\n        uint256 j = _tokenIds;\r\n        for (uint256 i = 0; i < _quantity; i ++){\r\n            j ++;\r\n            _mint(_recipient, j);\r\n            metamonInfoPersonality[j] = _mockupRandomPersonality();\r\n            metamonInfoShiny[j] = _mockupRandomShiny(i, lucky);\r\n\r\n            mintedMetamonDexId[j] = _dexId;\r\n            ownerCollectedMetamons[_recipient].push(j);\r\n            emit MetamonMint(j, _recipient);\r\n        }\r\n         metamonMinted[_dexId - 1] = metamonMinted[_dexId - 1] + _quantity;\r\n        _tokenIds = j;\r\n    }\r\n\r\n    function mintSale(\r\n            string memory _passCode,\r\n            address _recipient,\r\n            uint256 _quantity,\r\n            uint8 _dexId // TODO: talk to Nick about the RNG of the dexID\r\n        ) external payable mintableDexPhase(_dexId) mintableSupply(_dexId, _quantity) {\r\n\r\n        uint256 floorPrice = getFloorPrice(_dexId);\r\n        if (msg.sender != owner) {\r\n            require(msg.value == floorPrice * _quantity, \"Not Enough Balance!\");\r\n        }\r\n\r\n        bool lucky = false;  // TODO: _checkLuckyOwnership(_recipient);\r\n\r\n        uint256 j = _tokenIds;\r\n        for (uint256 i = 0; i < _quantity; i++) {\r\n            j++;\r\n            _mint(_recipient, j);\r\n            // metamonInfoPersonality[j] = _mockupRandomPersonality();  // TODO: change with VRF\r\n            // metamonInfoShiny[j]= _mockupRandomShiny(i, lucky);  // TODO: change with VRF\r\n            mintedMetamonDexId[j] = _dexId;\r\n            ownerCollectedMetamons[_recipient].push(j);\r\n            emit MetamonMint(j, _recipient);\r\n        }\r\n       metamonMinted[_dexId - 1] = metamonMinted[_dexId - 1] + _quantity;\r\n        _tokenIds = j;\r\n    }\r\n\r\n    ///////////////////////////////////////////////////////////////////////////\r\n    // Mint / Burn Phases\r\n    ///////////////////////////////////////////////////////////////////////////\r\n    function artifactCollectTime(bool _collect) public onlyOwner(msg.sender){\r\n        collectArtifact = _collect;\r\n    }\r\n\r\n    modifier artifactCollectibe(){\r\n        require(collectArtifact == true, 'Artifacts not collectible');\r\n        _;\r\n    }\r\n\r\n    function mintArtifact(address _recipient, uint8 _targetArtifact) external artifactCollectibe() {\r\n\r\n\r\n    }\r\n\r\n    function specificDexIdOwned(address _recipient, uint8 _dexId) internal returns(uint256[] memory) {\r\n        // Return owned dexId's tokenIds\r\n        uint256 counter = 0;\r\n        uint256[] memory collectedMetamons = ownerCollectedMetamons[_recipient];\r\n        uint256[] memory specificDexTokenIds;\r\n        for (uint256 i=0; i < collectedMetamons.length; i++) {\r\n            if (_dexId == mintedMetamonDexId[collectedMetamons[i]]){\r\n                specificDexTokenIds[i] = collectedMetamons[i];\r\n            }\r\n        }\r\n        return(specificDexTokenIds);\r\n    }\r\n\r\n    modifier ownerOfMetamon(address _recipient, uint256 _sendDexTokenId) {\r\n        require(_recipient == ownerOf(_sendDexTokenId), \"Not the owner call\");\r\n        _;\r\n    }\r\n\r\n    function evalutionItemBurn(\r\n        address _recipient,\r\n        uint256 _sendItemTokenId,\r\n        uint256 _sendDexTokenId\r\n    ) public payable ownerOfMetamon(_recipient, _sendDexTokenId) {\r\n        // TODO: burn metamon and item together for evalution\r\n        _item.burn(_recipient, _sendItemTokenId); // item token will handle burnable logic\r\n        _burn(_sendDexTokenId); // normally you need to burn 1 metamon to evolve\r\n        uint8 _dexId = familyMetamon[mintedMetamonDexId[_sendDexTokenId]];\r\n        mintSpecial(_recipient, _dexId, 1);\r\n    }\r\n\r\n    function checkTokensDexId(uint256 _dexId, uint256[] memory _sendDexTokensId) internal {\r\n        for (uint256 i; i < _sendDexTokensId.length; i++){\r\n            require(_dexId == mintedMetamonDexId[i], \"Not all same dex id\");\r\n        }\r\n    }\r\n\r\n    modifier checkTokensDex(uint256 _dexId, uint256[] memory  _sendDexTokensId){\r\n        checkTokensDexId(_dexId, _sendDexTokensId);\r\n        _;\r\n    }\r\n\r\n    function evalutionMetaBurn(\r\n        address _recipient,\r\n        uint8 _dexId,\r\n        uint256[] memory _sendDexTokenId,\r\n        uint256 _quantitySend\r\n        ) public payable checkTokensDex(_dexId, _sendDexTokenId) {\r\n        // TODO: only burn metamon for evalution # ownerOfMetamon(_recipient, _sendDexTokenId)\r\n\r\n        uint256 _quantityCondition = burnEvaluation[_dexId];\r\n        uint256[] memory _collectedMetamons = ownerCollectedMetamons[_recipient];\r\n        // check number of metamon ownership to check _quantityCondition\r\n        for (uint i; i < _sendDexTokenId.length; i ++){\r\n            _burn(_sendDexTokenId[i]);\r\n        }\r\n        uint8 dexId = familyMetamon[_dexId];\r\n        mintSpecial(_recipient, dexId, 1);\r\n    }\r\n\r\n\r\n    ///////////////////////////////////////////////////////////////////////////\r\n    // Item Contract Calls\r\n    ///////////////////////////////////////////////////////////////////////////\r\n    function checkItemOwnership(\r\n        address _owner\r\n    ) public view returns(uint256){\r\n        uint256 balance = _item.balanceOf(_owner);\r\n        return balance;\r\n    }\r\n\r\n    function burnItem(\r\n        address _reciever,\r\n        uint256 _sendItemTokenId\r\n    ) public payable {\r\n        _item.burn(_reciever, _sendItemTokenId);\r\n    }\r\n}",
  "sourcePath": "W:\\NFTS\\Metamon\\metamon_contracts\\contracts\\Metamon.sol",
  "compiler": {
    "name": "solc",
    "version": "0.8.7+commit.e28d00a7.Emscripten.clang"
  },
  "schemaVersion": "3.4.6",
  "updatedAt": "2022-03-27T17:39:48.495Z",
  "networkType": "ethereum",
  "devdoc": {
    "kind": "dev",
    "methods": {
      "approve(address,uint256)": {
        "details": "See {IERC721-approve}."
      },
      "balanceOf(address)": {
        "details": "See {IERC721-balanceOf}."
      },
      "getApproved(uint256)": {
        "details": "See {IERC721-getApproved}."
      },
      "isApprovedForAll(address,address)": {
        "details": "See {IERC721-isApprovedForAll}."
      },
      "name()": {
        "details": "See {IERC721Metadata-name}."
      },
      "ownerOf(uint256)": {
        "details": "See {IERC721-ownerOf}."
      },
      "safeTransferFrom(address,address,uint256)": {
        "details": "See {IERC721-safeTransferFrom}."
      },
      "safeTransferFrom(address,address,uint256,bytes)": {
        "details": "See {IERC721-safeTransferFrom}."
      },
      "setApprovalForAll(address,bool)": {
        "details": "See {IERC721-setApprovalForAll}."
      },
      "supportsInterface(bytes4)": {
        "details": "See {IERC165-supportsInterface}."
      },
      "symbol()": {
        "details": "See {IERC721Metadata-symbol}."
      },
      "tokenURI(uint256)": {
        "details": "See {IERC721Metadata-tokenURI}."
      },
      "transferFrom(address,address,uint256)": {
        "details": "See {IERC721-transferFrom}."
      }
    },
    "version": 1
  },
  "userdoc": {
    "kind": "user",
    "methods": {},
    "version": 1
  }
}