{
  "contractName": "Metamon",
  "abi": [
    {
      "inputs": [],
      "stateMutability": "payable",
      "type": "constructor",
      "payable": true
    },
    {
      "anonymous": false,
      "inputs": [
        {
          "indexed": true,
          "internalType": "address",
          "name": "owner",
          "type": "address"
        },
        {
          "indexed": true,
          "internalType": "address",
          "name": "approved",
          "type": "address"
        },
        {
          "indexed": true,
          "internalType": "uint256",
          "name": "tokenId",
          "type": "uint256"
        }
      ],
      "name": "Approval",
      "type": "event"
    },
    {
      "anonymous": false,
      "inputs": [
        {
          "indexed": true,
          "internalType": "address",
          "name": "owner",
          "type": "address"
        },
        {
          "indexed": true,
          "internalType": "address",
          "name": "operator",
          "type": "address"
        },
        {
          "indexed": false,
          "internalType": "bool",
          "name": "approved",
          "type": "bool"
        }
      ],
      "name": "ApprovalForAll",
      "type": "event"
    },
    {
      "anonymous": false,
      "inputs": [
        {
          "indexed": false,
          "internalType": "uint256",
          "name": "_tokenId",
          "type": "uint256"
        },
        {
          "indexed": false,
          "internalType": "address",
          "name": "_reciever",
          "type": "address"
        }
      ],
      "name": "MetamonMint",
      "type": "event"
    },
    {
      "anonymous": false,
      "inputs": [
        {
          "indexed": false,
          "internalType": "address",
          "name": "_reciever",
          "type": "address"
        },
        {
          "indexed": false,
          "internalType": "uint256",
          "name": "_value",
          "type": "uint256"
        }
      ],
      "name": "ReceivedEth",
      "type": "event"
    },
    {
      "anonymous": false,
      "inputs": [
        {
          "indexed": true,
          "internalType": "address",
          "name": "from",
          "type": "address"
        },
        {
          "indexed": true,
          "internalType": "address",
          "name": "to",
          "type": "address"
        },
        {
          "indexed": true,
          "internalType": "uint256",
          "name": "tokenId",
          "type": "uint256"
        }
      ],
      "name": "Transfer",
      "type": "event"
    },
    {
      "stateMutability": "payable",
      "type": "fallback",
      "payable": true
    },
    {
      "inputs": [
        {
          "internalType": "address",
          "name": "to",
          "type": "address"
        },
        {
          "internalType": "uint256",
          "name": "tokenId",
          "type": "uint256"
        }
      ],
      "name": "approve",
      "outputs": [],
      "stateMutability": "nonpayable",
      "type": "function"
    },
    {
      "inputs": [
        {
          "internalType": "address",
          "name": "owner",
          "type": "address"
        }
      ],
      "name": "balanceOf",
      "outputs": [
        {
          "internalType": "uint256",
          "name": "",
          "type": "uint256"
        }
      ],
      "stateMutability": "view",
      "type": "function",
      "constant": true
    },
    {
      "inputs": [
        {
          "internalType": "uint256",
          "name": "tokenId",
          "type": "uint256"
        }
      ],
      "name": "getApproved",
      "outputs": [
        {
          "internalType": "address",
          "name": "",
          "type": "address"
        }
      ],
      "stateMutability": "view",
      "type": "function",
      "constant": true
    },
    {
      "inputs": [
        {
          "internalType": "address",
          "name": "owner",
          "type": "address"
        },
        {
          "internalType": "address",
          "name": "operator",
          "type": "address"
        }
      ],
      "name": "isApprovedForAll",
      "outputs": [
        {
          "internalType": "bool",
          "name": "",
          "type": "bool"
        }
      ],
      "stateMutability": "view",
      "type": "function",
      "constant": true
    },
    {
      "inputs": [],
      "name": "name",
      "outputs": [
        {
          "internalType": "string",
          "name": "",
          "type": "string"
        }
      ],
      "stateMutability": "view",
      "type": "function",
      "constant": true
    },
    {
      "inputs": [],
      "name": "owner",
      "outputs": [
        {
          "internalType": "address payable",
          "name": "",
          "type": "address"
        }
      ],
      "stateMutability": "view",
      "type": "function",
      "constant": true
    },
    {
      "inputs": [
        {
          "internalType": "uint256",
          "name": "tokenId",
          "type": "uint256"
        }
      ],
      "name": "ownerOf",
      "outputs": [
        {
          "internalType": "address",
          "name": "",
          "type": "address"
        }
      ],
      "stateMutability": "view",
      "type": "function",
      "constant": true
    },
    {
      "inputs": [
        {
          "internalType": "address",
          "name": "from",
          "type": "address"
        },
        {
          "internalType": "address",
          "name": "to",
          "type": "address"
        },
        {
          "internalType": "uint256",
          "name": "tokenId",
          "type": "uint256"
        }
      ],
      "name": "safeTransferFrom",
      "outputs": [],
      "stateMutability": "nonpayable",
      "type": "function"
    },
    {
      "inputs": [
        {
          "internalType": "address",
          "name": "from",
          "type": "address"
        },
        {
          "internalType": "address",
          "name": "to",
          "type": "address"
        },
        {
          "internalType": "uint256",
          "name": "tokenId",
          "type": "uint256"
        },
        {
          "internalType": "bytes",
          "name": "_data",
          "type": "bytes"
        }
      ],
      "name": "safeTransferFrom",
      "outputs": [],
      "stateMutability": "nonpayable",
      "type": "function"
    },
    {
      "inputs": [
        {
          "internalType": "address",
          "name": "operator",
          "type": "address"
        },
        {
          "internalType": "bool",
          "name": "approved",
          "type": "bool"
        }
      ],
      "name": "setApprovalForAll",
      "outputs": [],
      "stateMutability": "nonpayable",
      "type": "function"
    },
    {
      "inputs": [
        {
          "internalType": "bytes4",
          "name": "interfaceId",
          "type": "bytes4"
        }
      ],
      "name": "supportsInterface",
      "outputs": [
        {
          "internalType": "bool",
          "name": "",
          "type": "bool"
        }
      ],
      "stateMutability": "view",
      "type": "function",
      "constant": true
    },
    {
      "inputs": [],
      "name": "symbol",
      "outputs": [
        {
          "internalType": "string",
          "name": "",
          "type": "string"
        }
      ],
      "stateMutability": "view",
      "type": "function",
      "constant": true
    },
    {
      "inputs": [
        {
          "internalType": "address",
          "name": "from",
          "type": "address"
        },
        {
          "internalType": "address",
          "name": "to",
          "type": "address"
        },
        {
          "internalType": "uint256",
          "name": "tokenId",
          "type": "uint256"
        }
      ],
      "name": "transferFrom",
      "outputs": [],
      "stateMutability": "nonpayable",
      "type": "function"
    },
    {
      "stateMutability": "payable",
      "type": "receive",
      "payable": true
    },
    {
      "inputs": [
        {
          "internalType": "uint256",
          "name": "_new_price",
          "type": "uint256"
        },
        {
          "internalType": "uint8",
          "name": "_index",
          "type": "uint8"
        }
      ],
      "name": "changeFloorPrice",
      "outputs": [],
      "stateMutability": "nonpayable",
      "type": "function"
    },
    {
      "inputs": [
        {
          "internalType": "uint8",
          "name": "_index",
          "type": "uint8"
        }
      ],
      "name": "getFloorPrice",
      "outputs": [
        {
          "internalType": "uint256",
          "name": "",
          "type": "uint256"
        }
      ],
      "stateMutability": "view",
      "type": "function",
      "constant": true
    },
    {
      "inputs": [],
      "name": "getWalletBalance",
      "outputs": [
        {
          "internalType": "uint256",
          "name": "",
          "type": "uint256"
        }
      ],
      "stateMutability": "view",
      "type": "function",
      "constant": true
    },
    {
      "inputs": [
        {
          "internalType": "address payable",
          "name": "_recipient",
          "type": "address"
        },
        {
          "internalType": "uint256",
          "name": "_amount",
          "type": "uint256"
        }
      ],
      "name": "transferContractBalance",
      "outputs": [
        {
          "internalType": "bool",
          "name": "",
          "type": "bool"
        }
      ],
      "stateMutability": "nonpayable",
      "type": "function"
    },
    {
      "inputs": [
        {
          "internalType": "string",
          "name": "_baseURILink",
          "type": "string"
        }
      ],
      "name": "setBaseURI",
      "outputs": [],
      "stateMutability": "nonpayable",
      "type": "function"
    },
    {
      "inputs": [],
      "name": "getBaseURI",
      "outputs": [
        {
          "internalType": "string",
          "name": "",
          "type": "string"
        }
      ],
      "stateMutability": "view",
      "type": "function",
      "constant": true
    },
    {
      "inputs": [
        {
          "internalType": "uint256",
          "name": "tokenId",
          "type": "uint256"
        }
      ],
      "name": "tokenURI",
      "outputs": [
        {
          "internalType": "string",
          "name": "",
          "type": "string"
        }
      ],
      "stateMutability": "view",
      "type": "function",
      "constant": true
    },
    {
      "inputs": [
        {
          "internalType": "uint256",
          "name": "_value",
          "type": "uint256"
        }
      ],
      "name": "burn",
      "outputs": [],
      "stateMutability": "nonpayable",
      "type": "function"
    },
    {
      "inputs": [
        {
          "internalType": "address",
          "name": "_recipient",
          "type": "address"
        },
        {
          "internalType": "address",
          "name": "_itemContractAddress",
          "type": "address"
        },
        {
          "internalType": "uint8",
          "name": "_itemType",
          "type": "uint8"
        },
        {
          "internalType": "uint256",
          "name": "_quantity",
          "type": "uint256"
        }
      ],
      "name": "mintSale",
      "outputs": [
        {
          "internalType": "uint256",
          "name": "",
          "type": "uint256"
        }
      ],
      "stateMutability": "payable",
      "type": "function",
      "payable": true
    },
    {
      "inputs": [
        {
          "internalType": "address",
          "name": "_recipient",
          "type": "address"
        },
        {
          "internalType": "uint256",
          "name": "_quantity",
          "type": "uint256"
        }
      ],
      "name": "evalutionMetaItem",
      "outputs": [],
      "stateMutability": "nonpayable",
      "type": "function"
    },
    {
      "inputs": [
        {
          "internalType": "address",
          "name": "_recipient",
          "type": "address"
        },
        {
          "internalType": "uint256",
          "name": "_sendTokenId",
          "type": "uint256"
        },
        {
          "internalType": "uint256",
          "name": "_sendDaxId",
          "type": "uint256"
        },
        {
          "internalType": "uint256",
          "name": "_targetDax",
          "type": "uint256"
        },
        {
          "internalType": "uint256",
          "name": "_itemTokenId",
          "type": "uint256"
        }
      ],
      "name": "evalutionMetaBurn",
      "outputs": [],
      "stateMutability": "nonpayable",
      "type": "function"
    }
  ],
  "bytecode": "0x60806040526040518060c00160405280600160ff168152602001600260ff168152602001600360ff168152602001600460ff168152602001600560ff168152602001600660ff16815250600b9060066200005b929190620008d3565b506040518060c001604052806103e861ffff1681526020016107d061ffff1681526020016103e861ffff168152602001610bb861ffff168152602001610fa061ffff1681526020016103e861ffff168152506011906006620000bf9291906200091d565b506040518060c00160405280600160ff168152602001600160ff168152602001600160ff168152602001600160ff168152602001600160ff168152602001600160ff16815250601790600662000117929190620008d3565b506040518060e0016040528066b1a2bc2ec5000067ffffffffffffffff1681526020016658d15e1762800067ffffffffffffffff168152602001667c58508723800067ffffffffffffffff168152602001669fdf42f6e4800067ffffffffffffffff16815260200166c3663566a5800067ffffffffffffffff16815260200166e6ed27d666800067ffffffffffffffff16815260200167010a741a4627800067ffffffffffffffff16815250601d906007620001d592919062000968565b506040518060400160405280600b81526020017f4d6574616d6f6e204e46540000000000000000000000000000000000000000008152506040518060400160405280600381526020017f4e4654000000000000000000000000000000000000000000000000000000000081525081600090805190602001906200025a929190620009b9565b50806001908051906020019062000273929190620009b9565b50505033600660006101000a81548173ffffffffffffffffffffffffffffffffffffffff021916908373ffffffffffffffffffffffffffffffffffffffff16021790555060036028600060018152602001908152602001600020819055506003602860006002815260200190815260200160002081905550600260266000600181526020019081526020016000208190555060036026600060028152602001908152602001600020819055506003602860006004815260200190815260200160002081905550600360286000600581526020019081526020016000208190555060056026600060048152602001908152602001600020819055506006602660006005815260200190815260200160002081905550604051806101400160405280600160ff168152602001600260ff168152602001600360ff168152602001600460ff168152602001600560ff168152602001600660ff168152602001600760ff168152602001600860ff168152602001600960ff168152602001600a60ff1681525060256000600160ff16815260200190815260200160002090600a6200041c92919062000a4a565b50604051806101400160405280600b60ff168152602001600c60ff168152602001600d60ff168152602001600e60ff168152602001600f60ff168152602001601060ff168152602001601160ff168152602001601260ff168152602001601360ff168152602001601460ff1681525060256000600260ff16815260200190815260200160002090600a620004b292919062000a4a565b50604051806101400160405280601560ff168152602001600260ff168152602001600360ff168152602001600460ff168152602001600560ff168152602001600660ff168152602001600760ff168152602001600860ff168152602001600960ff168152602001601e60ff1681525060256000600360ff16815260200190815260200160002090600a6200054892919062000a4a565b50604051806101400160405280601f60ff168152602001600260ff168152602001600360ff168152602001600460ff168152602001600560ff168152602001600660ff168152602001600760ff168152602001600860ff168152602001600960ff168152602001602860ff1681525060256000600460ff16815260200190815260200160002090600a620005de92919062000a4a565b50604051806101400160405280602960ff168152602001600260ff168152602001600360ff168152602001600460ff168152602001600560ff168152602001600660ff168152602001600760ff168152602001600860ff168152602001600960ff168152602001603260ff1681525060256000600560ff16815260200190815260200160002090600a6200067492919062000a4a565b50604051806101400160405280603360ff168152602001600260ff168152602001600360ff168152602001600460ff168152602001600560ff168152602001600660ff168152602001600760ff168152602001600860ff168152602001600960ff168152602001603c60ff1681525060256000600660ff16815260200190815260200160002090600a6200070a92919062000a4a565b50604051806101400160405280603d60ff168152602001600260ff168152602001600360ff168152602001600460ff168152602001600560ff168152602001600660ff168152602001600760ff168152602001600860ff168152602001600960ff168152602001603c60ff1681525060256000600760ff16815260200190815260200160002090600a620007a092919062000a4a565b50604051806101400160405280604760ff168152602001600260ff168152602001600360ff168152602001600460ff168152602001600560ff168152602001600660ff168152602001600760ff168152602001600860ff168152602001600960ff168152602001604660ff1681525060256000600960ff16815260200190815260200160002090600a6200083692919062000a4a565b50604051806101400160405280605160ff168152602001600260ff168152602001600360ff168152602001600460ff168152602001600560ff168152602001600660ff168152602001600760ff168152602001600860ff168152602001600960ff168152602001605060ff1681525060256000600a60ff16815260200190815260200160002090600a620008cc92919062000a4a565b5062000b25565b82600681019282156200090a579160200282015b8281111562000909578251829060ff16905591602001919060010190620008e7565b5b50905062000919919062000aa1565b5090565b826006810192821562000955579160200282015b8281111562000954578251829061ffff1690559160200191906001019062000931565b5b50905062000964919062000aa1565b5090565b8260078101928215620009a6579160200282015b82811115620009a5578251829067ffffffffffffffff169055916020019190600101906200097c565b5b509050620009b5919062000aa1565b5090565b828054620009c79062000ac0565b90600052602060002090601f016020900481019282620009eb576000855562000a37565b82601f1062000a0657805160ff191683800117855562000a37565b8280016001018555821562000a37579182015b8281111562000a3657825182559160200191906001019062000a19565b5b50905062000a46919062000aa1565b5090565b82805482825590600052602060002090810192821562000a8e579160200282015b8281111562000a8d578251829060ff1690559160200191906001019062000a6b565b5b50905062000a9d919062000aa1565b5090565b5b8082111562000abc57600081600090555060010162000aa2565b5090565b6000600282049050600182168062000ad957607f821691505b6020821081141562000af05762000aef62000af6565b5b50919050565b7f4e487b7100000000000000000000000000000000000000000000000000000000600052602260045260246000fd5b61347c8062000b356000396000f3fe60806040526004361061014f5760003560e01c80636352211e116100b6578063a22cb4651161006f578063a22cb465146104fc578063a944e46114610525578063b88d4fde1461054e578063c87b56dd14610577578063c9432c05146105b4578063e985e9c5146105dd5761018f565b80636352211e146103d157806370a082311461040e578063714c53981461044b5780638da5cb5b1461047657806391522ff3146104a157806395d89b41146104d15761018f565b806323b872dd1161010857806323b872dd146102c5578063329a27e7146102ee57806342842e0e1461031957806342966c6814610342578063486fc6d31461036b57806355f804b3146103a85761018f565b806301ffc9a71461019157806302b6a036146101ce57806306fdde03146101f7578063081812fc14610222578063095ea7b31461025f57806310a5a3d9146102885761018f565b3661018f577f52a6cdf67c40ce333b3d846e4e143db87f71dd7935612a4cafcf6ba76047ca1f3334604051610185929190612964565b60405180910390a1005b005b34801561019d57600080fd5b506101b860048036038101906101b391906123ef565b61061a565b6040516101c5919061298d565b60405180910390f35b3480156101da57600080fd5b506101f560048036038101906101f09190612378565b6106fc565b005b34801561020357600080fd5b5061020c610703565b60405161021991906129a8565b60405180910390f35b34801561022e57600080fd5b5061024960048036038101906102449190612482565b610795565b60405161025691906128e2565b60405180910390f35b34801561026b57600080fd5b506102866004803603810190610281919061233c565b61081a565b005b34801561029457600080fd5b506102af60048036038101906102aa919061215b565b610932565b6040516102bc919061298d565b60405180910390f35b3480156102d157600080fd5b506102ec60048036038101906102e791906121d3565b610a61565b005b3480156102fa57600080fd5b50610303610ac1565b6040516103109190612b8a565b60405180910390f35b34801561032557600080fd5b50610340600480360381019061033b91906121d3565b610b5b565b005b34801561034e57600080fd5b5061036960048036038101906103649190612482565b610b7b565b005b34801561037757600080fd5b50610392600480360381019061038d9190612510565b610b87565b60405161039f9190612b8a565b60405180910390f35b3480156103b457600080fd5b506103cf60048036038101906103ca9190612441565b610c61565b005b3480156103dd57600080fd5b506103f860048036038101906103f39190612482565b610d0d565b60405161040591906128e2565b60405180910390f35b34801561041a57600080fd5b5061043560048036038101906104309190612132565b610dbf565b6040516104429190612b8a565b60405180910390f35b34801561045757600080fd5b50610460610e77565b60405161046d91906129a8565b60405180910390f35b34801561048257600080fd5b5061048b610f9b565b60405161049891906128fd565b60405180910390f35b6104bb60048036038101906104b6919061229d565b610fc1565b6040516104c89190612b8a565b60405180910390f35b3480156104dd57600080fd5b506104e66110c1565b6040516104f391906129a8565b60405180910390f35b34801561050857600080fd5b50610523600480360381019061051e9190612300565b611153565b005b34801561053157600080fd5b5061054c6004803603810190610547919061233c565b611169565b005b34801561055a57600080fd5b5061057560048036038101906105709190612222565b61116d565b005b34801561058357600080fd5b5061059e60048036038101906105999190612482565b6111cf565b6040516105ab91906129a8565b60405180910390f35b3480156105c057600080fd5b506105db60048036038101906105d691906124d4565b611277565b005b3480156105e957600080fd5b5061060460048036038101906105ff9190612197565b611350565b604051610611919061298d565b60405180910390f35b60007f80ac58cd000000000000000000000000000000000000000000000000000000007bffffffffffffffffffffffffffffffffffffffffffffffffffffffff1916827bffffffffffffffffffffffffffffffffffffffffffffffffffffffff191614806106e557507f5b5e139f000000000000000000000000000000000000000000000000000000007bffffffffffffffffffffffffffffffffffffffffffffffffffffffff1916827bffffffffffffffffffffffffffffffffffffffffffffffffffffffff1916145b806106f557506106f4826113e4565b5b9050919050565b5050505050565b60606000805461071290612e2f565b80601f016020809104026020016040519081016040528092919081815260200182805461073e90612e2f565b801561078b5780601f106107605761010080835404028352916020019161078b565b820191906000526020600020905b81548152906001019060200180831161076e57829003601f168201915b5050505050905090565b60006107a08261144e565b6107df576040517f08c379a00000000000000000000000000000000000000000000000000000000081526004016107d690612aca565b60405180910390fd5b6004600083815260200190815260200160002060009054906101000a900473ffffffffffffffffffffffffffffffffffffffff169050919050565b600061082582610d0d565b90508073ffffffffffffffffffffffffffffffffffffffff168373ffffffffffffffffffffffffffffffffffffffff161415610896576040517f08c379a000000000000000000000000000000000000000000000000000000000815260040161088d90612b0a565b60405180910390fd5b8073ffffffffffffffffffffffffffffffffffffffff166108b56114ba565b73ffffffffffffffffffffffffffffffffffffffff1614806108e457506108e3816108de6114ba565b611350565b5b610923576040517f08c379a000000000000000000000000000000000000000000000000000000000815260040161091a90612a6a565b60405180910390fd5b61092d83836114c2565b505050565b600033600660009054906101000a900473ffffffffffffffffffffffffffffffffffffffff1673ffffffffffffffffffffffffffffffffffffffff168173ffffffffffffffffffffffffffffffffffffffff16146109c5576040517f08c379a00000000000000000000000000000000000000000000000000000000081526004016109bc90612b6a565b60405180910390fd5b6109cd610ac1565b831115610a0f576040517f08c379a0000000000000000000000000000000000000000000000000000000008152600401610a0690612b2a565b60405180910390fd5b8373ffffffffffffffffffffffffffffffffffffffff166108fc849081150290604051600060405180830381858888f19350505050158015610a55573d6000803e3d6000fd5b50600191505092915050565b610a72610a6c6114ba565b8261157b565b610ab1576040517f08c379a0000000000000000000000000000000000000000000000000000000008152600401610aa890612b4a565b60405180910390fd5b610abc838383611659565b505050565b600033600660009054906101000a900473ffffffffffffffffffffffffffffffffffffffff1673ffffffffffffffffffffffffffffffffffffffff168173ffffffffffffffffffffffffffffffffffffffff1614610b54576040517f08c379a0000000000000000000000000000000000000000000000000000000008152600401610b4b90612b6a565b60405180910390fd5b4791505090565b610b768383836040518060200160405280600081525061116d565b505050565b610b84816118c0565b50565b600033600660009054906101000a900473ffffffffffffffffffffffffffffffffffffffff1673ffffffffffffffffffffffffffffffffffffffff168173ffffffffffffffffffffffffffffffffffffffff1614610c1a576040517f08c379a0000000000000000000000000000000000000000000000000000000008152600401610c1190612b6a565b60405180910390fd5b601d8360ff1660078110610c57577f4e487b7100000000000000000000000000000000000000000000000000000000600052603260045260246000fd5b0154915050919050565b33600660009054906101000a900473ffffffffffffffffffffffffffffffffffffffff1673ffffffffffffffffffffffffffffffffffffffff168173ffffffffffffffffffffffffffffffffffffffff1614610cf2576040517f08c379a0000000000000000000000000000000000000000000000000000000008152600401610ce990612b6a565b60405180910390fd5b81600a9080519060200190610d08929190611f17565b505050565b6000806002600084815260200190815260200160002060009054906101000a900473ffffffffffffffffffffffffffffffffffffffff169050600073ffffffffffffffffffffffffffffffffffffffff168173ffffffffffffffffffffffffffffffffffffffff161415610db6576040517f08c379a0000000000000000000000000000000000000000000000000000000008152600401610dad90612aaa565b60405180910390fd5b80915050919050565b60008073ffffffffffffffffffffffffffffffffffffffff168273ffffffffffffffffffffffffffffffffffffffff161415610e30576040517f08c379a0000000000000000000000000000000000000000000000000000000008152600401610e2790612a8a565b60405180910390fd5b600360008373ffffffffffffffffffffffffffffffffffffffff1673ffffffffffffffffffffffffffffffffffffffff168152602001908152602001600020549050919050565b606033600660009054906101000a900473ffffffffffffffffffffffffffffffffffffffff1673ffffffffffffffffffffffffffffffffffffffff168173ffffffffffffffffffffffffffffffffffffffff1614610f0a576040517f08c379a0000000000000000000000000000000000000000000000000000000008152600401610f0190612b6a565b60405180910390fd5b600a8054610f1790612e2f565b80601f0160208091040260200160405190810160405280929190818152602001828054610f4390612e2f565b8015610f905780601f10610f6557610100808354040283529160200191610f90565b820191906000526020600020905b815481529060010190602001808311610f7357829003601f168201915b505050505091505090565b600660009054906101000a900473ffffffffffffffffffffffffffffffffffffffff1681565b600083600760006101000a81548173ffffffffffffffffffffffffffffffffffffffff021916908373ffffffffffffffffffffffffffffffffffffffff1602179055506000600760009054906101000a900473ffffffffffffffffffffffffffffffffffffffff1673ffffffffffffffffffffffffffffffffffffffff1663486fc6d3856040518263ffffffff1660e01b81526004016110619190612ba5565b602060405180830381600087803b15801561107b57600080fd5b505af115801561108f573d6000803e3d6000fd5b505050506040513d601f19601f820116820180604052508101906110b391906124ab565b905080915050949350505050565b6060600180546110d090612e2f565b80601f01602080910402602001604051908101604052809291908181526020018280546110fc90612e2f565b80156111495780601f1061111e57610100808354040283529160200191611149565b820191906000526020600020905b81548152906001019060200180831161112c57829003601f168201915b5050505050905090565b61116561115e6114ba565b83836119dd565b5050565b5050565b61117e6111786114ba565b8361157b565b6111bd576040517f08c379a00000000000000000000000000000000000000000000000000000000081526004016111b490612b4a565b60405180910390fd5b6111c984848484611b4a565b50505050565b60606111da8261144e565b611219576040517f08c379a000000000000000000000000000000000000000000000000000000000815260040161121090612aea565b60405180910390fd5b6000600a805461122890612e2f565b9050116112445760405180602001604052806000815250611270565b600a61124f83611ba6565b6040516020016112609291906128b3565b6040516020818303038152906040525b9050919050565b33600660009054906101000a900473ffffffffffffffffffffffffffffffffffffffff1673ffffffffffffffffffffffffffffffffffffffff168173ffffffffffffffffffffffffffffffffffffffff1614611308576040517f08c379a00000000000000000000000000000000000000000000000000000000081526004016112ff90612b6a565b60405180910390fd5b82601d8360ff1660078110611346577f4e487b7100000000000000000000000000000000000000000000000000000000600052603260045260246000fd5b0181905550505050565b6000600560008473ffffffffffffffffffffffffffffffffffffffff1673ffffffffffffffffffffffffffffffffffffffff16815260200190815260200160002060008373ffffffffffffffffffffffffffffffffffffffff1673ffffffffffffffffffffffffffffffffffffffff16815260200190815260200160002060009054906101000a900460ff16905092915050565b60007f01ffc9a7000000000000000000000000000000000000000000000000000000007bffffffffffffffffffffffffffffffffffffffffffffffffffffffff1916827bffffffffffffffffffffffffffffffffffffffffffffffffffffffff1916149050919050565b60008073ffffffffffffffffffffffffffffffffffffffff166002600084815260200190815260200160002060009054906101000a900473ffffffffffffffffffffffffffffffffffffffff1673ffffffffffffffffffffffffffffffffffffffff1614159050919050565b600033905090565b816004600083815260200190815260200160002060006101000a81548173ffffffffffffffffffffffffffffffffffffffff021916908373ffffffffffffffffffffffffffffffffffffffff160217905550808273ffffffffffffffffffffffffffffffffffffffff1661153583610d0d565b73ffffffffffffffffffffffffffffffffffffffff167f8c5be1e5ebec7d5bd14f71427d1e84f3dd0314c0f7b2291e5b200ac8c7c3b92560405160405180910390a45050565b60006115868261144e565b6115c5576040517f08c379a00000000000000000000000000000000000000000000000000000000081526004016115bc90612a4a565b60405180910390fd5b60006115d083610d0d565b90508073ffffffffffffffffffffffffffffffffffffffff168473ffffffffffffffffffffffffffffffffffffffff16148061163f57508373ffffffffffffffffffffffffffffffffffffffff1661162784610795565b73ffffffffffffffffffffffffffffffffffffffff16145b80611650575061164f8185611350565b5b91505092915050565b8273ffffffffffffffffffffffffffffffffffffffff1661167982610d0d565b73ffffffffffffffffffffffffffffffffffffffff16146116cf576040517f08c379a00000000000000000000000000000000000000000000000000000000081526004016116c6906129ea565b60405180910390fd5b600073ffffffffffffffffffffffffffffffffffffffff168273ffffffffffffffffffffffffffffffffffffffff16141561173f576040517f08c379a000000000000000000000000000000000000000000000000000000000815260040161173690612a0a565b60405180910390fd5b61174a838383611d53565b6117556000826114c2565b6001600360008573ffffffffffffffffffffffffffffffffffffffff1673ffffffffffffffffffffffffffffffffffffffff16815260200190815260200160002060008282546117a59190612d26565b925050819055506001600360008473ffffffffffffffffffffffffffffffffffffffff1673ffffffffffffffffffffffffffffffffffffffff16815260200190815260200160002060008282546117fc9190612c9f565b92505081905550816002600083815260200190815260200160002060006101000a81548173ffffffffffffffffffffffffffffffffffffffff021916908373ffffffffffffffffffffffffffffffffffffffff160217905550808273ffffffffffffffffffffffffffffffffffffffff168473ffffffffffffffffffffffffffffffffffffffff167fddf252ad1be2c89b69c2b068fc378daa952ba7f163c4a11628f55a4df523b3ef60405160405180910390a46118bb838383611d58565b505050565b60006118cb82610d0d565b90506118d981600084611d53565b6118e46000836114c2565b6001600360008373ffffffffffffffffffffffffffffffffffffffff1673ffffffffffffffffffffffffffffffffffffffff16815260200190815260200160002060008282546119349190612d26565b925050819055506002600083815260200190815260200160002060006101000a81549073ffffffffffffffffffffffffffffffffffffffff021916905581600073ffffffffffffffffffffffffffffffffffffffff168273ffffffffffffffffffffffffffffffffffffffff167fddf252ad1be2c89b69c2b068fc378daa952ba7f163c4a11628f55a4df523b3ef60405160405180910390a46119d981600084611d58565b5050565b8173ffffffffffffffffffffffffffffffffffffffff168373ffffffffffffffffffffffffffffffffffffffff161415611a4c576040517f08c379a0000000000000000000000000000000000000000000000000000000008152600401611a4390612a2a565b60405180910390fd5b80600560008573ffffffffffffffffffffffffffffffffffffffff1673ffffffffffffffffffffffffffffffffffffffff16815260200190815260200160002060008473ffffffffffffffffffffffffffffffffffffffff1673ffffffffffffffffffffffffffffffffffffffff16815260200190815260200160002060006101000a81548160ff0219169083151502179055508173ffffffffffffffffffffffffffffffffffffffff168373ffffffffffffffffffffffffffffffffffffffff167f17307eab39ab6107e8899845ad3d59bd9653f200f220920489ca2b5937696c3183604051611b3d919061298d565b60405180910390a3505050565b611b55848484611659565b611b6184848484611d5d565b611ba0576040517f08c379a0000000000000000000000000000000000000000000000000000000008152600401611b97906129ca565b60405180910390fd5b50505050565b60606000821415611bee576040518060400160405280600181526020017f30000000000000000000000000000000000000000000000000000000000000008152509050611d4e565b600082905060005b60008214611c20578080611c0990612e92565b915050600a82611c199190612cf5565b9150611bf6565b60008167ffffffffffffffff811115611c62577f4e487b7100000000000000000000000000000000000000000000000000000000600052604160045260246000fd5b6040519080825280601f01601f191660200182016040528015611c945781602001600182028036833780820191505090505b5090505b60008514611d4757600182611cad9190612d26565b9150600a85611cbc9190612edb565b6030611cc89190612c9f565b60f81b818381518110611d04577f4e487b7100000000000000000000000000000000000000000000000000000000600052603260045260246000fd5b60200101907effffffffffffffffffffffffffffffffffffffffffffffffffffffffffffff1916908160001a905350600a85611d409190612cf5565b9450611c98565b8093505050505b919050565b505050565b505050565b6000611d7e8473ffffffffffffffffffffffffffffffffffffffff16611ef4565b15611ee7578373ffffffffffffffffffffffffffffffffffffffff1663150b7a02611da76114ba565b8786866040518563ffffffff1660e01b8152600401611dc99493929190612918565b602060405180830381600087803b158015611de357600080fd5b505af1925050508015611e1457506040513d601f19601f82011682018060405250810190611e119190612418565b60015b611e97573d8060008114611e44576040519150601f19603f3d011682016040523d82523d6000602084013e611e49565b606091505b50600081511415611e8f576040517f08c379a0000000000000000000000000000000000000000000000000000000008152600401611e86906129ca565b60405180910390fd5b805181602001fd5b63150b7a0260e01b7bffffffffffffffffffffffffffffffffffffffffffffffffffffffff1916817bffffffffffffffffffffffffffffffffffffffffffffffffffffffff191614915050611eec565b600190505b949350505050565b6000808273ffffffffffffffffffffffffffffffffffffffff163b119050919050565b828054611f2390612e2f565b90600052602060002090601f016020900481019282611f455760008555611f8c565b82601f10611f5e57805160ff1916838001178555611f8c565b82800160010185558215611f8c579182015b82811115611f8b578251825591602001919060010190611f70565b5b509050611f999190611f9d565b5090565b5b80821115611fb6576000816000905550600101611f9e565b5090565b6000611fcd611fc884612be5565b612bc0565b905082815260208101848484011115611fe557600080fd5b611ff0848285612ded565b509392505050565b600061200b61200684612c16565b612bc0565b90508281526020810184848401111561202357600080fd5b61202e848285612ded565b509392505050565b600081359050612045816133bc565b92915050565b60008135905061205a816133d3565b92915050565b60008135905061206f816133ea565b92915050565b60008135905061208481613401565b92915050565b60008151905061209981613401565b92915050565b600082601f8301126120b057600080fd5b81356120c0848260208601611fba565b91505092915050565b600082601f8301126120da57600080fd5b81356120ea848260208601611ff8565b91505092915050565b60008135905061210281613418565b92915050565b60008151905061211781613418565b92915050565b60008135905061212c8161342f565b92915050565b60006020828403121561214457600080fd5b600061215284828501612036565b91505092915050565b6000806040838503121561216e57600080fd5b600061217c8582860161204b565b925050602061218d858286016120f3565b9150509250929050565b600080604083850312156121aa57600080fd5b60006121b885828601612036565b92505060206121c985828601612036565b9150509250929050565b6000806000606084860312156121e857600080fd5b60006121f686828701612036565b935050602061220786828701612036565b9250506040612218868287016120f3565b9150509250925092565b6000806000806080858703121561223857600080fd5b600061224687828801612036565b945050602061225787828801612036565b9350506040612268878288016120f3565b925050606085013567ffffffffffffffff81111561228557600080fd5b6122918782880161209f565b91505092959194509250565b600080600080608085870312156122b357600080fd5b60006122c187828801612036565b94505060206122d287828801612036565b93505060406122e38782880161211d565b92505060606122f4878288016120f3565b91505092959194509250565b6000806040838503121561231357600080fd5b600061232185828601612036565b925050602061233285828601612060565b9150509250929050565b6000806040838503121561234f57600080fd5b600061235d85828601612036565b925050602061236e858286016120f3565b9150509250929050565b600080600080600060a0868803121561239057600080fd5b600061239e88828901612036565b95505060206123af888289016120f3565b94505060406123c0888289016120f3565b93505060606123d1888289016120f3565b92505060806123e2888289016120f3565b9150509295509295909350565b60006020828403121561240157600080fd5b600061240f84828501612075565b91505092915050565b60006020828403121561242a57600080fd5b60006124388482850161208a565b91505092915050565b60006020828403121561245357600080fd5b600082013567ffffffffffffffff81111561246d57600080fd5b612479848285016120c9565b91505092915050565b60006020828403121561249457600080fd5b60006124a2848285016120f3565b91505092915050565b6000602082840312156124bd57600080fd5b60006124cb84828501612108565b91505092915050565b600080604083850312156124e757600080fd5b60006124f5858286016120f3565b92505060206125068582860161211d565b9150509250929050565b60006020828403121561252257600080fd5b60006125308482850161211d565b91505092915050565b61254281612d6c565b82525050565b61255181612d5a565b82525050565b61256081612d7e565b82525050565b600061257182612c5c565b61257b8185612c72565b935061258b818560208601612dfc565b61259481612fc8565b840191505092915050565b60006125aa82612c67565b6125b48185612c83565b93506125c4818560208601612dfc565b6125cd81612fc8565b840191505092915050565b60006125e382612c67565b6125ed8185612c94565b93506125fd818560208601612dfc565b80840191505092915050565b6000815461261681612e2f565b6126208186612c94565b9450600182166000811461263b576001811461264c5761267f565b60ff1983168652818601935061267f565b61265585612c47565b60005b8381101561267757815481890152600182019150602081019050612658565b838801955050505b50505092915050565b6000612695603283612c83565b91506126a082612fd9565b604082019050919050565b60006126b8602583612c83565b91506126c382613028565b604082019050919050565b60006126db602483612c83565b91506126e682613077565b604082019050919050565b60006126fe601983612c83565b9150612709826130c6565b602082019050919050565b6000612721602c83612c83565b915061272c826130ef565b604082019050919050565b6000612744603883612c83565b915061274f8261313e565b604082019050919050565b6000612767602a83612c83565b91506127728261318d565b604082019050919050565b600061278a602983612c83565b9150612795826131dc565b604082019050919050565b60006127ad602c83612c83565b91506127b88261322b565b604082019050919050565b60006127d0601283612c83565b91506127db8261327a565b602082019050919050565b60006127f3600583612c94565b91506127fe826132a3565b600582019050919050565b6000612816602183612c83565b9150612821826132cc565b604082019050919050565b6000612839601383612c83565b91506128448261331b565b602082019050919050565b600061285c603183612c83565b915061286782613344565b604082019050919050565b600061287f601183612c83565b915061288a82613393565b602082019050919050565b61289e81612dd6565b82525050565b6128ad81612de0565b82525050565b60006128bf8285612609565b91506128cb82846125d8565b91506128d6826127e6565b91508190509392505050565b60006020820190506128f76000830184612548565b92915050565b60006020820190506129126000830184612539565b92915050565b600060808201905061292d6000830187612548565b61293a6020830186612548565b6129476040830185612895565b81810360608301526129598184612566565b905095945050505050565b60006040820190506129796000830185612548565b6129866020830184612895565b9392505050565b60006020820190506129a26000830184612557565b92915050565b600060208201905081810360008301526129c2818461259f565b905092915050565b600060208201905081810360008301526129e381612688565b9050919050565b60006020820190508181036000830152612a03816126ab565b9050919050565b60006020820190508181036000830152612a23816126ce565b9050919050565b60006020820190508181036000830152612a43816126f1565b9050919050565b60006020820190508181036000830152612a6381612714565b9050919050565b60006020820190508181036000830152612a8381612737565b9050919050565b60006020820190508181036000830152612aa38161275a565b9050919050565b60006020820190508181036000830152612ac38161277d565b9050919050565b60006020820190508181036000830152612ae3816127a0565b9050919050565b60006020820190508181036000830152612b03816127c3565b9050919050565b60006020820190508181036000830152612b2381612809565b9050919050565b60006020820190508181036000830152612b438161282c565b9050919050565b60006020820190508181036000830152612b638161284f565b9050919050565b60006020820190508181036000830152612b8381612872565b9050919050565b6000602082019050612b9f6000830184612895565b92915050565b6000602082019050612bba60008301846128a4565b92915050565b6000612bca612bdb565b9050612bd68282612e61565b919050565b6000604051905090565b600067ffffffffffffffff821115612c0057612bff612f99565b5b612c0982612fc8565b9050602081019050919050565b600067ffffffffffffffff821115612c3157612c30612f99565b5b612c3a82612fc8565b9050602081019050919050565b60008190508160005260206000209050919050565b600081519050919050565b600081519050919050565b600082825260208201905092915050565b600082825260208201905092915050565b600081905092915050565b6000612caa82612dd6565b9150612cb583612dd6565b9250827fffffffffffffffffffffffffffffffffffffffffffffffffffffffffffffffff03821115612cea57612ce9612f0c565b5b828201905092915050565b6000612d0082612dd6565b9150612d0b83612dd6565b925082612d1b57612d1a612f3b565b5b828204905092915050565b6000612d3182612dd6565b9150612d3c83612dd6565b925082821015612d4f57612d4e612f0c565b5b828203905092915050565b6000612d6582612db6565b9050919050565b6000612d7782612db6565b9050919050565b60008115159050919050565b60007fffffffff0000000000000000000000000000000000000000000000000000000082169050919050565b600073ffffffffffffffffffffffffffffffffffffffff82169050919050565b6000819050919050565b600060ff82169050919050565b82818337600083830152505050565b60005b83811015612e1a578082015181840152602081019050612dff565b83811115612e29576000848401525b50505050565b60006002820490506001821680612e4757607f821691505b60208210811415612e5b57612e5a612f6a565b5b50919050565b612e6a82612fc8565b810181811067ffffffffffffffff82111715612e8957612e88612f99565b5b80604052505050565b6000612e9d82612dd6565b91507fffffffffffffffffffffffffffffffffffffffffffffffffffffffffffffffff821415612ed057612ecf612f0c565b5b600182019050919050565b6000612ee682612dd6565b9150612ef183612dd6565b925082612f0157612f00612f3b565b5b828206905092915050565b7f4e487b7100000000000000000000000000000000000000000000000000000000600052601160045260246000fd5b7f4e487b7100000000000000000000000000000000000000000000000000000000600052601260045260246000fd5b7f4e487b7100000000000000000000000000000000000000000000000000000000600052602260045260246000fd5b7f4e487b7100000000000000000000000000000000000000000000000000000000600052604160045260246000fd5b6000601f19601f8301169050919050565b7f4552433732313a207472616e7366657220746f206e6f6e20455243373231526560008201527f63656976657220696d706c656d656e7465720000000000000000000000000000602082015250565b7f4552433732313a207472616e736665722066726f6d20696e636f72726563742060008201527f6f776e6572000000000000000000000000000000000000000000000000000000602082015250565b7f4552433732313a207472616e7366657220746f20746865207a65726f2061646460008201527f7265737300000000000000000000000000000000000000000000000000000000602082015250565b7f4552433732313a20617070726f766520746f2063616c6c657200000000000000600082015250565b7f4552433732313a206f70657261746f7220717565727920666f72206e6f6e657860008201527f697374656e7420746f6b656e0000000000000000000000000000000000000000602082015250565b7f4552433732313a20617070726f76652063616c6c6572206973206e6f74206f7760008201527f6e6572206e6f7220617070726f76656420666f7220616c6c0000000000000000602082015250565b7f4552433732313a2062616c616e636520717565727920666f7220746865207a6560008201527f726f206164647265737300000000000000000000000000000000000000000000602082015250565b7f4552433732313a206f776e657220717565727920666f72206e6f6e657869737460008201527f656e7420746f6b656e0000000000000000000000000000000000000000000000602082015250565b7f4552433732313a20617070726f76656420717565727920666f72206e6f6e657860008201527f697374656e7420746f6b656e0000000000000000000000000000000000000000602082015250565b7f4e6f6e6578697374656e7420746f6b656e210000000000000000000000000000600082015250565b7f2e6a736f6e000000000000000000000000000000000000000000000000000000600082015250565b7f4552433732313a20617070726f76616c20746f2063757272656e74206f776e6560008201527f7200000000000000000000000000000000000000000000000000000000000000602082015250565b7f4e6f7420456e6f7567682042616c616e63652100000000000000000000000000600082015250565b7f4552433732313a207472616e736665722063616c6c6572206973206e6f74206f60008201527f776e6572206e6f7220617070726f766564000000000000000000000000000000602082015250565b7f4e6f742061206f776e65722063616c6c21000000000000000000000000000000600082015250565b6133c581612d5a565b81146133d057600080fd5b50565b6133dc81612d6c565b81146133e757600080fd5b50565b6133f381612d7e565b81146133fe57600080fd5b50565b61340a81612d8a565b811461341557600080fd5b50565b61342181612dd6565b811461342c57600080fd5b50565b61343881612de0565b811461344357600080fd5b5056fea264697066735822122084b44ffd56ad5dba2650554fed19facb43acc1767c10ce00f5321f525e831f5364736f6c63430008020033",
  "immutableReferences": {},
  "source": "// SPDX-License-Identifier: MIT\npragma solidity ^0.8.2;\nimport \"@openzeppelin/contracts/token/ERC721/ERC721.sol\";\n\n\ninterface ItemContract {\n    function getFloorPrice(uint8 _itemType) external returns (uint256);\n}\n\n\n// Pick during the meeting 1/10000\n// Shiny logic \n// Before the personalities in 1/10 chance call the chainlink contract \n// Batch actions\n\ncontract Metamon is ERC721 {\n    using Strings for uint256;\n    address payable public owner;\n    ItemContract _item;\n\n    string private itemBaseURI;\n    string private metamonBaseURI;\n    string private baseURI;\n\n    event ReceivedEth(address _reciever, uint256 _value);\n    event MetamonMint(uint256 _tokenId, address _reciever);\n\n    uint256[6] private metamonDax = [1, 2, 3, 4, 5, 6]; // REPR: METAMONT DEX NUMBERS\n    uint256[6] private metamonSupply = [1000, 2000, 1000, 3000, 4000, 1000];\n    uint256[6] private metamontIds = [1, 1, 1, 1, 1, 1];\n    uint256[7] private metamonFloor = [\n        .05 ether,\n        .025 ether,\n        0.035 ether,\n        0.045 ether,\n        0.055 ether,\n        0.065 ether,\n        0.075 ether\n    ];\n    uint256 _tokenIds;\n\n    mapping(uint8 => uint256[]) private metamonMintPhases; // REPR: Metamon mint phases by DAX numbers;\n    mapping(uint256 => uint256) private familyMetamon; // REPR: Metamon evalution trees \n\n    mapping(uint256 => uint256) private itemEvaluation; // REPR: Which item needed for which metamon evalution\n    mapping(uint256 => uint256) private burnEvaluation; // REPR: How many metamon balance needed for evalution for next metamon\n\n    mapping(address => uint256) private _collectedItems; // MINTING FIRST CHECK IF ADDRESS COLLEDTED ANY ITEMS BEFORE\n    mapping(address => uint256) private _collectedDax; // TOTAL COLLECTED DAX ITEMS IMPORTANT TO IDENTIFY SHINY LOGIC\n\n    constructor() payable ERC721(\"Metamon NFT\", \"NFT\") {\n\n        owner = payable(msg.sender);\n        // FILLING INFORMATION OF METAMAN AND EVALUATION\n        burnEvaluation[1] = 3;\n        burnEvaluation[2] = 3;\n        familyMetamon[1] = 2;\n        familyMetamon[2] = 3;\n        // ****************\n        burnEvaluation[4] = 3;\n        burnEvaluation[5] = 3;\n        familyMetamon[4] = 5;\n        familyMetamon[5] = 6;\n        // ****************\n        metamonMintPhases[1] = [1, 2, 3, 4, 5, 6, 7, 8, 9, 10];\n        metamonMintPhases[2] = [11, 12, 13, 14, 15, 16, 17, 18, 19, 20];\n        metamonMintPhases[3] = [21, 2, 3, 4, 5, 6, 7, 8, 9, 30];\n        metamonMintPhases[4] = [31, 2, 3, 4, 5, 6, 7, 8, 9, 40];\n        metamonMintPhases[5] = [41, 2, 3, 4, 5, 6, 7, 8, 9, 50];\n        metamonMintPhases[6] = [51, 2, 3, 4, 5, 6, 7, 8, 9, 60];\n        metamonMintPhases[7] = [61, 2, 3, 4, 5, 6, 7, 8, 9, 60];\n        metamonMintPhases[9] = [71, 2, 3, 4, 5, 6, 7, 8, 9, 70];\n        metamonMintPhases[10] = [81, 2, 3, 4, 5, 6, 7, 8, 9, 80];\n\n    }\n\n    modifier onlyOwner(address sender) {\n        require(sender == owner, \"Not a owner call!\");\n        _;\n    }\n\n    // State Changes\n    function changeFloorPrice(\n        uint256 _new_price,\n        uint8 _index\n    )\n        external\n        // _type 1 represents \"ITEMS\" _type 2 represents \"Metamon\"\n        // _index tell which \"ITEM\" or \"Metamon\" starts from 0, 1, 2, 3, ... 7\n        onlyOwner(msg.sender)\n    {\n        metamonFloor[_index] = _new_price;\n    }\n\n    function getFloorPrice(uint8 _index)\n        external\n        view\n        onlyOwner(msg.sender)\n        returns (uint256)\n    {\n            return metamonFloor[_index];\n    }\n\n    // Get Information\n    function getWalletBalance()\n        public\n        view\n        onlyOwner(msg.sender)\n        returns (uint256)\n    {\n        return address(this).balance;\n    }\n\n    // Contract ETH Relationship\n    fallback() external payable {}\n\n    receive() external payable {\n        emit ReceivedEth(msg.sender, msg.value);\n    }\n\n    function transferContractBalance(\n        address payable _recipient,\n        uint256 _amount\n    ) external onlyOwner(msg.sender) returns (bool) {\n        require(_amount <= getWalletBalance(), \"Not Enough Balance!\");\n        _recipient.transfer(_amount);\n        return true;\n    }\n\n    // NFT Minting Related\n    function setBaseURI(string memory _baseURILink)\n        external\n        onlyOwner(msg.sender)\n    {\n        baseURI = _baseURILink;\n    }\n\n    function getBaseURI()\n        external\n        view\n        onlyOwner(msg.sender)\n        returns (string memory)\n    {\n        return baseURI;\n    }\n\n    function _baseURI() internal view virtual override returns (string memory) {\n        // We will have different baseURIs for Item and Metamon \n        // TODO: move items into different collection\n        return baseURI;\n    }\n\n    function tokenURI(uint256 tokenId)\n        public\n        view\n        virtual\n        override\n        returns (string memory)\n    {\n        require(_exists(tokenId), \"Nonexistent token!\");\n        // We can retrieve the information about token id \n        // -> is it Item or Metamon\n        // -> what is the dax number\n        // -> based on the information that we retrieve we will return base_uri\n        // TODO: move items into different collection\n\n        return\n            bytes(baseURI).length > 0\n                ? string(abi.encodePacked(baseURI, tokenId.toString(), \".json\"))\n                : \"\";\n    }\n\n    function burn(uint256 _value) public {\n        _burn(_value);\n    }\n\n    function mintSale(\n        address _recipient, \n        address _itemContractAddress,\n        uint8 _itemType,\n        uint256 _quantity) public payable returns(uint256) {\n    //     require(\n    //         _quantity > 0 && _quantity <= (totalSupply - _tokenIds),\n    //         \"Not Enough Reserve!\"\n    //     );\n\n    //     if (msg.sender != owner) {\n    //         require(msg.value == florPrice * _quantity, \"Not Enough Balance!\");\n    //     }\n\n    // TODO: check if the dax number can be mintable based on the phases\n    // TODO: after minting make sure to push token information into mapping\n\n        _item = ItemContract(_itemContractAddress);\n        uint256 floor = _item.getFloorPrice(_itemType);\n        return floor;\n        // uint256 j = _tokenIds;\n        // for (uint256 i = 0; i < _quantity; i++) {\n        //     j++;\n        //     _mint(_recipient, j);\n        //     emit MetamonMint(j, _recipient);\n        // }\n        // _tokenIds = j;\n    }\n\n    function evalutionMetaItem(address _recipient, uint256 _quantity) public {\n\n\n    }\n\n    function evalutionMetaBurn(\n        address _recipient, \n        uint256 _sendTokenId, \n        uint256 _sendDaxId, \n        // uint256, _quantitySend,  \n        uint256 _targetDax, \n        uint256 _itemTokenId\n        ) public {\n        // check whether owner has item token\n        \n        // burn(_send, TokenId);\n        // uint256 _evaluationToken = burnEvaluation[_sendDaxId];\n        // uint256 _tokenIds = _tokenIds + 1;\n        // _mint(_recipient, _tokenIds);\n\n\n    }\n}\n",
  "sourcePath": "/Users/aipek/Documents/metamon_contracts/contracts/Metamon.sol",
  "compiler": {
    "name": "solc",
    "version": "0.8.2+commit.661d1103.Emscripten.clang"
  },
  "schemaVersion": "3.4.4",
  "updatedAt": "2022-02-19T18:04:08.329Z",
  "networkType": "ethereum",
  "devdoc": {
    "kind": "dev",
    "methods": {
      "approve(address,uint256)": {
        "details": "See {IERC721-approve}."
      },
      "balanceOf(address)": {
        "details": "See {IERC721-balanceOf}."
      },
      "getApproved(uint256)": {
        "details": "See {IERC721-getApproved}."
      },
      "isApprovedForAll(address,address)": {
        "details": "See {IERC721-isApprovedForAll}."
      },
      "name()": {
        "details": "See {IERC721Metadata-name}."
      },
      "ownerOf(uint256)": {
        "details": "See {IERC721-ownerOf}."
      },
      "safeTransferFrom(address,address,uint256)": {
        "details": "See {IERC721-safeTransferFrom}."
      },
      "safeTransferFrom(address,address,uint256,bytes)": {
        "details": "See {IERC721-safeTransferFrom}."
      },
      "setApprovalForAll(address,bool)": {
        "details": "See {IERC721-setApprovalForAll}."
      },
      "supportsInterface(bytes4)": {
        "details": "See {IERC165-supportsInterface}."
      },
      "symbol()": {
        "details": "See {IERC721Metadata-symbol}."
      },
      "tokenURI(uint256)": {
        "details": "See {IERC721Metadata-tokenURI}."
      },
      "transferFrom(address,address,uint256)": {
        "details": "See {IERC721-transferFrom}."
      }
    },
    "version": 1
  },
  "userdoc": {
    "kind": "user",
    "methods": {},
    "version": 1
  }
}