{
  "contractName": "Metamon",
  "abi": [
    {
      "inputs": [],
      "stateMutability": "payable",
      "type": "constructor"
    },
    {
      "anonymous": false,
      "inputs": [
        {
          "indexed": true,
          "internalType": "address",
          "name": "owner",
          "type": "address"
        },
        {
          "indexed": true,
          "internalType": "address",
          "name": "approved",
          "type": "address"
        },
        {
          "indexed": true,
          "internalType": "uint256",
          "name": "tokenId",
          "type": "uint256"
        }
      ],
      "name": "Approval",
      "type": "event"
    },
    {
      "anonymous": false,
      "inputs": [
        {
          "indexed": true,
          "internalType": "address",
          "name": "owner",
          "type": "address"
        },
        {
          "indexed": true,
          "internalType": "address",
          "name": "operator",
          "type": "address"
        },
        {
          "indexed": false,
          "internalType": "bool",
          "name": "approved",
          "type": "bool"
        }
      ],
      "name": "ApprovalForAll",
      "type": "event"
    },
    {
      "anonymous": false,
      "inputs": [
        {
          "indexed": false,
          "internalType": "uint256",
          "name": "_tokenId",
          "type": "uint256"
        },
        {
          "indexed": false,
          "internalType": "address",
          "name": "_reciever",
          "type": "address"
        }
      ],
      "name": "MetamonMint",
      "type": "event"
    },
    {
      "anonymous": false,
      "inputs": [
        {
          "indexed": false,
          "internalType": "address",
          "name": "_reciever",
          "type": "address"
        },
        {
          "indexed": false,
          "internalType": "uint256",
          "name": "_value",
          "type": "uint256"
        }
      ],
      "name": "ReceivedEth",
      "type": "event"
    },
    {
      "anonymous": false,
      "inputs": [
        {
          "indexed": true,
          "internalType": "address",
          "name": "from",
          "type": "address"
        },
        {
          "indexed": true,
          "internalType": "address",
          "name": "to",
          "type": "address"
        },
        {
          "indexed": true,
          "internalType": "uint256",
          "name": "tokenId",
          "type": "uint256"
        }
      ],
      "name": "Transfer",
      "type": "event"
    },
    {
      "stateMutability": "payable",
      "type": "fallback"
    },
    {
      "inputs": [
        {
          "internalType": "address",
          "name": "to",
          "type": "address"
        },
        {
          "internalType": "uint256",
          "name": "tokenId",
          "type": "uint256"
        }
      ],
      "name": "approve",
      "outputs": [],
      "stateMutability": "nonpayable",
      "type": "function"
    },
    {
      "inputs": [
        {
          "internalType": "address",
          "name": "owner",
          "type": "address"
        }
      ],
      "name": "balanceOf",
      "outputs": [
        {
          "internalType": "uint256",
          "name": "",
          "type": "uint256"
        }
      ],
      "stateMutability": "view",
      "type": "function"
    },
    {
      "inputs": [
        {
          "internalType": "uint256",
          "name": "tokenId",
          "type": "uint256"
        }
      ],
      "name": "getApproved",
      "outputs": [
        {
          "internalType": "address",
          "name": "",
          "type": "address"
        }
      ],
      "stateMutability": "view",
      "type": "function"
    },
    {
      "inputs": [
        {
          "internalType": "address",
          "name": "owner",
          "type": "address"
        },
        {
          "internalType": "address",
          "name": "operator",
          "type": "address"
        }
      ],
      "name": "isApprovedForAll",
      "outputs": [
        {
          "internalType": "bool",
          "name": "",
          "type": "bool"
        }
      ],
      "stateMutability": "view",
      "type": "function"
    },
    {
      "inputs": [],
      "name": "name",
      "outputs": [
        {
          "internalType": "string",
          "name": "",
          "type": "string"
        }
      ],
      "stateMutability": "view",
      "type": "function"
    },
    {
      "inputs": [],
      "name": "owner",
      "outputs": [
        {
          "internalType": "address payable",
          "name": "",
          "type": "address"
        }
      ],
      "stateMutability": "view",
      "type": "function"
    },
    {
      "inputs": [
        {
          "internalType": "uint256",
          "name": "tokenId",
          "type": "uint256"
        }
      ],
      "name": "ownerOf",
      "outputs": [
        {
          "internalType": "address",
          "name": "",
          "type": "address"
        }
      ],
      "stateMutability": "view",
      "type": "function"
    },
    {
      "inputs": [
        {
          "internalType": "address",
          "name": "from",
          "type": "address"
        },
        {
          "internalType": "address",
          "name": "to",
          "type": "address"
        },
        {
          "internalType": "uint256",
          "name": "tokenId",
          "type": "uint256"
        }
      ],
      "name": "safeTransferFrom",
      "outputs": [],
      "stateMutability": "nonpayable",
      "type": "function"
    },
    {
      "inputs": [
        {
          "internalType": "address",
          "name": "from",
          "type": "address"
        },
        {
          "internalType": "address",
          "name": "to",
          "type": "address"
        },
        {
          "internalType": "uint256",
          "name": "tokenId",
          "type": "uint256"
        },
        {
          "internalType": "bytes",
          "name": "_data",
          "type": "bytes"
        }
      ],
      "name": "safeTransferFrom",
      "outputs": [],
      "stateMutability": "nonpayable",
      "type": "function"
    },
    {
      "inputs": [
        {
          "internalType": "address",
          "name": "operator",
          "type": "address"
        },
        {
          "internalType": "bool",
          "name": "approved",
          "type": "bool"
        }
      ],
      "name": "setApprovalForAll",
      "outputs": [],
      "stateMutability": "nonpayable",
      "type": "function"
    },
    {
      "inputs": [
        {
          "internalType": "bytes4",
          "name": "interfaceId",
          "type": "bytes4"
        }
      ],
      "name": "supportsInterface",
      "outputs": [
        {
          "internalType": "bool",
          "name": "",
          "type": "bool"
        }
      ],
      "stateMutability": "view",
      "type": "function"
    },
    {
      "inputs": [],
      "name": "symbol",
      "outputs": [
        {
          "internalType": "string",
          "name": "",
          "type": "string"
        }
      ],
      "stateMutability": "view",
      "type": "function"
    },
    {
      "inputs": [
        {
          "internalType": "address",
          "name": "from",
          "type": "address"
        },
        {
          "internalType": "address",
          "name": "to",
          "type": "address"
        },
        {
          "internalType": "uint256",
          "name": "tokenId",
          "type": "uint256"
        }
      ],
      "name": "transferFrom",
      "outputs": [],
      "stateMutability": "nonpayable",
      "type": "function"
    },
    {
      "stateMutability": "payable",
      "type": "receive"
    },
    {
      "inputs": [
        {
          "internalType": "uint256",
          "name": "_new_price",
          "type": "uint256"
        },
        {
          "internalType": "uint256",
          "name": "_type",
          "type": "uint256"
        },
        {
          "internalType": "uint8",
          "name": "_index",
          "type": "uint8"
        }
      ],
      "name": "changeFloorPrice",
      "outputs": [],
      "stateMutability": "nonpayable",
      "type": "function"
    },
    {
      "inputs": [
        {
          "internalType": "uint256",
          "name": "_type",
          "type": "uint256"
        },
        {
          "internalType": "uint8",
          "name": "_index",
          "type": "uint8"
        }
      ],
      "name": "getFloorPrice",
      "outputs": [
        {
          "internalType": "uint256",
          "name": "",
          "type": "uint256"
        }
      ],
      "stateMutability": "view",
      "type": "function"
    },
    {
      "inputs": [],
      "name": "getWalletBalance",
      "outputs": [
        {
          "internalType": "uint256",
          "name": "",
          "type": "uint256"
        }
      ],
      "stateMutability": "view",
      "type": "function"
    },
    {
      "inputs": [
        {
          "internalType": "address payable",
          "name": "_recipient",
          "type": "address"
        },
        {
          "internalType": "uint256",
          "name": "_amount",
          "type": "uint256"
        }
      ],
      "name": "transferContractBalance",
      "outputs": [
        {
          "internalType": "bool",
          "name": "",
          "type": "bool"
        }
      ],
      "stateMutability": "nonpayable",
      "type": "function"
    },
    {
      "inputs": [
        {
          "internalType": "string",
          "name": "_baseURILink",
          "type": "string"
        }
      ],
      "name": "setBaseURI",
      "outputs": [],
      "stateMutability": "nonpayable",
      "type": "function"
    },
    {
      "inputs": [],
      "name": "getBaseURI",
      "outputs": [
        {
          "internalType": "string",
          "name": "",
          "type": "string"
        }
      ],
      "stateMutability": "view",
      "type": "function"
    },
    {
      "inputs": [
        {
          "internalType": "uint256",
          "name": "tokenId",
          "type": "uint256"
        }
      ],
      "name": "tokenURI",
      "outputs": [
        {
          "internalType": "string",
          "name": "",
          "type": "string"
        }
      ],
      "stateMutability": "view",
      "type": "function"
    },
    {
      "inputs": [
        {
          "internalType": "uint256",
          "name": "_value",
          "type": "uint256"
        }
      ],
      "name": "burn",
      "outputs": [],
      "stateMutability": "nonpayable",
      "type": "function"
    },
    {
      "inputs": [
        {
          "internalType": "address",
          "name": "_recipient",
          "type": "address"
        },
        {
          "internalType": "address",
          "name": "_itemCA",
          "type": "address"
        },
        {
          "internalType": "uint256",
          "name": "_quantity",
          "type": "uint256"
        }
      ],
      "name": "mintSale",
      "outputs": [
        {
          "internalType": "uint256",
          "name": "",
          "type": "uint256"
        }
      ],
      "stateMutability": "payable",
      "type": "function"
    },
    {
      "inputs": [
        {
          "internalType": "address",
          "name": "_recipient",
          "type": "address"
        },
        {
          "internalType": "uint256",
          "name": "_quantity",
          "type": "uint256"
        }
      ],
      "name": "evalutionMetaItem",
      "outputs": [],
      "stateMutability": "nonpayable",
      "type": "function"
    },
    {
      "inputs": [
        {
          "internalType": "address",
          "name": "_recipient",
          "type": "address"
        },
        {
          "internalType": "uint256",
          "name": "_sendTokenId",
          "type": "uint256"
        },
        {
          "internalType": "uint256",
          "name": "_sendDaxId",
          "type": "uint256"
        },
        {
          "internalType": "uint256",
          "name": "_targetDax",
          "type": "uint256"
        },
        {
          "internalType": "uint256",
          "name": "_itemTokenId",
          "type": "uint256"
        }
      ],
      "name": "evalutionMetaBurn",
      "outputs": [],
      "stateMutability": "nonpayable",
      "type": "function"
    }
  ],
  "bytecode": "0x60806040526040518060e00160405280600160ff168152602001600260ff168152602001600360ff168152602001600460ff168152602001600560ff168152602001600660ff168152602001600760ff16815250600b9060076200006592919062000577565b506040518060e001604052806103e861ffff1681526020016109c461ffff1681526020016103e861ffff1681526020016107d061ffff168152602001610bb861ffff16815260200161138861ffff1681526020016107d061ffff168152506012906007620000d5929190620005c1565b506040518060e00160405280600160ff168152602001600160ff168152602001600160ff168152602001600160ff168152602001600160ff168152602001600160ff168152602001600160ff1681525060199060076200013792919062000577565b506040518060e00160405280662386f26fc1000066ffffffffffffff16815260200166470de4df82000066ffffffffffffff168152602001666a94d74f43000066ffffffffffffff168152602001668e1bc9bf04000066ffffffffffffff16815260200166b1a2bc2ec5000066ffffffffffffff16815260200166d529ae9e86000066ffffffffffffff16815260200166f8b0a10e47000066ffffffffffffff168152506020906007620001ed9291906200060c565b506040518060c00160405280600160ff168152602001600260ff168152602001600360ff168152602001600460ff168152602001600560ff168152602001600660ff168152506027906006620002459291906200065c565b506040518060c001604052806103e861ffff1681526020016107d061ffff1681526020016103e861ffff168152602001610bb861ffff168152602001610fa061ffff1681526020016103e861ffff16815250602d906006620002a9929190620006a6565b506040518060c00160405280600160ff168152602001600160ff168152602001600160ff168152602001600160ff168152602001600160ff168152602001600160ff168152506033906006620003019291906200065c565b506040518060e0016040528066b1a2bc2ec5000067ffffffffffffffff1681526020016658d15e1762800067ffffffffffffffff168152602001667c58508723800067ffffffffffffffff168152602001669fdf42f6e4800067ffffffffffffffff16815260200166c3663566a5800067ffffffffffffffff16815260200166e6ed27d666800067ffffffffffffffff16815260200167010a741a4627800067ffffffffffffffff168152506039906007620003bf929190620006f1565b506040518060400160405280600b81526020017f4d6574616d6f6e204e46540000000000000000000000000000000000000000008152506040518060400160405280600381526020017f4e4654000000000000000000000000000000000000000000000000000000000081525081600090805190602001906200044492919062000742565b5080600190805190602001906200045d92919062000742565b50505033600660006101000a81548173ffffffffffffffffffffffffffffffffffffffff021916908373ffffffffffffffffffffffffffffffffffffffff1602179055506003604360006001815260200190815260200160002081905550600360436000600281526020019081526020016000208190555060026041600060018152602001908152602001600020819055506003604160006002815260200190815260200160002081905550600360436000600481526020019081526020016000208190555060036043600060058152602001908152602001600020819055506005604160006004815260200190815260200160002081905550600660416000600581526020019081526020016000208190555062000857565b8260078101928215620005ae579160200282015b82811115620005ad578251829060ff169055916020019190600101906200058b565b5b509050620005bd9190620007d3565b5090565b8260078101928215620005f9579160200282015b82811115620005f8578251829061ffff16905591602001919060010190620005d5565b5b509050620006089190620007d3565b5090565b826007810192821562000649579160200282015b8281111562000648578251829066ffffffffffffff1690559160200191906001019062000620565b5b509050620006589190620007d3565b5090565b826006810192821562000693579160200282015b8281111562000692578251829060ff1690559160200191906001019062000670565b5b509050620006a29190620007d3565b5090565b8260068101928215620006de579160200282015b82811115620006dd578251829061ffff16905591602001919060010190620006ba565b5b509050620006ed9190620007d3565b5090565b82600781019282156200072f579160200282015b828111156200072e578251829067ffffffffffffffff1690559160200191906001019062000705565b5b5090506200073e9190620007d3565b5090565b8280546200075090620007f2565b90600052602060002090601f016020900481019282620007745760008555620007c0565b82601f106200078f57805160ff1916838001178555620007c0565b82800160010185558215620007c0579182015b82811115620007bf578251825591602001919060010190620007a2565b5b509050620007cf9190620007d3565b5090565b5b80821115620007ee576000816000905550600101620007d4565b5090565b600060028204905060018216806200080b57607f821691505b6020821081141562000822576200082162000828565b5b50919050565b7f4e487b7100000000000000000000000000000000000000000000000000000000600052602260045260246000fd5b6137fd80620008676000396000f3fe60806040526004361061014f5760003560e01c80635d795473116100b6578063a22cb4651161006f578063a22cb465146104e8578063a944e46114610511578063b88d4fde1461053a578063c87b56dd14610563578063d5fe25fa146105a0578063e985e9c5146105dd5761018f565b80635d795473146103c45780636352211e146103ed57806370a082311461042a578063714c5398146104675780638da5cb5b1461049257806395d89b41146104bd5761018f565b806310a5a3d91161010857806310a5a3d9146102b857806323b872dd146102f5578063329a27e71461031e57806342842e0e1461034957806342966c681461037257806355f804b31461039b5761018f565b806301ffc9a71461019157806302b6a036146101ce57806303597e1d146101f757806306fdde0314610227578063081812fc14610252578063095ea7b31461028f5761018f565b3661018f577f52a6cdf67c40ce333b3d846e4e143db87f71dd7935612a4cafcf6ba76047ca1f3334604051610185929190612c41565b60405180910390a1005b005b34801561019d57600080fd5b506101b860048036038101906101b39190612660565b61061a565b6040516101c59190612c6a565b60405180910390f35b3480156101da57600080fd5b506101f560048036038101906101f091906125e9565b6106fc565b005b610211600480360381019061020c91906124a7565b610743565b60405161021e9190612ec2565b60405180910390f35b34801561023357600080fd5b5061023c610841565b6040516102499190612ca0565b60405180910390f35b34801561025e57600080fd5b50610279600480360381019061027491906126f3565b6108d3565b6040516102869190612bbf565b60405180910390f35b34801561029b57600080fd5b506102b660048036038101906102b191906125ad565b610958565b005b3480156102c457600080fd5b506102df60048036038101906102da919061242f565b610a70565b6040516102ec9190612c6a565b60405180910390f35b34801561030157600080fd5b5061031c600480360381019061031791906124a7565b610b9f565b005b34801561032a57600080fd5b50610333610bff565b6040516103409190612ec2565b60405180910390f35b34801561035557600080fd5b50610370600480360381019061036b91906124a7565b610c99565b005b34801561037e57600080fd5b50610399600480360381019061039491906126f3565b610cb9565b005b3480156103a757600080fd5b506103c260048036038101906103bd91906126b2565b610cc5565b005b3480156103d057600080fd5b506103eb60048036038101906103e69190612745565b610d71565b005b3480156103f957600080fd5b50610414600480360381019061040f91906126f3565b610ea7565b6040516104219190612bbf565b60405180910390f35b34801561043657600080fd5b50610451600480360381019061044c9190612406565b610f59565b60405161045e9190612ec2565b60405180910390f35b34801561047357600080fd5b5061047c611011565b6040516104899190612ca0565b60405180910390f35b34801561049e57600080fd5b506104a7611135565b6040516104b49190612bda565b60405180910390f35b3480156104c957600080fd5b506104d261115b565b6040516104df9190612ca0565b60405180910390f35b3480156104f457600080fd5b5061050f600480360381019061050a9190612571565b6111ed565b005b34801561051d57600080fd5b50610538600480360381019061053391906125ad565b611203565b005b34801561054657600080fd5b50610561600480360381019061055c91906124f6565b611207565b005b34801561056f57600080fd5b5061058a600480360381019061058591906126f3565b611269565b6040516105979190612ca0565b60405180910390f35b3480156105ac57600080fd5b506105c760048036038101906105c29190612794565b611311565b6040516105d49190612ec2565b60405180910390f35b3480156105e957600080fd5b5061060460048036038101906105ff919061246b565b61144a565b6040516106119190612c6a565b60405180910390f35b60007f80ac58cd000000000000000000000000000000000000000000000000000000007bffffffffffffffffffffffffffffffffffffffffffffffffffffffff1916827bffffffffffffffffffffffffffffffffffffffffffffffffffffffff191614806106e557507f5b5e139f000000000000000000000000000000000000000000000000000000007bffffffffffffffffffffffffffffffffffffffffffffffffffffffff1916827bffffffffffffffffffffffffffffffffffffffffffffffffffffffff1916145b806106f557506106f4826114de565b5b9050919050565b61070584610cb9565b6000604360008581526020019081526020016000205490506000600160405461072e9190612fbc565b905061073a8782611548565b50505050505050565b600082600760006101000a81548173ffffffffffffffffffffffffffffffffffffffff021916908373ffffffffffffffffffffffffffffffffffffffff1602179055506000600760009054906101000a900473ffffffffffffffffffffffffffffffffffffffff1673ffffffffffffffffffffffffffffffffffffffff1663486fc6d360016040518263ffffffff1660e01b81526004016107e49190612c85565b60206040518083038186803b1580156107fc57600080fd5b505afa158015610810573d6000803e3d6000fd5b505050506040513d601f19601f82011682018060405250810190610834919061271c565b9050809150509392505050565b6060600080546108509061315e565b80601f016020809104026020016040519081016040528092919081815260200182805461087c9061315e565b80156108c95780601f1061089e576101008083540402835291602001916108c9565b820191906000526020600020905b8154815290600101906020018083116108ac57829003601f168201915b5050505050905090565b60006108de82611722565b61091d576040517f08c379a000000000000000000000000000000000000000000000000000000000815260040161091490612e02565b60405180910390fd5b6004600083815260200190815260200160002060009054906101000a900473ffffffffffffffffffffffffffffffffffffffff169050919050565b600061096382610ea7565b90508073ffffffffffffffffffffffffffffffffffffffff168373ffffffffffffffffffffffffffffffffffffffff1614156109d4576040517f08c379a00000000000000000000000000000000000000000000000000000000081526004016109cb90612e42565b60405180910390fd5b8073ffffffffffffffffffffffffffffffffffffffff166109f361178e565b73ffffffffffffffffffffffffffffffffffffffff161480610a225750610a2181610a1c61178e565b61144a565b5b610a61576040517f08c379a0000000000000000000000000000000000000000000000000000000008152600401610a5890612d82565b60405180910390fd5b610a6b8383611796565b505050565b600033600660009054906101000a900473ffffffffffffffffffffffffffffffffffffffff1673ffffffffffffffffffffffffffffffffffffffff168173ffffffffffffffffffffffffffffffffffffffff1614610b03576040517f08c379a0000000000000000000000000000000000000000000000000000000008152600401610afa90612ea2565b60405180910390fd5b610b0b610bff565b831115610b4d576040517f08c379a0000000000000000000000000000000000000000000000000000000008152600401610b4490612e62565b60405180910390fd5b8373ffffffffffffffffffffffffffffffffffffffff166108fc849081150290604051600060405180830381858888f19350505050158015610b93573d6000803e3d6000fd5b50600191505092915050565b610bb0610baa61178e565b8261184f565b610bef576040517f08c379a0000000000000000000000000000000000000000000000000000000008152600401610be690612e82565b60405180910390fd5b610bfa83838361192d565b505050565b600033600660009054906101000a900473ffffffffffffffffffffffffffffffffffffffff1673ffffffffffffffffffffffffffffffffffffffff168173ffffffffffffffffffffffffffffffffffffffff1614610c92576040517f08c379a0000000000000000000000000000000000000000000000000000000008152600401610c8990612ea2565b60405180910390fd5b4791505090565b610cb483838360405180602001604052806000815250611207565b505050565b610cc281611b94565b50565b33600660009054906101000a900473ffffffffffffffffffffffffffffffffffffffff1673ffffffffffffffffffffffffffffffffffffffff168173ffffffffffffffffffffffffffffffffffffffff1614610d56576040517f08c379a0000000000000000000000000000000000000000000000000000000008152600401610d4d90612ea2565b60405180910390fd5b81600a9080519060200190610d6c9291906121eb565b505050565b33600660009054906101000a900473ffffffffffffffffffffffffffffffffffffffff1673ffffffffffffffffffffffffffffffffffffffff168173ffffffffffffffffffffffffffffffffffffffff1614610e02576040517f08c379a0000000000000000000000000000000000000000000000000000000008152600401610df990612ea2565b60405180910390fd5b6001831415610e53578360208360ff1660078110610e49577f4e487b7100000000000000000000000000000000000000000000000000000000600052603260045260246000fd5b0181905550610ea1565b6002831415610ea0578360398360ff1660078110610e9a577f4e487b7100000000000000000000000000000000000000000000000000000000600052603260045260246000fd5b01819055505b5b50505050565b6000806002600084815260200190815260200160002060009054906101000a900473ffffffffffffffffffffffffffffffffffffffff169050600073ffffffffffffffffffffffffffffffffffffffff168173ffffffffffffffffffffffffffffffffffffffff161415610f50576040517f08c379a0000000000000000000000000000000000000000000000000000000008152600401610f4790612dc2565b60405180910390fd5b80915050919050565b60008073ffffffffffffffffffffffffffffffffffffffff168273ffffffffffffffffffffffffffffffffffffffff161415610fca576040517f08c379a0000000000000000000000000000000000000000000000000000000008152600401610fc190612da2565b60405180910390fd5b600360008373ffffffffffffffffffffffffffffffffffffffff1673ffffffffffffffffffffffffffffffffffffffff168152602001908152602001600020549050919050565b606033600660009054906101000a900473ffffffffffffffffffffffffffffffffffffffff1673ffffffffffffffffffffffffffffffffffffffff168173ffffffffffffffffffffffffffffffffffffffff16146110a4576040517f08c379a000000000000000000000000000000000000000000000000000000000815260040161109b90612ea2565b60405180910390fd5b600a80546110b19061315e565b80601f01602080910402602001604051908101604052809291908181526020018280546110dd9061315e565b801561112a5780601f106110ff5761010080835404028352916020019161112a565b820191906000526020600020905b81548152906001019060200180831161110d57829003601f168201915b505050505091505090565b600660009054906101000a900473ffffffffffffffffffffffffffffffffffffffff1681565b60606001805461116a9061315e565b80601f01602080910402602001604051908101604052809291908181526020018280546111969061315e565b80156111e35780601f106111b8576101008083540402835291602001916111e3565b820191906000526020600020905b8154815290600101906020018083116111c657829003601f168201915b5050505050905090565b6111ff6111f861178e565b8383611cb1565b5050565b5050565b61121861121261178e565b8361184f565b611257576040517f08c379a000000000000000000000000000000000000000000000000000000000815260040161124e90612e82565b60405180910390fd5b61126384848484611e1e565b50505050565b606061127482611722565b6112b3576040517f08c379a00000000000000000000000000000000000000000000000000000000081526004016112aa90612e22565b60405180910390fd5b6000600a80546112c29061315e565b9050116112de576040518060200160405280600081525061130a565b600a6112e983611e7a565b6040516020016112fa929190612b90565b6040516020818303038152906040525b9050919050565b600033600660009054906101000a900473ffffffffffffffffffffffffffffffffffffffff1673ffffffffffffffffffffffffffffffffffffffff168173ffffffffffffffffffffffffffffffffffffffff16146113a4576040517f08c379a000000000000000000000000000000000000000000000000000000000815260040161139b90612ea2565b60405180910390fd5b60018414156113f35760208360ff16600781106113ea577f4e487b7100000000000000000000000000000000000000000000000000000000600052603260045260246000fd5b01549150611443565b60028414156114425760398360ff1660078110611439577f4e487b7100000000000000000000000000000000000000000000000000000000600052603260045260246000fd5b01549150611443565b5b5092915050565b6000600560008473ffffffffffffffffffffffffffffffffffffffff1673ffffffffffffffffffffffffffffffffffffffff16815260200190815260200160002060008373ffffffffffffffffffffffffffffffffffffffff1673ffffffffffffffffffffffffffffffffffffffff16815260200190815260200160002060009054906101000a900460ff16905092915050565b60007f01ffc9a7000000000000000000000000000000000000000000000000000000007bffffffffffffffffffffffffffffffffffffffffffffffffffffffff1916827bffffffffffffffffffffffffffffffffffffffffffffffffffffffff1916149050919050565b600073ffffffffffffffffffffffffffffffffffffffff168273ffffffffffffffffffffffffffffffffffffffff1614156115b8576040517f08c379a00000000000000000000000000000000000000000000000000000000081526004016115af90612de2565b60405180910390fd5b6115c181611722565b15611601576040517f08c379a00000000000000000000000000000000000000000000000000000000081526004016115f890612d02565b60405180910390fd5b61160d60008383612027565b6001600360008473ffffffffffffffffffffffffffffffffffffffff1673ffffffffffffffffffffffffffffffffffffffff168152602001908152602001600020600082825461165d9190612fbc565b92505081905550816002600083815260200190815260200160002060006101000a81548173ffffffffffffffffffffffffffffffffffffffff021916908373ffffffffffffffffffffffffffffffffffffffff160217905550808273ffffffffffffffffffffffffffffffffffffffff16600073ffffffffffffffffffffffffffffffffffffffff167fddf252ad1be2c89b69c2b068fc378daa952ba7f163c4a11628f55a4df523b3ef60405160405180910390a461171e6000838361202c565b5050565b60008073ffffffffffffffffffffffffffffffffffffffff166002600084815260200190815260200160002060009054906101000a900473ffffffffffffffffffffffffffffffffffffffff1673ffffffffffffffffffffffffffffffffffffffff1614159050919050565b600033905090565b816004600083815260200190815260200160002060006101000a81548173ffffffffffffffffffffffffffffffffffffffff021916908373ffffffffffffffffffffffffffffffffffffffff160217905550808273ffffffffffffffffffffffffffffffffffffffff1661180983610ea7565b73ffffffffffffffffffffffffffffffffffffffff167f8c5be1e5ebec7d5bd14f71427d1e84f3dd0314c0f7b2291e5b200ac8c7c3b92560405160405180910390a45050565b600061185a82611722565b611899576040517f08c379a000000000000000000000000000000000000000000000000000000000815260040161189090612d62565b60405180910390fd5b60006118a483610ea7565b90508073ffffffffffffffffffffffffffffffffffffffff168473ffffffffffffffffffffffffffffffffffffffff16148061191357508373ffffffffffffffffffffffffffffffffffffffff166118fb846108d3565b73ffffffffffffffffffffffffffffffffffffffff16145b806119245750611923818561144a565b5b91505092915050565b8273ffffffffffffffffffffffffffffffffffffffff1661194d82610ea7565b73ffffffffffffffffffffffffffffffffffffffff16146119a3576040517f08c379a000000000000000000000000000000000000000000000000000000000815260040161199a90612ce2565b60405180910390fd5b600073ffffffffffffffffffffffffffffffffffffffff168273ffffffffffffffffffffffffffffffffffffffff161415611a13576040517f08c379a0000000000000000000000000000000000000000000000000000000008152600401611a0a90612d22565b60405180910390fd5b611a1e838383612027565b611a29600082611796565b6001600360008573ffffffffffffffffffffffffffffffffffffffff1673ffffffffffffffffffffffffffffffffffffffff1681526020019081526020016000206000828254611a799190613043565b925050819055506001600360008473ffffffffffffffffffffffffffffffffffffffff1673ffffffffffffffffffffffffffffffffffffffff1681526020019081526020016000206000828254611ad09190612fbc565b92505081905550816002600083815260200190815260200160002060006101000a81548173ffffffffffffffffffffffffffffffffffffffff021916908373ffffffffffffffffffffffffffffffffffffffff160217905550808273ffffffffffffffffffffffffffffffffffffffff168473ffffffffffffffffffffffffffffffffffffffff167fddf252ad1be2c89b69c2b068fc378daa952ba7f163c4a11628f55a4df523b3ef60405160405180910390a4611b8f83838361202c565b505050565b6000611b9f82610ea7565b9050611bad81600084612027565b611bb8600083611796565b6001600360008373ffffffffffffffffffffffffffffffffffffffff1673ffffffffffffffffffffffffffffffffffffffff1681526020019081526020016000206000828254611c089190613043565b925050819055506002600083815260200190815260200160002060006101000a81549073ffffffffffffffffffffffffffffffffffffffff021916905581600073ffffffffffffffffffffffffffffffffffffffff168273ffffffffffffffffffffffffffffffffffffffff167fddf252ad1be2c89b69c2b068fc378daa952ba7f163c4a11628f55a4df523b3ef60405160405180910390a4611cad8160008461202c565b5050565b8173ffffffffffffffffffffffffffffffffffffffff168373ffffffffffffffffffffffffffffffffffffffff161415611d20576040517f08c379a0000000000000000000000000000000000000000000000000000000008152600401611d1790612d42565b60405180910390fd5b80600560008573ffffffffffffffffffffffffffffffffffffffff1673ffffffffffffffffffffffffffffffffffffffff16815260200190815260200160002060008473ffffffffffffffffffffffffffffffffffffffff1673ffffffffffffffffffffffffffffffffffffffff16815260200190815260200160002060006101000a81548160ff0219169083151502179055508173ffffffffffffffffffffffffffffffffffffffff168373ffffffffffffffffffffffffffffffffffffffff167f17307eab39ab6107e8899845ad3d59bd9653f200f220920489ca2b5937696c3183604051611e119190612c6a565b60405180910390a3505050565b611e2984848461192d565b611e3584848484612031565b611e74576040517f08c379a0000000000000000000000000000000000000000000000000000000008152600401611e6b90612cc2565b60405180910390fd5b50505050565b60606000821415611ec2576040518060400160405280600181526020017f30000000000000000000000000000000000000000000000000000000000000008152509050612022565b600082905060005b60008214611ef4578080611edd906131c1565b915050600a82611eed9190613012565b9150611eca565b60008167ffffffffffffffff811115611f36577f4e487b7100000000000000000000000000000000000000000000000000000000600052604160045260246000fd5b6040519080825280601f01601f191660200182016040528015611f685781602001600182028036833780820191505090505b5090505b6000851461201b57600182611f819190613043565b9150600a85611f90919061320a565b6030611f9c9190612fbc565b60f81b818381518110611fd8577f4e487b7100000000000000000000000000000000000000000000000000000000600052603260045260246000fd5b60200101907effffffffffffffffffffffffffffffffffffffffffffffffffffffffffffff1916908160001a905350600a856120149190613012565b9450611f6c565b8093505050505b919050565b505050565b505050565b60006120528473ffffffffffffffffffffffffffffffffffffffff166121c8565b156121bb578373ffffffffffffffffffffffffffffffffffffffff1663150b7a0261207b61178e565b8786866040518563ffffffff1660e01b815260040161209d9493929190612bf5565b602060405180830381600087803b1580156120b757600080fd5b505af19250505080156120e857506040513d601f19601f820116820180604052508101906120e59190612689565b60015b61216b573d8060008114612118576040519150601f19603f3d011682016040523d82523d6000602084013e61211d565b606091505b50600081511415612163576040517f08c379a000000000000000000000000000000000000000000000000000000000815260040161215a90612cc2565b60405180910390fd5b805181602001fd5b63150b7a0260e01b7bffffffffffffffffffffffffffffffffffffffffffffffffffffffff1916817bffffffffffffffffffffffffffffffffffffffffffffffffffffffff1916149150506121c0565b600190505b949350505050565b6000808273ffffffffffffffffffffffffffffffffffffffff163b119050919050565b8280546121f79061315e565b90600052602060002090601f0160209004810192826122195760008555612260565b82601f1061223257805160ff1916838001178555612260565b82800160010185558215612260579182015b8281111561225f578251825591602001919060010190612244565b5b50905061226d9190612271565b5090565b5b8082111561228a576000816000905550600101612272565b5090565b60006122a161229c84612f02565b612edd565b9050828152602081018484840111156122b957600080fd5b6122c484828561311c565b509392505050565b60006122df6122da84612f33565b612edd565b9050828152602081018484840111156122f757600080fd5b61230284828561311c565b509392505050565b6000813590506123198161373d565b92915050565b60008135905061232e81613754565b92915050565b6000813590506123438161376b565b92915050565b60008135905061235881613782565b92915050565b60008151905061236d81613782565b92915050565b600082601f83011261238457600080fd5b813561239484826020860161228e565b91505092915050565b600082601f8301126123ae57600080fd5b81356123be8482602086016122cc565b91505092915050565b6000813590506123d681613799565b92915050565b6000815190506123eb81613799565b92915050565b600081359050612400816137b0565b92915050565b60006020828403121561241857600080fd5b60006124268482850161230a565b91505092915050565b6000806040838503121561244257600080fd5b60006124508582860161231f565b9250506020612461858286016123c7565b9150509250929050565b6000806040838503121561247e57600080fd5b600061248c8582860161230a565b925050602061249d8582860161230a565b9150509250929050565b6000806000606084860312156124bc57600080fd5b60006124ca8682870161230a565b93505060206124db8682870161230a565b92505060406124ec868287016123c7565b9150509250925092565b6000806000806080858703121561250c57600080fd5b600061251a8782880161230a565b945050602061252b8782880161230a565b935050604061253c878288016123c7565b925050606085013567ffffffffffffffff81111561255957600080fd5b61256587828801612373565b91505092959194509250565b6000806040838503121561258457600080fd5b60006125928582860161230a565b92505060206125a385828601612334565b9150509250929050565b600080604083850312156125c057600080fd5b60006125ce8582860161230a565b92505060206125df858286016123c7565b9150509250929050565b600080600080600060a0868803121561260157600080fd5b600061260f8882890161230a565b9550506020612620888289016123c7565b9450506040612631888289016123c7565b9350506060612642888289016123c7565b9250506080612653888289016123c7565b9150509295509295909350565b60006020828403121561267257600080fd5b600061268084828501612349565b91505092915050565b60006020828403121561269b57600080fd5b60006126a98482850161235e565b91505092915050565b6000602082840312156126c457600080fd5b600082013567ffffffffffffffff8111156126de57600080fd5b6126ea8482850161239d565b91505092915050565b60006020828403121561270557600080fd5b6000612713848285016123c7565b91505092915050565b60006020828403121561272e57600080fd5b600061273c848285016123dc565b91505092915050565b60008060006060848603121561275a57600080fd5b6000612768868287016123c7565b9350506020612779868287016123c7565b925050604061278a868287016123f1565b9150509250925092565b600080604083850312156127a757600080fd5b60006127b5858286016123c7565b92505060206127c6858286016123f1565b9150509250929050565b6127d981613089565b82525050565b6127e881613077565b82525050565b6127f78161309b565b82525050565b600061280882612f79565b6128128185612f8f565b935061282281856020860161312b565b61282b816132f7565b840191505092915050565b61283f8161310a565b82525050565b600061285082612f84565b61285a8185612fa0565b935061286a81856020860161312b565b612873816132f7565b840191505092915050565b600061288982612f84565b6128938185612fb1565b93506128a381856020860161312b565b80840191505092915050565b600081546128bc8161315e565b6128c68186612fb1565b945060018216600081146128e157600181146128f257612925565b60ff19831686528186019350612925565b6128fb85612f64565b60005b8381101561291d578154818901526001820191506020810190506128fe565b838801955050505b50505092915050565b600061293b603283612fa0565b915061294682613308565b604082019050919050565b600061295e602583612fa0565b915061296982613357565b604082019050919050565b6000612981601c83612fa0565b915061298c826133a6565b602082019050919050565b60006129a4602483612fa0565b91506129af826133cf565b604082019050919050565b60006129c7601983612fa0565b91506129d28261341e565b602082019050919050565b60006129ea602c83612fa0565b91506129f582613447565b604082019050919050565b6000612a0d603883612fa0565b9150612a1882613496565b604082019050919050565b6000612a30602a83612fa0565b9150612a3b826134e5565b604082019050919050565b6000612a53602983612fa0565b9150612a5e82613534565b604082019050919050565b6000612a76602083612fa0565b9150612a8182613583565b602082019050919050565b6000612a99602c83612fa0565b9150612aa4826135ac565b604082019050919050565b6000612abc601283612fa0565b9150612ac7826135fb565b602082019050919050565b6000612adf600583612fb1565b9150612aea82613624565b600582019050919050565b6000612b02602183612fa0565b9150612b0d8261364d565b604082019050919050565b6000612b25601383612fa0565b9150612b308261369c565b602082019050919050565b6000612b48603183612fa0565b9150612b53826136c5565b604082019050919050565b6000612b6b601183612fa0565b9150612b7682613714565b602082019050919050565b612b8a816130f3565b82525050565b6000612b9c82856128af565b9150612ba8828461287e565b9150612bb382612ad2565b91508190509392505050565b6000602082019050612bd460008301846127df565b92915050565b6000602082019050612bef60008301846127d0565b92915050565b6000608082019050612c0a60008301876127df565b612c1760208301866127df565b612c246040830185612b81565b8181036060830152612c3681846127fd565b905095945050505050565b6000604082019050612c5660008301856127df565b612c636020830184612b81565b9392505050565b6000602082019050612c7f60008301846127ee565b92915050565b6000602082019050612c9a6000830184612836565b92915050565b60006020820190508181036000830152612cba8184612845565b905092915050565b60006020820190508181036000830152612cdb8161292e565b9050919050565b60006020820190508181036000830152612cfb81612951565b9050919050565b60006020820190508181036000830152612d1b81612974565b9050919050565b60006020820190508181036000830152612d3b81612997565b9050919050565b60006020820190508181036000830152612d5b816129ba565b9050919050565b60006020820190508181036000830152612d7b816129dd565b9050919050565b60006020820190508181036000830152612d9b81612a00565b9050919050565b60006020820190508181036000830152612dbb81612a23565b9050919050565b60006020820190508181036000830152612ddb81612a46565b9050919050565b60006020820190508181036000830152612dfb81612a69565b9050919050565b60006020820190508181036000830152612e1b81612a8c565b9050919050565b60006020820190508181036000830152612e3b81612aaf565b9050919050565b60006020820190508181036000830152612e5b81612af5565b9050919050565b60006020820190508181036000830152612e7b81612b18565b9050919050565b60006020820190508181036000830152612e9b81612b3b565b9050919050565b60006020820190508181036000830152612ebb81612b5e565b9050919050565b6000602082019050612ed76000830184612b81565b92915050565b6000612ee7612ef8565b9050612ef38282613190565b919050565b6000604051905090565b600067ffffffffffffffff821115612f1d57612f1c6132c8565b5b612f26826132f7565b9050602081019050919050565b600067ffffffffffffffff821115612f4e57612f4d6132c8565b5b612f57826132f7565b9050602081019050919050565b60008190508160005260206000209050919050565b600081519050919050565b600081519050919050565b600082825260208201905092915050565b600082825260208201905092915050565b600081905092915050565b6000612fc7826130f3565b9150612fd2836130f3565b9250827fffffffffffffffffffffffffffffffffffffffffffffffffffffffffffffffff038211156130075761300661323b565b5b828201905092915050565b600061301d826130f3565b9150613028836130f3565b9250826130385761303761326a565b5b828204905092915050565b600061304e826130f3565b9150613059836130f3565b92508282101561306c5761306b61323b565b5b828203905092915050565b6000613082826130d3565b9050919050565b6000613094826130d3565b9050919050565b60008115159050919050565b60007fffffffff0000000000000000000000000000000000000000000000000000000082169050919050565b600073ffffffffffffffffffffffffffffffffffffffff82169050919050565b6000819050919050565b600060ff82169050919050565b6000613115826130fd565b9050919050565b82818337600083830152505050565b60005b8381101561314957808201518184015260208101905061312e565b83811115613158576000848401525b50505050565b6000600282049050600182168061317657607f821691505b6020821081141561318a57613189613299565b5b50919050565b613199826132f7565b810181811067ffffffffffffffff821117156131b8576131b76132c8565b5b80604052505050565b60006131cc826130f3565b91507fffffffffffffffffffffffffffffffffffffffffffffffffffffffffffffffff8214156131ff576131fe61323b565b5b600182019050919050565b6000613215826130f3565b9150613220836130f3565b9250826132305761322f61326a565b5b828206905092915050565b7f4e487b7100000000000000000000000000000000000000000000000000000000600052601160045260246000fd5b7f4e487b7100000000000000000000000000000000000000000000000000000000600052601260045260246000fd5b7f4e487b7100000000000000000000000000000000000000000000000000000000600052602260045260246000fd5b7f4e487b7100000000000000000000000000000000000000000000000000000000600052604160045260246000fd5b6000601f19601f8301169050919050565b7f4552433732313a207472616e7366657220746f206e6f6e20455243373231526560008201527f63656976657220696d706c656d656e7465720000000000000000000000000000602082015250565b7f4552433732313a207472616e736665722066726f6d20696e636f72726563742060008201527f6f776e6572000000000000000000000000000000000000000000000000000000602082015250565b7f4552433732313a20746f6b656e20616c7265616479206d696e74656400000000600082015250565b7f4552433732313a207472616e7366657220746f20746865207a65726f2061646460008201527f7265737300000000000000000000000000000000000000000000000000000000602082015250565b7f4552433732313a20617070726f766520746f2063616c6c657200000000000000600082015250565b7f4552433732313a206f70657261746f7220717565727920666f72206e6f6e657860008201527f697374656e7420746f6b656e0000000000000000000000000000000000000000602082015250565b7f4552433732313a20617070726f76652063616c6c6572206973206e6f74206f7760008201527f6e6572206e6f7220617070726f76656420666f7220616c6c0000000000000000602082015250565b7f4552433732313a2062616c616e636520717565727920666f7220746865207a6560008201527f726f206164647265737300000000000000000000000000000000000000000000602082015250565b7f4552433732313a206f776e657220717565727920666f72206e6f6e657869737460008201527f656e7420746f6b656e0000000000000000000000000000000000000000000000602082015250565b7f4552433732313a206d696e7420746f20746865207a65726f2061646472657373600082015250565b7f4552433732313a20617070726f76656420717565727920666f72206e6f6e657860008201527f697374656e7420746f6b656e0000000000000000000000000000000000000000602082015250565b7f4e6f6e6578697374656e7420746f6b656e210000000000000000000000000000600082015250565b7f2e6a736f6e000000000000000000000000000000000000000000000000000000600082015250565b7f4552433732313a20617070726f76616c20746f2063757272656e74206f776e6560008201527f7200000000000000000000000000000000000000000000000000000000000000602082015250565b7f4e6f7420456e6f7567682042616c616e63652100000000000000000000000000600082015250565b7f4552433732313a207472616e736665722063616c6c6572206973206e6f74206f60008201527f776e6572206e6f7220617070726f766564000000000000000000000000000000602082015250565b7f4e6f742061206f776e65722063616c6c21000000000000000000000000000000600082015250565b61374681613077565b811461375157600080fd5b50565b61375d81613089565b811461376857600080fd5b50565b6137748161309b565b811461377f57600080fd5b50565b61378b816130a7565b811461379657600080fd5b50565b6137a2816130f3565b81146137ad57600080fd5b50565b6137b9816130fd565b81146137c457600080fd5b5056fea2646970667358221220ffb98fc1e2c1546e34a7d021403e1161183836a943dfe530d21f1d52159b018e64736f6c63430008020033",
  "immutableReferences": {},
  "source": "// SPDX-License-Identifier: MIT\npragma solidity ^0.8.2;\nimport \"@openzeppelin/contracts/token/ERC721/ERC721.sol\";\n\ncontract Item {\n    function getFloorPrice(uint8 _itemType) public view returns (uint256) {}\n}\n\n\ncontract Metamon is ERC721 {\n    using Strings for uint256;\n    address payable public owner;\n    Item _item;\n\n    string private itemBaseURI;\n    string private metamonBaseURI;\n    string private baseURI;\n\n    event ReceivedEth(address _reciever, uint256 _value);\n    event MetamonMint(uint256 _tokenId, address _reciever);\n\n    uint256[7] private itemtokenTypes = [1, 2, 3, 4, 5, 6, 7]; // REPR: 7 UNIQUE ITEMS\n    uint256[7] private itemtokenSupply = [\n        1000,\n        2500,\n        1000,\n        2000,\n        3000,\n        5000,\n        2000\n    ];\n    uint256[7] private itemtokenIds = [1, 1, 1, 1, 1, 1, 1];\n    uint256[7] private itemtokenFloor = [\n        0.01 ether,\n        0.02 ether,\n        0.03 ether,\n        0.04 ether,\n        0.05 ether,\n        0.06 ether,\n        0.07 ether\n    ];\n\n    uint256[6] private metamonDax = [1, 2, 3, 4, 5, 6]; // REPR: METAMONT DEX NUMBERS\n    uint256[6] private metamonSupply = [1000, 2000, 1000, 3000, 4000, 1000];\n    uint256[6] private metamontIds = [1, 1, 1, 1, 1, 1];\n    uint256[7] private metamonFloor = [\n        .05 ether,\n        .025 ether,\n        0.035 ether,\n        0.045 ether,\n        0.055 ether,\n        0.065 ether,\n        0.075 ether\n    ];\n    uint256 _tokenIds;\n\n    mapping(uint256 => uint256) private familyMetamon;\n\n    mapping(uint256 => uint256) private itemEvaluation;\n    mapping(uint256 => uint256) private burnEvaluation;\n\n    mapping(address => uint256) private _collectedItems; // MINTING FIRST CHECK IF ADDRESS COLLEDTED ANY ITEMS BEFORE\n    mapping(address => uint256) private _collectedDax; // TOTAL COLLECTED DAX ITEMS IMPORTANT TO IDENTIFY SHINY LOGIC\n\n    constructor() payable ERC721(\"Metamon NFT\", \"NFT\") {\n\n        owner = payable(msg.sender);\n        // FILLING INFORMATION OF METAMAN AND EVALUATION\n        burnEvaluation[1] = 3;\n        burnEvaluation[2] = 3;\n        familyMetamon[1] = 2;\n        familyMetamon[2] = 3;\n        // ****************\n        burnEvaluation[4] = 3;\n        burnEvaluation[5] = 3;\n        familyMetamon[4] = 5;\n        familyMetamon[5] = 6;\n    }\n\n    modifier onlyOwner(address sender) {\n        require(sender == owner, \"Not a owner call!\");\n        _;\n    }\n\n    // State Changes\n    function changeFloorPrice(\n        uint256 _new_price,\n        uint256 _type,\n        uint8 _index\n    )\n        external\n        // _type 1 represents \"ITEMS\" _type 2 represents \"Metamon\"\n        // _index tell which \"ITEM\" or \"Metamon\" starts from 0, 1, 2, 3, ... 7\n        onlyOwner(msg.sender)\n    {\n        if (_type == 1) {\n            itemtokenFloor[_index] = _new_price;\n        } else if (_type == 2) {\n            metamonFloor[_index] = _new_price;\n        }\n    }\n\n    function getFloorPrice(uint256 _type, uint8 _index)\n        external\n        view\n        onlyOwner(msg.sender)\n        returns (uint256)\n    {\n        if (_type == 1) {\n            return itemtokenFloor[_index];\n        } else if (_type == 2) {\n            return metamonFloor[_index];\n        }\n    }\n\n    // Get Information\n    function getWalletBalance()\n        public\n        view\n        onlyOwner(msg.sender)\n        returns (uint256)\n    {\n        return address(this).balance;\n    }\n\n    // Contract ETH Relationship\n    fallback() external payable {}\n\n    receive() external payable {\n        emit ReceivedEth(msg.sender, msg.value);\n    }\n\n    function transferContractBalance(\n        address payable _recipient,\n        uint256 _amount\n    ) external onlyOwner(msg.sender) returns (bool) {\n        require(_amount <= getWalletBalance(), \"Not Enough Balance!\");\n        _recipient.transfer(_amount);\n        return true;\n    }\n\n    // NFT Minting Related\n    function setBaseURI(string memory _baseURILink)\n        external\n        onlyOwner(msg.sender)\n    {\n        baseURI = _baseURILink;\n    }\n\n    function getBaseURI()\n        external\n        view\n        onlyOwner(msg.sender)\n        returns (string memory)\n    {\n        return baseURI;\n    }\n\n    function _baseURI() internal view virtual override returns (string memory) {\n        // We will have different baseURIs for Item and Metamon \n        // TODO: move items into different collection\n        return baseURI;\n    }\n\n    function tokenURI(uint256 tokenId)\n        public\n        view\n        virtual\n        override\n        returns (string memory)\n    {\n        require(_exists(tokenId), \"Nonexistent token!\");\n        // We can retrieve the information about token id \n        // -> is it Item or Metamon\n        // -> what is the dax number\n        // -> based on the information that we retrieve we will return base_uri\n        // TODO: move items into different collection\n\n        return\n            bytes(baseURI).length > 0\n                ? string(abi.encodePacked(baseURI, tokenId.toString(), \".json\"))\n                : \"\";\n    }\n\n    function burn(uint256 _value) public {\n        _burn(_value);\n    }\n\n    function mintSale(\n        address _recipient, \n        address _itemCA,\n        uint256 _quantity) public payable returns(uint256) {\n    //     require(\n    //         _quantity > 0 && _quantity <= (totalSupply - _tokenIds),\n    //         \"Not Enough Reserve!\"\n    //     );\n\n    //     if (msg.sender != owner) {\n    //         require(msg.value == florPrice * _quantity, \"Not Enough Balance!\");\n    //     }\n\n    // TODO: check if the dax number can be mintable based on the phases\n    // TODO: after minting make sure to push token information into mapping\n\n        _item = Item(_itemCA);\n        uint256 floor = _item.getFloorPrice(1);\n\n        return floor;\n        // uint256 j = _tokenIds;\n        // for (uint256 i = 0; i < _quantity; i++) {\n        //     j++;\n        //     _mint(_recipient, j);\n        //     emit MetamonMint(j, _recipient);\n        // }\n        // _tokenIds = j;\n    }\n\n    function evalutionMetaItem(address _recipient, uint256 _quantity) public {\n\n\n    }\n\n    function evalutionMetaBurn(\n        address _recipient, \n        uint256 _sendTokenId, \n        uint256 _sendDaxId, \n        // uint256, _quantitySend,  \n        uint256 _targetDax, \n        uint256 _itemTokenId\n        ) public {\n        // check whether owner has item token\n        \n        burn(_sendTokenId);\n        uint256 _evaluationToken = burnEvaluation[_sendDaxId];\n        uint256 _tokenIds = _tokenIds + 1;\n        _mint(_recipient, _tokenIds);\n\n\n    }\n}\n",
  "sourcePath": "/Users/aipek/Documents/metamon_contracts/contracts/Metamon.sol",
  "compiler": {
    "name": "solc",
    "version": "0.8.2+commit.661d1103.Emscripten.clang"
  },
  "schemaVersion": "3.4.4",
  "updatedAt": "2022-02-15T23:11:35.705Z",
  "devdoc": {
    "kind": "dev",
    "methods": {
      "approve(address,uint256)": {
        "details": "See {IERC721-approve}."
      },
      "balanceOf(address)": {
        "details": "See {IERC721-balanceOf}."
      },
      "getApproved(uint256)": {
        "details": "See {IERC721-getApproved}."
      },
      "isApprovedForAll(address,address)": {
        "details": "See {IERC721-isApprovedForAll}."
      },
      "name()": {
        "details": "See {IERC721Metadata-name}."
      },
      "ownerOf(uint256)": {
        "details": "See {IERC721-ownerOf}."
      },
      "safeTransferFrom(address,address,uint256)": {
        "details": "See {IERC721-safeTransferFrom}."
      },
      "safeTransferFrom(address,address,uint256,bytes)": {
        "details": "See {IERC721-safeTransferFrom}."
      },
      "setApprovalForAll(address,bool)": {
        "details": "See {IERC721-setApprovalForAll}."
      },
      "supportsInterface(bytes4)": {
        "details": "See {IERC165-supportsInterface}."
      },
      "symbol()": {
        "details": "See {IERC721Metadata-symbol}."
      },
      "tokenURI(uint256)": {
        "details": "See {IERC721Metadata-tokenURI}."
      },
      "transferFrom(address,address,uint256)": {
        "details": "See {IERC721-transferFrom}."
      }
    },
    "version": 1
  },
  "userdoc": {
    "kind": "user",
    "methods": {},
    "version": 1
  }
}