{
  "contractName": "Metamon",
  "abi": [
    {
      "inputs": [],
      "stateMutability": "payable",
      "type": "constructor",
      "payable": true
    },
    {
      "anonymous": false,
      "inputs": [
        {
          "indexed": true,
          "internalType": "address",
          "name": "owner",
          "type": "address"
        },
        {
          "indexed": true,
          "internalType": "address",
          "name": "approved",
          "type": "address"
        },
        {
          "indexed": true,
          "internalType": "uint256",
          "name": "tokenId",
          "type": "uint256"
        }
      ],
      "name": "Approval",
      "type": "event"
    },
    {
      "anonymous": false,
      "inputs": [
        {
          "indexed": true,
          "internalType": "address",
          "name": "owner",
          "type": "address"
        },
        {
          "indexed": true,
          "internalType": "address",
          "name": "operator",
          "type": "address"
        },
        {
          "indexed": false,
          "internalType": "bool",
          "name": "approved",
          "type": "bool"
        }
      ],
      "name": "ApprovalForAll",
      "type": "event"
    },
    {
      "anonymous": false,
      "inputs": [
        {
          "indexed": false,
          "internalType": "uint256",
          "name": "_tokenId",
          "type": "uint256"
        },
        {
          "indexed": false,
          "internalType": "uint8",
          "name": "_dexId",
          "type": "uint8"
        },
        {
          "indexed": false,
          "internalType": "address",
          "name": "_burner",
          "type": "address"
        }
      ],
      "name": "MetamonBurn",
      "type": "event"
    },
    {
      "anonymous": false,
      "inputs": [
        {
          "indexed": false,
          "internalType": "uint256",
          "name": "_tokenId",
          "type": "uint256"
        },
        {
          "indexed": false,
          "internalType": "address",
          "name": "_reciever",
          "type": "address"
        }
      ],
      "name": "MetamonMint",
      "type": "event"
    },
    {
      "anonymous": false,
      "inputs": [
        {
          "indexed": false,
          "internalType": "address",
          "name": "_reciever",
          "type": "address"
        },
        {
          "indexed": false,
          "internalType": "uint256",
          "name": "_value",
          "type": "uint256"
        }
      ],
      "name": "ReceivedEth",
      "type": "event"
    },
    {
      "anonymous": false,
      "inputs": [
        {
          "indexed": true,
          "internalType": "address",
          "name": "from",
          "type": "address"
        },
        {
          "indexed": true,
          "internalType": "address",
          "name": "to",
          "type": "address"
        },
        {
          "indexed": true,
          "internalType": "uint256",
          "name": "tokenId",
          "type": "uint256"
        }
      ],
      "name": "Transfer",
      "type": "event"
    },
    {
      "stateMutability": "payable",
      "type": "fallback",
      "payable": true
    },
    {
      "inputs": [
        {
          "internalType": "address",
          "name": "to",
          "type": "address"
        },
        {
          "internalType": "uint256",
          "name": "tokenId",
          "type": "uint256"
        }
      ],
      "name": "approve",
      "outputs": [],
      "stateMutability": "nonpayable",
      "type": "function"
    },
    {
      "inputs": [
        {
          "internalType": "address",
          "name": "owner",
          "type": "address"
        }
      ],
      "name": "balanceOf",
      "outputs": [
        {
          "internalType": "uint256",
          "name": "",
          "type": "uint256"
        }
      ],
      "stateMutability": "view",
      "type": "function",
      "constant": true
    },
    {
      "inputs": [],
      "name": "currentMintPhase",
      "outputs": [
        {
          "internalType": "uint8",
          "name": "",
          "type": "uint8"
        }
      ],
      "stateMutability": "view",
      "type": "function",
      "constant": true
    },
    {
      "inputs": [
        {
          "internalType": "uint256",
          "name": "tokenId",
          "type": "uint256"
        }
      ],
      "name": "getApproved",
      "outputs": [
        {
          "internalType": "address",
          "name": "",
          "type": "address"
        }
      ],
      "stateMutability": "view",
      "type": "function",
      "constant": true
    },
    {
      "inputs": [
        {
          "internalType": "address",
          "name": "owner",
          "type": "address"
        },
        {
          "internalType": "address",
          "name": "operator",
          "type": "address"
        }
      ],
      "name": "isApprovedForAll",
      "outputs": [
        {
          "internalType": "bool",
          "name": "",
          "type": "bool"
        }
      ],
      "stateMutability": "view",
      "type": "function",
      "constant": true
    },
    {
      "inputs": [
        {
          "internalType": "uint256",
          "name": "",
          "type": "uint256"
        }
      ],
      "name": "metamonInfoPersonality",
      "outputs": [
        {
          "internalType": "uint8",
          "name": "",
          "type": "uint8"
        }
      ],
      "stateMutability": "view",
      "type": "function",
      "constant": true
    },
    {
      "inputs": [
        {
          "internalType": "uint256",
          "name": "",
          "type": "uint256"
        }
      ],
      "name": "metamonInfoShiny",
      "outputs": [
        {
          "internalType": "bool",
          "name": "",
          "type": "bool"
        }
      ],
      "stateMutability": "view",
      "type": "function",
      "constant": true
    },
    {
      "inputs": [],
      "name": "name",
      "outputs": [
        {
          "internalType": "string",
          "name": "",
          "type": "string"
        }
      ],
      "stateMutability": "view",
      "type": "function",
      "constant": true
    },
    {
      "inputs": [],
      "name": "owner",
      "outputs": [
        {
          "internalType": "address payable",
          "name": "",
          "type": "address"
        }
      ],
      "stateMutability": "view",
      "type": "function",
      "constant": true
    },
    {
      "inputs": [
        {
          "internalType": "uint256",
          "name": "tokenId",
          "type": "uint256"
        }
      ],
      "name": "ownerOf",
      "outputs": [
        {
          "internalType": "address",
          "name": "",
          "type": "address"
        }
      ],
      "stateMutability": "view",
      "type": "function",
      "constant": true
    },
    {
      "inputs": [
        {
          "internalType": "address",
          "name": "from",
          "type": "address"
        },
        {
          "internalType": "address",
          "name": "to",
          "type": "address"
        },
        {
          "internalType": "uint256",
          "name": "tokenId",
          "type": "uint256"
        }
      ],
      "name": "safeTransferFrom",
      "outputs": [],
      "stateMutability": "nonpayable",
      "type": "function"
    },
    {
      "inputs": [
        {
          "internalType": "address",
          "name": "from",
          "type": "address"
        },
        {
          "internalType": "address",
          "name": "to",
          "type": "address"
        },
        {
          "internalType": "uint256",
          "name": "tokenId",
          "type": "uint256"
        },
        {
          "internalType": "bytes",
          "name": "_data",
          "type": "bytes"
        }
      ],
      "name": "safeTransferFrom",
      "outputs": [],
      "stateMutability": "nonpayable",
      "type": "function"
    },
    {
      "inputs": [
        {
          "internalType": "address",
          "name": "operator",
          "type": "address"
        },
        {
          "internalType": "bool",
          "name": "approved",
          "type": "bool"
        }
      ],
      "name": "setApprovalForAll",
      "outputs": [],
      "stateMutability": "nonpayable",
      "type": "function"
    },
    {
      "inputs": [
        {
          "internalType": "bytes4",
          "name": "interfaceId",
          "type": "bytes4"
        }
      ],
      "name": "supportsInterface",
      "outputs": [
        {
          "internalType": "bool",
          "name": "",
          "type": "bool"
        }
      ],
      "stateMutability": "view",
      "type": "function",
      "constant": true
    },
    {
      "inputs": [],
      "name": "symbol",
      "outputs": [
        {
          "internalType": "string",
          "name": "",
          "type": "string"
        }
      ],
      "stateMutability": "view",
      "type": "function",
      "constant": true
    },
    {
      "inputs": [
        {
          "internalType": "address",
          "name": "from",
          "type": "address"
        },
        {
          "internalType": "address",
          "name": "to",
          "type": "address"
        },
        {
          "internalType": "uint256",
          "name": "tokenId",
          "type": "uint256"
        }
      ],
      "name": "transferFrom",
      "outputs": [],
      "stateMutability": "nonpayable",
      "type": "function"
    },
    {
      "stateMutability": "payable",
      "type": "receive",
      "payable": true
    },
    {
      "inputs": [
        {
          "internalType": "uint256",
          "name": "_new_price",
          "type": "uint256"
        },
        {
          "internalType": "uint8",
          "name": "_dexId",
          "type": "uint8"
        }
      ],
      "name": "changeFloorPrice",
      "outputs": [],
      "stateMutability": "nonpayable",
      "type": "function"
    },
    {
      "inputs": [
        {
          "internalType": "uint256",
          "name": "_new_supply",
          "type": "uint256"
        },
        {
          "internalType": "uint8",
          "name": "_dexId",
          "type": "uint8"
        }
      ],
      "name": "changeSupplyDexId",
      "outputs": [],
      "stateMutability": "nonpayable",
      "type": "function"
    },
    {
      "inputs": [
        {
          "internalType": "uint8",
          "name": "_dexId",
          "type": "uint8"
        }
      ],
      "name": "getFloorPrice",
      "outputs": [
        {
          "internalType": "uint256",
          "name": "",
          "type": "uint256"
        }
      ],
      "stateMutability": "view",
      "type": "function",
      "constant": true
    },
    {
      "inputs": [],
      "name": "getWalletBalance",
      "outputs": [
        {
          "internalType": "uint256",
          "name": "",
          "type": "uint256"
        }
      ],
      "stateMutability": "view",
      "type": "function",
      "constant": true
    },
    {
      "inputs": [
        {
          "internalType": "uint8",
          "name": "_dexId",
          "type": "uint8"
        }
      ],
      "name": "getSupplyDex",
      "outputs": [
        {
          "internalType": "uint256",
          "name": "",
          "type": "uint256"
        }
      ],
      "stateMutability": "view",
      "type": "function",
      "constant": true
    },
    {
      "inputs": [
        {
          "internalType": "address payable",
          "name": "_recipient",
          "type": "address"
        },
        {
          "internalType": "uint256",
          "name": "_amount",
          "type": "uint256"
        }
      ],
      "name": "transferContractBalance",
      "outputs": [
        {
          "internalType": "bool",
          "name": "",
          "type": "bool"
        }
      ],
      "stateMutability": "nonpayable",
      "type": "function"
    },
    {
      "inputs": [
        {
          "internalType": "string",
          "name": "_baseURILink",
          "type": "string"
        }
      ],
      "name": "setBaseURI",
      "outputs": [],
      "stateMutability": "nonpayable",
      "type": "function"
    },
    {
      "inputs": [],
      "name": "getBaseURI",
      "outputs": [
        {
          "internalType": "string",
          "name": "",
          "type": "string"
        }
      ],
      "stateMutability": "view",
      "type": "function",
      "constant": true
    },
    {
      "inputs": [
        {
          "internalType": "uint256",
          "name": "tokenId",
          "type": "uint256"
        }
      ],
      "name": "tokenURI",
      "outputs": [
        {
          "internalType": "string",
          "name": "",
          "type": "string"
        }
      ],
      "stateMutability": "view",
      "type": "function",
      "constant": true
    },
    {
      "inputs": [
        {
          "internalType": "uint256",
          "name": "_value",
          "type": "uint256"
        }
      ],
      "name": "burn",
      "outputs": [],
      "stateMutability": "nonpayable",
      "type": "function"
    },
    {
      "inputs": [
        {
          "internalType": "uint8",
          "name": "_dexId",
          "type": "uint8"
        }
      ],
      "name": "mintableDex",
      "outputs": [
        {
          "internalType": "bool",
          "name": "",
          "type": "bool"
        }
      ],
      "stateMutability": "view",
      "type": "function",
      "constant": true
    },
    {
      "inputs": [
        {
          "internalType": "string",
          "name": "_passCode",
          "type": "string"
        },
        {
          "internalType": "address",
          "name": "_recipient",
          "type": "address"
        },
        {
          "internalType": "uint256",
          "name": "_quantity",
          "type": "uint256"
        },
        {
          "internalType": "uint8",
          "name": "_dexId",
          "type": "uint8"
        }
      ],
      "name": "mintSale",
      "outputs": [],
      "stateMutability": "payable",
      "type": "function",
      "payable": true
    },
    {
      "inputs": [
        {
          "internalType": "address",
          "name": "_recipient",
          "type": "address"
        },
        {
          "internalType": "uint256",
          "name": "_sendTokenId",
          "type": "uint256"
        },
        {
          "internalType": "uint256",
          "name": "_sendDexId",
          "type": "uint256"
        }
      ],
      "name": "evalutionItemBurn",
      "outputs": [],
      "stateMutability": "nonpayable",
      "type": "function"
    },
    {
      "inputs": [
        {
          "internalType": "address",
          "name": "_recipient",
          "type": "address"
        },
        {
          "internalType": "uint256",
          "name": "_sendTokenId",
          "type": "uint256"
        },
        {
          "internalType": "uint256",
          "name": "_sendDexId",
          "type": "uint256"
        },
        {
          "internalType": "uint256",
          "name": "_quantitySend",
          "type": "uint256"
        },
        {
          "internalType": "uint256",
          "name": "_targetDax",
          "type": "uint256"
        },
        {
          "internalType": "uint256",
          "name": "_itemTokenId",
          "type": "uint256"
        }
      ],
      "name": "evalutionMetaBurn",
      "outputs": [],
      "stateMutability": "nonpayable",
      "type": "function"
    }
  ],
  "bytecode": "0x6080604052731e6059ec57ae39d2c73e5c3821a26faffd68e016600760006101000a81548173ffffffffffffffffffffffffffffffffffffffff021916908373ffffffffffffffffffffffffffffffffffffffff160217905550600760009054906101000a900473ffffffffffffffffffffffffffffffffffffffff16600860006101000a81548173ffffffffffffffffffffffffffffffffffffffff021916908373ffffffffffffffffffffffffffffffffffffffff1602179055506001600c60006101000a81548160ff021916908360ff1602179055506040518060a00160405280606360ff168152602001606260ff168152602001606160ff168152602001606060ff168152602001605f60ff16815250600d90600562000125929190620006a7565b506040518060a0016040528061012861ffff16815260200161012461ffff16815260200161012061ffff16815260200161011c61ffff16815260200161011861ffff16815250600e9060056200017d92919062000748565b50604051806101000160405280600160ff168152602001600260ff168152602001600360ff168152602001600460ff168152602001600760ff168152602001600a60ff168152602001600b60ff168152602001600d60ff16815250600f906008620001ea929190620007f0565b506040518061010001604052806103e861ffff168152602001600061ffff168152602001600061ffff1681526020016107d061ffff1681526020016103e861ffff168152602001610bb861ffff168152602001610fa061ffff1681526020016103e861ffff168152506017906008620002659291906200083a565b50604051806101000160405280600060ff168152602001600060ff168152602001600060ff168152602001600060ff168152602001600060ff168152602001600060ff168152602001600060ff168152602001600060ff16815250601f906008620002d2929190620007f0565b50604051806101000160405280600160ff168152602001600060ff168152602001600060ff168152602001600160ff168152602001600060ff168152602001600060ff168152602001600060ff168152602001600160ff1681525060279060086200033f929190620007f0565b5060405180610100016040528066b1a2bc2ec5000066ffffffffffffff168152602001600066ffffffffffffff168152602001600066ffffffffffffff1681526020016658d15e1762800066ffffffffffffff168152602001667c58508723800066ffffffffffffff168152602001669fdf42f6e4800066ffffffffffffff16815260200166c3663566a5800066ffffffffffffff16815260200166e6ed27d666800066ffffffffffffff16815250602f9060086200040092919062000885565b506040518060400160405280600b81526020017f4d6574616d6f6e204e46540000000000000000000000000000000000000000008152506040518060400160405280600381526020017f4e46540000000000000000000000000000000000000000000000000000000000815250816000908051906020019062000485929190620008d5565b5080600190805190602001906200049e929190620008d5565b50505033600660006101000a81548173ffffffffffffffffffffffffffffffffffffffff021916908373ffffffffffffffffffffffffffffffffffffffff1602179055506002603b600060018152602001908152602001600020819055506003603b600060028152602001908152602001600020819055506001603a600060018152602001908152602001600020819055506001603a60006002815260200190815260200160002081905550600260396000600181526020019081526020016000208190555060036039600060028152602001908152602001600020819055506002603b600060048152602001908152602001600020819055506003603b600060058152602001908152602001600020819055506002603a600060048152602001908152602001600020819055506002603a60006005815260200190815260200160002081905550600560396000600481526020019081526020016000208190555060066039600060058152602001908152602001600020819055506040518060c00160405280600160ff168152602001600460ff168152602001600760ff168152602001601460ff168152602001605660ff168152602001608560ff1681525060386000600160ff1681526020019081526020016000209060066200068692919062000966565b506005603b6000608181526020019081526020016000208190555062000a41565b826005601f01602090048101928215620007355791602002820160005b838211156200070457835183826101000a81548160ff021916908360ff1602179055509260200192600101602081600001049283019260010302620006c4565b8015620007335782816101000a81549060ff021916905560010160208160000104928301926001030262000704565b505b509050620007449190620009bd565b5090565b826005600701600890048101928215620007dd5791602002820160005b83821115620007a957835183826101000a81548163ffffffff021916908361ffff160217905550926020019260040160208160030104928301926001030262000765565b8015620007db5782816101000a81549063ffffffff0219169055600401602081600301049283019260010302620007a9565b505b509050620007ec9190620009bd565b5090565b826008810192821562000827579160200282015b8281111562000826578251829060ff1690559160200191906001019062000804565b5b509050620008369190620009bd565b5090565b826008810192821562000872579160200282015b8281111562000871578251829061ffff169055916020019190600101906200084e565b5b509050620008819190620009bd565b5090565b8260088101928215620008c2579160200282015b82811115620008c1578251829066ffffffffffffff1690559160200191906001019062000899565b5b509050620008d19190620009bd565b5090565b828054620008e390620009dc565b90600052602060002090601f01602090048101928262000907576000855562000953565b82601f106200092257805160ff191683800117855562000953565b8280016001018555821562000953579182015b828111156200095257825182559160200191906001019062000935565b5b509050620009629190620009bd565b5090565b828054828255906000526020600020908101928215620009aa579160200282015b82811115620009a9578251829060ff1690559160200191906001019062000987565b5b509050620009b99190620009bd565b5090565b5b80821115620009d8576000816000905550600101620009be565b5090565b60006002820490506001821680620009f557607f821691505b6020821081141562000a0c5762000a0b62000a12565b5b50919050565b7f4e487b7100000000000000000000000000000000000000000000000000000000600052602260045260246000fd5b6140e68062000a516000396000f3fe6080604052600436106101d15760003560e01c80636352211e116100f757806395d89b4111610095578063c87b56dd11610064578063c87b56dd14610704578063c9432c0514610741578063e985e9c51461076a578063feadbaea146107a757610211565b806395d89b411461065e578063a22cb46514610689578063b88d4fde146106b2578063c6ff1912146106db57610211565b806376be98d9116100d157806376be98d91461059d57806389b8f7d1146105da5780638da5cb5b1461061757806393bd11f21461064257610211565b80636352211e146104f857806370a0823114610535578063714c53981461057257610211565b80631f2b28291161016f57806342842e0e1161013e57806342842e0e1461044057806342966c6814610469578063486fc6d31461049257806355f804b3146104cf57610211565b80631f2b28291461038657806323b872dd146103c3578063329a27e7146103ec5780633c19a5b61461041757610211565b8063081812fc116101ab578063081812fc146102b8578063095ea7b3146102f55780630dd250e11461031e57806310a5a3d91461034957610211565b8063014de7381461021357806301ffc9a71461025057806306fdde031461028d57610211565b36610211577f52a6cdf67c40ce333b3d846e4e143db87f71dd7935612a4cafcf6ba76047ca1f333460405161020792919061342a565b60405180910390a1005b005b34801561021f57600080fd5b5061023a60048036038101906102359190612f35565b6107d0565b60405161024791906136b0565b60405180910390f35b34801561025c57600080fd5b5061027760048036038101906102729190612d99565b610879565b6040516102849190613453565b60405180910390f35b34801561029957600080fd5b506102a261095b565b6040516102af919061346e565b60405180910390f35b3480156102c457600080fd5b506102df60048036038101906102da9190612ea7565b6109ed565b6040516102ec919061337f565b60405180910390f35b34801561030157600080fd5b5061031c60048036038101906103179190612c85565b610a72565b005b34801561032a57600080fd5b50610333610b8a565b60405161034091906136f4565b60405180910390f35b34801561035557600080fd5b50610370600480360381019061036b9190612b07565b610b9d565b60405161037d9190613453565b60405180910390f35b34801561039257600080fd5b506103ad60048036038101906103a89190612f35565b610ccc565b6040516103ba9190613453565b60405180910390f35b3480156103cf57600080fd5b506103ea60048036038101906103e59190612b7f565b610da4565b005b3480156103f857600080fd5b50610401610e04565b60405161040e91906136b0565b60405180910390f35b34801561042357600080fd5b5061043e60048036038101906104399190612d10565b610e9e565b005b34801561044c57600080fd5b5061046760048036038101906104629190612b7f565b610ea6565b005b34801561047557600080fd5b50610490600480360381019061048b9190612ea7565b610ec6565b005b34801561049e57600080fd5b506104b960048036038101906104b49190612f35565b610ed2565b6040516104c691906136b0565b60405180910390f35b3480156104db57600080fd5b506104f660048036038101906104f19190612deb565b610f26565b005b34801561050457600080fd5b5061051f600480360381019061051a9190612ea7565b610fd2565b60405161052c919061337f565b60405180910390f35b34801561054157600080fd5b5061055c60048036038101906105579190612ade565b611084565b60405161056991906136b0565b60405180910390f35b34801561057e57600080fd5b5061058761113c565b604051610594919061346e565b60405180910390f35b3480156105a957600080fd5b506105c460048036038101906105bf9190612ea7565b611260565b6040516105d191906136f4565b60405180910390f35b3480156105e657600080fd5b5061060160048036038101906105fc9190612ea7565b611280565b60405161060e9190613453565b60405180910390f35b34801561062357600080fd5b5061062c6112a0565b604051610639919061339a565b60405180910390f35b61065c60048036038101906106579190612e2c565b6112c6565b005b34801561066a57600080fd5b50610673611580565b604051610680919061346e565b60405180910390f35b34801561069557600080fd5b506106b060048036038101906106ab9190612c49565b611612565b005b3480156106be57600080fd5b506106d960048036038101906106d49190612bce565b611628565b005b3480156106e757600080fd5b5061070260048036038101906106fd9190612ef9565b61168a565b005b34801561071057600080fd5b5061072b60048036038101906107269190612ea7565b61176f565b604051610738919061346e565b60405180910390f35b34801561074d57600080fd5b5061076860048036038101906107639190612ef9565b611817565b005b34801561077657600080fd5b50610791600480360381019061078c9190612b43565b6118fc565b60405161079e9190613453565b60405180910390f35b3480156107b357600080fd5b506107ce60048036038101906107c99190612cc1565b611990565b005b6000601f6001836107e19190613903565b60ff166008811061081b577f4e487b7100000000000000000000000000000000000000000000000000000000600052603260045260246000fd5b0154601760018461082c9190613903565b60ff1660088110610866577f4e487b7100000000000000000000000000000000000000000000000000000000600052603260045260246000fd5b015461087291906138cf565b9050919050565b60007f80ac58cd000000000000000000000000000000000000000000000000000000007bffffffffffffffffffffffffffffffffffffffffffffffffffffffff1916827bffffffffffffffffffffffffffffffffffffffffffffffffffffffff1916148061094457507f5b5e139f000000000000000000000000000000000000000000000000000000007bffffffffffffffffffffffffffffffffffffffffffffffffffffffff1916827bffffffffffffffffffffffffffffffffffffffffffffffffffffffff1916145b80610954575061095382611995565b5b9050919050565b60606000805461096a90613a1e565b80601f016020809104026020016040519081016040528092919081815260200182805461099690613a1e565b80156109e35780601f106109b8576101008083540402835291602001916109e3565b820191906000526020600020905b8154815290600101906020018083116109c657829003601f168201915b5050505050905090565b60006109f8826119ff565b610a37576040517f08c379a0000000000000000000000000000000000000000000000000000000008152600401610a2e906135f0565b60405180910390fd5b6004600083815260200190815260200160002060009054906101000a900473ffffffffffffffffffffffffffffffffffffffff169050919050565b6000610a7d82610fd2565b90508073ffffffffffffffffffffffffffffffffffffffff168373ffffffffffffffffffffffffffffffffffffffff161415610aee576040517f08c379a0000000000000000000000000000000000000000000000000000000008152600401610ae590613630565b60405180910390fd5b8073ffffffffffffffffffffffffffffffffffffffff16610b0d611a6b565b73ffffffffffffffffffffffffffffffffffffffff161480610b3c5750610b3b81610b36611a6b565b6118fc565b5b610b7b576040517f08c379a0000000000000000000000000000000000000000000000000000000008152600401610b7290613570565b60405180910390fd5b610b858383611a73565b505050565b600c60009054906101000a900460ff1681565b600033600660009054906101000a900473ffffffffffffffffffffffffffffffffffffffff1673ffffffffffffffffffffffffffffffffffffffff168173ffffffffffffffffffffffffffffffffffffffff1614610c30576040517f08c379a0000000000000000000000000000000000000000000000000000000008152600401610c2790613690565b60405180910390fd5b610c38610e04565b831115610c7a576040517f08c379a0000000000000000000000000000000000000000000000000000000008152600401610c7190613650565b60405180910390fd5b8373ffffffffffffffffffffffffffffffffffffffff166108fc849081150290604051600060405180830381858888f19350505050158015610cc0573d6000803e3d6000fd5b50600191505092915050565b600080600090505b60386000600c60009054906101000a900460ff1660ff1660ff16815260200190815260200160002080549050811015610d995760386000600c60009054906101000a900460ff1660ff1660ff1681526020019081526020016000208181548110610d67577f4e487b7100000000000000000000000000000000000000000000000000000000600052603260045260246000fd5b90600052602060002001548360ff161415610d86576001915050610d9f565b8080610d9190613a81565b915050610cd4565b50600090505b919050565b610db5610daf611a6b565b82611b2c565b610df4576040517f08c379a0000000000000000000000000000000000000000000000000000000008152600401610deb90613670565b60405180910390fd5b610dff838383611c0a565b505050565b600033600660009054906101000a900473ffffffffffffffffffffffffffffffffffffffff1673ffffffffffffffffffffffffffffffffffffffff168173ffffffffffffffffffffffffffffffffffffffff1614610e97576040517f08c379a0000000000000000000000000000000000000000000000000000000008152600401610e8e90613690565b60405180910390fd5b4791505090565b505050505050565b610ec183838360405180602001604052806000815250611628565b505050565b610ecf81611e71565b50565b6000602f600183610ee39190613903565b60ff1660088110610f1d577f4e487b7100000000000000000000000000000000000000000000000000000000600052603260045260246000fd5b01549050919050565b33600660009054906101000a900473ffffffffffffffffffffffffffffffffffffffff1673ffffffffffffffffffffffffffffffffffffffff168173ffffffffffffffffffffffffffffffffffffffff1614610fb7576040517f08c379a0000000000000000000000000000000000000000000000000000000008152600401610fae90613690565b60405180910390fd5b81600b9080519060200190610fcd9291906128c3565b505050565b6000806002600084815260200190815260200160002060009054906101000a900473ffffffffffffffffffffffffffffffffffffffff169050600073ffffffffffffffffffffffffffffffffffffffff168173ffffffffffffffffffffffffffffffffffffffff16141561107b576040517f08c379a0000000000000000000000000000000000000000000000000000000008152600401611072906135b0565b60405180910390fd5b80915050919050565b60008073ffffffffffffffffffffffffffffffffffffffff168273ffffffffffffffffffffffffffffffffffffffff1614156110f5576040517f08c379a00000000000000000000000000000000000000000000000000000000081526004016110ec90613590565b60405180910390fd5b600360008373ffffffffffffffffffffffffffffffffffffffff1673ffffffffffffffffffffffffffffffffffffffff168152602001908152602001600020549050919050565b606033600660009054906101000a900473ffffffffffffffffffffffffffffffffffffffff1673ffffffffffffffffffffffffffffffffffffffff168173ffffffffffffffffffffffffffffffffffffffff16146111cf576040517f08c379a00000000000000000000000000000000000000000000000000000000081526004016111c690613690565b60405180910390fd5b600b80546111dc90613a1e565b80601f016020809104026020016040519081016040528092919081815260200182805461120890613a1e565b80156112555780601f1061122a57610100808354040283529160200191611255565b820191906000526020600020905b81548152906001019060200180831161123857829003601f168201915b505050505091505090565b603f6020528060005260406000206000915054906101000a900460ff1681565b603e6020528060005260406000206000915054906101000a900460ff1681565b600660009054906101000a900473ffffffffffffffffffffffffffffffffffffffff1681565b80600115156112d482610ccc565b151514611316576040517f08c379a000000000000000000000000000000000000000000000000000000000815260040161130d906134f0565b60405180910390fd5b8183611321826107d0565b81111561132d57600080fd5b600061133885610ed2565b9050600660009054906101000a900473ffffffffffffffffffffffffffffffffffffffff1673ffffffffffffffffffffffffffffffffffffffff163373ffffffffffffffffffffffffffffffffffffffff16146113dd57858161139b9190613875565b34146113dc576040517f08c379a00000000000000000000000000000000000000000000000000000000081526004016113d390613650565b60405180910390fd5b5b60006113e888611f8e565b90506000603754905060005b8881101561156c57818061140790613a81565b9250506114148a8361205f565b61141c612239565b603f600084815260200190815260200160002060006101000a81548160ff021916908360ff16021790555061145181846122b4565b603e600084815260200190815260200160002060006101000a81548160ff0219169083151502179055506001601f60018a61148c9190613903565b60ff16600881106114c6577f4e487b7100000000000000000000000000000000000000000000000000000000600052603260045260246000fd5b01546114d291906137ee565b601f60018a6114e19190613903565b60ff166008811061151b577f4e487b7100000000000000000000000000000000000000000000000000000000600052603260045260246000fd5b01819055507fdd3ee52e93d2f67c75859dd03ba44fbae095a9deba7e791d4a8e331f114bce38828b6040516115519291906136cb565b60405180910390a1808061156490613a81565b9150506113f4565b508060378190555050505050505050505050565b60606001805461158f90613a1e565b80601f01602080910402602001604051908101604052809291908181526020018280546115bb90613a1e565b80156116085780601f106115dd57610100808354040283529160200191611608565b820191906000526020600020905b8154815290600101906020018083116115eb57829003601f168201915b5050505050905090565b61162461161d611a6b565b8383612389565b5050565b611639611633611a6b565b83611b2c565b611678576040517f08c379a000000000000000000000000000000000000000000000000000000000815260040161166f90613670565b60405180910390fd5b611684848484846124f6565b50505050565b33600660009054906101000a900473ffffffffffffffffffffffffffffffffffffffff1673ffffffffffffffffffffffffffffffffffffffff168173ffffffffffffffffffffffffffffffffffffffff161461171b576040517f08c379a000000000000000000000000000000000000000000000000000000000815260040161171290613690565b60405180910390fd5b82601760018461172b9190613903565b60ff1660088110611765577f4e487b7100000000000000000000000000000000000000000000000000000000600052603260045260246000fd5b0181905550505050565b606061177a826119ff565b6117b9576040517f08c379a00000000000000000000000000000000000000000000000000000000081526004016117b090613610565b60405180910390fd5b6000600b80546117c890613a1e565b9050116117e45760405180602001604052806000815250611810565b600b6117ef83612552565b604051602001611800929190613350565b6040516020818303038152906040525b9050919050565b33600660009054906101000a900473ffffffffffffffffffffffffffffffffffffffff1673ffffffffffffffffffffffffffffffffffffffff168173ffffffffffffffffffffffffffffffffffffffff16146118a8576040517f08c379a000000000000000000000000000000000000000000000000000000000815260040161189f90613690565b60405180910390fd5b82602f6001846118b89190613903565b60ff16600881106118f2577f4e487b7100000000000000000000000000000000000000000000000000000000600052603260045260246000fd5b0181905550505050565b6000600560008473ffffffffffffffffffffffffffffffffffffffff1673ffffffffffffffffffffffffffffffffffffffff16815260200190815260200160002060008373ffffffffffffffffffffffffffffffffffffffff1673ffffffffffffffffffffffffffffffffffffffff16815260200190815260200160002060009054906101000a900460ff16905092915050565b505050565b60007f01ffc9a7000000000000000000000000000000000000000000000000000000007bffffffffffffffffffffffffffffffffffffffffffffffffffffffff1916827bffffffffffffffffffffffffffffffffffffffffffffffffffffffff1916149050919050565b60008073ffffffffffffffffffffffffffffffffffffffff166002600084815260200190815260200160002060009054906101000a900473ffffffffffffffffffffffffffffffffffffffff1673ffffffffffffffffffffffffffffffffffffffff1614159050919050565b600033905090565b816004600083815260200190815260200160002060006101000a81548173ffffffffffffffffffffffffffffffffffffffff021916908373ffffffffffffffffffffffffffffffffffffffff160217905550808273ffffffffffffffffffffffffffffffffffffffff16611ae683610fd2565b73ffffffffffffffffffffffffffffffffffffffff167f8c5be1e5ebec7d5bd14f71427d1e84f3dd0314c0f7b2291e5b200ac8c7c3b92560405160405180910390a45050565b6000611b37826119ff565b611b76576040517f08c379a0000000000000000000000000000000000000000000000000000000008152600401611b6d90613550565b60405180910390fd5b6000611b8183610fd2565b90508073ffffffffffffffffffffffffffffffffffffffff168473ffffffffffffffffffffffffffffffffffffffff161480611bf057508373ffffffffffffffffffffffffffffffffffffffff16611bd8846109ed565b73ffffffffffffffffffffffffffffffffffffffff16145b80611c015750611c0081856118fc565b5b91505092915050565b8273ffffffffffffffffffffffffffffffffffffffff16611c2a82610fd2565b73ffffffffffffffffffffffffffffffffffffffff1614611c80576040517f08c379a0000000000000000000000000000000000000000000000000000000008152600401611c77906134b0565b60405180910390fd5b600073ffffffffffffffffffffffffffffffffffffffff168273ffffffffffffffffffffffffffffffffffffffff161415611cf0576040517f08c379a0000000000000000000000000000000000000000000000000000000008152600401611ce790613510565b60405180910390fd5b611cfb8383836126ff565b611d06600082611a73565b6001600360008573ffffffffffffffffffffffffffffffffffffffff1673ffffffffffffffffffffffffffffffffffffffff1681526020019081526020016000206000828254611d5691906138cf565b925050819055506001600360008473ffffffffffffffffffffffffffffffffffffffff1673ffffffffffffffffffffffffffffffffffffffff1681526020019081526020016000206000828254611dad91906137ee565b92505081905550816002600083815260200190815260200160002060006101000a81548173ffffffffffffffffffffffffffffffffffffffff021916908373ffffffffffffffffffffffffffffffffffffffff160217905550808273ffffffffffffffffffffffffffffffffffffffff168473ffffffffffffffffffffffffffffffffffffffff167fddf252ad1be2c89b69c2b068fc378daa952ba7f163c4a11628f55a4df523b3ef60405160405180910390a4611e6c838383612704565b505050565b6000611e7c82610fd2565b9050611e8a816000846126ff565b611e95600083611a73565b6001600360008373ffffffffffffffffffffffffffffffffffffffff1673ffffffffffffffffffffffffffffffffffffffff1681526020019081526020016000206000828254611ee591906138cf565b925050819055506002600083815260200190815260200160002060006101000a81549073ffffffffffffffffffffffffffffffffffffffff021916905581600073ffffffffffffffffffffffffffffffffffffffff168273ffffffffffffffffffffffffffffffffffffffff167fddf252ad1be2c89b69c2b068fc378daa952ba7f163c4a11628f55a4df523b3ef60405160405180910390a4611f8a81600084612704565b5050565b600080600860009054906101000a900473ffffffffffffffffffffffffffffffffffffffff1673ffffffffffffffffffffffffffffffffffffffff16630cb98b718460026040518363ffffffff1660e01b8152600401611fef929190613401565b60206040518083038186803b15801561200757600080fd5b505afa15801561201b573d6000803e3d6000fd5b505050506040513d601f19601f8201168201806040525081019061203f9190612ed0565b9050600081141561205457600091505061205a565b60019150505b919050565b600073ffffffffffffffffffffffffffffffffffffffff168273ffffffffffffffffffffffffffffffffffffffff1614156120cf576040517f08c379a00000000000000000000000000000000000000000000000000000000081526004016120c6906135d0565b60405180910390fd5b6120d8816119ff565b15612118576040517f08c379a000000000000000000000000000000000000000000000000000000000815260040161210f906134d0565b60405180910390fd5b612124600083836126ff565b6001600360008473ffffffffffffffffffffffffffffffffffffffff1673ffffffffffffffffffffffffffffffffffffffff168152602001908152602001600020600082825461217491906137ee565b92505081905550816002600083815260200190815260200160002060006101000a81548173ffffffffffffffffffffffffffffffffffffffff021916908373ffffffffffffffffffffffffffffffffffffffff160217905550808273ffffffffffffffffffffffffffffffffffffffff16600073ffffffffffffffffffffffffffffffffffffffff167fddf252ad1be2c89b69c2b068fc378daa952ba7f163c4a11628f55a4df523b3ef60405160405180910390a461223560008383612704565b5050565b6000806040518060800160405280600160ff168152602001600260ff168152602001600360ff168152602001600460ff168152509050806000600481106122a9577f4e487b7100000000000000000000000000000000000000000000000000000000600052603260045260246000fd5b602002015191505090565b6000811561231d576000600d84600581106122f8577f4e487b7100000000000000000000000000000000000000000000000000000000600052603260045260246000fd5b602091828204019190069054906101000a900460ff1660ff1690506001915050612383565b6000600e8460058110612359577f4e487b7100000000000000000000000000000000000000000000000000000000600052603260045260246000fd5b600891828204019190066004029054906101000a900463ffffffff1663ffffffff16905060009150505b92915050565b8173ffffffffffffffffffffffffffffffffffffffff168373ffffffffffffffffffffffffffffffffffffffff1614156123f8576040517f08c379a00000000000000000000000000000000000000000000000000000000081526004016123ef90613530565b60405180910390fd5b80600560008573ffffffffffffffffffffffffffffffffffffffff1673ffffffffffffffffffffffffffffffffffffffff16815260200190815260200160002060008473ffffffffffffffffffffffffffffffffffffffff1673ffffffffffffffffffffffffffffffffffffffff16815260200190815260200160002060006101000a81548160ff0219169083151502179055508173ffffffffffffffffffffffffffffffffffffffff168373ffffffffffffffffffffffffffffffffffffffff167f17307eab39ab6107e8899845ad3d59bd9653f200f220920489ca2b5937696c31836040516124e99190613453565b60405180910390a3505050565b612501848484611c0a565b61250d84848484612709565b61254c576040517f08c379a000000000000000000000000000000000000000000000000000000000815260040161254390613490565b60405180910390fd5b50505050565b6060600082141561259a576040518060400160405280600181526020017f300000000000000000000000000000000000000000000000000000000000000081525090506126fa565b600082905060005b600082146125cc5780806125b590613a81565b915050600a826125c59190613844565b91506125a2565b60008167ffffffffffffffff81111561260e577f4e487b7100000000000000000000000000000000000000000000000000000000600052604160045260246000fd5b6040519080825280601f01601f1916602001820160405280156126405781602001600182028036833780820191505090505b5090505b600085146126f35760018261265991906138cf565b9150600a856126689190613aca565b603061267491906137ee565b60f81b8183815181106126b0577f4e487b7100000000000000000000000000000000000000000000000000000000600052603260045260246000fd5b60200101907effffffffffffffffffffffffffffffffffffffffffffffffffffffffffffff1916908160001a905350600a856126ec9190613844565b9450612644565b8093505050505b919050565b505050565b505050565b600061272a8473ffffffffffffffffffffffffffffffffffffffff166128a0565b15612893578373ffffffffffffffffffffffffffffffffffffffff1663150b7a02612753611a6b565b8786866040518563ffffffff1660e01b815260040161277594939291906133b5565b602060405180830381600087803b15801561278f57600080fd5b505af19250505080156127c057506040513d601f19601f820116820180604052508101906127bd9190612dc2565b60015b612843573d80600081146127f0576040519150601f19603f3d011682016040523d82523d6000602084013e6127f5565b606091505b5060008151141561283b576040517f08c379a000000000000000000000000000000000000000000000000000000000815260040161283290613490565b60405180910390fd5b805181602001fd5b63150b7a0260e01b7bffffffffffffffffffffffffffffffffffffffffffffffffffffffff1916817bffffffffffffffffffffffffffffffffffffffffffffffffffffffff191614915050612898565b600190505b949350505050565b6000808273ffffffffffffffffffffffffffffffffffffffff163b119050919050565b8280546128cf90613a1e565b90600052602060002090601f0160209004810192826128f15760008555612938565b82601f1061290a57805160ff1916838001178555612938565b82800160010185558215612938579182015b8281111561293757825182559160200191906001019061291c565b5b5090506129459190612949565b5090565b5b8082111561296257600081600090555060010161294a565b5090565b600061297961297484613734565b61370f565b90508281526020810184848401111561299157600080fd5b61299c8482856139dc565b509392505050565b60006129b76129b284613765565b61370f565b9050828152602081018484840111156129cf57600080fd5b6129da8482856139dc565b509392505050565b6000813590506129f181614026565b92915050565b600081359050612a068161403d565b92915050565b600081359050612a1b81614054565b92915050565b600081359050612a308161406b565b92915050565b600081519050612a458161406b565b92915050565b600082601f830112612a5c57600080fd5b8135612a6c848260208601612966565b91505092915050565b600082601f830112612a8657600080fd5b8135612a968482602086016129a4565b91505092915050565b600081359050612aae81614082565b92915050565b600081519050612ac381614082565b92915050565b600081359050612ad881614099565b92915050565b600060208284031215612af057600080fd5b6000612afe848285016129e2565b91505092915050565b60008060408385031215612b1a57600080fd5b6000612b28858286016129f7565b9250506020612b3985828601612a9f565b9150509250929050565b60008060408385031215612b5657600080fd5b6000612b64858286016129e2565b9250506020612b75858286016129e2565b9150509250929050565b600080600060608486031215612b9457600080fd5b6000612ba2868287016129e2565b9350506020612bb3868287016129e2565b9250506040612bc486828701612a9f565b9150509250925092565b60008060008060808587031215612be457600080fd5b6000612bf2878288016129e2565b9450506020612c03878288016129e2565b9350506040612c1487828801612a9f565b925050606085013567ffffffffffffffff811115612c3157600080fd5b612c3d87828801612a4b565b91505092959194509250565b60008060408385031215612c5c57600080fd5b6000612c6a858286016129e2565b9250506020612c7b85828601612a0c565b9150509250929050565b60008060408385031215612c9857600080fd5b6000612ca6858286016129e2565b9250506020612cb785828601612a9f565b9150509250929050565b600080600060608486031215612cd657600080fd5b6000612ce4868287016129e2565b9350506020612cf586828701612a9f565b9250506040612d0686828701612a9f565b9150509250925092565b60008060008060008060c08789031215612d2957600080fd5b6000612d3789828a016129e2565b9650506020612d4889828a01612a9f565b9550506040612d5989828a01612a9f565b9450506060612d6a89828a01612a9f565b9350506080612d7b89828a01612a9f565b92505060a0612d8c89828a01612a9f565b9150509295509295509295565b600060208284031215612dab57600080fd5b6000612db984828501612a21565b91505092915050565b600060208284031215612dd457600080fd5b6000612de284828501612a36565b91505092915050565b600060208284031215612dfd57600080fd5b600082013567ffffffffffffffff811115612e1757600080fd5b612e2384828501612a75565b91505092915050565b60008060008060808587031215612e4257600080fd5b600085013567ffffffffffffffff811115612e5c57600080fd5b612e6887828801612a75565b9450506020612e79878288016129e2565b9350506040612e8a87828801612a9f565b9250506060612e9b87828801612ac9565b91505092959194509250565b600060208284031215612eb957600080fd5b6000612ec784828501612a9f565b91505092915050565b600060208284031215612ee257600080fd5b6000612ef084828501612ab4565b91505092915050565b60008060408385031215612f0c57600080fd5b6000612f1a85828601612a9f565b9250506020612f2b85828601612ac9565b9150509250929050565b600060208284031215612f4757600080fd5b6000612f5584828501612ac9565b91505092915050565b612f6781613949565b82525050565b612f7681613937565b82525050565b612f858161395b565b82525050565b6000612f96826137ab565b612fa081856137c1565b9350612fb08185602086016139eb565b612fb981613bb7565b840191505092915050565b612fcd816139ca565b82525050565b6000612fde826137b6565b612fe881856137d2565b9350612ff88185602086016139eb565b61300181613bb7565b840191505092915050565b6000613017826137b6565b61302181856137e3565b93506130318185602086016139eb565b80840191505092915050565b6000815461304a81613a1e565b61305481866137e3565b9450600182166000811461306f5760018114613080576130b3565b60ff198316865281860193506130b3565b61308985613796565b60005b838110156130ab5781548189015260018201915060208101905061308c565b838801955050505b50505092915050565b60006130c96032836137d2565b91506130d482613bc8565b604082019050919050565b60006130ec6025836137d2565b91506130f782613c17565b604082019050919050565b600061310f601c836137d2565b915061311a82613c66565b602082019050919050565b60006131326010836137d2565b915061313d82613c8f565b602082019050919050565b60006131556024836137d2565b915061316082613cb8565b604082019050919050565b60006131786019836137d2565b915061318382613d07565b602082019050919050565b600061319b602c836137d2565b91506131a682613d30565b604082019050919050565b60006131be6038836137d2565b91506131c982613d7f565b604082019050919050565b60006131e1602a836137d2565b91506131ec82613dce565b604082019050919050565b60006132046029836137d2565b915061320f82613e1d565b604082019050919050565b60006132276020836137d2565b915061323282613e6c565b602082019050919050565b600061324a602c836137d2565b915061325582613e95565b604082019050919050565b600061326d6012836137d2565b915061327882613ee4565b602082019050919050565b60006132906005836137e3565b915061329b82613f0d565b600582019050919050565b60006132b36021836137d2565b91506132be82613f36565b604082019050919050565b60006132d66013836137d2565b91506132e182613f85565b602082019050919050565b60006132f96031836137d2565b915061330482613fae565b604082019050919050565b600061331c6011836137d2565b915061332782613ffd565b602082019050919050565b61333b816139b3565b82525050565b61334a816139bd565b82525050565b600061335c828561303d565b9150613368828461300c565b915061337382613283565b91508190509392505050565b60006020820190506133946000830184612f6d565b92915050565b60006020820190506133af6000830184612f5e565b92915050565b60006080820190506133ca6000830187612f6d565b6133d76020830186612f6d565b6133e46040830185613332565b81810360608301526133f68184612f8b565b905095945050505050565b60006040820190506134166000830185612f6d565b6134236020830184612fc4565b9392505050565b600060408201905061343f6000830185612f6d565b61344c6020830184613332565b9392505050565b60006020820190506134686000830184612f7c565b92915050565b600060208201905081810360008301526134888184612fd3565b905092915050565b600060208201905081810360008301526134a9816130bc565b9050919050565b600060208201905081810360008301526134c9816130df565b9050919050565b600060208201905081810360008301526134e981613102565b9050919050565b6000602082019050818103600083015261350981613125565b9050919050565b6000602082019050818103600083015261352981613148565b9050919050565b600060208201905081810360008301526135498161316b565b9050919050565b600060208201905081810360008301526135698161318e565b9050919050565b60006020820190508181036000830152613589816131b1565b9050919050565b600060208201905081810360008301526135a9816131d4565b9050919050565b600060208201905081810360008301526135c9816131f7565b9050919050565b600060208201905081810360008301526135e98161321a565b9050919050565b600060208201905081810360008301526136098161323d565b9050919050565b6000602082019050818103600083015261362981613260565b9050919050565b60006020820190508181036000830152613649816132a6565b9050919050565b60006020820190508181036000830152613669816132c9565b9050919050565b60006020820190508181036000830152613689816132ec565b9050919050565b600060208201905081810360008301526136a98161330f565b9050919050565b60006020820190506136c56000830184613332565b92915050565b60006040820190506136e06000830185613332565b6136ed6020830184612f6d565b9392505050565b60006020820190506137096000830184613341565b92915050565b600061371961372a565b90506137258282613a50565b919050565b6000604051905090565b600067ffffffffffffffff82111561374f5761374e613b88565b5b61375882613bb7565b9050602081019050919050565b600067ffffffffffffffff8211156137805761377f613b88565b5b61378982613bb7565b9050602081019050919050565b60008190508160005260206000209050919050565b600081519050919050565b600081519050919050565b600082825260208201905092915050565b600082825260208201905092915050565b600081905092915050565b60006137f9826139b3565b9150613804836139b3565b9250827fffffffffffffffffffffffffffffffffffffffffffffffffffffffffffffffff0382111561383957613838613afb565b5b828201905092915050565b600061384f826139b3565b915061385a836139b3565b92508261386a57613869613b2a565b5b828204905092915050565b6000613880826139b3565b915061388b836139b3565b9250817fffffffffffffffffffffffffffffffffffffffffffffffffffffffffffffffff04831182151516156138c4576138c3613afb565b5b828202905092915050565b60006138da826139b3565b91506138e5836139b3565b9250828210156138f8576138f7613afb565b5b828203905092915050565b600061390e826139bd565b9150613919836139bd565b92508282101561392c5761392b613afb565b5b828203905092915050565b600061394282613993565b9050919050565b600061395482613993565b9050919050565b60008115159050919050565b60007fffffffff0000000000000000000000000000000000000000000000000000000082169050919050565b600073ffffffffffffffffffffffffffffffffffffffff82169050919050565b6000819050919050565b600060ff82169050919050565b60006139d5826139bd565b9050919050565b82818337600083830152505050565b60005b83811015613a095780820151818401526020810190506139ee565b83811115613a18576000848401525b50505050565b60006002820490506001821680613a3657607f821691505b60208210811415613a4a57613a49613b59565b5b50919050565b613a5982613bb7565b810181811067ffffffffffffffff82111715613a7857613a77613b88565b5b80604052505050565b6000613a8c826139b3565b91507fffffffffffffffffffffffffffffffffffffffffffffffffffffffffffffffff821415613abf57613abe613afb565b5b600182019050919050565b6000613ad5826139b3565b9150613ae0836139b3565b925082613af057613aef613b2a565b5b828206905092915050565b7f4e487b7100000000000000000000000000000000000000000000000000000000600052601160045260246000fd5b7f4e487b7100000000000000000000000000000000000000000000000000000000600052601260045260246000fd5b7f4e487b7100000000000000000000000000000000000000000000000000000000600052602260045260246000fd5b7f4e487b7100000000000000000000000000000000000000000000000000000000600052604160045260246000fd5b6000601f19601f8301169050919050565b7f4552433732313a207472616e7366657220746f206e6f6e20455243373231526560008201527f63656976657220696d706c656d656e7465720000000000000000000000000000602082015250565b7f4552433732313a207472616e736665722066726f6d20696e636f72726563742060008201527f6f776e6572000000000000000000000000000000000000000000000000000000602082015250565b7f4552433732313a20746f6b656e20616c7265616479206d696e74656400000000600082015250565b7f4e6f74204d696e7461626c652044657800000000000000000000000000000000600082015250565b7f4552433732313a207472616e7366657220746f20746865207a65726f2061646460008201527f7265737300000000000000000000000000000000000000000000000000000000602082015250565b7f4552433732313a20617070726f766520746f2063616c6c657200000000000000600082015250565b7f4552433732313a206f70657261746f7220717565727920666f72206e6f6e657860008201527f697374656e7420746f6b656e0000000000000000000000000000000000000000602082015250565b7f4552433732313a20617070726f76652063616c6c6572206973206e6f74206f7760008201527f6e6572206e6f7220617070726f76656420666f7220616c6c0000000000000000602082015250565b7f4552433732313a2062616c616e636520717565727920666f7220746865207a6560008201527f726f206164647265737300000000000000000000000000000000000000000000602082015250565b7f4552433732313a206f776e657220717565727920666f72206e6f6e657869737460008201527f656e7420746f6b656e0000000000000000000000000000000000000000000000602082015250565b7f4552433732313a206d696e7420746f20746865207a65726f2061646472657373600082015250565b7f4552433732313a20617070726f76656420717565727920666f72206e6f6e657860008201527f697374656e7420746f6b656e0000000000000000000000000000000000000000602082015250565b7f4e6f6e6578697374656e7420746f6b656e210000000000000000000000000000600082015250565b7f2e6a736f6e000000000000000000000000000000000000000000000000000000600082015250565b7f4552433732313a20617070726f76616c20746f2063757272656e74206f776e6560008201527f7200000000000000000000000000000000000000000000000000000000000000602082015250565b7f4e6f7420456e6f7567682042616c616e63652100000000000000000000000000600082015250565b7f4552433732313a207472616e736665722063616c6c6572206973206e6f74206f60008201527f776e6572206e6f7220617070726f766564000000000000000000000000000000602082015250565b7f4e6f742061206f776e65722063616c6c21000000000000000000000000000000600082015250565b61402f81613937565b811461403a57600080fd5b50565b61404681613949565b811461405157600080fd5b50565b61405d8161395b565b811461406857600080fd5b50565b61407481613967565b811461407f57600080fd5b50565b61408b816139b3565b811461409657600080fd5b50565b6140a2816139bd565b81146140ad57600080fd5b5056fea2646970667358221220b25b70fc98552486efd4213332d4f0c94b9465d6ec258fda488b722801dc095264736f6c63430008020033",
  "immutableReferences": {},
  "source": "// SPDX-License-Identifier: MIT\npragma solidity ^0.8.2;\nimport \"@openzeppelin/contracts/token/ERC721/ERC721.sol\";\n\n\ninterface ItemContract {\n    function getFloorPrice(uint8 _itemType) external view returns (uint256);\n    function specificItemOwnership(address _owner, uint8 _itemType) external view returns (uint256);\n    function burn(address _burner, uint256 _tokenId) external view;\n}\n\n\n// Pick during the meeting 1/10000\n// Shiny logic (every mint reset, if you have lucky totem higher chance, if you mintQuantity 10, it increments the probability of minting shiny on each loop of mint\n\n// Before the personalities in 1/10 chance call the chainlink contract \n// Batch actions\n\n\n\ncontract Metamon is ERC721 {\n    using Strings for uint256;\n\n    address payable public owner;\n    address _itemContractAddress = 0x1E6059Ec57aE39D2C73E5C3821a26FAFfD68E016; // TODO: we will hardcode it for now\n    \n    ItemContract _item = ItemContract(_itemContractAddress);  // TODO: move this declaration outside of this function\n\n\n    string private itemBaseURI;\n    string private metamonBaseURI;\n    string private baseURI;\n\n    event ReceivedEth(address _reciever, uint256 _value);\n    event MetamonMint(uint256 _tokenId, address _reciever);\n    event MetamonBurn(uint256 _tokenId, uint8 _dexId, address _burner);\n\n    uint8 public currentMintPhase = 1;\n    uint8[5] private withLuckyTotem = [99, 98, 97, 96, 95];  // TODO: total count of 100 probabilities \n    uint32[5] private withoutLuckyTotem = [296, 292, 288, 284, 280];  // TODO: total number of 100 probabilities\n    uint256[8] private metamonDex = [1, 2, 3, 4, 7, 10, 11, 13]; // REPR: METAMONT DEX NUMBERS\n    uint256[8] private metamonSupply = [1000, 0, 0, 2000, 1000, 3000, 4000, 1000]; // REPR: STARTS FROM TOKEN IDS\n    uint256[8] private metamonMinted = [0, 0, 0, 0, 0, 0, 0, 0]; // REPR: STARTS FROM TOKEN IDS\n    uint256[8] private metamonMintable = [1, 0, 0, 1, 0, 0, 0, 1]; // REPR: DIRECTLY MINTABLE METAMON DEXIDS\n    uint256[8] private metamonFloor = [.05 ether, 0 ether, 0 ether, .025 ether, 0.035 ether, 0.045 ether, 0.055 ether, 0.065 ether];\n\n    uint256 private _tokenIds;\n\n    mapping(uint8 => uint256[]) private metamonMintPhases; // REPR: Metamon mint phases by DAX numbers;\n    mapping(uint256 => uint256) private familyMetamon; // REPR: Metamon evalution trees \n\n    mapping(uint256 => uint256) private itemEvaluation; // REPR: Which item needed for which metamon evalution\n    mapping(uint256 => uint256) private burnEvaluation; // REPR: How many metamon balance needed for evalution for next metamon dex\n\n    mapping(address => uint256) private _collectedItems; // MINTING FIRST CHECK IF ADDRESS COLLEDTED ANY ITEMS BEFORE\n    mapping(address => uint256) private _collectedDex; // TOTAL COLLECTED DAX ITEMS IMPORTANT TO IDENTIFY SHINY LOGIC\n\n    mapping(uint256 => bool) public metamonInfoShiny; // REPR: Holds the info about If the minted metamon was shiny or not\n    mapping(uint256 => uint8) public metamonInfoPersonality; // REPR: Holds the info about the personality of the metamon\n\n    constructor() payable ERC721(\"Metamon NFT\", \"NFT\") {\n        owner = payable(msg.sender);\n        // FILLING INFORMATION OF METAMAN AND EVALUATION\n        burnEvaluation[1] = 2;\n        burnEvaluation[2] = 3;\n        itemEvaluation[1] = 1;\n        itemEvaluation[2] = 1;\n        familyMetamon[1] = 2;\n        familyMetamon[2] = 3;\n        // ****************\n        burnEvaluation[4] = 2;\n        burnEvaluation[5] = 3;\n        itemEvaluation[4] = 2;\n        itemEvaluation[5] = 2;\n        familyMetamon[4] = 5;\n        familyMetamon[5] = 6;\n        // ****************\n        metamonMintPhases[1] = [1, 4, 7, 20, 86, 133];\n        // ****************\n        burnEvaluation[129] = 5; // i.e. 5 #DEX129 has to burned for #DEX139\n    }\n\n    modifier onlyOwner(address sender) {\n        require(sender == owner, \"Not a owner call!\");\n        _;\n    }\n\n    ///////////////////////////////////////////////////////////////////////////\n    // State Changes\n    ///////////////////////////////////////////////////////////////////////////\n    function changeFloorPrice(\n        uint256 _new_price,\n        uint8 _dexId\n    )\n        external\n        onlyOwner(msg.sender)\n    {\n        metamonFloor[_dexId - 1] = _new_price;\n    }\n\n    function changeSupplyDexId(\n        uint256 _new_supply,\n        uint8 _dexId\n    )\n        external\n        onlyOwner(msg.sender)\n    {\n        metamonSupply[_dexId - 1] = _new_supply;\n    }\n\n    ///////////////////////////////////////////////////////////////////////////\n    // State Info\n    ///////////////////////////////////////////////////////////////////////////\n    function getFloorPrice(uint8 _dexId)\n        public\n        view\n        returns (uint256)\n    {\n        return metamonFloor[_dexId - 1];\n    }\n \n    function getWalletBalance()\n        public\n        view\n        onlyOwner(msg.sender)\n        returns (uint256)\n    {\n        return address(this).balance;\n    }\n\n    function getSupplyDex(uint8 _dexId)\n        public\n        view \n        returns (uint256)\n    {\n        return metamonSupply[_dexId - 1] - metamonMinted[_dexId - 1];\n    }\n    \n    ///////////////////////////////////////////////////////////////////////////\n    // Contract ETH Deals\n    ///////////////////////////////////////////////////////////////////////////\n    fallback() external payable {}\n\n    receive() external payable {\n        emit ReceivedEth(msg.sender, msg.value);\n    }\n\n    function transferContractBalance(\n        address payable _recipient,\n        uint256 _amount\n    ) external onlyOwner(msg.sender) returns (bool) {\n        require(_amount <= getWalletBalance(), \"Not Enough Balance!\");\n        _recipient.transfer(_amount);\n        return true;\n    }\n\n    ///////////////////////////////////////////////////////////////////////////\n    // Meta Data Related\n    ///////////////////////////////////////////////////////////////////////////\n    function setBaseURI(string memory _baseURILink)\n        external\n        onlyOwner(msg.sender)\n    {\n        baseURI = _baseURILink;\n    }\n\n    function getBaseURI()\n        external\n        view\n        onlyOwner(msg.sender)\n        returns (string memory)\n    {\n        return baseURI;\n    }\n\n    function _baseURI() internal view virtual override returns (string memory) {\n        // We will have different baseURIs for Item and Metamon \n        // TODO: move items into different collection\n        return baseURI;\n    }\n\n    function tokenURI(uint256 tokenId)\n        public\n        view\n        virtual\n        override\n        returns (string memory)\n    {\n        require(_exists(tokenId), \"Nonexistent token!\");\n        // We can retrieve the information about token id \n        // -> is it Item or Metamon\n        // -> what is the dax number\n        // -> based on the information that we retrieve we will return base_uri\n        // TODO: move items into different collection\n\n        return\n            bytes(baseURI).length > 0\n                ? string(abi.encodePacked(baseURI, tokenId.toString(), \".json\"))\n                : \"\";\n    }\n\n    ///////////////////////////////////////////////////////////////////////////\n    // Mint / Randomness Mockup TODO: remove this section when Coinbase Implementation\n    ///////////////////////////////////////////////////////////////////////////\n    function _mockupRandomPersonality() internal pure returns(uint8) {\n        uint8[4] memory personality = [1, 2, 3, 4];\n        return personality[0];\n    }\n\n    function _mockupRandomShiny(uint256 _quantity, bool lucky) internal view returns(bool) {\n        // TODO: randomness comes from the loop\n        if (lucky){\n            uint256 probability = withLuckyTotem[_quantity];\n            // TODO: there should be some randomness based on the probability\n            return true;\n        } else {\n            uint256 probability = withoutLuckyTotem[_quantity];\n            // TODO: there should be some randomness based on the probability\n            return false;\n        }\n        \n    }\n\n    function _checkLuckyOwnership(address _recipient) internal view returns (bool){\n        // TODO: lucky item hardcoded as \"2\" for this \n        uint256 total_ownership = _item.specificItemOwnership(_recipient, 2); // Checks whether Lucky Totem has been owned/or not\n        if (total_ownership == 0){\n            return false;\n        } else {\n            return true;\n        }\n    }\n\n    ///////////////////////////////////////////////////////////////////////////\n    // Mint / Burn Phases\n    ///////////////////////////////////////////////////////////////////////////\n    function burn(uint256 _value) public {\n        _burn(_value);\n    }\n\n    function mintableDex(uint8 _dexId) public view returns(bool){\n        // Helper functions checks if Dex Id can be mintable for current mint phase\n        for (uint i=0; i < metamonMintPhases[currentMintPhase].length; i ++){\n            if (_dexId == metamonMintPhases[currentMintPhase][i]){\n                return true;\n            }\n        }\n        return false;\n    }\n\n    modifier mintableDexPhase(uint8 _dexId) {\n        require(mintableDex(_dexId) == true, 'Not Mintable Dex');\n        _;\n    }\n\n    modifier mintableSupply(uint8 _dexId, uint256 _quantity){\n        require(_quantity <= getSupplyDex(_dexId));\n        _;\n    }\n\n    function mintSale(\n            string memory _passCode,\n            address _recipient, \n            uint256 _quantity,\n            uint8 _dexId // TODO: talk to Nick about the randomness of the dexID\n        ) public payable mintableDexPhase(_dexId) mintableSupply(_dexId, _quantity) {\n        // TODO: after minting make sure to push token information into mapping\n        uint256 floorPrice = getFloorPrice(_dexId);\n        if (msg.sender != owner) {\n            require(msg.value == floorPrice * _quantity, \"Not Enough Balance!\");\n        }\n        \n        bool lucky = _checkLuckyOwnership(_recipient);\n        uint256 j = _tokenIds;\n        for (uint256 i = 0; i < _quantity; i++) {\n            j++;\n            _mint(_recipient, j);\n            metamonInfoPersonality[j] = _mockupRandomPersonality();\n            metamonInfoShiny[j]= _mockupRandomShiny(i, lucky);\n            metamonMinted[_dexId - 1] = metamonMinted[_dexId - 1] + 1;\n            emit MetamonMint(j, _recipient);\n        }\n        _tokenIds = j;\n    }\n\n    function evalutionItemBurn(\n        address _recipient,\n        uint256 _sendTokenId,\n        uint256 _sendDexId\n    ) public {\n        // TODO: burn metamon and item together\n\n\n    }\n\n    function evalutionMetaBurn(\n        address _recipient, \n        uint256 _sendTokenId, \n        uint256 _sendDexId, \n        uint256 _quantitySend,  \n        uint256 _targetDax, \n        uint256 _itemTokenId\n        ) public {\n        // TODO: only burn metamon\n        // check whether owner has item token\n        \n        // burn(_send, TokenId);\n        // uint256 _evaluationToken = burnEvaluation[_sendDaxId];\n        // uint256 _tokenIds = _tokenIds + 1;\n        // _mint(_recipient, _tokenIds);\n    }\n}",
  "sourcePath": "/Users/aipek/Documents/metamon_contracts/contracts/Metamon.sol",
  "compiler": {
    "name": "solc",
    "version": "0.8.2+commit.661d1103.Emscripten.clang"
  },
  "schemaVersion": "3.4.4",
  "updatedAt": "2022-03-03T22:43:55.130Z",
  "networkType": "ethereum",
  "devdoc": {
    "kind": "dev",
    "methods": {
      "approve(address,uint256)": {
        "details": "See {IERC721-approve}."
      },
      "balanceOf(address)": {
        "details": "See {IERC721-balanceOf}."
      },
      "getApproved(uint256)": {
        "details": "See {IERC721-getApproved}."
      },
      "isApprovedForAll(address,address)": {
        "details": "See {IERC721-isApprovedForAll}."
      },
      "name()": {
        "details": "See {IERC721Metadata-name}."
      },
      "ownerOf(uint256)": {
        "details": "See {IERC721-ownerOf}."
      },
      "safeTransferFrom(address,address,uint256)": {
        "details": "See {IERC721-safeTransferFrom}."
      },
      "safeTransferFrom(address,address,uint256,bytes)": {
        "details": "See {IERC721-safeTransferFrom}."
      },
      "setApprovalForAll(address,bool)": {
        "details": "See {IERC721-setApprovalForAll}."
      },
      "supportsInterface(bytes4)": {
        "details": "See {IERC165-supportsInterface}."
      },
      "symbol()": {
        "details": "See {IERC721Metadata-symbol}."
      },
      "tokenURI(uint256)": {
        "details": "See {IERC721Metadata-tokenURI}."
      },
      "transferFrom(address,address,uint256)": {
        "details": "See {IERC721-transferFrom}."
      }
    },
    "version": 1
  },
  "userdoc": {
    "kind": "user",
    "methods": {},
    "version": 1
  }
}