{
  "contractName": "MetaConceptArt",
  "abi": [
    {
      "inputs": [],
      "stateMutability": "nonpayable",
      "type": "constructor"
    },
    {
      "anonymous": false,
      "inputs": [
        {
          "indexed": true,
          "internalType": "address",
          "name": "owner",
          "type": "address"
        },
        {
          "indexed": true,
          "internalType": "address",
          "name": "approved",
          "type": "address"
        },
        {
          "indexed": true,
          "internalType": "uint256",
          "name": "tokenId",
          "type": "uint256"
        }
      ],
      "name": "Approval",
      "type": "event"
    },
    {
      "anonymous": false,
      "inputs": [
        {
          "indexed": true,
          "internalType": "address",
          "name": "owner",
          "type": "address"
        },
        {
          "indexed": true,
          "internalType": "address",
          "name": "operator",
          "type": "address"
        },
        {
          "indexed": false,
          "internalType": "bool",
          "name": "approved",
          "type": "bool"
        }
      ],
      "name": "ApprovalForAll",
      "type": "event"
    },
    {
      "anonymous": false,
      "inputs": [
        {
          "indexed": true,
          "internalType": "address",
          "name": "previousOwner",
          "type": "address"
        },
        {
          "indexed": true,
          "internalType": "address",
          "name": "newOwner",
          "type": "address"
        }
      ],
      "name": "OwnershipTransferred",
      "type": "event"
    },
    {
      "anonymous": false,
      "inputs": [
        {
          "indexed": true,
          "internalType": "address",
          "name": "from",
          "type": "address"
        },
        {
          "indexed": true,
          "internalType": "address",
          "name": "to",
          "type": "address"
        },
        {
          "indexed": true,
          "internalType": "uint256",
          "name": "tokenId",
          "type": "uint256"
        }
      ],
      "name": "Transfer",
      "type": "event"
    },
    {
      "inputs": [],
      "name": "DEV_ADDRESS",
      "outputs": [
        {
          "internalType": "address",
          "name": "",
          "type": "address"
        }
      ],
      "stateMutability": "view",
      "type": "function"
    },
    {
      "inputs": [],
      "name": "OWNER_CW1_ADDRESS",
      "outputs": [
        {
          "internalType": "address",
          "name": "",
          "type": "address"
        }
      ],
      "stateMutability": "view",
      "type": "function"
    },
    {
      "inputs": [
        {
          "internalType": "address",
          "name": "to",
          "type": "address"
        },
        {
          "internalType": "uint256",
          "name": "tokenId",
          "type": "uint256"
        }
      ],
      "name": "approve",
      "outputs": [],
      "stateMutability": "nonpayable",
      "type": "function"
    },
    {
      "inputs": [
        {
          "internalType": "address",
          "name": "owner",
          "type": "address"
        }
      ],
      "name": "balanceOf",
      "outputs": [
        {
          "internalType": "uint256",
          "name": "",
          "type": "uint256"
        }
      ],
      "stateMutability": "view",
      "type": "function"
    },
    {
      "inputs": [],
      "name": "currentSupply",
      "outputs": [
        {
          "internalType": "uint256",
          "name": "",
          "type": "uint256"
        }
      ],
      "stateMutability": "view",
      "type": "function"
    },
    {
      "inputs": [
        {
          "internalType": "uint256",
          "name": "tokenId",
          "type": "uint256"
        }
      ],
      "name": "getApproved",
      "outputs": [
        {
          "internalType": "address",
          "name": "",
          "type": "address"
        }
      ],
      "stateMutability": "view",
      "type": "function"
    },
    {
      "inputs": [
        {
          "internalType": "address",
          "name": "owner",
          "type": "address"
        },
        {
          "internalType": "address",
          "name": "operator",
          "type": "address"
        }
      ],
      "name": "isApprovedForAll",
      "outputs": [
        {
          "internalType": "bool",
          "name": "",
          "type": "bool"
        }
      ],
      "stateMutability": "view",
      "type": "function"
    },
    {
      "inputs": [],
      "name": "maxSupply",
      "outputs": [
        {
          "internalType": "uint256",
          "name": "",
          "type": "uint256"
        }
      ],
      "stateMutability": "view",
      "type": "function"
    },
    {
      "inputs": [],
      "name": "name",
      "outputs": [
        {
          "internalType": "string",
          "name": "",
          "type": "string"
        }
      ],
      "stateMutability": "view",
      "type": "function"
    },
    {
      "inputs": [],
      "name": "owner",
      "outputs": [
        {
          "internalType": "address",
          "name": "",
          "type": "address"
        }
      ],
      "stateMutability": "view",
      "type": "function"
    },
    {
      "inputs": [
        {
          "internalType": "uint256",
          "name": "tokenId",
          "type": "uint256"
        }
      ],
      "name": "ownerOf",
      "outputs": [
        {
          "internalType": "address",
          "name": "",
          "type": "address"
        }
      ],
      "stateMutability": "view",
      "type": "function"
    },
    {
      "inputs": [],
      "name": "renounceOwnership",
      "outputs": [],
      "stateMutability": "nonpayable",
      "type": "function"
    },
    {
      "inputs": [
        {
          "internalType": "address",
          "name": "from",
          "type": "address"
        },
        {
          "internalType": "address",
          "name": "to",
          "type": "address"
        },
        {
          "internalType": "uint256",
          "name": "tokenId",
          "type": "uint256"
        }
      ],
      "name": "safeTransferFrom",
      "outputs": [],
      "stateMutability": "nonpayable",
      "type": "function"
    },
    {
      "inputs": [
        {
          "internalType": "address",
          "name": "from",
          "type": "address"
        },
        {
          "internalType": "address",
          "name": "to",
          "type": "address"
        },
        {
          "internalType": "uint256",
          "name": "tokenId",
          "type": "uint256"
        },
        {
          "internalType": "bytes",
          "name": "_data",
          "type": "bytes"
        }
      ],
      "name": "safeTransferFrom",
      "outputs": [],
      "stateMutability": "nonpayable",
      "type": "function"
    },
    {
      "inputs": [
        {
          "internalType": "address",
          "name": "operator",
          "type": "address"
        },
        {
          "internalType": "bool",
          "name": "approved",
          "type": "bool"
        }
      ],
      "name": "setApprovalForAll",
      "outputs": [],
      "stateMutability": "nonpayable",
      "type": "function"
    },
    {
      "inputs": [
        {
          "internalType": "bytes4",
          "name": "interfaceId",
          "type": "bytes4"
        }
      ],
      "name": "supportsInterface",
      "outputs": [
        {
          "internalType": "bool",
          "name": "",
          "type": "bool"
        }
      ],
      "stateMutability": "view",
      "type": "function"
    },
    {
      "inputs": [],
      "name": "symbol",
      "outputs": [
        {
          "internalType": "string",
          "name": "",
          "type": "string"
        }
      ],
      "stateMutability": "view",
      "type": "function"
    },
    {
      "inputs": [
        {
          "internalType": "address",
          "name": "from",
          "type": "address"
        },
        {
          "internalType": "address",
          "name": "to",
          "type": "address"
        },
        {
          "internalType": "uint256",
          "name": "tokenId",
          "type": "uint256"
        }
      ],
      "name": "transferFrom",
      "outputs": [],
      "stateMutability": "nonpayable",
      "type": "function"
    },
    {
      "inputs": [
        {
          "internalType": "address",
          "name": "newOwner",
          "type": "address"
        }
      ],
      "name": "transferOwnership",
      "outputs": [],
      "stateMutability": "nonpayable",
      "type": "function"
    },
    {
      "inputs": [],
      "name": "totalSupply",
      "outputs": [
        {
          "internalType": "uint256",
          "name": "",
          "type": "uint256"
        }
      ],
      "stateMutability": "view",
      "type": "function"
    },
    {
      "inputs": [
        {
          "internalType": "address",
          "name": "mintAddress",
          "type": "address"
        },
        {
          "internalType": "uint256",
          "name": "numberOfMints",
          "type": "uint256"
        }
      ],
      "name": "airdrop",
      "outputs": [],
      "stateMutability": "nonpayable",
      "type": "function"
    },
    {
      "inputs": [],
      "name": "withdraw",
      "outputs": [],
      "stateMutability": "nonpayable",
      "type": "function"
    },
    {
      "inputs": [
        {
          "internalType": "string",
          "name": "_uri",
          "type": "string"
        }
      ],
      "name": "setBaseURI",
      "outputs": [],
      "stateMutability": "nonpayable",
      "type": "function"
    },
    {
      "inputs": [
        {
          "internalType": "uint256",
          "name": "tokenId",
          "type": "uint256"
        }
      ],
      "name": "tokenURI",
      "outputs": [
        {
          "internalType": "string",
          "name": "",
          "type": "string"
        }
      ],
      "stateMutability": "view",
      "type": "function"
    },
    {
      "inputs": [
        {
          "internalType": "address",
          "name": "_owner",
          "type": "address"
        },
        {
          "internalType": "uint256",
          "name": "startId",
          "type": "uint256"
        },
        {
          "internalType": "uint256",
          "name": "endId",
          "type": "uint256"
        }
      ],
      "name": "tokensOfOwner",
      "outputs": [
        {
          "internalType": "uint256[]",
          "name": "",
          "type": "uint256[]"
        }
      ],
      "stateMutability": "view",
      "type": "function"
    },
    {
      "inputs": [
        {
          "internalType": "address",
          "name": "_owner",
          "type": "address"
        }
      ],
      "name": "walletOfOwner",
      "outputs": [
        {
          "internalType": "uint256[]",
          "name": "",
          "type": "uint256[]"
        }
      ],
      "stateMutability": "view",
      "type": "function"
    }
  ],
  "bytecode": "0x608060405260c860085560405180608001604052806051815260200162003b7960519139600990805190602001906200003a929190620001dd565b503480156200004857600080fd5b506040518060400160405280601781526020017f4d696e694d6574616d6f6e20436f6e63657074204172740000000000000000008152506040518060400160405280600e81526020017f4d696e694d6574616d6f6e2d43410000000000000000000000000000000000008152508160009080519060200190620000cd929190620001dd565b508060019080519060200190620000e6929190620001dd565b50505062000109620000fd6200010f60201b60201c565b6200011760201b60201c565b620002f2565b600033905090565b6000600660009054906101000a900473ffffffffffffffffffffffffffffffffffffffff16905081600660006101000a81548173ffffffffffffffffffffffffffffffffffffffff021916908373ffffffffffffffffffffffffffffffffffffffff1602179055508173ffffffffffffffffffffffffffffffffffffffff168173ffffffffffffffffffffffffffffffffffffffff167f8be0079c531659141344cd1fd0a4f28419497f9722a3daafe3b4186f6b6457e060405160405180910390a35050565b828054620001eb906200028d565b90600052602060002090601f0160209004810192826200020f57600085556200025b565b82601f106200022a57805160ff19168380011785556200025b565b828001600101855582156200025b579182015b828111156200025a5782518255916020019190600101906200023d565b5b5090506200026a91906200026e565b5090565b5b80821115620002895760008160009055506001016200026f565b5090565b60006002820490506001821680620002a657607f821691505b60208210811415620002bd57620002bc620002c3565b5b50919050565b7f4e487b7100000000000000000000000000000000000000000000000000000000600052602260045260246000fd5b61387780620003026000396000f3fe608060405234801561001057600080fd5b506004361061018e5760003560e01c806370a08231116100de578063a22cb46511610097578063c87b56dd11610071578063c87b56dd1461045d578063d5abeb011461048d578063e985e9c5146104ab578063f2fde38b146104db5761018e565b8063a22cb465146103f5578063b88d4fde14610411578063c839fe941461042d5761018e565b806370a0823114610345578063715018a614610375578063771282f61461037f5780638ba4cc3c1461039d5780638da5cb5b146103b957806395d89b41146103d75761018e565b806323b872dd1161014b578063438b630011610125578063438b6300146102ab57806355f804b3146102db5780635639e8cf146102f75780636352211e146103155761018e565b806323b872dd146102695780633ccfd60b1461028557806342842e0e1461028f5761018e565b806301ffc9a71461019357806306fdde03146101c3578063081812fc146101e1578063095ea7b3146102115780630c88746f1461022d57806318160ddd1461024b575b600080fd5b6101ad60048036038101906101a89190612540565b6104f7565b6040516101ba9190612bb3565b60405180910390f35b6101cb6105d9565b6040516101d89190612bce565b60405180910390f35b6101fb60048036038101906101f691906125e3565b61066b565b6040516102089190612af3565b60405180910390f35b61022b60048036038101906102269190612464565b6106f0565b005b610235610808565b6040516102429190612af3565b60405180910390f35b610253610820565b6040516102609190612e30565b60405180910390f35b610283600480360381019061027e919061234e565b61082a565b005b61028d61088a565b005b6102a960048036038101906102a4919061234e565b610a20565b005b6102c560048036038101906102c091906122e1565b610a40565b6040516102d29190612b91565b60405180910390f35b6102f560048036038101906102f0919061259a565b610ade565b005b6102ff610b74565b60405161030c9190612af3565b60405180910390f35b61032f600480360381019061032a91906125e3565b610b8c565b60405161033c9190612af3565b60405180910390f35b61035f600480360381019061035a91906122e1565b610c3e565b60405161036c9190612e30565b60405180910390f35b61037d610cf6565b005b610387610d7e565b6040516103949190612e30565b60405180910390f35b6103b760048036038101906103b29190612464565b610d84565b005b6103c1610f36565b6040516103ce9190612af3565b60405180910390f35b6103df610f60565b6040516103ec9190612bce565b60405180910390f35b61040f600480360381019061040a9190612424565b610ff2565b005b61042b600480360381019061042691906123a1565b611008565b005b610447600480360381019061044291906124a4565b61106a565b6040516104549190612b91565b60405180910390f35b610477600480360381019061047291906125e3565b6111ca565b6040516104849190612bce565b60405180910390f35b610495611246565b6040516104a29190612e30565b60405180910390f35b6104c560048036038101906104c0919061230e565b61124c565b6040516104d29190612bb3565b60405180910390f35b6104f560048036038101906104f091906122e1565b6112e0565b005b60007f80ac58cd000000000000000000000000000000000000000000000000000000007bffffffffffffffffffffffffffffffffffffffffffffffffffffffff1916827bffffffffffffffffffffffffffffffffffffffffffffffffffffffff191614806105c257507f5b5e139f000000000000000000000000000000000000000000000000000000007bffffffffffffffffffffffffffffffffffffffffffffffffffffffff1916827bffffffffffffffffffffffffffffffffffffffffffffffffffffffff1916145b806105d257506105d1826113d8565b5b9050919050565b6060600080546105e89061311d565b80601f01602080910402602001604051908101604052809291908181526020018280546106149061311d565b80156106615780601f1061063657610100808354040283529160200191610661565b820191906000526020600020905b81548152906001019060200180831161064457829003601f168201915b5050505050905090565b600061067682611442565b6106b5576040517f08c379a00000000000000000000000000000000000000000000000000000000081526004016106ac90612d70565b60405180910390fd5b6004600083815260200190815260200160002060009054906101000a900473ffffffffffffffffffffffffffffffffffffffff169050919050565b60006106fb82610b8c565b90508073ffffffffffffffffffffffffffffffffffffffff168373ffffffffffffffffffffffffffffffffffffffff16141561076c576040517f08c379a000000000000000000000000000000000000000000000000000000000815260040161076390612dd0565b60405180910390fd5b8073ffffffffffffffffffffffffffffffffffffffff1661078b6114ae565b73ffffffffffffffffffffffffffffffffffffffff1614806107ba57506107b9816107b46114ae565b61124c565b5b6107f9576040517f08c379a00000000000000000000000000000000000000000000000000000000081526004016107f090612cd0565b60405180910390fd5b61080383836114b6565b505050565b73778341cffb8c60217958bd8b2b8a5139c686485a81565b6000600754905090565b61083b6108356114ae565b8261156f565b61087a576040517f08c379a000000000000000000000000000000000000000000000000000000000815260040161087190612df0565b60405180910390fd5b61088583838361164d565b505050565b73ceb5e5c55bb585cfaef92aeb1609c4384ec1890e73ffffffffffffffffffffffffffffffffffffffff163373ffffffffffffffffffffffffffffffffffffffff161480610917575073778341cffb8c60217958bd8b2b8a5139c686485a73ffffffffffffffffffffffffffffffffffffffff163373ffffffffffffffffffffffffffffffffffffffff16145b806109545750610925610f36565b73ffffffffffffffffffffffffffffffffffffffff163373ffffffffffffffffffffffffffffffffffffffff16145b610993576040517f08c379a000000000000000000000000000000000000000000000000000000000815260040161098a90612cf0565b60405180910390fd5b600073778341cffb8c60217958bd8b2b8a5139c686485a73ffffffffffffffffffffffffffffffffffffffff16476040516109cd90612ade565b60006040518083038185875af1925050503d8060008114610a0a576040519150601f19603f3d011682016040523d82523d6000602084013e610a0f565b606091505b5050905080610a1d57600080fd5b50565b610a3b83838360405180602001604052806000815250611008565b505050565b60603073ffffffffffffffffffffffffffffffffffffffff1663c839fe948360006007546040518463ffffffff1660e01b8152600401610a8293929190612b5a565b60006040518083038186803b158015610a9a57600080fd5b505afa158015610aae573d6000803e3d6000fd5b505050506040513d6000823e3d601f19601f82011682018060405250810190610ad791906124f7565b9050919050565b610ae66114ae565b73ffffffffffffffffffffffffffffffffffffffff16610b04610f36565b73ffffffffffffffffffffffffffffffffffffffff1614610b5a576040517f08c379a0000000000000000000000000000000000000000000000000000000008152600401610b5190612d90565b60405180910390fd5b8060099080519060200190610b70929190612042565b5050565b73ceb5e5c55bb585cfaef92aeb1609c4384ec1890e81565b6000806002600084815260200190815260200160002060009054906101000a900473ffffffffffffffffffffffffffffffffffffffff169050600073ffffffffffffffffffffffffffffffffffffffff168173ffffffffffffffffffffffffffffffffffffffff161415610c35576040517f08c379a0000000000000000000000000000000000000000000000000000000008152600401610c2c90612d30565b60405180910390fd5b80915050919050565b60008073ffffffffffffffffffffffffffffffffffffffff168273ffffffffffffffffffffffffffffffffffffffff161415610caf576040517f08c379a0000000000000000000000000000000000000000000000000000000008152600401610ca690612d10565b60405180910390fd5b600360008373ffffffffffffffffffffffffffffffffffffffff1673ffffffffffffffffffffffffffffffffffffffff168152602001908152602001600020549050919050565b610cfe6114ae565b73ffffffffffffffffffffffffffffffffffffffff16610d1c610f36565b73ffffffffffffffffffffffffffffffffffffffff1614610d72576040517f08c379a0000000000000000000000000000000000000000000000000000000008152600401610d6990612d90565b60405180910390fd5b610d7c60006118b4565b565b60075481565b73ceb5e5c55bb585cfaef92aeb1609c4384ec1890e73ffffffffffffffffffffffffffffffffffffffff163373ffffffffffffffffffffffffffffffffffffffff161480610e11575073778341cffb8c60217958bd8b2b8a5139c686485a73ffffffffffffffffffffffffffffffffffffffff163373ffffffffffffffffffffffffffffffffffffffff16145b80610e4e5750610e1f610f36565b73ffffffffffffffffffffffffffffffffffffffff163373ffffffffffffffffffffffffffffffffffffffff16145b610e8d576040517f08c379a0000000000000000000000000000000000000000000000000000000008152600401610e8490612cf0565b60405180910390fd5b600060075490506008548282610ea39190612f9a565b1115610ee4576040517f08c379a0000000000000000000000000000000000000000000000000000000008152600401610edb90612e10565b60405180910390fd5b60005b82811015610f1757610f04848284610eff9190612f9a565b61197a565b8080610f0f90613180565b915050610ee7565b508160076000828254610f2a9190612f9a565b92505081905550505050565b6000600660009054906101000a900473ffffffffffffffffffffffffffffffffffffffff16905090565b606060018054610f6f9061311d565b80601f0160208091040260200160405190810160405280929190818152602001828054610f9b9061311d565b8015610fe85780601f10610fbd57610100808354040283529160200191610fe8565b820191906000526020600020905b815481529060010190602001808311610fcb57829003601f168201915b5050505050905090565b611004610ffd6114ae565b8383611b54565b5050565b6110196110136114ae565b8361156f565b611058576040517f08c379a000000000000000000000000000000000000000000000000000000000815260040161104f90612df0565b60405180910390fd5b61106484848484611cc1565b50505050565b6060600061107785610c3e565b905060008114156110d457600067ffffffffffffffff81111561109d5761109c6132b6565b5b6040519080825280602002602001820160405280156110cb5781602001602082028036833780820191505090505b509150506111c3565b60008167ffffffffffffffff8111156110f0576110ef6132b6565b5b60405190808252806020026020018201604052801561111e5781602001602082028036833780820191505090505b5090506000808690505b858110156111bb578382141561113d576111bb565b8773ffffffffffffffffffffffffffffffffffffffff1661115d82610b8c565b73ffffffffffffffffffffffffffffffffffffffff1614156111a8578083838151811061118d5761118c613287565b5b60200260200101818152505081806111a490613180565b9250505b80806111b390613180565b915050611128565b508193505050505b9392505050565b60606111d582611442565b611214576040517f08c379a000000000000000000000000000000000000000000000000000000000815260040161120b90612db0565b60405180910390fd5b600961121f83611d1d565b604051602001611230929190612aaf565b6040516020818303038152906040529050919050565b60085481565b6000600560008473ffffffffffffffffffffffffffffffffffffffff1673ffffffffffffffffffffffffffffffffffffffff16815260200190815260200160002060008373ffffffffffffffffffffffffffffffffffffffff1673ffffffffffffffffffffffffffffffffffffffff16815260200190815260200160002060009054906101000a900460ff16905092915050565b6112e86114ae565b73ffffffffffffffffffffffffffffffffffffffff16611306610f36565b73ffffffffffffffffffffffffffffffffffffffff161461135c576040517f08c379a000000000000000000000000000000000000000000000000000000000815260040161135390612d90565b60405180910390fd5b600073ffffffffffffffffffffffffffffffffffffffff168173ffffffffffffffffffffffffffffffffffffffff1614156113cc576040517f08c379a00000000000000000000000000000000000000000000000000000000081526004016113c390612c10565b60405180910390fd5b6113d5816118b4565b50565b60007f01ffc9a7000000000000000000000000000000000000000000000000000000007bffffffffffffffffffffffffffffffffffffffffffffffffffffffff1916827bffffffffffffffffffffffffffffffffffffffffffffffffffffffff1916149050919050565b60008073ffffffffffffffffffffffffffffffffffffffff166002600084815260200190815260200160002060009054906101000a900473ffffffffffffffffffffffffffffffffffffffff1673ffffffffffffffffffffffffffffffffffffffff1614159050919050565b600033905090565b816004600083815260200190815260200160002060006101000a81548173ffffffffffffffffffffffffffffffffffffffff021916908373ffffffffffffffffffffffffffffffffffffffff160217905550808273ffffffffffffffffffffffffffffffffffffffff1661152983610b8c565b73ffffffffffffffffffffffffffffffffffffffff167f8c5be1e5ebec7d5bd14f71427d1e84f3dd0314c0f7b2291e5b200ac8c7c3b92560405160405180910390a45050565b600061157a82611442565b6115b9576040517f08c379a00000000000000000000000000000000000000000000000000000000081526004016115b090612cb0565b60405180910390fd5b60006115c483610b8c565b90508073ffffffffffffffffffffffffffffffffffffffff168473ffffffffffffffffffffffffffffffffffffffff16148061163357508373ffffffffffffffffffffffffffffffffffffffff1661161b8461066b565b73ffffffffffffffffffffffffffffffffffffffff16145b806116445750611643818561124c565b5b91505092915050565b8273ffffffffffffffffffffffffffffffffffffffff1661166d82610b8c565b73ffffffffffffffffffffffffffffffffffffffff16146116c3576040517f08c379a00000000000000000000000000000000000000000000000000000000081526004016116ba90612c30565b60405180910390fd5b600073ffffffffffffffffffffffffffffffffffffffff168273ffffffffffffffffffffffffffffffffffffffff161415611733576040517f08c379a000000000000000000000000000000000000000000000000000000000815260040161172a90612c70565b60405180910390fd5b61173e838383611e7e565b6117496000826114b6565b6001600360008573ffffffffffffffffffffffffffffffffffffffff1673ffffffffffffffffffffffffffffffffffffffff16815260200190815260200160002060008282546117999190613021565b925050819055506001600360008473ffffffffffffffffffffffffffffffffffffffff1673ffffffffffffffffffffffffffffffffffffffff16815260200190815260200160002060008282546117f09190612f9a565b92505081905550816002600083815260200190815260200160002060006101000a81548173ffffffffffffffffffffffffffffffffffffffff021916908373ffffffffffffffffffffffffffffffffffffffff160217905550808273ffffffffffffffffffffffffffffffffffffffff168473ffffffffffffffffffffffffffffffffffffffff167fddf252ad1be2c89b69c2b068fc378daa952ba7f163c4a11628f55a4df523b3ef60405160405180910390a46118af838383611e83565b505050565b6000600660009054906101000a900473ffffffffffffffffffffffffffffffffffffffff16905081600660006101000a81548173ffffffffffffffffffffffffffffffffffffffff021916908373ffffffffffffffffffffffffffffffffffffffff1602179055508173ffffffffffffffffffffffffffffffffffffffff168173ffffffffffffffffffffffffffffffffffffffff167f8be0079c531659141344cd1fd0a4f28419497f9722a3daafe3b4186f6b6457e060405160405180910390a35050565b600073ffffffffffffffffffffffffffffffffffffffff168273ffffffffffffffffffffffffffffffffffffffff1614156119ea576040517f08c379a00000000000000000000000000000000000000000000000000000000081526004016119e190612d50565b60405180910390fd5b6119f381611442565b15611a33576040517f08c379a0000000000000000000000000000000000000000000000000000000008152600401611a2a90612c50565b60405180910390fd5b611a3f60008383611e7e565b6001600360008473ffffffffffffffffffffffffffffffffffffffff1673ffffffffffffffffffffffffffffffffffffffff1681526020019081526020016000206000828254611a8f9190612f9a565b92505081905550816002600083815260200190815260200160002060006101000a81548173ffffffffffffffffffffffffffffffffffffffff021916908373ffffffffffffffffffffffffffffffffffffffff160217905550808273ffffffffffffffffffffffffffffffffffffffff16600073ffffffffffffffffffffffffffffffffffffffff167fddf252ad1be2c89b69c2b068fc378daa952ba7f163c4a11628f55a4df523b3ef60405160405180910390a4611b5060008383611e83565b5050565b8173ffffffffffffffffffffffffffffffffffffffff168373ffffffffffffffffffffffffffffffffffffffff161415611bc3576040517f08c379a0000000000000000000000000000000000000000000000000000000008152600401611bba90612c90565b60405180910390fd5b80600560008573ffffffffffffffffffffffffffffffffffffffff1673ffffffffffffffffffffffffffffffffffffffff16815260200190815260200160002060008473ffffffffffffffffffffffffffffffffffffffff1673ffffffffffffffffffffffffffffffffffffffff16815260200190815260200160002060006101000a81548160ff0219169083151502179055508173ffffffffffffffffffffffffffffffffffffffff168373ffffffffffffffffffffffffffffffffffffffff167f17307eab39ab6107e8899845ad3d59bd9653f200f220920489ca2b5937696c3183604051611cb49190612bb3565b60405180910390a3505050565b611ccc84848461164d565b611cd884848484611e88565b611d17576040517f08c379a0000000000000000000000000000000000000000000000000000000008152600401611d0e90612bf0565b60405180910390fd5b50505050565b60606000821415611d65576040518060400160405280600181526020017f30000000000000000000000000000000000000000000000000000000000000008152509050611e79565b600082905060005b60008214611d97578080611d8090613180565b915050600a82611d909190612ff0565b9150611d6d565b60008167ffffffffffffffff811115611db357611db26132b6565b5b6040519080825280601f01601f191660200182016040528015611de55781602001600182028036833780820191505090505b5090505b60008514611e7257600182611dfe9190613021565b9150600a85611e0d91906131c9565b6030611e199190612f9a565b60f81b818381518110611e2f57611e2e613287565b5b60200101907effffffffffffffffffffffffffffffffffffffffffffffffffffffffffffff1916908160001a905350600a85611e6b9190612ff0565b9450611de9565b8093505050505b919050565b505050565b505050565b6000611ea98473ffffffffffffffffffffffffffffffffffffffff1661201f565b15612012578373ffffffffffffffffffffffffffffffffffffffff1663150b7a02611ed26114ae565b8786866040518563ffffffff1660e01b8152600401611ef49493929190612b0e565b602060405180830381600087803b158015611f0e57600080fd5b505af1925050508015611f3f57506040513d601f19601f82011682018060405250810190611f3c919061256d565b60015b611fc2573d8060008114611f6f576040519150601f19603f3d011682016040523d82523d6000602084013e611f74565b606091505b50600081511415611fba576040517f08c379a0000000000000000000000000000000000000000000000000000000008152600401611fb190612bf0565b60405180910390fd5b805181602001fd5b63150b7a0260e01b7bffffffffffffffffffffffffffffffffffffffffffffffffffffffff1916817bffffffffffffffffffffffffffffffffffffffffffffffffffffffff191614915050612017565b600190505b949350505050565b6000808273ffffffffffffffffffffffffffffffffffffffff163b119050919050565b82805461204e9061311d565b90600052602060002090601f01602090048101928261207057600085556120b7565b82601f1061208957805160ff19168380011785556120b7565b828001600101855582156120b7579182015b828111156120b657825182559160200191906001019061209b565b5b5090506120c491906120c8565b5090565b5b808211156120e15760008160009055506001016120c9565b5090565b60006120f86120f384612e70565b612e4b565b9050808382526020820190508285602086028201111561211b5761211a6132ea565b5b60005b8581101561214b578161213188826122cc565b84526020840193506020830192505060018101905061211e565b5050509392505050565b600061216861216384612e9c565b612e4b565b905082815260208101848484011115612184576121836132ef565b5b61218f8482856130db565b509392505050565b60006121aa6121a584612ecd565b612e4b565b9050828152602081018484840111156121c6576121c56132ef565b5b6121d18482856130db565b509392505050565b6000813590506121e8816137e5565b92915050565b600082601f830112612203576122026132e5565b5b81516122138482602086016120e5565b91505092915050565b60008135905061222b816137fc565b92915050565b60008135905061224081613813565b92915050565b60008151905061225581613813565b92915050565b600082601f8301126122705761226f6132e5565b5b8135612280848260208601612155565b91505092915050565b600082601f83011261229e5761229d6132e5565b5b81356122ae848260208601612197565b91505092915050565b6000813590506122c68161382a565b92915050565b6000815190506122db8161382a565b92915050565b6000602082840312156122f7576122f66132f9565b5b6000612305848285016121d9565b91505092915050565b60008060408385031215612325576123246132f9565b5b6000612333858286016121d9565b9250506020612344858286016121d9565b9150509250929050565b600080600060608486031215612367576123666132f9565b5b6000612375868287016121d9565b9350506020612386868287016121d9565b9250506040612397868287016122b7565b9150509250925092565b600080600080608085870312156123bb576123ba6132f9565b5b60006123c9878288016121d9565b94505060206123da878288016121d9565b93505060406123eb878288016122b7565b925050606085013567ffffffffffffffff81111561240c5761240b6132f4565b5b6124188782880161225b565b91505092959194509250565b6000806040838503121561243b5761243a6132f9565b5b6000612449858286016121d9565b925050602061245a8582860161221c565b9150509250929050565b6000806040838503121561247b5761247a6132f9565b5b6000612489858286016121d9565b925050602061249a858286016122b7565b9150509250929050565b6000806000606084860312156124bd576124bc6132f9565b5b60006124cb868287016121d9565b93505060206124dc868287016122b7565b92505060406124ed868287016122b7565b9150509250925092565b60006020828403121561250d5761250c6132f9565b5b600082015167ffffffffffffffff81111561252b5761252a6132f4565b5b612537848285016121ee565b91505092915050565b600060208284031215612556576125556132f9565b5b600061256484828501612231565b91505092915050565b600060208284031215612583576125826132f9565b5b600061259184828501612246565b91505092915050565b6000602082840312156125b0576125af6132f9565b5b600082013567ffffffffffffffff8111156125ce576125cd6132f4565b5b6125da84828501612289565b91505092915050565b6000602082840312156125f9576125f86132f9565b5b6000612607848285016122b7565b91505092915050565b600061261c8383612a91565b60208301905092915050565b61263181613055565b82525050565b600061264282612f23565b61264c8185612f51565b935061265783612efe565b8060005b8381101561268857815161266f8882612610565b975061267a83612f44565b92505060018101905061265b565b5085935050505092915050565b61269e81613067565b82525050565b60006126af82612f2e565b6126b98185612f62565b93506126c98185602086016130ea565b6126d2816132fe565b840191505092915050565b6126e6816130c9565b82525050565b60006126f782612f39565b6127018185612f7e565b93506127118185602086016130ea565b61271a816132fe565b840191505092915050565b600061273082612f39565b61273a8185612f8f565b935061274a8185602086016130ea565b80840191505092915050565b600081546127638161311d565b61276d8186612f8f565b945060018216600081146127885760018114612799576127cc565b60ff198316865281860193506127cc565b6127a285612f0e565b60005b838110156127c4578154818901526001820191506020810190506127a5565b838801955050505b50505092915050565b60006127e2603283612f7e565b91506127ed8261330f565b604082019050919050565b6000612805602683612f7e565b91506128108261335e565b604082019050919050565b6000612828602583612f7e565b9150612833826133ad565b604082019050919050565b600061284b601c83612f7e565b9150612856826133fc565b602082019050919050565b600061286e602483612f7e565b915061287982613425565b604082019050919050565b6000612891601983612f7e565b915061289c82613474565b602082019050919050565b60006128b4602c83612f7e565b91506128bf8261349d565b604082019050919050565b60006128d7603883612f7e565b91506128e2826134ec565b604082019050919050565b60006128fa600e83612f7e565b91506129058261353b565b602082019050919050565b600061291d602a83612f7e565b915061292882613564565b604082019050919050565b6000612940602983612f7e565b915061294b826135b3565b604082019050919050565b6000612963602083612f7e565b915061296e82613602565b602082019050919050565b6000612986602c83612f7e565b91506129918261362b565b604082019050919050565b60006129a9600583612f8f565b91506129b48261367a565b600582019050919050565b60006129cc602083612f7e565b91506129d7826136a3565b602082019050919050565b60006129ef601f83612f7e565b91506129fa826136cc565b602082019050919050565b6000612a12602183612f7e565b9150612a1d826136f5565b604082019050919050565b6000612a35600083612f73565b9150612a4082613744565b600082019050919050565b6000612a58603183612f7e565b9150612a6382613747565b604082019050919050565b6000612a7b603183612f7e565b9150612a8682613796565b604082019050919050565b612a9a816130bf565b82525050565b612aa9816130bf565b82525050565b6000612abb8285612756565b9150612ac78284612725565b9150612ad28261299c565b91508190509392505050565b6000612ae982612a28565b9150819050919050565b6000602082019050612b086000830184612628565b92915050565b6000608082019050612b236000830187612628565b612b306020830186612628565b612b3d6040830185612aa0565b8181036060830152612b4f81846126a4565b905095945050505050565b6000606082019050612b6f6000830186612628565b612b7c60208301856126dd565b612b896040830184612aa0565b949350505050565b60006020820190508181036000830152612bab8184612637565b905092915050565b6000602082019050612bc86000830184612695565b92915050565b60006020820190508181036000830152612be881846126ec565b905092915050565b60006020820190508181036000830152612c09816127d5565b9050919050565b60006020820190508181036000830152612c29816127f8565b9050919050565b60006020820190508181036000830152612c498161281b565b9050919050565b60006020820190508181036000830152612c698161283e565b9050919050565b60006020820190508181036000830152612c8981612861565b9050919050565b60006020820190508181036000830152612ca981612884565b9050919050565b60006020820190508181036000830152612cc9816128a7565b9050919050565b60006020820190508181036000830152612ce9816128ca565b9050919050565b60006020820190508181036000830152612d09816128ed565b9050919050565b60006020820190508181036000830152612d2981612910565b9050919050565b60006020820190508181036000830152612d4981612933565b9050919050565b60006020820190508181036000830152612d6981612956565b9050919050565b60006020820190508181036000830152612d8981612979565b9050919050565b60006020820190508181036000830152612da9816129bf565b9050919050565b60006020820190508181036000830152612dc9816129e2565b9050919050565b60006020820190508181036000830152612de981612a05565b9050919050565b60006020820190508181036000830152612e0981612a4b565b9050919050565b60006020820190508181036000830152612e2981612a6e565b9050919050565b6000602082019050612e456000830184612aa0565b92915050565b6000612e55612e66565b9050612e61828261314f565b919050565b6000604051905090565b600067ffffffffffffffff821115612e8b57612e8a6132b6565b5b602082029050602081019050919050565b600067ffffffffffffffff821115612eb757612eb66132b6565b5b612ec0826132fe565b9050602081019050919050565b600067ffffffffffffffff821115612ee857612ee76132b6565b5b612ef1826132fe565b9050602081019050919050565b6000819050602082019050919050565b60008190508160005260206000209050919050565b600081519050919050565b600081519050919050565b600081519050919050565b6000602082019050919050565b600082825260208201905092915050565b600082825260208201905092915050565b600081905092915050565b600082825260208201905092915050565b600081905092915050565b6000612fa5826130bf565b9150612fb0836130bf565b9250827fffffffffffffffffffffffffffffffffffffffffffffffffffffffffffffffff03821115612fe557612fe46131fa565b5b828201905092915050565b6000612ffb826130bf565b9150613006836130bf565b92508261301657613015613229565b5b828204905092915050565b600061302c826130bf565b9150613037836130bf565b92508282101561304a576130496131fa565b5b828203905092915050565b60006130608261309f565b9050919050565b60008115159050919050565b60007fffffffff0000000000000000000000000000000000000000000000000000000082169050919050565b600073ffffffffffffffffffffffffffffffffffffffff82169050919050565b6000819050919050565b60006130d4826130bf565b9050919050565b82818337600083830152505050565b60005b838110156131085780820151818401526020810190506130ed565b83811115613117576000848401525b50505050565b6000600282049050600182168061313557607f821691505b6020821081141561314957613148613258565b5b50919050565b613158826132fe565b810181811067ffffffffffffffff82111715613177576131766132b6565b5b80604052505050565b600061318b826130bf565b91507fffffffffffffffffffffffffffffffffffffffffffffffffffffffffffffffff8214156131be576131bd6131fa565b5b600182019050919050565b60006131d4826130bf565b91506131df836130bf565b9250826131ef576131ee613229565b5b828206905092915050565b7f4e487b7100000000000000000000000000000000000000000000000000000000600052601160045260246000fd5b7f4e487b7100000000000000000000000000000000000000000000000000000000600052601260045260246000fd5b7f4e487b7100000000000000000000000000000000000000000000000000000000600052602260045260246000fd5b7f4e487b7100000000000000000000000000000000000000000000000000000000600052603260045260246000fd5b7f4e487b7100000000000000000000000000000000000000000000000000000000600052604160045260246000fd5b600080fd5b600080fd5b600080fd5b600080fd5b600080fd5b6000601f19601f8301169050919050565b7f4552433732313a207472616e7366657220746f206e6f6e20455243373231526560008201527f63656976657220696d706c656d656e7465720000000000000000000000000000602082015250565b7f4f776e61626c653a206e6577206f776e657220697320746865207a65726f206160008201527f6464726573730000000000000000000000000000000000000000000000000000602082015250565b7f4552433732313a207472616e736665722066726f6d20696e636f72726563742060008201527f6f776e6572000000000000000000000000000000000000000000000000000000602082015250565b7f4552433732313a20746f6b656e20616c7265616479206d696e74656400000000600082015250565b7f4552433732313a207472616e7366657220746f20746865207a65726f2061646460008201527f7265737300000000000000000000000000000000000000000000000000000000602082015250565b7f4552433732313a20617070726f766520746f2063616c6c657200000000000000600082015250565b7f4552433732313a206f70657261746f7220717565727920666f72206e6f6e657860008201527f697374656e7420746f6b656e0000000000000000000000000000000000000000602082015250565b7f4552433732313a20617070726f76652063616c6c6572206973206e6f74206f7760008201527f6e6572206e6f7220617070726f76656420666f7220616c6c0000000000000000602082015250565b7f496e76616c69642053656e646572000000000000000000000000000000000000600082015250565b7f4552433732313a2062616c616e636520717565727920666f7220746865207a6560008201527f726f206164647265737300000000000000000000000000000000000000000000602082015250565b7f4552433732313a206f776e657220717565727920666f72206e6f6e657869737460008201527f656e7420746f6b656e0000000000000000000000000000000000000000000000602082015250565b7f4552433732313a206d696e7420746f20746865207a65726f2061646472657373600082015250565b7f4552433732313a20617070726f76656420717565727920666f72206e6f6e657860008201527f697374656e7420746f6b656e0000000000000000000000000000000000000000602082015250565b7f2e6a736f6e000000000000000000000000000000000000000000000000000000600082015250565b7f4f776e61626c653a2063616c6c6572206973206e6f7420746865206f776e6572600082015250565b7f43616e6e6f74207175657279206e6f6e2d6578697374656e7420746f6b656e00600082015250565b7f4552433732313a20617070726f76616c20746f2063757272656e74206f776e6560008201527f7200000000000000000000000000000000000000000000000000000000000000602082015250565b50565b7f4552433732313a207472616e736665722063616c6c6572206973206e6f74206f60008201527f776e6572206e6f7220617070726f766564000000000000000000000000000000602082015250565b7f5468697320776f756c642065786365656420746865206d6178206e756d62657260008201527f206f6620616c6c6f776564206d696e7473000000000000000000000000000000602082015250565b6137ee81613055565b81146137f957600080fd5b50565b61380581613067565b811461381057600080fd5b50565b61381c81613073565b811461382757600080fd5b50565b613833816130bf565b811461383e57600080fd5b5056fea2646970667358221220ab21cf23ef28b69008de1cc99dea66db8d6840f721546bc31abeb137cfc1fab264736f6c6343000807003368747470733a2f2f676174657761792e70696e6174612e636c6f75642f697066732f516d4e784c4b5455645478757a537a724577707377324275565238513735723456535971377338507472637662582f",
  "immutableReferences": {},
  "source": "// SPDX-License-Identifier: MIT\npragma solidity ^0.8.2;\n\nimport \"@openzeppelin/contracts/token/ERC721/ERC721.sol\";\nimport \"@openzeppelin/contracts/utils/Strings.sol\";\nimport \"@openzeppelin/contracts/access/Ownable.sol\";\n\ncontract MetaConceptArt is ERC721, Ownable {\n\n    address public constant DEV_ADDRESS = 0xcEB5E5c55bB585CFaEF92aeB1609C4384Ec1890e;\n    address public constant OWNER_CW1_ADDRESS = 0x778341cFfb8C60217958Bd8B2B8a5139c686485a;\n\n    uint256 public currentSupply;\n    uint256 public maxSupply = 200;\n\n    //Pre-reveal IPFS link\n    string private baseURI = \"https://gateway.pinata.cloud/ipfs/QmNxLKTUdTxuzSzrEwpsw2BuVR8Q75r4VSYq7s8PtrcvbX/\";\n\n    constructor() ERC721(\"MiniMetamon Concept Art\", \"MiniMetamon-CA\") {\n    }\n    \n    function totalSupply() external view returns (uint) {\n        return currentSupply;\n    }\n\n    function airdrop(address mintAddress, uint256 numberOfMints) external {\n\n      require(msg.sender == DEV_ADDRESS || msg.sender == OWNER_CW1_ADDRESS || msg.sender == owner(), \"Invalid Sender\");\n\n        uint256 supply = currentSupply;\n        require(supply + numberOfMints <= maxSupply,  \"This would exceed the max number of allowed mints\");\n \n        for (uint256 i; i < numberOfMints ; i++) {\n            _mint(mintAddress, supply + i);\n        }\n\n        currentSupply += numberOfMints;\n    }\n    \n    function withdraw() external  {\n        require(msg.sender == DEV_ADDRESS || msg.sender == OWNER_CW1_ADDRESS || msg.sender == owner(), \"Invalid Sender\");\n\n        (bool owner, ) = OWNER_CW1_ADDRESS.call{value: address(this).balance}(\"\");\n        require(owner);\n    }\n\n    function setBaseURI(string memory _uri) external onlyOwner {\n        baseURI = _uri;\n    }\n\n    function tokenURI(uint256 tokenId) public view override(ERC721) returns (string memory) {\n        require(_exists(tokenId), \"Cannot query non-existent token\");\n        return string(abi.encodePacked(baseURI, Strings.toString(tokenId), \".json\"));\n    }\n\n    function tokensOfOwner(address _owner, uint startId, uint endId) external view returns(uint256[] memory ) {\n      uint256 tokenCount = balanceOf(_owner);\n      if (tokenCount == 0) {\n        return new uint256[](0);\n      } else {\n        uint256[] memory result = new uint256[](tokenCount);\n        uint256 index = 0;\n        for (uint256 tokenId = startId; tokenId < endId; tokenId++) {\n            if (index == tokenCount) break;\n\n            if (ownerOf(tokenId) == _owner) {\n                result[index] = tokenId;\n                index++;\n            }\n        }\n\n        return result;\n      }\n    }\n\n    function walletOfOwner(address _owner) external view returns(uint256[] memory ) {\n      return this.tokensOfOwner(_owner, 0, currentSupply);\n    }\n}",
  "sourcePath": "/Users/aipek/Documents/metamon_contracts/contracts/MetaConceptArt.sol",
  "compiler": {
    "name": "solc",
    "version": "0.8.7+commit.e28d00a7.Emscripten.clang"
  },
  "schemaVersion": "3.4.4",
  "updatedAt": "2022-03-30T21:05:15.683Z",
  "devdoc": {
    "kind": "dev",
    "methods": {
      "approve(address,uint256)": {
        "details": "See {IERC721-approve}."
      },
      "balanceOf(address)": {
        "details": "See {IERC721-balanceOf}."
      },
      "getApproved(uint256)": {
        "details": "See {IERC721-getApproved}."
      },
      "isApprovedForAll(address,address)": {
        "details": "See {IERC721-isApprovedForAll}."
      },
      "name()": {
        "details": "See {IERC721Metadata-name}."
      },
      "owner()": {
        "details": "Returns the address of the current owner."
      },
      "ownerOf(uint256)": {
        "details": "See {IERC721-ownerOf}."
      },
      "renounceOwnership()": {
        "details": "Leaves the contract without owner. It will not be possible to call `onlyOwner` functions anymore. Can only be called by the current owner. NOTE: Renouncing ownership will leave the contract without an owner, thereby removing any functionality that is only available to the owner."
      },
      "safeTransferFrom(address,address,uint256)": {
        "details": "See {IERC721-safeTransferFrom}."
      },
      "safeTransferFrom(address,address,uint256,bytes)": {
        "details": "See {IERC721-safeTransferFrom}."
      },
      "setApprovalForAll(address,bool)": {
        "details": "See {IERC721-setApprovalForAll}."
      },
      "supportsInterface(bytes4)": {
        "details": "See {IERC165-supportsInterface}."
      },
      "symbol()": {
        "details": "See {IERC721Metadata-symbol}."
      },
      "tokenURI(uint256)": {
        "details": "See {IERC721Metadata-tokenURI}."
      },
      "transferFrom(address,address,uint256)": {
        "details": "See {IERC721-transferFrom}."
      },
      "transferOwnership(address)": {
        "details": "Transfers ownership of the contract to a new account (`newOwner`). Can only be called by the current owner."
      }
    },
    "version": 1
  },
  "userdoc": {
    "kind": "user",
    "methods": {},
    "version": 1
  }
}