{
  "contractName": "Metamon",
  "abi": [
    {
      "inputs": [],
      "stateMutability": "payable",
      "type": "constructor",
      "payable": true
    },
    {
      "anonymous": false,
      "inputs": [
        {
          "indexed": true,
          "internalType": "address",
          "name": "owner",
          "type": "address"
        },
        {
          "indexed": true,
          "internalType": "address",
          "name": "approved",
          "type": "address"
        },
        {
          "indexed": true,
          "internalType": "uint256",
          "name": "tokenId",
          "type": "uint256"
        }
      ],
      "name": "Approval",
      "type": "event"
    },
    {
      "anonymous": false,
      "inputs": [
        {
          "indexed": true,
          "internalType": "address",
          "name": "owner",
          "type": "address"
        },
        {
          "indexed": true,
          "internalType": "address",
          "name": "operator",
          "type": "address"
        },
        {
          "indexed": false,
          "internalType": "bool",
          "name": "approved",
          "type": "bool"
        }
      ],
      "name": "ApprovalForAll",
      "type": "event"
    },
    {
      "anonymous": false,
      "inputs": [
        {
          "indexed": false,
          "internalType": "uint256",
          "name": "_tokenId",
          "type": "uint256"
        },
        {
          "indexed": false,
          "internalType": "uint8",
          "name": "_dexId",
          "type": "uint8"
        },
        {
          "indexed": false,
          "internalType": "address",
          "name": "_burner",
          "type": "address"
        }
      ],
      "name": "MetamonBurn",
      "type": "event"
    },
    {
      "anonymous": false,
      "inputs": [
        {
          "indexed": false,
          "internalType": "uint256",
          "name": "_tokenId",
          "type": "uint256"
        },
        {
          "indexed": false,
          "internalType": "address",
          "name": "_reciever",
          "type": "address"
        }
      ],
      "name": "MetamonMint",
      "type": "event"
    },
    {
      "anonymous": false,
      "inputs": [
        {
          "indexed": false,
          "internalType": "address",
          "name": "_reciever",
          "type": "address"
        },
        {
          "indexed": false,
          "internalType": "uint256",
          "name": "_value",
          "type": "uint256"
        }
      ],
      "name": "ReceivedEth",
      "type": "event"
    },
    {
      "anonymous": false,
      "inputs": [
        {
          "indexed": true,
          "internalType": "address",
          "name": "from",
          "type": "address"
        },
        {
          "indexed": true,
          "internalType": "address",
          "name": "to",
          "type": "address"
        },
        {
          "indexed": true,
          "internalType": "uint256",
          "name": "tokenId",
          "type": "uint256"
        }
      ],
      "name": "Transfer",
      "type": "event"
    },
    {
      "stateMutability": "payable",
      "type": "fallback",
      "payable": true
    },
    {
      "inputs": [
        {
          "internalType": "address",
          "name": "to",
          "type": "address"
        },
        {
          "internalType": "uint256",
          "name": "tokenId",
          "type": "uint256"
        }
      ],
      "name": "approve",
      "outputs": [],
      "stateMutability": "nonpayable",
      "type": "function"
    },
    {
      "inputs": [
        {
          "internalType": "address",
          "name": "owner",
          "type": "address"
        }
      ],
      "name": "balanceOf",
      "outputs": [
        {
          "internalType": "uint256",
          "name": "",
          "type": "uint256"
        }
      ],
      "stateMutability": "view",
      "type": "function",
      "constant": true
    },
    {
      "inputs": [],
      "name": "currentMintPhase",
      "outputs": [
        {
          "internalType": "uint8",
          "name": "",
          "type": "uint8"
        }
      ],
      "stateMutability": "view",
      "type": "function",
      "constant": true
    },
    {
      "inputs": [
        {
          "internalType": "uint256",
          "name": "tokenId",
          "type": "uint256"
        }
      ],
      "name": "getApproved",
      "outputs": [
        {
          "internalType": "address",
          "name": "",
          "type": "address"
        }
      ],
      "stateMutability": "view",
      "type": "function",
      "constant": true
    },
    {
      "inputs": [
        {
          "internalType": "address",
          "name": "owner",
          "type": "address"
        },
        {
          "internalType": "address",
          "name": "operator",
          "type": "address"
        }
      ],
      "name": "isApprovedForAll",
      "outputs": [
        {
          "internalType": "bool",
          "name": "",
          "type": "bool"
        }
      ],
      "stateMutability": "view",
      "type": "function",
      "constant": true
    },
    {
      "inputs": [
        {
          "internalType": "uint256",
          "name": "",
          "type": "uint256"
        }
      ],
      "name": "metamonInfoPersonality",
      "outputs": [
        {
          "internalType": "uint8",
          "name": "",
          "type": "uint8"
        }
      ],
      "stateMutability": "view",
      "type": "function",
      "constant": true
    },
    {
      "inputs": [
        {
          "internalType": "uint256",
          "name": "",
          "type": "uint256"
        }
      ],
      "name": "metamonInfoShiny",
      "outputs": [
        {
          "internalType": "bool",
          "name": "",
          "type": "bool"
        }
      ],
      "stateMutability": "view",
      "type": "function",
      "constant": true
    },
    {
      "inputs": [],
      "name": "name",
      "outputs": [
        {
          "internalType": "string",
          "name": "",
          "type": "string"
        }
      ],
      "stateMutability": "view",
      "type": "function",
      "constant": true
    },
    {
      "inputs": [],
      "name": "owner",
      "outputs": [
        {
          "internalType": "address payable",
          "name": "",
          "type": "address"
        }
      ],
      "stateMutability": "view",
      "type": "function",
      "constant": true
    },
    {
      "inputs": [
        {
          "internalType": "uint256",
          "name": "tokenId",
          "type": "uint256"
        }
      ],
      "name": "ownerOf",
      "outputs": [
        {
          "internalType": "address",
          "name": "",
          "type": "address"
        }
      ],
      "stateMutability": "view",
      "type": "function",
      "constant": true
    },
    {
      "inputs": [
        {
          "internalType": "address",
          "name": "from",
          "type": "address"
        },
        {
          "internalType": "address",
          "name": "to",
          "type": "address"
        },
        {
          "internalType": "uint256",
          "name": "tokenId",
          "type": "uint256"
        }
      ],
      "name": "safeTransferFrom",
      "outputs": [],
      "stateMutability": "nonpayable",
      "type": "function"
    },
    {
      "inputs": [
        {
          "internalType": "address",
          "name": "from",
          "type": "address"
        },
        {
          "internalType": "address",
          "name": "to",
          "type": "address"
        },
        {
          "internalType": "uint256",
          "name": "tokenId",
          "type": "uint256"
        },
        {
          "internalType": "bytes",
          "name": "_data",
          "type": "bytes"
        }
      ],
      "name": "safeTransferFrom",
      "outputs": [],
      "stateMutability": "nonpayable",
      "type": "function"
    },
    {
      "inputs": [
        {
          "internalType": "address",
          "name": "operator",
          "type": "address"
        },
        {
          "internalType": "bool",
          "name": "approved",
          "type": "bool"
        }
      ],
      "name": "setApprovalForAll",
      "outputs": [],
      "stateMutability": "nonpayable",
      "type": "function"
    },
    {
      "inputs": [
        {
          "internalType": "bytes4",
          "name": "interfaceId",
          "type": "bytes4"
        }
      ],
      "name": "supportsInterface",
      "outputs": [
        {
          "internalType": "bool",
          "name": "",
          "type": "bool"
        }
      ],
      "stateMutability": "view",
      "type": "function",
      "constant": true
    },
    {
      "inputs": [],
      "name": "symbol",
      "outputs": [
        {
          "internalType": "string",
          "name": "",
          "type": "string"
        }
      ],
      "stateMutability": "view",
      "type": "function",
      "constant": true
    },
    {
      "inputs": [
        {
          "internalType": "address",
          "name": "from",
          "type": "address"
        },
        {
          "internalType": "address",
          "name": "to",
          "type": "address"
        },
        {
          "internalType": "uint256",
          "name": "tokenId",
          "type": "uint256"
        }
      ],
      "name": "transferFrom",
      "outputs": [],
      "stateMutability": "nonpayable",
      "type": "function"
    },
    {
      "stateMutability": "payable",
      "type": "receive",
      "payable": true
    },
    {
      "inputs": [
        {
          "internalType": "uint256",
          "name": "_new_price",
          "type": "uint256"
        },
        {
          "internalType": "uint8",
          "name": "_dexId",
          "type": "uint8"
        }
      ],
      "name": "changeFloorPrice",
      "outputs": [],
      "stateMutability": "nonpayable",
      "type": "function"
    },
    {
      "inputs": [
        {
          "internalType": "uint8",
          "name": "_dexId",
          "type": "uint8"
        }
      ],
      "name": "getFloorPrice",
      "outputs": [
        {
          "internalType": "uint256",
          "name": "",
          "type": "uint256"
        }
      ],
      "stateMutability": "view",
      "type": "function",
      "constant": true
    },
    {
      "inputs": [],
      "name": "getWalletBalance",
      "outputs": [
        {
          "internalType": "uint256",
          "name": "",
          "type": "uint256"
        }
      ],
      "stateMutability": "view",
      "type": "function",
      "constant": true
    },
    {
      "inputs": [
        {
          "internalType": "uint8",
          "name": "_dexId",
          "type": "uint8"
        }
      ],
      "name": "getSupplyDex",
      "outputs": [
        {
          "internalType": "uint256",
          "name": "",
          "type": "uint256"
        }
      ],
      "stateMutability": "view",
      "type": "function",
      "constant": true
    },
    {
      "inputs": [
        {
          "internalType": "address payable",
          "name": "_recipient",
          "type": "address"
        },
        {
          "internalType": "uint256",
          "name": "_amount",
          "type": "uint256"
        }
      ],
      "name": "transferContractBalance",
      "outputs": [
        {
          "internalType": "bool",
          "name": "",
          "type": "bool"
        }
      ],
      "stateMutability": "nonpayable",
      "type": "function"
    },
    {
      "inputs": [
        {
          "internalType": "string",
          "name": "_baseURILink",
          "type": "string"
        }
      ],
      "name": "setBaseURI",
      "outputs": [],
      "stateMutability": "nonpayable",
      "type": "function"
    },
    {
      "inputs": [],
      "name": "getBaseURI",
      "outputs": [
        {
          "internalType": "string",
          "name": "",
          "type": "string"
        }
      ],
      "stateMutability": "view",
      "type": "function",
      "constant": true
    },
    {
      "inputs": [
        {
          "internalType": "uint256",
          "name": "tokenId",
          "type": "uint256"
        }
      ],
      "name": "tokenURI",
      "outputs": [
        {
          "internalType": "string",
          "name": "",
          "type": "string"
        }
      ],
      "stateMutability": "view",
      "type": "function",
      "constant": true
    },
    {
      "inputs": [
        {
          "internalType": "uint256",
          "name": "_value",
          "type": "uint256"
        }
      ],
      "name": "burn",
      "outputs": [],
      "stateMutability": "nonpayable",
      "type": "function"
    },
    {
      "inputs": [
        {
          "internalType": "uint8",
          "name": "_dexId",
          "type": "uint8"
        }
      ],
      "name": "mintableDex",
      "outputs": [
        {
          "internalType": "bool",
          "name": "",
          "type": "bool"
        }
      ],
      "stateMutability": "view",
      "type": "function",
      "constant": true
    },
    {
      "inputs": [
        {
          "internalType": "address",
          "name": "_recipient",
          "type": "address"
        },
        {
          "internalType": "uint256",
          "name": "_quantity",
          "type": "uint256"
        },
        {
          "internalType": "uint8",
          "name": "_dexId",
          "type": "uint8"
        }
      ],
      "name": "mintSale",
      "outputs": [],
      "stateMutability": "payable",
      "type": "function",
      "payable": true
    },
    {
      "inputs": [
        {
          "internalType": "address",
          "name": "_recipient",
          "type": "address"
        },
        {
          "internalType": "uint256",
          "name": "_sendTokenId",
          "type": "uint256"
        },
        {
          "internalType": "uint256",
          "name": "_sendDaxId",
          "type": "uint256"
        }
      ],
      "name": "evalutionItemBurn",
      "outputs": [],
      "stateMutability": "nonpayable",
      "type": "function"
    },
    {
      "inputs": [
        {
          "internalType": "address",
          "name": "_recipient",
          "type": "address"
        },
        {
          "internalType": "uint256",
          "name": "_sendTokenId",
          "type": "uint256"
        },
        {
          "internalType": "uint256",
          "name": "_sendDaxId",
          "type": "uint256"
        },
        {
          "internalType": "uint256",
          "name": "_quantitySend",
          "type": "uint256"
        },
        {
          "internalType": "uint256",
          "name": "_targetDax",
          "type": "uint256"
        },
        {
          "internalType": "uint256",
          "name": "_itemTokenId",
          "type": "uint256"
        }
      ],
      "name": "evalutionMetaBurn",
      "outputs": [],
      "stateMutability": "nonpayable",
      "type": "function"
    }
  ],
  "bytecode": "0x6080604052731e6059ec57ae39d2c73e5c3821a26faffd68e016600760006101000a81548173ffffffffffffffffffffffffffffffffffffffff021916908373ffffffffffffffffffffffffffffffffffffffff160217905550600760009054906101000a900473ffffffffffffffffffffffffffffffffffffffff16600860006101000a81548173ffffffffffffffffffffffffffffffffffffffff021916908373ffffffffffffffffffffffffffffffffffffffff1602179055506001600c60006101000a81548160ff021916908360ff1602179055506040518060a00160405280606360ff168152602001606260ff168152602001606160ff168152602001606060ff168152602001605f60ff16815250600d906005620001259291906200063f565b506040518060a0016040528061012861ffff16815260200161012461ffff16815260200161012061ffff16815260200161011c61ffff16815260200161011861ffff16815250600e9060056200017d929190620006e0565b50604051806101000160405280600160ff168152602001600260ff168152602001600360ff168152602001600460ff168152602001600760ff168152602001600a60ff168152602001600b60ff168152602001600d60ff16815250600f906008620001ea92919062000788565b506040518061010001604052806103e861ffff168152602001600061ffff168152602001600061ffff1681526020016107d061ffff1681526020016103e861ffff168152602001610bb861ffff168152602001610fa061ffff1681526020016103e861ffff16815250601790600862000265929190620007d2565b50604051806101000160405280600160ff168152602001600160ff168152602001600160ff168152602001600160ff168152602001600160ff168152602001600160ff168152602001600160ff168152602001600160ff16815250601f906008620002d292919062000788565b50604051806101000160405280600160ff168152602001600060ff168152602001600060ff168152602001600160ff168152602001600060ff168152602001600060ff168152602001600060ff168152602001600160ff1681525060279060086200033f92919062000788565b5060405180610100016040528066b1a2bc2ec5000066ffffffffffffff168152602001600066ffffffffffffff168152602001600066ffffffffffffff1681526020016658d15e1762800066ffffffffffffff168152602001667c58508723800066ffffffffffffff168152602001669fdf42f6e4800066ffffffffffffff16815260200166c3663566a5800066ffffffffffffff16815260200166e6ed27d666800066ffffffffffffff16815250602f906008620004009291906200081d565b506040518060400160405280600b81526020017f4d6574616d6f6e204e46540000000000000000000000000000000000000000008152506040518060400160405280600381526020017f4e465400000000000000000000000000000000000000000000000000000000008152508160009080519060200190620004859291906200086d565b5080600190805190602001906200049e9291906200086d565b50505033600660006101000a81548173ffffffffffffffffffffffffffffffffffffffff021916908373ffffffffffffffffffffffffffffffffffffffff1602179055506002603b600060018152602001908152602001600020819055506003603b60006002815260200190815260200160002081905550600260396000600181526020019081526020016000208190555060036039600060028152602001908152602001600020819055506002603b600060048152602001908152602001600020819055506003603b60006005815260200190815260200160002081905550600560396000600481526020019081526020016000208190555060066039600060058152602001908152602001600020819055506040518060c00160405280600160ff168152602001600460ff168152602001600760ff168152602001601460ff168152602001605660ff168152602001608560ff1681525060386000600160ff1681526020019081526020016000209060066200061e929190620008fe565b506005603b60006081815260200190815260200160002081905550620009d9565b826005601f01602090048101928215620006cd5791602002820160005b838211156200069c57835183826101000a81548160ff021916908360ff16021790555092602001926001016020816000010492830192600103026200065c565b8015620006cb5782816101000a81549060ff02191690556001016020816000010492830192600103026200069c565b505b509050620006dc919062000955565b5090565b826005600701600890048101928215620007755791602002820160005b838211156200074157835183826101000a81548163ffffffff021916908361ffff1602179055509260200192600401602081600301049283019260010302620006fd565b8015620007735782816101000a81549063ffffffff021916905560040160208160030104928301926001030262000741565b505b50905062000784919062000955565b5090565b8260088101928215620007bf579160200282015b82811115620007be578251829060ff169055916020019190600101906200079c565b5b509050620007ce919062000955565b5090565b82600881019282156200080a579160200282015b8281111562000809578251829061ffff16905591602001919060010190620007e6565b5b50905062000819919062000955565b5090565b82600881019282156200085a579160200282015b8281111562000859578251829066ffffffffffffff1690559160200191906001019062000831565b5b50905062000869919062000955565b5090565b8280546200087b9062000974565b90600052602060002090601f0160209004810192826200089f5760008555620008eb565b82601f10620008ba57805160ff1916838001178555620008eb565b82800160010185558215620008eb579182015b82811115620008ea578251825591602001919060010190620008cd565b5b509050620008fa919062000955565b5090565b82805482825590600052602060002090810192821562000942579160200282015b8281111562000941578251829060ff169055916020019190600101906200091f565b5b50905062000951919062000955565b5090565b5b808211156200097057600081600090555060010162000956565b5090565b600060028204905060018216806200098d57607f821691505b60208210811415620009a457620009a3620009aa565b5b50919050565b7f4e487b7100000000000000000000000000000000000000000000000000000000600052602260045260246000fd5b613f1380620009e96000396000f3fe6080604052600436106101c65760003560e01c806355f804b3116100f757806395d89b4111610095578063c87b56dd11610064578063c87b56dd146106d0578063c9432c051461070d578063e985e9c514610736578063feadbaea1461077357610206565b806395d89b4114610637578063a1191b7314610662578063a22cb4651461067e578063b88d4fde146106a757610206565b8063714c5398116100d1578063714c53981461056757806376be98d91461059257806389b8f7d1146105cf5780638da5cb5b1461060c57610206565b806355f804b3146104c45780636352211e146104ed57806370a082311461052a57610206565b80631f2b2829116101645780633c19a5b61161013e5780633c19a5b61461040c57806342842e0e1461043557806342966c681461045e578063486fc6d31461048757610206565b80631f2b28291461037b57806323b872dd146103b8578063329a27e7146103e157610206565b8063081812fc116101a0578063081812fc146102ad578063095ea7b3146102ea5780630dd250e11461031357806310a5a3d91461033e57610206565b8063014de7381461020857806301ffc9a71461024557806306fdde031461028257610206565b36610206577f52a6cdf67c40ce333b3d846e4e143db87f71dd7935612a4cafcf6ba76047ca1f33346040516101fc929190613257565b60405180910390a1005b005b34801561021457600080fd5b5061022f600480360381019061022a9190612d62565b61079c565b60405161023c91906134dd565b60405180910390f35b34801561025157600080fd5b5061026c60048036038101906102679190612c41565b610845565b6040516102799190613280565b60405180910390f35b34801561028e57600080fd5b50610297610927565b6040516102a4919061329b565b60405180910390f35b3480156102b957600080fd5b506102d460048036038101906102cf9190612cd4565b6109b9565b6040516102e191906131ac565b60405180910390f35b3480156102f657600080fd5b50610311600480360381019061030c9190612ade565b610a3e565b005b34801561031f57600080fd5b50610328610b56565b6040516103359190613521565b60405180910390f35b34801561034a57600080fd5b5061036560048036038101906103609190612960565b610b69565b6040516103729190613280565b60405180910390f35b34801561038757600080fd5b506103a2600480360381019061039d9190612d62565b610c98565b6040516103af9190613280565b60405180910390f35b3480156103c457600080fd5b506103df60048036038101906103da91906129d8565b610d70565b005b3480156103ed57600080fd5b506103f6610dd0565b60405161040391906134dd565b60405180910390f35b34801561041857600080fd5b50610433600480360381019061042e9190612b69565b610e6a565b005b34801561044157600080fd5b5061045c600480360381019061045791906129d8565b610e72565b005b34801561046a57600080fd5b5061048560048036038101906104809190612cd4565b610e92565b005b34801561049357600080fd5b506104ae60048036038101906104a99190612d62565b610e9e565b6040516104bb91906134dd565b60405180910390f35b3480156104d057600080fd5b506104eb60048036038101906104e69190612c93565b610ef2565b005b3480156104f957600080fd5b50610514600480360381019061050f9190612cd4565b610f9e565b60405161052191906131ac565b60405180910390f35b34801561053657600080fd5b50610551600480360381019061054c9190612937565b611050565b60405161055e91906134dd565b60405180910390f35b34801561057357600080fd5b5061057c611108565b604051610589919061329b565b60405180910390f35b34801561059e57600080fd5b506105b960048036038101906105b49190612cd4565b61122c565b6040516105c69190613521565b60405180910390f35b3480156105db57600080fd5b506105f660048036038101906105f19190612cd4565b61124c565b6040516106039190613280565b60405180910390f35b34801561061857600080fd5b5061062161126c565b60405161062e91906131c7565b60405180910390f35b34801561064357600080fd5b5061064c611292565b604051610659919061329b565b60405180910390f35b61067c60048036038101906106779190612bf2565b611324565b005b34801561068a57600080fd5b506106a560048036038101906106a09190612aa2565b611538565b005b3480156106b357600080fd5b506106ce60048036038101906106c99190612a27565b61154e565b005b3480156106dc57600080fd5b506106f760048036038101906106f29190612cd4565b6115b0565b604051610704919061329b565b60405180910390f35b34801561071957600080fd5b50610734600480360381019061072f9190612d26565b611658565b005b34801561074257600080fd5b5061075d6004803603810190610758919061299c565b61173d565b60405161076a9190613280565b60405180910390f35b34801561077f57600080fd5b5061079a60048036038101906107959190612b1a565b6117d1565b005b6000601f6001836107ad9190613730565b60ff16600881106107e7577f4e487b7100000000000000000000000000000000000000000000000000000000600052603260045260246000fd5b015460176001846107f89190613730565b60ff1660088110610832577f4e487b7100000000000000000000000000000000000000000000000000000000600052603260045260246000fd5b015461083e91906136fc565b9050919050565b60007f80ac58cd000000000000000000000000000000000000000000000000000000007bffffffffffffffffffffffffffffffffffffffffffffffffffffffff1916827bffffffffffffffffffffffffffffffffffffffffffffffffffffffff1916148061091057507f5b5e139f000000000000000000000000000000000000000000000000000000007bffffffffffffffffffffffffffffffffffffffffffffffffffffffff1916827bffffffffffffffffffffffffffffffffffffffffffffffffffffffff1916145b80610920575061091f826117d6565b5b9050919050565b6060600080546109369061384b565b80601f01602080910402602001604051908101604052809291908181526020018280546109629061384b565b80156109af5780601f10610984576101008083540402835291602001916109af565b820191906000526020600020905b81548152906001019060200180831161099257829003601f168201915b5050505050905090565b60006109c482611840565b610a03576040517f08c379a00000000000000000000000000000000000000000000000000000000081526004016109fa9061341d565b60405180910390fd5b6004600083815260200190815260200160002060009054906101000a900473ffffffffffffffffffffffffffffffffffffffff169050919050565b6000610a4982610f9e565b90508073ffffffffffffffffffffffffffffffffffffffff168373ffffffffffffffffffffffffffffffffffffffff161415610aba576040517f08c379a0000000000000000000000000000000000000000000000000000000008152600401610ab19061345d565b60405180910390fd5b8073ffffffffffffffffffffffffffffffffffffffff16610ad96118ac565b73ffffffffffffffffffffffffffffffffffffffff161480610b085750610b0781610b026118ac565b61173d565b5b610b47576040517f08c379a0000000000000000000000000000000000000000000000000000000008152600401610b3e9061339d565b60405180910390fd5b610b5183836118b4565b505050565b600c60009054906101000a900460ff1681565b600033600660009054906101000a900473ffffffffffffffffffffffffffffffffffffffff1673ffffffffffffffffffffffffffffffffffffffff168173ffffffffffffffffffffffffffffffffffffffff1614610bfc576040517f08c379a0000000000000000000000000000000000000000000000000000000008152600401610bf3906134bd565b60405180910390fd5b610c04610dd0565b831115610c46576040517f08c379a0000000000000000000000000000000000000000000000000000000008152600401610c3d9061347d565b60405180910390fd5b8373ffffffffffffffffffffffffffffffffffffffff166108fc849081150290604051600060405180830381858888f19350505050158015610c8c573d6000803e3d6000fd5b50600191505092915050565b600080600090505b60386000600c60009054906101000a900460ff1660ff1660ff16815260200190815260200160002080549050811015610d655760386000600c60009054906101000a900460ff1660ff1660ff1681526020019081526020016000208181548110610d33577f4e487b7100000000000000000000000000000000000000000000000000000000600052603260045260246000fd5b90600052602060002001548360ff161415610d52576001915050610d6b565b8080610d5d906138ae565b915050610ca0565b50600090505b919050565b610d81610d7b6118ac565b8261196d565b610dc0576040517f08c379a0000000000000000000000000000000000000000000000000000000008152600401610db79061349d565b60405180910390fd5b610dcb838383611a4b565b505050565b600033600660009054906101000a900473ffffffffffffffffffffffffffffffffffffffff1673ffffffffffffffffffffffffffffffffffffffff168173ffffffffffffffffffffffffffffffffffffffff1614610e63576040517f08c379a0000000000000000000000000000000000000000000000000000000008152600401610e5a906134bd565b60405180910390fd5b4791505090565b505050505050565b610e8d8383836040518060200160405280600081525061154e565b505050565b610e9b81611cb2565b50565b6000602f600183610eaf9190613730565b60ff1660088110610ee9577f4e487b7100000000000000000000000000000000000000000000000000000000600052603260045260246000fd5b01549050919050565b33600660009054906101000a900473ffffffffffffffffffffffffffffffffffffffff1673ffffffffffffffffffffffffffffffffffffffff168173ffffffffffffffffffffffffffffffffffffffff1614610f83576040517f08c379a0000000000000000000000000000000000000000000000000000000008152600401610f7a906134bd565b60405180910390fd5b81600b9080519060200190610f9992919061271c565b505050565b6000806002600084815260200190815260200160002060009054906101000a900473ffffffffffffffffffffffffffffffffffffffff169050600073ffffffffffffffffffffffffffffffffffffffff168173ffffffffffffffffffffffffffffffffffffffff161415611047576040517f08c379a000000000000000000000000000000000000000000000000000000000815260040161103e906133dd565b60405180910390fd5b80915050919050565b60008073ffffffffffffffffffffffffffffffffffffffff168273ffffffffffffffffffffffffffffffffffffffff1614156110c1576040517f08c379a00000000000000000000000000000000000000000000000000000000081526004016110b8906133bd565b60405180910390fd5b600360008373ffffffffffffffffffffffffffffffffffffffff1673ffffffffffffffffffffffffffffffffffffffff168152602001908152602001600020549050919050565b606033600660009054906101000a900473ffffffffffffffffffffffffffffffffffffffff1673ffffffffffffffffffffffffffffffffffffffff168173ffffffffffffffffffffffffffffffffffffffff161461119b576040517f08c379a0000000000000000000000000000000000000000000000000000000008152600401611192906134bd565b60405180910390fd5b600b80546111a89061384b565b80601f01602080910402602001604051908101604052809291908181526020018280546111d49061384b565b80156112215780601f106111f657610100808354040283529160200191611221565b820191906000526020600020905b81548152906001019060200180831161120457829003601f168201915b505050505091505090565b603f6020528060005260406000206000915054906101000a900460ff1681565b603e6020528060005260406000206000915054906101000a900460ff1681565b600660009054906101000a900473ffffffffffffffffffffffffffffffffffffffff1681565b6060600180546112a19061384b565b80601f01602080910402602001604051908101604052809291908181526020018280546112cd9061384b565b801561131a5780601f106112ef5761010080835404028352916020019161131a565b820191906000526020600020905b8154815290600101906020018083116112fd57829003601f168201915b5050505050905090565b806001151561133282610c98565b151514611374576040517f08c379a000000000000000000000000000000000000000000000000000000000815260040161136b9061331d565b60405180910390fd5b818361137f8261079c565b81111561138b57600080fd5b600061139685610e9e565b9050600660009054906101000a900473ffffffffffffffffffffffffffffffffffffffff1673ffffffffffffffffffffffffffffffffffffffff163373ffffffffffffffffffffffffffffffffffffffff161461143b5785816113f991906136a2565b341461143a576040517f08c379a00000000000000000000000000000000000000000000000000000000081526004016114319061347d565b60405180910390fd5b5b600061144688611dcf565b90506000603754905060005b88811015611525578180611465906138ae565b9250506114728a83611ea0565b61147a61207a565b603f600084815260200190815260200160002060006101000a81548160ff021916908360ff1602179055506114af81846120f5565b603e600084815260200190815260200160002060006101000a81548160ff0219169083151502179055507fdd3ee52e93d2f67c75859dd03ba44fbae095a9deba7e791d4a8e331f114bce38828b60405161150a9291906134f8565b60405180910390a1808061151d906138ae565b915050611452565b5080603781905550505050505050505050565b61154a6115436118ac565b83836121e2565b5050565b61155f6115596118ac565b8361196d565b61159e576040517f08c379a00000000000000000000000000000000000000000000000000000000081526004016115959061349d565b60405180910390fd5b6115aa8484848461234f565b50505050565b60606115bb82611840565b6115fa576040517f08c379a00000000000000000000000000000000000000000000000000000000081526004016115f19061343d565b60405180910390fd5b6000600b80546116099061384b565b9050116116255760405180602001604052806000815250611651565b600b611630836123ab565b60405160200161164192919061317d565b6040516020818303038152906040525b9050919050565b33600660009054906101000a900473ffffffffffffffffffffffffffffffffffffffff1673ffffffffffffffffffffffffffffffffffffffff168173ffffffffffffffffffffffffffffffffffffffff16146116e9576040517f08c379a00000000000000000000000000000000000000000000000000000000081526004016116e0906134bd565b60405180910390fd5b82602f6001846116f99190613730565b60ff1660088110611733577f4e487b7100000000000000000000000000000000000000000000000000000000600052603260045260246000fd5b0181905550505050565b6000600560008473ffffffffffffffffffffffffffffffffffffffff1673ffffffffffffffffffffffffffffffffffffffff16815260200190815260200160002060008373ffffffffffffffffffffffffffffffffffffffff1673ffffffffffffffffffffffffffffffffffffffff16815260200190815260200160002060009054906101000a900460ff16905092915050565b505050565b60007f01ffc9a7000000000000000000000000000000000000000000000000000000007bffffffffffffffffffffffffffffffffffffffffffffffffffffffff1916827bffffffffffffffffffffffffffffffffffffffffffffffffffffffff1916149050919050565b60008073ffffffffffffffffffffffffffffffffffffffff166002600084815260200190815260200160002060009054906101000a900473ffffffffffffffffffffffffffffffffffffffff1673ffffffffffffffffffffffffffffffffffffffff1614159050919050565b600033905090565b816004600083815260200190815260200160002060006101000a81548173ffffffffffffffffffffffffffffffffffffffff021916908373ffffffffffffffffffffffffffffffffffffffff160217905550808273ffffffffffffffffffffffffffffffffffffffff1661192783610f9e565b73ffffffffffffffffffffffffffffffffffffffff167f8c5be1e5ebec7d5bd14f71427d1e84f3dd0314c0f7b2291e5b200ac8c7c3b92560405160405180910390a45050565b600061197882611840565b6119b7576040517f08c379a00000000000000000000000000000000000000000000000000000000081526004016119ae9061337d565b60405180910390fd5b60006119c283610f9e565b90508073ffffffffffffffffffffffffffffffffffffffff168473ffffffffffffffffffffffffffffffffffffffff161480611a3157508373ffffffffffffffffffffffffffffffffffffffff16611a19846109b9565b73ffffffffffffffffffffffffffffffffffffffff16145b80611a425750611a41818561173d565b5b91505092915050565b8273ffffffffffffffffffffffffffffffffffffffff16611a6b82610f9e565b73ffffffffffffffffffffffffffffffffffffffff1614611ac1576040517f08c379a0000000000000000000000000000000000000000000000000000000008152600401611ab8906132dd565b60405180910390fd5b600073ffffffffffffffffffffffffffffffffffffffff168273ffffffffffffffffffffffffffffffffffffffff161415611b31576040517f08c379a0000000000000000000000000000000000000000000000000000000008152600401611b289061333d565b60405180910390fd5b611b3c838383612558565b611b476000826118b4565b6001600360008573ffffffffffffffffffffffffffffffffffffffff1673ffffffffffffffffffffffffffffffffffffffff1681526020019081526020016000206000828254611b9791906136fc565b925050819055506001600360008473ffffffffffffffffffffffffffffffffffffffff1673ffffffffffffffffffffffffffffffffffffffff1681526020019081526020016000206000828254611bee919061361b565b92505081905550816002600083815260200190815260200160002060006101000a81548173ffffffffffffffffffffffffffffffffffffffff021916908373ffffffffffffffffffffffffffffffffffffffff160217905550808273ffffffffffffffffffffffffffffffffffffffff168473ffffffffffffffffffffffffffffffffffffffff167fddf252ad1be2c89b69c2b068fc378daa952ba7f163c4a11628f55a4df523b3ef60405160405180910390a4611cad83838361255d565b505050565b6000611cbd82610f9e565b9050611ccb81600084612558565b611cd66000836118b4565b6001600360008373ffffffffffffffffffffffffffffffffffffffff1673ffffffffffffffffffffffffffffffffffffffff1681526020019081526020016000206000828254611d2691906136fc565b925050819055506002600083815260200190815260200160002060006101000a81549073ffffffffffffffffffffffffffffffffffffffff021916905581600073ffffffffffffffffffffffffffffffffffffffff168273ffffffffffffffffffffffffffffffffffffffff167fddf252ad1be2c89b69c2b068fc378daa952ba7f163c4a11628f55a4df523b3ef60405160405180910390a4611dcb8160008461255d565b5050565b600080600860009054906101000a900473ffffffffffffffffffffffffffffffffffffffff1673ffffffffffffffffffffffffffffffffffffffff16630cb98b718460026040518363ffffffff1660e01b8152600401611e3092919061322e565b60206040518083038186803b158015611e4857600080fd5b505afa158015611e5c573d6000803e3d6000fd5b505050506040513d601f19601f82011682018060405250810190611e809190612cfd565b90506000811415611e95576000915050611e9b565b60019150505b919050565b600073ffffffffffffffffffffffffffffffffffffffff168273ffffffffffffffffffffffffffffffffffffffff161415611f10576040517f08c379a0000000000000000000000000000000000000000000000000000000008152600401611f07906133fd565b60405180910390fd5b611f1981611840565b15611f59576040517f08c379a0000000000000000000000000000000000000000000000000000000008152600401611f50906132fd565b60405180910390fd5b611f6560008383612558565b6001600360008473ffffffffffffffffffffffffffffffffffffffff1673ffffffffffffffffffffffffffffffffffffffff1681526020019081526020016000206000828254611fb5919061361b565b92505081905550816002600083815260200190815260200160002060006101000a81548173ffffffffffffffffffffffffffffffffffffffff021916908373ffffffffffffffffffffffffffffffffffffffff160217905550808273ffffffffffffffffffffffffffffffffffffffff16600073ffffffffffffffffffffffffffffffffffffffff167fddf252ad1be2c89b69c2b068fc378daa952ba7f163c4a11628f55a4df523b3ef60405160405180910390a46120766000838361255d565b5050565b6000806040518060800160405280600160ff168152602001600260ff168152602001600360ff168152602001600460ff168152509050806000600481106120ea577f4e487b7100000000000000000000000000000000000000000000000000000000600052603260045260246000fd5b602002015191505090565b6000811561216a576000600d60018561210e91906136fc565b60058110612145577f4e487b7100000000000000000000000000000000000000000000000000000000600052603260045260246000fd5b602091828204019190069054906101000a900460ff1660ff16905060019150506121dc565b6000600e60018561217b91906136fc565b600581106121b2577f4e487b7100000000000000000000000000000000000000000000000000000000600052603260045260246000fd5b600891828204019190066004029054906101000a900463ffffffff1663ffffffff16905060009150505b92915050565b8173ffffffffffffffffffffffffffffffffffffffff168373ffffffffffffffffffffffffffffffffffffffff161415612251576040517f08c379a00000000000000000000000000000000000000000000000000000000081526004016122489061335d565b60405180910390fd5b80600560008573ffffffffffffffffffffffffffffffffffffffff1673ffffffffffffffffffffffffffffffffffffffff16815260200190815260200160002060008473ffffffffffffffffffffffffffffffffffffffff1673ffffffffffffffffffffffffffffffffffffffff16815260200190815260200160002060006101000a81548160ff0219169083151502179055508173ffffffffffffffffffffffffffffffffffffffff168373ffffffffffffffffffffffffffffffffffffffff167f17307eab39ab6107e8899845ad3d59bd9653f200f220920489ca2b5937696c31836040516123429190613280565b60405180910390a3505050565b61235a848484611a4b565b61236684848484612562565b6123a5576040517f08c379a000000000000000000000000000000000000000000000000000000000815260040161239c906132bd565b60405180910390fd5b50505050565b606060008214156123f3576040518060400160405280600181526020017f30000000000000000000000000000000000000000000000000000000000000008152509050612553565b600082905060005b6000821461242557808061240e906138ae565b915050600a8261241e9190613671565b91506123fb565b60008167ffffffffffffffff811115612467577f4e487b7100000000000000000000000000000000000000000000000000000000600052604160045260246000fd5b6040519080825280601f01601f1916602001820160405280156124995781602001600182028036833780820191505090505b5090505b6000851461254c576001826124b291906136fc565b9150600a856124c191906138f7565b60306124cd919061361b565b60f81b818381518110612509577f4e487b7100000000000000000000000000000000000000000000000000000000600052603260045260246000fd5b60200101907effffffffffffffffffffffffffffffffffffffffffffffffffffffffffffff1916908160001a905350600a856125459190613671565b945061249d565b8093505050505b919050565b505050565b505050565b60006125838473ffffffffffffffffffffffffffffffffffffffff166126f9565b156126ec578373ffffffffffffffffffffffffffffffffffffffff1663150b7a026125ac6118ac565b8786866040518563ffffffff1660e01b81526004016125ce94939291906131e2565b602060405180830381600087803b1580156125e857600080fd5b505af192505050801561261957506040513d601f19601f820116820180604052508101906126169190612c6a565b60015b61269c573d8060008114612649576040519150601f19603f3d011682016040523d82523d6000602084013e61264e565b606091505b50600081511415612694576040517f08c379a000000000000000000000000000000000000000000000000000000000815260040161268b906132bd565b60405180910390fd5b805181602001fd5b63150b7a0260e01b7bffffffffffffffffffffffffffffffffffffffffffffffffffffffff1916817bffffffffffffffffffffffffffffffffffffffffffffffffffffffff1916149150506126f1565b600190505b949350505050565b6000808273ffffffffffffffffffffffffffffffffffffffff163b119050919050565b8280546127289061384b565b90600052602060002090601f01602090048101928261274a5760008555612791565b82601f1061276357805160ff1916838001178555612791565b82800160010185558215612791579182015b82811115612790578251825591602001919060010190612775565b5b50905061279e91906127a2565b5090565b5b808211156127bb5760008160009055506001016127a3565b5090565b60006127d26127cd84613561565b61353c565b9050828152602081018484840111156127ea57600080fd5b6127f5848285613809565b509392505050565b600061281061280b84613592565b61353c565b90508281526020810184848401111561282857600080fd5b612833848285613809565b509392505050565b60008135905061284a81613e53565b92915050565b60008135905061285f81613e6a565b92915050565b60008135905061287481613e81565b92915050565b60008135905061288981613e98565b92915050565b60008151905061289e81613e98565b92915050565b600082601f8301126128b557600080fd5b81356128c58482602086016127bf565b91505092915050565b600082601f8301126128df57600080fd5b81356128ef8482602086016127fd565b91505092915050565b60008135905061290781613eaf565b92915050565b60008151905061291c81613eaf565b92915050565b60008135905061293181613ec6565b92915050565b60006020828403121561294957600080fd5b60006129578482850161283b565b91505092915050565b6000806040838503121561297357600080fd5b600061298185828601612850565b9250506020612992858286016128f8565b9150509250929050565b600080604083850312156129af57600080fd5b60006129bd8582860161283b565b92505060206129ce8582860161283b565b9150509250929050565b6000806000606084860312156129ed57600080fd5b60006129fb8682870161283b565b9350506020612a0c8682870161283b565b9250506040612a1d868287016128f8565b9150509250925092565b60008060008060808587031215612a3d57600080fd5b6000612a4b8782880161283b565b9450506020612a5c8782880161283b565b9350506040612a6d878288016128f8565b925050606085013567ffffffffffffffff811115612a8a57600080fd5b612a96878288016128a4565b91505092959194509250565b60008060408385031215612ab557600080fd5b6000612ac38582860161283b565b9250506020612ad485828601612865565b9150509250929050565b60008060408385031215612af157600080fd5b6000612aff8582860161283b565b9250506020612b10858286016128f8565b9150509250929050565b600080600060608486031215612b2f57600080fd5b6000612b3d8682870161283b565b9350506020612b4e868287016128f8565b9250506040612b5f868287016128f8565b9150509250925092565b60008060008060008060c08789031215612b8257600080fd5b6000612b9089828a0161283b565b9650506020612ba189828a016128f8565b9550506040612bb289828a016128f8565b9450506060612bc389828a016128f8565b9350506080612bd489828a016128f8565b92505060a0612be589828a016128f8565b9150509295509295509295565b600080600060608486031215612c0757600080fd5b6000612c158682870161283b565b9350506020612c26868287016128f8565b9250506040612c3786828701612922565b9150509250925092565b600060208284031215612c5357600080fd5b6000612c618482850161287a565b91505092915050565b600060208284031215612c7c57600080fd5b6000612c8a8482850161288f565b91505092915050565b600060208284031215612ca557600080fd5b600082013567ffffffffffffffff811115612cbf57600080fd5b612ccb848285016128ce565b91505092915050565b600060208284031215612ce657600080fd5b6000612cf4848285016128f8565b91505092915050565b600060208284031215612d0f57600080fd5b6000612d1d8482850161290d565b91505092915050565b60008060408385031215612d3957600080fd5b6000612d47858286016128f8565b9250506020612d5885828601612922565b9150509250929050565b600060208284031215612d7457600080fd5b6000612d8284828501612922565b91505092915050565b612d9481613776565b82525050565b612da381613764565b82525050565b612db281613788565b82525050565b6000612dc3826135d8565b612dcd81856135ee565b9350612ddd818560208601613818565b612de6816139e4565b840191505092915050565b612dfa816137f7565b82525050565b6000612e0b826135e3565b612e1581856135ff565b9350612e25818560208601613818565b612e2e816139e4565b840191505092915050565b6000612e44826135e3565b612e4e8185613610565b9350612e5e818560208601613818565b80840191505092915050565b60008154612e778161384b565b612e818186613610565b94506001821660008114612e9c5760018114612ead57612ee0565b60ff19831686528186019350612ee0565b612eb6856135c3565b60005b83811015612ed857815481890152600182019150602081019050612eb9565b838801955050505b50505092915050565b6000612ef66032836135ff565b9150612f01826139f5565b604082019050919050565b6000612f196025836135ff565b9150612f2482613a44565b604082019050919050565b6000612f3c601c836135ff565b9150612f4782613a93565b602082019050919050565b6000612f5f6010836135ff565b9150612f6a82613abc565b602082019050919050565b6000612f826024836135ff565b9150612f8d82613ae5565b604082019050919050565b6000612fa56019836135ff565b9150612fb082613b34565b602082019050919050565b6000612fc8602c836135ff565b9150612fd382613b5d565b604082019050919050565b6000612feb6038836135ff565b9150612ff682613bac565b604082019050919050565b600061300e602a836135ff565b915061301982613bfb565b604082019050919050565b60006130316029836135ff565b915061303c82613c4a565b604082019050919050565b60006130546020836135ff565b915061305f82613c99565b602082019050919050565b6000613077602c836135ff565b915061308282613cc2565b604082019050919050565b600061309a6012836135ff565b91506130a582613d11565b602082019050919050565b60006130bd600583613610565b91506130c882613d3a565b600582019050919050565b60006130e06021836135ff565b91506130eb82613d63565b604082019050919050565b60006131036013836135ff565b915061310e82613db2565b602082019050919050565b60006131266031836135ff565b915061313182613ddb565b604082019050919050565b60006131496011836135ff565b915061315482613e2a565b602082019050919050565b613168816137e0565b82525050565b613177816137ea565b82525050565b60006131898285612e6a565b91506131958284612e39565b91506131a0826130b0565b91508190509392505050565b60006020820190506131c16000830184612d9a565b92915050565b60006020820190506131dc6000830184612d8b565b92915050565b60006080820190506131f76000830187612d9a565b6132046020830186612d9a565b613211604083018561315f565b81810360608301526132238184612db8565b905095945050505050565b60006040820190506132436000830185612d9a565b6132506020830184612df1565b9392505050565b600060408201905061326c6000830185612d9a565b613279602083018461315f565b9392505050565b60006020820190506132956000830184612da9565b92915050565b600060208201905081810360008301526132b58184612e00565b905092915050565b600060208201905081810360008301526132d681612ee9565b9050919050565b600060208201905081810360008301526132f681612f0c565b9050919050565b6000602082019050818103600083015261331681612f2f565b9050919050565b6000602082019050818103600083015261333681612f52565b9050919050565b6000602082019050818103600083015261335681612f75565b9050919050565b6000602082019050818103600083015261337681612f98565b9050919050565b6000602082019050818103600083015261339681612fbb565b9050919050565b600060208201905081810360008301526133b681612fde565b9050919050565b600060208201905081810360008301526133d681613001565b9050919050565b600060208201905081810360008301526133f681613024565b9050919050565b6000602082019050818103600083015261341681613047565b9050919050565b600060208201905081810360008301526134368161306a565b9050919050565b600060208201905081810360008301526134568161308d565b9050919050565b60006020820190508181036000830152613476816130d3565b9050919050565b60006020820190508181036000830152613496816130f6565b9050919050565b600060208201905081810360008301526134b681613119565b9050919050565b600060208201905081810360008301526134d68161313c565b9050919050565b60006020820190506134f2600083018461315f565b92915050565b600060408201905061350d600083018561315f565b61351a6020830184612d9a565b9392505050565b6000602082019050613536600083018461316e565b92915050565b6000613546613557565b9050613552828261387d565b919050565b6000604051905090565b600067ffffffffffffffff82111561357c5761357b6139b5565b5b613585826139e4565b9050602081019050919050565b600067ffffffffffffffff8211156135ad576135ac6139b5565b5b6135b6826139e4565b9050602081019050919050565b60008190508160005260206000209050919050565b600081519050919050565b600081519050919050565b600082825260208201905092915050565b600082825260208201905092915050565b600081905092915050565b6000613626826137e0565b9150613631836137e0565b9250827fffffffffffffffffffffffffffffffffffffffffffffffffffffffffffffffff0382111561366657613665613928565b5b828201905092915050565b600061367c826137e0565b9150613687836137e0565b92508261369757613696613957565b5b828204905092915050565b60006136ad826137e0565b91506136b8836137e0565b9250817fffffffffffffffffffffffffffffffffffffffffffffffffffffffffffffffff04831182151516156136f1576136f0613928565b5b828202905092915050565b6000613707826137e0565b9150613712836137e0565b92508282101561372557613724613928565b5b828203905092915050565b600061373b826137ea565b9150613746836137ea565b92508282101561375957613758613928565b5b828203905092915050565b600061376f826137c0565b9050919050565b6000613781826137c0565b9050919050565b60008115159050919050565b60007fffffffff0000000000000000000000000000000000000000000000000000000082169050919050565b600073ffffffffffffffffffffffffffffffffffffffff82169050919050565b6000819050919050565b600060ff82169050919050565b6000613802826137ea565b9050919050565b82818337600083830152505050565b60005b8381101561383657808201518184015260208101905061381b565b83811115613845576000848401525b50505050565b6000600282049050600182168061386357607f821691505b6020821081141561387757613876613986565b5b50919050565b613886826139e4565b810181811067ffffffffffffffff821117156138a5576138a46139b5565b5b80604052505050565b60006138b9826137e0565b91507fffffffffffffffffffffffffffffffffffffffffffffffffffffffffffffffff8214156138ec576138eb613928565b5b600182019050919050565b6000613902826137e0565b915061390d836137e0565b92508261391d5761391c613957565b5b828206905092915050565b7f4e487b7100000000000000000000000000000000000000000000000000000000600052601160045260246000fd5b7f4e487b7100000000000000000000000000000000000000000000000000000000600052601260045260246000fd5b7f4e487b7100000000000000000000000000000000000000000000000000000000600052602260045260246000fd5b7f4e487b7100000000000000000000000000000000000000000000000000000000600052604160045260246000fd5b6000601f19601f8301169050919050565b7f4552433732313a207472616e7366657220746f206e6f6e20455243373231526560008201527f63656976657220696d706c656d656e7465720000000000000000000000000000602082015250565b7f4552433732313a207472616e736665722066726f6d20696e636f72726563742060008201527f6f776e6572000000000000000000000000000000000000000000000000000000602082015250565b7f4552433732313a20746f6b656e20616c7265616479206d696e74656400000000600082015250565b7f4e6f74204d696e7461626c652044657800000000000000000000000000000000600082015250565b7f4552433732313a207472616e7366657220746f20746865207a65726f2061646460008201527f7265737300000000000000000000000000000000000000000000000000000000602082015250565b7f4552433732313a20617070726f766520746f2063616c6c657200000000000000600082015250565b7f4552433732313a206f70657261746f7220717565727920666f72206e6f6e657860008201527f697374656e7420746f6b656e0000000000000000000000000000000000000000602082015250565b7f4552433732313a20617070726f76652063616c6c6572206973206e6f74206f7760008201527f6e6572206e6f7220617070726f76656420666f7220616c6c0000000000000000602082015250565b7f4552433732313a2062616c616e636520717565727920666f7220746865207a6560008201527f726f206164647265737300000000000000000000000000000000000000000000602082015250565b7f4552433732313a206f776e657220717565727920666f72206e6f6e657869737460008201527f656e7420746f6b656e0000000000000000000000000000000000000000000000602082015250565b7f4552433732313a206d696e7420746f20746865207a65726f2061646472657373600082015250565b7f4552433732313a20617070726f76656420717565727920666f72206e6f6e657860008201527f697374656e7420746f6b656e0000000000000000000000000000000000000000602082015250565b7f4e6f6e6578697374656e7420746f6b656e210000000000000000000000000000600082015250565b7f2e6a736f6e000000000000000000000000000000000000000000000000000000600082015250565b7f4552433732313a20617070726f76616c20746f2063757272656e74206f776e6560008201527f7200000000000000000000000000000000000000000000000000000000000000602082015250565b7f4e6f7420456e6f7567682042616c616e63652100000000000000000000000000600082015250565b7f4552433732313a207472616e736665722063616c6c6572206973206e6f74206f60008201527f776e6572206e6f7220617070726f766564000000000000000000000000000000602082015250565b7f4e6f742061206f776e65722063616c6c21000000000000000000000000000000600082015250565b613e5c81613764565b8114613e6757600080fd5b50565b613e7381613776565b8114613e7e57600080fd5b50565b613e8a81613788565b8114613e9557600080fd5b50565b613ea181613794565b8114613eac57600080fd5b50565b613eb8816137e0565b8114613ec357600080fd5b50565b613ecf816137ea565b8114613eda57600080fd5b5056fea26469706673582212207356b317e26c1a410f8cb36f167d81db54559c39db4d1cae7f12eb3788223cda64736f6c63430008020033",
  "immutableReferences": {},
  "source": "// SPDX-License-Identifier: MIT\npragma solidity ^0.8.2;\nimport \"@openzeppelin/contracts/token/ERC721/ERC721.sol\";\n\n\ninterface ItemContract {\n    function getFloorPrice(uint8 _itemType) external view returns (uint256);\n    function specificItemOwnership(address _owner, uint8 _itemType) external view returns (uint256);\n}\n\n\n// Pick during the meeting 1/10000\n// Shiny logic (every mint reset, if you have lucky totem higher chance, if you mintQuantity 10, it increments the probability of minting shiny on each loop of mint\n\n// Before the personalities in 1/10 chance call the chainlink contract \n// Batch actions\n\n\n\ncontract Metamon is ERC721 {\n    using Strings for uint256;\n\n    address payable public owner;\n    address _itemContractAddress = 0x1E6059Ec57aE39D2C73E5C3821a26FAFfD68E016; // TODO: we will hardcode it for now\n    \n    ItemContract _item = ItemContract(_itemContractAddress);  // TODO: move this declaration outside of this function\n\n\n    string private itemBaseURI;\n    string private metamonBaseURI;\n    string private baseURI;\n\n    event ReceivedEth(address _reciever, uint256 _value);\n    event MetamonMint(uint256 _tokenId, address _reciever);\n    event MetamonBurn(uint256 _tokenId, uint8 _dexId, address _burner);\n\n    uint8 public currentMintPhase = 1;\n    uint8[5] private withLuckyTotem = [99, 98, 97, 96, 95];  // TODO: total count of 100 probabilities \n    uint32[5] private withoutLuckyTotem = [296, 292, 288, 284, 280];  // TODO: total number of 100 probabilities\n    uint256[8] private metamonDex = [1, 2, 3, 4, 7, 10, 11, 13]; // REPR: METAMONT DEX NUMBERS\n    uint256[8] private metamonSupply = [1000, 0, 0, 2000, 1000, 3000, 4000, 1000]; // REPR: STARTS FROM TOKEN IDS\n    uint256[8] private metamonMinted = [1, 1, 1, 1, 1, 1, 1, 1]; // REPR: STARTS FROM TOKEN IDS\n    uint256[8] private metamonMintable = [1, 0, 0, 1, 0, 0, 0, 1]; // REPR: DIRECTLY MINTABLE METAMON DEXIDS\n    uint256[8] private metamonFloor = [.05 ether, 0 ether, 0 ether, .025 ether, 0.035 ether, 0.045 ether, 0.055 ether, 0.065 ether];\n\n    uint256 _tokenIds;\n\n    mapping(uint8 => uint256[]) private metamonMintPhases; // REPR: Metamon mint phases by DAX numbers;\n    mapping(uint256 => uint256) private familyMetamon; // REPR: Metamon evalution trees \n\n    mapping(uint256 => uint256) private itemEvaluation; // REPR: Which item needed for which metamon evalution\n    mapping(uint256 => uint256) private burnEvaluation; // REPR: How many metamon balance needed for evalution for next metamon dex\n\n    mapping(address => uint256) private _collectedItems; // MINTING FIRST CHECK IF ADDRESS COLLEDTED ANY ITEMS BEFORE\n    mapping(address => uint256) private _collectedDex; // TOTAL COLLECTED DAX ITEMS IMPORTANT TO IDENTIFY SHINY LOGIC\n\n    mapping(uint256 => bool) public metamonInfoShiny; // REPR: Holds the info about If the minted metamon was shiny or not\n    mapping(uint256 => uint8) public metamonInfoPersonality; // REPR: Holds the info about the personality of the metamon\n\n    constructor() payable ERC721(\"Metamon NFT\", \"NFT\") {\n        owner = payable(msg.sender);\n        // FILLING INFORMATION OF METAMAN AND EVALUATION\n        burnEvaluation[1] = 2;\n        burnEvaluation[2] = 3;\n        familyMetamon[1] = 2;\n        familyMetamon[2] = 3;\n        // ****************\n        burnEvaluation[4] = 2;\n        burnEvaluation[5] = 3;\n        familyMetamon[4] = 5;\n        familyMetamon[5] = 6;\n        // ****************\n        metamonMintPhases[1] = [1, 4, 7, 20, 86, 133];\n        // ****************\n        burnEvaluation[129] = 5; // i.e. 5 #DEX129 has to burned for #DEX139\n    }\n\n    modifier onlyOwner(address sender) {\n        require(sender == owner, \"Not a owner call!\");\n        _;\n    }\n\n    ///////////////////////////////////////////////////////////////////////////\n    // State Changes\n    ///////////////////////////////////////////////////////////////////////////\n    function changeFloorPrice(\n        uint256 _new_price,\n        uint8 _dexId\n    )\n        external\n        onlyOwner(msg.sender)\n    {\n        // _type 1 represents \"ITEMS\" _type 2 represents \"Metamon\"\n        // _index tell which \"ITEM\" or \"Metamon\" starts from 0, 1, 2, 3, ... 7\n        metamonFloor[_dexId - 1] = _new_price;\n    }\n\n    ///////////////////////////////////////////////////////////////////////////\n    // State Info\n    ///////////////////////////////////////////////////////////////////////////\n    function getFloorPrice(uint8 _dexId)\n        public\n        view\n        returns (uint256)\n    {\n        return metamonFloor[_dexId - 1];\n    }\n \n    function getWalletBalance()\n        public\n        view\n        onlyOwner(msg.sender)\n        returns (uint256)\n    {\n        return address(this).balance;\n    }\n\n    function getSupplyDex(uint8 _dexId)\n        public\n        view \n        returns (uint256)\n    {\n        return metamonSupply[_dexId - 1] - metamonMinted[_dexId - 1];\n    }\n    \n    ///////////////////////////////////////////////////////////////////////////\n    // Contract ETH Deals\n    ///////////////////////////////////////////////////////////////////////////\n    fallback() external payable {}\n\n    receive() external payable {\n        emit ReceivedEth(msg.sender, msg.value);\n    }\n\n    function transferContractBalance(\n        address payable _recipient,\n        uint256 _amount\n    ) external onlyOwner(msg.sender) returns (bool) {\n        require(_amount <= getWalletBalance(), \"Not Enough Balance!\");\n        _recipient.transfer(_amount);\n        return true;\n    }\n\n    ///////////////////////////////////////////////////////////////////////////\n    // Meta Data Related\n    ///////////////////////////////////////////////////////////////////////////\n    function setBaseURI(string memory _baseURILink)\n        external\n        onlyOwner(msg.sender)\n    {\n        baseURI = _baseURILink;\n    }\n\n    function getBaseURI()\n        external\n        view\n        onlyOwner(msg.sender)\n        returns (string memory)\n    {\n        return baseURI;\n    }\n\n    function _baseURI() internal view virtual override returns (string memory) {\n        // We will have different baseURIs for Item and Metamon \n        // TODO: move items into different collection\n        return baseURI;\n    }\n\n    function tokenURI(uint256 tokenId)\n        public\n        view\n        virtual\n        override\n        returns (string memory)\n    {\n        require(_exists(tokenId), \"Nonexistent token!\");\n        // We can retrieve the information about token id \n        // -> is it Item or Metamon\n        // -> what is the dax number\n        // -> based on the information that we retrieve we will return base_uri\n        // TODO: move items into different collection\n\n        return\n            bytes(baseURI).length > 0\n                ? string(abi.encodePacked(baseURI, tokenId.toString(), \".json\"))\n                : \"\";\n    }\n\n    ///////////////////////////////////////////////////////////////////////////\n    // Mint / Randomness Mockup TODO: remove this section when Coinbase Implementation\n    ///////////////////////////////////////////////////////////////////////////\n    function _mockupRandomPersonality() internal pure returns(uint8) {\n        uint8[4] memory personality = [1, 2, 3, 4];\n        return personality[0];\n    }\n\n    function _mockupRandomShiny(uint256 _quantity, bool lucky) internal view returns(bool) {\n        // TODO: randomness comes from the loop\n        if (lucky){\n            uint256 probability = withLuckyTotem[_quantity - 1];\n            // TODO: there should be some randomness based on the probability\n            return true;\n        } else {\n            uint256 probability = withoutLuckyTotem[_quantity - 1];\n            // TODO: there should be some randomness based on the probability\n            return false;\n        }\n        \n    }\n\n    function _checkLuckyOwnership(address _recipient) internal view returns (bool){\n        // TODO: lucky item hardcoded as \"2\" for this \n        uint256 total_ownership = _item.specificItemOwnership(_recipient, 2); // Checks whether Lucky Totem has been owned/or not\n        if (total_ownership == 0){\n            return false;\n        } else {\n            return true;\n        }\n    }\n\n    ///////////////////////////////////////////////////////////////////////////\n    // Mint / Burn Phases\n    ///////////////////////////////////////////////////////////////////////////\n    function burn(uint256 _value) public {\n        _burn(_value);\n    }\n\n    function mintableDex(uint8 _dexId) public view returns(bool){\n        // Helper functions checks if Dex Id can be mintable for current mint phase\n        for (uint i=0; i < metamonMintPhases[currentMintPhase].length; i ++){\n            if (_dexId == metamonMintPhases[currentMintPhase][i]){\n                return true;\n            }\n        }\n        return false;\n    }\n\n    modifier mintableDexPhase(uint8 _dexId) {\n        require(mintableDex(_dexId) == true, 'Not Mintable Dex');\n        _;\n    }\n\n    modifier mintableSupply(uint8 _dexId, uint256 _quantity){\n        require(_quantity <= getSupplyDex(_dexId));\n        _;\n    }\n\n    function mintSale(\n            address _recipient, \n            uint256 _quantity,\n            uint8 _dexId\n\n        ) public payable mintableDexPhase(_dexId) mintableSupply(_dexId, _quantity) {\n        // TODO: after minting make sure to push token information into mapping\n        uint256 floorPrice = getFloorPrice(_dexId);\n        if (msg.sender != owner) {\n            require(msg.value == floorPrice * _quantity, \"Not Enough Balance!\");\n        }\n        \n        bool lucky = _checkLuckyOwnership(_recipient);\n        uint256 j = _tokenIds;\n        for (uint256 i = 0; i < _quantity; i++) {\n            j++;\n            _mint(_recipient, j);\n            metamonInfoPersonality[j] = _mockupRandomPersonality();\n            metamonInfoShiny[j]= _mockupRandomShiny(i, lucky);\n            emit MetamonMint(j, _recipient);\n        }\n        _tokenIds = j;\n    }\n\n    function evalutionItemBurn(\n        address _recipient,\n        uint256 _sendTokenId,\n        uint256 _sendDaxId\n    ) public {\n        // TODO: burn metamon and item together\n    }\n\n    function evalutionMetaBurn(\n        address _recipient, \n        uint256 _sendTokenId, \n        uint256 _sendDaxId, \n        uint256 _quantitySend,  \n        uint256 _targetDax, \n        uint256 _itemTokenId\n        ) public {\n        // TODO: only burn metamon\n        // check whether owner has item token\n        \n        // burn(_send, TokenId);\n        // uint256 _evaluationToken = burnEvaluation[_sendDaxId];\n        // uint256 _tokenIds = _tokenIds + 1;\n        // _mint(_recipient, _tokenIds);\n    }\n}",
  "sourcePath": "/Users/aipek/Documents/metamon_contracts/contracts/Metamon.sol",
  "compiler": {
    "name": "solc",
    "version": "0.8.2+commit.661d1103.Emscripten.clang"
  },
  "schemaVersion": "3.4.4",
  "updatedAt": "2022-02-26T12:03:30.778Z",
  "networkType": "ethereum",
  "devdoc": {
    "kind": "dev",
    "methods": {
      "approve(address,uint256)": {
        "details": "See {IERC721-approve}."
      },
      "balanceOf(address)": {
        "details": "See {IERC721-balanceOf}."
      },
      "getApproved(uint256)": {
        "details": "See {IERC721-getApproved}."
      },
      "isApprovedForAll(address,address)": {
        "details": "See {IERC721-isApprovedForAll}."
      },
      "name()": {
        "details": "See {IERC721Metadata-name}."
      },
      "ownerOf(uint256)": {
        "details": "See {IERC721-ownerOf}."
      },
      "safeTransferFrom(address,address,uint256)": {
        "details": "See {IERC721-safeTransferFrom}."
      },
      "safeTransferFrom(address,address,uint256,bytes)": {
        "details": "See {IERC721-safeTransferFrom}."
      },
      "setApprovalForAll(address,bool)": {
        "details": "See {IERC721-setApprovalForAll}."
      },
      "supportsInterface(bytes4)": {
        "details": "See {IERC165-supportsInterface}."
      },
      "symbol()": {
        "details": "See {IERC721Metadata-symbol}."
      },
      "tokenURI(uint256)": {
        "details": "See {IERC721Metadata-tokenURI}."
      },
      "transferFrom(address,address,uint256)": {
        "details": "See {IERC721-transferFrom}."
      }
    },
    "version": 1
  },
  "userdoc": {
    "kind": "user",
    "methods": {},
    "version": 1
  }
}