{
  "contractName": "Metamon",
  "abi": [
    {
      "inputs": [],
      "stateMutability": "payable",
      "type": "constructor",
      "payable": true
    },
    {
      "anonymous": false,
      "inputs": [
        {
          "indexed": true,
          "internalType": "address",
          "name": "owner",
          "type": "address"
        },
        {
          "indexed": true,
          "internalType": "address",
          "name": "approved",
          "type": "address"
        },
        {
          "indexed": true,
          "internalType": "uint256",
          "name": "tokenId",
          "type": "uint256"
        }
      ],
      "name": "Approval",
      "type": "event"
    },
    {
      "anonymous": false,
      "inputs": [
        {
          "indexed": true,
          "internalType": "address",
          "name": "owner",
          "type": "address"
        },
        {
          "indexed": true,
          "internalType": "address",
          "name": "operator",
          "type": "address"
        },
        {
          "indexed": false,
          "internalType": "bool",
          "name": "approved",
          "type": "bool"
        }
      ],
      "name": "ApprovalForAll",
      "type": "event"
    },
    {
      "anonymous": false,
      "inputs": [
        {
          "indexed": false,
          "internalType": "uint256",
          "name": "_tokenId",
          "type": "uint256"
        },
        {
          "indexed": false,
          "internalType": "uint8",
          "name": "_dexId",
          "type": "uint8"
        },
        {
          "indexed": false,
          "internalType": "address",
          "name": "_burner",
          "type": "address"
        }
      ],
      "name": "MetamonBurn",
      "type": "event"
    },
    {
      "anonymous": false,
      "inputs": [
        {
          "indexed": false,
          "internalType": "uint256",
          "name": "_tokenId",
          "type": "uint256"
        },
        {
          "indexed": false,
          "internalType": "address",
          "name": "_reciever",
          "type": "address"
        }
      ],
      "name": "MetamonMint",
      "type": "event"
    },
    {
      "anonymous": false,
      "inputs": [
        {
          "indexed": false,
          "internalType": "address",
          "name": "_reciever",
          "type": "address"
        },
        {
          "indexed": false,
          "internalType": "uint256",
          "name": "_value",
          "type": "uint256"
        }
      ],
      "name": "ReceivedEth",
      "type": "event"
    },
    {
      "anonymous": false,
      "inputs": [
        {
          "indexed": true,
          "internalType": "address",
          "name": "from",
          "type": "address"
        },
        {
          "indexed": true,
          "internalType": "address",
          "name": "to",
          "type": "address"
        },
        {
          "indexed": true,
          "internalType": "uint256",
          "name": "tokenId",
          "type": "uint256"
        }
      ],
      "name": "Transfer",
      "type": "event"
    },
    {
      "stateMutability": "payable",
      "type": "fallback",
      "payable": true
    },
    {
      "inputs": [
        {
          "internalType": "address",
          "name": "to",
          "type": "address"
        },
        {
          "internalType": "uint256",
          "name": "tokenId",
          "type": "uint256"
        }
      ],
      "name": "approve",
      "outputs": [],
      "stateMutability": "nonpayable",
      "type": "function"
    },
    {
      "inputs": [
        {
          "internalType": "address",
          "name": "owner",
          "type": "address"
        }
      ],
      "name": "balanceOf",
      "outputs": [
        {
          "internalType": "uint256",
          "name": "",
          "type": "uint256"
        }
      ],
      "stateMutability": "view",
      "type": "function",
      "constant": true
    },
    {
      "inputs": [],
      "name": "currentMintPhase",
      "outputs": [
        {
          "internalType": "uint8",
          "name": "",
          "type": "uint8"
        }
      ],
      "stateMutability": "view",
      "type": "function",
      "constant": true
    },
    {
      "inputs": [
        {
          "internalType": "uint256",
          "name": "tokenId",
          "type": "uint256"
        }
      ],
      "name": "getApproved",
      "outputs": [
        {
          "internalType": "address",
          "name": "",
          "type": "address"
        }
      ],
      "stateMutability": "view",
      "type": "function",
      "constant": true
    },
    {
      "inputs": [
        {
          "internalType": "address",
          "name": "owner",
          "type": "address"
        },
        {
          "internalType": "address",
          "name": "operator",
          "type": "address"
        }
      ],
      "name": "isApprovedForAll",
      "outputs": [
        {
          "internalType": "bool",
          "name": "",
          "type": "bool"
        }
      ],
      "stateMutability": "view",
      "type": "function",
      "constant": true
    },
    {
      "inputs": [
        {
          "internalType": "uint256",
          "name": "",
          "type": "uint256"
        }
      ],
      "name": "metamonInfoPersonality",
      "outputs": [
        {
          "internalType": "uint8",
          "name": "",
          "type": "uint8"
        }
      ],
      "stateMutability": "view",
      "type": "function",
      "constant": true
    },
    {
      "inputs": [
        {
          "internalType": "uint256",
          "name": "",
          "type": "uint256"
        }
      ],
      "name": "metamonInfoShiny",
      "outputs": [
        {
          "internalType": "bool",
          "name": "",
          "type": "bool"
        }
      ],
      "stateMutability": "view",
      "type": "function",
      "constant": true
    },
    {
      "inputs": [],
      "name": "name",
      "outputs": [
        {
          "internalType": "string",
          "name": "",
          "type": "string"
        }
      ],
      "stateMutability": "view",
      "type": "function",
      "constant": true
    },
    {
      "inputs": [],
      "name": "owner",
      "outputs": [
        {
          "internalType": "address payable",
          "name": "",
          "type": "address"
        }
      ],
      "stateMutability": "view",
      "type": "function",
      "constant": true
    },
    {
      "inputs": [
        {
          "internalType": "uint256",
          "name": "tokenId",
          "type": "uint256"
        }
      ],
      "name": "ownerOf",
      "outputs": [
        {
          "internalType": "address",
          "name": "",
          "type": "address"
        }
      ],
      "stateMutability": "view",
      "type": "function",
      "constant": true
    },
    {
      "inputs": [
        {
          "internalType": "address",
          "name": "from",
          "type": "address"
        },
        {
          "internalType": "address",
          "name": "to",
          "type": "address"
        },
        {
          "internalType": "uint256",
          "name": "tokenId",
          "type": "uint256"
        }
      ],
      "name": "safeTransferFrom",
      "outputs": [],
      "stateMutability": "nonpayable",
      "type": "function"
    },
    {
      "inputs": [
        {
          "internalType": "address",
          "name": "from",
          "type": "address"
        },
        {
          "internalType": "address",
          "name": "to",
          "type": "address"
        },
        {
          "internalType": "uint256",
          "name": "tokenId",
          "type": "uint256"
        },
        {
          "internalType": "bytes",
          "name": "_data",
          "type": "bytes"
        }
      ],
      "name": "safeTransferFrom",
      "outputs": [],
      "stateMutability": "nonpayable",
      "type": "function"
    },
    {
      "inputs": [
        {
          "internalType": "address",
          "name": "operator",
          "type": "address"
        },
        {
          "internalType": "bool",
          "name": "approved",
          "type": "bool"
        }
      ],
      "name": "setApprovalForAll",
      "outputs": [],
      "stateMutability": "nonpayable",
      "type": "function"
    },
    {
      "inputs": [
        {
          "internalType": "bytes4",
          "name": "interfaceId",
          "type": "bytes4"
        }
      ],
      "name": "supportsInterface",
      "outputs": [
        {
          "internalType": "bool",
          "name": "",
          "type": "bool"
        }
      ],
      "stateMutability": "view",
      "type": "function",
      "constant": true
    },
    {
      "inputs": [],
      "name": "symbol",
      "outputs": [
        {
          "internalType": "string",
          "name": "",
          "type": "string"
        }
      ],
      "stateMutability": "view",
      "type": "function",
      "constant": true
    },
    {
      "inputs": [
        {
          "internalType": "address",
          "name": "from",
          "type": "address"
        },
        {
          "internalType": "address",
          "name": "to",
          "type": "address"
        },
        {
          "internalType": "uint256",
          "name": "tokenId",
          "type": "uint256"
        }
      ],
      "name": "transferFrom",
      "outputs": [],
      "stateMutability": "nonpayable",
      "type": "function"
    },
    {
      "stateMutability": "payable",
      "type": "receive",
      "payable": true
    },
    {
      "inputs": [
        {
          "internalType": "uint256",
          "name": "_new_price",
          "type": "uint256"
        },
        {
          "internalType": "uint8",
          "name": "_dexId",
          "type": "uint8"
        }
      ],
      "name": "changeFloorPrice",
      "outputs": [],
      "stateMutability": "nonpayable",
      "type": "function"
    },
    {
      "inputs": [
        {
          "internalType": "uint256",
          "name": "_new_supply",
          "type": "uint256"
        },
        {
          "internalType": "uint8",
          "name": "_dexId",
          "type": "uint8"
        }
      ],
      "name": "changeSupplyDexId",
      "outputs": [],
      "stateMutability": "nonpayable",
      "type": "function"
    },
    {
      "inputs": [
        {
          "internalType": "uint8",
          "name": "_dexId",
          "type": "uint8"
        }
      ],
      "name": "getFloorPrice",
      "outputs": [
        {
          "internalType": "uint256",
          "name": "",
          "type": "uint256"
        }
      ],
      "stateMutability": "view",
      "type": "function",
      "constant": true
    },
    {
      "inputs": [],
      "name": "getWalletBalance",
      "outputs": [
        {
          "internalType": "uint256",
          "name": "",
          "type": "uint256"
        }
      ],
      "stateMutability": "view",
      "type": "function",
      "constant": true
    },
    {
      "inputs": [
        {
          "internalType": "uint8",
          "name": "_dexId",
          "type": "uint8"
        }
      ],
      "name": "getSupplyDex",
      "outputs": [
        {
          "internalType": "uint256",
          "name": "",
          "type": "uint256"
        }
      ],
      "stateMutability": "view",
      "type": "function",
      "constant": true
    },
    {
      "inputs": [
        {
          "internalType": "address payable",
          "name": "_recipient",
          "type": "address"
        },
        {
          "internalType": "uint256",
          "name": "_amount",
          "type": "uint256"
        }
      ],
      "name": "transferContractBalance",
      "outputs": [
        {
          "internalType": "bool",
          "name": "",
          "type": "bool"
        }
      ],
      "stateMutability": "nonpayable",
      "type": "function"
    },
    {
      "inputs": [
        {
          "internalType": "string",
          "name": "_baseURILink",
          "type": "string"
        }
      ],
      "name": "setBaseURI",
      "outputs": [],
      "stateMutability": "nonpayable",
      "type": "function"
    },
    {
      "inputs": [],
      "name": "getBaseURI",
      "outputs": [
        {
          "internalType": "string",
          "name": "",
          "type": "string"
        }
      ],
      "stateMutability": "view",
      "type": "function",
      "constant": true
    },
    {
      "inputs": [
        {
          "internalType": "uint256",
          "name": "tokenId",
          "type": "uint256"
        }
      ],
      "name": "tokenURI",
      "outputs": [
        {
          "internalType": "string",
          "name": "",
          "type": "string"
        }
      ],
      "stateMutability": "view",
      "type": "function",
      "constant": true
    },
    {
      "inputs": [
        {
          "internalType": "uint256",
          "name": "_value",
          "type": "uint256"
        }
      ],
      "name": "burn",
      "outputs": [],
      "stateMutability": "nonpayable",
      "type": "function"
    },
    {
      "inputs": [
        {
          "internalType": "uint8",
          "name": "_dexId",
          "type": "uint8"
        }
      ],
      "name": "mintableDex",
      "outputs": [
        {
          "internalType": "bool",
          "name": "",
          "type": "bool"
        }
      ],
      "stateMutability": "view",
      "type": "function",
      "constant": true
    },
    {
      "inputs": [
        {
          "internalType": "address",
          "name": "_recipient",
          "type": "address"
        },
        {
          "internalType": "uint256",
          "name": "_quantity",
          "type": "uint256"
        },
        {
          "internalType": "uint8",
          "name": "_dexId",
          "type": "uint8"
        }
      ],
      "name": "mintSale",
      "outputs": [],
      "stateMutability": "payable",
      "type": "function",
      "payable": true
    },
    {
      "inputs": [
        {
          "internalType": "address",
          "name": "_recipient",
          "type": "address"
        },
        {
          "internalType": "uint256",
          "name": "_sendTokenId",
          "type": "uint256"
        },
        {
          "internalType": "uint256",
          "name": "_sendDaxId",
          "type": "uint256"
        }
      ],
      "name": "evalutionItemBurn",
      "outputs": [],
      "stateMutability": "nonpayable",
      "type": "function"
    },
    {
      "inputs": [
        {
          "internalType": "address",
          "name": "_recipient",
          "type": "address"
        },
        {
          "internalType": "uint256",
          "name": "_sendTokenId",
          "type": "uint256"
        },
        {
          "internalType": "uint256",
          "name": "_sendDaxId",
          "type": "uint256"
        },
        {
          "internalType": "uint256",
          "name": "_quantitySend",
          "type": "uint256"
        },
        {
          "internalType": "uint256",
          "name": "_targetDax",
          "type": "uint256"
        },
        {
          "internalType": "uint256",
          "name": "_itemTokenId",
          "type": "uint256"
        }
      ],
      "name": "evalutionMetaBurn",
      "outputs": [],
      "stateMutability": "nonpayable",
      "type": "function"
    }
  ],
  "bytecode": "0x6080604052731e6059ec57ae39d2c73e5c3821a26faffd68e016600760006101000a81548173ffffffffffffffffffffffffffffffffffffffff021916908373ffffffffffffffffffffffffffffffffffffffff160217905550600760009054906101000a900473ffffffffffffffffffffffffffffffffffffffff16600860006101000a81548173ffffffffffffffffffffffffffffffffffffffff021916908373ffffffffffffffffffffffffffffffffffffffff1602179055506001600c60006101000a81548160ff021916908360ff1602179055506040518060a00160405280606360ff168152602001606260ff168152602001606160ff168152602001606060ff168152602001605f60ff16815250600d906005620001259291906200063f565b506040518060a0016040528061012861ffff16815260200161012461ffff16815260200161012061ffff16815260200161011c61ffff16815260200161011861ffff16815250600e9060056200017d929190620006e0565b50604051806101000160405280600160ff168152602001600260ff168152602001600360ff168152602001600460ff168152602001600760ff168152602001600a60ff168152602001600b60ff168152602001600d60ff16815250600f906008620001ea92919062000788565b506040518061010001604052806103e861ffff168152602001600061ffff168152602001600061ffff1681526020016107d061ffff1681526020016103e861ffff168152602001610bb861ffff168152602001610fa061ffff1681526020016103e861ffff16815250601790600862000265929190620007d2565b50604051806101000160405280600060ff168152602001600060ff168152602001600060ff168152602001600060ff168152602001600060ff168152602001600060ff168152602001600060ff168152602001600060ff16815250601f906008620002d292919062000788565b50604051806101000160405280600160ff168152602001600060ff168152602001600060ff168152602001600160ff168152602001600060ff168152602001600060ff168152602001600060ff168152602001600160ff1681525060279060086200033f92919062000788565b5060405180610100016040528066b1a2bc2ec5000066ffffffffffffff168152602001600066ffffffffffffff168152602001600066ffffffffffffff1681526020016658d15e1762800066ffffffffffffff168152602001667c58508723800066ffffffffffffff168152602001669fdf42f6e4800066ffffffffffffff16815260200166c3663566a5800066ffffffffffffff16815260200166e6ed27d666800066ffffffffffffff16815250602f906008620004009291906200081d565b506040518060400160405280600b81526020017f4d6574616d6f6e204e46540000000000000000000000000000000000000000008152506040518060400160405280600381526020017f4e465400000000000000000000000000000000000000000000000000000000008152508160009080519060200190620004859291906200086d565b5080600190805190602001906200049e9291906200086d565b50505033600660006101000a81548173ffffffffffffffffffffffffffffffffffffffff021916908373ffffffffffffffffffffffffffffffffffffffff1602179055506002603b600060018152602001908152602001600020819055506003603b60006002815260200190815260200160002081905550600260396000600181526020019081526020016000208190555060036039600060028152602001908152602001600020819055506002603b600060048152602001908152602001600020819055506003603b60006005815260200190815260200160002081905550600560396000600481526020019081526020016000208190555060066039600060058152602001908152602001600020819055506040518060c00160405280600160ff168152602001600460ff168152602001600760ff168152602001601460ff168152602001605660ff168152602001608560ff1681525060386000600160ff1681526020019081526020016000209060066200061e929190620008fe565b506005603b60006081815260200190815260200160002081905550620009d9565b826005601f01602090048101928215620006cd5791602002820160005b838211156200069c57835183826101000a81548160ff021916908360ff16021790555092602001926001016020816000010492830192600103026200065c565b8015620006cb5782816101000a81549060ff02191690556001016020816000010492830192600103026200069c565b505b509050620006dc919062000955565b5090565b826005600701600890048101928215620007755791602002820160005b838211156200074157835183826101000a81548163ffffffff021916908361ffff1602179055509260200192600401602081600301049283019260010302620006fd565b8015620007735782816101000a81549063ffffffff021916905560040160208160030104928301926001030262000741565b505b50905062000784919062000955565b5090565b8260088101928215620007bf579160200282015b82811115620007be578251829060ff169055916020019190600101906200079c565b5b509050620007ce919062000955565b5090565b82600881019282156200080a579160200282015b8281111562000809578251829061ffff16905591602001919060010190620007e6565b5b50905062000819919062000955565b5090565b82600881019282156200085a579160200282015b8281111562000859578251829066ffffffffffffff1690559160200191906001019062000831565b5b50905062000869919062000955565b5090565b8280546200087b9062000974565b90600052602060002090601f0160209004810192826200089f5760008555620008eb565b82601f10620008ba57805160ff1916838001178555620008eb565b82800160010185558215620008eb579182015b82811115620008ea578251825591602001919060010190620008cd565b5b509050620008fa919062000955565b5090565b82805482825590600052602060002090810192821562000942579160200282015b8281111562000941578251829060ff169055916020019190600101906200091f565b5b50905062000951919062000955565b5090565b5b808211156200097057600081600090555060010162000956565b5090565b600060028204905060018216806200098d57607f821691505b60208210811415620009a457620009a3620009aa565b5b50919050565b7f4e487b7100000000000000000000000000000000000000000000000000000000600052602260045260246000fd5b61402c80620009e96000396000f3fe6080604052600436106101d15760003560e01c80636352211e116100f7578063a1191b7311610095578063c87b56dd11610064578063c87b56dd14610704578063c9432c0514610741578063e985e9c51461076a578063feadbaea146107a757610211565b8063a1191b731461066d578063a22cb46514610689578063b88d4fde146106b2578063c6ff1912146106db57610211565b806376be98d9116100d157806376be98d91461059d57806389b8f7d1146105da5780638da5cb5b1461061757806395d89b411461064257610211565b80636352211e146104f857806370a0823114610535578063714c53981461057257610211565b80631f2b28291161016f57806342842e0e1161013e57806342842e0e1461044057806342966c6814610469578063486fc6d31461049257806355f804b3146104cf57610211565b80631f2b28291461038657806323b872dd146103c3578063329a27e7146103ec5780633c19a5b61461041757610211565b8063081812fc116101ab578063081812fc146102b8578063095ea7b3146102f55780630dd250e11461031e57806310a5a3d91461034957610211565b8063014de7381461021357806301ffc9a71461025057806306fdde031461028d57610211565b36610211577f52a6cdf67c40ce333b3d846e4e143db87f71dd7935612a4cafcf6ba76047ca1f3334604051610207929190613370565b60405180910390a1005b005b34801561021f57600080fd5b5061023a60048036038101906102359190612e7b565b6107d0565b60405161024791906135f6565b60405180910390f35b34801561025c57600080fd5b5061027760048036038101906102729190612d5a565b610879565b6040516102849190613399565b60405180910390f35b34801561029957600080fd5b506102a261095b565b6040516102af91906133b4565b60405180910390f35b3480156102c457600080fd5b506102df60048036038101906102da9190612ded565b6109ed565b6040516102ec91906132c5565b60405180910390f35b34801561030157600080fd5b5061031c60048036038101906103179190612bf7565b610a72565b005b34801561032a57600080fd5b50610333610b8a565b604051610340919061363a565b60405180910390f35b34801561035557600080fd5b50610370600480360381019061036b9190612a79565b610b9d565b60405161037d9190613399565b60405180910390f35b34801561039257600080fd5b506103ad60048036038101906103a89190612e7b565b610ccc565b6040516103ba9190613399565b60405180910390f35b3480156103cf57600080fd5b506103ea60048036038101906103e59190612af1565b610da4565b005b3480156103f857600080fd5b50610401610e04565b60405161040e91906135f6565b60405180910390f35b34801561042357600080fd5b5061043e60048036038101906104399190612c82565b610e9e565b005b34801561044c57600080fd5b5061046760048036038101906104629190612af1565b610ea6565b005b34801561047557600080fd5b50610490600480360381019061048b9190612ded565b610ec6565b005b34801561049e57600080fd5b506104b960048036038101906104b49190612e7b565b610ed2565b6040516104c691906135f6565b60405180910390f35b3480156104db57600080fd5b506104f660048036038101906104f19190612dac565b610f26565b005b34801561050457600080fd5b5061051f600480360381019061051a9190612ded565b610fd2565b60405161052c91906132c5565b60405180910390f35b34801561054157600080fd5b5061055c60048036038101906105579190612a50565b611084565b60405161056991906135f6565b60405180910390f35b34801561057e57600080fd5b5061058761113c565b60405161059491906133b4565b60405180910390f35b3480156105a957600080fd5b506105c460048036038101906105bf9190612ded565b611260565b6040516105d1919061363a565b60405180910390f35b3480156105e657600080fd5b5061060160048036038101906105fc9190612ded565b611280565b60405161060e9190613399565b60405180910390f35b34801561062357600080fd5b5061062c6112a0565b60405161063991906132e0565b60405180910390f35b34801561064e57600080fd5b506106576112c6565b60405161066491906133b4565b60405180910390f35b61068760048036038101906106829190612d0b565b611358565b005b34801561069557600080fd5b506106b060048036038101906106ab9190612bbb565b61156c565b005b3480156106be57600080fd5b506106d960048036038101906106d49190612b40565b611582565b005b3480156106e757600080fd5b5061070260048036038101906106fd9190612e3f565b6115e4565b005b34801561071057600080fd5b5061072b60048036038101906107269190612ded565b6116c9565b60405161073891906133b4565b60405180910390f35b34801561074d57600080fd5b5061076860048036038101906107639190612e3f565b611771565b005b34801561077657600080fd5b50610791600480360381019061078c9190612ab5565b611856565b60405161079e9190613399565b60405180910390f35b3480156107b357600080fd5b506107ce60048036038101906107c99190612c33565b6118ea565b005b6000601f6001836107e19190613849565b60ff166008811061081b577f4e487b7100000000000000000000000000000000000000000000000000000000600052603260045260246000fd5b0154601760018461082c9190613849565b60ff1660088110610866577f4e487b7100000000000000000000000000000000000000000000000000000000600052603260045260246000fd5b01546108729190613815565b9050919050565b60007f80ac58cd000000000000000000000000000000000000000000000000000000007bffffffffffffffffffffffffffffffffffffffffffffffffffffffff1916827bffffffffffffffffffffffffffffffffffffffffffffffffffffffff1916148061094457507f5b5e139f000000000000000000000000000000000000000000000000000000007bffffffffffffffffffffffffffffffffffffffffffffffffffffffff1916827bffffffffffffffffffffffffffffffffffffffffffffffffffffffff1916145b806109545750610953826118ef565b5b9050919050565b60606000805461096a90613964565b80601f016020809104026020016040519081016040528092919081815260200182805461099690613964565b80156109e35780601f106109b8576101008083540402835291602001916109e3565b820191906000526020600020905b8154815290600101906020018083116109c657829003601f168201915b5050505050905090565b60006109f882611959565b610a37576040517f08c379a0000000000000000000000000000000000000000000000000000000008152600401610a2e90613536565b60405180910390fd5b6004600083815260200190815260200160002060009054906101000a900473ffffffffffffffffffffffffffffffffffffffff169050919050565b6000610a7d82610fd2565b90508073ffffffffffffffffffffffffffffffffffffffff168373ffffffffffffffffffffffffffffffffffffffff161415610aee576040517f08c379a0000000000000000000000000000000000000000000000000000000008152600401610ae590613576565b60405180910390fd5b8073ffffffffffffffffffffffffffffffffffffffff16610b0d6119c5565b73ffffffffffffffffffffffffffffffffffffffff161480610b3c5750610b3b81610b366119c5565b611856565b5b610b7b576040517f08c379a0000000000000000000000000000000000000000000000000000000008152600401610b72906134b6565b60405180910390fd5b610b8583836119cd565b505050565b600c60009054906101000a900460ff1681565b600033600660009054906101000a900473ffffffffffffffffffffffffffffffffffffffff1673ffffffffffffffffffffffffffffffffffffffff168173ffffffffffffffffffffffffffffffffffffffff1614610c30576040517f08c379a0000000000000000000000000000000000000000000000000000000008152600401610c27906135d6565b60405180910390fd5b610c38610e04565b831115610c7a576040517f08c379a0000000000000000000000000000000000000000000000000000000008152600401610c7190613596565b60405180910390fd5b8373ffffffffffffffffffffffffffffffffffffffff166108fc849081150290604051600060405180830381858888f19350505050158015610cc0573d6000803e3d6000fd5b50600191505092915050565b600080600090505b60386000600c60009054906101000a900460ff1660ff1660ff16815260200190815260200160002080549050811015610d995760386000600c60009054906101000a900460ff1660ff1660ff1681526020019081526020016000208181548110610d67577f4e487b7100000000000000000000000000000000000000000000000000000000600052603260045260246000fd5b90600052602060002001548360ff161415610d86576001915050610d9f565b8080610d91906139c7565b915050610cd4565b50600090505b919050565b610db5610daf6119c5565b82611a86565b610df4576040517f08c379a0000000000000000000000000000000000000000000000000000000008152600401610deb906135b6565b60405180910390fd5b610dff838383611b64565b505050565b600033600660009054906101000a900473ffffffffffffffffffffffffffffffffffffffff1673ffffffffffffffffffffffffffffffffffffffff168173ffffffffffffffffffffffffffffffffffffffff1614610e97576040517f08c379a0000000000000000000000000000000000000000000000000000000008152600401610e8e906135d6565b60405180910390fd5b4791505090565b505050505050565b610ec183838360405180602001604052806000815250611582565b505050565b610ecf81611dcb565b50565b6000602f600183610ee39190613849565b60ff1660088110610f1d577f4e487b7100000000000000000000000000000000000000000000000000000000600052603260045260246000fd5b01549050919050565b33600660009054906101000a900473ffffffffffffffffffffffffffffffffffffffff1673ffffffffffffffffffffffffffffffffffffffff168173ffffffffffffffffffffffffffffffffffffffff1614610fb7576040517f08c379a0000000000000000000000000000000000000000000000000000000008152600401610fae906135d6565b60405180910390fd5b81600b9080519060200190610fcd929190612835565b505050565b6000806002600084815260200190815260200160002060009054906101000a900473ffffffffffffffffffffffffffffffffffffffff169050600073ffffffffffffffffffffffffffffffffffffffff168173ffffffffffffffffffffffffffffffffffffffff16141561107b576040517f08c379a0000000000000000000000000000000000000000000000000000000008152600401611072906134f6565b60405180910390fd5b80915050919050565b60008073ffffffffffffffffffffffffffffffffffffffff168273ffffffffffffffffffffffffffffffffffffffff1614156110f5576040517f08c379a00000000000000000000000000000000000000000000000000000000081526004016110ec906134d6565b60405180910390fd5b600360008373ffffffffffffffffffffffffffffffffffffffff1673ffffffffffffffffffffffffffffffffffffffff168152602001908152602001600020549050919050565b606033600660009054906101000a900473ffffffffffffffffffffffffffffffffffffffff1673ffffffffffffffffffffffffffffffffffffffff168173ffffffffffffffffffffffffffffffffffffffff16146111cf576040517f08c379a00000000000000000000000000000000000000000000000000000000081526004016111c6906135d6565b60405180910390fd5b600b80546111dc90613964565b80601f016020809104026020016040519081016040528092919081815260200182805461120890613964565b80156112555780601f1061122a57610100808354040283529160200191611255565b820191906000526020600020905b81548152906001019060200180831161123857829003601f168201915b505050505091505090565b603f6020528060005260406000206000915054906101000a900460ff1681565b603e6020528060005260406000206000915054906101000a900460ff1681565b600660009054906101000a900473ffffffffffffffffffffffffffffffffffffffff1681565b6060600180546112d590613964565b80601f016020809104026020016040519081016040528092919081815260200182805461130190613964565b801561134e5780601f106113235761010080835404028352916020019161134e565b820191906000526020600020905b81548152906001019060200180831161133157829003601f168201915b5050505050905090565b806001151561136682610ccc565b1515146113a8576040517f08c379a000000000000000000000000000000000000000000000000000000000815260040161139f90613436565b60405180910390fd5b81836113b3826107d0565b8111156113bf57600080fd5b60006113ca85610ed2565b9050600660009054906101000a900473ffffffffffffffffffffffffffffffffffffffff1673ffffffffffffffffffffffffffffffffffffffff163373ffffffffffffffffffffffffffffffffffffffff161461146f57858161142d91906137bb565b341461146e576040517f08c379a000000000000000000000000000000000000000000000000000000000815260040161146590613596565b60405180910390fd5b5b600061147a88611ee8565b90506000603754905060005b88811015611559578180611499906139c7565b9250506114a68a83611fb9565b6114ae612193565b603f600084815260200190815260200160002060006101000a81548160ff021916908360ff1602179055506114e3818461220e565b603e600084815260200190815260200160002060006101000a81548160ff0219169083151502179055507fdd3ee52e93d2f67c75859dd03ba44fbae095a9deba7e791d4a8e331f114bce38828b60405161153e929190613611565b60405180910390a18080611551906139c7565b915050611486565b5080603781905550505050505050505050565b61157e6115776119c5565b83836122fb565b5050565b61159361158d6119c5565b83611a86565b6115d2576040517f08c379a00000000000000000000000000000000000000000000000000000000081526004016115c9906135b6565b60405180910390fd5b6115de84848484612468565b50505050565b33600660009054906101000a900473ffffffffffffffffffffffffffffffffffffffff1673ffffffffffffffffffffffffffffffffffffffff168173ffffffffffffffffffffffffffffffffffffffff1614611675576040517f08c379a000000000000000000000000000000000000000000000000000000000815260040161166c906135d6565b60405180910390fd5b8260176001846116859190613849565b60ff16600881106116bf577f4e487b7100000000000000000000000000000000000000000000000000000000600052603260045260246000fd5b0181905550505050565b60606116d482611959565b611713576040517f08c379a000000000000000000000000000000000000000000000000000000000815260040161170a90613556565b60405180910390fd5b6000600b805461172290613964565b90501161173e576040518060200160405280600081525061176a565b600b611749836124c4565b60405160200161175a929190613296565b6040516020818303038152906040525b9050919050565b33600660009054906101000a900473ffffffffffffffffffffffffffffffffffffffff1673ffffffffffffffffffffffffffffffffffffffff168173ffffffffffffffffffffffffffffffffffffffff1614611802576040517f08c379a00000000000000000000000000000000000000000000000000000000081526004016117f9906135d6565b60405180910390fd5b82602f6001846118129190613849565b60ff166008811061184c577f4e487b7100000000000000000000000000000000000000000000000000000000600052603260045260246000fd5b0181905550505050565b6000600560008473ffffffffffffffffffffffffffffffffffffffff1673ffffffffffffffffffffffffffffffffffffffff16815260200190815260200160002060008373ffffffffffffffffffffffffffffffffffffffff1673ffffffffffffffffffffffffffffffffffffffff16815260200190815260200160002060009054906101000a900460ff16905092915050565b505050565b60007f01ffc9a7000000000000000000000000000000000000000000000000000000007bffffffffffffffffffffffffffffffffffffffffffffffffffffffff1916827bffffffffffffffffffffffffffffffffffffffffffffffffffffffff1916149050919050565b60008073ffffffffffffffffffffffffffffffffffffffff166002600084815260200190815260200160002060009054906101000a900473ffffffffffffffffffffffffffffffffffffffff1673ffffffffffffffffffffffffffffffffffffffff1614159050919050565b600033905090565b816004600083815260200190815260200160002060006101000a81548173ffffffffffffffffffffffffffffffffffffffff021916908373ffffffffffffffffffffffffffffffffffffffff160217905550808273ffffffffffffffffffffffffffffffffffffffff16611a4083610fd2565b73ffffffffffffffffffffffffffffffffffffffff167f8c5be1e5ebec7d5bd14f71427d1e84f3dd0314c0f7b2291e5b200ac8c7c3b92560405160405180910390a45050565b6000611a9182611959565b611ad0576040517f08c379a0000000000000000000000000000000000000000000000000000000008152600401611ac790613496565b60405180910390fd5b6000611adb83610fd2565b90508073ffffffffffffffffffffffffffffffffffffffff168473ffffffffffffffffffffffffffffffffffffffff161480611b4a57508373ffffffffffffffffffffffffffffffffffffffff16611b32846109ed565b73ffffffffffffffffffffffffffffffffffffffff16145b80611b5b5750611b5a8185611856565b5b91505092915050565b8273ffffffffffffffffffffffffffffffffffffffff16611b8482610fd2565b73ffffffffffffffffffffffffffffffffffffffff1614611bda576040517f08c379a0000000000000000000000000000000000000000000000000000000008152600401611bd1906133f6565b60405180910390fd5b600073ffffffffffffffffffffffffffffffffffffffff168273ffffffffffffffffffffffffffffffffffffffff161415611c4a576040517f08c379a0000000000000000000000000000000000000000000000000000000008152600401611c4190613456565b60405180910390fd5b611c55838383612671565b611c606000826119cd565b6001600360008573ffffffffffffffffffffffffffffffffffffffff1673ffffffffffffffffffffffffffffffffffffffff1681526020019081526020016000206000828254611cb09190613815565b925050819055506001600360008473ffffffffffffffffffffffffffffffffffffffff1673ffffffffffffffffffffffffffffffffffffffff1681526020019081526020016000206000828254611d079190613734565b92505081905550816002600083815260200190815260200160002060006101000a81548173ffffffffffffffffffffffffffffffffffffffff021916908373ffffffffffffffffffffffffffffffffffffffff160217905550808273ffffffffffffffffffffffffffffffffffffffff168473ffffffffffffffffffffffffffffffffffffffff167fddf252ad1be2c89b69c2b068fc378daa952ba7f163c4a11628f55a4df523b3ef60405160405180910390a4611dc6838383612676565b505050565b6000611dd682610fd2565b9050611de481600084612671565b611def6000836119cd565b6001600360008373ffffffffffffffffffffffffffffffffffffffff1673ffffffffffffffffffffffffffffffffffffffff1681526020019081526020016000206000828254611e3f9190613815565b925050819055506002600083815260200190815260200160002060006101000a81549073ffffffffffffffffffffffffffffffffffffffff021916905581600073ffffffffffffffffffffffffffffffffffffffff168273ffffffffffffffffffffffffffffffffffffffff167fddf252ad1be2c89b69c2b068fc378daa952ba7f163c4a11628f55a4df523b3ef60405160405180910390a4611ee481600084612676565b5050565b600080600860009054906101000a900473ffffffffffffffffffffffffffffffffffffffff1673ffffffffffffffffffffffffffffffffffffffff16630cb98b718460026040518363ffffffff1660e01b8152600401611f49929190613347565b60206040518083038186803b158015611f6157600080fd5b505afa158015611f75573d6000803e3d6000fd5b505050506040513d601f19601f82011682018060405250810190611f999190612e16565b90506000811415611fae576000915050611fb4565b60019150505b919050565b600073ffffffffffffffffffffffffffffffffffffffff168273ffffffffffffffffffffffffffffffffffffffff161415612029576040517f08c379a000000000000000000000000000000000000000000000000000000000815260040161202090613516565b60405180910390fd5b61203281611959565b15612072576040517f08c379a000000000000000000000000000000000000000000000000000000000815260040161206990613416565b60405180910390fd5b61207e60008383612671565b6001600360008473ffffffffffffffffffffffffffffffffffffffff1673ffffffffffffffffffffffffffffffffffffffff16815260200190815260200160002060008282546120ce9190613734565b92505081905550816002600083815260200190815260200160002060006101000a81548173ffffffffffffffffffffffffffffffffffffffff021916908373ffffffffffffffffffffffffffffffffffffffff160217905550808273ffffffffffffffffffffffffffffffffffffffff16600073ffffffffffffffffffffffffffffffffffffffff167fddf252ad1be2c89b69c2b068fc378daa952ba7f163c4a11628f55a4df523b3ef60405160405180910390a461218f60008383612676565b5050565b6000806040518060800160405280600160ff168152602001600260ff168152602001600360ff168152602001600460ff16815250905080600060048110612203577f4e487b7100000000000000000000000000000000000000000000000000000000600052603260045260246000fd5b602002015191505090565b60008115612283576000600d6001856122279190613815565b6005811061225e577f4e487b7100000000000000000000000000000000000000000000000000000000600052603260045260246000fd5b602091828204019190069054906101000a900460ff1660ff16905060019150506122f5565b6000600e6001856122949190613815565b600581106122cb577f4e487b7100000000000000000000000000000000000000000000000000000000600052603260045260246000fd5b600891828204019190066004029054906101000a900463ffffffff1663ffffffff16905060009150505b92915050565b8173ffffffffffffffffffffffffffffffffffffffff168373ffffffffffffffffffffffffffffffffffffffff16141561236a576040517f08c379a000000000000000000000000000000000000000000000000000000000815260040161236190613476565b60405180910390fd5b80600560008573ffffffffffffffffffffffffffffffffffffffff1673ffffffffffffffffffffffffffffffffffffffff16815260200190815260200160002060008473ffffffffffffffffffffffffffffffffffffffff1673ffffffffffffffffffffffffffffffffffffffff16815260200190815260200160002060006101000a81548160ff0219169083151502179055508173ffffffffffffffffffffffffffffffffffffffff168373ffffffffffffffffffffffffffffffffffffffff167f17307eab39ab6107e8899845ad3d59bd9653f200f220920489ca2b5937696c318360405161245b9190613399565b60405180910390a3505050565b612473848484611b64565b61247f8484848461267b565b6124be576040517f08c379a00000000000000000000000000000000000000000000000000000000081526004016124b5906133d6565b60405180910390fd5b50505050565b6060600082141561250c576040518060400160405280600181526020017f3000000000000000000000000000000000000000000000000000000000000000815250905061266c565b600082905060005b6000821461253e578080612527906139c7565b915050600a82612537919061378a565b9150612514565b60008167ffffffffffffffff811115612580577f4e487b7100000000000000000000000000000000000000000000000000000000600052604160045260246000fd5b6040519080825280601f01601f1916602001820160405280156125b25781602001600182028036833780820191505090505b5090505b60008514612665576001826125cb9190613815565b9150600a856125da9190613a10565b60306125e69190613734565b60f81b818381518110612622577f4e487b7100000000000000000000000000000000000000000000000000000000600052603260045260246000fd5b60200101907effffffffffffffffffffffffffffffffffffffffffffffffffffffffffffff1916908160001a905350600a8561265e919061378a565b94506125b6565b8093505050505b919050565b505050565b505050565b600061269c8473ffffffffffffffffffffffffffffffffffffffff16612812565b15612805578373ffffffffffffffffffffffffffffffffffffffff1663150b7a026126c56119c5565b8786866040518563ffffffff1660e01b81526004016126e794939291906132fb565b602060405180830381600087803b15801561270157600080fd5b505af192505050801561273257506040513d601f19601f8201168201806040525081019061272f9190612d83565b60015b6127b5573d8060008114612762576040519150601f19603f3d011682016040523d82523d6000602084013e612767565b606091505b506000815114156127ad576040517f08c379a00000000000000000000000000000000000000000000000000000000081526004016127a4906133d6565b60405180910390fd5b805181602001fd5b63150b7a0260e01b7bffffffffffffffffffffffffffffffffffffffffffffffffffffffff1916817bffffffffffffffffffffffffffffffffffffffffffffffffffffffff19161491505061280a565b600190505b949350505050565b6000808273ffffffffffffffffffffffffffffffffffffffff163b119050919050565b82805461284190613964565b90600052602060002090601f01602090048101928261286357600085556128aa565b82601f1061287c57805160ff19168380011785556128aa565b828001600101855582156128aa579182015b828111156128a957825182559160200191906001019061288e565b5b5090506128b791906128bb565b5090565b5b808211156128d45760008160009055506001016128bc565b5090565b60006128eb6128e68461367a565b613655565b90508281526020810184848401111561290357600080fd5b61290e848285613922565b509392505050565b6000612929612924846136ab565b613655565b90508281526020810184848401111561294157600080fd5b61294c848285613922565b509392505050565b60008135905061296381613f6c565b92915050565b60008135905061297881613f83565b92915050565b60008135905061298d81613f9a565b92915050565b6000813590506129a281613fb1565b92915050565b6000815190506129b781613fb1565b92915050565b600082601f8301126129ce57600080fd5b81356129de8482602086016128d8565b91505092915050565b600082601f8301126129f857600080fd5b8135612a08848260208601612916565b91505092915050565b600081359050612a2081613fc8565b92915050565b600081519050612a3581613fc8565b92915050565b600081359050612a4a81613fdf565b92915050565b600060208284031215612a6257600080fd5b6000612a7084828501612954565b91505092915050565b60008060408385031215612a8c57600080fd5b6000612a9a85828601612969565b9250506020612aab85828601612a11565b9150509250929050565b60008060408385031215612ac857600080fd5b6000612ad685828601612954565b9250506020612ae785828601612954565b9150509250929050565b600080600060608486031215612b0657600080fd5b6000612b1486828701612954565b9350506020612b2586828701612954565b9250506040612b3686828701612a11565b9150509250925092565b60008060008060808587031215612b5657600080fd5b6000612b6487828801612954565b9450506020612b7587828801612954565b9350506040612b8687828801612a11565b925050606085013567ffffffffffffffff811115612ba357600080fd5b612baf878288016129bd565b91505092959194509250565b60008060408385031215612bce57600080fd5b6000612bdc85828601612954565b9250506020612bed8582860161297e565b9150509250929050565b60008060408385031215612c0a57600080fd5b6000612c1885828601612954565b9250506020612c2985828601612a11565b9150509250929050565b600080600060608486031215612c4857600080fd5b6000612c5686828701612954565b9350506020612c6786828701612a11565b9250506040612c7886828701612a11565b9150509250925092565b60008060008060008060c08789031215612c9b57600080fd5b6000612ca989828a01612954565b9650506020612cba89828a01612a11565b9550506040612ccb89828a01612a11565b9450506060612cdc89828a01612a11565b9350506080612ced89828a01612a11565b92505060a0612cfe89828a01612a11565b9150509295509295509295565b600080600060608486031215612d2057600080fd5b6000612d2e86828701612954565b9350506020612d3f86828701612a11565b9250506040612d5086828701612a3b565b9150509250925092565b600060208284031215612d6c57600080fd5b6000612d7a84828501612993565b91505092915050565b600060208284031215612d9557600080fd5b6000612da3848285016129a8565b91505092915050565b600060208284031215612dbe57600080fd5b600082013567ffffffffffffffff811115612dd857600080fd5b612de4848285016129e7565b91505092915050565b600060208284031215612dff57600080fd5b6000612e0d84828501612a11565b91505092915050565b600060208284031215612e2857600080fd5b6000612e3684828501612a26565b91505092915050565b60008060408385031215612e5257600080fd5b6000612e6085828601612a11565b9250506020612e7185828601612a3b565b9150509250929050565b600060208284031215612e8d57600080fd5b6000612e9b84828501612a3b565b91505092915050565b612ead8161388f565b82525050565b612ebc8161387d565b82525050565b612ecb816138a1565b82525050565b6000612edc826136f1565b612ee68185613707565b9350612ef6818560208601613931565b612eff81613afd565b840191505092915050565b612f1381613910565b82525050565b6000612f24826136fc565b612f2e8185613718565b9350612f3e818560208601613931565b612f4781613afd565b840191505092915050565b6000612f5d826136fc565b612f678185613729565b9350612f77818560208601613931565b80840191505092915050565b60008154612f9081613964565b612f9a8186613729565b94506001821660008114612fb55760018114612fc657612ff9565b60ff19831686528186019350612ff9565b612fcf856136dc565b60005b83811015612ff157815481890152600182019150602081019050612fd2565b838801955050505b50505092915050565b600061300f603283613718565b915061301a82613b0e565b604082019050919050565b6000613032602583613718565b915061303d82613b5d565b604082019050919050565b6000613055601c83613718565b915061306082613bac565b602082019050919050565b6000613078601083613718565b915061308382613bd5565b602082019050919050565b600061309b602483613718565b91506130a682613bfe565b604082019050919050565b60006130be601983613718565b91506130c982613c4d565b602082019050919050565b60006130e1602c83613718565b91506130ec82613c76565b604082019050919050565b6000613104603883613718565b915061310f82613cc5565b604082019050919050565b6000613127602a83613718565b915061313282613d14565b604082019050919050565b600061314a602983613718565b915061315582613d63565b604082019050919050565b600061316d602083613718565b915061317882613db2565b602082019050919050565b6000613190602c83613718565b915061319b82613ddb565b604082019050919050565b60006131b3601283613718565b91506131be82613e2a565b602082019050919050565b60006131d6600583613729565b91506131e182613e53565b600582019050919050565b60006131f9602183613718565b915061320482613e7c565b604082019050919050565b600061321c601383613718565b915061322782613ecb565b602082019050919050565b600061323f603183613718565b915061324a82613ef4565b604082019050919050565b6000613262601183613718565b915061326d82613f43565b602082019050919050565b613281816138f9565b82525050565b61329081613903565b82525050565b60006132a28285612f83565b91506132ae8284612f52565b91506132b9826131c9565b91508190509392505050565b60006020820190506132da6000830184612eb3565b92915050565b60006020820190506132f56000830184612ea4565b92915050565b60006080820190506133106000830187612eb3565b61331d6020830186612eb3565b61332a6040830185613278565b818103606083015261333c8184612ed1565b905095945050505050565b600060408201905061335c6000830185612eb3565b6133696020830184612f0a565b9392505050565b60006040820190506133856000830185612eb3565b6133926020830184613278565b9392505050565b60006020820190506133ae6000830184612ec2565b92915050565b600060208201905081810360008301526133ce8184612f19565b905092915050565b600060208201905081810360008301526133ef81613002565b9050919050565b6000602082019050818103600083015261340f81613025565b9050919050565b6000602082019050818103600083015261342f81613048565b9050919050565b6000602082019050818103600083015261344f8161306b565b9050919050565b6000602082019050818103600083015261346f8161308e565b9050919050565b6000602082019050818103600083015261348f816130b1565b9050919050565b600060208201905081810360008301526134af816130d4565b9050919050565b600060208201905081810360008301526134cf816130f7565b9050919050565b600060208201905081810360008301526134ef8161311a565b9050919050565b6000602082019050818103600083015261350f8161313d565b9050919050565b6000602082019050818103600083015261352f81613160565b9050919050565b6000602082019050818103600083015261354f81613183565b9050919050565b6000602082019050818103600083015261356f816131a6565b9050919050565b6000602082019050818103600083015261358f816131ec565b9050919050565b600060208201905081810360008301526135af8161320f565b9050919050565b600060208201905081810360008301526135cf81613232565b9050919050565b600060208201905081810360008301526135ef81613255565b9050919050565b600060208201905061360b6000830184613278565b92915050565b60006040820190506136266000830185613278565b6136336020830184612eb3565b9392505050565b600060208201905061364f6000830184613287565b92915050565b600061365f613670565b905061366b8282613996565b919050565b6000604051905090565b600067ffffffffffffffff82111561369557613694613ace565b5b61369e82613afd565b9050602081019050919050565b600067ffffffffffffffff8211156136c6576136c5613ace565b5b6136cf82613afd565b9050602081019050919050565b60008190508160005260206000209050919050565b600081519050919050565b600081519050919050565b600082825260208201905092915050565b600082825260208201905092915050565b600081905092915050565b600061373f826138f9565b915061374a836138f9565b9250827fffffffffffffffffffffffffffffffffffffffffffffffffffffffffffffffff0382111561377f5761377e613a41565b5b828201905092915050565b6000613795826138f9565b91506137a0836138f9565b9250826137b0576137af613a70565b5b828204905092915050565b60006137c6826138f9565b91506137d1836138f9565b9250817fffffffffffffffffffffffffffffffffffffffffffffffffffffffffffffffff048311821515161561380a57613809613a41565b5b828202905092915050565b6000613820826138f9565b915061382b836138f9565b92508282101561383e5761383d613a41565b5b828203905092915050565b600061385482613903565b915061385f83613903565b92508282101561387257613871613a41565b5b828203905092915050565b6000613888826138d9565b9050919050565b600061389a826138d9565b9050919050565b60008115159050919050565b60007fffffffff0000000000000000000000000000000000000000000000000000000082169050919050565b600073ffffffffffffffffffffffffffffffffffffffff82169050919050565b6000819050919050565b600060ff82169050919050565b600061391b82613903565b9050919050565b82818337600083830152505050565b60005b8381101561394f578082015181840152602081019050613934565b8381111561395e576000848401525b50505050565b6000600282049050600182168061397c57607f821691505b602082108114156139905761398f613a9f565b5b50919050565b61399f82613afd565b810181811067ffffffffffffffff821117156139be576139bd613ace565b5b80604052505050565b60006139d2826138f9565b91507fffffffffffffffffffffffffffffffffffffffffffffffffffffffffffffffff821415613a0557613a04613a41565b5b600182019050919050565b6000613a1b826138f9565b9150613a26836138f9565b925082613a3657613a35613a70565b5b828206905092915050565b7f4e487b7100000000000000000000000000000000000000000000000000000000600052601160045260246000fd5b7f4e487b7100000000000000000000000000000000000000000000000000000000600052601260045260246000fd5b7f4e487b7100000000000000000000000000000000000000000000000000000000600052602260045260246000fd5b7f4e487b7100000000000000000000000000000000000000000000000000000000600052604160045260246000fd5b6000601f19601f8301169050919050565b7f4552433732313a207472616e7366657220746f206e6f6e20455243373231526560008201527f63656976657220696d706c656d656e7465720000000000000000000000000000602082015250565b7f4552433732313a207472616e736665722066726f6d20696e636f72726563742060008201527f6f776e6572000000000000000000000000000000000000000000000000000000602082015250565b7f4552433732313a20746f6b656e20616c7265616479206d696e74656400000000600082015250565b7f4e6f74204d696e7461626c652044657800000000000000000000000000000000600082015250565b7f4552433732313a207472616e7366657220746f20746865207a65726f2061646460008201527f7265737300000000000000000000000000000000000000000000000000000000602082015250565b7f4552433732313a20617070726f766520746f2063616c6c657200000000000000600082015250565b7f4552433732313a206f70657261746f7220717565727920666f72206e6f6e657860008201527f697374656e7420746f6b656e0000000000000000000000000000000000000000602082015250565b7f4552433732313a20617070726f76652063616c6c6572206973206e6f74206f7760008201527f6e6572206e6f7220617070726f76656420666f7220616c6c0000000000000000602082015250565b7f4552433732313a2062616c616e636520717565727920666f7220746865207a6560008201527f726f206164647265737300000000000000000000000000000000000000000000602082015250565b7f4552433732313a206f776e657220717565727920666f72206e6f6e657869737460008201527f656e7420746f6b656e0000000000000000000000000000000000000000000000602082015250565b7f4552433732313a206d696e7420746f20746865207a65726f2061646472657373600082015250565b7f4552433732313a20617070726f76656420717565727920666f72206e6f6e657860008201527f697374656e7420746f6b656e0000000000000000000000000000000000000000602082015250565b7f4e6f6e6578697374656e7420746f6b656e210000000000000000000000000000600082015250565b7f2e6a736f6e000000000000000000000000000000000000000000000000000000600082015250565b7f4552433732313a20617070726f76616c20746f2063757272656e74206f776e6560008201527f7200000000000000000000000000000000000000000000000000000000000000602082015250565b7f4e6f7420456e6f7567682042616c616e63652100000000000000000000000000600082015250565b7f4552433732313a207472616e736665722063616c6c6572206973206e6f74206f60008201527f776e6572206e6f7220617070726f766564000000000000000000000000000000602082015250565b7f4e6f742061206f776e65722063616c6c21000000000000000000000000000000600082015250565b613f758161387d565b8114613f8057600080fd5b50565b613f8c8161388f565b8114613f9757600080fd5b50565b613fa3816138a1565b8114613fae57600080fd5b50565b613fba816138ad565b8114613fc557600080fd5b50565b613fd1816138f9565b8114613fdc57600080fd5b50565b613fe881613903565b8114613ff357600080fd5b5056fea26469706673582212207c098e4916e8c0f88bcdc798ff399656b1f85b477035d09d5563003736eabc0c64736f6c63430008020033",
  "immutableReferences": {},
  "source": "// SPDX-License-Identifier: MIT\npragma solidity ^0.8.2;\nimport \"@openzeppelin/contracts/token/ERC721/ERC721.sol\";\n\n\ninterface ItemContract {\n    function getFloorPrice(uint8 _itemType) external view returns (uint256);\n    function specificItemOwnership(address _owner, uint8 _itemType) external view returns (uint256);\n}\n\n\n// Pick during the meeting 1/10000\n// Shiny logic (every mint reset, if you have lucky totem higher chance, if you mintQuantity 10, it increments the probability of minting shiny on each loop of mint\n\n// Before the personalities in 1/10 chance call the chainlink contract \n// Batch actions\n\n\n\ncontract Metamon is ERC721 {\n    using Strings for uint256;\n\n    address payable public owner;\n    address _itemContractAddress = 0x1E6059Ec57aE39D2C73E5C3821a26FAFfD68E016; // TODO: we will hardcode it for now\n    \n    ItemContract _item = ItemContract(_itemContractAddress);  // TODO: move this declaration outside of this function\n\n\n    string private itemBaseURI;\n    string private metamonBaseURI;\n    string private baseURI;\n\n    event ReceivedEth(address _reciever, uint256 _value);\n    event MetamonMint(uint256 _tokenId, address _reciever);\n    event MetamonBurn(uint256 _tokenId, uint8 _dexId, address _burner);\n\n    uint8 public currentMintPhase = 1;\n    uint8[5] private withLuckyTotem = [99, 98, 97, 96, 95];  // TODO: total count of 100 probabilities \n    uint32[5] private withoutLuckyTotem = [296, 292, 288, 284, 280];  // TODO: total number of 100 probabilities\n    uint256[8] private metamonDex = [1, 2, 3, 4, 7, 10, 11, 13]; // REPR: METAMONT DEX NUMBERS\n    uint256[8] private metamonSupply = [1000, 0, 0, 2000, 1000, 3000, 4000, 1000]; // REPR: STARTS FROM TOKEN IDS\n    uint256[8] private metamonMinted = [0, 0, 0, 0, 0, 0, 0, 0]; // REPR: STARTS FROM TOKEN IDS\n    uint256[8] private metamonMintable = [1, 0, 0, 1, 0, 0, 0, 1]; // REPR: DIRECTLY MINTABLE METAMON DEXIDS\n    uint256[8] private metamonFloor = [.05 ether, 0 ether, 0 ether, .025 ether, 0.035 ether, 0.045 ether, 0.055 ether, 0.065 ether];\n\n    uint256 _tokenIds;\n\n    mapping(uint8 => uint256[]) private metamonMintPhases; // REPR: Metamon mint phases by DAX numbers;\n    mapping(uint256 => uint256) private familyMetamon; // REPR: Metamon evalution trees \n\n    mapping(uint256 => uint256) private itemEvaluation; // REPR: Which item needed for which metamon evalution\n    mapping(uint256 => uint256) private burnEvaluation; // REPR: How many metamon balance needed for evalution for next metamon dex\n\n    mapping(address => uint256) private _collectedItems; // MINTING FIRST CHECK IF ADDRESS COLLEDTED ANY ITEMS BEFORE\n    mapping(address => uint256) private _collectedDex; // TOTAL COLLECTED DAX ITEMS IMPORTANT TO IDENTIFY SHINY LOGIC\n\n    mapping(uint256 => bool) public metamonInfoShiny; // REPR: Holds the info about If the minted metamon was shiny or not\n    mapping(uint256 => uint8) public metamonInfoPersonality; // REPR: Holds the info about the personality of the metamon\n\n    constructor() payable ERC721(\"Metamon NFT\", \"NFT\") {\n        owner = payable(msg.sender);\n        // FILLING INFORMATION OF METAMAN AND EVALUATION\n        burnEvaluation[1] = 2;\n        burnEvaluation[2] = 3;\n        familyMetamon[1] = 2;\n        familyMetamon[2] = 3;\n        // ****************\n        burnEvaluation[4] = 2;\n        burnEvaluation[5] = 3;\n        familyMetamon[4] = 5;\n        familyMetamon[5] = 6;\n        // ****************\n        metamonMintPhases[1] = [1, 4, 7, 20, 86, 133];\n        // ****************\n        burnEvaluation[129] = 5; // i.e. 5 #DEX129 has to burned for #DEX139\n    }\n\n    modifier onlyOwner(address sender) {\n        require(sender == owner, \"Not a owner call!\");\n        _;\n    }\n\n    ///////////////////////////////////////////////////////////////////////////\n    // State Changes\n    ///////////////////////////////////////////////////////////////////////////\n    function changeFloorPrice(\n        uint256 _new_price,\n        uint8 _dexId\n    )\n        external\n        onlyOwner(msg.sender)\n    {\n        metamonFloor[_dexId - 1] = _new_price;\n    }\n\n    function changeSupplyDexId(\n        uint256 _new_supply,\n        uint8 _dexId\n    )\n        external\n        onlyOwner(msg.sender)\n    {\n        metamonSupply[_dexId - 1] = _new_supply;\n    }\n\n    ///////////////////////////////////////////////////////////////////////////\n    // State Info\n    ///////////////////////////////////////////////////////////////////////////\n    function getFloorPrice(uint8 _dexId)\n        public\n        view\n        returns (uint256)\n    {\n        return metamonFloor[_dexId - 1];\n    }\n \n    function getWalletBalance()\n        public\n        view\n        onlyOwner(msg.sender)\n        returns (uint256)\n    {\n        return address(this).balance;\n    }\n\n    function getSupplyDex(uint8 _dexId)\n        public\n        view \n        returns (uint256)\n    {\n        return metamonSupply[_dexId - 1] - metamonMinted[_dexId - 1];\n    }\n    \n    ///////////////////////////////////////////////////////////////////////////\n    // Contract ETH Deals\n    ///////////////////////////////////////////////////////////////////////////\n    fallback() external payable {}\n\n    receive() external payable {\n        emit ReceivedEth(msg.sender, msg.value);\n    }\n\n    function transferContractBalance(\n        address payable _recipient,\n        uint256 _amount\n    ) external onlyOwner(msg.sender) returns (bool) {\n        require(_amount <= getWalletBalance(), \"Not Enough Balance!\");\n        _recipient.transfer(_amount);\n        return true;\n    }\n\n    ///////////////////////////////////////////////////////////////////////////\n    // Meta Data Related\n    ///////////////////////////////////////////////////////////////////////////\n    function setBaseURI(string memory _baseURILink)\n        external\n        onlyOwner(msg.sender)\n    {\n        baseURI = _baseURILink;\n    }\n\n    function getBaseURI()\n        external\n        view\n        onlyOwner(msg.sender)\n        returns (string memory)\n    {\n        return baseURI;\n    }\n\n    function _baseURI() internal view virtual override returns (string memory) {\n        // We will have different baseURIs for Item and Metamon \n        // TODO: move items into different collection\n        return baseURI;\n    }\n\n    function tokenURI(uint256 tokenId)\n        public\n        view\n        virtual\n        override\n        returns (string memory)\n    {\n        require(_exists(tokenId), \"Nonexistent token!\");\n        // We can retrieve the information about token id \n        // -> is it Item or Metamon\n        // -> what is the dax number\n        // -> based on the information that we retrieve we will return base_uri\n        // TODO: move items into different collection\n\n        return\n            bytes(baseURI).length > 0\n                ? string(abi.encodePacked(baseURI, tokenId.toString(), \".json\"))\n                : \"\";\n    }\n\n    ///////////////////////////////////////////////////////////////////////////\n    // Mint / Randomness Mockup TODO: remove this section when Coinbase Implementation\n    ///////////////////////////////////////////////////////////////////////////\n    function _mockupRandomPersonality() internal pure returns(uint8) {\n        uint8[4] memory personality = [1, 2, 3, 4];\n        return personality[0];\n    }\n\n    function _mockupRandomShiny(uint256 _quantity, bool lucky) internal view returns(bool) {\n        // TODO: randomness comes from the loop\n        if (lucky){\n            uint256 probability = withLuckyTotem[_quantity - 1];\n            // TODO: there should be some randomness based on the probability\n            return true;\n        } else {\n            uint256 probability = withoutLuckyTotem[_quantity - 1];\n            // TODO: there should be some randomness based on the probability\n            return false;\n        }\n        \n    }\n\n    function _checkLuckyOwnership(address _recipient) internal view returns (bool){\n        // TODO: lucky item hardcoded as \"2\" for this \n        uint256 total_ownership = _item.specificItemOwnership(_recipient, 2); // Checks whether Lucky Totem has been owned/or not\n        if (total_ownership == 0){\n            return false;\n        } else {\n            return true;\n        }\n    }\n\n    ///////////////////////////////////////////////////////////////////////////\n    // Mint / Burn Phases\n    ///////////////////////////////////////////////////////////////////////////\n    function burn(uint256 _value) public {\n        _burn(_value);\n    }\n\n    function mintableDex(uint8 _dexId) public view returns(bool){\n        // Helper functions checks if Dex Id can be mintable for current mint phase\n        for (uint i=0; i < metamonMintPhases[currentMintPhase].length; i ++){\n            if (_dexId == metamonMintPhases[currentMintPhase][i]){\n                return true;\n            }\n        }\n        return false;\n    }\n\n    modifier mintableDexPhase(uint8 _dexId) {\n        require(mintableDex(_dexId) == true, 'Not Mintable Dex');\n        _;\n    }\n\n    modifier mintableSupply(uint8 _dexId, uint256 _quantity){\n        require(_quantity <= getSupplyDex(_dexId));\n        _;\n    }\n\n    function mintSale(\n            address _recipient, \n            uint256 _quantity,\n            uint8 _dexId\n\n        ) public payable mintableDexPhase(_dexId) mintableSupply(_dexId, _quantity) {\n        // TODO: after minting make sure to push token information into mapping\n        uint256 floorPrice = getFloorPrice(_dexId);\n        if (msg.sender != owner) {\n            require(msg.value == floorPrice * _quantity, \"Not Enough Balance!\");\n        }\n        \n        bool lucky = _checkLuckyOwnership(_recipient);\n        uint256 j = _tokenIds;\n        for (uint256 i = 0; i < _quantity; i++) {\n            j++;\n            _mint(_recipient, j);\n            metamonInfoPersonality[j] = _mockupRandomPersonality();\n            metamonInfoShiny[j]= _mockupRandomShiny(i, lucky);\n            emit MetamonMint(j, _recipient);\n        }\n        _tokenIds = j;\n    }\n\n    function evalutionItemBurn(\n        address _recipient,\n        uint256 _sendTokenId,\n        uint256 _sendDaxId\n    ) public {\n        // TODO: burn metamon and item together\n    }\n\n    function evalutionMetaBurn(\n        address _recipient, \n        uint256 _sendTokenId, \n        uint256 _sendDaxId, \n        uint256 _quantitySend,  \n        uint256 _targetDax, \n        uint256 _itemTokenId\n        ) public {\n        // TODO: only burn metamon\n        // check whether owner has item token\n        \n        // burn(_send, TokenId);\n        // uint256 _evaluationToken = burnEvaluation[_sendDaxId];\n        // uint256 _tokenIds = _tokenIds + 1;\n        // _mint(_recipient, _tokenIds);\n    }\n}",
  "sourcePath": "/Users/aipek/Documents/metamon_contracts/contracts/Metamon.sol",
  "compiler": {
    "name": "solc",
    "version": "0.8.2+commit.661d1103.Emscripten.clang"
  },
  "schemaVersion": "3.4.4",
  "updatedAt": "2022-02-26T12:36:18.361Z",
  "networkType": "ethereum",
  "devdoc": {
    "kind": "dev",
    "methods": {
      "approve(address,uint256)": {
        "details": "See {IERC721-approve}."
      },
      "balanceOf(address)": {
        "details": "See {IERC721-balanceOf}."
      },
      "getApproved(uint256)": {
        "details": "See {IERC721-getApproved}."
      },
      "isApprovedForAll(address,address)": {
        "details": "See {IERC721-isApprovedForAll}."
      },
      "name()": {
        "details": "See {IERC721Metadata-name}."
      },
      "ownerOf(uint256)": {
        "details": "See {IERC721-ownerOf}."
      },
      "safeTransferFrom(address,address,uint256)": {
        "details": "See {IERC721-safeTransferFrom}."
      },
      "safeTransferFrom(address,address,uint256,bytes)": {
        "details": "See {IERC721-safeTransferFrom}."
      },
      "setApprovalForAll(address,bool)": {
        "details": "See {IERC721-setApprovalForAll}."
      },
      "supportsInterface(bytes4)": {
        "details": "See {IERC165-supportsInterface}."
      },
      "symbol()": {
        "details": "See {IERC721Metadata-symbol}."
      },
      "tokenURI(uint256)": {
        "details": "See {IERC721Metadata-tokenURI}."
      },
      "transferFrom(address,address,uint256)": {
        "details": "See {IERC721-transferFrom}."
      }
    },
    "version": 1
  },
  "userdoc": {
    "kind": "user",
    "methods": {},
    "version": 1
  }
}