{
  "contractName": "MetaTrainer",
  "abi": [
    {
      "inputs": [],
      "stateMutability": "nonpayable",
      "type": "constructor"
    },
    {
      "anonymous": false,
      "inputs": [
        {
          "indexed": true,
          "internalType": "address",
          "name": "owner",
          "type": "address"
        },
        {
          "indexed": true,
          "internalType": "address",
          "name": "approved",
          "type": "address"
        },
        {
          "indexed": true,
          "internalType": "uint256",
          "name": "tokenId",
          "type": "uint256"
        }
      ],
      "name": "Approval",
      "type": "event"
    },
    {
      "anonymous": false,
      "inputs": [
        {
          "indexed": true,
          "internalType": "address",
          "name": "owner",
          "type": "address"
        },
        {
          "indexed": true,
          "internalType": "address",
          "name": "operator",
          "type": "address"
        },
        {
          "indexed": false,
          "internalType": "bool",
          "name": "approved",
          "type": "bool"
        }
      ],
      "name": "ApprovalForAll",
      "type": "event"
    },
    {
      "anonymous": false,
      "inputs": [
        {
          "indexed": true,
          "internalType": "address",
          "name": "previousOwner",
          "type": "address"
        },
        {
          "indexed": true,
          "internalType": "address",
          "name": "newOwner",
          "type": "address"
        }
      ],
      "name": "OwnershipTransferred",
      "type": "event"
    },
    {
      "anonymous": false,
      "inputs": [
        {
          "indexed": false,
          "internalType": "uint256",
          "name": "_tokenId",
          "type": "uint256"
        },
        {
          "indexed": false,
          "internalType": "address",
          "name": "_reciever",
          "type": "address"
        }
      ],
      "name": "TrainerMint",
      "type": "event"
    },
    {
      "anonymous": false,
      "inputs": [
        {
          "indexed": true,
          "internalType": "address",
          "name": "from",
          "type": "address"
        },
        {
          "indexed": true,
          "internalType": "address",
          "name": "to",
          "type": "address"
        },
        {
          "indexed": true,
          "internalType": "uint256",
          "name": "tokenId",
          "type": "uint256"
        }
      ],
      "name": "Transfer",
      "type": "event"
    },
    {
      "inputs": [
        {
          "internalType": "address",
          "name": "to",
          "type": "address"
        },
        {
          "internalType": "uint256",
          "name": "tokenId",
          "type": "uint256"
        }
      ],
      "name": "approve",
      "outputs": [],
      "stateMutability": "nonpayable",
      "type": "function"
    },
    {
      "inputs": [
        {
          "internalType": "address",
          "name": "owner",
          "type": "address"
        }
      ],
      "name": "balanceOf",
      "outputs": [
        {
          "internalType": "uint256",
          "name": "",
          "type": "uint256"
        }
      ],
      "stateMutability": "view",
      "type": "function"
    },
    {
      "inputs": [],
      "name": "currentSupply",
      "outputs": [
        {
          "internalType": "uint256",
          "name": "",
          "type": "uint256"
        }
      ],
      "stateMutability": "view",
      "type": "function"
    },
    {
      "inputs": [
        {
          "internalType": "uint256",
          "name": "tokenId",
          "type": "uint256"
        }
      ],
      "name": "getApproved",
      "outputs": [
        {
          "internalType": "address",
          "name": "",
          "type": "address"
        }
      ],
      "stateMutability": "view",
      "type": "function"
    },
    {
      "inputs": [
        {
          "internalType": "address",
          "name": "owner",
          "type": "address"
        },
        {
          "internalType": "address",
          "name": "operator",
          "type": "address"
        }
      ],
      "name": "isApprovedForAll",
      "outputs": [
        {
          "internalType": "bool",
          "name": "",
          "type": "bool"
        }
      ],
      "stateMutability": "view",
      "type": "function"
    },
    {
      "inputs": [],
      "name": "name",
      "outputs": [
        {
          "internalType": "string",
          "name": "",
          "type": "string"
        }
      ],
      "stateMutability": "view",
      "type": "function"
    },
    {
      "inputs": [],
      "name": "owner",
      "outputs": [
        {
          "internalType": "address",
          "name": "",
          "type": "address"
        }
      ],
      "stateMutability": "view",
      "type": "function"
    },
    {
      "inputs": [
        {
          "internalType": "uint256",
          "name": "tokenId",
          "type": "uint256"
        }
      ],
      "name": "ownerOf",
      "outputs": [
        {
          "internalType": "address",
          "name": "",
          "type": "address"
        }
      ],
      "stateMutability": "view",
      "type": "function"
    },
    {
      "inputs": [],
      "name": "renounceOwnership",
      "outputs": [],
      "stateMutability": "nonpayable",
      "type": "function"
    },
    {
      "inputs": [
        {
          "internalType": "address",
          "name": "from",
          "type": "address"
        },
        {
          "internalType": "address",
          "name": "to",
          "type": "address"
        },
        {
          "internalType": "uint256",
          "name": "tokenId",
          "type": "uint256"
        }
      ],
      "name": "safeTransferFrom",
      "outputs": [],
      "stateMutability": "nonpayable",
      "type": "function"
    },
    {
      "inputs": [
        {
          "internalType": "address",
          "name": "from",
          "type": "address"
        },
        {
          "internalType": "address",
          "name": "to",
          "type": "address"
        },
        {
          "internalType": "uint256",
          "name": "tokenId",
          "type": "uint256"
        },
        {
          "internalType": "bytes",
          "name": "_data",
          "type": "bytes"
        }
      ],
      "name": "safeTransferFrom",
      "outputs": [],
      "stateMutability": "nonpayable",
      "type": "function"
    },
    {
      "inputs": [
        {
          "internalType": "address",
          "name": "operator",
          "type": "address"
        },
        {
          "internalType": "bool",
          "name": "approved",
          "type": "bool"
        }
      ],
      "name": "setApprovalForAll",
      "outputs": [],
      "stateMutability": "nonpayable",
      "type": "function"
    },
    {
      "inputs": [
        {
          "internalType": "bytes4",
          "name": "interfaceId",
          "type": "bytes4"
        }
      ],
      "name": "supportsInterface",
      "outputs": [
        {
          "internalType": "bool",
          "name": "",
          "type": "bool"
        }
      ],
      "stateMutability": "view",
      "type": "function"
    },
    {
      "inputs": [],
      "name": "symbol",
      "outputs": [
        {
          "internalType": "string",
          "name": "",
          "type": "string"
        }
      ],
      "stateMutability": "view",
      "type": "function"
    },
    {
      "inputs": [
        {
          "internalType": "uint256",
          "name": "tokenId",
          "type": "uint256"
        }
      ],
      "name": "tokenURI",
      "outputs": [
        {
          "internalType": "string",
          "name": "",
          "type": "string"
        }
      ],
      "stateMutability": "view",
      "type": "function"
    },
    {
      "inputs": [
        {
          "internalType": "address",
          "name": "from",
          "type": "address"
        },
        {
          "internalType": "address",
          "name": "to",
          "type": "address"
        },
        {
          "internalType": "uint256",
          "name": "tokenId",
          "type": "uint256"
        }
      ],
      "name": "transferFrom",
      "outputs": [],
      "stateMutability": "nonpayable",
      "type": "function"
    },
    {
      "inputs": [
        {
          "internalType": "address",
          "name": "newOwner",
          "type": "address"
        }
      ],
      "name": "transferOwnership",
      "outputs": [],
      "stateMutability": "nonpayable",
      "type": "function"
    },
    {
      "inputs": [],
      "name": "mintTrainer",
      "outputs": [],
      "stateMutability": "nonpayable",
      "type": "function"
    },
    {
      "inputs": [
        {
          "internalType": "address",
          "name": "_owner",
          "type": "address"
        },
        {
          "internalType": "uint256",
          "name": "startId",
          "type": "uint256"
        },
        {
          "internalType": "uint256",
          "name": "endId",
          "type": "uint256"
        }
      ],
      "name": "tokensOfOwner",
      "outputs": [
        {
          "internalType": "uint256[]",
          "name": "",
          "type": "uint256[]"
        }
      ],
      "stateMutability": "view",
      "type": "function"
    },
    {
      "inputs": [
        {
          "internalType": "address",
          "name": "_owner",
          "type": "address"
        }
      ],
      "name": "walletOfOwner",
      "outputs": [
        {
          "internalType": "uint256[]",
          "name": "",
          "type": "uint256[]"
        }
      ],
      "stateMutability": "view",
      "type": "function"
    },
    {
      "inputs": [],
      "name": "withdraw",
      "outputs": [],
      "stateMutability": "nonpayable",
      "type": "function"
    },
    {
      "inputs": [
        {
          "internalType": "string",
          "name": "_uri",
          "type": "string"
        }
      ],
      "name": "setBaseURI",
      "outputs": [],
      "stateMutability": "nonpayable",
      "type": "function"
    }
  ],
  "bytecode": "0x608060405260405180602001604052806000815250600790805190602001906200002b929190620001ce565b503480156200003957600080fd5b506040518060400160405280601381526020017f4d696e694d6574616d6f6e20547261696e6572000000000000000000000000008152506040518060400160405280600e81526020017f4d696e694d6574616d6f6e2d54520000000000000000000000000000000000008152508160009080519060200190620000be929190620001ce565b508060019080519060200190620000d7929190620001ce565b505050620000fa620000ee6200010060201b60201c565b6200010860201b60201c565b620002e3565b600033905090565b6000600660009054906101000a900473ffffffffffffffffffffffffffffffffffffffff16905081600660006101000a81548173ffffffffffffffffffffffffffffffffffffffff021916908373ffffffffffffffffffffffffffffffffffffffff1602179055508173ffffffffffffffffffffffffffffffffffffffff168173ffffffffffffffffffffffffffffffffffffffff167f8be0079c531659141344cd1fd0a4f28419497f9722a3daafe3b4186f6b6457e060405160405180910390a35050565b828054620001dc906200027e565b90600052602060002090601f0160209004810192826200020057600085556200024c565b82601f106200021b57805160ff19168380011785556200024c565b828001600101855582156200024c579182015b828111156200024b5782518255916020019190600101906200022e565b5b5090506200025b91906200025f565b5090565b5b808211156200027a57600081600090555060010162000260565b5090565b600060028204905060018216806200029757607f821691505b60208210811415620002ae57620002ad620002b4565b5b50919050565b7f4e487b7100000000000000000000000000000000000000000000000000000000600052602260045260246000fd5b61342b80620002f36000396000f3fe608060405234801561001057600080fd5b50600436106101425760003560e01c8063715018a6116100b8578063b0ac43b31161007c578063b0ac43b31461034f578063b88d4fde14610359578063c839fe9414610375578063c87b56dd146103a5578063e985e9c5146103d5578063f2fde38b1461040557610142565b8063715018a6146102cf578063771282f6146102d95780638da5cb5b146102f757806395d89b4114610315578063a22cb4651461033357610142565b80633ccfd60b1161010a5780633ccfd60b146101fd57806342842e0e14610207578063438b63001461022357806355f804b3146102535780636352211e1461026f57806370a082311461029f57610142565b806301ffc9a71461014757806306fdde0314610177578063081812fc14610195578063095ea7b3146101c557806323b872dd146101e1575b600080fd5b610161600480360381019061015c919061228e565b610421565b60405161016e919061280e565b60405180910390f35b61017f610503565b60405161018c9190612829565b60405180910390f35b6101af60048036038101906101aa9190612331565b610595565b6040516101bc919061274e565b60405180910390f35b6101df60048036038101906101da91906121b2565b61061a565b005b6101fb60048036038101906101f6919061209c565b610732565b005b610205610792565b005b610221600480360381019061021c919061209c565b610887565b005b61023d6004803603810190610238919061202f565b6108a7565b60405161024a91906127ec565b60405180910390f35b61026d600480360381019061026891906122e8565b610945565b005b61028960048036038101906102849190612331565b6109db565b604051610296919061274e565b60405180910390f35b6102b960048036038101906102b4919061202f565b610a8d565b6040516102c69190612a4b565b60405180910390f35b6102d7610b45565b005b6102e1610bcd565b6040516102ee9190612a4b565b60405180910390f35b6102ff610bd3565b60405161030c919061274e565b60405180910390f35b61031d610bfd565b60405161032a9190612829565b60405180910390f35b61034d60048036038101906103489190612172565b610c8f565b005b610357610ca5565b005b610373600480360381019061036e91906120ef565b610d1a565b005b61038f600480360381019061038a91906121f2565b610d7c565b60405161039c91906127ec565b60405180910390f35b6103bf60048036038101906103ba9190612331565b610edc565b6040516103cc9190612829565b60405180910390f35b6103ef60048036038101906103ea919061205c565b610f83565b6040516103fc919061280e565b60405180910390f35b61041f600480360381019061041a919061202f565b611017565b005b60007f80ac58cd000000000000000000000000000000000000000000000000000000007bffffffffffffffffffffffffffffffffffffffffffffffffffffffff1916827bffffffffffffffffffffffffffffffffffffffffffffffffffffffff191614806104ec57507f5b5e139f000000000000000000000000000000000000000000000000000000007bffffffffffffffffffffffffffffffffffffffffffffffffffffffff1916827bffffffffffffffffffffffffffffffffffffffffffffffffffffffff1916145b806104fc57506104fb8261110f565b5b9050919050565b60606000805461051290612d4c565b80601f016020809104026020016040519081016040528092919081815260200182805461053e90612d4c565b801561058b5780601f106105605761010080835404028352916020019161058b565b820191906000526020600020905b81548152906001019060200180831161056e57829003601f168201915b5050505050905090565b60006105a082611179565b6105df576040517f08c379a00000000000000000000000000000000000000000000000000000000081526004016105d6906129ab565b60405180910390fd5b6004600083815260200190815260200160002060009054906101000a900473ffffffffffffffffffffffffffffffffffffffff169050919050565b6000610625826109db565b90508073ffffffffffffffffffffffffffffffffffffffff168373ffffffffffffffffffffffffffffffffffffffff161415610696576040517f08c379a000000000000000000000000000000000000000000000000000000000815260040161068d90612a0b565b60405180910390fd5b8073ffffffffffffffffffffffffffffffffffffffff166106b56111e5565b73ffffffffffffffffffffffffffffffffffffffff1614806106e457506106e3816106de6111e5565b610f83565b5b610723576040517f08c379a000000000000000000000000000000000000000000000000000000000815260040161071a9061292b565b60405180910390fd5b61072d83836111ed565b505050565b61074361073d6111e5565b826112a6565b610782576040517f08c379a000000000000000000000000000000000000000000000000000000000815260040161077990612a2b565b60405180910390fd5b61078d838383611384565b505050565b61079a6111e5565b73ffffffffffffffffffffffffffffffffffffffff166107b8610bd3565b73ffffffffffffffffffffffffffffffffffffffff161461080e576040517f08c379a0000000000000000000000000000000000000000000000000000000008152600401610805906129cb565b60405180910390fd5b60003073ffffffffffffffffffffffffffffffffffffffff164760405161083490612739565b60006040518083038185875af1925050503d8060008114610871576040519150601f19603f3d011682016040523d82523d6000602084013e610876565b606091505b505090508061088457600080fd5b50565b6108a283838360405180602001604052806000815250610d1a565b505050565b60603073ffffffffffffffffffffffffffffffffffffffff1663c839fe948360006008546040518463ffffffff1660e01b81526004016108e9939291906127b5565b60006040518083038186803b15801561090157600080fd5b505afa158015610915573d6000803e3d6000fd5b505050506040513d6000823e3d601f19601f8201168201806040525081019061093e9190612245565b9050919050565b61094d6111e5565b73ffffffffffffffffffffffffffffffffffffffff1661096b610bd3565b73ffffffffffffffffffffffffffffffffffffffff16146109c1576040517f08c379a00000000000000000000000000000000000000000000000000000000081526004016109b8906129cb565b60405180910390fd5b80600790805190602001906109d7929190611d90565b5050565b6000806002600084815260200190815260200160002060009054906101000a900473ffffffffffffffffffffffffffffffffffffffff169050600073ffffffffffffffffffffffffffffffffffffffff168173ffffffffffffffffffffffffffffffffffffffff161415610a84576040517f08c379a0000000000000000000000000000000000000000000000000000000008152600401610a7b9061296b565b60405180910390fd5b80915050919050565b60008073ffffffffffffffffffffffffffffffffffffffff168273ffffffffffffffffffffffffffffffffffffffff161415610afe576040517f08c379a0000000000000000000000000000000000000000000000000000000008152600401610af59061294b565b60405180910390fd5b600360008373ffffffffffffffffffffffffffffffffffffffff1673ffffffffffffffffffffffffffffffffffffffff168152602001908152602001600020549050919050565b610b4d6111e5565b73ffffffffffffffffffffffffffffffffffffffff16610b6b610bd3565b73ffffffffffffffffffffffffffffffffffffffff1614610bc1576040517f08c379a0000000000000000000000000000000000000000000000000000000008152600401610bb8906129cb565b60405180910390fd5b610bcb60006115eb565b565b60085481565b6000600660009054906101000a900473ffffffffffffffffffffffffffffffffffffffff16905090565b606060018054610c0c90612d4c565b80601f0160208091040260200160405190810160405280929190818152602001828054610c3890612d4c565b8015610c855780601f10610c5a57610100808354040283529160200191610c85565b820191906000526020600020905b815481529060010190602001808311610c6857829003601f168201915b5050505050905090565b610ca1610c9a6111e5565b83836116b1565b5050565b60006008549050610cc233600183610cbd9190612bc9565b61181e565b600160086000828254610cd59190612bc9565b925050819055507f23f6210d9dbf3ae63036aea5dfe774393fc88c65dcab1dafc91eea73d416399860085433604051610d0f929190612a66565b60405180910390a150565b610d2b610d256111e5565b836112a6565b610d6a576040517f08c379a0000000000000000000000000000000000000000000000000000000008152600401610d6190612a2b565b60405180910390fd5b610d76848484846119f8565b50505050565b60606000610d8985610a8d565b90506000811415610de657600067ffffffffffffffff811115610daf57610dae612ee5565b5b604051908082528060200260200182016040528015610ddd5781602001602082028036833780820191505090505b50915050610ed5565b60008167ffffffffffffffff811115610e0257610e01612ee5565b5b604051908082528060200260200182016040528015610e305781602001602082028036833780820191505090505b5090506000808690505b85811015610ecd5783821415610e4f57610ecd565b8773ffffffffffffffffffffffffffffffffffffffff16610e6f826109db565b73ffffffffffffffffffffffffffffffffffffffff161415610eba5780838381518110610e9f57610e9e612eb6565b5b6020026020010181815250508180610eb690612daf565b9250505b8080610ec590612daf565b915050610e3a565b508193505050505b9392505050565b6060610ee782611179565b610f26576040517f08c379a0000000000000000000000000000000000000000000000000000000008152600401610f1d906129eb565b60405180910390fd5b6000610f30611a54565b90506000815111610f505760405180602001604052806000815250610f7b565b80610f5a84611a6b565b604051602001610f6b929190612715565b6040516020818303038152906040525b915050919050565b6000600560008473ffffffffffffffffffffffffffffffffffffffff1673ffffffffffffffffffffffffffffffffffffffff16815260200190815260200160002060008373ffffffffffffffffffffffffffffffffffffffff1673ffffffffffffffffffffffffffffffffffffffff16815260200190815260200160002060009054906101000a900460ff16905092915050565b61101f6111e5565b73ffffffffffffffffffffffffffffffffffffffff1661103d610bd3565b73ffffffffffffffffffffffffffffffffffffffff1614611093576040517f08c379a000000000000000000000000000000000000000000000000000000000815260040161108a906129cb565b60405180910390fd5b600073ffffffffffffffffffffffffffffffffffffffff168173ffffffffffffffffffffffffffffffffffffffff161415611103576040517f08c379a00000000000000000000000000000000000000000000000000000000081526004016110fa9061286b565b60405180910390fd5b61110c816115eb565b50565b60007f01ffc9a7000000000000000000000000000000000000000000000000000000007bffffffffffffffffffffffffffffffffffffffffffffffffffffffff1916827bffffffffffffffffffffffffffffffffffffffffffffffffffffffff1916149050919050565b60008073ffffffffffffffffffffffffffffffffffffffff166002600084815260200190815260200160002060009054906101000a900473ffffffffffffffffffffffffffffffffffffffff1673ffffffffffffffffffffffffffffffffffffffff1614159050919050565b600033905090565b816004600083815260200190815260200160002060006101000a81548173ffffffffffffffffffffffffffffffffffffffff021916908373ffffffffffffffffffffffffffffffffffffffff160217905550808273ffffffffffffffffffffffffffffffffffffffff16611260836109db565b73ffffffffffffffffffffffffffffffffffffffff167f8c5be1e5ebec7d5bd14f71427d1e84f3dd0314c0f7b2291e5b200ac8c7c3b92560405160405180910390a45050565b60006112b182611179565b6112f0576040517f08c379a00000000000000000000000000000000000000000000000000000000081526004016112e79061290b565b60405180910390fd5b60006112fb836109db565b90508073ffffffffffffffffffffffffffffffffffffffff168473ffffffffffffffffffffffffffffffffffffffff16148061136a57508373ffffffffffffffffffffffffffffffffffffffff1661135284610595565b73ffffffffffffffffffffffffffffffffffffffff16145b8061137b575061137a8185610f83565b5b91505092915050565b8273ffffffffffffffffffffffffffffffffffffffff166113a4826109db565b73ffffffffffffffffffffffffffffffffffffffff16146113fa576040517f08c379a00000000000000000000000000000000000000000000000000000000081526004016113f19061288b565b60405180910390fd5b600073ffffffffffffffffffffffffffffffffffffffff168273ffffffffffffffffffffffffffffffffffffffff16141561146a576040517f08c379a0000000000000000000000000000000000000000000000000000000008152600401611461906128cb565b60405180910390fd5b611475838383611bcc565b6114806000826111ed565b6001600360008573ffffffffffffffffffffffffffffffffffffffff1673ffffffffffffffffffffffffffffffffffffffff16815260200190815260200160002060008282546114d09190612c50565b925050819055506001600360008473ffffffffffffffffffffffffffffffffffffffff1673ffffffffffffffffffffffffffffffffffffffff16815260200190815260200160002060008282546115279190612bc9565b92505081905550816002600083815260200190815260200160002060006101000a81548173ffffffffffffffffffffffffffffffffffffffff021916908373ffffffffffffffffffffffffffffffffffffffff160217905550808273ffffffffffffffffffffffffffffffffffffffff168473ffffffffffffffffffffffffffffffffffffffff167fddf252ad1be2c89b69c2b068fc378daa952ba7f163c4a11628f55a4df523b3ef60405160405180910390a46115e6838383611bd1565b505050565b6000600660009054906101000a900473ffffffffffffffffffffffffffffffffffffffff16905081600660006101000a81548173ffffffffffffffffffffffffffffffffffffffff021916908373ffffffffffffffffffffffffffffffffffffffff1602179055508173ffffffffffffffffffffffffffffffffffffffff168173ffffffffffffffffffffffffffffffffffffffff167f8be0079c531659141344cd1fd0a4f28419497f9722a3daafe3b4186f6b6457e060405160405180910390a35050565b8173ffffffffffffffffffffffffffffffffffffffff168373ffffffffffffffffffffffffffffffffffffffff161415611720576040517f08c379a0000000000000000000000000000000000000000000000000000000008152600401611717906128eb565b60405180910390fd5b80600560008573ffffffffffffffffffffffffffffffffffffffff1673ffffffffffffffffffffffffffffffffffffffff16815260200190815260200160002060008473ffffffffffffffffffffffffffffffffffffffff1673ffffffffffffffffffffffffffffffffffffffff16815260200190815260200160002060006101000a81548160ff0219169083151502179055508173ffffffffffffffffffffffffffffffffffffffff168373ffffffffffffffffffffffffffffffffffffffff167f17307eab39ab6107e8899845ad3d59bd9653f200f220920489ca2b5937696c3183604051611811919061280e565b60405180910390a3505050565b600073ffffffffffffffffffffffffffffffffffffffff168273ffffffffffffffffffffffffffffffffffffffff16141561188e576040517f08c379a00000000000000000000000000000000000000000000000000000000081526004016118859061298b565b60405180910390fd5b61189781611179565b156118d7576040517f08c379a00000000000000000000000000000000000000000000000000000000081526004016118ce906128ab565b60405180910390fd5b6118e360008383611bcc565b6001600360008473ffffffffffffffffffffffffffffffffffffffff1673ffffffffffffffffffffffffffffffffffffffff16815260200190815260200160002060008282546119339190612bc9565b92505081905550816002600083815260200190815260200160002060006101000a81548173ffffffffffffffffffffffffffffffffffffffff021916908373ffffffffffffffffffffffffffffffffffffffff160217905550808273ffffffffffffffffffffffffffffffffffffffff16600073ffffffffffffffffffffffffffffffffffffffff167fddf252ad1be2c89b69c2b068fc378daa952ba7f163c4a11628f55a4df523b3ef60405160405180910390a46119f460008383611bd1565b5050565b611a03848484611384565b611a0f84848484611bd6565b611a4e576040517f08c379a0000000000000000000000000000000000000000000000000000000008152600401611a459061284b565b60405180910390fd5b50505050565b606060405180602001604052806000815250905090565b60606000821415611ab3576040518060400160405280600181526020017f30000000000000000000000000000000000000000000000000000000000000008152509050611bc7565b600082905060005b60008214611ae5578080611ace90612daf565b915050600a82611ade9190612c1f565b9150611abb565b60008167ffffffffffffffff811115611b0157611b00612ee5565b5b6040519080825280601f01601f191660200182016040528015611b335781602001600182028036833780820191505090505b5090505b60008514611bc057600182611b4c9190612c50565b9150600a85611b5b9190612df8565b6030611b679190612bc9565b60f81b818381518110611b7d57611b7c612eb6565b5b60200101907effffffffffffffffffffffffffffffffffffffffffffffffffffffffffffff1916908160001a905350600a85611bb99190612c1f565b9450611b37565b8093505050505b919050565b505050565b505050565b6000611bf78473ffffffffffffffffffffffffffffffffffffffff16611d6d565b15611d60578373ffffffffffffffffffffffffffffffffffffffff1663150b7a02611c206111e5565b8786866040518563ffffffff1660e01b8152600401611c429493929190612769565b602060405180830381600087803b158015611c5c57600080fd5b505af1925050508015611c8d57506040513d601f19601f82011682018060405250810190611c8a91906122bb565b60015b611d10573d8060008114611cbd576040519150601f19603f3d011682016040523d82523d6000602084013e611cc2565b606091505b50600081511415611d08576040517f08c379a0000000000000000000000000000000000000000000000000000000008152600401611cff9061284b565b60405180910390fd5b805181602001fd5b63150b7a0260e01b7bffffffffffffffffffffffffffffffffffffffffffffffffffffffff1916817bffffffffffffffffffffffffffffffffffffffffffffffffffffffff191614915050611d65565b600190505b949350505050565b6000808273ffffffffffffffffffffffffffffffffffffffff163b119050919050565b828054611d9c90612d4c565b90600052602060002090601f016020900481019282611dbe5760008555611e05565b82601f10611dd757805160ff1916838001178555611e05565b82800160010185558215611e05579182015b82811115611e04578251825591602001919060010190611de9565b5b509050611e129190611e16565b5090565b5b80821115611e2f576000816000905550600101611e17565b5090565b6000611e46611e4184612ab4565b612a8f565b90508083825260208201905082856020860282011115611e6957611e68612f19565b5b60005b85811015611e995781611e7f888261201a565b845260208401935060208301925050600181019050611e6c565b5050509392505050565b6000611eb6611eb184612ae0565b612a8f565b905082815260208101848484011115611ed257611ed1612f1e565b5b611edd848285612d0a565b509392505050565b6000611ef8611ef384612b11565b612a8f565b905082815260208101848484011115611f1457611f13612f1e565b5b611f1f848285612d0a565b509392505050565b600081359050611f3681613399565b92915050565b600082601f830112611f5157611f50612f14565b5b8151611f61848260208601611e33565b91505092915050565b600081359050611f79816133b0565b92915050565b600081359050611f8e816133c7565b92915050565b600081519050611fa3816133c7565b92915050565b600082601f830112611fbe57611fbd612f14565b5b8135611fce848260208601611ea3565b91505092915050565b600082601f830112611fec57611feb612f14565b5b8135611ffc848260208601611ee5565b91505092915050565b600081359050612014816133de565b92915050565b600081519050612029816133de565b92915050565b60006020828403121561204557612044612f28565b5b600061205384828501611f27565b91505092915050565b6000806040838503121561207357612072612f28565b5b600061208185828601611f27565b925050602061209285828601611f27565b9150509250929050565b6000806000606084860312156120b5576120b4612f28565b5b60006120c386828701611f27565b93505060206120d486828701611f27565b92505060406120e586828701612005565b9150509250925092565b6000806000806080858703121561210957612108612f28565b5b600061211787828801611f27565b945050602061212887828801611f27565b935050604061213987828801612005565b925050606085013567ffffffffffffffff81111561215a57612159612f23565b5b61216687828801611fa9565b91505092959194509250565b6000806040838503121561218957612188612f28565b5b600061219785828601611f27565b92505060206121a885828601611f6a565b9150509250929050565b600080604083850312156121c9576121c8612f28565b5b60006121d785828601611f27565b92505060206121e885828601612005565b9150509250929050565b60008060006060848603121561220b5761220a612f28565b5b600061221986828701611f27565b935050602061222a86828701612005565b925050604061223b86828701612005565b9150509250925092565b60006020828403121561225b5761225a612f28565b5b600082015167ffffffffffffffff81111561227957612278612f23565b5b61228584828501611f3c565b91505092915050565b6000602082840312156122a4576122a3612f28565b5b60006122b284828501611f7f565b91505092915050565b6000602082840312156122d1576122d0612f28565b5b60006122df84828501611f94565b91505092915050565b6000602082840312156122fe576122fd612f28565b5b600082013567ffffffffffffffff81111561231c5761231b612f23565b5b61232884828501611fd7565b91505092915050565b60006020828403121561234757612346612f28565b5b600061235584828501612005565b91505092915050565b600061236a83836126f7565b60208301905092915050565b61237f81612c84565b82525050565b600061239082612b52565b61239a8185612b80565b93506123a583612b42565b8060005b838110156123d65781516123bd888261235e565b97506123c883612b73565b9250506001810190506123a9565b5085935050505092915050565b6123ec81612c96565b82525050565b60006123fd82612b5d565b6124078185612b91565b9350612417818560208601612d19565b61242081612f2d565b840191505092915050565b61243481612cf8565b82525050565b600061244582612b68565b61244f8185612bad565b935061245f818560208601612d19565b61246881612f2d565b840191505092915050565b600061247e82612b68565b6124888185612bbe565b9350612498818560208601612d19565b80840191505092915050565b60006124b1603283612bad565b91506124bc82612f3e565b604082019050919050565b60006124d4602683612bad565b91506124df82612f8d565b604082019050919050565b60006124f7602583612bad565b915061250282612fdc565b604082019050919050565b600061251a601c83612bad565b91506125258261302b565b602082019050919050565b600061253d602483612bad565b915061254882613054565b604082019050919050565b6000612560601983612bad565b915061256b826130a3565b602082019050919050565b6000612583602c83612bad565b915061258e826130cc565b604082019050919050565b60006125a6603883612bad565b91506125b18261311b565b604082019050919050565b60006125c9602a83612bad565b91506125d48261316a565b604082019050919050565b60006125ec602983612bad565b91506125f7826131b9565b604082019050919050565b600061260f602083612bad565b915061261a82613208565b602082019050919050565b6000612632602c83612bad565b915061263d82613231565b604082019050919050565b6000612655602083612bad565b915061266082613280565b602082019050919050565b6000612678602f83612bad565b9150612683826132a9565b604082019050919050565b600061269b602183612bad565b91506126a6826132f8565b604082019050919050565b60006126be600083612ba2565b91506126c982613347565b600082019050919050565b60006126e1603183612bad565b91506126ec8261334a565b604082019050919050565b61270081612cee565b82525050565b61270f81612cee565b82525050565b60006127218285612473565b915061272d8284612473565b91508190509392505050565b6000612744826126b1565b9150819050919050565b60006020820190506127636000830184612376565b92915050565b600060808201905061277e6000830187612376565b61278b6020830186612376565b6127986040830185612706565b81810360608301526127aa81846123f2565b905095945050505050565b60006060820190506127ca6000830186612376565b6127d7602083018561242b565b6127e46040830184612706565b949350505050565b600060208201905081810360008301526128068184612385565b905092915050565b600060208201905061282360008301846123e3565b92915050565b60006020820190508181036000830152612843818461243a565b905092915050565b60006020820190508181036000830152612864816124a4565b9050919050565b60006020820190508181036000830152612884816124c7565b9050919050565b600060208201905081810360008301526128a4816124ea565b9050919050565b600060208201905081810360008301526128c48161250d565b9050919050565b600060208201905081810360008301526128e481612530565b9050919050565b6000602082019050818103600083015261290481612553565b9050919050565b6000602082019050818103600083015261292481612576565b9050919050565b6000602082019050818103600083015261294481612599565b9050919050565b60006020820190508181036000830152612964816125bc565b9050919050565b60006020820190508181036000830152612984816125df565b9050919050565b600060208201905081810360008301526129a481612602565b9050919050565b600060208201905081810360008301526129c481612625565b9050919050565b600060208201905081810360008301526129e481612648565b9050919050565b60006020820190508181036000830152612a048161266b565b9050919050565b60006020820190508181036000830152612a248161268e565b9050919050565b60006020820190508181036000830152612a44816126d4565b9050919050565b6000602082019050612a606000830184612706565b92915050565b6000604082019050612a7b6000830185612706565b612a886020830184612376565b9392505050565b6000612a99612aaa565b9050612aa58282612d7e565b919050565b6000604051905090565b600067ffffffffffffffff821115612acf57612ace612ee5565b5b602082029050602081019050919050565b600067ffffffffffffffff821115612afb57612afa612ee5565b5b612b0482612f2d565b9050602081019050919050565b600067ffffffffffffffff821115612b2c57612b2b612ee5565b5b612b3582612f2d565b9050602081019050919050565b6000819050602082019050919050565b600081519050919050565b600081519050919050565b600081519050919050565b6000602082019050919050565b600082825260208201905092915050565b600082825260208201905092915050565b600081905092915050565b600082825260208201905092915050565b600081905092915050565b6000612bd482612cee565b9150612bdf83612cee565b9250827fffffffffffffffffffffffffffffffffffffffffffffffffffffffffffffffff03821115612c1457612c13612e29565b5b828201905092915050565b6000612c2a82612cee565b9150612c3583612cee565b925082612c4557612c44612e58565b5b828204905092915050565b6000612c5b82612cee565b9150612c6683612cee565b925082821015612c7957612c78612e29565b5b828203905092915050565b6000612c8f82612cce565b9050919050565b60008115159050919050565b60007fffffffff0000000000000000000000000000000000000000000000000000000082169050919050565b600073ffffffffffffffffffffffffffffffffffffffff82169050919050565b6000819050919050565b6000612d0382612cee565b9050919050565b82818337600083830152505050565b60005b83811015612d37578082015181840152602081019050612d1c565b83811115612d46576000848401525b50505050565b60006002820490506001821680612d6457607f821691505b60208210811415612d7857612d77612e87565b5b50919050565b612d8782612f2d565b810181811067ffffffffffffffff82111715612da657612da5612ee5565b5b80604052505050565b6000612dba82612cee565b91507fffffffffffffffffffffffffffffffffffffffffffffffffffffffffffffffff821415612ded57612dec612e29565b5b600182019050919050565b6000612e0382612cee565b9150612e0e83612cee565b925082612e1e57612e1d612e58565b5b828206905092915050565b7f4e487b7100000000000000000000000000000000000000000000000000000000600052601160045260246000fd5b7f4e487b7100000000000000000000000000000000000000000000000000000000600052601260045260246000fd5b7f4e487b7100000000000000000000000000000000000000000000000000000000600052602260045260246000fd5b7f4e487b7100000000000000000000000000000000000000000000000000000000600052603260045260246000fd5b7f4e487b7100000000000000000000000000000000000000000000000000000000600052604160045260246000fd5b600080fd5b600080fd5b600080fd5b600080fd5b600080fd5b6000601f19601f8301169050919050565b7f4552433732313a207472616e7366657220746f206e6f6e20455243373231526560008201527f63656976657220696d706c656d656e7465720000000000000000000000000000602082015250565b7f4f776e61626c653a206e6577206f776e657220697320746865207a65726f206160008201527f6464726573730000000000000000000000000000000000000000000000000000602082015250565b7f4552433732313a207472616e736665722066726f6d20696e636f72726563742060008201527f6f776e6572000000000000000000000000000000000000000000000000000000602082015250565b7f4552433732313a20746f6b656e20616c7265616479206d696e74656400000000600082015250565b7f4552433732313a207472616e7366657220746f20746865207a65726f2061646460008201527f7265737300000000000000000000000000000000000000000000000000000000602082015250565b7f4552433732313a20617070726f766520746f2063616c6c657200000000000000600082015250565b7f4552433732313a206f70657261746f7220717565727920666f72206e6f6e657860008201527f697374656e7420746f6b656e0000000000000000000000000000000000000000602082015250565b7f4552433732313a20617070726f76652063616c6c6572206973206e6f74206f7760008201527f6e6572206e6f7220617070726f76656420666f7220616c6c0000000000000000602082015250565b7f4552433732313a2062616c616e636520717565727920666f7220746865207a6560008201527f726f206164647265737300000000000000000000000000000000000000000000602082015250565b7f4552433732313a206f776e657220717565727920666f72206e6f6e657869737460008201527f656e7420746f6b656e0000000000000000000000000000000000000000000000602082015250565b7f4552433732313a206d696e7420746f20746865207a65726f2061646472657373600082015250565b7f4552433732313a20617070726f76656420717565727920666f72206e6f6e657860008201527f697374656e7420746f6b656e0000000000000000000000000000000000000000602082015250565b7f4f776e61626c653a2063616c6c6572206973206e6f7420746865206f776e6572600082015250565b7f4552433732314d657461646174613a2055524920717565727920666f72206e6f60008201527f6e6578697374656e7420746f6b656e0000000000000000000000000000000000602082015250565b7f4552433732313a20617070726f76616c20746f2063757272656e74206f776e6560008201527f7200000000000000000000000000000000000000000000000000000000000000602082015250565b50565b7f4552433732313a207472616e736665722063616c6c6572206973206e6f74206f60008201527f776e6572206e6f7220617070726f766564000000000000000000000000000000602082015250565b6133a281612c84565b81146133ad57600080fd5b50565b6133b981612c96565b81146133c457600080fd5b50565b6133d081612ca2565b81146133db57600080fd5b50565b6133e781612cee565b81146133f257600080fd5b5056fea26469706673582212205319d3ef1421a05810ae8d76769fbfc899e0817dd52a3a1ccbced9ddd33a910d64736f6c63430008070033",
  "immutableReferences": {},
  "source": "// SPDX-License-Identifier: MIT\npragma solidity ^0.8.2;\n\nimport \"@openzeppelin/contracts/token/ERC721/ERC721.sol\";\nimport \"@openzeppelin/contracts/utils/Strings.sol\";\nimport \"@openzeppelin/contracts/access/Ownable.sol\";\n\ncontract MetaTrainer is ERC721, Ownable {\n    \n    //Pre-reveal IPFS link\n    string private baseURI = \"\";\n\n    constructor() ERC721(\"MiniMetamon Trainer\", \"MiniMetamon-TR\") {}\n\n    uint256 public currentSupply;\n\n    event TrainerMint(uint256 _tokenId, address _reciever);\n\n    function mintTrainer() public {\n        uint256 supply = currentSupply;\n\n        _mint(msg.sender, (supply + 1));\n\n        currentSupply += 1;\n\n        emit TrainerMint(currentSupply, msg.sender);\n    }\n\n    function tokensOfOwner(\n        address _owner,\n        uint256 startId,\n        uint256 endId\n    ) external view returns (uint256[] memory) {\n        uint256 tokenCount = balanceOf(_owner);\n        if (tokenCount == 0) {\n            return new uint256[](0);\n        } else {\n            uint256[] memory result = new uint256[](tokenCount);\n            uint256 index = 0;\n            for (uint256 tokenId = startId; tokenId < endId; tokenId++) {\n                if (index == tokenCount) break;\n\n                if (ownerOf(tokenId) == _owner) {\n                    result[index] = tokenId;\n                    index++;\n                }\n            }\n\n            return result;\n        }\n    }\n\n    function walletOfOwner(address _owner) external view returns (uint256[] memory)\n    {\n        return this.tokensOfOwner(_owner, 0, currentSupply);\n    }\n\n    //TODO: Need to discuss this with Nick\n    function withdraw() external onlyOwner {\n        (bool owner, ) = address(this).call{value: address(this).balance}(\"\");\n        require(owner);\n    }\n\n    function setBaseURI(string memory _uri) external onlyOwner {\n        baseURI = _uri;\n    }\n}\n",
  "sourcePath": "/Users/aipek/Documents/metamon_contracts/contracts/MetaTrainer.sol",
  "compiler": {
    "name": "solc",
    "version": "0.8.7+commit.e28d00a7.Emscripten.clang"
  },
  "schemaVersion": "3.4.4",
  "updatedAt": "2022-03-30T21:05:15.692Z",
  "devdoc": {
    "kind": "dev",
    "methods": {
      "approve(address,uint256)": {
        "details": "See {IERC721-approve}."
      },
      "balanceOf(address)": {
        "details": "See {IERC721-balanceOf}."
      },
      "getApproved(uint256)": {
        "details": "See {IERC721-getApproved}."
      },
      "isApprovedForAll(address,address)": {
        "details": "See {IERC721-isApprovedForAll}."
      },
      "name()": {
        "details": "See {IERC721Metadata-name}."
      },
      "owner()": {
        "details": "Returns the address of the current owner."
      },
      "ownerOf(uint256)": {
        "details": "See {IERC721-ownerOf}."
      },
      "renounceOwnership()": {
        "details": "Leaves the contract without owner. It will not be possible to call `onlyOwner` functions anymore. Can only be called by the current owner. NOTE: Renouncing ownership will leave the contract without an owner, thereby removing any functionality that is only available to the owner."
      },
      "safeTransferFrom(address,address,uint256)": {
        "details": "See {IERC721-safeTransferFrom}."
      },
      "safeTransferFrom(address,address,uint256,bytes)": {
        "details": "See {IERC721-safeTransferFrom}."
      },
      "setApprovalForAll(address,bool)": {
        "details": "See {IERC721-setApprovalForAll}."
      },
      "supportsInterface(bytes4)": {
        "details": "See {IERC165-supportsInterface}."
      },
      "symbol()": {
        "details": "See {IERC721Metadata-symbol}."
      },
      "tokenURI(uint256)": {
        "details": "See {IERC721Metadata-tokenURI}."
      },
      "transferFrom(address,address,uint256)": {
        "details": "See {IERC721-transferFrom}."
      },
      "transferOwnership(address)": {
        "details": "Transfers ownership of the contract to a new account (`newOwner`). Can only be called by the current owner."
      }
    },
    "version": 1
  },
  "userdoc": {
    "kind": "user",
    "methods": {},
    "version": 1
  }
}