{
  "contractName": "Metamon",
  "abi": [
    {
      "inputs": [],
      "stateMutability": "payable",
      "type": "constructor",
      "payable": true
    },
    {
      "anonymous": false,
      "inputs": [
        {
          "indexed": true,
          "internalType": "address",
          "name": "owner",
          "type": "address"
        },
        {
          "indexed": true,
          "internalType": "address",
          "name": "approved",
          "type": "address"
        },
        {
          "indexed": true,
          "internalType": "uint256",
          "name": "tokenId",
          "type": "uint256"
        }
      ],
      "name": "Approval",
      "type": "event"
    },
    {
      "anonymous": false,
      "inputs": [
        {
          "indexed": true,
          "internalType": "address",
          "name": "owner",
          "type": "address"
        },
        {
          "indexed": true,
          "internalType": "address",
          "name": "operator",
          "type": "address"
        },
        {
          "indexed": false,
          "internalType": "bool",
          "name": "approved",
          "type": "bool"
        }
      ],
      "name": "ApprovalForAll",
      "type": "event"
    },
    {
      "anonymous": false,
      "inputs": [
        {
          "indexed": false,
          "internalType": "uint256",
          "name": "_tokenId",
          "type": "uint256"
        },
        {
          "indexed": false,
          "internalType": "uint8",
          "name": "_dexId",
          "type": "uint8"
        },
        {
          "indexed": false,
          "internalType": "address",
          "name": "_burner",
          "type": "address"
        }
      ],
      "name": "MetamonBurn",
      "type": "event"
    },
    {
      "anonymous": false,
      "inputs": [
        {
          "indexed": false,
          "internalType": "uint256",
          "name": "_tokenId",
          "type": "uint256"
        },
        {
          "indexed": false,
          "internalType": "address",
          "name": "_reciever",
          "type": "address"
        }
      ],
      "name": "MetamonMint",
      "type": "event"
    },
    {
      "anonymous": false,
      "inputs": [
        {
          "indexed": false,
          "internalType": "address",
          "name": "_reciever",
          "type": "address"
        },
        {
          "indexed": false,
          "internalType": "uint256",
          "name": "_value",
          "type": "uint256"
        }
      ],
      "name": "ReceivedEth",
      "type": "event"
    },
    {
      "anonymous": false,
      "inputs": [
        {
          "indexed": true,
          "internalType": "address",
          "name": "from",
          "type": "address"
        },
        {
          "indexed": true,
          "internalType": "address",
          "name": "to",
          "type": "address"
        },
        {
          "indexed": true,
          "internalType": "uint256",
          "name": "tokenId",
          "type": "uint256"
        }
      ],
      "name": "Transfer",
      "type": "event"
    },
    {
      "stateMutability": "payable",
      "type": "fallback",
      "payable": true
    },
    {
      "inputs": [
        {
          "internalType": "address",
          "name": "to",
          "type": "address"
        },
        {
          "internalType": "uint256",
          "name": "tokenId",
          "type": "uint256"
        }
      ],
      "name": "approve",
      "outputs": [],
      "stateMutability": "nonpayable",
      "type": "function"
    },
    {
      "inputs": [
        {
          "internalType": "address",
          "name": "owner",
          "type": "address"
        }
      ],
      "name": "balanceOf",
      "outputs": [
        {
          "internalType": "uint256",
          "name": "",
          "type": "uint256"
        }
      ],
      "stateMutability": "view",
      "type": "function",
      "constant": true
    },
    {
      "inputs": [],
      "name": "currentMintPhase",
      "outputs": [
        {
          "internalType": "uint8",
          "name": "",
          "type": "uint8"
        }
      ],
      "stateMutability": "view",
      "type": "function",
      "constant": true
    },
    {
      "inputs": [
        {
          "internalType": "uint256",
          "name": "tokenId",
          "type": "uint256"
        }
      ],
      "name": "getApproved",
      "outputs": [
        {
          "internalType": "address",
          "name": "",
          "type": "address"
        }
      ],
      "stateMutability": "view",
      "type": "function",
      "constant": true
    },
    {
      "inputs": [
        {
          "internalType": "address",
          "name": "owner",
          "type": "address"
        },
        {
          "internalType": "address",
          "name": "operator",
          "type": "address"
        }
      ],
      "name": "isApprovedForAll",
      "outputs": [
        {
          "internalType": "bool",
          "name": "",
          "type": "bool"
        }
      ],
      "stateMutability": "view",
      "type": "function",
      "constant": true
    },
    {
      "inputs": [
        {
          "internalType": "uint256",
          "name": "",
          "type": "uint256"
        }
      ],
      "name": "metamonInfoPersonality",
      "outputs": [
        {
          "internalType": "uint8",
          "name": "",
          "type": "uint8"
        }
      ],
      "stateMutability": "view",
      "type": "function",
      "constant": true
    },
    {
      "inputs": [
        {
          "internalType": "uint256",
          "name": "",
          "type": "uint256"
        }
      ],
      "name": "metamonInfoShiny",
      "outputs": [
        {
          "internalType": "bool",
          "name": "",
          "type": "bool"
        }
      ],
      "stateMutability": "view",
      "type": "function",
      "constant": true
    },
    {
      "inputs": [],
      "name": "name",
      "outputs": [
        {
          "internalType": "string",
          "name": "",
          "type": "string"
        }
      ],
      "stateMutability": "view",
      "type": "function",
      "constant": true
    },
    {
      "inputs": [],
      "name": "owner",
      "outputs": [
        {
          "internalType": "address payable",
          "name": "",
          "type": "address"
        }
      ],
      "stateMutability": "view",
      "type": "function",
      "constant": true
    },
    {
      "inputs": [
        {
          "internalType": "uint256",
          "name": "tokenId",
          "type": "uint256"
        }
      ],
      "name": "ownerOf",
      "outputs": [
        {
          "internalType": "address",
          "name": "",
          "type": "address"
        }
      ],
      "stateMutability": "view",
      "type": "function",
      "constant": true
    },
    {
      "inputs": [
        {
          "internalType": "address",
          "name": "from",
          "type": "address"
        },
        {
          "internalType": "address",
          "name": "to",
          "type": "address"
        },
        {
          "internalType": "uint256",
          "name": "tokenId",
          "type": "uint256"
        }
      ],
      "name": "safeTransferFrom",
      "outputs": [],
      "stateMutability": "nonpayable",
      "type": "function"
    },
    {
      "inputs": [
        {
          "internalType": "address",
          "name": "from",
          "type": "address"
        },
        {
          "internalType": "address",
          "name": "to",
          "type": "address"
        },
        {
          "internalType": "uint256",
          "name": "tokenId",
          "type": "uint256"
        },
        {
          "internalType": "bytes",
          "name": "_data",
          "type": "bytes"
        }
      ],
      "name": "safeTransferFrom",
      "outputs": [],
      "stateMutability": "nonpayable",
      "type": "function"
    },
    {
      "inputs": [
        {
          "internalType": "address",
          "name": "operator",
          "type": "address"
        },
        {
          "internalType": "bool",
          "name": "approved",
          "type": "bool"
        }
      ],
      "name": "setApprovalForAll",
      "outputs": [],
      "stateMutability": "nonpayable",
      "type": "function"
    },
    {
      "inputs": [
        {
          "internalType": "bytes4",
          "name": "interfaceId",
          "type": "bytes4"
        }
      ],
      "name": "supportsInterface",
      "outputs": [
        {
          "internalType": "bool",
          "name": "",
          "type": "bool"
        }
      ],
      "stateMutability": "view",
      "type": "function",
      "constant": true
    },
    {
      "inputs": [],
      "name": "symbol",
      "outputs": [
        {
          "internalType": "string",
          "name": "",
          "type": "string"
        }
      ],
      "stateMutability": "view",
      "type": "function",
      "constant": true
    },
    {
      "inputs": [
        {
          "internalType": "address",
          "name": "from",
          "type": "address"
        },
        {
          "internalType": "address",
          "name": "to",
          "type": "address"
        },
        {
          "internalType": "uint256",
          "name": "tokenId",
          "type": "uint256"
        }
      ],
      "name": "transferFrom",
      "outputs": [],
      "stateMutability": "nonpayable",
      "type": "function"
    },
    {
      "stateMutability": "payable",
      "type": "receive",
      "payable": true
    },
    {
      "inputs": [
        {
          "internalType": "uint256",
          "name": "_new_price",
          "type": "uint256"
        },
        {
          "internalType": "uint8",
          "name": "_dexId",
          "type": "uint8"
        }
      ],
      "name": "changeFloorPrice",
      "outputs": [],
      "stateMutability": "nonpayable",
      "type": "function"
    },
    {
      "inputs": [
        {
          "internalType": "uint256",
          "name": "_new_supply",
          "type": "uint256"
        },
        {
          "internalType": "uint8",
          "name": "_dexId",
          "type": "uint8"
        }
      ],
      "name": "changeSupplyDexId",
      "outputs": [],
      "stateMutability": "nonpayable",
      "type": "function"
    },
    {
      "inputs": [
        {
          "internalType": "uint8",
          "name": "_dexId",
          "type": "uint8"
        }
      ],
      "name": "getFloorPrice",
      "outputs": [
        {
          "internalType": "uint256",
          "name": "",
          "type": "uint256"
        }
      ],
      "stateMutability": "view",
      "type": "function",
      "constant": true
    },
    {
      "inputs": [],
      "name": "getWalletBalance",
      "outputs": [
        {
          "internalType": "uint256",
          "name": "",
          "type": "uint256"
        }
      ],
      "stateMutability": "view",
      "type": "function",
      "constant": true
    },
    {
      "inputs": [
        {
          "internalType": "uint8",
          "name": "_dexId",
          "type": "uint8"
        }
      ],
      "name": "getSupplyDex",
      "outputs": [
        {
          "internalType": "uint256",
          "name": "",
          "type": "uint256"
        }
      ],
      "stateMutability": "view",
      "type": "function",
      "constant": true
    },
    {
      "inputs": [
        {
          "internalType": "address payable",
          "name": "_recipient",
          "type": "address"
        },
        {
          "internalType": "uint256",
          "name": "_amount",
          "type": "uint256"
        }
      ],
      "name": "transferContractBalance",
      "outputs": [
        {
          "internalType": "bool",
          "name": "",
          "type": "bool"
        }
      ],
      "stateMutability": "nonpayable",
      "type": "function"
    },
    {
      "inputs": [
        {
          "internalType": "string",
          "name": "_baseURILink",
          "type": "string"
        }
      ],
      "name": "setBaseURI",
      "outputs": [],
      "stateMutability": "nonpayable",
      "type": "function"
    },
    {
      "inputs": [],
      "name": "getBaseURI",
      "outputs": [
        {
          "internalType": "string",
          "name": "",
          "type": "string"
        }
      ],
      "stateMutability": "view",
      "type": "function",
      "constant": true
    },
    {
      "inputs": [
        {
          "internalType": "uint256",
          "name": "tokenId",
          "type": "uint256"
        }
      ],
      "name": "tokenURI",
      "outputs": [
        {
          "internalType": "string",
          "name": "",
          "type": "string"
        }
      ],
      "stateMutability": "view",
      "type": "function",
      "constant": true
    },
    {
      "inputs": [
        {
          "internalType": "uint256",
          "name": "_value",
          "type": "uint256"
        }
      ],
      "name": "burn",
      "outputs": [],
      "stateMutability": "nonpayable",
      "type": "function"
    },
    {
      "inputs": [
        {
          "internalType": "uint8",
          "name": "_dexId",
          "type": "uint8"
        }
      ],
      "name": "mintableDex",
      "outputs": [
        {
          "internalType": "bool",
          "name": "",
          "type": "bool"
        }
      ],
      "stateMutability": "view",
      "type": "function",
      "constant": true
    },
    {
      "inputs": [
        {
          "internalType": "string",
          "name": "_passCode",
          "type": "string"
        },
        {
          "internalType": "address",
          "name": "_recipient",
          "type": "address"
        },
        {
          "internalType": "uint256",
          "name": "_quantity",
          "type": "uint256"
        },
        {
          "internalType": "uint8",
          "name": "_dexId",
          "type": "uint8"
        }
      ],
      "name": "mintSale",
      "outputs": [],
      "stateMutability": "payable",
      "type": "function",
      "payable": true
    },
    {
      "inputs": [
        {
          "internalType": "address",
          "name": "_recipient",
          "type": "address"
        },
        {
          "internalType": "uint256",
          "name": "_sendTokenId",
          "type": "uint256"
        },
        {
          "internalType": "uint256",
          "name": "_sendDaxId",
          "type": "uint256"
        }
      ],
      "name": "evalutionItemBurn",
      "outputs": [],
      "stateMutability": "nonpayable",
      "type": "function"
    },
    {
      "inputs": [
        {
          "internalType": "address",
          "name": "_recipient",
          "type": "address"
        },
        {
          "internalType": "uint256",
          "name": "_sendTokenId",
          "type": "uint256"
        },
        {
          "internalType": "uint256",
          "name": "_sendDaxId",
          "type": "uint256"
        },
        {
          "internalType": "uint256",
          "name": "_quantitySend",
          "type": "uint256"
        },
        {
          "internalType": "uint256",
          "name": "_targetDax",
          "type": "uint256"
        },
        {
          "internalType": "uint256",
          "name": "_itemTokenId",
          "type": "uint256"
        }
      ],
      "name": "evalutionMetaBurn",
      "outputs": [],
      "stateMutability": "nonpayable",
      "type": "function"
    }
  ],
  "bytecode": "0x6080604052731e6059ec57ae39d2c73e5c3821a26faffd68e016600760006101000a81548173ffffffffffffffffffffffffffffffffffffffff021916908373ffffffffffffffffffffffffffffffffffffffff160217905550600760009054906101000a900473ffffffffffffffffffffffffffffffffffffffff16600860006101000a81548173ffffffffffffffffffffffffffffffffffffffff021916908373ffffffffffffffffffffffffffffffffffffffff1602179055506001600c60006101000a81548160ff021916908360ff1602179055506040518060a00160405280606360ff168152602001606260ff168152602001606160ff168152602001606060ff168152602001605f60ff16815250600d906005620001259291906200063f565b506040518060a0016040528061012861ffff16815260200161012461ffff16815260200161012061ffff16815260200161011c61ffff16815260200161011861ffff16815250600e9060056200017d929190620006e0565b50604051806101000160405280600160ff168152602001600260ff168152602001600360ff168152602001600460ff168152602001600760ff168152602001600a60ff168152602001600b60ff168152602001600d60ff16815250600f906008620001ea92919062000788565b506040518061010001604052806103e861ffff168152602001600061ffff168152602001600061ffff1681526020016107d061ffff1681526020016103e861ffff168152602001610bb861ffff168152602001610fa061ffff1681526020016103e861ffff16815250601790600862000265929190620007d2565b50604051806101000160405280600060ff168152602001600060ff168152602001600060ff168152602001600060ff168152602001600060ff168152602001600060ff168152602001600060ff168152602001600060ff16815250601f906008620002d292919062000788565b50604051806101000160405280600160ff168152602001600060ff168152602001600060ff168152602001600160ff168152602001600060ff168152602001600060ff168152602001600060ff168152602001600160ff1681525060279060086200033f92919062000788565b5060405180610100016040528066b1a2bc2ec5000066ffffffffffffff168152602001600066ffffffffffffff168152602001600066ffffffffffffff1681526020016658d15e1762800066ffffffffffffff168152602001667c58508723800066ffffffffffffff168152602001669fdf42f6e4800066ffffffffffffff16815260200166c3663566a5800066ffffffffffffff16815260200166e6ed27d666800066ffffffffffffff16815250602f906008620004009291906200081d565b506040518060400160405280600b81526020017f4d6574616d6f6e204e46540000000000000000000000000000000000000000008152506040518060400160405280600381526020017f4e465400000000000000000000000000000000000000000000000000000000008152508160009080519060200190620004859291906200086d565b5080600190805190602001906200049e9291906200086d565b50505033600660006101000a81548173ffffffffffffffffffffffffffffffffffffffff021916908373ffffffffffffffffffffffffffffffffffffffff1602179055506002603b600060018152602001908152602001600020819055506003603b60006002815260200190815260200160002081905550600260396000600181526020019081526020016000208190555060036039600060028152602001908152602001600020819055506002603b600060048152602001908152602001600020819055506003603b60006005815260200190815260200160002081905550600560396000600481526020019081526020016000208190555060066039600060058152602001908152602001600020819055506040518060c00160405280600160ff168152602001600460ff168152602001600760ff168152602001601460ff168152602001605660ff168152602001608560ff1681525060386000600160ff1681526020019081526020016000209060066200061e929190620008fe565b506005603b60006081815260200190815260200160002081905550620009d9565b826005601f01602090048101928215620006cd5791602002820160005b838211156200069c57835183826101000a81548160ff021916908360ff16021790555092602001926001016020816000010492830192600103026200065c565b8015620006cb5782816101000a81549060ff02191690556001016020816000010492830192600103026200069c565b505b509050620006dc919062000955565b5090565b826005600701600890048101928215620007755791602002820160005b838211156200074157835183826101000a81548163ffffffff021916908361ffff1602179055509260200192600401602081600301049283019260010302620006fd565b8015620007735782816101000a81549063ffffffff021916905560040160208160030104928301926001030262000741565b505b50905062000784919062000955565b5090565b8260088101928215620007bf579160200282015b82811115620007be578251829060ff169055916020019190600101906200079c565b5b509050620007ce919062000955565b5090565b82600881019282156200080a579160200282015b8281111562000809578251829061ffff16905591602001919060010190620007e6565b5b50905062000819919062000955565b5090565b82600881019282156200085a579160200282015b8281111562000859578251829066ffffffffffffff1690559160200191906001019062000831565b5b50905062000869919062000955565b5090565b8280546200087b9062000974565b90600052602060002090601f0160209004810192826200089f5760008555620008eb565b82601f10620008ba57805160ff1916838001178555620008eb565b82800160010185558215620008eb579182015b82811115620008ea578251825591602001919060010190620008cd565b5b509050620008fa919062000955565b5090565b82805482825590600052602060002090810192821562000942579160200282015b8281111562000941578251829060ff169055916020019190600101906200091f565b5b50905062000951919062000955565b5090565b5b808211156200097057600081600090555060010162000956565b5090565b600060028204905060018216806200098d57607f821691505b60208210811415620009a457620009a3620009aa565b5b50919050565b7f4e487b7100000000000000000000000000000000000000000000000000000000600052602260045260246000fd5b613f2f80620009e96000396000f3fe6080604052600436106101d15760003560e01c80636352211e116100f757806395d89b4111610095578063c87b56dd11610064578063c87b56dd14610704578063c9432c0514610741578063e985e9c51461076a578063feadbaea146107a757610211565b806395d89b411461065e578063a22cb46514610689578063b88d4fde146106b2578063c6ff1912146106db57610211565b806376be98d9116100d157806376be98d91461059d57806389b8f7d1146105da5780638da5cb5b1461061757806393bd11f21461064257610211565b80636352211e146104f857806370a0823114610535578063714c53981461057257610211565b80631f2b28291161016f57806342842e0e1161013e57806342842e0e1461044057806342966c6814610469578063486fc6d31461049257806355f804b3146104cf57610211565b80631f2b28291461038657806323b872dd146103c3578063329a27e7146103ec5780633c19a5b61461041757610211565b8063081812fc116101ab578063081812fc146102b8578063095ea7b3146102f55780630dd250e11461031e57806310a5a3d91461034957610211565b8063014de7381461021357806301ffc9a71461025057806306fdde031461028d57610211565b36610211577f52a6cdf67c40ce333b3d846e4e143db87f71dd7935612a4cafcf6ba76047ca1f3334604051610207929190613273565b60405180910390a1005b005b34801561021f57600080fd5b5061023a60048036038101906102359190612d7e565b6107d0565b60405161024791906134f9565b60405180910390f35b34801561025c57600080fd5b5061027760048036038101906102729190612be2565b610879565b604051610284919061329c565b60405180910390f35b34801561029957600080fd5b506102a261095b565b6040516102af91906132b7565b60405180910390f35b3480156102c457600080fd5b506102df60048036038101906102da9190612cf0565b6109ed565b6040516102ec91906131c8565b60405180910390f35b34801561030157600080fd5b5061031c60048036038101906103179190612ace565b610a72565b005b34801561032a57600080fd5b50610333610b8a565b604051610340919061353d565b60405180910390f35b34801561035557600080fd5b50610370600480360381019061036b9190612950565b610b9d565b60405161037d919061329c565b60405180910390f35b34801561039257600080fd5b506103ad60048036038101906103a89190612d7e565b610ccc565b6040516103ba919061329c565b60405180910390f35b3480156103cf57600080fd5b506103ea60048036038101906103e591906129c8565b610da4565b005b3480156103f857600080fd5b50610401610e04565b60405161040e91906134f9565b60405180910390f35b34801561042357600080fd5b5061043e60048036038101906104399190612b59565b610e9e565b005b34801561044c57600080fd5b50610467600480360381019061046291906129c8565b610ea6565b005b34801561047557600080fd5b50610490600480360381019061048b9190612cf0565b610ec6565b005b34801561049e57600080fd5b506104b960048036038101906104b49190612d7e565b610ed2565b6040516104c691906134f9565b60405180910390f35b3480156104db57600080fd5b506104f660048036038101906104f19190612c34565b610f26565b005b34801561050457600080fd5b5061051f600480360381019061051a9190612cf0565b610fd2565b60405161052c91906131c8565b60405180910390f35b34801561054157600080fd5b5061055c60048036038101906105579190612927565b611084565b60405161056991906134f9565b60405180910390f35b34801561057e57600080fd5b5061058761113c565b60405161059491906132b7565b60405180910390f35b3480156105a957600080fd5b506105c460048036038101906105bf9190612cf0565b611260565b6040516105d1919061353d565b60405180910390f35b3480156105e657600080fd5b5061060160048036038101906105fc9190612cf0565b611280565b60405161060e919061329c565b60405180910390f35b34801561062357600080fd5b5061062c6112a0565b60405161063991906131e3565b60405180910390f35b61065c60048036038101906106579190612c75565b6112c6565b005b34801561066a57600080fd5b50610673611519565b60405161068091906132b7565b60405180910390f35b34801561069557600080fd5b506106b060048036038101906106ab9190612a92565b6115ab565b005b3480156106be57600080fd5b506106d960048036038101906106d49190612a17565b6115c1565b005b3480156106e757600080fd5b5061070260048036038101906106fd9190612d42565b611623565b005b34801561071057600080fd5b5061072b60048036038101906107269190612cf0565b611708565b60405161073891906132b7565b60405180910390f35b34801561074d57600080fd5b5061076860048036038101906107639190612d42565b6117b0565b005b34801561077657600080fd5b50610791600480360381019061078c919061298c565b611895565b60405161079e919061329c565b60405180910390f35b3480156107b357600080fd5b506107ce60048036038101906107c99190612b0a565b611929565b005b6000601f6001836107e1919061374c565b60ff166008811061081b577f4e487b7100000000000000000000000000000000000000000000000000000000600052603260045260246000fd5b0154601760018461082c919061374c565b60ff1660088110610866577f4e487b7100000000000000000000000000000000000000000000000000000000600052603260045260246000fd5b01546108729190613718565b9050919050565b60007f80ac58cd000000000000000000000000000000000000000000000000000000007bffffffffffffffffffffffffffffffffffffffffffffffffffffffff1916827bffffffffffffffffffffffffffffffffffffffffffffffffffffffff1916148061094457507f5b5e139f000000000000000000000000000000000000000000000000000000007bffffffffffffffffffffffffffffffffffffffffffffffffffffffff1916827bffffffffffffffffffffffffffffffffffffffffffffffffffffffff1916145b8061095457506109538261192e565b5b9050919050565b60606000805461096a90613867565b80601f016020809104026020016040519081016040528092919081815260200182805461099690613867565b80156109e35780601f106109b8576101008083540402835291602001916109e3565b820191906000526020600020905b8154815290600101906020018083116109c657829003601f168201915b5050505050905090565b60006109f882611998565b610a37576040517f08c379a0000000000000000000000000000000000000000000000000000000008152600401610a2e90613439565b60405180910390fd5b6004600083815260200190815260200160002060009054906101000a900473ffffffffffffffffffffffffffffffffffffffff169050919050565b6000610a7d82610fd2565b90508073ffffffffffffffffffffffffffffffffffffffff168373ffffffffffffffffffffffffffffffffffffffff161415610aee576040517f08c379a0000000000000000000000000000000000000000000000000000000008152600401610ae590613479565b60405180910390fd5b8073ffffffffffffffffffffffffffffffffffffffff16610b0d611a04565b73ffffffffffffffffffffffffffffffffffffffff161480610b3c5750610b3b81610b36611a04565b611895565b5b610b7b576040517f08c379a0000000000000000000000000000000000000000000000000000000008152600401610b72906133b9565b60405180910390fd5b610b858383611a0c565b505050565b600c60009054906101000a900460ff1681565b600033600660009054906101000a900473ffffffffffffffffffffffffffffffffffffffff1673ffffffffffffffffffffffffffffffffffffffff168173ffffffffffffffffffffffffffffffffffffffff1614610c30576040517f08c379a0000000000000000000000000000000000000000000000000000000008152600401610c27906134d9565b60405180910390fd5b610c38610e04565b831115610c7a576040517f08c379a0000000000000000000000000000000000000000000000000000000008152600401610c7190613499565b60405180910390fd5b8373ffffffffffffffffffffffffffffffffffffffff166108fc849081150290604051600060405180830381858888f19350505050158015610cc0573d6000803e3d6000fd5b50600191505092915050565b600080600090505b60386000600c60009054906101000a900460ff1660ff1660ff16815260200190815260200160002080549050811015610d995760386000600c60009054906101000a900460ff1660ff1660ff1681526020019081526020016000208181548110610d67577f4e487b7100000000000000000000000000000000000000000000000000000000600052603260045260246000fd5b90600052602060002001548360ff161415610d86576001915050610d9f565b8080610d91906138ca565b915050610cd4565b50600090505b919050565b610db5610daf611a04565b82611ac5565b610df4576040517f08c379a0000000000000000000000000000000000000000000000000000000008152600401610deb906134b9565b60405180910390fd5b610dff838383611ba3565b505050565b600033600660009054906101000a900473ffffffffffffffffffffffffffffffffffffffff1673ffffffffffffffffffffffffffffffffffffffff168173ffffffffffffffffffffffffffffffffffffffff1614610e97576040517f08c379a0000000000000000000000000000000000000000000000000000000008152600401610e8e906134d9565b60405180910390fd5b4791505090565b505050505050565b610ec1838383604051806020016040528060008152506115c1565b505050565b610ecf81611e0a565b50565b6000602f600183610ee3919061374c565b60ff1660088110610f1d577f4e487b7100000000000000000000000000000000000000000000000000000000600052603260045260246000fd5b01549050919050565b33600660009054906101000a900473ffffffffffffffffffffffffffffffffffffffff1673ffffffffffffffffffffffffffffffffffffffff168173ffffffffffffffffffffffffffffffffffffffff1614610fb7576040517f08c379a0000000000000000000000000000000000000000000000000000000008152600401610fae906134d9565b60405180910390fd5b81600b9080519060200190610fcd92919061270c565b505050565b6000806002600084815260200190815260200160002060009054906101000a900473ffffffffffffffffffffffffffffffffffffffff169050600073ffffffffffffffffffffffffffffffffffffffff168173ffffffffffffffffffffffffffffffffffffffff16141561107b576040517f08c379a0000000000000000000000000000000000000000000000000000000008152600401611072906133f9565b60405180910390fd5b80915050919050565b60008073ffffffffffffffffffffffffffffffffffffffff168273ffffffffffffffffffffffffffffffffffffffff1614156110f5576040517f08c379a00000000000000000000000000000000000000000000000000000000081526004016110ec906133d9565b60405180910390fd5b600360008373ffffffffffffffffffffffffffffffffffffffff1673ffffffffffffffffffffffffffffffffffffffff168152602001908152602001600020549050919050565b606033600660009054906101000a900473ffffffffffffffffffffffffffffffffffffffff1673ffffffffffffffffffffffffffffffffffffffff168173ffffffffffffffffffffffffffffffffffffffff16146111cf576040517f08c379a00000000000000000000000000000000000000000000000000000000081526004016111c6906134d9565b60405180910390fd5b600b80546111dc90613867565b80601f016020809104026020016040519081016040528092919081815260200182805461120890613867565b80156112555780601f1061122a57610100808354040283529160200191611255565b820191906000526020600020905b81548152906001019060200180831161123857829003601f168201915b505050505091505090565b603f6020528060005260406000206000915054906101000a900460ff1681565b603e6020528060005260406000206000915054906101000a900460ff1681565b600660009054906101000a900473ffffffffffffffffffffffffffffffffffffffff1681565b80600115156112d482610ccc565b151514611316576040517f08c379a000000000000000000000000000000000000000000000000000000000815260040161130d90613339565b60405180910390fd5b8183611321826107d0565b81111561132d57600080fd5b600061133885610ed2565b9050600660009054906101000a900473ffffffffffffffffffffffffffffffffffffffff1673ffffffffffffffffffffffffffffffffffffffff163373ffffffffffffffffffffffffffffffffffffffff16146113dd57858161139b91906136be565b34146113dc576040517f08c379a00000000000000000000000000000000000000000000000000000000081526004016113d390613499565b60405180910390fd5b5b60006113e888611f27565b90506000603754905060005b88811015611505578180611407906138ca565b9250506114148a83611ff8565b6001601f60018a611425919061374c565b60ff166008811061145f577f4e487b7100000000000000000000000000000000000000000000000000000000600052603260045260246000fd5b015461146b9190613637565b601f60018a61147a919061374c565b60ff16600881106114b4577f4e487b7100000000000000000000000000000000000000000000000000000000600052603260045260246000fd5b01819055507fdd3ee52e93d2f67c75859dd03ba44fbae095a9deba7e791d4a8e331f114bce38828b6040516114ea929190613514565b60405180910390a180806114fd906138ca565b9150506113f4565b508060378190555050505050505050505050565b60606001805461152890613867565b80601f016020809104026020016040519081016040528092919081815260200182805461155490613867565b80156115a15780601f10611576576101008083540402835291602001916115a1565b820191906000526020600020905b81548152906001019060200180831161158457829003601f168201915b5050505050905090565b6115bd6115b6611a04565b83836121d2565b5050565b6115d26115cc611a04565b83611ac5565b611611576040517f08c379a0000000000000000000000000000000000000000000000000000000008152600401611608906134b9565b60405180910390fd5b61161d8484848461233f565b50505050565b33600660009054906101000a900473ffffffffffffffffffffffffffffffffffffffff1673ffffffffffffffffffffffffffffffffffffffff168173ffffffffffffffffffffffffffffffffffffffff16146116b4576040517f08c379a00000000000000000000000000000000000000000000000000000000081526004016116ab906134d9565b60405180910390fd5b8260176001846116c4919061374c565b60ff16600881106116fe577f4e487b7100000000000000000000000000000000000000000000000000000000600052603260045260246000fd5b0181905550505050565b606061171382611998565b611752576040517f08c379a000000000000000000000000000000000000000000000000000000000815260040161174990613459565b60405180910390fd5b6000600b805461176190613867565b90501161177d57604051806020016040528060008152506117a9565b600b6117888361239b565b604051602001611799929190613199565b6040516020818303038152906040525b9050919050565b33600660009054906101000a900473ffffffffffffffffffffffffffffffffffffffff1673ffffffffffffffffffffffffffffffffffffffff168173ffffffffffffffffffffffffffffffffffffffff1614611841576040517f08c379a0000000000000000000000000000000000000000000000000000000008152600401611838906134d9565b60405180910390fd5b82602f600184611851919061374c565b60ff166008811061188b577f4e487b7100000000000000000000000000000000000000000000000000000000600052603260045260246000fd5b0181905550505050565b6000600560008473ffffffffffffffffffffffffffffffffffffffff1673ffffffffffffffffffffffffffffffffffffffff16815260200190815260200160002060008373ffffffffffffffffffffffffffffffffffffffff1673ffffffffffffffffffffffffffffffffffffffff16815260200190815260200160002060009054906101000a900460ff16905092915050565b505050565b60007f01ffc9a7000000000000000000000000000000000000000000000000000000007bffffffffffffffffffffffffffffffffffffffffffffffffffffffff1916827bffffffffffffffffffffffffffffffffffffffffffffffffffffffff1916149050919050565b60008073ffffffffffffffffffffffffffffffffffffffff166002600084815260200190815260200160002060009054906101000a900473ffffffffffffffffffffffffffffffffffffffff1673ffffffffffffffffffffffffffffffffffffffff1614159050919050565b600033905090565b816004600083815260200190815260200160002060006101000a81548173ffffffffffffffffffffffffffffffffffffffff021916908373ffffffffffffffffffffffffffffffffffffffff160217905550808273ffffffffffffffffffffffffffffffffffffffff16611a7f83610fd2565b73ffffffffffffffffffffffffffffffffffffffff167f8c5be1e5ebec7d5bd14f71427d1e84f3dd0314c0f7b2291e5b200ac8c7c3b92560405160405180910390a45050565b6000611ad082611998565b611b0f576040517f08c379a0000000000000000000000000000000000000000000000000000000008152600401611b0690613399565b60405180910390fd5b6000611b1a83610fd2565b90508073ffffffffffffffffffffffffffffffffffffffff168473ffffffffffffffffffffffffffffffffffffffff161480611b8957508373ffffffffffffffffffffffffffffffffffffffff16611b71846109ed565b73ffffffffffffffffffffffffffffffffffffffff16145b80611b9a5750611b998185611895565b5b91505092915050565b8273ffffffffffffffffffffffffffffffffffffffff16611bc382610fd2565b73ffffffffffffffffffffffffffffffffffffffff1614611c19576040517f08c379a0000000000000000000000000000000000000000000000000000000008152600401611c10906132f9565b60405180910390fd5b600073ffffffffffffffffffffffffffffffffffffffff168273ffffffffffffffffffffffffffffffffffffffff161415611c89576040517f08c379a0000000000000000000000000000000000000000000000000000000008152600401611c8090613359565b60405180910390fd5b611c94838383612548565b611c9f600082611a0c565b6001600360008573ffffffffffffffffffffffffffffffffffffffff1673ffffffffffffffffffffffffffffffffffffffff1681526020019081526020016000206000828254611cef9190613718565b925050819055506001600360008473ffffffffffffffffffffffffffffffffffffffff1673ffffffffffffffffffffffffffffffffffffffff1681526020019081526020016000206000828254611d469190613637565b92505081905550816002600083815260200190815260200160002060006101000a81548173ffffffffffffffffffffffffffffffffffffffff021916908373ffffffffffffffffffffffffffffffffffffffff160217905550808273ffffffffffffffffffffffffffffffffffffffff168473ffffffffffffffffffffffffffffffffffffffff167fddf252ad1be2c89b69c2b068fc378daa952ba7f163c4a11628f55a4df523b3ef60405160405180910390a4611e0583838361254d565b505050565b6000611e1582610fd2565b9050611e2381600084612548565b611e2e600083611a0c565b6001600360008373ffffffffffffffffffffffffffffffffffffffff1673ffffffffffffffffffffffffffffffffffffffff1681526020019081526020016000206000828254611e7e9190613718565b925050819055506002600083815260200190815260200160002060006101000a81549073ffffffffffffffffffffffffffffffffffffffff021916905581600073ffffffffffffffffffffffffffffffffffffffff168273ffffffffffffffffffffffffffffffffffffffff167fddf252ad1be2c89b69c2b068fc378daa952ba7f163c4a11628f55a4df523b3ef60405160405180910390a4611f238160008461254d565b5050565b600080600860009054906101000a900473ffffffffffffffffffffffffffffffffffffffff1673ffffffffffffffffffffffffffffffffffffffff16630cb98b718460026040518363ffffffff1660e01b8152600401611f8892919061324a565b60206040518083038186803b158015611fa057600080fd5b505afa158015611fb4573d6000803e3d6000fd5b505050506040513d601f19601f82011682018060405250810190611fd89190612d19565b90506000811415611fed576000915050611ff3565b60019150505b919050565b600073ffffffffffffffffffffffffffffffffffffffff168273ffffffffffffffffffffffffffffffffffffffff161415612068576040517f08c379a000000000000000000000000000000000000000000000000000000000815260040161205f90613419565b60405180910390fd5b61207181611998565b156120b1576040517f08c379a00000000000000000000000000000000000000000000000000000000081526004016120a890613319565b60405180910390fd5b6120bd60008383612548565b6001600360008473ffffffffffffffffffffffffffffffffffffffff1673ffffffffffffffffffffffffffffffffffffffff168152602001908152602001600020600082825461210d9190613637565b92505081905550816002600083815260200190815260200160002060006101000a81548173ffffffffffffffffffffffffffffffffffffffff021916908373ffffffffffffffffffffffffffffffffffffffff160217905550808273ffffffffffffffffffffffffffffffffffffffff16600073ffffffffffffffffffffffffffffffffffffffff167fddf252ad1be2c89b69c2b068fc378daa952ba7f163c4a11628f55a4df523b3ef60405160405180910390a46121ce6000838361254d565b5050565b8173ffffffffffffffffffffffffffffffffffffffff168373ffffffffffffffffffffffffffffffffffffffff161415612241576040517f08c379a000000000000000000000000000000000000000000000000000000000815260040161223890613379565b60405180910390fd5b80600560008573ffffffffffffffffffffffffffffffffffffffff1673ffffffffffffffffffffffffffffffffffffffff16815260200190815260200160002060008473ffffffffffffffffffffffffffffffffffffffff1673ffffffffffffffffffffffffffffffffffffffff16815260200190815260200160002060006101000a81548160ff0219169083151502179055508173ffffffffffffffffffffffffffffffffffffffff168373ffffffffffffffffffffffffffffffffffffffff167f17307eab39ab6107e8899845ad3d59bd9653f200f220920489ca2b5937696c3183604051612332919061329c565b60405180910390a3505050565b61234a848484611ba3565b61235684848484612552565b612395576040517f08c379a000000000000000000000000000000000000000000000000000000000815260040161238c906132d9565b60405180910390fd5b50505050565b606060008214156123e3576040518060400160405280600181526020017f30000000000000000000000000000000000000000000000000000000000000008152509050612543565b600082905060005b600082146124155780806123fe906138ca565b915050600a8261240e919061368d565b91506123eb565b60008167ffffffffffffffff811115612457577f4e487b7100000000000000000000000000000000000000000000000000000000600052604160045260246000fd5b6040519080825280601f01601f1916602001820160405280156124895781602001600182028036833780820191505090505b5090505b6000851461253c576001826124a29190613718565b9150600a856124b19190613913565b60306124bd9190613637565b60f81b8183815181106124f9577f4e487b7100000000000000000000000000000000000000000000000000000000600052603260045260246000fd5b60200101907effffffffffffffffffffffffffffffffffffffffffffffffffffffffffffff1916908160001a905350600a85612535919061368d565b945061248d565b8093505050505b919050565b505050565b505050565b60006125738473ffffffffffffffffffffffffffffffffffffffff166126e9565b156126dc578373ffffffffffffffffffffffffffffffffffffffff1663150b7a0261259c611a04565b8786866040518563ffffffff1660e01b81526004016125be94939291906131fe565b602060405180830381600087803b1580156125d857600080fd5b505af192505050801561260957506040513d601f19601f820116820180604052508101906126069190612c0b565b60015b61268c573d8060008114612639576040519150601f19603f3d011682016040523d82523d6000602084013e61263e565b606091505b50600081511415612684576040517f08c379a000000000000000000000000000000000000000000000000000000000815260040161267b906132d9565b60405180910390fd5b805181602001fd5b63150b7a0260e01b7bffffffffffffffffffffffffffffffffffffffffffffffffffffffff1916817bffffffffffffffffffffffffffffffffffffffffffffffffffffffff1916149150506126e1565b600190505b949350505050565b6000808273ffffffffffffffffffffffffffffffffffffffff163b119050919050565b82805461271890613867565b90600052602060002090601f01602090048101928261273a5760008555612781565b82601f1061275357805160ff1916838001178555612781565b82800160010185558215612781579182015b82811115612780578251825591602001919060010190612765565b5b50905061278e9190612792565b5090565b5b808211156127ab576000816000905550600101612793565b5090565b60006127c26127bd8461357d565b613558565b9050828152602081018484840111156127da57600080fd5b6127e5848285613825565b509392505050565b60006128006127fb846135ae565b613558565b90508281526020810184848401111561281857600080fd5b612823848285613825565b509392505050565b60008135905061283a81613e6f565b92915050565b60008135905061284f81613e86565b92915050565b60008135905061286481613e9d565b92915050565b60008135905061287981613eb4565b92915050565b60008151905061288e81613eb4565b92915050565b600082601f8301126128a557600080fd5b81356128b58482602086016127af565b91505092915050565b600082601f8301126128cf57600080fd5b81356128df8482602086016127ed565b91505092915050565b6000813590506128f781613ecb565b92915050565b60008151905061290c81613ecb565b92915050565b60008135905061292181613ee2565b92915050565b60006020828403121561293957600080fd5b60006129478482850161282b565b91505092915050565b6000806040838503121561296357600080fd5b600061297185828601612840565b9250506020612982858286016128e8565b9150509250929050565b6000806040838503121561299f57600080fd5b60006129ad8582860161282b565b92505060206129be8582860161282b565b9150509250929050565b6000806000606084860312156129dd57600080fd5b60006129eb8682870161282b565b93505060206129fc8682870161282b565b9250506040612a0d868287016128e8565b9150509250925092565b60008060008060808587031215612a2d57600080fd5b6000612a3b8782880161282b565b9450506020612a4c8782880161282b565b9350506040612a5d878288016128e8565b925050606085013567ffffffffffffffff811115612a7a57600080fd5b612a8687828801612894565b91505092959194509250565b60008060408385031215612aa557600080fd5b6000612ab38582860161282b565b9250506020612ac485828601612855565b9150509250929050565b60008060408385031215612ae157600080fd5b6000612aef8582860161282b565b9250506020612b00858286016128e8565b9150509250929050565b600080600060608486031215612b1f57600080fd5b6000612b2d8682870161282b565b9350506020612b3e868287016128e8565b9250506040612b4f868287016128e8565b9150509250925092565b60008060008060008060c08789031215612b7257600080fd5b6000612b8089828a0161282b565b9650506020612b9189828a016128e8565b9550506040612ba289828a016128e8565b9450506060612bb389828a016128e8565b9350506080612bc489828a016128e8565b92505060a0612bd589828a016128e8565b9150509295509295509295565b600060208284031215612bf457600080fd5b6000612c028482850161286a565b91505092915050565b600060208284031215612c1d57600080fd5b6000612c2b8482850161287f565b91505092915050565b600060208284031215612c4657600080fd5b600082013567ffffffffffffffff811115612c6057600080fd5b612c6c848285016128be565b91505092915050565b60008060008060808587031215612c8b57600080fd5b600085013567ffffffffffffffff811115612ca557600080fd5b612cb1878288016128be565b9450506020612cc28782880161282b565b9350506040612cd3878288016128e8565b9250506060612ce487828801612912565b91505092959194509250565b600060208284031215612d0257600080fd5b6000612d10848285016128e8565b91505092915050565b600060208284031215612d2b57600080fd5b6000612d39848285016128fd565b91505092915050565b60008060408385031215612d5557600080fd5b6000612d63858286016128e8565b9250506020612d7485828601612912565b9150509250929050565b600060208284031215612d9057600080fd5b6000612d9e84828501612912565b91505092915050565b612db081613792565b82525050565b612dbf81613780565b82525050565b612dce816137a4565b82525050565b6000612ddf826135f4565b612de9818561360a565b9350612df9818560208601613834565b612e0281613a00565b840191505092915050565b612e1681613813565b82525050565b6000612e27826135ff565b612e31818561361b565b9350612e41818560208601613834565b612e4a81613a00565b840191505092915050565b6000612e60826135ff565b612e6a818561362c565b9350612e7a818560208601613834565b80840191505092915050565b60008154612e9381613867565b612e9d818661362c565b94506001821660008114612eb85760018114612ec957612efc565b60ff19831686528186019350612efc565b612ed2856135df565b60005b83811015612ef457815481890152600182019150602081019050612ed5565b838801955050505b50505092915050565b6000612f1260328361361b565b9150612f1d82613a11565b604082019050919050565b6000612f3560258361361b565b9150612f4082613a60565b604082019050919050565b6000612f58601c8361361b565b9150612f6382613aaf565b602082019050919050565b6000612f7b60108361361b565b9150612f8682613ad8565b602082019050919050565b6000612f9e60248361361b565b9150612fa982613b01565b604082019050919050565b6000612fc160198361361b565b9150612fcc82613b50565b602082019050919050565b6000612fe4602c8361361b565b9150612fef82613b79565b604082019050919050565b600061300760388361361b565b915061301282613bc8565b604082019050919050565b600061302a602a8361361b565b915061303582613c17565b604082019050919050565b600061304d60298361361b565b915061305882613c66565b604082019050919050565b600061307060208361361b565b915061307b82613cb5565b602082019050919050565b6000613093602c8361361b565b915061309e82613cde565b604082019050919050565b60006130b660128361361b565b91506130c182613d2d565b602082019050919050565b60006130d960058361362c565b91506130e482613d56565b600582019050919050565b60006130fc60218361361b565b915061310782613d7f565b604082019050919050565b600061311f60138361361b565b915061312a82613dce565b602082019050919050565b600061314260318361361b565b915061314d82613df7565b604082019050919050565b600061316560118361361b565b915061317082613e46565b602082019050919050565b613184816137fc565b82525050565b61319381613806565b82525050565b60006131a58285612e86565b91506131b18284612e55565b91506131bc826130cc565b91508190509392505050565b60006020820190506131dd6000830184612db6565b92915050565b60006020820190506131f86000830184612da7565b92915050565b60006080820190506132136000830187612db6565b6132206020830186612db6565b61322d604083018561317b565b818103606083015261323f8184612dd4565b905095945050505050565b600060408201905061325f6000830185612db6565b61326c6020830184612e0d565b9392505050565b60006040820190506132886000830185612db6565b613295602083018461317b565b9392505050565b60006020820190506132b16000830184612dc5565b92915050565b600060208201905081810360008301526132d18184612e1c565b905092915050565b600060208201905081810360008301526132f281612f05565b9050919050565b6000602082019050818103600083015261331281612f28565b9050919050565b6000602082019050818103600083015261333281612f4b565b9050919050565b6000602082019050818103600083015261335281612f6e565b9050919050565b6000602082019050818103600083015261337281612f91565b9050919050565b6000602082019050818103600083015261339281612fb4565b9050919050565b600060208201905081810360008301526133b281612fd7565b9050919050565b600060208201905081810360008301526133d281612ffa565b9050919050565b600060208201905081810360008301526133f28161301d565b9050919050565b6000602082019050818103600083015261341281613040565b9050919050565b6000602082019050818103600083015261343281613063565b9050919050565b6000602082019050818103600083015261345281613086565b9050919050565b60006020820190508181036000830152613472816130a9565b9050919050565b60006020820190508181036000830152613492816130ef565b9050919050565b600060208201905081810360008301526134b281613112565b9050919050565b600060208201905081810360008301526134d281613135565b9050919050565b600060208201905081810360008301526134f281613158565b9050919050565b600060208201905061350e600083018461317b565b92915050565b6000604082019050613529600083018561317b565b6135366020830184612db6565b9392505050565b6000602082019050613552600083018461318a565b92915050565b6000613562613573565b905061356e8282613899565b919050565b6000604051905090565b600067ffffffffffffffff821115613598576135976139d1565b5b6135a182613a00565b9050602081019050919050565b600067ffffffffffffffff8211156135c9576135c86139d1565b5b6135d282613a00565b9050602081019050919050565b60008190508160005260206000209050919050565b600081519050919050565b600081519050919050565b600082825260208201905092915050565b600082825260208201905092915050565b600081905092915050565b6000613642826137fc565b915061364d836137fc565b9250827fffffffffffffffffffffffffffffffffffffffffffffffffffffffffffffffff0382111561368257613681613944565b5b828201905092915050565b6000613698826137fc565b91506136a3836137fc565b9250826136b3576136b2613973565b5b828204905092915050565b60006136c9826137fc565b91506136d4836137fc565b9250817fffffffffffffffffffffffffffffffffffffffffffffffffffffffffffffffff048311821515161561370d5761370c613944565b5b828202905092915050565b6000613723826137fc565b915061372e836137fc565b92508282101561374157613740613944565b5b828203905092915050565b600061375782613806565b915061376283613806565b92508282101561377557613774613944565b5b828203905092915050565b600061378b826137dc565b9050919050565b600061379d826137dc565b9050919050565b60008115159050919050565b60007fffffffff0000000000000000000000000000000000000000000000000000000082169050919050565b600073ffffffffffffffffffffffffffffffffffffffff82169050919050565b6000819050919050565b600060ff82169050919050565b600061381e82613806565b9050919050565b82818337600083830152505050565b60005b83811015613852578082015181840152602081019050613837565b83811115613861576000848401525b50505050565b6000600282049050600182168061387f57607f821691505b60208210811415613893576138926139a2565b5b50919050565b6138a282613a00565b810181811067ffffffffffffffff821117156138c1576138c06139d1565b5b80604052505050565b60006138d5826137fc565b91507fffffffffffffffffffffffffffffffffffffffffffffffffffffffffffffffff82141561390857613907613944565b5b600182019050919050565b600061391e826137fc565b9150613929836137fc565b92508261393957613938613973565b5b828206905092915050565b7f4e487b7100000000000000000000000000000000000000000000000000000000600052601160045260246000fd5b7f4e487b7100000000000000000000000000000000000000000000000000000000600052601260045260246000fd5b7f4e487b7100000000000000000000000000000000000000000000000000000000600052602260045260246000fd5b7f4e487b7100000000000000000000000000000000000000000000000000000000600052604160045260246000fd5b6000601f19601f8301169050919050565b7f4552433732313a207472616e7366657220746f206e6f6e20455243373231526560008201527f63656976657220696d706c656d656e7465720000000000000000000000000000602082015250565b7f4552433732313a207472616e736665722066726f6d20696e636f72726563742060008201527f6f776e6572000000000000000000000000000000000000000000000000000000602082015250565b7f4552433732313a20746f6b656e20616c7265616479206d696e74656400000000600082015250565b7f4e6f74204d696e7461626c652044657800000000000000000000000000000000600082015250565b7f4552433732313a207472616e7366657220746f20746865207a65726f2061646460008201527f7265737300000000000000000000000000000000000000000000000000000000602082015250565b7f4552433732313a20617070726f766520746f2063616c6c657200000000000000600082015250565b7f4552433732313a206f70657261746f7220717565727920666f72206e6f6e657860008201527f697374656e7420746f6b656e0000000000000000000000000000000000000000602082015250565b7f4552433732313a20617070726f76652063616c6c6572206973206e6f74206f7760008201527f6e6572206e6f7220617070726f76656420666f7220616c6c0000000000000000602082015250565b7f4552433732313a2062616c616e636520717565727920666f7220746865207a6560008201527f726f206164647265737300000000000000000000000000000000000000000000602082015250565b7f4552433732313a206f776e657220717565727920666f72206e6f6e657869737460008201527f656e7420746f6b656e0000000000000000000000000000000000000000000000602082015250565b7f4552433732313a206d696e7420746f20746865207a65726f2061646472657373600082015250565b7f4552433732313a20617070726f76656420717565727920666f72206e6f6e657860008201527f697374656e7420746f6b656e0000000000000000000000000000000000000000602082015250565b7f4e6f6e6578697374656e7420746f6b656e210000000000000000000000000000600082015250565b7f2e6a736f6e000000000000000000000000000000000000000000000000000000600082015250565b7f4552433732313a20617070726f76616c20746f2063757272656e74206f776e6560008201527f7200000000000000000000000000000000000000000000000000000000000000602082015250565b7f4e6f7420456e6f7567682042616c616e63652100000000000000000000000000600082015250565b7f4552433732313a207472616e736665722063616c6c6572206973206e6f74206f60008201527f776e6572206e6f7220617070726f766564000000000000000000000000000000602082015250565b7f4e6f742061206f776e65722063616c6c21000000000000000000000000000000600082015250565b613e7881613780565b8114613e8357600080fd5b50565b613e8f81613792565b8114613e9a57600080fd5b50565b613ea6816137a4565b8114613eb157600080fd5b50565b613ebd816137b0565b8114613ec857600080fd5b50565b613ed4816137fc565b8114613edf57600080fd5b50565b613eeb81613806565b8114613ef657600080fd5b5056fea2646970667358221220d7d8427dba355feb14f42191c387180fd70cd5c28a9e069b53a1061817e7d0ff64736f6c63430008020033",
  "immutableReferences": {},
  "source": "// SPDX-License-Identifier: MIT\npragma solidity ^0.8.2;\nimport \"@openzeppelin/contracts/token/ERC721/ERC721.sol\";\n\n\ninterface ItemContract {\n    function getFloorPrice(uint8 _itemType) external view returns (uint256);\n    function specificItemOwnership(address _owner, uint8 _itemType) external view returns (uint256);\n}\n\n\n// Pick during the meeting 1/10000\n// Shiny logic (every mint reset, if you have lucky totem higher chance, if you mintQuantity 10, it increments the probability of minting shiny on each loop of mint\n\n// Before the personalities in 1/10 chance call the chainlink contract \n// Batch actions\n\n\n\ncontract Metamon is ERC721 {\n    using Strings for uint256;\n\n    address payable public owner;\n    address _itemContractAddress = 0x1E6059Ec57aE39D2C73E5C3821a26FAFfD68E016; // TODO: we will hardcode it for now\n    \n    ItemContract _item = ItemContract(_itemContractAddress);  // TODO: move this declaration outside of this function\n\n\n    string private itemBaseURI;\n    string private metamonBaseURI;\n    string private baseURI;\n\n    event ReceivedEth(address _reciever, uint256 _value);\n    event MetamonMint(uint256 _tokenId, address _reciever);\n    event MetamonBurn(uint256 _tokenId, uint8 _dexId, address _burner);\n\n    uint8 public currentMintPhase = 1;\n    uint8[5] private withLuckyTotem = [99, 98, 97, 96, 95];  // TODO: total count of 100 probabilities \n    uint32[5] private withoutLuckyTotem = [296, 292, 288, 284, 280];  // TODO: total number of 100 probabilities\n    uint256[8] private metamonDex = [1, 2, 3, 4, 7, 10, 11, 13]; // REPR: METAMONT DEX NUMBERS\n    uint256[8] private metamonSupply = [1000, 0, 0, 2000, 1000, 3000, 4000, 1000]; // REPR: STARTS FROM TOKEN IDS\n    uint256[8] private metamonMinted = [0, 0, 0, 0, 0, 0, 0, 0]; // REPR: STARTS FROM TOKEN IDS\n    uint256[8] private metamonMintable = [1, 0, 0, 1, 0, 0, 0, 1]; // REPR: DIRECTLY MINTABLE METAMON DEXIDS\n    uint256[8] private metamonFloor = [.05 ether, 0 ether, 0 ether, .025 ether, 0.035 ether, 0.045 ether, 0.055 ether, 0.065 ether];\n\n    uint256 private _tokenIds;\n\n    mapping(uint8 => uint256[]) private metamonMintPhases; // REPR: Metamon mint phases by DAX numbers;\n    mapping(uint256 => uint256) private familyMetamon; // REPR: Metamon evalution trees \n\n    mapping(uint256 => uint256) private itemEvaluation; // REPR: Which item needed for which metamon evalution\n    mapping(uint256 => uint256) private burnEvaluation; // REPR: How many metamon balance needed for evalution for next metamon dex\n\n    mapping(address => uint256) private _collectedItems; // MINTING FIRST CHECK IF ADDRESS COLLEDTED ANY ITEMS BEFORE\n    mapping(address => uint256) private _collectedDex; // TOTAL COLLECTED DAX ITEMS IMPORTANT TO IDENTIFY SHINY LOGIC\n\n    mapping(uint256 => bool) public metamonInfoShiny; // REPR: Holds the info about If the minted metamon was shiny or not\n    mapping(uint256 => uint8) public metamonInfoPersonality; // REPR: Holds the info about the personality of the metamon\n\n    constructor() payable ERC721(\"Metamon NFT\", \"NFT\") {\n        owner = payable(msg.sender);\n        // FILLING INFORMATION OF METAMAN AND EVALUATION\n        burnEvaluation[1] = 2;\n        burnEvaluation[2] = 3;\n        familyMetamon[1] = 2;\n        familyMetamon[2] = 3;\n        // ****************\n        burnEvaluation[4] = 2;\n        burnEvaluation[5] = 3;\n        familyMetamon[4] = 5;\n        familyMetamon[5] = 6;\n        // ****************\n        metamonMintPhases[1] = [1, 4, 7, 20, 86, 133];\n        // ****************\n        burnEvaluation[129] = 5; // i.e. 5 #DEX129 has to burned for #DEX139\n    }\n\n    modifier onlyOwner(address sender) {\n        require(sender == owner, \"Not a owner call!\");\n        _;\n    }\n\n    ///////////////////////////////////////////////////////////////////////////\n    // State Changes\n    ///////////////////////////////////////////////////////////////////////////\n    function changeFloorPrice(\n        uint256 _new_price,\n        uint8 _dexId\n    )\n        external\n        onlyOwner(msg.sender)\n    {\n        metamonFloor[_dexId - 1] = _new_price;\n    }\n\n    function changeSupplyDexId(\n        uint256 _new_supply,\n        uint8 _dexId\n    )\n        external\n        onlyOwner(msg.sender)\n    {\n        metamonSupply[_dexId - 1] = _new_supply;\n    }\n\n    ///////////////////////////////////////////////////////////////////////////\n    // State Info\n    ///////////////////////////////////////////////////////////////////////////\n    function getFloorPrice(uint8 _dexId)\n        public\n        view\n        returns (uint256)\n    {\n        return metamonFloor[_dexId - 1];\n    }\n \n    function getWalletBalance()\n        public\n        view\n        onlyOwner(msg.sender)\n        returns (uint256)\n    {\n        return address(this).balance;\n    }\n\n    function getSupplyDex(uint8 _dexId)\n        public\n        view \n        returns (uint256)\n    {\n        return metamonSupply[_dexId - 1] - metamonMinted[_dexId - 1];\n    }\n    \n    ///////////////////////////////////////////////////////////////////////////\n    // Contract ETH Deals\n    ///////////////////////////////////////////////////////////////////////////\n    fallback() external payable {}\n\n    receive() external payable {\n        emit ReceivedEth(msg.sender, msg.value);\n    }\n\n    function transferContractBalance(\n        address payable _recipient,\n        uint256 _amount\n    ) external onlyOwner(msg.sender) returns (bool) {\n        require(_amount <= getWalletBalance(), \"Not Enough Balance!\");\n        _recipient.transfer(_amount);\n        return true;\n    }\n\n    ///////////////////////////////////////////////////////////////////////////\n    // Meta Data Related\n    ///////////////////////////////////////////////////////////////////////////\n    function setBaseURI(string memory _baseURILink)\n        external\n        onlyOwner(msg.sender)\n    {\n        baseURI = _baseURILink;\n    }\n\n    function getBaseURI()\n        external\n        view\n        onlyOwner(msg.sender)\n        returns (string memory)\n    {\n        return baseURI;\n    }\n\n    function _baseURI() internal view virtual override returns (string memory) {\n        // We will have different baseURIs for Item and Metamon \n        // TODO: move items into different collection\n        return baseURI;\n    }\n\n    function tokenURI(uint256 tokenId)\n        public\n        view\n        virtual\n        override\n        returns (string memory)\n    {\n        require(_exists(tokenId), \"Nonexistent token!\");\n        // We can retrieve the information about token id \n        // -> is it Item or Metamon\n        // -> what is the dax number\n        // -> based on the information that we retrieve we will return base_uri\n        // TODO: move items into different collection\n\n        return\n            bytes(baseURI).length > 0\n                ? string(abi.encodePacked(baseURI, tokenId.toString(), \".json\"))\n                : \"\";\n    }\n\n    ///////////////////////////////////////////////////////////////////////////\n    // Mint / Randomness Mockup TODO: remove this section when Coinbase Implementation\n    ///////////////////////////////////////////////////////////////////////////\n    function _mockupRandomPersonality() internal pure returns(uint8) {\n        uint8[4] memory personality = [1, 2, 3, 4];\n        return personality[0];\n    }\n\n    function _mockupRandomShiny(uint256 _quantity, bool lucky) internal view returns(bool) {\n        // TODO: randomness comes from the loop\n        if (lucky){\n            uint256 probability = withLuckyTotem[_quantity];\n            // TODO: there should be some randomness based on the probability\n            return true;\n        } else {\n            uint256 probability = withoutLuckyTotem[_quantity];\n            // TODO: there should be some randomness based on the probability\n            return false;\n        }\n        \n    }\n\n    function _checkLuckyOwnership(address _recipient) internal view returns (bool){\n        // TODO: lucky item hardcoded as \"2\" for this \n        uint256 total_ownership = _item.specificItemOwnership(_recipient, 2); // Checks whether Lucky Totem has been owned/or not\n        if (total_ownership == 0){\n            return false;\n        } else {\n            return true;\n        }\n    }\n\n    ///////////////////////////////////////////////////////////////////////////\n    // Mint / Burn Phases\n    ///////////////////////////////////////////////////////////////////////////\n    function burn(uint256 _value) public {\n        _burn(_value);\n    }\n\n    function mintableDex(uint8 _dexId) public view returns(bool){\n        // Helper functions checks if Dex Id can be mintable for current mint phase\n        for (uint i=0; i < metamonMintPhases[currentMintPhase].length; i ++){\n            if (_dexId == metamonMintPhases[currentMintPhase][i]){\n                return true;\n            }\n        }\n        return false;\n    }\n\n    modifier mintableDexPhase(uint8 _dexId) {\n        require(mintableDex(_dexId) == true, 'Not Mintable Dex');\n        _;\n    }\n\n    modifier mintableSupply(uint8 _dexId, uint256 _quantity){\n        require(_quantity <= getSupplyDex(_dexId));\n        _;\n    }\n\n    function mintSale(\n            string memory _passCode,\n            address _recipient, \n            uint256 _quantity,\n            uint8 _dexId // TODO: talk to Nick about the randomness of the dexID\n        ) public payable mintableDexPhase(_dexId) mintableSupply(_dexId, _quantity) {\n        // TODO: after minting make sure to push token information into mapping\n        uint256 floorPrice = getFloorPrice(_dexId);\n        if (msg.sender != owner) {\n            require(msg.value == floorPrice * _quantity, \"Not Enough Balance!\");\n        }\n        \n        bool lucky = _checkLuckyOwnership(_recipient);\n        uint256 j = _tokenIds;\n        for (uint256 i = 0; i < _quantity; i++) {\n            j++;\n            _mint(_recipient, j);\n            // metamonInfoPersonality[j] = _mockupRandomPersonality();\n            // metamonInfoShiny[j]= _mockupRandomShiny(i, lucky);\n            metamonMinted[_dexId - 1] = metamonMinted[_dexId - 1] + 1;\n            emit MetamonMint(j, _recipient);\n        }\n        _tokenIds = j;\n    }\n\n    function evalutionItemBurn(\n        address _recipient,\n        uint256 _sendTokenId,\n        uint256 _sendDaxId\n    ) public {\n        // TODO: burn metamon and item together\n    }\n\n    function evalutionMetaBurn(\n        address _recipient, \n        uint256 _sendTokenId, \n        uint256 _sendDaxId, \n        uint256 _quantitySend,  \n        uint256 _targetDax, \n        uint256 _itemTokenId\n        ) public {\n        // TODO: only burn metamon\n        // check whether owner has item token\n        \n        // burn(_send, TokenId);\n        // uint256 _evaluationToken = burnEvaluation[_sendDaxId];\n        // uint256 _tokenIds = _tokenIds + 1;\n        // _mint(_recipient, _tokenIds);\n    }\n}",
  "sourcePath": "/Users/aipek/Documents/metamon_contracts/contracts/Metamon.sol",
  "compiler": {
    "name": "solc",
    "version": "0.8.2+commit.661d1103.Emscripten.clang"
  },
  "schemaVersion": "3.4.4",
  "updatedAt": "2022-03-03T21:32:16.337Z",
  "networkType": "ethereum",
  "devdoc": {
    "kind": "dev",
    "methods": {
      "approve(address,uint256)": {
        "details": "See {IERC721-approve}."
      },
      "balanceOf(address)": {
        "details": "See {IERC721-balanceOf}."
      },
      "getApproved(uint256)": {
        "details": "See {IERC721-getApproved}."
      },
      "isApprovedForAll(address,address)": {
        "details": "See {IERC721-isApprovedForAll}."
      },
      "name()": {
        "details": "See {IERC721Metadata-name}."
      },
      "ownerOf(uint256)": {
        "details": "See {IERC721-ownerOf}."
      },
      "safeTransferFrom(address,address,uint256)": {
        "details": "See {IERC721-safeTransferFrom}."
      },
      "safeTransferFrom(address,address,uint256,bytes)": {
        "details": "See {IERC721-safeTransferFrom}."
      },
      "setApprovalForAll(address,bool)": {
        "details": "See {IERC721-setApprovalForAll}."
      },
      "supportsInterface(bytes4)": {
        "details": "See {IERC165-supportsInterface}."
      },
      "symbol()": {
        "details": "See {IERC721Metadata-symbol}."
      },
      "tokenURI(uint256)": {
        "details": "See {IERC721Metadata-tokenURI}."
      },
      "transferFrom(address,address,uint256)": {
        "details": "See {IERC721-transferFrom}."
      }
    },
    "version": 1
  },
  "userdoc": {
    "kind": "user",
    "methods": {},
    "version": 1
  }
}