{
  "contractName": "Payment",
  "abi": [
    {
      "inputs": [],
      "stateMutability": "payable",
      "type": "constructor"
    },
    {
      "anonymous": false,
      "inputs": [
        {
          "indexed": false,
          "internalType": "address",
          "name": "receiver",
          "type": "address"
        },
        {
          "indexed": false,
          "internalType": "uint256",
          "name": "value",
          "type": "uint256"
        }
      ],
      "name": "ConceptWithdrawn",
      "type": "event"
    },
    {
      "anonymous": false,
      "inputs": [
        {
          "indexed": false,
          "internalType": "address",
          "name": "receiver",
          "type": "address"
        },
        {
          "indexed": false,
          "internalType": "uint256",
          "name": "value",
          "type": "uint256"
        }
      ],
      "name": "ItemPresaleWithdrawn",
      "type": "event"
    },
    {
      "anonymous": false,
      "inputs": [
        {
          "indexed": false,
          "internalType": "address",
          "name": "sender",
          "type": "address"
        },
        {
          "indexed": false,
          "internalType": "uint256",
          "name": "value",
          "type": "uint256"
        }
      ],
      "name": "ReceivedEth",
      "type": "event"
    },
    {
      "anonymous": false,
      "inputs": [
        {
          "indexed": false,
          "internalType": "address",
          "name": "receiver",
          "type": "address"
        },
        {
          "indexed": false,
          "internalType": "uint256",
          "name": "value",
          "type": "uint256"
        }
      ],
      "name": "TrainersWithdrawn",
      "type": "event"
    },
    {
      "stateMutability": "payable",
      "type": "fallback"
    },
    {
      "inputs": [],
      "name": "concept_withdraw",
      "outputs": [
        {
          "internalType": "bool",
          "name": "",
          "type": "bool"
        }
      ],
      "stateMutability": "view",
      "type": "function"
    },
    {
      "inputs": [],
      "name": "itemPresale_withdraw",
      "outputs": [
        {
          "internalType": "bool",
          "name": "",
          "type": "bool"
        }
      ],
      "stateMutability": "view",
      "type": "function"
    },
    {
      "inputs": [],
      "name": "owner",
      "outputs": [
        {
          "internalType": "address",
          "name": "",
          "type": "address"
        }
      ],
      "stateMutability": "view",
      "type": "function"
    },
    {
      "inputs": [],
      "name": "trainers_withdraw",
      "outputs": [
        {
          "internalType": "bool",
          "name": "",
          "type": "bool"
        }
      ],
      "stateMutability": "view",
      "type": "function"
    },
    {
      "stateMutability": "payable",
      "type": "receive"
    },
    {
      "inputs": [
        {
          "internalType": "address",
          "name": "phaseType",
          "type": "address"
        }
      ],
      "name": "receiveAmountDistribute",
      "outputs": [],
      "stateMutability": "payable",
      "type": "function"
    },
    {
      "inputs": [
        {
          "internalType": "address",
          "name": "phaseType",
          "type": "address"
        },
        {
          "internalType": "address",
          "name": "withdrawer",
          "type": "address"
        },
        {
          "internalType": "uint256",
          "name": "percantage",
          "type": "uint256"
        }
      ],
      "name": "addWithdrawer",
      "outputs": [],
      "stateMutability": "nonpayable",
      "type": "function"
    },
    {
      "inputs": [
        {
          "internalType": "address",
          "name": "phaseType",
          "type": "address"
        },
        {
          "internalType": "address",
          "name": "withdrawer",
          "type": "address"
        }
      ],
      "name": "removeWithdrawer",
      "outputs": [],
      "stateMutability": "nonpayable",
      "type": "function"
    },
    {
      "inputs": [
        {
          "internalType": "address",
          "name": "phaseType",
          "type": "address"
        },
        {
          "internalType": "address payable",
          "name": "withdrawer",
          "type": "address"
        },
        {
          "internalType": "uint256",
          "name": "amount",
          "type": "uint256"
        }
      ],
      "name": "Withdraw",
      "outputs": [],
      "stateMutability": "nonpayable",
      "type": "function"
    },
    {
      "inputs": [
        {
          "internalType": "address payable",
          "name": "receiver",
          "type": "address"
        },
        {
          "internalType": "uint256",
          "name": "amount",
          "type": "uint256"
        }
      ],
      "name": "ownerWithdraw",
      "outputs": [],
      "stateMutability": "nonpayable",
      "type": "function"
    }
  ],
  "bytecode": "0x608060405233600060036101000a81548173ffffffffffffffffffffffffffffffffffffffff021916908373ffffffffffffffffffffffffffffffffffffffff16021790555061170e806100546000396000f3fe60806040526004361061008a5760003560e01c80639b1bfa7f116100595780639b1bfa7f14610167578063b2c2ade414610190578063cacdb3d6146101bb578063cb3a7609146101e6578063d9c88e141461020f576100ca565b806306904cc9146100cc578063469feb7e146100f557806386b5c860146101205780638da5cb5b1461013c576100ca565b366100ca577f52a6cdf67c40ce333b3d846e4e143db87f71dd7935612a4cafcf6ba76047ca1f33346040516100c0929190611272565b60405180910390a1005b005b3480156100d857600080fd5b506100f360048036038101906100ee9190611105565b610238565b005b34801561010157600080fd5b5061010a6105e6565b604051610117919061129b565b60405180910390f35b61013a60048036038101906101359190611005565b6105f9565b005b34801561014857600080fd5b506101516108a1565b60405161015e9190611257565b60405180910390f35b34801561017357600080fd5b5061018e600480360381019061018991906110b2565b6108c7565b005b34801561019c57600080fd5b506101a5610b16565b6040516101b2919061129b565b60405180910390f35b3480156101c757600080fd5b506101d0610b27565b6040516101dd919061129b565b60405180910390f35b3480156101f257600080fd5b5061020d60048036038101906102089190611072565b610b3a565b005b34801561021b57600080fd5b5061023660048036038101906102319190611032565b610e68565b005b33600060039054906101000a900473ffffffffffffffffffffffffffffffffffffffff1673ffffffffffffffffffffffffffffffffffffffff168173ffffffffffffffffffffffffffffffffffffffff16146102c9576040517f08c379a00000000000000000000000000000000000000000000000000000000081526004016102c090611356565b60405180910390fd5b838360011515600160008473ffffffffffffffffffffffffffffffffffffffff1673ffffffffffffffffffffffffffffffffffffffff16815260200190815260200160002060008373ffffffffffffffffffffffffffffffffffffffff1673ffffffffffffffffffffffffffffffffffffffff16815260200190815260200160002060020160009054906101000a900460ff1615151461039e576040517f08c379a000000000000000000000000000000000000000000000000000000000815260040161039590611316565b60405180910390fd5b600260008773ffffffffffffffffffffffffffffffffffffffff1673ffffffffffffffffffffffffffffffffffffffff168152602001908152602001600020859080600181540180825580915050600190039060005260206000200160009091909190916101000a81548173ffffffffffffffffffffffffffffffffffffffff021916908373ffffffffffffffffffffffffffffffffffffffff16021790555060018060008873ffffffffffffffffffffffffffffffffffffffff1673ffffffffffffffffffffffffffffffffffffffff16815260200190815260200160002060008773ffffffffffffffffffffffffffffffffffffffff1673ffffffffffffffffffffffffffffffffffffffff16815260200190815260200160002060020160006101000a81548160ff02191690831515021790555083600160008873ffffffffffffffffffffffffffffffffffffffff1673ffffffffffffffffffffffffffffffffffffffff16815260200190815260200160002060008773ffffffffffffffffffffffffffffffffffffffff1673ffffffffffffffffffffffffffffffffffffffff168152602001908152602001600020600101819055506000600160008873ffffffffffffffffffffffffffffffffffffffff1673ffffffffffffffffffffffffffffffffffffffff16815260200190815260200160002060008773ffffffffffffffffffffffffffffffffffffffff1673ffffffffffffffffffffffffffffffffffffffff16815260200190815260200160002060000181905550505050505050565b600060019054906101000a900460ff1681565b34600360008373ffffffffffffffffffffffffffffffffffffffff1673ffffffffffffffffffffffffffffffffffffffff16815260200190815260200160002060008282546106489190611387565b925050819055506000600260008373ffffffffffffffffffffffffffffffffffffffff1673ffffffffffffffffffffffffffffffffffffffff16815260200190815260200160002080548060200260200160405190810160405280929190818152602001828054801561071057602002820191906000526020600020905b8160009054906101000a900473ffffffffffffffffffffffffffffffffffffffff1673ffffffffffffffffffffffffffffffffffffffff16815260200190600101908083116106c6575b5050505050905060005b815181101561089c576000600160008573ffffffffffffffffffffffffffffffffffffffff1673ffffffffffffffffffffffffffffffffffffffff168152602001908152602001600020600084848151811061077957610778611569565b5b602002602001015173ffffffffffffffffffffffffffffffffffffffff1673ffffffffffffffffffffffffffffffffffffffff1681526020019081526020016000206001015490506064816107ce91906113dd565b346107d9919061140e565b600160008673ffffffffffffffffffffffffffffffffffffffff1673ffffffffffffffffffffffffffffffffffffffff168152602001908152602001600020600085858151811061082d5761082c611569565b5b602002602001015173ffffffffffffffffffffffffffffffffffffffff1673ffffffffffffffffffffffffffffffffffffffff16815260200190815260200160002060000160008282546108819190611387565b92505081905550508080610894906114c2565b91505061071a565b505050565b600060039054906101000a900473ffffffffffffffffffffffffffffffffffffffff1681565b8173ffffffffffffffffffffffffffffffffffffffff163373ffffffffffffffffffffffffffffffffffffffff1614610935576040517f08c379a000000000000000000000000000000000000000000000000000000000815260040161092c906112d6565b60405180910390fd5b60011515600160008573ffffffffffffffffffffffffffffffffffffffff1673ffffffffffffffffffffffffffffffffffffffff16815260200190815260200160002060008473ffffffffffffffffffffffffffffffffffffffff1673ffffffffffffffffffffffffffffffffffffffff16815260200190815260200160002060020160009054906101000a900460ff16151514610a08576040517f08c379a00000000000000000000000000000000000000000000000000000000081526004016109ff90611316565b60405180910390fd5b80600160008573ffffffffffffffffffffffffffffffffffffffff1673ffffffffffffffffffffffffffffffffffffffff16815260200190815260200160002060008473ffffffffffffffffffffffffffffffffffffffff1673ffffffffffffffffffffffffffffffffffffffff168152602001908152602001600020600001541115610aca576040517f08c379a0000000000000000000000000000000000000000000000000000000008152600401610ac1906112f6565b60405180910390fd5b8173ffffffffffffffffffffffffffffffffffffffff166108fc829081150290604051600060405180830381858888f19350505050158015610b10573d6000803e3d6000fd5b50505050565b60008054906101000a900460ff1681565b600060029054906101000a900460ff1681565b33600060039054906101000a900473ffffffffffffffffffffffffffffffffffffffff1673ffffffffffffffffffffffffffffffffffffffff168173ffffffffffffffffffffffffffffffffffffffff1614610bcb576040517f08c379a0000000000000000000000000000000000000000000000000000000008152600401610bc290611356565b60405180910390fd5b828260011515600160008473ffffffffffffffffffffffffffffffffffffffff1673ffffffffffffffffffffffffffffffffffffffff16815260200190815260200160002060008373ffffffffffffffffffffffffffffffffffffffff1673ffffffffffffffffffffffffffffffffffffffff16815260200190815260200160002060020160009054906101000a900460ff16151514610ca0576040517f08c379a0000000000000000000000000000000000000000000000000000000008152600401610c9790611316565b60405180910390fd5b60011515600160008773ffffffffffffffffffffffffffffffffffffffff1673ffffffffffffffffffffffffffffffffffffffff16815260200190815260200160002060008673ffffffffffffffffffffffffffffffffffffffff1673ffffffffffffffffffffffffffffffffffffffff16815260200190815260200160002060020160009054906101000a900460ff16151514610d73576040517f08c379a0000000000000000000000000000000000000000000000000000000008152600401610d6a906112b6565b60405180910390fd5b600260008673ffffffffffffffffffffffffffffffffffffffff1673ffffffffffffffffffffffffffffffffffffffff1681526020019081526020016000206000610dbe9190610f88565b600160008673ffffffffffffffffffffffffffffffffffffffff1673ffffffffffffffffffffffffffffffffffffffff16815260200190815260200160002060008573ffffffffffffffffffffffffffffffffffffffff1673ffffffffffffffffffffffffffffffffffffffff16815260200190815260200160002060008082016000905560018201600090556002820160006101000a81549060ff021916905550505050505050565b33600060039054906101000a900473ffffffffffffffffffffffffffffffffffffffff1673ffffffffffffffffffffffffffffffffffffffff168173ffffffffffffffffffffffffffffffffffffffff1614610ef9576040517f08c379a0000000000000000000000000000000000000000000000000000000008152600401610ef090611356565b60405180910390fd5b47821115610f3c576040517f08c379a0000000000000000000000000000000000000000000000000000000008152600401610f3390611336565b60405180910390fd5b8273ffffffffffffffffffffffffffffffffffffffff166108fc839081150290604051600060405180830381858888f19350505050158015610f82573d6000803e3d6000fd5b50505050565b5080546000825590600052602060002090810190610fa69190610fa9565b50565b5b80821115610fc2576000816000905550600101610faa565b5090565b600081359050610fd581611693565b92915050565b600081359050610fea816116aa565b92915050565b600081359050610fff816116c1565b92915050565b60006020828403121561101b5761101a611598565b5b600061102984828501610fc6565b91505092915050565b6000806040838503121561104957611048611598565b5b600061105785828601610fdb565b925050602061106885828601610ff0565b9150509250929050565b6000806040838503121561108957611088611598565b5b600061109785828601610fc6565b92505060206110a885828601610fc6565b9150509250929050565b6000806000606084860312156110cb576110ca611598565b5b60006110d986828701610fc6565b93505060206110ea86828701610fdb565b92505060406110fb86828701610ff0565b9150509250925092565b60008060006060848603121561111e5761111d611598565b5b600061112c86828701610fc6565b935050602061113d86828701610fc6565b925050604061114e86828701610ff0565b9150509250925092565b61116181611468565b82525050565b6111708161148c565b82525050565b6000611183601683611376565b915061118e8261159d565b602082019050919050565b60006111a6600f83611376565b91506111b1826115c6565b602082019050919050565b60006111c9601283611376565b91506111d4826115ef565b602082019050919050565b60006111ec601583611376565b91506111f782611618565b602082019050919050565b600061120f600f83611376565b915061121a82611641565b602082019050919050565b6000611232601183611376565b915061123d8261166a565b602082019050919050565b611251816114b8565b82525050565b600060208201905061126c6000830184611158565b92915050565b60006040820190506112876000830185611158565b6112946020830184611248565b9392505050565b60006020820190506112b06000830184611167565b92915050565b600060208201905081810360008301526112cf81611176565b9050919050565b600060208201905081810360008301526112ef81611199565b9050919050565b6000602082019050818103600083015261130f816111bc565b9050919050565b6000602082019050818103600083015261132f816111df565b9050919050565b6000602082019050818103600083015261134f81611202565b9050919050565b6000602082019050818103600083015261136f81611225565b9050919050565b600082825260208201905092915050565b6000611392826114b8565b915061139d836114b8565b9250827fffffffffffffffffffffffffffffffffffffffffffffffffffffffffffffffff038211156113d2576113d161150b565b5b828201905092915050565b60006113e8826114b8565b91506113f3836114b8565b9250826114035761140261153a565b5b828204905092915050565b6000611419826114b8565b9150611424836114b8565b9250817fffffffffffffffffffffffffffffffffffffffffffffffffffffffffffffffff048311821515161561145d5761145c61150b565b5b828202905092915050565b600061147382611498565b9050919050565b600061148582611498565b9050919050565b60008115159050919050565b600073ffffffffffffffffffffffffffffffffffffffff82169050919050565b6000819050919050565b60006114cd826114b8565b91507fffffffffffffffffffffffffffffffffffffffffffffffffffffffffffffffff821415611500576114ff61150b565b5b600182019050919050565b7f4e487b7100000000000000000000000000000000000000000000000000000000600052601160045260246000fd5b7f4e487b7100000000000000000000000000000000000000000000000000000000600052601260045260246000fd5b7f4e487b7100000000000000000000000000000000000000000000000000000000600052603260045260246000fd5b600080fd5b7f4e6f742065786973747320776974686472617765722100000000000000000000600082015250565b7f4e6f742077697468647261776572210000000000000000000000000000000000600082015250565b7f4e6f7420656e6f75676820616d6f756e74210000000000000000000000000000600082015250565b7f4e6f742065786973742077697468647261776572210000000000000000000000600082015250565b7f546f6f206d7563682061736b6564210000000000000000000000000000000000600082015250565b7f4e6f742061206f776e65722063616c6c21000000000000000000000000000000600082015250565b61169c81611468565b81146116a757600080fd5b50565b6116b38161147a565b81146116be57600080fd5b50565b6116ca816114b8565b81146116d557600080fd5b5056fea2646970667358221220275e9ec1a33da932ab3ebac31cd665ef283a2c5b48b4c63ed3bcf87c1e3cad4d64736f6c63430008070033",
  "immutableReferences": {},
  "source": "// SPDX-License-Identifier: MIT\r\npragma solidity ^0.8.2;\r\n\r\nstruct withdrawers {\r\n    uint256 payableAmount;\r\n    uint256 percantage;\r\n    bool isExist;\r\n}\r\n\r\ncontract Payment {\r\n    bool public concept_withdraw;\r\n    bool public trainers_withdraw;\r\n    bool public itemPresale_withdraw;\r\n\r\n    address public owner;\r\n\r\n    /*\r\n    allPhaseTypes = [1, 2, 3, 4, 5];\r\n\r\n        1: Item Presale\r\n        2: Metamon Mint\r\n        3: Item Metamon Secondary Sales\r\n        4: Trainers\r\n        5: Concept Art\r\n    */\r\n\r\n    mapping(address => mapping(address => withdrawers)) private phaseTypes;\r\n    mapping(address => address[]) private phaseOwners;\r\n    mapping(address => uint256) private lockedAmountPerPhase;\r\n\r\n    event ReceivedEth(address sender, uint256 value);\r\n    event ConceptWithdrawn(address receiver, uint256 value);\r\n    event TrainersWithdrawn(address receiver, uint256 value);\r\n    event ItemPresaleWithdrawn(address receiver, uint256 value);\r\n\r\n    constructor() payable {\r\n        owner = msg.sender;\r\n    }\r\n\r\n    ///////////////////////////////////////////////////////////////////////////\r\n    // Contract ETH Deals\r\n    ///////////////////////////////////////////////////////////////////////////\r\n    fallback() external payable {}\r\n\r\n    receive() external payable {\r\n        emit ReceivedEth(msg.sender, msg.value);\r\n    }\r\n\r\n    function receiveAmountDistribute(address phaseType) public payable {\r\n        // TODO: check if phase exist\r\n        lockedAmountPerPhase[phaseType] += msg.value;\r\n\r\n        address[] memory _phaseOwners = phaseOwners[phaseType];\r\n        for (uint256 i = 0; i < _phaseOwners.length; i++) {\r\n            uint256 _percantage = phaseTypes[phaseType][_phaseOwners[i]]\r\n                .percantage;\r\n            phaseTypes[phaseType][_phaseOwners[i]].payableAmount +=\r\n                msg.value *\r\n                (_percantage / 100);\r\n        }\r\n    }\r\n\r\n    ///////////////////////////////////////////////////////////////////////////\r\n    // Modifiers\r\n    ///////////////////////////////////////////////////////////////////////////\r\n    modifier onlyOwner(address sender) {\r\n        require(sender == owner, \"Not a owner call!\");\r\n        _;\r\n    }\r\n\r\n    modifier withdrawerCheck(address phaseType, address withdrawer) {\r\n        require(\r\n            phaseTypes[phaseType][withdrawer].isExist == true,\r\n            \"Not exist withdrawer!\"\r\n        );\r\n        _;\r\n    }\r\n\r\n    function addWithdrawer(\r\n        address phaseType,\r\n        address withdrawer,\r\n        uint256 percantage\r\n    ) public onlyOwner(msg.sender) withdrawerCheck(phaseType, withdrawer) {\r\n        /*Adding withdrawer addresses into specific phase types with percantage\r\n\r\n        Args: \r\n            phaseType (address): specifies phase type\r\n            withdrawer (address): specifies address of withdrawer\r\n            percantage (uint256): specifies the percantage quantity n/100\r\n\r\n        Returns:\r\n            bool: if success true else false\r\n        */\r\n        phaseOwners[phaseType].push(withdrawer);\r\n\r\n        phaseTypes[phaseType][withdrawer].isExist = true;\r\n        phaseTypes[phaseType][withdrawer].percantage = percantage;\r\n        phaseTypes[phaseType][withdrawer].payableAmount = 0;\r\n    }\r\n\r\n    function removeWithdrawer(address phaseType, address withdrawer)\r\n        public\r\n        onlyOwner(msg.sender)\r\n        withdrawerCheck(phaseType, withdrawer)\r\n    {\r\n        require(\r\n            phaseTypes[phaseType][withdrawer].isExist == true,\r\n            \"Not exists withdrawer!\"\r\n        );\r\n        delete phaseOwners[phaseType];\r\n        delete phaseTypes[phaseType][withdrawer];\r\n    }\r\n\r\n    function Withdraw(\r\n        address phaseType,\r\n        address payable withdrawer,\r\n        uint256 amount\r\n    ) public {\r\n        require(msg.sender == withdrawer, \"Not withdrawer!\"); // validate user itself\r\n\r\n        require(\r\n            phaseTypes[phaseType][withdrawer].isExist == true,\r\n            \"Not exist withdrawer!\"\r\n        ); // validate user\r\n\r\n        require(\r\n            phaseTypes[phaseType][withdrawer].payableAmount <= amount,\r\n            \"Not enough amount!\"\r\n        ); // validate amount\r\n\r\n        withdrawer.transfer(amount);\r\n    }\r\n\r\n    function ownerWithdraw(address payable receiver, uint256 amount)\r\n        public\r\n        onlyOwner(msg.sender)\r\n    {\r\n        require(amount <= address(this).balance, \"Too much asked!\");\r\n        receiver.transfer(amount);\r\n    }\r\n}\r\n",
  "sourcePath": "W:\\NFTS\\Metamon\\metamon_contracts\\contracts\\Payment.sol",
  "compiler": {
    "name": "solc",
    "version": "0.8.7+commit.e28d00a7.Emscripten.clang"
  },
  "schemaVersion": "3.4.6",
  "updatedAt": "2022-03-27T17:39:37.419Z",
  "devdoc": {
    "kind": "dev",
    "methods": {},
    "version": 1
  },
  "userdoc": {
    "kind": "user",
    "methods": {},
    "version": 1
  }
}