{
  "contractName": "Payment",
  "abi": [
    {
      "inputs": [],
      "stateMutability": "payable",
      "type": "constructor",
      "payable": true
    },
    {
      "anonymous": false,
      "inputs": [
        {
          "indexed": true,
          "internalType": "address",
          "name": "owner",
          "type": "address"
        },
        {
          "indexed": true,
          "internalType": "address",
          "name": "approved",
          "type": "address"
        },
        {
          "indexed": true,
          "internalType": "uint256",
          "name": "tokenId",
          "type": "uint256"
        }
      ],
      "name": "Approval",
      "type": "event"
    },
    {
      "anonymous": false,
      "inputs": [
        {
          "indexed": true,
          "internalType": "address",
          "name": "owner",
          "type": "address"
        },
        {
          "indexed": true,
          "internalType": "address",
          "name": "operator",
          "type": "address"
        },
        {
          "indexed": false,
          "internalType": "bool",
          "name": "approved",
          "type": "bool"
        }
      ],
      "name": "ApprovalForAll",
      "type": "event"
    },
    {
      "anonymous": false,
      "inputs": [
        {
          "indexed": false,
          "internalType": "address",
          "name": "receiver",
          "type": "address"
        },
        {
          "indexed": false,
          "internalType": "uint256",
          "name": "value",
          "type": "uint256"
        }
      ],
      "name": "ConceptWithdrawn",
      "type": "event"
    },
    {
      "anonymous": false,
      "inputs": [
        {
          "indexed": false,
          "internalType": "address",
          "name": "receiver",
          "type": "address"
        },
        {
          "indexed": false,
          "internalType": "uint256",
          "name": "value",
          "type": "uint256"
        }
      ],
      "name": "ItemPresaleWithdrawn",
      "type": "event"
    },
    {
      "anonymous": false,
      "inputs": [
        {
          "indexed": false,
          "internalType": "address",
          "name": "sender",
          "type": "address"
        },
        {
          "indexed": false,
          "internalType": "uint256",
          "name": "value",
          "type": "uint256"
        }
      ],
      "name": "ReceivedEth",
      "type": "event"
    },
    {
      "anonymous": false,
      "inputs": [
        {
          "indexed": false,
          "internalType": "address",
          "name": "receiver",
          "type": "address"
        },
        {
          "indexed": false,
          "internalType": "uint256",
          "name": "value",
          "type": "uint256"
        }
      ],
      "name": "TrainersWithdrawn",
      "type": "event"
    },
    {
      "anonymous": false,
      "inputs": [
        {
          "indexed": true,
          "internalType": "address",
          "name": "from",
          "type": "address"
        },
        {
          "indexed": true,
          "internalType": "address",
          "name": "to",
          "type": "address"
        },
        {
          "indexed": true,
          "internalType": "uint256",
          "name": "tokenId",
          "type": "uint256"
        }
      ],
      "name": "Transfer",
      "type": "event"
    },
    {
      "stateMutability": "payable",
      "type": "fallback",
      "payable": true
    },
    {
      "inputs": [
        {
          "internalType": "address",
          "name": "to",
          "type": "address"
        },
        {
          "internalType": "uint256",
          "name": "tokenId",
          "type": "uint256"
        }
      ],
      "name": "approve",
      "outputs": [],
      "stateMutability": "nonpayable",
      "type": "function"
    },
    {
      "inputs": [
        {
          "internalType": "address",
          "name": "owner",
          "type": "address"
        }
      ],
      "name": "balanceOf",
      "outputs": [
        {
          "internalType": "uint256",
          "name": "",
          "type": "uint256"
        }
      ],
      "stateMutability": "view",
      "type": "function",
      "constant": true
    },
    {
      "inputs": [],
      "name": "concept_withdraw",
      "outputs": [
        {
          "internalType": "bool",
          "name": "",
          "type": "bool"
        }
      ],
      "stateMutability": "view",
      "type": "function",
      "constant": true
    },
    {
      "inputs": [
        {
          "internalType": "uint256",
          "name": "tokenId",
          "type": "uint256"
        }
      ],
      "name": "getApproved",
      "outputs": [
        {
          "internalType": "address",
          "name": "",
          "type": "address"
        }
      ],
      "stateMutability": "view",
      "type": "function",
      "constant": true
    },
    {
      "inputs": [
        {
          "internalType": "address",
          "name": "owner",
          "type": "address"
        },
        {
          "internalType": "address",
          "name": "operator",
          "type": "address"
        }
      ],
      "name": "isApprovedForAll",
      "outputs": [
        {
          "internalType": "bool",
          "name": "",
          "type": "bool"
        }
      ],
      "stateMutability": "view",
      "type": "function",
      "constant": true
    },
    {
      "inputs": [],
      "name": "itemPresale_withdraw",
      "outputs": [
        {
          "internalType": "bool",
          "name": "",
          "type": "bool"
        }
      ],
      "stateMutability": "view",
      "type": "function",
      "constant": true
    },
    {
      "inputs": [],
      "name": "name",
      "outputs": [
        {
          "internalType": "string",
          "name": "",
          "type": "string"
        }
      ],
      "stateMutability": "view",
      "type": "function",
      "constant": true
    },
    {
      "inputs": [],
      "name": "owner",
      "outputs": [
        {
          "internalType": "address",
          "name": "",
          "type": "address"
        }
      ],
      "stateMutability": "view",
      "type": "function",
      "constant": true
    },
    {
      "inputs": [
        {
          "internalType": "uint256",
          "name": "tokenId",
          "type": "uint256"
        }
      ],
      "name": "ownerOf",
      "outputs": [
        {
          "internalType": "address",
          "name": "",
          "type": "address"
        }
      ],
      "stateMutability": "view",
      "type": "function",
      "constant": true
    },
    {
      "inputs": [
        {
          "internalType": "address",
          "name": "",
          "type": "address"
        },
        {
          "internalType": "uint256",
          "name": "",
          "type": "uint256"
        }
      ],
      "name": "phaseOwners",
      "outputs": [
        {
          "internalType": "address",
          "name": "",
          "type": "address"
        }
      ],
      "stateMutability": "view",
      "type": "function",
      "constant": true
    },
    {
      "inputs": [
        {
          "internalType": "address",
          "name": "",
          "type": "address"
        },
        {
          "internalType": "address",
          "name": "",
          "type": "address"
        }
      ],
      "name": "phaseTypes",
      "outputs": [
        {
          "internalType": "uint256",
          "name": "payableAmount",
          "type": "uint256"
        },
        {
          "internalType": "uint256",
          "name": "percantage",
          "type": "uint256"
        },
        {
          "internalType": "bool",
          "name": "isExist",
          "type": "bool"
        }
      ],
      "stateMutability": "view",
      "type": "function",
      "constant": true
    },
    {
      "inputs": [
        {
          "internalType": "address",
          "name": "from",
          "type": "address"
        },
        {
          "internalType": "address",
          "name": "to",
          "type": "address"
        },
        {
          "internalType": "uint256",
          "name": "tokenId",
          "type": "uint256"
        }
      ],
      "name": "safeTransferFrom",
      "outputs": [],
      "stateMutability": "nonpayable",
      "type": "function"
    },
    {
      "inputs": [
        {
          "internalType": "address",
          "name": "from",
          "type": "address"
        },
        {
          "internalType": "address",
          "name": "to",
          "type": "address"
        },
        {
          "internalType": "uint256",
          "name": "tokenId",
          "type": "uint256"
        },
        {
          "internalType": "bytes",
          "name": "_data",
          "type": "bytes"
        }
      ],
      "name": "safeTransferFrom",
      "outputs": [],
      "stateMutability": "nonpayable",
      "type": "function"
    },
    {
      "inputs": [
        {
          "internalType": "address",
          "name": "operator",
          "type": "address"
        },
        {
          "internalType": "bool",
          "name": "approved",
          "type": "bool"
        }
      ],
      "name": "setApprovalForAll",
      "outputs": [],
      "stateMutability": "nonpayable",
      "type": "function"
    },
    {
      "inputs": [
        {
          "internalType": "bytes4",
          "name": "interfaceId",
          "type": "bytes4"
        }
      ],
      "name": "supportsInterface",
      "outputs": [
        {
          "internalType": "bool",
          "name": "",
          "type": "bool"
        }
      ],
      "stateMutability": "view",
      "type": "function",
      "constant": true
    },
    {
      "inputs": [],
      "name": "symbol",
      "outputs": [
        {
          "internalType": "string",
          "name": "",
          "type": "string"
        }
      ],
      "stateMutability": "view",
      "type": "function",
      "constant": true
    },
    {
      "inputs": [
        {
          "internalType": "uint256",
          "name": "tokenId",
          "type": "uint256"
        }
      ],
      "name": "tokenURI",
      "outputs": [
        {
          "internalType": "string",
          "name": "",
          "type": "string"
        }
      ],
      "stateMutability": "view",
      "type": "function",
      "constant": true
    },
    {
      "inputs": [],
      "name": "trainers_withdraw",
      "outputs": [
        {
          "internalType": "bool",
          "name": "",
          "type": "bool"
        }
      ],
      "stateMutability": "view",
      "type": "function",
      "constant": true
    },
    {
      "inputs": [
        {
          "internalType": "address",
          "name": "from",
          "type": "address"
        },
        {
          "internalType": "address",
          "name": "to",
          "type": "address"
        },
        {
          "internalType": "uint256",
          "name": "tokenId",
          "type": "uint256"
        }
      ],
      "name": "transferFrom",
      "outputs": [],
      "stateMutability": "nonpayable",
      "type": "function"
    },
    {
      "stateMutability": "payable",
      "type": "receive",
      "payable": true
    },
    {
      "inputs": [
        {
          "internalType": "address",
          "name": "phaseType",
          "type": "address"
        }
      ],
      "name": "receiveAmountDistribute",
      "outputs": [],
      "stateMutability": "payable",
      "type": "function",
      "payable": true
    },
    {
      "inputs": [
        {
          "internalType": "address",
          "name": "phaseType",
          "type": "address"
        },
        {
          "internalType": "address",
          "name": "withdrawer",
          "type": "address"
        },
        {
          "internalType": "uint256",
          "name": "percantage",
          "type": "uint256"
        }
      ],
      "name": "addWithdrawer",
      "outputs": [],
      "stateMutability": "nonpayable",
      "type": "function"
    },
    {
      "inputs": [
        {
          "internalType": "address",
          "name": "phaseType",
          "type": "address"
        },
        {
          "internalType": "address",
          "name": "withdrawer",
          "type": "address"
        }
      ],
      "name": "removeWithdrawer",
      "outputs": [],
      "stateMutability": "nonpayable",
      "type": "function"
    },
    {
      "inputs": [
        {
          "internalType": "address",
          "name": "phaseType",
          "type": "address"
        },
        {
          "internalType": "address payable",
          "name": "withdrawer",
          "type": "address"
        },
        {
          "internalType": "uint256",
          "name": "amount",
          "type": "uint256"
        }
      ],
      "name": "Withdraw",
      "outputs": [],
      "stateMutability": "nonpayable",
      "type": "function"
    },
    {
      "inputs": [
        {
          "internalType": "address",
          "name": "phaseType",
          "type": "address"
        }
      ],
      "name": "checkAmounts",
      "outputs": [
        {
          "internalType": "uint256",
          "name": "",
          "type": "uint256"
        }
      ],
      "stateMutability": "view",
      "type": "function",
      "constant": true
    },
    {
      "inputs": [
        {
          "internalType": "address payable",
          "name": "receiver",
          "type": "address"
        },
        {
          "internalType": "uint256",
          "name": "amount",
          "type": "uint256"
        }
      ],
      "name": "ownerWithdraw",
      "outputs": [],
      "stateMutability": "nonpayable",
      "type": "function"
    }
  ],
  "bytecode": "0x60806040526040518060400160405280600c81526020017f4e4654205061796d656e747300000000000000000000000000000000000000008152506040518060400160405280600781526020017f5061796d656e7400000000000000000000000000000000000000000000000000815250816000908051906020019062000088929190620000eb565b508060019080519060200190620000a1929190620000eb565b50505033600660036101000a81548173ffffffffffffffffffffffffffffffffffffffff021916908373ffffffffffffffffffffffffffffffffffffffff16021790555062000200565b828054620000f9906200019b565b90600052602060002090601f0160209004810192826200011d576000855562000169565b82601f106200013857805160ff191683800117855562000169565b8280016001018555821562000169579182015b82811115620001685782518255916020019190600101906200014b565b5b5090506200017891906200017c565b5090565b5b80821115620001975760008160009055506001016200017d565b5090565b60006002820490506001821680620001b457607f821691505b60208210811415620001cb57620001ca620001d1565b5b50919050565b7f4e487b7100000000000000000000000000000000000000000000000000000000600052602260045260246000fd5b61391a80620002106000396000f3fe60806040526004361061016a5760003560e01c806395d89b41116100d1578063c314a66f1161008a578063cb3a760911610064578063cb3a760914610594578063d9c88e14146105bd578063e985e9c5146105e6578063f60a20cd14610623576101aa565b8063c314a66f146104ef578063c87b56dd1461052c578063cacdb3d614610569576101aa565b806395d89b41146103e15780639b1bfa7f1461040c578063a22cb46514610435578063b2c2ade41461045e578063b88d4fde14610489578063c1ec9fc3146104b2576101aa565b806342842e0e1161012357806342842e0e146102cc578063469feb7e146102f55780636352211e1461032057806370a082311461035d57806386b5c8601461039a5780638da5cb5b146103b6576101aa565b806301ffc9a7146101ac57806306904cc9146101e957806306fdde0314610212578063081812fc1461023d578063095ea7b31461027a57806323b872dd146102a3576101aa565b366101aa577f52a6cdf67c40ce333b3d846e4e143db87f71dd7935612a4cafcf6ba76047ca1f33346040516101a0929190612cd5565b60405180910390a1005b005b3480156101b857600080fd5b506101d360048036038101906101ce9190612889565b610662565b6040516101e09190612cfe565b60405180910390f35b3480156101f557600080fd5b50610210600480360381019061020b9190612747565b610744565b005b34801561021e57600080fd5b50610227610a1c565b6040516102349190612d19565b60405180910390f35b34801561024957600080fd5b50610264600480360381019061025f91906128db565b610aae565b6040516102719190612c6e565b60405180910390f35b34801561028657600080fd5b506102a1600480360381019061029c919061284d565b610b33565b005b3480156102af57600080fd5b506102ca60048036038101906102c59190612747565b610c4b565b005b3480156102d857600080fd5b506102f360048036038101906102ee9190612747565b610cab565b005b34801561030157600080fd5b5061030a610ccb565b6040516103179190612cfe565b60405180910390f35b34801561032c57600080fd5b50610347600480360381019061034291906128db565b610cde565b6040516103549190612c6e565b60405180910390f35b34801561036957600080fd5b50610384600480360381019061037f9190612657565b610d90565b6040516103919190612f7b565b60405180910390f35b6103b460048036038101906103af9190612657565b610e48565b005b3480156103c257600080fd5b506103cb61113c565b6040516103d89190612c6e565b60405180910390f35b3480156103ed57600080fd5b506103f6611162565b6040516104039190612d19565b60405180910390f35b34801561041857600080fd5b50610433600480360381019061042e91906126f8565b6111f4565b005b34801561044157600080fd5b5061045c60048036038101906104579190612811565b611443565b005b34801561046a57600080fd5b50610473611459565b6040516104809190612cfe565b60405180910390f35b34801561049557600080fd5b506104b060048036038101906104ab9190612796565b61146c565b005b3480156104be57600080fd5b506104d960048036038101906104d4919061284d565b6114ce565b6040516104e69190612c6e565b60405180910390f35b3480156104fb57600080fd5b5061051660048036038101906105119190612657565b61151c565b6040516105239190612f7b565b60405180910390f35b34801561053857600080fd5b50610553600480360381019061054e91906128db565b6115f7565b6040516105609190612d19565b60405180910390f35b34801561057557600080fd5b5061057e61169e565b60405161058b9190612cfe565b60405180910390f35b3480156105a057600080fd5b506105bb60048036038101906105b691906126bc565b6116b1565b005b3480156105c957600080fd5b506105e460048036038101906105df9190612680565b61190e565b005b3480156105f257600080fd5b5061060d600480360381019061060891906126bc565b611a2e565b60405161061a9190612cfe565b60405180910390f35b34801561062f57600080fd5b5061064a600480360381019061064591906126bc565b611ac2565b60405161065993929190612f96565b60405180910390f35b60007f80ac58cd000000000000000000000000000000000000000000000000000000007bffffffffffffffffffffffffffffffffffffffffffffffffffffffff1916827bffffffffffffffffffffffffffffffffffffffffffffffffffffffff1916148061072d57507f5b5e139f000000000000000000000000000000000000000000000000000000007bffffffffffffffffffffffffffffffffffffffffffffffffffffffff1916827bffffffffffffffffffffffffffffffffffffffffffffffffffffffff1916145b8061073d575061073c82611b06565b5b9050919050565b33600660039054906101000a900473ffffffffffffffffffffffffffffffffffffffff1673ffffffffffffffffffffffffffffffffffffffff168173ffffffffffffffffffffffffffffffffffffffff16146107d5576040517f08c379a00000000000000000000000000000000000000000000000000000000081526004016107cc90612f5b565b60405180910390fd5b600860008573ffffffffffffffffffffffffffffffffffffffff1673ffffffffffffffffffffffffffffffffffffffff168152602001908152602001600020839080600181540180825580915050600190039060005260206000200160009091909190916101000a81548173ffffffffffffffffffffffffffffffffffffffff021916908373ffffffffffffffffffffffffffffffffffffffff1602179055506001600760008673ffffffffffffffffffffffffffffffffffffffff1673ffffffffffffffffffffffffffffffffffffffff16815260200190815260200160002060008573ffffffffffffffffffffffffffffffffffffffff1673ffffffffffffffffffffffffffffffffffffffff16815260200190815260200160002060020160006101000a81548160ff02191690831515021790555081600760008673ffffffffffffffffffffffffffffffffffffffff1673ffffffffffffffffffffffffffffffffffffffff16815260200190815260200160002060008573ffffffffffffffffffffffffffffffffffffffff1673ffffffffffffffffffffffffffffffffffffffff168152602001908152602001600020600101819055506000600760008673ffffffffffffffffffffffffffffffffffffffff1673ffffffffffffffffffffffffffffffffffffffff16815260200190815260200160002060008573ffffffffffffffffffffffffffffffffffffffff1673ffffffffffffffffffffffffffffffffffffffff1681526020019081526020016000206000018190555050505050565b606060008054610a2b90613243565b80601f0160208091040260200160405190810160405280929190818152602001828054610a5790613243565b8015610aa45780601f10610a7957610100808354040283529160200191610aa4565b820191906000526020600020905b815481529060010190602001808311610a8757829003601f168201915b5050505050905090565b6000610ab982611b70565b610af8576040517f08c379a0000000000000000000000000000000000000000000000000000000008152600401610aef90612e7b565b60405180910390fd5b6004600083815260200190815260200160002060009054906101000a900473ffffffffffffffffffffffffffffffffffffffff169050919050565b6000610b3e82610cde565b90508073ffffffffffffffffffffffffffffffffffffffff168373ffffffffffffffffffffffffffffffffffffffff161415610baf576040517f08c379a0000000000000000000000000000000000000000000000000000000008152600401610ba690612edb565b60405180910390fd5b8073ffffffffffffffffffffffffffffffffffffffff16610bce611bdc565b73ffffffffffffffffffffffffffffffffffffffff161480610bfd5750610bfc81610bf7611bdc565b611a2e565b5b610c3c576040517f08c379a0000000000000000000000000000000000000000000000000000000008152600401610c3390612e1b565b60405180910390fd5b610c468383611be4565b505050565b610c5c610c56611bdc565b82611c9d565b610c9b576040517f08c379a0000000000000000000000000000000000000000000000000000000008152600401610c9290612efb565b60405180910390fd5b610ca6838383611d7b565b505050565b610cc68383836040518060200160405280600081525061146c565b505050565b600660019054906101000a900460ff1681565b6000806002600084815260200190815260200160002060009054906101000a900473ffffffffffffffffffffffffffffffffffffffff169050600073ffffffffffffffffffffffffffffffffffffffff168173ffffffffffffffffffffffffffffffffffffffff161415610d87576040517f08c379a0000000000000000000000000000000000000000000000000000000008152600401610d7e90612e5b565b60405180910390fd5b80915050919050565b60008073ffffffffffffffffffffffffffffffffffffffff168273ffffffffffffffffffffffffffffffffffffffff161415610e01576040517f08c379a0000000000000000000000000000000000000000000000000000000008152600401610df890612e3b565b60405180910390fd5b600360008373ffffffffffffffffffffffffffffffffffffffff1673ffffffffffffffffffffffffffffffffffffffff168152602001908152602001600020549050919050565b34600960008373ffffffffffffffffffffffffffffffffffffffff1673ffffffffffffffffffffffffffffffffffffffff1681526020019081526020016000206000828254610e979190613066565b925050819055506000600860008373ffffffffffffffffffffffffffffffffffffffff1673ffffffffffffffffffffffffffffffffffffffff168152602001908152602001600020805480602002602001604051908101604052809291908181526020018280548015610f5f57602002820191906000526020600020905b8160009054906101000a900473ffffffffffffffffffffffffffffffffffffffff1673ffffffffffffffffffffffffffffffffffffffff1681526020019060010190808311610f15575b5050505050905060005b8151811015611137576000600760008573ffffffffffffffffffffffffffffffffffffffff1673ffffffffffffffffffffffffffffffffffffffff1681526020019081526020016000206000848481518110610fee577f4e487b7100000000000000000000000000000000000000000000000000000000600052603260045260246000fd5b602002602001015173ffffffffffffffffffffffffffffffffffffffff1673ffffffffffffffffffffffffffffffffffffffff1681526020019081526020016000206001015490506064813461104491906130ed565b61104e91906130bc565b600760008673ffffffffffffffffffffffffffffffffffffffff1673ffffffffffffffffffffffffffffffffffffffff16815260200190815260200160002060008585815181106110c8577f4e487b7100000000000000000000000000000000000000000000000000000000600052603260045260246000fd5b602002602001015173ffffffffffffffffffffffffffffffffffffffff1673ffffffffffffffffffffffffffffffffffffffff168152602001908152602001600020600001600082825461111c9190613066565b9250508190555050808061112f906132a6565b915050610f69565b505050565b600660039054906101000a900473ffffffffffffffffffffffffffffffffffffffff1681565b60606001805461117190613243565b80601f016020809104026020016040519081016040528092919081815260200182805461119d90613243565b80156111ea5780601f106111bf576101008083540402835291602001916111ea565b820191906000526020600020905b8154815290600101906020018083116111cd57829003601f168201915b5050505050905090565b8173ffffffffffffffffffffffffffffffffffffffff163373ffffffffffffffffffffffffffffffffffffffff1614611262576040517f08c379a000000000000000000000000000000000000000000000000000000000815260040161125990612d3b565b60405180910390fd5b60011515600760008573ffffffffffffffffffffffffffffffffffffffff1673ffffffffffffffffffffffffffffffffffffffff16815260200190815260200160002060008473ffffffffffffffffffffffffffffffffffffffff1673ffffffffffffffffffffffffffffffffffffffff16815260200190815260200160002060020160009054906101000a900460ff16151514611335576040517f08c379a000000000000000000000000000000000000000000000000000000000815260040161132c90612e9b565b60405180910390fd5b80600760008573ffffffffffffffffffffffffffffffffffffffff1673ffffffffffffffffffffffffffffffffffffffff16815260200190815260200160002060008473ffffffffffffffffffffffffffffffffffffffff1673ffffffffffffffffffffffffffffffffffffffff1681526020019081526020016000206000015411156113f7576040517f08c379a00000000000000000000000000000000000000000000000000000000081526004016113ee90612dfb565b60405180910390fd5b8173ffffffffffffffffffffffffffffffffffffffff166108fc829081150290604051600060405180830381858888f1935050505015801561143d573d6000803e3d6000fd5b50505050565b61145561144e611bdc565b8383611fe2565b5050565b600660009054906101000a900460ff1681565b61147d611477611bdc565b83611c9d565b6114bc576040517f08c379a00000000000000000000000000000000000000000000000000000000081526004016114b390612efb565b60405180910390fd5b6114c88484848461214f565b50505050565b600860205281600052604060002081815481106114ea57600080fd5b906000526020600020016000915091509054906101000a900473ffffffffffffffffffffffffffffffffffffffff1681565b600033600660039054906101000a900473ffffffffffffffffffffffffffffffffffffffff1673ffffffffffffffffffffffffffffffffffffffff168173ffffffffffffffffffffffffffffffffffffffff16146115af576040517f08c379a00000000000000000000000000000000000000000000000000000000081526004016115a690612f5b565b60405180910390fd5b600960008473ffffffffffffffffffffffffffffffffffffffff1673ffffffffffffffffffffffffffffffffffffffff16815260200190815260200160002054915050919050565b606061160282611b70565b611641576040517f08c379a000000000000000000000000000000000000000000000000000000000815260040161163890612ebb565b60405180910390fd5b600061164b6121ab565b9050600081511161166b5760405180602001604052806000815250611696565b80611675846121c2565b604051602001611686929190612c4a565b6040516020818303038152906040525b915050919050565b600660029054906101000a900460ff1681565b33600660039054906101000a900473ffffffffffffffffffffffffffffffffffffffff1673ffffffffffffffffffffffffffffffffffffffff168173ffffffffffffffffffffffffffffffffffffffff1614611742576040517f08c379a000000000000000000000000000000000000000000000000000000000815260040161173990612f5b565b60405180910390fd5b82826001801515600760008573ffffffffffffffffffffffffffffffffffffffff1673ffffffffffffffffffffffffffffffffffffffff16815260200190815260200160002060008473ffffffffffffffffffffffffffffffffffffffff1673ffffffffffffffffffffffffffffffffffffffff16815260200190815260200160002060020160009054906101000a900460ff16151514611818576040517f08c379a000000000000000000000000000000000000000000000000000000000815260040161180f90612f1b565b60405180910390fd5b600860008773ffffffffffffffffffffffffffffffffffffffff1673ffffffffffffffffffffffffffffffffffffffff16815260200190815260200160002060006118639190612533565b600760008773ffffffffffffffffffffffffffffffffffffffff1673ffffffffffffffffffffffffffffffffffffffff16815260200190815260200160002060008673ffffffffffffffffffffffffffffffffffffffff1673ffffffffffffffffffffffffffffffffffffffff16815260200190815260200160002060008082016000905560018201600090556002820160006101000a81549060ff02191690555050505050505050565b33600660039054906101000a900473ffffffffffffffffffffffffffffffffffffffff1673ffffffffffffffffffffffffffffffffffffffff168173ffffffffffffffffffffffffffffffffffffffff161461199f576040517f08c379a000000000000000000000000000000000000000000000000000000000815260040161199690612f5b565b60405180910390fd5b478211156119e2576040517f08c379a00000000000000000000000000000000000000000000000000000000081526004016119d990612f3b565b60405180910390fd5b8273ffffffffffffffffffffffffffffffffffffffff166108fc839081150290604051600060405180830381858888f19350505050158015611a28573d6000803e3d6000fd5b50505050565b6000600560008473ffffffffffffffffffffffffffffffffffffffff1673ffffffffffffffffffffffffffffffffffffffff16815260200190815260200160002060008373ffffffffffffffffffffffffffffffffffffffff1673ffffffffffffffffffffffffffffffffffffffff16815260200190815260200160002060009054906101000a900460ff16905092915050565b6007602052816000526040600020602052806000526040600020600091509150508060000154908060010154908060020160009054906101000a900460ff16905083565b60007f01ffc9a7000000000000000000000000000000000000000000000000000000007bffffffffffffffffffffffffffffffffffffffffffffffffffffffff1916827bffffffffffffffffffffffffffffffffffffffffffffffffffffffff1916149050919050565b60008073ffffffffffffffffffffffffffffffffffffffff166002600084815260200190815260200160002060009054906101000a900473ffffffffffffffffffffffffffffffffffffffff1673ffffffffffffffffffffffffffffffffffffffff1614159050919050565b600033905090565b816004600083815260200190815260200160002060006101000a81548173ffffffffffffffffffffffffffffffffffffffff021916908373ffffffffffffffffffffffffffffffffffffffff160217905550808273ffffffffffffffffffffffffffffffffffffffff16611c5783610cde565b73ffffffffffffffffffffffffffffffffffffffff167f8c5be1e5ebec7d5bd14f71427d1e84f3dd0314c0f7b2291e5b200ac8c7c3b92560405160405180910390a45050565b6000611ca882611b70565b611ce7576040517f08c379a0000000000000000000000000000000000000000000000000000000008152600401611cde90612ddb565b60405180910390fd5b6000611cf283610cde565b90508073ffffffffffffffffffffffffffffffffffffffff168473ffffffffffffffffffffffffffffffffffffffff161480611d6157508373ffffffffffffffffffffffffffffffffffffffff16611d4984610aae565b73ffffffffffffffffffffffffffffffffffffffff16145b80611d725750611d718185611a2e565b5b91505092915050565b8273ffffffffffffffffffffffffffffffffffffffff16611d9b82610cde565b73ffffffffffffffffffffffffffffffffffffffff1614611df1576040517f08c379a0000000000000000000000000000000000000000000000000000000008152600401611de890612d7b565b60405180910390fd5b600073ffffffffffffffffffffffffffffffffffffffff168273ffffffffffffffffffffffffffffffffffffffff161415611e61576040517f08c379a0000000000000000000000000000000000000000000000000000000008152600401611e5890612d9b565b60405180910390fd5b611e6c83838361236f565b611e77600082611be4565b6001600360008573ffffffffffffffffffffffffffffffffffffffff1673ffffffffffffffffffffffffffffffffffffffff1681526020019081526020016000206000828254611ec79190613147565b925050819055506001600360008473ffffffffffffffffffffffffffffffffffffffff1673ffffffffffffffffffffffffffffffffffffffff1681526020019081526020016000206000828254611f1e9190613066565b92505081905550816002600083815260200190815260200160002060006101000a81548173ffffffffffffffffffffffffffffffffffffffff021916908373ffffffffffffffffffffffffffffffffffffffff160217905550808273ffffffffffffffffffffffffffffffffffffffff168473ffffffffffffffffffffffffffffffffffffffff167fddf252ad1be2c89b69c2b068fc378daa952ba7f163c4a11628f55a4df523b3ef60405160405180910390a4611fdd838383612374565b505050565b8173ffffffffffffffffffffffffffffffffffffffff168373ffffffffffffffffffffffffffffffffffffffff161415612051576040517f08c379a000000000000000000000000000000000000000000000000000000000815260040161204890612dbb565b60405180910390fd5b80600560008573ffffffffffffffffffffffffffffffffffffffff1673ffffffffffffffffffffffffffffffffffffffff16815260200190815260200160002060008473ffffffffffffffffffffffffffffffffffffffff1673ffffffffffffffffffffffffffffffffffffffff16815260200190815260200160002060006101000a81548160ff0219169083151502179055508173ffffffffffffffffffffffffffffffffffffffff168373ffffffffffffffffffffffffffffffffffffffff167f17307eab39ab6107e8899845ad3d59bd9653f200f220920489ca2b5937696c31836040516121429190612cfe565b60405180910390a3505050565b61215a848484611d7b565b61216684848484612379565b6121a5576040517f08c379a000000000000000000000000000000000000000000000000000000000815260040161219c90612d5b565b60405180910390fd5b50505050565b606060405180602001604052806000815250905090565b6060600082141561220a576040518060400160405280600181526020017f3000000000000000000000000000000000000000000000000000000000000000815250905061236a565b600082905060005b6000821461223c578080612225906132a6565b915050600a8261223591906130bc565b9150612212565b60008167ffffffffffffffff81111561227e577f4e487b7100000000000000000000000000000000000000000000000000000000600052604160045260246000fd5b6040519080825280601f01601f1916602001820160405280156122b05781602001600182028036833780820191505090505b5090505b60008514612363576001826122c99190613147565b9150600a856122d891906132ef565b60306122e49190613066565b60f81b818381518110612320577f4e487b7100000000000000000000000000000000000000000000000000000000600052603260045260246000fd5b60200101907effffffffffffffffffffffffffffffffffffffffffffffffffffffffffffff1916908160001a905350600a8561235c91906130bc565b94506122b4565b8093505050505b919050565b505050565b505050565b600061239a8473ffffffffffffffffffffffffffffffffffffffff16612510565b15612503578373ffffffffffffffffffffffffffffffffffffffff1663150b7a026123c3611bdc565b8786866040518563ffffffff1660e01b81526004016123e59493929190612c89565b602060405180830381600087803b1580156123ff57600080fd5b505af192505050801561243057506040513d601f19601f8201168201806040525081019061242d91906128b2565b60015b6124b3573d8060008114612460576040519150601f19603f3d011682016040523d82523d6000602084013e612465565b606091505b506000815114156124ab576040517f08c379a00000000000000000000000000000000000000000000000000000000081526004016124a290612d5b565b60405180910390fd5b805181602001fd5b63150b7a0260e01b7bffffffffffffffffffffffffffffffffffffffffffffffffffffffff1916817bffffffffffffffffffffffffffffffffffffffffffffffffffffffff191614915050612508565b600190505b949350505050565b6000808273ffffffffffffffffffffffffffffffffffffffff163b119050919050565b50805460008255906000526020600020908101906125519190612554565b50565b5b8082111561256d576000816000905550600101612555565b5090565b600061258461257f84612ff2565b612fcd565b90508281526020810184848401111561259c57600080fd5b6125a7848285613201565b509392505050565b6000813590506125be81613871565b92915050565b6000813590506125d381613888565b92915050565b6000813590506125e88161389f565b92915050565b6000813590506125fd816138b6565b92915050565b600081519050612612816138b6565b92915050565b600082601f83011261262957600080fd5b8135612639848260208601612571565b91505092915050565b600081359050612651816138cd565b92915050565b60006020828403121561266957600080fd5b6000612677848285016125af565b91505092915050565b6000806040838503121561269357600080fd5b60006126a1858286016125c4565b92505060206126b285828601612642565b9150509250929050565b600080604083850312156126cf57600080fd5b60006126dd858286016125af565b92505060206126ee858286016125af565b9150509250929050565b60008060006060848603121561270d57600080fd5b600061271b868287016125af565b935050602061272c868287016125c4565b925050604061273d86828701612642565b9150509250925092565b60008060006060848603121561275c57600080fd5b600061276a868287016125af565b935050602061277b868287016125af565b925050604061278c86828701612642565b9150509250925092565b600080600080608085870312156127ac57600080fd5b60006127ba878288016125af565b94505060206127cb878288016125af565b93505060406127dc87828801612642565b925050606085013567ffffffffffffffff8111156127f957600080fd5b61280587828801612618565b91505092959194509250565b6000806040838503121561282457600080fd5b6000612832858286016125af565b9250506020612843858286016125d9565b9150509250929050565b6000806040838503121561286057600080fd5b600061286e858286016125af565b925050602061287f85828601612642565b9150509250929050565b60006020828403121561289b57600080fd5b60006128a9848285016125ee565b91505092915050565b6000602082840312156128c457600080fd5b60006128d284828501612603565b91505092915050565b6000602082840312156128ed57600080fd5b60006128fb84828501612642565b91505092915050565b61290d8161317b565b82525050565b61291c8161319f565b82525050565b600061292d82613023565b6129378185613039565b9350612947818560208601613210565b612950816133dc565b840191505092915050565b60006129668261302e565b612970818561304a565b9350612980818560208601613210565b612989816133dc565b840191505092915050565b600061299f8261302e565b6129a9818561305b565b93506129b9818560208601613210565b80840191505092915050565b60006129d2600f8361304a565b91506129dd826133ed565b602082019050919050565b60006129f560328361304a565b9150612a0082613416565b604082019050919050565b6000612a1860258361304a565b9150612a2382613465565b604082019050919050565b6000612a3b60248361304a565b9150612a46826134b4565b604082019050919050565b6000612a5e60198361304a565b9150612a6982613503565b602082019050919050565b6000612a81602c8361304a565b9150612a8c8261352c565b604082019050919050565b6000612aa460128361304a565b9150612aaf8261357b565b602082019050919050565b6000612ac760388361304a565b9150612ad2826135a4565b604082019050919050565b6000612aea602a8361304a565b9150612af5826135f3565b604082019050919050565b6000612b0d60298361304a565b9150612b1882613642565b604082019050919050565b6000612b30602c8361304a565b9150612b3b82613691565b604082019050919050565b6000612b5360158361304a565b9150612b5e826136e0565b602082019050919050565b6000612b76602f8361304a565b9150612b8182613709565b604082019050919050565b6000612b9960218361304a565b9150612ba482613758565b604082019050919050565b6000612bbc60318361304a565b9150612bc7826137a7565b604082019050919050565b6000612bdf600b8361304a565b9150612bea826137f6565b602082019050919050565b6000612c02600f8361304a565b9150612c0d8261381f565b602082019050919050565b6000612c2560118361304a565b9150612c3082613848565b602082019050919050565b612c44816131f7565b82525050565b6000612c568285612994565b9150612c628284612994565b91508190509392505050565b6000602082019050612c836000830184612904565b92915050565b6000608082019050612c9e6000830187612904565b612cab6020830186612904565b612cb86040830185612c3b565b8181036060830152612cca8184612922565b905095945050505050565b6000604082019050612cea6000830185612904565b612cf76020830184612c3b565b9392505050565b6000602082019050612d136000830184612913565b92915050565b60006020820190508181036000830152612d33818461295b565b905092915050565b60006020820190508181036000830152612d54816129c5565b9050919050565b60006020820190508181036000830152612d74816129e8565b9050919050565b60006020820190508181036000830152612d9481612a0b565b9050919050565b60006020820190508181036000830152612db481612a2e565b9050919050565b60006020820190508181036000830152612dd481612a51565b9050919050565b60006020820190508181036000830152612df481612a74565b9050919050565b60006020820190508181036000830152612e1481612a97565b9050919050565b60006020820190508181036000830152612e3481612aba565b9050919050565b60006020820190508181036000830152612e5481612add565b9050919050565b60006020820190508181036000830152612e7481612b00565b9050919050565b60006020820190508181036000830152612e9481612b23565b9050919050565b60006020820190508181036000830152612eb481612b46565b9050919050565b60006020820190508181036000830152612ed481612b69565b9050919050565b60006020820190508181036000830152612ef481612b8c565b9050919050565b60006020820190508181036000830152612f1481612baf565b9050919050565b60006020820190508181036000830152612f3481612bd2565b9050919050565b60006020820190508181036000830152612f5481612bf5565b9050919050565b60006020820190508181036000830152612f7481612c18565b9050919050565b6000602082019050612f906000830184612c3b565b92915050565b6000606082019050612fab6000830186612c3b565b612fb86020830185612c3b565b612fc56040830184612913565b949350505050565b6000612fd7612fe8565b9050612fe38282613275565b919050565b6000604051905090565b600067ffffffffffffffff82111561300d5761300c6133ad565b5b613016826133dc565b9050602081019050919050565b600081519050919050565b600081519050919050565b600082825260208201905092915050565b600082825260208201905092915050565b600081905092915050565b6000613071826131f7565b915061307c836131f7565b9250827fffffffffffffffffffffffffffffffffffffffffffffffffffffffffffffffff038211156130b1576130b0613320565b5b828201905092915050565b60006130c7826131f7565b91506130d2836131f7565b9250826130e2576130e161334f565b5b828204905092915050565b60006130f8826131f7565b9150613103836131f7565b9250817fffffffffffffffffffffffffffffffffffffffffffffffffffffffffffffffff048311821515161561313c5761313b613320565b5b828202905092915050565b6000613152826131f7565b915061315d836131f7565b9250828210156131705761316f613320565b5b828203905092915050565b6000613186826131d7565b9050919050565b6000613198826131d7565b9050919050565b60008115159050919050565b60007fffffffff0000000000000000000000000000000000000000000000000000000082169050919050565b600073ffffffffffffffffffffffffffffffffffffffff82169050919050565b6000819050919050565b82818337600083830152505050565b60005b8381101561322e578082015181840152602081019050613213565b8381111561323d576000848401525b50505050565b6000600282049050600182168061325b57607f821691505b6020821081141561326f5761326e61337e565b5b50919050565b61327e826133dc565b810181811067ffffffffffffffff8211171561329d5761329c6133ad565b5b80604052505050565b60006132b1826131f7565b91507fffffffffffffffffffffffffffffffffffffffffffffffffffffffffffffffff8214156132e4576132e3613320565b5b600182019050919050565b60006132fa826131f7565b9150613305836131f7565b9250826133155761331461334f565b5b828206905092915050565b7f4e487b7100000000000000000000000000000000000000000000000000000000600052601160045260246000fd5b7f4e487b7100000000000000000000000000000000000000000000000000000000600052601260045260246000fd5b7f4e487b7100000000000000000000000000000000000000000000000000000000600052602260045260246000fd5b7f4e487b7100000000000000000000000000000000000000000000000000000000600052604160045260246000fd5b6000601f19601f8301169050919050565b7f4e6f742077697468647261776572210000000000000000000000000000000000600082015250565b7f4552433732313a207472616e7366657220746f206e6f6e20455243373231526560008201527f63656976657220696d706c656d656e7465720000000000000000000000000000602082015250565b7f4552433732313a207472616e736665722066726f6d20696e636f72726563742060008201527f6f776e6572000000000000000000000000000000000000000000000000000000602082015250565b7f4552433732313a207472616e7366657220746f20746865207a65726f2061646460008201527f7265737300000000000000000000000000000000000000000000000000000000602082015250565b7f4552433732313a20617070726f766520746f2063616c6c657200000000000000600082015250565b7f4552433732313a206f70657261746f7220717565727920666f72206e6f6e657860008201527f697374656e7420746f6b656e0000000000000000000000000000000000000000602082015250565b7f4e6f7420656e6f75676820616d6f756e74210000000000000000000000000000600082015250565b7f4552433732313a20617070726f76652063616c6c6572206973206e6f74206f7760008201527f6e6572206e6f7220617070726f76656420666f7220616c6c0000000000000000602082015250565b7f4552433732313a2062616c616e636520717565727920666f7220746865207a6560008201527f726f206164647265737300000000000000000000000000000000000000000000602082015250565b7f4552433732313a206f776e657220717565727920666f72206e6f6e657869737460008201527f656e7420746f6b656e0000000000000000000000000000000000000000000000602082015250565b7f4552433732313a20617070726f76656420717565727920666f72206e6f6e657860008201527f697374656e7420746f6b656e0000000000000000000000000000000000000000602082015250565b7f4e6f742065786973742077697468647261776572210000000000000000000000600082015250565b7f4552433732314d657461646174613a2055524920717565727920666f72206e6f60008201527f6e6578697374656e7420746f6b656e0000000000000000000000000000000000602082015250565b7f4552433732313a20617070726f76616c20746f2063757272656e74206f776e6560008201527f7200000000000000000000000000000000000000000000000000000000000000602082015250565b7f4552433732313a207472616e736665722063616c6c6572206973206e6f74206f60008201527f776e6572206e6f7220617070726f766564000000000000000000000000000000602082015250565b7f5769746864726177657221000000000000000000000000000000000000000000600082015250565b7f546f6f206d7563682061736b6564210000000000000000000000000000000000600082015250565b7f4e6f742061206f776e65722063616c6c21000000000000000000000000000000600082015250565b61387a8161317b565b811461388557600080fd5b50565b6138918161318d565b811461389c57600080fd5b50565b6138a88161319f565b81146138b357600080fd5b50565b6138bf816131ab565b81146138ca57600080fd5b50565b6138d6816131f7565b81146138e157600080fd5b5056fea2646970667358221220c906c6092408570b6299b48977f5a993853b834a04d7328db5bbe9fd4aabd8c164736f6c63430008020033",
  "immutableReferences": {},
  "source": "// SPDX-License-Identifier: MIT\npragma solidity ^0.8.2;\nimport \"@openzeppelin/contracts/token/ERC721/ERC721.sol\";\n\nstruct withdrawers {\n    uint256 payableAmount;\n    uint256 percantage;\n    bool isExist;\n}\n\ncontract Payment is ERC721 {\n    bool public concept_withdraw;\n    bool public trainers_withdraw;\n    bool public itemPresale_withdraw;\n\n    address public owner;\n\n    /*\n    allPhaseTypes = [1, 2, 3, 4, 5];\n\n        1: Item Presale\n        2: Metamon Mint\n        3: Item Metamon Secondary Sales\n        4: Trainers\n        5: Concept Art\n    */\n\n    mapping(address => mapping(address => withdrawers)) public phaseTypes;\n    mapping(address => address[]) public phaseOwners;\n    mapping(address => uint256) private lockedAmountPerPhase;\n\n    event ReceivedEth(address sender, uint256 value);\n    event ConceptWithdrawn(address receiver, uint256 value);\n    event TrainersWithdrawn(address receiver, uint256 value);\n    event ItemPresaleWithdrawn(address receiver, uint256 value);\n\n    constructor() payable ERC721(\"NFT Payments\", \"Payment\") {\n        owner = msg.sender;\n    }\n\n    ///////////////////////////////////////////////////////////////////////////\n    // Contract ETH Deals\n    ///////////////////////////////////////////////////////////////////////////\n    fallback() external payable {}\n\n    receive() external payable {\n        emit ReceivedEth(msg.sender, msg.value);\n    }\n\n    function receiveAmountDistribute(address phaseType) public payable {\n        // TODO: check if phase exist\n        lockedAmountPerPhase[phaseType] += msg.value;\n\n        address[] memory _phaseOwners = phaseOwners[phaseType];\n        for (uint256 i = 0; i < _phaseOwners.length; i++) {\n            uint256 _percantage = phaseTypes[phaseType][_phaseOwners[i]]\n                .percantage;\n            phaseTypes[phaseType][_phaseOwners[i]].payableAmount += ((msg\n                .value * _percantage) / 100);\n        }\n    }\n\n    ///////////////////////////////////////////////////////////////////////////\n    // Modifiers\n    ///////////////////////////////////////////////////////////////////////////\n    modifier onlyOwner(address sender) {\n        require(sender == owner, \"Not a owner call!\");\n        _;\n    }\n\n    modifier withdrawerCheck(\n        address phaseType,\n        address withdrawer,\n        bool exists\n    ) {\n        require(\n            phaseTypes[phaseType][withdrawer].isExist == exists,\n            \"Withdrawer!\"\n        );\n        _;\n    }\n\n    function addWithdrawer(\n        address phaseType,\n        address withdrawer,\n        uint256 percantage\n    ) public onlyOwner(msg.sender) {\n        // TODO: we might like to add for loop\n        /*Adding withdrawer addresses into specific phase types with percantage\n\n        Args: \n            phaseType (address): specifies phase type\n            withdrawer (address): specifies address of withdrawer\n            percantage (uint256): specifies the percantage quantity n/100\n\n        Returns:\n            bool: if success true else false\n        */\n        phaseOwners[phaseType].push(withdrawer);\n\n        phaseTypes[phaseType][withdrawer].isExist = true;\n        phaseTypes[phaseType][withdrawer].percantage = percantage;\n        phaseTypes[phaseType][withdrawer].payableAmount = 0;\n    }\n\n    function removeWithdrawer(address phaseType, address withdrawer)\n        public\n        onlyOwner(msg.sender)\n        withdrawerCheck(phaseType, withdrawer, true)\n    {\n        delete phaseOwners[phaseType];\n        delete phaseTypes[phaseType][withdrawer];\n    }\n\n    function Withdraw(\n        address phaseType,\n        address payable withdrawer,\n        uint256 amount\n    ) public {\n        require(msg.sender == withdrawer, \"Not withdrawer!\"); // validate user itself\n\n        require(\n            phaseTypes[phaseType][withdrawer].isExist == true,\n            \"Not exist withdrawer!\"\n        ); // validate user\n\n        require(\n            phaseTypes[phaseType][withdrawer].payableAmount <= amount,\n            \"Not enough amount!\"\n        ); // validate amount\n\n        withdrawer.transfer(amount);\n    }\n\n    function checkAmounts(address phaseType)\n        public\n        view\n        onlyOwner(msg.sender)\n        returns (uint256)\n    {\n        return lockedAmountPerPhase[phaseType];\n    }\n\n    function ownerWithdraw(address payable receiver, uint256 amount)\n        public\n        onlyOwner(msg.sender)\n    {\n        require(amount <= address(this).balance, \"Too much asked!\");\n        receiver.transfer(amount);\n    }\n}\n",
  "sourcePath": "/Users/aipek/Documents/metamon_contracts/contracts/Payment.sol",
  "compiler": {
    "name": "solc",
    "version": "0.8.2+commit.661d1103.Emscripten.clang"
  },
  "schemaVersion": "3.4.4",
  "updatedAt": "2022-03-31T19:51:09.598Z",
  "networkType": "ethereum",
  "devdoc": {
    "kind": "dev",
    "methods": {
      "approve(address,uint256)": {
        "details": "See {IERC721-approve}."
      },
      "balanceOf(address)": {
        "details": "See {IERC721-balanceOf}."
      },
      "getApproved(uint256)": {
        "details": "See {IERC721-getApproved}."
      },
      "isApprovedForAll(address,address)": {
        "details": "See {IERC721-isApprovedForAll}."
      },
      "name()": {
        "details": "See {IERC721Metadata-name}."
      },
      "ownerOf(uint256)": {
        "details": "See {IERC721-ownerOf}."
      },
      "safeTransferFrom(address,address,uint256)": {
        "details": "See {IERC721-safeTransferFrom}."
      },
      "safeTransferFrom(address,address,uint256,bytes)": {
        "details": "See {IERC721-safeTransferFrom}."
      },
      "setApprovalForAll(address,bool)": {
        "details": "See {IERC721-setApprovalForAll}."
      },
      "supportsInterface(bytes4)": {
        "details": "See {IERC165-supportsInterface}."
      },
      "symbol()": {
        "details": "See {IERC721Metadata-symbol}."
      },
      "tokenURI(uint256)": {
        "details": "See {IERC721Metadata-tokenURI}."
      },
      "transferFrom(address,address,uint256)": {
        "details": "See {IERC721-transferFrom}."
      }
    },
    "version": 1
  },
  "userdoc": {
    "kind": "user",
    "methods": {},
    "version": 1
  }
}