{
  "contractName": "Payment",
  "abi": [
    {
      "inputs": [],
      "stateMutability": "payable",
      "type": "constructor",
      "payable": true
    },
    {
      "anonymous": false,
      "inputs": [
        {
          "indexed": true,
          "internalType": "address",
          "name": "owner",
          "type": "address"
        },
        {
          "indexed": true,
          "internalType": "address",
          "name": "approved",
          "type": "address"
        },
        {
          "indexed": true,
          "internalType": "uint256",
          "name": "tokenId",
          "type": "uint256"
        }
      ],
      "name": "Approval",
      "type": "event"
    },
    {
      "anonymous": false,
      "inputs": [
        {
          "indexed": true,
          "internalType": "address",
          "name": "owner",
          "type": "address"
        },
        {
          "indexed": true,
          "internalType": "address",
          "name": "operator",
          "type": "address"
        },
        {
          "indexed": false,
          "internalType": "bool",
          "name": "approved",
          "type": "bool"
        }
      ],
      "name": "ApprovalForAll",
      "type": "event"
    },
    {
      "anonymous": false,
      "inputs": [
        {
          "indexed": false,
          "internalType": "address",
          "name": "receiver",
          "type": "address"
        },
        {
          "indexed": false,
          "internalType": "uint256",
          "name": "value",
          "type": "uint256"
        }
      ],
      "name": "ConceptWithdrawn",
      "type": "event"
    },
    {
      "anonymous": false,
      "inputs": [
        {
          "indexed": false,
          "internalType": "address",
          "name": "receiver",
          "type": "address"
        },
        {
          "indexed": false,
          "internalType": "uint256",
          "name": "value",
          "type": "uint256"
        }
      ],
      "name": "ItemPresaleWithdrawn",
      "type": "event"
    },
    {
      "anonymous": false,
      "inputs": [
        {
          "indexed": false,
          "internalType": "address",
          "name": "sender",
          "type": "address"
        },
        {
          "indexed": false,
          "internalType": "uint256",
          "name": "value",
          "type": "uint256"
        }
      ],
      "name": "ReceivedEth",
      "type": "event"
    },
    {
      "anonymous": false,
      "inputs": [
        {
          "indexed": false,
          "internalType": "address",
          "name": "receiver",
          "type": "address"
        },
        {
          "indexed": false,
          "internalType": "uint256",
          "name": "value",
          "type": "uint256"
        }
      ],
      "name": "TrainersWithdrawn",
      "type": "event"
    },
    {
      "anonymous": false,
      "inputs": [
        {
          "indexed": true,
          "internalType": "address",
          "name": "from",
          "type": "address"
        },
        {
          "indexed": true,
          "internalType": "address",
          "name": "to",
          "type": "address"
        },
        {
          "indexed": true,
          "internalType": "uint256",
          "name": "tokenId",
          "type": "uint256"
        }
      ],
      "name": "Transfer",
      "type": "event"
    },
    {
      "stateMutability": "payable",
      "type": "fallback",
      "payable": true
    },
    {
      "inputs": [
        {
          "internalType": "address",
          "name": "to",
          "type": "address"
        },
        {
          "internalType": "uint256",
          "name": "tokenId",
          "type": "uint256"
        }
      ],
      "name": "approve",
      "outputs": [],
      "stateMutability": "nonpayable",
      "type": "function"
    },
    {
      "inputs": [
        {
          "internalType": "address",
          "name": "owner",
          "type": "address"
        }
      ],
      "name": "balanceOf",
      "outputs": [
        {
          "internalType": "uint256",
          "name": "",
          "type": "uint256"
        }
      ],
      "stateMutability": "view",
      "type": "function",
      "constant": true
    },
    {
      "inputs": [],
      "name": "concept_withdraw",
      "outputs": [
        {
          "internalType": "bool",
          "name": "",
          "type": "bool"
        }
      ],
      "stateMutability": "view",
      "type": "function",
      "constant": true
    },
    {
      "inputs": [
        {
          "internalType": "uint256",
          "name": "tokenId",
          "type": "uint256"
        }
      ],
      "name": "getApproved",
      "outputs": [
        {
          "internalType": "address",
          "name": "",
          "type": "address"
        }
      ],
      "stateMutability": "view",
      "type": "function",
      "constant": true
    },
    {
      "inputs": [
        {
          "internalType": "address",
          "name": "owner",
          "type": "address"
        },
        {
          "internalType": "address",
          "name": "operator",
          "type": "address"
        }
      ],
      "name": "isApprovedForAll",
      "outputs": [
        {
          "internalType": "bool",
          "name": "",
          "type": "bool"
        }
      ],
      "stateMutability": "view",
      "type": "function",
      "constant": true
    },
    {
      "inputs": [],
      "name": "itemPresale_withdraw",
      "outputs": [
        {
          "internalType": "bool",
          "name": "",
          "type": "bool"
        }
      ],
      "stateMutability": "view",
      "type": "function",
      "constant": true
    },
    {
      "inputs": [],
      "name": "name",
      "outputs": [
        {
          "internalType": "string",
          "name": "",
          "type": "string"
        }
      ],
      "stateMutability": "view",
      "type": "function",
      "constant": true
    },
    {
      "inputs": [],
      "name": "owner",
      "outputs": [
        {
          "internalType": "address",
          "name": "",
          "type": "address"
        }
      ],
      "stateMutability": "view",
      "type": "function",
      "constant": true
    },
    {
      "inputs": [
        {
          "internalType": "uint256",
          "name": "tokenId",
          "type": "uint256"
        }
      ],
      "name": "ownerOf",
      "outputs": [
        {
          "internalType": "address",
          "name": "",
          "type": "address"
        }
      ],
      "stateMutability": "view",
      "type": "function",
      "constant": true
    },
    {
      "inputs": [
        {
          "internalType": "address",
          "name": "from",
          "type": "address"
        },
        {
          "internalType": "address",
          "name": "to",
          "type": "address"
        },
        {
          "internalType": "uint256",
          "name": "tokenId",
          "type": "uint256"
        }
      ],
      "name": "safeTransferFrom",
      "outputs": [],
      "stateMutability": "nonpayable",
      "type": "function"
    },
    {
      "inputs": [
        {
          "internalType": "address",
          "name": "from",
          "type": "address"
        },
        {
          "internalType": "address",
          "name": "to",
          "type": "address"
        },
        {
          "internalType": "uint256",
          "name": "tokenId",
          "type": "uint256"
        },
        {
          "internalType": "bytes",
          "name": "_data",
          "type": "bytes"
        }
      ],
      "name": "safeTransferFrom",
      "outputs": [],
      "stateMutability": "nonpayable",
      "type": "function"
    },
    {
      "inputs": [
        {
          "internalType": "address",
          "name": "operator",
          "type": "address"
        },
        {
          "internalType": "bool",
          "name": "approved",
          "type": "bool"
        }
      ],
      "name": "setApprovalForAll",
      "outputs": [],
      "stateMutability": "nonpayable",
      "type": "function"
    },
    {
      "inputs": [
        {
          "internalType": "bytes4",
          "name": "interfaceId",
          "type": "bytes4"
        }
      ],
      "name": "supportsInterface",
      "outputs": [
        {
          "internalType": "bool",
          "name": "",
          "type": "bool"
        }
      ],
      "stateMutability": "view",
      "type": "function",
      "constant": true
    },
    {
      "inputs": [],
      "name": "symbol",
      "outputs": [
        {
          "internalType": "string",
          "name": "",
          "type": "string"
        }
      ],
      "stateMutability": "view",
      "type": "function",
      "constant": true
    },
    {
      "inputs": [
        {
          "internalType": "uint256",
          "name": "tokenId",
          "type": "uint256"
        }
      ],
      "name": "tokenURI",
      "outputs": [
        {
          "internalType": "string",
          "name": "",
          "type": "string"
        }
      ],
      "stateMutability": "view",
      "type": "function",
      "constant": true
    },
    {
      "inputs": [],
      "name": "trainers_withdraw",
      "outputs": [
        {
          "internalType": "bool",
          "name": "",
          "type": "bool"
        }
      ],
      "stateMutability": "view",
      "type": "function",
      "constant": true
    },
    {
      "inputs": [
        {
          "internalType": "address",
          "name": "from",
          "type": "address"
        },
        {
          "internalType": "address",
          "name": "to",
          "type": "address"
        },
        {
          "internalType": "uint256",
          "name": "tokenId",
          "type": "uint256"
        }
      ],
      "name": "transferFrom",
      "outputs": [],
      "stateMutability": "nonpayable",
      "type": "function"
    },
    {
      "stateMutability": "payable",
      "type": "receive",
      "payable": true
    },
    {
      "inputs": [
        {
          "internalType": "address",
          "name": "phaseType",
          "type": "address"
        }
      ],
      "name": "receiveAmountDistribute",
      "outputs": [],
      "stateMutability": "payable",
      "type": "function",
      "payable": true
    },
    {
      "inputs": [
        {
          "internalType": "address",
          "name": "phaseType",
          "type": "address"
        },
        {
          "internalType": "address",
          "name": "withdrawer",
          "type": "address"
        },
        {
          "internalType": "uint256",
          "name": "percantage",
          "type": "uint256"
        }
      ],
      "name": "addWithdrawer",
      "outputs": [],
      "stateMutability": "nonpayable",
      "type": "function"
    },
    {
      "inputs": [
        {
          "internalType": "address",
          "name": "phaseType",
          "type": "address"
        },
        {
          "internalType": "address",
          "name": "withdrawer",
          "type": "address"
        }
      ],
      "name": "removeWithdrawer",
      "outputs": [],
      "stateMutability": "nonpayable",
      "type": "function"
    },
    {
      "inputs": [
        {
          "internalType": "address",
          "name": "phaseType",
          "type": "address"
        },
        {
          "internalType": "address payable",
          "name": "withdrawer",
          "type": "address"
        },
        {
          "internalType": "uint256",
          "name": "amount",
          "type": "uint256"
        }
      ],
      "name": "Withdraw",
      "outputs": [],
      "stateMutability": "nonpayable",
      "type": "function"
    },
    {
      "inputs": [
        {
          "internalType": "address payable",
          "name": "receiver",
          "type": "address"
        },
        {
          "internalType": "uint256",
          "name": "amount",
          "type": "uint256"
        }
      ],
      "name": "ownerWithdraw",
      "outputs": [],
      "stateMutability": "nonpayable",
      "type": "function"
    }
  ],
  "bytecode": "0x60806040526040518060400160405280600c81526020017f4e4654205061796d656e747300000000000000000000000000000000000000008152506040518060400160405280600781526020017f5061796d656e7400000000000000000000000000000000000000000000000000815250816000908051906020019062000088929190620000eb565b508060019080519060200190620000a1929190620000eb565b50505033600660036101000a81548173ffffffffffffffffffffffffffffffffffffffff021916908373ffffffffffffffffffffffffffffffffffffffff16021790555062000200565b828054620000f9906200019b565b90600052602060002090601f0160209004810192826200011d576000855562000169565b82601f106200013857805160ff191683800117855562000169565b8280016001018555821562000169579182015b82811115620001685782518255916020019190600101906200014b565b5b5090506200017891906200017c565b5090565b5b80821115620001975760008160009055506001016200017d565b5090565b60006002820490506001821680620001b457607f821691505b60208210811415620001cb57620001ca620001d1565b5b50919050565b7f4e487b7100000000000000000000000000000000000000000000000000000000600052602260045260246000fd5b61381780620002106000396000f3fe6080604052600436106101395760003560e01c80638da5cb5b116100ab578063b88d4fde1161006f578063b88d4fde14610458578063c87b56dd14610481578063cacdb3d6146104be578063cb3a7609146104e9578063d9c88e1414610512578063e985e9c51461053b57610179565b80638da5cb5b1461038557806395d89b41146103b05780639b1bfa7f146103db578063a22cb46514610404578063b2c2ade41461042d57610179565b806323b872dd116100fd57806323b872dd1461027257806342842e0e1461029b578063469feb7e146102c45780636352211e146102ef57806370a082311461032c57806386b5c8601461036957610179565b806301ffc9a71461017b57806306904cc9146101b857806306fdde03146101e1578063081812fc1461020c578063095ea7b31461024957610179565b36610179577f52a6cdf67c40ce333b3d846e4e143db87f71dd7935612a4cafcf6ba76047ca1f333460405161016f929190612bc6565b60405180910390a1005b005b34801561018757600080fd5b506101a2600480360381019061019d919061276e565b610578565b6040516101af9190612bef565b60405180910390f35b3480156101c457600080fd5b506101df60048036038101906101da9190612618565b61065a565b005b3480156101ed57600080fd5b506101f6610a09565b6040516102039190612c0a565b60405180910390f35b34801561021857600080fd5b50610233600480360381019061022e91906127c8565b610a9b565b6040516102409190612b5f565b60405180910390f35b34801561025557600080fd5b50610270600480360381019061026b919061272e565b610b20565b005b34801561027e57600080fd5b5061029960048036038101906102949190612618565b610c38565b005b3480156102a757600080fd5b506102c260048036038101906102bd9190612618565b610c98565b005b3480156102d057600080fd5b506102d9610cb8565b6040516102e69190612bef565b60405180910390f35b3480156102fb57600080fd5b50610316600480360381019061031191906127c8565b610ccb565b6040516103239190612b5f565b60405180910390f35b34801561033857600080fd5b50610353600480360381019061034e9190612518565b610d7d565b6040516103609190612e6c565b60405180910390f35b610383600480360381019061037e9190612518565b610e35565b005b34801561039157600080fd5b5061039a6110dd565b6040516103a79190612b5f565b60405180910390f35b3480156103bc57600080fd5b506103c5611103565b6040516103d29190612c0a565b60405180910390f35b3480156103e757600080fd5b5061040260048036038101906103fd91906125c5565b611195565b005b34801561041057600080fd5b5061042b600480360381019061042691906126ee565b6113e4565b005b34801561043957600080fd5b506104426113fa565b60405161044f9190612bef565b60405180910390f35b34801561046457600080fd5b5061047f600480360381019061047a919061266b565b61140d565b005b34801561048d57600080fd5b506104a860048036038101906104a391906127c8565b61146f565b6040516104b59190612c0a565b60405180910390f35b3480156104ca57600080fd5b506104d3611516565b6040516104e09190612bef565b60405180910390f35b3480156104f557600080fd5b50610510600480360381019061050b9190612585565b611529565b005b34801561051e57600080fd5b5061053960048036038101906105349190612545565b611857565b005b34801561054757600080fd5b50610562600480360381019061055d9190612585565b611977565b60405161056f9190612bef565b60405180910390f35b60007f80ac58cd000000000000000000000000000000000000000000000000000000007bffffffffffffffffffffffffffffffffffffffffffffffffffffffff1916827bffffffffffffffffffffffffffffffffffffffffffffffffffffffff1916148061064357507f5b5e139f000000000000000000000000000000000000000000000000000000007bffffffffffffffffffffffffffffffffffffffffffffffffffffffff1916827bffffffffffffffffffffffffffffffffffffffffffffffffffffffff1916145b80610653575061065282611a0b565b5b9050919050565b33600660039054906101000a900473ffffffffffffffffffffffffffffffffffffffff1673ffffffffffffffffffffffffffffffffffffffff168173ffffffffffffffffffffffffffffffffffffffff16146106eb576040517f08c379a00000000000000000000000000000000000000000000000000000000081526004016106e290612e4c565b60405180910390fd5b838360011515600760008473ffffffffffffffffffffffffffffffffffffffff1673ffffffffffffffffffffffffffffffffffffffff16815260200190815260200160002060008373ffffffffffffffffffffffffffffffffffffffff1673ffffffffffffffffffffffffffffffffffffffff16815260200190815260200160002060020160009054906101000a900460ff161515146107c0576040517f08c379a00000000000000000000000000000000000000000000000000000000081526004016107b790612dac565b60405180910390fd5b600860008773ffffffffffffffffffffffffffffffffffffffff1673ffffffffffffffffffffffffffffffffffffffff168152602001908152602001600020859080600181540180825580915050600190039060005260206000200160009091909190916101000a81548173ffffffffffffffffffffffffffffffffffffffff021916908373ffffffffffffffffffffffffffffffffffffffff1602179055506001600760008873ffffffffffffffffffffffffffffffffffffffff1673ffffffffffffffffffffffffffffffffffffffff16815260200190815260200160002060008773ffffffffffffffffffffffffffffffffffffffff1673ffffffffffffffffffffffffffffffffffffffff16815260200190815260200160002060020160006101000a81548160ff02191690831515021790555083600760008873ffffffffffffffffffffffffffffffffffffffff1673ffffffffffffffffffffffffffffffffffffffff16815260200190815260200160002060008773ffffffffffffffffffffffffffffffffffffffff1673ffffffffffffffffffffffffffffffffffffffff168152602001908152602001600020600101819055506000600760008873ffffffffffffffffffffffffffffffffffffffff1673ffffffffffffffffffffffffffffffffffffffff16815260200190815260200160002060008773ffffffffffffffffffffffffffffffffffffffff1673ffffffffffffffffffffffffffffffffffffffff16815260200190815260200160002060000181905550505050505050565b606060008054610a18906130fd565b80601f0160208091040260200160405190810160405280929190818152602001828054610a44906130fd565b8015610a915780601f10610a6657610100808354040283529160200191610a91565b820191906000526020600020905b815481529060010190602001808311610a7457829003601f168201915b5050505050905090565b6000610aa682611a75565b610ae5576040517f08c379a0000000000000000000000000000000000000000000000000000000008152600401610adc90612d8c565b60405180910390fd5b6004600083815260200190815260200160002060009054906101000a900473ffffffffffffffffffffffffffffffffffffffff169050919050565b6000610b2b82610ccb565b90508073ffffffffffffffffffffffffffffffffffffffff168373ffffffffffffffffffffffffffffffffffffffff161415610b9c576040517f08c379a0000000000000000000000000000000000000000000000000000000008152600401610b9390612dec565b60405180910390fd5b8073ffffffffffffffffffffffffffffffffffffffff16610bbb611ae1565b73ffffffffffffffffffffffffffffffffffffffff161480610bea5750610be981610be4611ae1565b611977565b5b610c29576040517f08c379a0000000000000000000000000000000000000000000000000000000008152600401610c2090612d2c565b60405180910390fd5b610c338383611ae9565b505050565b610c49610c43611ae1565b82611ba2565b610c88576040517f08c379a0000000000000000000000000000000000000000000000000000000008152600401610c7f90612e0c565b60405180910390fd5b610c93838383611c80565b505050565b610cb38383836040518060200160405280600081525061140d565b505050565b600660019054906101000a900460ff1681565b6000806002600084815260200190815260200160002060009054906101000a900473ffffffffffffffffffffffffffffffffffffffff169050600073ffffffffffffffffffffffffffffffffffffffff168173ffffffffffffffffffffffffffffffffffffffff161415610d74576040517f08c379a0000000000000000000000000000000000000000000000000000000008152600401610d6b90612d6c565b60405180910390fd5b80915050919050565b60008073ffffffffffffffffffffffffffffffffffffffff168273ffffffffffffffffffffffffffffffffffffffff161415610dee576040517f08c379a0000000000000000000000000000000000000000000000000000000008152600401610de590612d4c565b60405180910390fd5b600360008373ffffffffffffffffffffffffffffffffffffffff1673ffffffffffffffffffffffffffffffffffffffff168152602001908152602001600020549050919050565b34600960008373ffffffffffffffffffffffffffffffffffffffff1673ffffffffffffffffffffffffffffffffffffffff1681526020019081526020016000206000828254610e849190612f20565b925050819055506000600860008373ffffffffffffffffffffffffffffffffffffffff1673ffffffffffffffffffffffffffffffffffffffff168152602001908152602001600020805480602002602001604051908101604052809291908181526020018280548015610f4c57602002820191906000526020600020905b8160009054906101000a900473ffffffffffffffffffffffffffffffffffffffff1673ffffffffffffffffffffffffffffffffffffffff1681526020019060010190808311610f02575b5050505050905060005b81518110156110d8576000600760008573ffffffffffffffffffffffffffffffffffffffff1673ffffffffffffffffffffffffffffffffffffffff1681526020019081526020016000206000848481518110610fb557610fb4613267565b5b602002602001015173ffffffffffffffffffffffffffffffffffffffff1673ffffffffffffffffffffffffffffffffffffffff16815260200190815260200160002060010154905060648161100a9190612f76565b346110159190612fa7565b600760008673ffffffffffffffffffffffffffffffffffffffff1673ffffffffffffffffffffffffffffffffffffffff168152602001908152602001600020600085858151811061106957611068613267565b5b602002602001015173ffffffffffffffffffffffffffffffffffffffff1673ffffffffffffffffffffffffffffffffffffffff16815260200190815260200160002060000160008282546110bd9190612f20565b925050819055505080806110d090613160565b915050610f56565b505050565b600660039054906101000a900473ffffffffffffffffffffffffffffffffffffffff1681565b606060018054611112906130fd565b80601f016020809104026020016040519081016040528092919081815260200182805461113e906130fd565b801561118b5780601f106111605761010080835404028352916020019161118b565b820191906000526020600020905b81548152906001019060200180831161116e57829003601f168201915b5050505050905090565b8173ffffffffffffffffffffffffffffffffffffffff163373ffffffffffffffffffffffffffffffffffffffff1614611203576040517f08c379a00000000000000000000000000000000000000000000000000000000081526004016111fa90612c4c565b60405180910390fd5b60011515600760008573ffffffffffffffffffffffffffffffffffffffff1673ffffffffffffffffffffffffffffffffffffffff16815260200190815260200160002060008473ffffffffffffffffffffffffffffffffffffffff1673ffffffffffffffffffffffffffffffffffffffff16815260200190815260200160002060020160009054906101000a900460ff161515146112d6576040517f08c379a00000000000000000000000000000000000000000000000000000000081526004016112cd90612dac565b60405180910390fd5b80600760008573ffffffffffffffffffffffffffffffffffffffff1673ffffffffffffffffffffffffffffffffffffffff16815260200190815260200160002060008473ffffffffffffffffffffffffffffffffffffffff1673ffffffffffffffffffffffffffffffffffffffff168152602001908152602001600020600001541115611398576040517f08c379a000000000000000000000000000000000000000000000000000000000815260040161138f90612d0c565b60405180910390fd5b8173ffffffffffffffffffffffffffffffffffffffff166108fc829081150290604051600060405180830381858888f193505050501580156113de573d6000803e3d6000fd5b50505050565b6113f66113ef611ae1565b8383611ee7565b5050565b600660009054906101000a900460ff1681565b61141e611418611ae1565b83611ba2565b61145d576040517f08c379a000000000000000000000000000000000000000000000000000000000815260040161145490612e0c565b60405180910390fd5b61146984848484612054565b50505050565b606061147a82611a75565b6114b9576040517f08c379a00000000000000000000000000000000000000000000000000000000081526004016114b090612dcc565b60405180910390fd5b60006114c36120b0565b905060008151116114e3576040518060200160405280600081525061150e565b806114ed846120c7565b6040516020016114fe929190612b3b565b6040516020818303038152906040525b915050919050565b600660029054906101000a900460ff1681565b33600660039054906101000a900473ffffffffffffffffffffffffffffffffffffffff1673ffffffffffffffffffffffffffffffffffffffff168173ffffffffffffffffffffffffffffffffffffffff16146115ba576040517f08c379a00000000000000000000000000000000000000000000000000000000081526004016115b190612e4c565b60405180910390fd5b828260011515600760008473ffffffffffffffffffffffffffffffffffffffff1673ffffffffffffffffffffffffffffffffffffffff16815260200190815260200160002060008373ffffffffffffffffffffffffffffffffffffffff1673ffffffffffffffffffffffffffffffffffffffff16815260200190815260200160002060020160009054906101000a900460ff1615151461168f576040517f08c379a000000000000000000000000000000000000000000000000000000000815260040161168690612dac565b60405180910390fd5b60011515600760008773ffffffffffffffffffffffffffffffffffffffff1673ffffffffffffffffffffffffffffffffffffffff16815260200190815260200160002060008673ffffffffffffffffffffffffffffffffffffffff1673ffffffffffffffffffffffffffffffffffffffff16815260200190815260200160002060020160009054906101000a900460ff16151514611762576040517f08c379a000000000000000000000000000000000000000000000000000000000815260040161175990612c2c565b60405180910390fd5b600860008673ffffffffffffffffffffffffffffffffffffffff1673ffffffffffffffffffffffffffffffffffffffff16815260200190815260200160002060006117ad91906123ec565b600760008673ffffffffffffffffffffffffffffffffffffffff1673ffffffffffffffffffffffffffffffffffffffff16815260200190815260200160002060008573ffffffffffffffffffffffffffffffffffffffff1673ffffffffffffffffffffffffffffffffffffffff16815260200190815260200160002060008082016000905560018201600090556002820160006101000a81549060ff021916905550505050505050565b33600660039054906101000a900473ffffffffffffffffffffffffffffffffffffffff1673ffffffffffffffffffffffffffffffffffffffff168173ffffffffffffffffffffffffffffffffffffffff16146118e8576040517f08c379a00000000000000000000000000000000000000000000000000000000081526004016118df90612e4c565b60405180910390fd5b4782111561192b576040517f08c379a000000000000000000000000000000000000000000000000000000000815260040161192290612e2c565b60405180910390fd5b8273ffffffffffffffffffffffffffffffffffffffff166108fc839081150290604051600060405180830381858888f19350505050158015611971573d6000803e3d6000fd5b50505050565b6000600560008473ffffffffffffffffffffffffffffffffffffffff1673ffffffffffffffffffffffffffffffffffffffff16815260200190815260200160002060008373ffffffffffffffffffffffffffffffffffffffff1673ffffffffffffffffffffffffffffffffffffffff16815260200190815260200160002060009054906101000a900460ff16905092915050565b60007f01ffc9a7000000000000000000000000000000000000000000000000000000007bffffffffffffffffffffffffffffffffffffffffffffffffffffffff1916827bffffffffffffffffffffffffffffffffffffffffffffffffffffffff1916149050919050565b60008073ffffffffffffffffffffffffffffffffffffffff166002600084815260200190815260200160002060009054906101000a900473ffffffffffffffffffffffffffffffffffffffff1673ffffffffffffffffffffffffffffffffffffffff1614159050919050565b600033905090565b816004600083815260200190815260200160002060006101000a81548173ffffffffffffffffffffffffffffffffffffffff021916908373ffffffffffffffffffffffffffffffffffffffff160217905550808273ffffffffffffffffffffffffffffffffffffffff16611b5c83610ccb565b73ffffffffffffffffffffffffffffffffffffffff167f8c5be1e5ebec7d5bd14f71427d1e84f3dd0314c0f7b2291e5b200ac8c7c3b92560405160405180910390a45050565b6000611bad82611a75565b611bec576040517f08c379a0000000000000000000000000000000000000000000000000000000008152600401611be390612cec565b60405180910390fd5b6000611bf783610ccb565b90508073ffffffffffffffffffffffffffffffffffffffff168473ffffffffffffffffffffffffffffffffffffffff161480611c6657508373ffffffffffffffffffffffffffffffffffffffff16611c4e84610a9b565b73ffffffffffffffffffffffffffffffffffffffff16145b80611c775750611c768185611977565b5b91505092915050565b8273ffffffffffffffffffffffffffffffffffffffff16611ca082610ccb565b73ffffffffffffffffffffffffffffffffffffffff1614611cf6576040517f08c379a0000000000000000000000000000000000000000000000000000000008152600401611ced90612c8c565b60405180910390fd5b600073ffffffffffffffffffffffffffffffffffffffff168273ffffffffffffffffffffffffffffffffffffffff161415611d66576040517f08c379a0000000000000000000000000000000000000000000000000000000008152600401611d5d90612cac565b60405180910390fd5b611d71838383612228565b611d7c600082611ae9565b6001600360008573ffffffffffffffffffffffffffffffffffffffff1673ffffffffffffffffffffffffffffffffffffffff1681526020019081526020016000206000828254611dcc9190613001565b925050819055506001600360008473ffffffffffffffffffffffffffffffffffffffff1673ffffffffffffffffffffffffffffffffffffffff1681526020019081526020016000206000828254611e239190612f20565b92505081905550816002600083815260200190815260200160002060006101000a81548173ffffffffffffffffffffffffffffffffffffffff021916908373ffffffffffffffffffffffffffffffffffffffff160217905550808273ffffffffffffffffffffffffffffffffffffffff168473ffffffffffffffffffffffffffffffffffffffff167fddf252ad1be2c89b69c2b068fc378daa952ba7f163c4a11628f55a4df523b3ef60405160405180910390a4611ee283838361222d565b505050565b8173ffffffffffffffffffffffffffffffffffffffff168373ffffffffffffffffffffffffffffffffffffffff161415611f56576040517f08c379a0000000000000000000000000000000000000000000000000000000008152600401611f4d90612ccc565b60405180910390fd5b80600560008573ffffffffffffffffffffffffffffffffffffffff1673ffffffffffffffffffffffffffffffffffffffff16815260200190815260200160002060008473ffffffffffffffffffffffffffffffffffffffff1673ffffffffffffffffffffffffffffffffffffffff16815260200190815260200160002060006101000a81548160ff0219169083151502179055508173ffffffffffffffffffffffffffffffffffffffff168373ffffffffffffffffffffffffffffffffffffffff167f17307eab39ab6107e8899845ad3d59bd9653f200f220920489ca2b5937696c31836040516120479190612bef565b60405180910390a3505050565b61205f848484611c80565b61206b84848484612232565b6120aa576040517f08c379a00000000000000000000000000000000000000000000000000000000081526004016120a190612c6c565b60405180910390fd5b50505050565b606060405180602001604052806000815250905090565b6060600082141561210f576040518060400160405280600181526020017f30000000000000000000000000000000000000000000000000000000000000008152509050612223565b600082905060005b6000821461214157808061212a90613160565b915050600a8261213a9190612f76565b9150612117565b60008167ffffffffffffffff81111561215d5761215c613296565b5b6040519080825280601f01601f19166020018201604052801561218f5781602001600182028036833780820191505090505b5090505b6000851461221c576001826121a89190613001565b9150600a856121b791906131a9565b60306121c39190612f20565b60f81b8183815181106121d9576121d8613267565b5b60200101907effffffffffffffffffffffffffffffffffffffffffffffffffffffffffffff1916908160001a905350600a856122159190612f76565b9450612193565b8093505050505b919050565b505050565b505050565b60006122538473ffffffffffffffffffffffffffffffffffffffff166123c9565b156123bc578373ffffffffffffffffffffffffffffffffffffffff1663150b7a0261227c611ae1565b8786866040518563ffffffff1660e01b815260040161229e9493929190612b7a565b602060405180830381600087803b1580156122b857600080fd5b505af19250505080156122e957506040513d601f19601f820116820180604052508101906122e6919061279b565b60015b61236c573d8060008114612319576040519150601f19603f3d011682016040523d82523d6000602084013e61231e565b606091505b50600081511415612364576040517f08c379a000000000000000000000000000000000000000000000000000000000815260040161235b90612c6c565b60405180910390fd5b805181602001fd5b63150b7a0260e01b7bffffffffffffffffffffffffffffffffffffffffffffffffffffffff1916817bffffffffffffffffffffffffffffffffffffffffffffffffffffffff1916149150506123c1565b600190505b949350505050565b6000808273ffffffffffffffffffffffffffffffffffffffff163b119050919050565b508054600082559060005260206000209081019061240a919061240d565b50565b5b8082111561242657600081600090555060010161240e565b5090565b600061243d61243884612eac565b612e87565b905082815260208101848484011115612459576124586132ca565b5b6124648482856130bb565b509392505050565b60008135905061247b8161376e565b92915050565b60008135905061249081613785565b92915050565b6000813590506124a58161379c565b92915050565b6000813590506124ba816137b3565b92915050565b6000815190506124cf816137b3565b92915050565b600082601f8301126124ea576124e96132c5565b5b81356124fa84826020860161242a565b91505092915050565b600081359050612512816137ca565b92915050565b60006020828403121561252e5761252d6132d4565b5b600061253c8482850161246c565b91505092915050565b6000806040838503121561255c5761255b6132d4565b5b600061256a85828601612481565b925050602061257b85828601612503565b9150509250929050565b6000806040838503121561259c5761259b6132d4565b5b60006125aa8582860161246c565b92505060206125bb8582860161246c565b9150509250929050565b6000806000606084860312156125de576125dd6132d4565b5b60006125ec8682870161246c565b93505060206125fd86828701612481565b925050604061260e86828701612503565b9150509250925092565b600080600060608486031215612631576126306132d4565b5b600061263f8682870161246c565b93505060206126508682870161246c565b925050604061266186828701612503565b9150509250925092565b60008060008060808587031215612685576126846132d4565b5b60006126938782880161246c565b94505060206126a48782880161246c565b93505060406126b587828801612503565b925050606085013567ffffffffffffffff8111156126d6576126d56132cf565b5b6126e2878288016124d5565b91505092959194509250565b60008060408385031215612705576127046132d4565b5b60006127138582860161246c565b925050602061272485828601612496565b9150509250929050565b60008060408385031215612745576127446132d4565b5b60006127538582860161246c565b925050602061276485828601612503565b9150509250929050565b600060208284031215612784576127836132d4565b5b6000612792848285016124ab565b91505092915050565b6000602082840312156127b1576127b06132d4565b5b60006127bf848285016124c0565b91505092915050565b6000602082840312156127de576127dd6132d4565b5b60006127ec84828501612503565b91505092915050565b6127fe81613035565b82525050565b61280d81613059565b82525050565b600061281e82612edd565b6128288185612ef3565b93506128388185602086016130ca565b612841816132d9565b840191505092915050565b600061285782612ee8565b6128618185612f04565b93506128718185602086016130ca565b61287a816132d9565b840191505092915050565b600061289082612ee8565b61289a8185612f15565b93506128aa8185602086016130ca565b80840191505092915050565b60006128c3601683612f04565b91506128ce826132ea565b602082019050919050565b60006128e6600f83612f04565b91506128f182613313565b602082019050919050565b6000612909603283612f04565b91506129148261333c565b604082019050919050565b600061292c602583612f04565b91506129378261338b565b604082019050919050565b600061294f602483612f04565b915061295a826133da565b604082019050919050565b6000612972601983612f04565b915061297d82613429565b602082019050919050565b6000612995602c83612f04565b91506129a082613452565b604082019050919050565b60006129b8601283612f04565b91506129c3826134a1565b602082019050919050565b60006129db603883612f04565b91506129e6826134ca565b604082019050919050565b60006129fe602a83612f04565b9150612a0982613519565b604082019050919050565b6000612a21602983612f04565b9150612a2c82613568565b604082019050919050565b6000612a44602c83612f04565b9150612a4f826135b7565b604082019050919050565b6000612a67601583612f04565b9150612a7282613606565b602082019050919050565b6000612a8a602f83612f04565b9150612a958261362f565b604082019050919050565b6000612aad602183612f04565b9150612ab88261367e565b604082019050919050565b6000612ad0603183612f04565b9150612adb826136cd565b604082019050919050565b6000612af3600f83612f04565b9150612afe8261371c565b602082019050919050565b6000612b16601183612f04565b9150612b2182613745565b602082019050919050565b612b35816130b1565b82525050565b6000612b478285612885565b9150612b538284612885565b91508190509392505050565b6000602082019050612b7460008301846127f5565b92915050565b6000608082019050612b8f60008301876127f5565b612b9c60208301866127f5565b612ba96040830185612b2c565b8181036060830152612bbb8184612813565b905095945050505050565b6000604082019050612bdb60008301856127f5565b612be86020830184612b2c565b9392505050565b6000602082019050612c046000830184612804565b92915050565b60006020820190508181036000830152612c24818461284c565b905092915050565b60006020820190508181036000830152612c45816128b6565b9050919050565b60006020820190508181036000830152612c65816128d9565b9050919050565b60006020820190508181036000830152612c85816128fc565b9050919050565b60006020820190508181036000830152612ca58161291f565b9050919050565b60006020820190508181036000830152612cc581612942565b9050919050565b60006020820190508181036000830152612ce581612965565b9050919050565b60006020820190508181036000830152612d0581612988565b9050919050565b60006020820190508181036000830152612d25816129ab565b9050919050565b60006020820190508181036000830152612d45816129ce565b9050919050565b60006020820190508181036000830152612d65816129f1565b9050919050565b60006020820190508181036000830152612d8581612a14565b9050919050565b60006020820190508181036000830152612da581612a37565b9050919050565b60006020820190508181036000830152612dc581612a5a565b9050919050565b60006020820190508181036000830152612de581612a7d565b9050919050565b60006020820190508181036000830152612e0581612aa0565b9050919050565b60006020820190508181036000830152612e2581612ac3565b9050919050565b60006020820190508181036000830152612e4581612ae6565b9050919050565b60006020820190508181036000830152612e6581612b09565b9050919050565b6000602082019050612e816000830184612b2c565b92915050565b6000612e91612ea2565b9050612e9d828261312f565b919050565b6000604051905090565b600067ffffffffffffffff821115612ec757612ec6613296565b5b612ed0826132d9565b9050602081019050919050565b600081519050919050565b600081519050919050565b600082825260208201905092915050565b600082825260208201905092915050565b600081905092915050565b6000612f2b826130b1565b9150612f36836130b1565b9250827fffffffffffffffffffffffffffffffffffffffffffffffffffffffffffffffff03821115612f6b57612f6a6131da565b5b828201905092915050565b6000612f81826130b1565b9150612f8c836130b1565b925082612f9c57612f9b613209565b5b828204905092915050565b6000612fb2826130b1565b9150612fbd836130b1565b9250817fffffffffffffffffffffffffffffffffffffffffffffffffffffffffffffffff0483118215151615612ff657612ff56131da565b5b828202905092915050565b600061300c826130b1565b9150613017836130b1565b92508282101561302a576130296131da565b5b828203905092915050565b600061304082613091565b9050919050565b600061305282613091565b9050919050565b60008115159050919050565b60007fffffffff0000000000000000000000000000000000000000000000000000000082169050919050565b600073ffffffffffffffffffffffffffffffffffffffff82169050919050565b6000819050919050565b82818337600083830152505050565b60005b838110156130e85780820151818401526020810190506130cd565b838111156130f7576000848401525b50505050565b6000600282049050600182168061311557607f821691505b6020821081141561312957613128613238565b5b50919050565b613138826132d9565b810181811067ffffffffffffffff8211171561315757613156613296565b5b80604052505050565b600061316b826130b1565b91507fffffffffffffffffffffffffffffffffffffffffffffffffffffffffffffffff82141561319e5761319d6131da565b5b600182019050919050565b60006131b4826130b1565b91506131bf836130b1565b9250826131cf576131ce613209565b5b828206905092915050565b7f4e487b7100000000000000000000000000000000000000000000000000000000600052601160045260246000fd5b7f4e487b7100000000000000000000000000000000000000000000000000000000600052601260045260246000fd5b7f4e487b7100000000000000000000000000000000000000000000000000000000600052602260045260246000fd5b7f4e487b7100000000000000000000000000000000000000000000000000000000600052603260045260246000fd5b7f4e487b7100000000000000000000000000000000000000000000000000000000600052604160045260246000fd5b600080fd5b600080fd5b600080fd5b600080fd5b6000601f19601f8301169050919050565b7f4e6f742065786973747320776974686472617765722100000000000000000000600082015250565b7f4e6f742077697468647261776572210000000000000000000000000000000000600082015250565b7f4552433732313a207472616e7366657220746f206e6f6e20455243373231526560008201527f63656976657220696d706c656d656e7465720000000000000000000000000000602082015250565b7f4552433732313a207472616e736665722066726f6d20696e636f72726563742060008201527f6f776e6572000000000000000000000000000000000000000000000000000000602082015250565b7f4552433732313a207472616e7366657220746f20746865207a65726f2061646460008201527f7265737300000000000000000000000000000000000000000000000000000000602082015250565b7f4552433732313a20617070726f766520746f2063616c6c657200000000000000600082015250565b7f4552433732313a206f70657261746f7220717565727920666f72206e6f6e657860008201527f697374656e7420746f6b656e0000000000000000000000000000000000000000602082015250565b7f4e6f7420656e6f75676820616d6f756e74210000000000000000000000000000600082015250565b7f4552433732313a20617070726f76652063616c6c6572206973206e6f74206f7760008201527f6e6572206e6f7220617070726f76656420666f7220616c6c0000000000000000602082015250565b7f4552433732313a2062616c616e636520717565727920666f7220746865207a6560008201527f726f206164647265737300000000000000000000000000000000000000000000602082015250565b7f4552433732313a206f776e657220717565727920666f72206e6f6e657869737460008201527f656e7420746f6b656e0000000000000000000000000000000000000000000000602082015250565b7f4552433732313a20617070726f76656420717565727920666f72206e6f6e657860008201527f697374656e7420746f6b656e0000000000000000000000000000000000000000602082015250565b7f4e6f742065786973742077697468647261776572210000000000000000000000600082015250565b7f4552433732314d657461646174613a2055524920717565727920666f72206e6f60008201527f6e6578697374656e7420746f6b656e0000000000000000000000000000000000602082015250565b7f4552433732313a20617070726f76616c20746f2063757272656e74206f776e6560008201527f7200000000000000000000000000000000000000000000000000000000000000602082015250565b7f4552433732313a207472616e736665722063616c6c6572206973206e6f74206f60008201527f776e6572206e6f7220617070726f766564000000000000000000000000000000602082015250565b7f546f6f206d7563682061736b6564210000000000000000000000000000000000600082015250565b7f4e6f742061206f776e65722063616c6c21000000000000000000000000000000600082015250565b61377781613035565b811461378257600080fd5b50565b61378e81613047565b811461379957600080fd5b50565b6137a581613059565b81146137b057600080fd5b50565b6137bc81613065565b81146137c757600080fd5b50565b6137d3816130b1565b81146137de57600080fd5b5056fea26469706673582212205262375bb3f0828df6cbb9caf92f16fcf5192c7b5832bc3e84ae5d2a3f49cd5764736f6c63430008070033",
  "immutableReferences": {},
  "source": "// SPDX-License-Identifier: MIT\npragma solidity ^0.8.2;\nimport \"@openzeppelin/contracts/token/ERC721/ERC721.sol\";\n\nstruct withdrawers {\n    uint256 payableAmount;\n    uint256 percantage;\n    bool isExist;\n}\n\ncontract Payment is ERC721 {\n    bool public concept_withdraw;\n    bool public trainers_withdraw;\n    bool public itemPresale_withdraw;\n\n    address public owner;\n\n    /*\n    allPhaseTypes = [1, 2, 3, 4, 5];\n\n        1: Item Presale\n        2: Metamon Mint\n        3: Item Metamon Secondary Sales\n        4: Trainers\n        5: Concept Art\n    */\n\n    mapping(address => mapping(address => withdrawers)) private phaseTypes;\n    mapping(address => address[]) private phaseOwners;\n    mapping(address => uint256) private lockedAmountPerPhase;\n\n    event ReceivedEth(address sender, uint256 value);\n    event ConceptWithdrawn(address receiver, uint256 value);\n    event TrainersWithdrawn(address receiver, uint256 value);\n    event ItemPresaleWithdrawn(address receiver, uint256 value);\n\n    constructor() payable ERC721(\"NFT Payments\", \"Payment\") {\n        owner = msg.sender;\n    }\n\n    ///////////////////////////////////////////////////////////////////////////\n    // Contract ETH Deals\n    ///////////////////////////////////////////////////////////////////////////\n    fallback() external payable {}\n\n    receive() external payable {\n        emit ReceivedEth(msg.sender, msg.value);\n    }\n\n    function receiveAmountDistribute(address phaseType) public payable {\n        // TODO: check if phase exist\n        lockedAmountPerPhase[phaseType] += msg.value;\n\n        address[] memory _phaseOwners = phaseOwners[phaseType];\n        for (uint256 i = 0; i < _phaseOwners.length; i++) {\n            uint256 _percantage = phaseTypes[phaseType][_phaseOwners[i]]\n                .percantage;\n            phaseTypes[phaseType][_phaseOwners[i]].payableAmount +=\n                msg.value *\n                (_percantage / 100);\n        }\n    }\n\n    ///////////////////////////////////////////////////////////////////////////\n    // Modifiers\n    ///////////////////////////////////////////////////////////////////////////\n    modifier onlyOwner(address sender) {\n        require(sender == owner, \"Not a owner call!\");\n        _;\n    }\n\n    modifier withdrawerCheck(address phaseType, address withdrawer) {\n        require(\n            phaseTypes[phaseType][withdrawer].isExist == true,\n            \"Not exist withdrawer!\"\n        );\n        _;\n    }\n\n    function addWithdrawer(\n        address phaseType,\n        address withdrawer,\n        uint256 percantage\n    ) public onlyOwner(msg.sender) withdrawerCheck(phaseType, withdrawer) {\n        /*Adding withdrawer addresses into specific phase types with percantage\n\n        Args: \n            phaseType (address): specifies phase type\n            withdrawer (address): specifies address of withdrawer\n            percantage (uint256): specifies the percantage quantity n/100\n\n        Returns:\n            bool: if success true else false\n        */\n        phaseOwners[phaseType].push(withdrawer);\n\n        phaseTypes[phaseType][withdrawer].isExist = true;\n        phaseTypes[phaseType][withdrawer].percantage = percantage;\n        phaseTypes[phaseType][withdrawer].payableAmount = 0;\n    }\n\n    function removeWithdrawer(address phaseType, address withdrawer)\n        public\n        onlyOwner(msg.sender)\n        withdrawerCheck(phaseType, withdrawer)\n    {\n        require(\n            phaseTypes[phaseType][withdrawer].isExist == true,\n            \"Not exists withdrawer!\"\n        );\n        delete phaseOwners[phaseType];\n        delete phaseTypes[phaseType][withdrawer];\n    }\n\n    function Withdraw(\n        address phaseType,\n        address payable withdrawer,\n        uint256 amount\n    ) public {\n        require(msg.sender == withdrawer, \"Not withdrawer!\"); // validate user itself\n\n        require(\n            phaseTypes[phaseType][withdrawer].isExist == true,\n            \"Not exist withdrawer!\"\n        ); // validate user\n\n        require(\n            phaseTypes[phaseType][withdrawer].payableAmount <= amount,\n            \"Not enough amount!\"\n        ); // validate amount\n\n        withdrawer.transfer(amount);\n    }\n\n    function ownerWithdraw(address payable receiver, uint256 amount)\n        public\n        onlyOwner(msg.sender)\n    {\n        require(amount <= address(this).balance, \"Too much asked!\");\n        receiver.transfer(amount);\n    }\n}\n",
  "sourcePath": "/Users/aipek/Documents/metamon_contracts/contracts/Payment.sol",
  "compiler": {
    "name": "solc",
    "version": "0.8.7+commit.e28d00a7.Emscripten.clang"
  },
  "schemaVersion": "3.4.4",
  "updatedAt": "2022-03-30T21:05:24.797Z",
  "networkType": "ethereum",
  "devdoc": {
    "kind": "dev",
    "methods": {
      "approve(address,uint256)": {
        "details": "See {IERC721-approve}."
      },
      "balanceOf(address)": {
        "details": "See {IERC721-balanceOf}."
      },
      "getApproved(uint256)": {
        "details": "See {IERC721-getApproved}."
      },
      "isApprovedForAll(address,address)": {
        "details": "See {IERC721-isApprovedForAll}."
      },
      "name()": {
        "details": "See {IERC721Metadata-name}."
      },
      "ownerOf(uint256)": {
        "details": "See {IERC721-ownerOf}."
      },
      "safeTransferFrom(address,address,uint256)": {
        "details": "See {IERC721-safeTransferFrom}."
      },
      "safeTransferFrom(address,address,uint256,bytes)": {
        "details": "See {IERC721-safeTransferFrom}."
      },
      "setApprovalForAll(address,bool)": {
        "details": "See {IERC721-setApprovalForAll}."
      },
      "supportsInterface(bytes4)": {
        "details": "See {IERC165-supportsInterface}."
      },
      "symbol()": {
        "details": "See {IERC721Metadata-symbol}."
      },
      "tokenURI(uint256)": {
        "details": "See {IERC721Metadata-tokenURI}."
      },
      "transferFrom(address,address,uint256)": {
        "details": "See {IERC721-transferFrom}."
      }
    },
    "version": 1
  },
  "userdoc": {
    "kind": "user",
    "methods": {},
    "version": 1
  }
}